{
  "contractName": "DragonFactory",
  "abi": [
    {
      "inputs": [
        {
          "internalType": "address",
          "name": "gateway",
          "type": "address"
        },
        {
          "internalType": "uint8",
          "name": "blockchainId",
          "type": "uint8"
        }
      ],
      "payable": false,
      "stateMutability": "nonpayable",
      "type": "constructor"
    },
    {
      "anonymous": false,
      "inputs": [
        {
          "indexed": true,
          "internalType": "address",
          "name": "owner",
          "type": "address"
        },
        {
          "indexed": true,
          "internalType": "address",
          "name": "approved",
          "type": "address"
        },
        {
          "indexed": true,
          "internalType": "uint256",
          "name": "tokenId",
          "type": "uint256"
        }
      ],
      "name": "Approval",
      "type": "event"
    },
    {
      "anonymous": false,
      "inputs": [
        {
          "indexed": true,
          "internalType": "address",
          "name": "owner",
          "type": "address"
        },
        {
          "indexed": true,
          "internalType": "address",
          "name": "operator",
          "type": "address"
        },
        {
          "indexed": false,
          "internalType": "bool",
          "name": "approved",
          "type": "bool"
        }
      ],
      "name": "ApprovalForAll",
      "type": "event"
    },
    {
      "anonymous": false,
      "inputs": [
        {
          "indexed": false,
          "internalType": "uint256",
          "name": "dragonId",
          "type": "uint256"
        },
        {
          "indexed": false,
          "internalType": "uint256",
          "name": "dna",
          "type": "uint256"
        }
      ],
      "name": "NewDragon",
      "type": "event"
    },
    {
      "anonymous": false,
      "inputs": [
        {
          "indexed": true,
          "internalType": "address",
          "name": "previousOwner",
          "type": "address"
        },
        {
          "indexed": true,
          "internalType": "address",
          "name": "newOwner",
          "type": "address"
        }
      ],
      "name": "OwnershipTransferred",
      "type": "event"
    },
    {
      "anonymous": false,
      "inputs": [
        {
          "indexed": true,
          "internalType": "address",
          "name": "from",
          "type": "address"
        },
        {
          "indexed": true,
          "internalType": "address",
          "name": "to",
          "type": "address"
        },
        {
          "indexed": true,
          "internalType": "uint256",
          "name": "tokenId",
          "type": "uint256"
        }
      ],
      "name": "Transfer",
      "type": "event"
    },
    {
      "constant": false,
      "inputs": [
        {
          "internalType": "address",
          "name": "to",
          "type": "address"
        },
        {
          "internalType": "uint256",
          "name": "tokenId",
          "type": "uint256"
        }
      ],
      "name": "approve",
      "outputs": [],
      "payable": false,
      "stateMutability": "nonpayable",
      "type": "function"
    },
    {
      "constant": true,
      "inputs": [
        {
          "internalType": "address",
          "name": "owner",
          "type": "address"
        }
      ],
      "name": "balanceOf",
      "outputs": [
        {
          "internalType": "uint256",
          "name": "",
          "type": "uint256"
        }
      ],
      "payable": false,
      "stateMutability": "view",
      "type": "function"
    },
    {
      "constant": true,
      "inputs": [
        {
          "internalType": "uint256",
          "name": "",
          "type": "uint256"
        }
      ],
      "name": "dragonIndexToOwner",
      "outputs": [
        {
          "internalType": "address",
          "name": "",
          "type": "address"
        }
      ],
      "payable": false,
      "stateMutability": "view",
      "type": "function"
    },
    {
      "constant": true,
      "inputs": [
        {
          "internalType": "uint256",
          "name": "tokenId",
          "type": "uint256"
        }
      ],
      "name": "getApproved",
      "outputs": [
        {
          "internalType": "address",
          "name": "",
          "type": "address"
        }
      ],
      "payable": false,
      "stateMutability": "view",
      "type": "function"
    },
    {
      "constant": true,
      "inputs": [
        {
          "internalType": "uint256",
          "name": "_dragonId",
          "type": "uint256"
        }
      ],
      "name": "getDragonById",
      "outputs": [
        {
          "internalType": "bytes32",
          "name": "name",
          "type": "bytes32"
        },
        {
          "internalType": "uint32",
          "name": "dadId",
          "type": "uint32"
        },
        {
          "internalType": "uint32",
          "name": "motherId",
          "type": "uint32"
        },
        {
          "internalType": "uint32",
          "name": "currentExperience",
          "type": "uint32"
        },
        {
          "internalType": "uint16",
          "name": "health",
          "type": "uint16"
        },
        {
          "internalType": "uint16",
          "name": "strength",
          "type": "uint16"
        },
        {
          "internalType": "uint16",
          "name": "agility",
          "type": "uint16"
        },
        {
          "internalType": "uint16",
          "name": "fortitude",
          "type": "uint16"
        }
      ],
      "payable": false,
      "stateMutability": "view",
      "type": "function"
    },
    {
      "constant": true,
      "inputs": [
        {
          "internalType": "uint256",
          "name": "_dragonId",
          "type": "uint256"
        }
      ],
      "name": "getDragonName",
      "outputs": [
        {
          "internalType": "bytes32",
          "name": "",
          "type": "bytes32"
        }
      ],
      "payable": false,
      "stateMutability": "view",
      "type": "function"
    },
    {
      "constant": true,
      "inputs": [
        {
          "internalType": "uint256",
          "name": "_dragonId",
          "type": "uint256"
        }
      ],
      "name": "getDragonOwner",
      "outputs": [
        {
          "internalType": "address",
          "name": "",
          "type": "address"
        }
      ],
      "payable": false,
      "stateMutability": "view",
      "type": "function"
    },
    {
      "constant": true,
      "inputs": [
        {
          "internalType": "address",
          "name": "_owner",
          "type": "address"
        }
      ],
      "name": "getDragonsCountByOwner",
      "outputs": [
        {
          "internalType": "uint256",
          "name": "",
          "type": "uint256"
        }
      ],
      "payable": false,
      "stateMutability": "view",
      "type": "function"
    },
    {
      "constant": true,
      "inputs": [
        {
          "internalType": "address",
          "name": "_owner",
          "type": "address"
        }
      ],
      "name": "getDragonsIdsByOwner",
      "outputs": [
        {
          "internalType": "uint256[]",
          "name": "",
          "type": "uint256[]"
        }
      ],
      "payable": false,
      "stateMutability": "view",
      "type": "function"
    },
    {
      "constant": true,
      "inputs": [
        {
          "internalType": "uint256",
          "name": "_dragonId",
          "type": "uint256"
        }
      ],
      "name": "getParents",
      "outputs": [
        {
          "internalType": "uint256",
          "name": "motherId",
          "type": "uint256"
        },
        {
          "internalType": "uint256",
          "name": "dadId",
          "type": "uint256"
        }
      ],
      "payable": false,
      "stateMutability": "view",
      "type": "function"
    },
    {
      "constant": true,
      "inputs": [
        {
          "internalType": "address",
          "name": "owner",
          "type": "address"
        },
        {
          "internalType": "address",
          "name": "operator",
          "type": "address"
        }
      ],
      "name": "isApprovedForAll",
      "outputs": [
        {
          "internalType": "bool",
          "name": "",
          "type": "bool"
        }
      ],
      "payable": false,
      "stateMutability": "view",
      "type": "function"
    },
    {
      "constant": true,
      "inputs": [
        {
          "internalType": "uint256",
          "name": "_dragonId",
          "type": "uint256"
        }
      ],
      "name": "isEgg",
      "outputs": [
        {
          "internalType": "bool",
          "name": "",
          "type": "bool"
        }
      ],
      "payable": false,
      "stateMutability": "view",
      "type": "function"
    },
    {
      "constant": true,
      "inputs": [],
      "name": "isOwner",
      "outputs": [
        {
          "internalType": "bool",
          "name": "",
          "type": "bool"
        }
      ],
      "payable": false,
      "stateMutability": "view",
      "type": "function"
    },
    {
      "constant": true,
      "inputs": [],
      "name": "owner",
      "outputs": [
        {
          "internalType": "address",
          "name": "",
          "type": "address"
        }
      ],
      "payable": false,
      "stateMutability": "view",
      "type": "function"
    },
    {
      "constant": true,
      "inputs": [
        {
          "internalType": "uint256",
          "name": "tokenId",
          "type": "uint256"
        }
      ],
      "name": "ownerOf",
      "outputs": [
        {
          "internalType": "address",
          "name": "",
          "type": "address"
        }
      ],
      "payable": false,
      "stateMutability": "view",
      "type": "function"
    },
    {
      "constant": false,
      "inputs": [],
      "name": "renounceOwnership",
      "outputs": [],
      "payable": false,
      "stateMutability": "nonpayable",
      "type": "function"
    },
    {
      "constant": false,
      "inputs": [
        {
          "internalType": "address",
          "name": "from",
          "type": "address"
        },
        {
          "internalType": "address",
          "name": "to",
          "type": "address"
        },
        {
          "internalType": "uint256",
          "name": "tokenId",
          "type": "uint256"
        }
      ],
      "name": "safeTransferFrom",
      "outputs": [],
      "payable": false,
      "stateMutability": "nonpayable",
      "type": "function"
    },
    {
      "constant": false,
      "inputs": [
        {
          "internalType": "address",
          "name": "from",
          "type": "address"
        },
        {
          "internalType": "address",
          "name": "to",
          "type": "address"
        },
        {
          "internalType": "uint256",
          "name": "tokenId",
          "type": "uint256"
        },
        {
          "internalType": "bytes",
          "name": "_data",
          "type": "bytes"
        }
      ],
      "name": "safeTransferFrom",
      "outputs": [],
      "payable": false,
      "stateMutability": "nonpayable",
      "type": "function"
    },
    {
      "constant": false,
      "inputs": [
        {
          "internalType": "address",
          "name": "to",
          "type": "address"
        },
        {
          "internalType": "bool",
          "name": "approved",
          "type": "bool"
        }
      ],
      "name": "setApprovalForAll",
      "outputs": [],
      "payable": false,
      "stateMutability": "nonpayable",
      "type": "function"
    },
    {
      "constant": false,
      "inputs": [
        {
          "internalType": "uint256",
          "name": "_dragonId",
          "type": "uint256"
        },
        {
          "internalType": "string",
          "name": "_name",
          "type": "string"
        }
      ],
      "name": "setName",
      "outputs": [],
      "payable": false,
      "stateMutability": "nonpayable",
      "type": "function"
    },
    {
      "constant": true,
      "inputs": [
        {
          "internalType": "bytes4",
          "name": "interfaceId",
          "type": "bytes4"
        }
      ],
      "name": "supportsInterface",
      "outputs": [
        {
          "internalType": "bool",
          "name": "",
          "type": "bool"
        }
      ],
      "payable": false,
      "stateMutability": "view",
      "type": "function"
    },
    {
      "constant": true,
      "inputs": [
        {
          "internalType": "uint256",
          "name": "index",
          "type": "uint256"
        }
      ],
      "name": "tokenByIndex",
      "outputs": [
        {
          "internalType": "uint256",
          "name": "",
          "type": "uint256"
        }
      ],
      "payable": false,
      "stateMutability": "view",
      "type": "function"
    },
    {
      "constant": true,
      "inputs": [
        {
          "internalType": "address",
          "name": "owner",
          "type": "address"
        },
        {
          "internalType": "uint256",
          "name": "index",
          "type": "uint256"
        }
      ],
      "name": "tokenOfOwnerByIndex",
      "outputs": [
        {
          "internalType": "uint256",
          "name": "",
          "type": "uint256"
        }
      ],
      "payable": false,
      "stateMutability": "view",
      "type": "function"
    },
    {
      "constant": true,
      "inputs": [
        {
          "internalType": "address",
          "name": "owner",
          "type": "address"
        }
      ],
      "name": "tokensIdsOwnedBy",
      "outputs": [
        {
          "internalType": "uint256[]",
          "name": "",
          "type": "uint256[]"
        }
      ],
      "payable": false,
      "stateMutability": "view",
      "type": "function"
    },
    {
      "constant": true,
      "inputs": [],
      "name": "totalSupply",
      "outputs": [
        {
          "internalType": "uint256",
          "name": "",
          "type": "uint256"
        }
      ],
      "payable": false,
      "stateMutability": "view",
      "type": "function"
    },
    {
      "constant": false,
      "inputs": [
        {
          "internalType": "address",
          "name": "from",
          "type": "address"
        },
        {
          "internalType": "address",
          "name": "to",
          "type": "address"
        },
        {
          "internalType": "uint256",
          "name": "tokenId",
          "type": "uint256"
        }
      ],
      "name": "transferFrom",
      "outputs": [],
      "payable": false,
      "stateMutability": "nonpayable",
      "type": "function"
    },
    {
      "constant": false,
      "inputs": [
        {
          "internalType": "address",
          "name": "newOwner",
          "type": "address"
        }
      ],
      "name": "transferOwnership",
      "outputs": [],
      "payable": false,
      "stateMutability": "nonpayable",
      "type": "function"
    },
    {
      "constant": false,
      "inputs": [
        {
          "internalType": "string",
          "name": "_name",
          "type": "string"
        },
        {
          "internalType": "uint64",
          "name": "_creationTime",
          "type": "uint64"
        },
        {
          "internalType": "uint32",
          "name": "_dadId",
          "type": "uint32"
        },
        {
          "internalType": "uint32",
          "name": "_motherId",
          "type": "uint32"
        }
      ],
      "name": "createDragon",
      "outputs": [],
      "payable": false,
      "stateMutability": "nonpayable",
      "type": "function"
    }
  ],
  "bytecode": "0x60806040526000600c60006101000a81548160ff021916908360ff1602179055503480156200002d57600080fd5b506040516200316f3803806200316f833981810160405260408110156200005357600080fd5b810190808051906020019092919080519060200190929190505050620000ab6301ffc9a77c010000000000000000000000000000000000000000000000000000000002620002eb640100000000026401000000009004565b620000e86380ac58cd7c010000000000000000000000000000000000000000000000000000000002620002eb640100000000026401000000009004565b6200012563780e9d637c010000000000000000000000000000000000000000000000000000000002620002eb640100000000026401000000009004565b33600960006101000a81548173ffffffffffffffffffffffffffffffffffffffff021916908373ffffffffffffffffffffffffffffffffffffffff160217905550600960009054906101000a900473ffffffffffffffffffffffffffffffffffffffff1673ffffffffffffffffffffffffffffffffffffffff16600073ffffffffffffffffffffffffffffffffffffffff167f8be0079c531659141344cd1fd0a4f28419497f9722a3daafe3b4186f6b6457e060405160405180910390a3600073ffffffffffffffffffffffffffffffffffffffff168273ffffffffffffffffffffffffffffffffffffffff16141562000287576040517f08c379a00000000000000000000000000000000000000000000000000000000081526004018080602001828103825260178152602001807f496e76616c69642067617465776179206164647265737300000000000000000081525060200191505060405180910390fd5b81601060006101000a81548173ffffffffffffffffffffffffffffffffffffffff021916908373ffffffffffffffffffffffffffffffffffffffff16021790555080600c60006101000a81548160ff021916908360ff1602179055505050620003a7565b63ffffffff7c010000000000000000000000000000000000000000000000000000000002817bffffffffffffffffffffffffffffffffffffffffffffffffffffffff191614156200033b57600080fd5b6001600080837bffffffffffffffffffffffffffffffffffffffffffffffffffffffff19167bffffffffffffffffffffffffffffffffffffffffffffffffffffffff1916815260200190815260200160002060006101000a81548160ff02191690831515021790555050565b612db880620003b76000396000f3fe608060405234801561001057600080fd5b50600436106101e1576000357c01000000000000000000000000000000000000000000000000000000009004806370a0823111610116578063b88d4fde116100b4578063dfd4e4a41161008e578063dfd4e4a414610bcd578063e985e9c514610c13578063f2fde38b14610c8f578063fe55932a14610cd3576101e1565b8063b88d4fde146109b9578063c9cf557014610abe578063d9b6e2f714610b75576101e1565b80638ec251c3116100f05780638ec251c31461086c5780638f32d59b14610905578063a22cb46514610927578063b1b0473c14610977576101e1565b806370a08231146107c0578063715018a6146108185780638da5cb5b14610822576101e1565b806323b872dd1161018357806342842e0e1161015d57806342842e0e146106345780634f6ccce7146106a25780635d64aa68146106e45780636352211e14610752576101e1565b806323b872dd1461051b578063242a0087146105895780632f745c59146105d2576101e1565b8063095ea7b3116101bf578063095ea7b3146103525780630b4cb527146103a05780631407b5001461048f57806318160ddd146104fd576101e1565b806301ffc9a7146101e65780630469e8ac1461024b578063081812fc146102e4575b600080fd5b610231600480360360208110156101fc57600080fd5b8101908080357bffffffffffffffffffffffffffffffffffffffffffffffffffffffff19169060200190929190505050610d56565b604051808215151515815260200191505060405180910390f35b61028d6004803603602081101561026157600080fd5b81019080803573ffffffffffffffffffffffffffffffffffffffff169060200190929190505050610dbd565b6040518080602001828103825283818151815260200191508051906020019060200280838360005b838110156102d05780820151818401526020810190506102b5565b505050509050019250505060405180910390f35b610310600480360360208110156102fa57600080fd5b8101908080359060200190929190505050610e54565b604051808273ffffffffffffffffffffffffffffffffffffffff1673ffffffffffffffffffffffffffffffffffffffff16815260200191505060405180910390f35b61039e6004803603604081101561036857600080fd5b81019080803573ffffffffffffffffffffffffffffffffffffffff16906020019092919080359060200190929190505050610ea3565b005b61048d600480360360808110156103b657600080fd5b81019080803590602001906401000000008111156103d357600080fd5b8201836020820111156103e557600080fd5b8035906020019184600183028401116401000000008311171561040757600080fd5b91908080601f016020809104026020016040519081016040528093929190818152602001838380828437600081840152601f19601f820116905080830192505050505050509192919290803567ffffffffffffffff169060200190929190803563ffffffff169060200190929190803563ffffffff169060200190929190505050610fe4565b005b6104bb600480360360208110156104a557600080fd5b810190808035906020019092919050505061105e565b604051808273ffffffffffffffffffffffffffffffffffffffff1673ffffffffffffffffffffffffffffffffffffffff16815260200191505060405180910390f35b610505611070565b6040518082815260200191505060405180910390f35b6105876004803603606081101561053157600080fd5b81019080803573ffffffffffffffffffffffffffffffffffffffff169060200190929190803573ffffffffffffffffffffffffffffffffffffffff1690602001909291908035906020019092919050505061107d565b005b6105b56004803603602081101561059f57600080fd5b81019080803590602001909291905050506110ec565b604051808381526020018281526020019250505060405180910390f35b61061e600480360360408110156105e857600080fd5b81019080803573ffffffffffffffffffffffffffffffffffffffff16906020019092919080359060200190929190505050611154565b6040518082815260200191505060405180910390f35b6106a06004803603606081101561064a57600080fd5b81019080803573ffffffffffffffffffffffffffffffffffffffff169060200190929190803573ffffffffffffffffffffffffffffffffffffffff169060200190929190803590602001909291905050506111c7565b005b6106ce600480360360208110156106b857600080fd5b81019080803590602001909291905050506111e7565b6040518082815260200191505060405180910390f35b610710600480360360208110156106fa57600080fd5b810190808035906020019092919050505061121b565b604051808273ffffffffffffffffffffffffffffffffffffffff1673ffffffffffffffffffffffffffffffffffffffff16815260200191505060405180910390f35b61077e6004803603602081101561076857600080fd5b810190808035906020019092919050505061124e565b604051808273ffffffffffffffffffffffffffffffffffffffff1673ffffffffffffffffffffffffffffffffffffffff16815260200191505060405180910390f35b610802600480360360208110156107d657600080fd5b81019080803573ffffffffffffffffffffffffffffffffffffffff1690602001909291905050506112ca565b6040518082815260200191505060405180910390f35b6108206113bc565b005b61082a6114da565b604051808273ffffffffffffffffffffffffffffffffffffffff1673ffffffffffffffffffffffffffffffffffffffff16815260200191505060405180910390f35b6108ae6004803603602081101561088257600080fd5b81019080803573ffffffffffffffffffffffffffffffffffffffff169060200190929190505050611504565b6040518080602001828103825283818151815260200191508051906020019060200280838360005b838110156108f15780820151818401526020810190506108d6565b505050509050019250505060405180910390f35b61090d61163e565b604051808215151515815260200191505060405180910390f35b6109756004803603604081101561093d57600080fd5b81019080803573ffffffffffffffffffffffffffffffffffffffff169060200190929190803515159060200190929190505050611696565b005b6109a36004803603602081101561098d57600080fd5b81019080803590602001909291905050506117d0565b6040518082815260200191505060405180910390f35b610abc600480360360808110156109cf57600080fd5b81019080803573ffffffffffffffffffffffffffffffffffffffff169060200190929190803573ffffffffffffffffffffffffffffffffffffffff1690602001909291908035906020019092919080359060200190640100000000811115610a3657600080fd5b820183602082011115610a4857600080fd5b80359060200191846001830284011164010000000083111715610a6a57600080fd5b91908080601f016020809104026020016040519081016040528093929190818152602001838380828437600081840152601f19601f8201169050808301925050505050505091929192905050506117f8565b005b610aea60048036036020811015610ad457600080fd5b810190808035906020019092919050505061186a565b604051808981526020018863ffffffff1663ffffffff1681526020018763ffffffff1663ffffffff1681526020018663ffffffff1663ffffffff1681526020018561ffff1661ffff1681526020018461ffff1661ffff1681526020018361ffff1661ffff1681526020018261ffff1661ffff1681526020019850505050505050505060405180910390f35b610bb760048036036020811015610b8b57600080fd5b81019080803573ffffffffffffffffffffffffffffffffffffffff169060200190929190505050611941565b6040518082815260200191505060405180910390f35b610bf960048036036020811015610be357600080fd5b8101908080359060200190929190505050611953565b604051808215151515815260200191505060405180910390f35b610c7560048036036040811015610c2957600080fd5b81019080803573ffffffffffffffffffffffffffffffffffffffff169060200190929190803573ffffffffffffffffffffffffffffffffffffffff1690602001909291905050506119c1565b604051808215151515815260200191505060405180910390f35b610cd160048036036020811015610ca557600080fd5b81019080803573ffffffffffffffffffffffffffffffffffffffff169060200190929190505050611a55565b005b610d5460048036036040811015610ce957600080fd5b810190808035906020019092919080359060200190640100000000811115610d1057600080fd5b820183602082011115610d2257600080fd5b80359060200191846001830284011164010000000083111715610d4457600080fd5b9091929391929390505050611abe565b005b6000806000837bffffffffffffffffffffffffffffffffffffffffffffffffffffffff19167bffffffffffffffffffffffffffffffffffffffffffffffffffffffff1916815260200190815260200160002060009054906101000a900460ff169050919050565b6060600560008373ffffffffffffffffffffffffffffffffffffffff1673ffffffffffffffffffffffffffffffffffffffff168152602001908152602001600020805480602002602001604051908101604052809291908181526020018280548015610e4857602002820191906000526020600020905b815481526020019060010190808311610e34575b50505050509050919050565b6000610e5f82611c63565b610e6857600080fd5b6002600083815260200190815260200160002060009054906101000a900473ffffffffffffffffffffffffffffffffffffffff169050919050565b6000610eae8261124e565b90508073ffffffffffffffffffffffffffffffffffffffff168373ffffffffffffffffffffffffffffffffffffffff161415610ee957600080fd5b8073ffffffffffffffffffffffffffffffffffffffff163373ffffffffffffffffffffffffffffffffffffffff161480610f295750610f2881336119c1565b5b610f3257600080fd5b826002600084815260200190815260200160002060006101000a81548173ffffffffffffffffffffffffffffffffffffffff021916908373ffffffffffffffffffffffffffffffffffffffff160217905550818373ffffffffffffffffffffffffffffffffffffffff168273ffffffffffffffffffffffffffffffffffffffff167f8c5be1e5ebec7d5bd14f71427d1e84f3dd0314c0f7b2291e5b200ac8c7c3b92560405160405180910390a4505050565b60006403641cde7e90506000610ff986611cd5565b9050600061100a8287858888611d01565b90506110163382611d61565b7f3045fac2aa90b666e53421f7c8b2245fae88d8c0bc2a2b62ff6283daea24f36f8184604051808381526020018281526020019250505060405180910390a150505050505050565b60006110698261124e565b9050919050565b6000600780549050905090565b6110873382611d82565b6110dc576040517f08c379a0000000000000000000000000000000000000000000000000000000008152600401808060200182810382526032815260200180612cc76032913960400191505060405180910390fd5b6110e7838383611e17565b505050565b6000806000600a84815481106110fe57fe5b9060005260206000209060040201905080600201600c9054906101000a900463ffffffff168160020160089054906101000a900463ffffffff168163ffffffff1691508063ffffffff1690509250925050915091565b600061115f836112ca565b821061116a57600080fd5b600560008473ffffffffffffffffffffffffffffffffffffffff1673ffffffffffffffffffffffffffffffffffffffff16815260200190815260200160002082815481106111b457fe5b9060005260206000200154905092915050565b6111e2838383604051806020016040528060008152506117f8565b505050565b60006111f1611070565b82106111fc57600080fd5b6007828154811061120957fe5b90600052602060002001549050919050565b600b6020528060005260406000206000915054906101000a900473ffffffffffffffffffffffffffffffffffffffff1681565b6000806001600084815260200190815260200160002060009054906101000a900473ffffffffffffffffffffffffffffffffffffffff169050600073ffffffffffffffffffffffffffffffffffffffff168173ffffffffffffffffffffffffffffffffffffffff1614156112c157600080fd5b80915050919050565b60008073ffffffffffffffffffffffffffffffffffffffff168273ffffffffffffffffffffffffffffffffffffffff16141561136e576040517f08c379a000000000000000000000000000000000000000000000000000000000815260040180806020018281038252600f8152602001807f496e76616c69642061646472657373000000000000000000000000000000000081525060200191505060405180910390fd5b6113b5600360008473ffffffffffffffffffffffffffffffffffffffff1673ffffffffffffffffffffffffffffffffffffffff168152602001908152602001600020611e3b565b9050919050565b6113c461163e565b611419576040517f08c379a0000000000000000000000000000000000000000000000000000000008152600401808060200182810382526026815260200180612ca16026913960400191505060405180910390fd5b600073ffffffffffffffffffffffffffffffffffffffff16600960009054906101000a900473ffffffffffffffffffffffffffffffffffffffff1673ffffffffffffffffffffffffffffffffffffffff167f8be0079c531659141344cd1fd0a4f28419497f9722a3daafe3b4186f6b6457e060405160405180910390a36000600960006101000a81548173ffffffffffffffffffffffffffffffffffffffff021916908373ffffffffffffffffffffffffffffffffffffffff160217905550565b6000600960009054906101000a900473ffffffffffffffffffffffffffffffffffffffff16905090565b6060600073ffffffffffffffffffffffffffffffffffffffff168273ffffffffffffffffffffffffffffffffffffffff1614156115a9576040517f08c379a000000000000000000000000000000000000000000000000000000000815260040180806020018281038252600f8152602001807f496e76616c69642061646472657373000000000000000000000000000000000081525060200191505060405180910390fd5b600560008373ffffffffffffffffffffffffffffffffffffffff1673ffffffffffffffffffffffffffffffffffffffff16815260200190815260200160002080548060200260200160405190810160405280929190818152602001828054801561163257602002820191906000526020600020905b81548152602001906001019080831161161e575b50505050509050919050565b6000600960009054906101000a900473ffffffffffffffffffffffffffffffffffffffff1673ffffffffffffffffffffffffffffffffffffffff163373ffffffffffffffffffffffffffffffffffffffff1614905090565b3373ffffffffffffffffffffffffffffffffffffffff168273ffffffffffffffffffffffffffffffffffffffff1614156116cf57600080fd5b80600460003373ffffffffffffffffffffffffffffffffffffffff1673ffffffffffffffffffffffffffffffffffffffff16815260200190815260200160002060008473ffffffffffffffffffffffffffffffffffffffff1673ffffffffffffffffffffffffffffffffffffffff16815260200190815260200160002060006101000a81548160ff0219169083151502179055508173ffffffffffffffffffffffffffffffffffffffff163373ffffffffffffffffffffffffffffffffffffffff167f17307eab39ab6107e8899845ad3d59bd9653f200f220920489ca2b5937696c3183604051808215151515815260200191505060405180910390a35050565b6000600a82815481106117df57fe5b9060005260206000209060040201600101549050919050565b61180384848461107d565b61180f84848484611e49565b611864576040517f08c379a000000000000000000000000000000000000000000000000000000000815260040180806020018281038252603c815260200180612d20603c913960400191505060405180910390fd5b50505050565b6000806000806000806000806000600a8a8154811061188557fe5b90600052602060002090600402019050806001015498508060020160089054906101000a900463ffffffff16975080600201600c9054906101000a900463ffffffff1696508060020160109054906101000a900463ffffffff1695508060020160169054906101000a900461ffff1694508060020160189054906101000a900461ffff16935080600201601a9054906101000a900461ffff16925080600201601c9054906101000a900461ffff16915050919395975091939597565b600061194c826112ca565b9050919050565b600080600a838154811061196357fe5b906000526020600020906004020190506000603c8260020160009054906101000a900467ffffffffffffffff1667ffffffffffffffff16420302905081600201601e9054906101000a900461ffff1661ffff16811092505050919050565b6000600460008473ffffffffffffffffffffffffffffffffffffffff1673ffffffffffffffffffffffffffffffffffffffff16815260200190815260200160002060008373ffffffffffffffffffffffffffffffffffffffff1673ffffffffffffffffffffffffffffffffffffffff16815260200190815260200160002060009054906101000a900460ff16905092915050565b611a5d61163e565b611ab2576040517f08c379a0000000000000000000000000000000000000000000000000000000008152600401808060200182810382526026815260200180612ca16026913960400191505060405180910390fd5b611abb8161206a565b50565b823373ffffffffffffffffffffffffffffffffffffffff16611adf8261124e565b73ffffffffffffffffffffffffffffffffffffffff1614611b68576040517f08c379a00000000000000000000000000000000000000000000000000000000081526004018080602001828103825260198152602001807f596f7520646f6e2774206f776e207468697320647261676f6e0000000000000081525060200191505060405180910390fd5b6000600a8581548110611b7757fe5b906000526020600020906004020190506000611bd685858080601f016020809104026020016040519081016040528093929190818152602001838380828437600081840152601f19601f82011690508083019250505050505050611cd5565b90506000600102811415611c52576040517f08c379a000000000000000000000000000000000000000000000000000000000815260040180806020018281038252601e8152602001807f456d707479206e616d657320617265206e6f742061636365707461626c65000081525060200191505060405180910390fd5b808260010181905550505050505050565b6000806001600084815260200190815260200160002060009054906101000a900473ffffffffffffffffffffffffffffffffffffffff169050600073ffffffffffffffffffffffffffffffffffffffff168173ffffffffffffffffffffffffffffffffffffffff161415915050919050565b60006060829050600081511415611cf3576000600102915050611cfc565b60208301519150505b919050565b6000806000905060008090506000603290506000600790506000600790506000600790506000603c9050611d4f8b8e8e8d8d8c8c8c8c8c8c8c600c60009054906101000a900460ff166121cd565b97505050505050505095945050505050565b611d6b8282612463565b611d75828261255c565b611d7e81612623565b5050565b600080611d8e8361124e565b90508073ffffffffffffffffffffffffffffffffffffffff168473ffffffffffffffffffffffffffffffffffffffff161480611dfd57508373ffffffffffffffffffffffffffffffffffffffff16611de584610e54565b73ffffffffffffffffffffffffffffffffffffffff16145b80611e0e5750611e0d81856119c1565b5b91505092915050565b611e2283838361266f565b611e2c83826128ca565b611e36828261255c565b505050565b600081600001549050919050565b6000611e6a8473ffffffffffffffffffffffffffffffffffffffff16612a68565b611e775760019050612062565b60008473ffffffffffffffffffffffffffffffffffffffff1663150b7a02338887876040518563ffffffff167c0100000000000000000000000000000000000000000000000000000000028152600401808573ffffffffffffffffffffffffffffffffffffffff1673ffffffffffffffffffffffffffffffffffffffff1681526020018473ffffffffffffffffffffffffffffffffffffffff1673ffffffffffffffffffffffffffffffffffffffff16815260200183815260200180602001828103825283818151815260200191508051906020019080838360005b83811015611f6e578082015181840152602081019050611f53565b50505050905090810190601f168015611f9b5780820380516001836020036101000a031916815260200191505b5095505050505050602060405180830381600087803b158015611fbd57600080fd5b505af1158015611fd1573d6000803e3d6000fd5b505050506040513d6020811015611fe757600080fd5b8101908080519060200190929190505050905063150b7a027c0100000000000000000000000000000000000000000000000000000000027bffffffffffffffffffffffffffffffffffffffffffffffffffffffff1916817bffffffffffffffffffffffffffffffffffffffffffffffffffffffff1916149150505b949350505050565b600073ffffffffffffffffffffffffffffffffffffffff168173ffffffffffffffffffffffffffffffffffffffff16141561210d576040517f08c379a00000000000000000000000000000000000000000000000000000000081526004018080602001828103825260198152602001807f496e76616c6964206e6577206f776e657220616464726573730000000000000081525060200191505060405180910390fd5b8073ffffffffffffffffffffffffffffffffffffffff16600960009054906101000a900473ffffffffffffffffffffffffffffffffffffffff1673ffffffffffffffffffffffffffffffffffffffff167f8be0079c531659141344cd1fd0a4f28419497f9722a3daafe3b4186f6b6457e060405160405180910390a380600960006101000a81548173ffffffffffffffffffffffffffffffffffffffff021916908373ffffffffffffffffffffffffffffffffffffffff16021790555050565b60006001600a604051806101a0016040528060008152602001600060010281526020018f67ffffffffffffffff1681526020018e63ffffffff1681526020018d63ffffffff1681526020018c63ffffffff1681526020018b61ffff1681526020018a61ffff1681526020018961ffff1681526020018861ffff1681526020018761ffff1681526020018661ffff1681526020018560ff1681525090806001815401808255809150509060018203906000526020600020906004020160009091929091909150600082015181600001556020820151816001015560408201518160020160006101000a81548167ffffffffffffffff021916908367ffffffffffffffff16021790555060608201518160020160086101000a81548163ffffffff021916908363ffffffff160217905550608082015181600201600c6101000a81548163ffffffff021916908363ffffffff16021790555060a08201518160020160106101000a81548163ffffffff021916908363ffffffff16021790555060c08201518160020160146101000a81548161ffff021916908361ffff16021790555060e08201518160020160166101000a81548161ffff021916908361ffff1602179055506101008201518160020160186101000a81548161ffff021916908361ffff16021790555061012082015181600201601a6101000a81548161ffff021916908361ffff16021790555061014082015181600201601c6101000a81548161ffff021916908361ffff16021790555061016082015181600201601e6101000a81548161ffff021916908361ffff1602179055506101808201518160030160006101000a81548160ff021916908360ff1602179055505050039050612452818f8f612a7b565b9d9c50505050505050505050505050565b816001600083815260200190815260200160002060006101000a81548173ffffffffffffffffffffffffffffffffffffffff021916908373ffffffffffffffffffffffffffffffffffffffff1602179055506124fc600360008473ffffffffffffffffffffffffffffffffffffffff1673ffffffffffffffffffffffffffffffffffffffff168152602001908152602001600020612ab2565b808273ffffffffffffffffffffffffffffffffffffffff16600073ffffffffffffffffffffffffffffffffffffffff167fddf252ad1be2c89b69c2b068fc378daa952ba7f163c4a11628f55a4df523b3ef60405160405180910390a45050565b600560008373ffffffffffffffffffffffffffffffffffffffff1673ffffffffffffffffffffffffffffffffffffffff168152602001908152602001600020805490506006600083815260200190815260200160002081905550600560008373ffffffffffffffffffffffffffffffffffffffff1673ffffffffffffffffffffffffffffffffffffffff1681526020019081526020016000208190806001815401808255809150509060018203906000526020600020016000909192909190915055505050565b6007805490506008600083815260200190815260200160002081905550600781908060018154018082558091505090600182039060005260206000200160009091929091909150555050565b8273ffffffffffffffffffffffffffffffffffffffff1661268f8261124e565b73ffffffffffffffffffffffffffffffffffffffff16146126fb576040517f08c379a0000000000000000000000000000000000000000000000000000000008152600401808060200182810382526028815260200180612d5c6028913960400191505060405180910390fd5b600073ffffffffffffffffffffffffffffffffffffffff168273ffffffffffffffffffffffffffffffffffffffff161415612781576040517f08c379a0000000000000000000000000000000000000000000000000000000008152600401808060200182810382526027815260200180612cf96027913960400191505060405180910390fd5b61278a81612ac8565b6127d1600360008573ffffffffffffffffffffffffffffffffffffffff1673ffffffffffffffffffffffffffffffffffffffff168152602001908152602001600020612b86565b612818600360008473ffffffffffffffffffffffffffffffffffffffff1673ffffffffffffffffffffffffffffffffffffffff168152602001908152602001600020612ab2565b816001600083815260200190815260200160002060006101000a81548173ffffffffffffffffffffffffffffffffffffffff021916908373ffffffffffffffffffffffffffffffffffffffff160217905550808273ffffffffffffffffffffffffffffffffffffffff168473ffffffffffffffffffffffffffffffffffffffff167fddf252ad1be2c89b69c2b068fc378daa952ba7f163c4a11628f55a4df523b3ef60405160405180910390a4505050565b60006129226001600560008673ffffffffffffffffffffffffffffffffffffffff1673ffffffffffffffffffffffffffffffffffffffff16815260200190815260200160002080549050612ba990919063ffffffff16565b9050600060066000848152602001908152602001600020549050818114612a0f576000600560008673ffffffffffffffffffffffffffffffffffffffff1673ffffffffffffffffffffffffffffffffffffffff168152602001908152602001600020838154811061298f57fe5b9060005260206000200154905080600560008773ffffffffffffffffffffffffffffffffffffffff1673ffffffffffffffffffffffffffffffffffffffff16815260200190815260200160002083815481106129e757fe5b9060005260206000200181905550816006600083815260200190815260200160002081905550505b600560008573ffffffffffffffffffffffffffffffffffffffff1673ffffffffffffffffffffffffffffffffffffffff168152602001908152602001600020805480919060019003612a619190612c15565b5050505050565b600080823b905060008111915050919050565b6000600a8481548110612a8a57fe5b9060005260206000209060040201905082816000018190555081816001018190555050505050565b6001816000016000828254019250508190555050565b600073ffffffffffffffffffffffffffffffffffffffff166002600083815260200190815260200160002060009054906101000a900473ffffffffffffffffffffffffffffffffffffffff1673ffffffffffffffffffffffffffffffffffffffff1614612b835760006002600083815260200190815260200160002060006101000a81548173ffffffffffffffffffffffffffffffffffffffff021916908373ffffffffffffffffffffffffffffffffffffffff1602179055505b50565b612b9e60018260000154612ba990919063ffffffff16565b816000018190555050565b600082821115612c04576040517f08c379a000000000000000000000000000000000000000000000000000000000815260040180806020018281038252603a815260200180612c67603a913960400191505060405180910390fd5b600082840390508091505092915050565b815481835581811115612c3c57818360005260206000209182019101612c3b9190612c41565b5b505050565b612c6391905b80821115612c5f576000816000905550600101612c47565b5090565b9056fe61206d7573742062652067726561746572207468616e20622c206e6567617469766520726573756c747320617265206e6f7420616c6c6f7765644f6e6c7920746865206f776e65722063616e20706572666f726d207468697320616374696f6e53656e64657220646f65736e2774206f776e207468697320746f6b656e206f72206861766520726967687473206f6e206974496e76616c696420616464726573732e204572726f72207472616e73666572696320746f6b656e546172676574206164647265737320646f6573206e6f7420696d706c656d656e74206f6e455243373231526563656976656420696e7465726661636553656e64657220646f65736e74206f776e20746f6b656e20746f206265207472616e736665726564a265627a7a72315820e3f2d5ba6041f4930098973285711e923c20e93421e7a07d7ca5d0301ebf1c8f64736f6c63430005110032",
  "source": "pragma solidity ^0.5.0;\n\nimport \"./DragonBase.sol\";\n\ncontract DragonFactory is DragonBase {\n\n    uint constant dnaDigits = 16;\n    uint constant dnaModulus = 10 ** dnaDigits;\n\n    uint8 internal _blockchainId = 0;\n\n    // Maps other token ids from the other blockchain to token ids of this blockchain\n    mapping(uint => uint) private  _foreignIdToLocalId;\n    mapping(uint => uint) private  _localIdToForeignId;\n    mapping(uint => bool) private _tokenMapped; // If we allow token destruction we should be careful with token ids reorder\n\n    address internal _gateway;\n\n    event NewDragon(uint dragonId, uint dna);\n\n    constructor(address gateway, uint8 blockchainId) DragonBase() public {\n        require(gateway != address(0), \"Invalid gateway address\");\n        _gateway = gateway;\n        _blockchainId = blockchainId;\n    }\n\n    // TODO RESTRICT ACCESS\n    /**\n     Creates new Dragon and give it to its creator.\n    */\n    function createDragon(string memory _name, uint64 _creationTime, uint32 _dadId, uint32 _motherId) public {\n        //Dragon storage father = dragons[_dadId];\n       // Dragon storage mother = dragons[_motherId];\n\n        uint256 newGenes = 14564515454;\n\n        bytes32 nameInBytes = _stringToBytes32(_name);\n        uint id = _createDragon(nameInBytes, _creationTime, newGenes, _dadId, _motherId);\n\n        _mint(msg.sender, id);\n        emit NewDragon(id, newGenes);\n    }\n\n    //TODO implement burn function which should update mainchainToSidechainIds mapping\n\n    // \n    /** Used by gateway to recreate a dragon from received data\n        If has not been mapped, it means this token only exists on the other blockchain. We should recreate it and assign it a new local id mapped to its original\n     */\n    function _mintReceivedDragon(address to, uint _originalTokenId, bytes memory _data) internal {\n        uint8 blockchainId =  _decodeBlockchainIdFromData(_data);\n        bool originatedInThisBlockchain = blockchainId == _blockchainId;\n\n        if (originatedInThisBlockchain) {\n            safeTransferFrom(_gateway,  to, _originalTokenId, _data);\n            _updateDragonFromData(_originalTokenId, _data);\n        } else {\n            // If token was created in other blockchain and never mapped. Recreated\n            if (_tokenMapped[_originalTokenId] == false) {\n                uint tokenId = _createDragonFromData(_data);\n                 _foreignIdToLocalId[_originalTokenId] = tokenId;\n                 _localIdToForeignId[tokenId] = _originalTokenId;\n                _tokenMapped[_originalTokenId] = true;\n\n                _mint(to, tokenId);\n\n            // If token was mapped, it means it was already recreated in this blockchain. Update it!\n            } else {\n                uint tokenId = _foreignIdToLocalId[_originalTokenId];\n                safeTransferFrom(_gateway,  to, tokenId, _data);\n                _updateDragonFromData(tokenId, _data);\n            }\n        }\n    }\n\n    function _createDragon(bytes32 _name, uint64 _creationTime, uint256 _genes, uint32 _dadId, uint32 _motherId) private returns(uint256 id) {\n        uint32 currentExperience = 0;\n        uint16 actionCooldown = 0;\n        uint16 health = 50;\n        uint16 strength = 7;\n        uint16 agility = 7;\n        uint16 fortitude = 7;\n        uint16 hatchTime = 60;\n        id = _createDragonWithStats(_genes, _name, _creationTime, _dadId, _motherId, currentExperience,\n                    actionCooldown, health, strength, agility, fortitude,hatchTime, _blockchainId);\n    }\n\n    function _createDragonFromData(bytes memory _data) private returns(uint256) {\n\n        (uint _genes,\n        bytes32 _name,\n        uint64 _creationTime,\n        uint32 _dadId,\n        uint32 _motherId,\n        uint32 _currentExperience) = _decodeFirstHalfOfDragonFromBytes(_data);\n\n        (uint16 _actionCooldown,\n        uint16 _health,\n        uint16 _strength,\n        uint16 _agility,\n        uint16 _fortitude,\n        uint16 _hatchTime,\n        uint8 _blockchainOriginId) = _decodeSecondHalfOfDragonFromBytes(_data);\n\n        uint id = _createDragonWithStats(_genes, _name, _creationTime, _dadId, _motherId, _currentExperience,\n                    _actionCooldown, _health, _strength, _agility, _fortitude, _hatchTime, _blockchainOriginId);\n\n        return id;\n    }\n\n    function _createDragonWithStats\n        (uint256 _genes,\n        bytes32 _name,\n        uint64 _creationTime,\n        uint32 _dadId,\n        uint32 _motherId,\n        uint32 _currentExperience,\n        uint16 _actionCooldown,\n        uint16 _health,\n        uint16 _strength,\n        uint16 _agility,\n        uint16 _fortitude,\n        uint16 _hatchTime,\n        uint8 _blockchainOriginId) private returns(uint256 id) {\n\n        id = dragons.push(\n            Dragon({\n                genes: 0,\n                name: 0,\n\n                creationTime: _creationTime,\n\n                // level attributes\n                currentExperience: _currentExperience,\n\n                // parents information\n                dadId: _dadId,\n                motherId: _motherId,\n\n                actionCooldown: _actionCooldown,\n\n                health: _health,\n                strength: _strength,\n                agility: _agility,\n                fortitude: _fortitude,\n\n                hatchTime: _hatchTime,\n                blockchainOriginId: _blockchainOriginId\n            })\n        ) - 1;\n\n        // Assign genes in different function as a workaround to the stack too deep exception\n        _assignGenesAndName(id, _genes, _name);\n    }\n\n    function _assignGenesAndName(uint256 _dragonId, uint256 _genes, bytes32 _name) private {\n        Dragon storage dragon = dragons[_dragonId];\n        dragon.genes = _genes;\n        dragon.name = _name;\n    }\n\n    function _updateDragonFromData(uint _tokenId, bytes memory _data) private {\n        (uint _genes,\n        bytes32 _name,\n        uint64 _creationTime,\n        uint32 _dadId,\n        uint32 _motherId,\n        uint32 _currentExperience) = _decodeFirstHalfOfDragonFromBytes(_data);\n\n        (uint16 _actionCooldown,\n        uint16 _health,\n        uint16 _strength,\n        uint16 _agility,\n        uint16 _fortitude,\n        uint16 _hatchTime,\n        uint8 _blockchainOriginId) = _decodeSecondHalfOfDragonFromBytes(_data);\n\n        _updateDragonWithStats(_tokenId, _genes, _name, _creationTime, _dadId, _motherId, _currentExperience,\n                    _actionCooldown, _health, _strength, _agility, _fortitude, _hatchTime, _blockchainOriginId);\n    }\n\n    function _updateDragonWithStats\n        (uint _tokenId,\n        uint _genes,\n        bytes32 _name,\n        uint64 _creationTime,\n        uint32 _dadId,\n        uint32 _motherId,\n        uint32 _currentExperience,\n        uint16 _actionCooldown,\n        uint16 _health,\n        uint16 _strength,\n        uint16 _agility,\n        uint16 _fortitude,\n        uint16 _hatchTime,\n        uint8 _blockchainOriginId) private {\n\n        Dragon storage dragon = dragons[_tokenId];\n        dragon.genes = _genes;\n        dragon.name = _name;\n        dragon.creationTime = _creationTime;\n        dragon.dadId = _dadId;\n        dragon.motherId = _motherId;\n        dragon.currentExperience = _currentExperience;\n        dragon.actionCooldown = _actionCooldown;\n        dragon.health = _health;\n        dragon.strength = _strength;\n        dragon.agility = _agility;\n        dragon.fortitude = _fortitude;\n        dragon.hatchTime = _hatchTime;\n        dragon.blockchainOriginId = _blockchainOriginId;\n    }\n\n    function _generateRandomDna(string memory _str) private pure returns (uint) {\n        uint rand = uint(keccak256(abi.encodePacked(_str)));\n        return rand % dnaModulus;\n    }\n\n    function _getForeignTokenId(uint _localTokenId) internal view returns (uint) {\n        return _localIdToForeignId[_localTokenId];\n    }\n}",
  "sourcePath": "/usr/src/app/main-sv/contracts/common/DragonFactory.sol",
  "compiler": {
    "name": "solc",
    "version": "0.5.17+commit.d19bba13.Emscripten.clang"
  },
  "schemaVersion": "3.0.1",
  "updatedAt": "2020-06-01T01:15:23.703Z",
  "devdoc": {
    "methods": {
      "approve(address,uint256)": {
        "details": "Approves another address to transfer the given token ID The zero address indicates there is no approved address. There can only be one approved address per token at a given time. Can only be called by the token owner or an approved operator.",
        "params": {
          "to": "address to be approved for the given token ID",
          "tokenId": "uint256 ID of the token to be approved"
        }
      },
      "balanceOf(address)": {
        "details": "Gets the balance of the specified address",
        "params": {
          "owner": "address to query the balance of"
        },
        "return": "uint256 representing the amount owned by the passed address"
      },
      "getApproved(uint256)": {
        "details": "Gets the approved address for a token ID, or zero if no address set Reverts if the token ID does not exist.",
        "params": {
          "tokenId": "uint256 ID of the token to query the approval of"
        },
        "return": "address currently approved for the given token ID"
      },
      "isApprovedForAll(address,address)": {
        "details": "Tells whether an operator is approved by a given owner",
        "params": {
          "operator": "operator address which you want to query the approval of",
          "owner": "owner address which you want to query the approval of"
        },
        "return": "bool whether the given operator is approved by the given owner"
      },
      "isOwner()": {
        "return": "true if `msg.sender` is the owner of the contract."
      },
      "owner()": {
        "return": "the address of the owner."
      },
      "ownerOf(uint256)": {
        "details": "Gets the owner of the specified token ID",
        "params": {
          "tokenId": "uint256 ID of the token to query the owner of"
        },
        "return": "address currently marked as the owner of the given token ID"
      },
      "renounceOwnership()": {
        "details": "Allows the current owner to relinquish control of the contract."
      },
      "safeTransferFrom(address,address,uint256)": {
        "details": "Safely transfers the ownership of a given token ID to another address If the target address is a contract, it must implement `onERC721Received`, which is called upon a safe transfer, and return the magic value `bytes4(keccak256(\"onERC721Received(address,address,uint256,bytes)\"))`; otherwise, the transfer is reverted. Requires the msg.sender to be the owner, approved, or operator",
        "params": {
          "from": "current owner of the token",
          "to": "address to receive the ownership of the given token ID",
          "tokenId": "uint256 ID of the token to be transferred"
        }
      },
      "safeTransferFrom(address,address,uint256,bytes)": {
        "details": "Safely transfers the ownership of a given token ID to another address If the target address is a contract, it must implement `onERC721Received`, which is called upon a safe transfer, and return the magic value `bytes4(keccak256(\"onERC721Received(address,address,uint256,bytes)\"))`; otherwise, the transfer is reverted. Requires the msg.sender to be the owner, approved, or operator",
        "params": {
          "_data": "bytes data to send along with a safe transfer check",
          "from": "current owner of the token",
          "to": "address to receive the ownership of the given token ID",
          "tokenId": "uint256 ID of the token to be transferred"
        }
      },
      "setApprovalForAll(address,bool)": {
        "details": "Sets or unsets the approval of a given operator An operator is allowed to transfer all tokens of the sender on their behalf",
        "params": {
          "approved": "representing the status of the approval to be set",
          "to": "operator address to set the approval"
        }
      },
      "supportsInterface(bytes4)": {
        "details": "implement supportsInterface(bytes4) using a lookup table"
      },
      "tokenByIndex(uint256)": {
        "details": "Gets the token ID at a given index of all the tokens in this contract Reverts if the index is greater or equal to the total number of tokens",
        "params": {
          "index": "uint256 representing the index to be accessed of the tokens list"
        },
        "return": "uint256 token ID at the given index of the tokens list"
      },
      "tokenOfOwnerByIndex(address,uint256)": {
        "details": "Gets the token ID at a given index of the tokens list of the requested owner",
        "params": {
          "index": "uint256 representing the index to be accessed of the requested tokens list",
          "owner": "address owning the tokens list to be accessed"
        },
        "return": "uint256 token ID at the given index of the tokens list owned by the requested address"
      },
      "totalSupply()": {
        "details": "Gets the total amount of tokens stored by the contract",
        "return": "uint256 representing the total amount of tokens"
      },
      "transferFrom(address,address,uint256)": {
        "details": "Transfers the ownership of a given token ID to another address Usage of this method is discouraged, use `safeTransferFrom` whenever possible Requires the msg.sender to be the owner, approved, or operator",
        "params": {
          "from": "current owner of the token",
          "to": "address to receive the ownership of the given token ID",
          "tokenId": "uint256 ID of the token to be transferred"
        }
      },
      "transferOwnership(address)": {
        "details": "Allows the current owner to transfer control of the contract to a newOwner.",
        "params": {
          "newOwner": "The address to transfer ownership to."
        }
      }
    }
  },
  "userdoc": {
    "methods": {
      "createDragon(string,uint64,uint32,uint32)": {
        "notice": "Creates new Dragon and give it to its creator."
      },
      "getDragonsIdsByOwner(address)": {
        "notice": "***************************************************************************************** PUBLIC METHODS*******************************************************************************************"
      },
      "renounceOwnership()": {
        "notice": "Renouncing to ownership will leave the contract without an owner. It will not be possible to call the functions with the `onlyOwner` modifier anymore."
      },
      "setName(uint256,string)": {
        "notice": "***************************************************************************************** ONLY OWNER ACTIONS*******************************************************************************************"
      }
    }
  }
}