{
  "contractName": "DappchainDragonCoin",
  "abi": [
    {
      "inputs": [
        {
          "internalType": "address",
          "name": "_gateway",
          "type": "address"
        }
      ],
      "stateMutability": "nonpayable",
      "type": "constructor"
    },
    {
      "anonymous": false,
      "inputs": [
        {
          "indexed": true,
          "internalType": "address",
          "name": "owner",
          "type": "address"
        },
        {
          "indexed": true,
          "internalType": "address",
          "name": "spender",
          "type": "address"
        },
        {
          "indexed": false,
          "internalType": "uint256",
          "name": "value",
          "type": "uint256"
        }
      ],
      "name": "Approval",
      "type": "event"
    },
    {
      "anonymous": false,
      "inputs": [
        {
          "indexed": true,
          "internalType": "address",
          "name": "account",
          "type": "address"
        }
      ],
      "name": "MinterAdded",
      "type": "event"
    },
    {
      "anonymous": false,
      "inputs": [
        {
          "indexed": true,
          "internalType": "address",
          "name": "account",
          "type": "address"
        }
      ],
      "name": "MinterRemoved",
      "type": "event"
    },
    {
      "anonymous": false,
      "inputs": [
        {
          "indexed": true,
          "internalType": "address",
          "name": "previousOwner",
          "type": "address"
        },
        {
          "indexed": true,
          "internalType": "address",
          "name": "newOwner",
          "type": "address"
        }
      ],
      "name": "OwnershipTransferred",
      "type": "event"
    },
    {
      "anonymous": false,
      "inputs": [
        {
          "indexed": true,
          "internalType": "address",
          "name": "account",
          "type": "address"
        }
      ],
      "name": "SpenderAdded",
      "type": "event"
    },
    {
      "anonymous": false,
      "inputs": [
        {
          "indexed": true,
          "internalType": "address",
          "name": "account",
          "type": "address"
        }
      ],
      "name": "SpenderRemoved",
      "type": "event"
    },
    {
      "anonymous": false,
      "inputs": [
        {
          "indexed": true,
          "internalType": "address",
          "name": "from",
          "type": "address"
        },
        {
          "indexed": true,
          "internalType": "address",
          "name": "to",
          "type": "address"
        },
        {
          "indexed": false,
          "internalType": "uint256",
          "name": "value",
          "type": "uint256"
        }
      ],
      "name": "Transfer",
      "type": "event"
    },
    {
      "inputs": [
        {
          "internalType": "address",
          "name": "account",
          "type": "address"
        }
      ],
      "name": "addMinter",
      "outputs": [],
      "stateMutability": "nonpayable",
      "type": "function"
    },
    {
      "inputs": [
        {
          "internalType": "address",
          "name": "account",
          "type": "address"
        }
      ],
      "name": "addSpender",
      "outputs": [],
      "stateMutability": "nonpayable",
      "type": "function"
    },
    {
      "inputs": [
        {
          "internalType": "address",
          "name": "owner",
          "type": "address"
        },
        {
          "internalType": "address",
          "name": "spender",
          "type": "address"
        }
      ],
      "name": "allowance",
      "outputs": [
        {
          "internalType": "uint256",
          "name": "",
          "type": "uint256"
        }
      ],
      "stateMutability": "view",
      "type": "function"
    },
    {
      "inputs": [
        {
          "internalType": "address",
          "name": "spender",
          "type": "address"
        },
        {
          "internalType": "uint256",
          "name": "amount",
          "type": "uint256"
        }
      ],
      "name": "approve",
      "outputs": [
        {
          "internalType": "bool",
          "name": "",
          "type": "bool"
        }
      ],
      "stateMutability": "nonpayable",
      "type": "function"
    },
    {
      "inputs": [
        {
          "internalType": "address",
          "name": "account",
          "type": "address"
        }
      ],
      "name": "balanceOf",
      "outputs": [
        {
          "internalType": "uint256",
          "name": "",
          "type": "uint256"
        }
      ],
      "stateMutability": "view",
      "type": "function"
    },
    {
      "inputs": [],
      "name": "decimals",
      "outputs": [
        {
          "internalType": "uint8",
          "name": "",
          "type": "uint8"
        }
      ],
      "stateMutability": "view",
      "type": "function"
    },
    {
      "inputs": [
        {
          "internalType": "address",
          "name": "spender",
          "type": "address"
        },
        {
          "internalType": "uint256",
          "name": "subtractedValue",
          "type": "uint256"
        }
      ],
      "name": "decreaseAllowance",
      "outputs": [
        {
          "internalType": "bool",
          "name": "",
          "type": "bool"
        }
      ],
      "stateMutability": "nonpayable",
      "type": "function"
    },
    {
      "inputs": [],
      "name": "gateway",
      "outputs": [
        {
          "internalType": "address",
          "name": "",
          "type": "address"
        }
      ],
      "stateMutability": "view",
      "type": "function"
    },
    {
      "inputs": [
        {
          "internalType": "address",
          "name": "spender",
          "type": "address"
        },
        {
          "internalType": "uint256",
          "name": "addedValue",
          "type": "uint256"
        }
      ],
      "name": "increaseAllowance",
      "outputs": [
        {
          "internalType": "bool",
          "name": "",
          "type": "bool"
        }
      ],
      "stateMutability": "nonpayable",
      "type": "function"
    },
    {
      "inputs": [
        {
          "internalType": "address",
          "name": "account",
          "type": "address"
        }
      ],
      "name": "isMinter",
      "outputs": [
        {
          "internalType": "bool",
          "name": "",
          "type": "bool"
        }
      ],
      "stateMutability": "view",
      "type": "function"
    },
    {
      "inputs": [],
      "name": "isOwner",
      "outputs": [
        {
          "internalType": "bool",
          "name": "",
          "type": "bool"
        }
      ],
      "stateMutability": "view",
      "type": "function"
    },
    {
      "inputs": [
        {
          "internalType": "address",
          "name": "account",
          "type": "address"
        }
      ],
      "name": "isSpender",
      "outputs": [
        {
          "internalType": "bool",
          "name": "",
          "type": "bool"
        }
      ],
      "stateMutability": "view",
      "type": "function"
    },
    {
      "inputs": [
        {
          "internalType": "address",
          "name": "to",
          "type": "address"
        },
        {
          "internalType": "uint256",
          "name": "value",
          "type": "uint256"
        }
      ],
      "name": "mint",
      "outputs": [
        {
          "internalType": "bool",
          "name": "",
          "type": "bool"
        }
      ],
      "stateMutability": "nonpayable",
      "type": "function"
    },
    {
      "inputs": [],
      "name": "name",
      "outputs": [
        {
          "internalType": "string",
          "name": "",
          "type": "string"
        }
      ],
      "stateMutability": "view",
      "type": "function"
    },
    {
      "inputs": [],
      "name": "owner",
      "outputs": [
        {
          "internalType": "address",
          "name": "",
          "type": "address"
        }
      ],
      "stateMutability": "view",
      "type": "function"
    },
    {
      "inputs": [],
      "name": "renounceMinter",
      "outputs": [],
      "stateMutability": "nonpayable",
      "type": "function"
    },
    {
      "inputs": [],
      "name": "renounceOwnership",
      "outputs": [],
      "stateMutability": "nonpayable",
      "type": "function"
    },
    {
      "inputs": [],
      "name": "renounceSpender",
      "outputs": [],
      "stateMutability": "nonpayable",
      "type": "function"
    },
    {
      "inputs": [
        {
          "internalType": "address",
          "name": "from",
          "type": "address"
        },
        {
          "internalType": "uint256",
          "name": "value",
          "type": "uint256"
        }
      ],
      "name": "spendFrom",
      "outputs": [],
      "stateMutability": "nonpayable",
      "type": "function"
    },
    {
      "inputs": [],
      "name": "symbol",
      "outputs": [
        {
          "internalType": "string",
          "name": "",
          "type": "string"
        }
      ],
      "stateMutability": "view",
      "type": "function"
    },
    {
      "inputs": [],
      "name": "totalSupply",
      "outputs": [
        {
          "internalType": "uint256",
          "name": "",
          "type": "uint256"
        }
      ],
      "stateMutability": "view",
      "type": "function"
    },
    {
      "inputs": [
        {
          "internalType": "address",
          "name": "recipient",
          "type": "address"
        },
        {
          "internalType": "uint256",
          "name": "amount",
          "type": "uint256"
        }
      ],
      "name": "transfer",
      "outputs": [
        {
          "internalType": "bool",
          "name": "",
          "type": "bool"
        }
      ],
      "stateMutability": "nonpayable",
      "type": "function"
    },
    {
      "inputs": [
        {
          "internalType": "address",
          "name": "sender",
          "type": "address"
        },
        {
          "internalType": "address",
          "name": "recipient",
          "type": "address"
        },
        {
          "internalType": "uint256",
          "name": "amount",
          "type": "uint256"
        }
      ],
      "name": "transferFrom",
      "outputs": [
        {
          "internalType": "bool",
          "name": "",
          "type": "bool"
        }
      ],
      "stateMutability": "nonpayable",
      "type": "function"
    },
    {
      "inputs": [
        {
          "internalType": "address",
          "name": "newOwner",
          "type": "address"
        }
      ],
      "name": "transferOwnership",
      "outputs": [],
      "stateMutability": "nonpayable",
      "type": "function"
    },
    {
      "inputs": [
        {
          "internalType": "uint256",
          "name": "_amount",
          "type": "uint256"
        }
      ],
      "name": "mintToGateway",
      "outputs": [],
      "stateMutability": "nonpayable",
      "type": "function"
    }
  ],
  "bytecode": "0x60806040526040518060400160405280600b81526020017f447261676f6e20436f696e0000000000000000000000000000000000000000008152506003908051906020019062000051929190620004ae565b506040518060400160405280600381526020017f4447430000000000000000000000000000000000000000000000000000000000815250600490805190602001906200009f929190620004ae565b50348015620000ad57600080fd5b5060405162002f1b38038062002f1b8339818101604052810190620000d3919062000575565b33600560006101000a81548173ffffffffffffffffffffffffffffffffffffffff021916908373ffffffffffffffffffffffffffffffffffffffff160217905550600560009054906101000a900473ffffffffffffffffffffffffffffffffffffffff1673ffffffffffffffffffffffffffffffffffffffff16600073ffffffffffffffffffffffffffffffffffffffff167f8be0079c531659141344cd1fd0a4f28419497f9722a3daafe3b4186f6b6457e060405160405180910390a3620001a233620001fb60201b60201c565b620001b3336200025c60201b60201c565b80600860006101000a81548173ffffffffffffffffffffffffffffffffffffffff021916908373ffffffffffffffffffffffffffffffffffffffff1602179055505062000749565b62000216816006620002bd60201b62000e111790919060201c565b8073ffffffffffffffffffffffffffffffffffffffff167f3139419c41cdd7abca84fa19dd21118cd285d3e2ce1a9444e8161ce9fa62fdcd60405160405180910390a250565b62000277816007620002bd60201b62000e111790919060201c565b8073ffffffffffffffffffffffffffffffffffffffff167f6ae172837ea30b801fbfcdd4108aa1d5bf8ff775444fd70256b44e6bf3dfc3f660405160405180910390a250565b600073ffffffffffffffffffffffffffffffffffffffff168173ffffffffffffffffffffffffffffffffffffffff16141562000330576040517f08c379a0000000000000000000000000000000000000000000000000000000008152600401620003279062000611565b60405180910390fd5b620003428282620003e360201b60201c565b1562000385576040517f08c379a00000000000000000000000000000000000000000000000000000000081526004016200037c90620005ef565b60405180910390fd5b60018260000160008373ffffffffffffffffffffffffffffffffffffffff1673ffffffffffffffffffffffffffffffffffffffff16815260200190815260200160002060006101000a81548160ff0219169083151502179055505050565b60008073ffffffffffffffffffffffffffffffffffffffff168273ffffffffffffffffffffffffffffffffffffffff16141562000457576040517f08c379a00000000000000000000000000000000000000000000000000000000081526004016200044e9062000611565b60405180910390fd5b8260000160008373ffffffffffffffffffffffffffffffffffffffff1673ffffffffffffffffffffffffffffffffffffffff16815260200190815260200160002060009054906101000a900460ff16905092915050565b828054620004bc9062000678565b90600052602060002090601f016020900481019282620004e057600085556200052c565b82601f10620004fb57805160ff19168380011785556200052c565b828001600101855582156200052c579182015b828111156200052b5782518255916020019190600101906200050e565b5b5090506200053b91906200053f565b5090565b5b808211156200055a57600081600090555060010162000540565b5090565b6000815190506200056f816200072f565b92915050565b6000602082840312156200058857600080fd5b600062000598848285016200055e565b91505092915050565b6000620005b0601d8362000633565b9150620005bd82620006dd565b602082019050919050565b6000620005d760178362000633565b9150620005e48262000706565b602082019050919050565b600060208201905081810360008301526200060a81620005a1565b9050919050565b600060208201905081810360008301526200062c81620005c8565b9050919050565b600082825260208201905092915050565b6000620006518262000658565b9050919050565b600073ffffffffffffffffffffffffffffffffffffffff82169050919050565b600060028204905060018216806200069157607f821691505b60208210811415620006a857620006a7620006ae565b5b50919050565b7f4e487b7100000000000000000000000000000000000000000000000000000000600052602260045260246000fd5b7f4163636f756e7420616c726561647920686173207468697320726f6c65000000600082015250565b7f496e76616c69642061646472657373206163636f756e74000000000000000000600082015250565b6200073a8162000644565b81146200074657600080fd5b50565b6127c280620007596000396000f3fe608060405234801561001057600080fd5b50600436106101735760003560e01c80638da5cb5b116100de578063a457c2d711610097578063dd62ed3e11610071578063dd62ed3e14610462578063e7a027ea14610492578063e7e31e7a1461049c578063f2fde38b146104b857610173565b8063a457c2d7146103d2578063a9059cbb14610402578063aa271e1a1461043257610173565b80638da5cb5b146103225780638f32d59b1461034057806395d89b411461035e578063983b2d561461037c57806398650275146103985780639a206ece146103a257610173565b80633950935111610130578063395093511461025057806340c10f1914610280578063544297f5146102b05780636aade288146102cc57806370a08231146102e8578063715018a61461031857610173565b806306fdde0314610178578063095ea7b314610196578063116191b6146101c657806318160ddd146101e457806323b872dd14610202578063313ce56714610232575b600080fd5b6101806104d4565b60405161018d9190611f2b565b60405180910390f35b6101b060048036038101906101ab9190611beb565b610566565b6040516101bd9190611f10565b60405180910390f35b6101ce610584565b6040516101db9190611ef5565b60405180910390f35b6101ec6105aa565b6040516101f9919061214d565b60405180910390f35b61021c60048036038101906102179190611b9c565b6105b4565b6040516102299190611f10565b60405180910390f35b61023a6106ac565b6040516102479190612168565b60405180910390f35b61026a60048036038101906102659190611beb565b6106b5565b6040516102779190611f10565b60405180910390f35b61029a60048036038101906102959190611beb565b610761565b6040516102a79190611f10565b60405180910390f35b6102ca60048036038101906102c59190611c27565b6107bf565b005b6102e660048036038101906102e19190611beb565b61087e565b005b61030260048036038101906102fd9190611b37565b6108d4565b60405161030f919061214d565b60405180910390f35b61032061091c565b005b61032a610a24565b6040516103379190611ef5565b60405180910390f35b610348610a4e565b6040516103559190611f10565b60405180910390f35b610366610aa6565b6040516103739190611f2b565b60405180910390f35b61039660048036038101906103919190611b37565b610b38565b005b6103a0610b8b565b005b6103bc60048036038101906103b79190611b37565b610b96565b6040516103c99190611f10565b60405180910390f35b6103ec60048036038101906103e79190611beb565b610bb3565b6040516103f99190611f10565b60405180910390f35b61041c60048036038101906104179190611beb565b610c9e565b6040516104299190611f10565b60405180910390f35b61044c60048036038101906104479190611b37565b610cbc565b6040516104599190611f10565b60405180910390f35b61047c60048036038101906104779190611b60565b610cd9565b604051610489919061214d565b60405180910390f35b61049a610d60565b005b6104b660048036038101906104b19190611b37565b610d6b565b005b6104d260048036038101906104cd9190611b37565b610dbe565b005b6060600380546104e3906122b1565b80601f016020809104026020016040519081016040528092919081815260200182805461050f906122b1565b801561055c5780601f106105315761010080835404028352916020019161055c565b820191906000526020600020905b81548152906001019060200180831161053f57829003601f168201915b5050505050905090565b600061057a610573610f29565b8484610f31565b6001905092915050565b600860009054906101000a900473ffffffffffffffffffffffffffffffffffffffff1681565b6000600254905090565b60006105c18484846110fc565b6000600160008673ffffffffffffffffffffffffffffffffffffffff1673ffffffffffffffffffffffffffffffffffffffff168152602001908152602001600020600061060c610f29565b73ffffffffffffffffffffffffffffffffffffffff1673ffffffffffffffffffffffffffffffffffffffff1681526020019081526020016000205490508281101561068c576040517f08c379a00000000000000000000000000000000000000000000000000000000081526004016106839061204d565b60405180910390fd5b6106a085610698610f29565b858403610f31565b60019150509392505050565b60006012905090565b60006107576106c2610f29565b8484600160006106d0610f29565b73ffffffffffffffffffffffffffffffffffffffff1673ffffffffffffffffffffffffffffffffffffffff16815260200190815260200160002060008873ffffffffffffffffffffffffffffffffffffffff1673ffffffffffffffffffffffffffffffffffffffff16815260200190815260200160002054610752919061219f565b610f31565b6001905092915050565b600061076c33610cbc565b6107ab576040517f08c379a00000000000000000000000000000000000000000000000000000000081526004016107a2906120cd565b60405180910390fd5b6107b58383611372565b6001905092915050565b600860009054906101000a900473ffffffffffffffffffffffffffffffffffffffff1673ffffffffffffffffffffffffffffffffffffffff163373ffffffffffffffffffffffffffffffffffffffff161461084f576040517f08c379a000000000000000000000000000000000000000000000000000000000815260040161084690611f4d565b60405180910390fd5b61087b600860009054906101000a900473ffffffffffffffffffffffffffffffffffffffff1682611372565b50565b61088733610b96565b6108c6576040517f08c379a00000000000000000000000000000000000000000000000000000000081526004016108bd906120cd565b60405180910390fd5b6108d082826114c6565b5050565b60008060008373ffffffffffffffffffffffffffffffffffffffff1673ffffffffffffffffffffffffffffffffffffffff168152602001908152602001600020549050919050565b610924610a4e565b610963576040517f08c379a000000000000000000000000000000000000000000000000000000000815260040161095a906120cd565b60405180910390fd5b600073ffffffffffffffffffffffffffffffffffffffff16600560009054906101000a900473ffffffffffffffffffffffffffffffffffffffff1673ffffffffffffffffffffffffffffffffffffffff167f8be0079c531659141344cd1fd0a4f28419497f9722a3daafe3b4186f6b6457e060405160405180910390a36000600560006101000a81548173ffffffffffffffffffffffffffffffffffffffff021916908373ffffffffffffffffffffffffffffffffffffffff160217905550565b6000600560009054906101000a900473ffffffffffffffffffffffffffffffffffffffff16905090565b6000600560009054906101000a900473ffffffffffffffffffffffffffffffffffffffff1673ffffffffffffffffffffffffffffffffffffffff163373ffffffffffffffffffffffffffffffffffffffff1614905090565b606060048054610ab5906122b1565b80601f0160208091040260200160405190810160405280929190818152602001828054610ae1906122b1565b8015610b2e5780601f10610b0357610100808354040283529160200191610b2e565b820191906000526020600020905b815481529060010190602001808311610b1157829003601f168201915b5050505050905090565b610b40610a4e565b610b7f576040517f08c379a0000000000000000000000000000000000000000000000000000000008152600401610b76906120cd565b60405180910390fd5b610b8881611691565b50565b610b94336116eb565b565b6000610bac82600661174590919063ffffffff16565b9050919050565b60008060016000610bc2610f29565b73ffffffffffffffffffffffffffffffffffffffff1673ffffffffffffffffffffffffffffffffffffffff16815260200190815260200160002060008573ffffffffffffffffffffffffffffffffffffffff1673ffffffffffffffffffffffffffffffffffffffff16815260200190815260200160002054905082811015610c7f576040517f08c379a0000000000000000000000000000000000000000000000000000000008152600401610c769061210d565b60405180910390fd5b610c93610c8a610f29565b85858403610f31565b600191505092915050565b6000610cb2610cab610f29565b84846110fc565b6001905092915050565b6000610cd282600761174590919063ffffffff16565b9050919050565b6000600160008473ffffffffffffffffffffffffffffffffffffffff1673ffffffffffffffffffffffffffffffffffffffff16815260200190815260200160002060008373ffffffffffffffffffffffffffffffffffffffff1673ffffffffffffffffffffffffffffffffffffffff16815260200190815260200160002054905092915050565b610d693361180d565b565b610d73610a4e565b610db2576040517f08c379a0000000000000000000000000000000000000000000000000000000008152600401610da9906120cd565b60405180910390fd5b610dbb81611867565b50565b610dc6610a4e565b610e05576040517f08c379a0000000000000000000000000000000000000000000000000000000008152600401610dfc906120cd565b60405180910390fd5b610e0e816118c1565b50565b600073ffffffffffffffffffffffffffffffffffffffff168173ffffffffffffffffffffffffffffffffffffffff161415610e81576040517f08c379a0000000000000000000000000000000000000000000000000000000008152600401610e78906120ed565b60405180910390fd5b610e8b8282611745565b15610ecb576040517f08c379a0000000000000000000000000000000000000000000000000000000008152600401610ec29061202d565b60405180910390fd5b60018260000160008373ffffffffffffffffffffffffffffffffffffffff1673ffffffffffffffffffffffffffffffffffffffff16815260200190815260200160002060006101000a81548160ff0219169083151502179055505050565b600033905090565b600073ffffffffffffffffffffffffffffffffffffffff168373ffffffffffffffffffffffffffffffffffffffff161415610fa1576040517f08c379a0000000000000000000000000000000000000000000000000000000008152600401610f98906120ad565b60405180910390fd5b600073ffffffffffffffffffffffffffffffffffffffff168273ffffffffffffffffffffffffffffffffffffffff161415611011576040517f08c379a000000000000000000000000000000000000000000000000000000000815260040161100890611fed565b60405180910390fd5b80600160008573ffffffffffffffffffffffffffffffffffffffff1673ffffffffffffffffffffffffffffffffffffffff16815260200190815260200160002060008473ffffffffffffffffffffffffffffffffffffffff1673ffffffffffffffffffffffffffffffffffffffff168152602001908152602001600020819055508173ffffffffffffffffffffffffffffffffffffffff168373ffffffffffffffffffffffffffffffffffffffff167f8c5be1e5ebec7d5bd14f71427d1e84f3dd0314c0f7b2291e5b200ac8c7c3b925836040516110ef919061214d565b60405180910390a3505050565b600073ffffffffffffffffffffffffffffffffffffffff168373ffffffffffffffffffffffffffffffffffffffff16141561116c576040517f08c379a00000000000000000000000000000000000000000000000000000000081526004016111639061208d565b60405180910390fd5b600073ffffffffffffffffffffffffffffffffffffffff168273ffffffffffffffffffffffffffffffffffffffff1614156111dc576040517f08c379a00000000000000000000000000000000000000000000000000000000081526004016111d390611f8d565b60405180910390fd5b6111e78383836119f1565b60008060008573ffffffffffffffffffffffffffffffffffffffff1673ffffffffffffffffffffffffffffffffffffffff1681526020019081526020016000205490508181101561126d576040517f08c379a00000000000000000000000000000000000000000000000000000000081526004016112649061200d565b60405180910390fd5b8181036000808673ffffffffffffffffffffffffffffffffffffffff1673ffffffffffffffffffffffffffffffffffffffff16815260200190815260200160002081905550816000808573ffffffffffffffffffffffffffffffffffffffff1673ffffffffffffffffffffffffffffffffffffffff1681526020019081526020016000206000828254611300919061219f565b925050819055508273ffffffffffffffffffffffffffffffffffffffff168473ffffffffffffffffffffffffffffffffffffffff167fddf252ad1be2c89b69c2b068fc378daa952ba7f163c4a11628f55a4df523b3ef84604051611364919061214d565b60405180910390a350505050565b600073ffffffffffffffffffffffffffffffffffffffff168273ffffffffffffffffffffffffffffffffffffffff1614156113e2576040517f08c379a00000000000000000000000000000000000000000000000000000000081526004016113d99061212d565b60405180910390fd5b6113ee600083836119f1565b8060026000828254611400919061219f565b92505081905550806000808473ffffffffffffffffffffffffffffffffffffffff1673ffffffffffffffffffffffffffffffffffffffff1681526020019081526020016000206000828254611455919061219f565b925050819055508173ffffffffffffffffffffffffffffffffffffffff16600073ffffffffffffffffffffffffffffffffffffffff167fddf252ad1be2c89b69c2b068fc378daa952ba7f163c4a11628f55a4df523b3ef836040516114ba919061214d565b60405180910390a35050565b600073ffffffffffffffffffffffffffffffffffffffff168273ffffffffffffffffffffffffffffffffffffffff161415611536576040517f08c379a000000000000000000000000000000000000000000000000000000000815260040161152d9061206d565b60405180910390fd5b611542826000836119f1565b60008060008473ffffffffffffffffffffffffffffffffffffffff1673ffffffffffffffffffffffffffffffffffffffff168152602001908152602001600020549050818110156115c8576040517f08c379a00000000000000000000000000000000000000000000000000000000081526004016115bf90611fcd565b60405180910390fd5b8181036000808573ffffffffffffffffffffffffffffffffffffffff1673ffffffffffffffffffffffffffffffffffffffff16815260200190815260200160002081905550816002600082825461161f91906121f5565b92505081905550600073ffffffffffffffffffffffffffffffffffffffff168373ffffffffffffffffffffffffffffffffffffffff167fddf252ad1be2c89b69c2b068fc378daa952ba7f163c4a11628f55a4df523b3ef84604051611684919061214d565b60405180910390a3505050565b6116a5816007610e1190919063ffffffff16565b8073ffffffffffffffffffffffffffffffffffffffff167f6ae172837ea30b801fbfcdd4108aa1d5bf8ff775444fd70256b44e6bf3dfc3f660405160405180910390a250565b6116ff8160076119f690919063ffffffff16565b8073ffffffffffffffffffffffffffffffffffffffff167fe94479a9f7e1952cc78f2d6baab678adc1b772d936c6583def489e524cb6669260405160405180910390a250565b60008073ffffffffffffffffffffffffffffffffffffffff168273ffffffffffffffffffffffffffffffffffffffff1614156117b6576040517f08c379a00000000000000000000000000000000000000000000000000000000081526004016117ad906120ed565b60405180910390fd5b8260000160008373ffffffffffffffffffffffffffffffffffffffff1673ffffffffffffffffffffffffffffffffffffffff16815260200190815260200160002060009054906101000a900460ff16905092915050565b6118218160066119f690919063ffffffff16565b8073ffffffffffffffffffffffffffffffffffffffff167fab8cff50266d80b9c9d9703af934ca455b9218286bf4fcaa05653a564c499e4b60405160405180910390a250565b61187b816006610e1190919063ffffffff16565b8073ffffffffffffffffffffffffffffffffffffffff167f3139419c41cdd7abca84fa19dd21118cd285d3e2ce1a9444e8161ce9fa62fdcd60405160405180910390a250565b600073ffffffffffffffffffffffffffffffffffffffff168173ffffffffffffffffffffffffffffffffffffffff161415611931576040517f08c379a000000000000000000000000000000000000000000000000000000000815260040161192890611fad565b60405180910390fd5b8073ffffffffffffffffffffffffffffffffffffffff16600560009054906101000a900473ffffffffffffffffffffffffffffffffffffffff1673ffffffffffffffffffffffffffffffffffffffff167f8be0079c531659141344cd1fd0a4f28419497f9722a3daafe3b4186f6b6457e060405160405180910390a380600560006101000a81548173ffffffffffffffffffffffffffffffffffffffff021916908373ffffffffffffffffffffffffffffffffffffffff16021790555050565b505050565b600073ffffffffffffffffffffffffffffffffffffffff168173ffffffffffffffffffffffffffffffffffffffff161415611a66576040517f08c379a0000000000000000000000000000000000000000000000000000000008152600401611a5d906120ed565b60405180910390fd5b611a708282611745565b611aaf576040517f08c379a0000000000000000000000000000000000000000000000000000000008152600401611aa690611f6d565b60405180910390fd5b60008260000160008373ffffffffffffffffffffffffffffffffffffffff1673ffffffffffffffffffffffffffffffffffffffff16815260200190815260200160002060006101000a81548160ff0219169083151502179055505050565b600081359050611b1c8161275e565b92915050565b600081359050611b3181612775565b92915050565b600060208284031215611b4957600080fd5b6000611b5784828501611b0d565b91505092915050565b60008060408385031215611b7357600080fd5b6000611b8185828601611b0d565b9250506020611b9285828601611b0d565b9150509250929050565b600080600060608486031215611bb157600080fd5b6000611bbf86828701611b0d565b9350506020611bd086828701611b0d565b9250506040611be186828701611b22565b9150509250925092565b60008060408385031215611bfe57600080fd5b6000611c0c85828601611b0d565b9250506020611c1d85828601611b22565b9150509250929050565b600060208284031215611c3957600080fd5b6000611c4784828501611b22565b91505092915050565b611c5981612229565b82525050565b611c688161223b565b82525050565b6000611c7982612183565b611c83818561218e565b9350611c9381856020860161227e565b611c9c81612341565b840191505092915050565b6000611cb460238361218e565b9150611cbf82612352565b604082019050919050565b6000611cd7601f8361218e565b9150611ce2826123a1565b602082019050919050565b6000611cfa60238361218e565b9150611d05826123ca565b604082019050919050565b6000611d1d600f8361218e565b9150611d2882612419565b602082019050919050565b6000611d4060228361218e565b9150611d4b82612442565b604082019050919050565b6000611d6360228361218e565b9150611d6e82612491565b604082019050919050565b6000611d8660268361218e565b9150611d91826124e0565b604082019050919050565b6000611da9601d8361218e565b9150611db48261252f565b602082019050919050565b6000611dcc60288361218e565b9150611dd782612558565b604082019050919050565b6000611def60218361218e565b9150611dfa826125a7565b604082019050919050565b6000611e1260258361218e565b9150611e1d826125f6565b604082019050919050565b6000611e3560248361218e565b9150611e4082612645565b604082019050919050565b6000611e5860128361218e565b9150611e6382612694565b602082019050919050565b6000611e7b60178361218e565b9150611e86826126bd565b602082019050919050565b6000611e9e60258361218e565b9150611ea9826126e6565b604082019050919050565b6000611ec1601f8361218e565b9150611ecc82612735565b602082019050919050565b611ee081612267565b82525050565b611eef81612271565b82525050565b6000602082019050611f0a6000830184611c50565b92915050565b6000602082019050611f256000830184611c5f565b92915050565b60006020820190508181036000830152611f458184611c6e565b905092915050565b60006020820190508181036000830152611f6681611ca7565b9050919050565b60006020820190508181036000830152611f8681611cca565b9050919050565b60006020820190508181036000830152611fa681611ced565b9050919050565b60006020820190508181036000830152611fc681611d10565b9050919050565b60006020820190508181036000830152611fe681611d33565b9050919050565b6000602082019050818103600083015261200681611d56565b9050919050565b6000602082019050818103600083015261202681611d79565b9050919050565b6000602082019050818103600083015261204681611d9c565b9050919050565b6000602082019050818103600083015261206681611dbf565b9050919050565b6000602082019050818103600083015261208681611de2565b9050919050565b600060208201905081810360008301526120a681611e05565b9050919050565b600060208201905081810360008301526120c681611e28565b9050919050565b600060208201905081810360008301526120e681611e4b565b9050919050565b6000602082019050818103600083015261210681611e6e565b9050919050565b6000602082019050818103600083015261212681611e91565b9050919050565b6000602082019050818103600083015261214681611eb4565b9050919050565b60006020820190506121626000830184611ed7565b92915050565b600060208201905061217d6000830184611ee6565b92915050565b600081519050919050565b600082825260208201905092915050565b60006121aa82612267565b91506121b583612267565b9250827fffffffffffffffffffffffffffffffffffffffffffffffffffffffffffffffff038211156121ea576121e96122e3565b5b828201905092915050565b600061220082612267565b915061220b83612267565b92508282101561221e5761221d6122e3565b5b828203905092915050565b600061223482612247565b9050919050565b60008115159050919050565b600073ffffffffffffffffffffffffffffffffffffffff82169050919050565b6000819050919050565b600060ff82169050919050565b60005b8381101561229c578082015181840152602081019050612281565b838111156122ab576000848401525b50505050565b600060028204905060018216806122c957607f821691505b602082108114156122dd576122dc612312565b5b50919050565b7f4e487b7100000000000000000000000000000000000000000000000000000000600052601160045260246000fd5b7f4e487b7100000000000000000000000000000000000000000000000000000000600052602260045260246000fd5b6000601f19601f8301169050919050565b7f6f6e6c7920746865206761746577617920697320616c6c6f77656420746f206d60008201527f696e740000000000000000000000000000000000000000000000000000000000602082015250565b7f4163636f756e7420646f6573206e6f742068617665207468697320726f6c6500600082015250565b7f45524332303a207472616e7366657220746f20746865207a65726f206164647260008201527f6573730000000000000000000000000000000000000000000000000000000000602082015250565b7f496e76616c696420616464726573730000000000000000000000000000000000600082015250565b7f45524332303a206275726e20616d6f756e7420657863656564732062616c616e60008201527f6365000000000000000000000000000000000000000000000000000000000000602082015250565b7f45524332303a20617070726f766520746f20746865207a65726f20616464726560008201527f7373000000000000000000000000000000000000000000000000000000000000602082015250565b7f45524332303a207472616e7366657220616d6f756e742065786365656473206260008201527f616c616e63650000000000000000000000000000000000000000000000000000602082015250565b7f4163636f756e7420616c726561647920686173207468697320726f6c65000000600082015250565b7f45524332303a207472616e7366657220616d6f756e742065786365656473206160008201527f6c6c6f77616e6365000000000000000000000000000000000000000000000000602082015250565b7f45524332303a206275726e2066726f6d20746865207a65726f2061646472657360008201527f7300000000000000000000000000000000000000000000000000000000000000602082015250565b7f45524332303a207472616e736665722066726f6d20746865207a65726f20616460008201527f6472657373000000000000000000000000000000000000000000000000000000602082015250565b7f45524332303a20617070726f76652066726f6d20746865207a65726f2061646460008201527f7265737300000000000000000000000000000000000000000000000000000000602082015250565b7f496e76616c6964207065726d697373696f6e0000000000000000000000000000600082015250565b7f496e76616c69642061646472657373206163636f756e74000000000000000000600082015250565b7f45524332303a2064656372656173656420616c6c6f77616e63652062656c6f7760008201527f207a65726f000000000000000000000000000000000000000000000000000000602082015250565b7f45524332303a206d696e7420746f20746865207a65726f206164647265737300600082015250565b61276781612229565b811461277257600080fd5b50565b61277e81612267565b811461278957600080fd5b5056fea2646970667358221220420d525659cdd5d8486859cdbb6b3e9a8ede060d887e36fa961079decdf227a464736f6c63430008040033",
  "immutableReferences": {},
  "source": "// SPDX-License-Identifier: GPL-3.0 License\n\npragma solidity ^0.8.0;\n\nimport '../common/DragonGoldERC20.sol';\n\n/**\n * @title Dappchain ERC20 coin contract\n */\ncontract DappchainDragonCoin is DragonGoldERC20 {\n\t// Transfer Gateway contract address\n\taddress public gateway;\n\n\tconstructor(address _gateway) {\n\t\tgateway = _gateway;\n\t}\n\n\t// Used by the DAppChain Gateway to mint tokens that have been deposited to the Ethereum Gateway\n\tfunction mintToGateway(uint256 _amount) public {\n\t\trequire(msg.sender == gateway, 'only the gateway is allowed to mint');\n\t\t_mint(gateway, _amount);\n\t}\n}\n",
  "sourcePath": "/mnt/d/Projects/cryptodragons/truffle-project/contracts/dappchain/DappchainDragonCoin.sol",
  "compiler": {
    "name": "solc",
    "version": "0.8.4+commit.c7e474f2.Emscripten.clang"
  },
  "schemaVersion": "3.4.3",
  "updatedAt": "2021-10-31T17:35:56.214Z",
  "devdoc": {
    "kind": "dev",
    "methods": {
      "allowance(address,address)": {
        "details": "See {IERC20-allowance}."
      },
      "approve(address,uint256)": {
        "details": "See {IERC20-approve}. Requirements: - `spender` cannot be the zero address."
      },
      "balanceOf(address)": {
        "details": "See {IERC20-balanceOf}."
      },
      "decimals()": {
        "details": "Returns the number of decimals used to get its user representation. For example, if `decimals` equals `2`, a balance of `505` tokens should be displayed to a user as `5,05` (`505 / 10 ** 2`). Tokens usually opt for a value of 18, imitating the relationship between Ether and Wei. This is the value {ERC20} uses, unless this function is overridden; NOTE: This information is only used for _display_ purposes: it in no way affects any of the arithmetic of the contract, including {IERC20-balanceOf} and {IERC20-transfer}."
      },
      "decreaseAllowance(address,uint256)": {
        "details": "Atomically decreases the allowance granted to `spender` by the caller. This is an alternative to {approve} that can be used as a mitigation for problems described in {IERC20-approve}. Emits an {Approval} event indicating the updated allowance. Requirements: - `spender` cannot be the zero address. - `spender` must have allowance for the caller of at least `subtractedValue`."
      },
      "increaseAllowance(address,uint256)": {
        "details": "Atomically increases the allowance granted to `spender` by the caller. This is an alternative to {approve} that can be used as a mitigation for problems described in {IERC20-approve}. Emits an {Approval} event indicating the updated allowance. Requirements: - `spender` cannot be the zero address."
      },
      "isOwner()": {
        "returns": {
          "_0": "true if `msg.sender` is the owner of the contract."
        }
      },
      "mint(address,uint256)": {
        "details": "Function to mint tokens",
        "params": {
          "to": "The address that will receive the minted tokens.",
          "value": "The amount of tokens to mint."
        },
        "returns": {
          "_0": "A boolean that indicates if the operation was successful."
        }
      },
      "name()": {
        "details": "Returns the name of the token."
      },
      "owner()": {
        "returns": {
          "_0": "the address of the owner."
        }
      },
      "renounceOwnership()": {
        "details": "Allows the current owner to relinquish control of the contract."
      },
      "spendFrom(address,uint256)": {
        "details": "Burns a specific amount of tokens from the target address and decrements allowance",
        "params": {
          "from": "address The address which you want to send tokens from",
          "value": "uint256 The amount of token to be burned"
        }
      },
      "symbol()": {
        "details": "Returns the symbol of the token, usually a shorter version of the name."
      },
      "totalSupply()": {
        "details": "See {IERC20-totalSupply}."
      },
      "transfer(address,uint256)": {
        "details": "See {IERC20-transfer}. Requirements: - `recipient` cannot be the zero address. - the caller must have a balance of at least `amount`."
      },
      "transferFrom(address,address,uint256)": {
        "details": "See {IERC20-transferFrom}. Emits an {Approval} event indicating the updated allowance. This is not required by the EIP. See the note at the beginning of {ERC20}. Requirements: - `sender` and `recipient` cannot be the zero address. - `sender` must have a balance of at least `amount`. - the caller must have allowance for ``sender``'s tokens of at least `amount`."
      },
      "transferOwnership(address)": {
        "details": "Allows the current owner to transfer control of the contract to a newOwner.",
        "params": {
          "newOwner": "The address to transfer ownership to."
        }
      }
    },
    "title": "Dappchain ERC20 coin contract",
    "version": 1
  },
  "userdoc": {
    "kind": "user",
    "methods": {
      "renounceOwnership()": {
        "notice": "Renouncing to ownership will leave the contract without an owner. It will not be possible to call the functions with the `onlyOwner` modifier anymore."
      }
    },
    "version": 1
  }
}