{
  "contractName": "DappchainTransferableDragon",
  "abi": [
    {
      "inputs": [
        {
          "internalType": "address",
          "name": "gateway",
          "type": "address"
        },
        {
          "internalType": "address",
          "name": "dragonDecoder",
          "type": "address"
        },
        {
          "internalType": "uint8",
          "name": "blockchainId",
          "type": "uint8"
        }
      ],
      "stateMutability": "nonpayable",
      "type": "constructor"
    },
    {
      "anonymous": false,
      "inputs": [
        {
          "indexed": true,
          "internalType": "address",
          "name": "owner",
          "type": "address"
        },
        {
          "indexed": true,
          "internalType": "address",
          "name": "approved",
          "type": "address"
        },
        {
          "indexed": true,
          "internalType": "uint256",
          "name": "tokenId",
          "type": "uint256"
        }
      ],
      "name": "Approval",
      "type": "event"
    },
    {
      "anonymous": false,
      "inputs": [
        {
          "indexed": true,
          "internalType": "address",
          "name": "owner",
          "type": "address"
        },
        {
          "indexed": true,
          "internalType": "address",
          "name": "operator",
          "type": "address"
        },
        {
          "indexed": false,
          "internalType": "bool",
          "name": "approved",
          "type": "bool"
        }
      ],
      "name": "ApprovalForAll",
      "type": "event"
    },
    {
      "anonymous": false,
      "inputs": [
        {
          "indexed": false,
          "internalType": "uint256",
          "name": "dragonId",
          "type": "uint256"
        },
        {
          "indexed": false,
          "internalType": "uint256",
          "name": "genes",
          "type": "uint256"
        }
      ],
      "name": "NewDragon",
      "type": "event"
    },
    {
      "anonymous": false,
      "inputs": [
        {
          "indexed": true,
          "internalType": "address",
          "name": "previousOwner",
          "type": "address"
        },
        {
          "indexed": true,
          "internalType": "address",
          "name": "newOwner",
          "type": "address"
        }
      ],
      "name": "OwnershipTransferred",
      "type": "event"
    },
    {
      "anonymous": false,
      "inputs": [
        {
          "indexed": true,
          "internalType": "address",
          "name": "from",
          "type": "address"
        },
        {
          "indexed": true,
          "internalType": "address",
          "name": "to",
          "type": "address"
        },
        {
          "indexed": true,
          "internalType": "uint256",
          "name": "tokenId",
          "type": "uint256"
        }
      ],
      "name": "Transfer",
      "type": "event"
    },
    {
      "inputs": [
        {
          "internalType": "address",
          "name": "to",
          "type": "address"
        },
        {
          "internalType": "uint256",
          "name": "tokenId",
          "type": "uint256"
        }
      ],
      "name": "approve",
      "outputs": [],
      "stateMutability": "nonpayable",
      "type": "function"
    },
    {
      "inputs": [
        {
          "internalType": "address",
          "name": "owner",
          "type": "address"
        }
      ],
      "name": "balanceOf",
      "outputs": [
        {
          "internalType": "uint256",
          "name": "",
          "type": "uint256"
        }
      ],
      "stateMutability": "view",
      "type": "function"
    },
    {
      "inputs": [
        {
          "internalType": "string",
          "name": "_name",
          "type": "string"
        },
        {
          "internalType": "uint64",
          "name": "_creationTime",
          "type": "uint64"
        },
        {
          "internalType": "uint32",
          "name": "_dadId",
          "type": "uint32"
        },
        {
          "internalType": "uint32",
          "name": "_motherId",
          "type": "uint32"
        }
      ],
      "name": "createDragon",
      "outputs": [],
      "stateMutability": "nonpayable",
      "type": "function"
    },
    {
      "inputs": [
        {
          "internalType": "uint256",
          "name": "",
          "type": "uint256"
        }
      ],
      "name": "dragonIndexToOwner",
      "outputs": [
        {
          "internalType": "address",
          "name": "",
          "type": "address"
        }
      ],
      "stateMutability": "view",
      "type": "function"
    },
    {
      "inputs": [
        {
          "internalType": "uint256",
          "name": "tokenId",
          "type": "uint256"
        }
      ],
      "name": "getApproved",
      "outputs": [
        {
          "internalType": "address",
          "name": "",
          "type": "address"
        }
      ],
      "stateMutability": "view",
      "type": "function"
    },
    {
      "inputs": [
        {
          "internalType": "uint256",
          "name": "_dragonId",
          "type": "uint256"
        }
      ],
      "name": "getDragonById",
      "outputs": [
        {
          "internalType": "bytes32",
          "name": "name",
          "type": "bytes32"
        },
        {
          "internalType": "uint32",
          "name": "dadId",
          "type": "uint32"
        },
        {
          "internalType": "uint32",
          "name": "motherId",
          "type": "uint32"
        },
        {
          "internalType": "uint32",
          "name": "currentExperience",
          "type": "uint32"
        },
        {
          "internalType": "uint16",
          "name": "health",
          "type": "uint16"
        },
        {
          "internalType": "uint16",
          "name": "strength",
          "type": "uint16"
        },
        {
          "internalType": "uint16",
          "name": "agility",
          "type": "uint16"
        },
        {
          "internalType": "uint16",
          "name": "fortitude",
          "type": "uint16"
        }
      ],
      "stateMutability": "view",
      "type": "function"
    },
    {
      "inputs": [
        {
          "internalType": "address",
          "name": "owner",
          "type": "address"
        }
      ],
      "name": "getDragonsIdsByOwner",
      "outputs": [
        {
          "internalType": "uint256[]",
          "name": "tokenIds",
          "type": "uint256[]"
        }
      ],
      "stateMutability": "view",
      "type": "function"
    },
    {
      "inputs": [
        {
          "internalType": "uint256",
          "name": "id",
          "type": "uint256"
        }
      ],
      "name": "getVisualAttributes",
      "outputs": [
        {
          "internalType": "uint16",
          "name": "head",
          "type": "uint16"
        },
        {
          "internalType": "uint16",
          "name": "body",
          "type": "uint16"
        },
        {
          "internalType": "uint16",
          "name": "wings",
          "type": "uint16"
        }
      ],
      "stateMutability": "view",
      "type": "function"
    },
    {
      "inputs": [
        {
          "internalType": "address",
          "name": "owner",
          "type": "address"
        },
        {
          "internalType": "address",
          "name": "operator",
          "type": "address"
        }
      ],
      "name": "isApprovedForAll",
      "outputs": [
        {
          "internalType": "bool",
          "name": "",
          "type": "bool"
        }
      ],
      "stateMutability": "view",
      "type": "function"
    },
    {
      "inputs": [
        {
          "internalType": "uint256",
          "name": "_dragonId",
          "type": "uint256"
        }
      ],
      "name": "isEgg",
      "outputs": [
        {
          "internalType": "bool",
          "name": "",
          "type": "bool"
        }
      ],
      "stateMutability": "view",
      "type": "function"
    },
    {
      "inputs": [],
      "name": "isOwner",
      "outputs": [
        {
          "internalType": "bool",
          "name": "",
          "type": "bool"
        }
      ],
      "stateMutability": "view",
      "type": "function"
    },
    {
      "inputs": [],
      "name": "name",
      "outputs": [
        {
          "internalType": "string",
          "name": "",
          "type": "string"
        }
      ],
      "stateMutability": "view",
      "type": "function"
    },
    {
      "inputs": [],
      "name": "owner",
      "outputs": [
        {
          "internalType": "address",
          "name": "",
          "type": "address"
        }
      ],
      "stateMutability": "view",
      "type": "function"
    },
    {
      "inputs": [
        {
          "internalType": "uint256",
          "name": "tokenId",
          "type": "uint256"
        }
      ],
      "name": "ownerOf",
      "outputs": [
        {
          "internalType": "address",
          "name": "",
          "type": "address"
        }
      ],
      "stateMutability": "view",
      "type": "function"
    },
    {
      "inputs": [],
      "name": "renounceOwnership",
      "outputs": [],
      "stateMutability": "nonpayable",
      "type": "function"
    },
    {
      "inputs": [
        {
          "internalType": "address",
          "name": "from",
          "type": "address"
        },
        {
          "internalType": "address",
          "name": "to",
          "type": "address"
        },
        {
          "internalType": "uint256",
          "name": "tokenId",
          "type": "uint256"
        }
      ],
      "name": "safeTransferFrom",
      "outputs": [],
      "stateMutability": "nonpayable",
      "type": "function"
    },
    {
      "inputs": [
        {
          "internalType": "address",
          "name": "from",
          "type": "address"
        },
        {
          "internalType": "address",
          "name": "to",
          "type": "address"
        },
        {
          "internalType": "uint256",
          "name": "tokenId",
          "type": "uint256"
        },
        {
          "internalType": "bytes",
          "name": "_data",
          "type": "bytes"
        }
      ],
      "name": "safeTransferFrom",
      "outputs": [],
      "stateMutability": "nonpayable",
      "type": "function"
    },
    {
      "inputs": [
        {
          "internalType": "address",
          "name": "operator",
          "type": "address"
        },
        {
          "internalType": "bool",
          "name": "approved",
          "type": "bool"
        }
      ],
      "name": "setApprovalForAll",
      "outputs": [],
      "stateMutability": "nonpayable",
      "type": "function"
    },
    {
      "inputs": [
        {
          "internalType": "address",
          "name": "genesLaboratoryAddress",
          "type": "address"
        }
      ],
      "name": "setGenesLaboratoryAddress",
      "outputs": [],
      "stateMutability": "nonpayable",
      "type": "function"
    },
    {
      "inputs": [
        {
          "internalType": "uint256",
          "name": "_dragonId",
          "type": "uint256"
        },
        {
          "internalType": "string",
          "name": "_name",
          "type": "string"
        }
      ],
      "name": "setName",
      "outputs": [],
      "stateMutability": "nonpayable",
      "type": "function"
    },
    {
      "inputs": [
        {
          "internalType": "bytes4",
          "name": "interfaceId",
          "type": "bytes4"
        }
      ],
      "name": "supportsInterface",
      "outputs": [
        {
          "internalType": "bool",
          "name": "",
          "type": "bool"
        }
      ],
      "stateMutability": "view",
      "type": "function"
    },
    {
      "inputs": [],
      "name": "symbol",
      "outputs": [
        {
          "internalType": "string",
          "name": "",
          "type": "string"
        }
      ],
      "stateMutability": "view",
      "type": "function"
    },
    {
      "inputs": [
        {
          "internalType": "uint256",
          "name": "index",
          "type": "uint256"
        }
      ],
      "name": "tokenByIndex",
      "outputs": [
        {
          "internalType": "uint256",
          "name": "",
          "type": "uint256"
        }
      ],
      "stateMutability": "view",
      "type": "function"
    },
    {
      "inputs": [
        {
          "internalType": "address",
          "name": "owner",
          "type": "address"
        },
        {
          "internalType": "uint256",
          "name": "index",
          "type": "uint256"
        }
      ],
      "name": "tokenOfOwnerByIndex",
      "outputs": [
        {
          "internalType": "uint256",
          "name": "",
          "type": "uint256"
        }
      ],
      "stateMutability": "view",
      "type": "function"
    },
    {
      "inputs": [
        {
          "internalType": "uint256",
          "name": "tokenId",
          "type": "uint256"
        }
      ],
      "name": "tokenURI",
      "outputs": [
        {
          "internalType": "string",
          "name": "",
          "type": "string"
        }
      ],
      "stateMutability": "view",
      "type": "function"
    },
    {
      "inputs": [],
      "name": "totalSupply",
      "outputs": [
        {
          "internalType": "uint256",
          "name": "",
          "type": "uint256"
        }
      ],
      "stateMutability": "view",
      "type": "function"
    },
    {
      "inputs": [
        {
          "internalType": "address",
          "name": "from",
          "type": "address"
        },
        {
          "internalType": "address",
          "name": "to",
          "type": "address"
        },
        {
          "internalType": "uint256",
          "name": "tokenId",
          "type": "uint256"
        }
      ],
      "name": "transferFrom",
      "outputs": [],
      "stateMutability": "nonpayable",
      "type": "function"
    },
    {
      "inputs": [
        {
          "internalType": "address",
          "name": "newOwner",
          "type": "address"
        }
      ],
      "name": "transferOwnership",
      "outputs": [],
      "stateMutability": "nonpayable",
      "type": "function"
    },
    {
      "inputs": [
        {
          "internalType": "address",
          "name": "gateway",
          "type": "address"
        }
      ],
      "name": "setGatewayAddress",
      "outputs": [],
      "stateMutability": "nonpayable",
      "type": "function"
    },
    {
      "inputs": [
        {
          "internalType": "address",
          "name": "receiver",
          "type": "address"
        },
        {
          "internalType": "uint256",
          "name": "_tokenId",
          "type": "uint256"
        },
        {
          "internalType": "bytes",
          "name": "_data",
          "type": "bytes"
        }
      ],
      "name": "retrieveToken",
      "outputs": [],
      "stateMutability": "nonpayable",
      "type": "function"
    },
    {
      "inputs": [
        {
          "internalType": "address",
          "name": "owner",
          "type": "address"
        },
        {
          "internalType": "address",
          "name": "mainnetAddress",
          "type": "address"
        }
      ],
      "name": "undoMapping",
      "outputs": [],
      "stateMutability": "nonpayable",
      "type": "function"
    },
    {
      "inputs": [
        {
          "internalType": "address",
          "name": "mainnetAddress",
          "type": "address"
        }
      ],
      "name": "mapContractToMainnet",
      "outputs": [],
      "stateMutability": "nonpayable",
      "type": "function"
    },
    {
      "inputs": [
        {
          "internalType": "address",
          "name": "mainnetAddress",
          "type": "address"
        }
      ],
      "name": "isMap",
      "outputs": [
        {
          "internalType": "bool",
          "name": "",
          "type": "bool"
        }
      ],
      "stateMutability": "view",
      "type": "function"
    },
    {
      "inputs": [
        {
          "internalType": "uint256",
          "name": "_tokenId",
          "type": "uint256"
        }
      ],
      "name": "transferToGateway",
      "outputs": [],
      "stateMutability": "nonpayable",
      "type": "function"
    }
  ],
  "bytecode": "0x60806040526040518060400160405280600c81526020017f447261676f6e20546f6b656e000000000000000000000000000000000000000081525060009080519060200190620000519291906200033f565b506040518060400160405280600381526020017f4447540000000000000000000000000000000000000000000000000000000000815250600190805190602001906200009f9291906200033f565b506000600d60006101000a81548160ff021916908360ff160217905550348015620000c957600080fd5b5060405162006252380380620062528339818101604052810190620000ef91906200041d565b82828233600a60006101000a81548173ffffffffffffffffffffffffffffffffffffffff021916908373ffffffffffffffffffffffffffffffffffffffff160217905550600a60009054906101000a900473ffffffffffffffffffffffffffffffffffffffff1673ffffffffffffffffffffffffffffffffffffffff16600073ffffffffffffffffffffffffffffffffffffffff167f8be0079c531659141344cd1fd0a4f28419497f9722a3daafe3b4186f6b6457e060405160405180910390a3600073ffffffffffffffffffffffffffffffffffffffff168373ffffffffffffffffffffffffffffffffffffffff16141562000223576040517f08c379a00000000000000000000000000000000000000000000000000000000081526004016200021a90620004c1565b60405180910390fd5b600073ffffffffffffffffffffffffffffffffffffffff168273ffffffffffffffffffffffffffffffffffffffff16141562000296576040517f08c379a00000000000000000000000000000000000000000000000000000000081526004016200028d90620004e3565b60405180910390fd5b82601160006101000a81548173ffffffffffffffffffffffffffffffffffffffff021916908373ffffffffffffffffffffffffffffffffffffffff16021790555081601360006101000a81548173ffffffffffffffffffffffffffffffffffffffff021916908373ffffffffffffffffffffffffffffffffffffffff16021790555080600d60006101000a81548160ff021916908360ff16021790555050505050505062000642565b8280546200034d9062000557565b90600052602060002090601f016020900481019282620003715760008555620003bd565b82601f106200038c57805160ff1916838001178555620003bd565b82800160010185558215620003bd579182015b82811115620003bc5782518255916020019190600101906200039f565b5b509050620003cc9190620003d0565b5090565b5b80821115620003eb576000816000905550600101620003d1565b5090565b60008151905062000400816200060e565b92915050565b600081519050620004178162000628565b92915050565b6000806000606084860312156200043357600080fd5b60006200044386828701620003ef565b93505060206200045686828701620003ef565b9250506040620004698682870162000406565b9150509250925092565b60006200048260178362000505565b91506200048f82620005bc565b602082019050919050565b6000620004a960178362000505565b9150620004b682620005e5565b602082019050919050565b60006020820190508181036000830152620004dc8162000473565b9050919050565b60006020820190508181036000830152620004fe816200049a565b9050919050565b600082825260208201905092915050565b600062000523826200052a565b9050919050565b600073ffffffffffffffffffffffffffffffffffffffff82169050919050565b600060ff82169050919050565b600060028204905060018216806200057057607f821691505b602082108114156200058757620005866200058d565b5b50919050565b7f4e487b7100000000000000000000000000000000000000000000000000000000600052602260045260246000fd5b7f496e76616c696420676174657761792061646472657373000000000000000000600082015250565b7f496e76616c6964206465636f6465722061646472657373000000000000000000600082015250565b620006198162000516565b81146200062557600080fd5b50565b62000633816200054a565b81146200063f57600080fd5b50565b615c0080620006526000396000f3fe608060405234801561001057600080fd5b50600436106102065760003560e01c806370a082311161011a578063a8def880116100ad578063c9cf55701161007c578063c9cf55701461060d578063dfd4e4a414610644578063e985e9c514610674578063f2fde38b146106a4578063fe55932a146106c057610206565b8063a8def88014610589578063b88d4fde146105a5578063bef36c49146105c1578063c87b56dd146105dd57610206565b806395d89b41116100e957806395d89b411461051757806398ae481d14610535578063a22cb46514610551578063a35ff0761461056d57610206565b806370a08231146104a1578063715018a6146104d15780638da5cb5b146104db5780638f32d59b146104f957610206565b80632014a8be1161019d5780634f6ccce71161016c5780634f6ccce7146103d95780635d64aa681461040957806362635ed7146104395780636352211e146104555780636fbb70451461048557610206565b80632014a8be1461033f57806323b872dd146103715780632f745c591461038d57806342842e0e146103bd57610206565b8063095ea7b3116101d9578063095ea7b3146102b95780630b4cb527146102d55780630d6dd812146102f157806318160ddd1461032157610206565b806301ffc9a71461020b5780630469e8ac1461023b57806306fdde031461026b578063081812fc14610289575b600080fd5b61022560048036038101906102209190614619565b6106dc565b6040516102329190614eae565b60405180910390f35b6102556004803603810190610250919061436d565b610756565b6040516102629190614e8c565b60405180910390f35b6102736107d9565b6040516102809190614f84565b60405180910390f35b6102a3600480360381019061029e91906147a0565b61086b565b6040516102b09190614e25565b60405180910390f35b6102d360048036038101906102ce91906144d8565b6108f0565b005b6102ef60048036038101906102ea91906146ac565b610a08565b005b61030b6004803603810190610306919061436d565b610b4e565b6040516103189190614eae565b60405180910390f35b610329610c54565b6040516103369190615299565b60405180910390f35b610359600480360381019061035491906147a0565b610c61565b60405161036893929190615262565b60405180910390f35b61038b600480360381019061038691906143d2565b610d74565b005b6103a760048036038101906103a291906144d8565b610dd4565b6040516103b49190615299565b60405180910390f35b6103d760048036038101906103d291906143d2565b610e79565b005b6103f360048036038101906103ee91906147a0565b610e99565b6040516104009190615299565b60405180910390f35b610423600480360381019061041e91906147a0565b610f30565b6040516104309190614e25565b60405180910390f35b610453600480360381019061044e919061436d565b610f63565b005b61046f600480360381019061046a91906147a0565b611122565b60405161047c9190614e25565b60405180910390f35b61049f600480360381019061049a9190614514565b6111d4565b005b6104bb60048036038101906104b6919061436d565b6112e4565b6040516104c89190615299565b60405180910390f35b6104d961139c565b005b6104e36114a4565b6040516104f09190614e25565b60405180910390f35b6105016114ce565b60405161050e9190614eae565b60405180910390f35b61051f611526565b60405161052c9190614f84565b60405180910390f35b61054f600480360381019061054a919061436d565b6115b8565b005b61056b6004803603810190610566919061449c565b6116b3565b005b6105876004803603810190610582919061436d565b611834565b005b6105a3600480360381019061059e9190614396565b61192f565b005b6105bf60048036038101906105ba9190614421565b611ad8565b005b6105db60048036038101906105d691906147a0565b611b3a565b005b6105f760048036038101906105f291906147a0565b6120c9565b6040516106049190614f84565b60405180910390f35b610627600480360381019061062291906147a0565b612170565b60405161063b989796959493929190614ee4565b60405180910390f35b61065e600480360381019061065991906147a0565b612274565b60405161066b9190614eae565b60405180910390f35b61068e60048036038101906106899190614396565b612321565b60405161069b9190614eae565b60405180910390f35b6106be60048036038101906106b9919061436d565b6123b5565b005b6106da60048036038101906106d591906147c9565b612408565b005b60007f780e9d63000000000000000000000000000000000000000000000000000000007bffffffffffffffffffffffffffffffffffffffffffffffffffffffff1916827bffffffffffffffffffffffffffffffffffffffffffffffffffffffff1916148061074f575061074e82612573565b5b9050919050565b60606000610763836112e4565b905060005b818110156107d25761077a8482610dd4565b8382815181106107b3577f4e487b7100000000000000000000000000000000000000000000000000000000600052603260045260246000fd5b60200260200101818152505080806107ca90615657565b915050610768565b5050919050565b6060600080546107e8906155f4565b80601f0160208091040260200160405190810160405280929190818152602001828054610814906155f4565b80156108615780601f1061083657610100808354040283529160200191610861565b820191906000526020600020905b81548152906001019060200180831161084457829003601f168201915b5050505050905090565b600061087682612655565b6108b5576040517f08c379a00000000000000000000000000000000000000000000000000000000081526004016108ac906150a6565b60405180910390fd5b6004600083815260200190815260200160002060009054906101000a900473ffffffffffffffffffffffffffffffffffffffff169050919050565b60006108fb82611122565b90508073ffffffffffffffffffffffffffffffffffffffff168373ffffffffffffffffffffffffffffffffffffffff16141561096c576040517f08c379a000000000000000000000000000000000000000000000000000000000815260040161096390615006565b60405180910390fd5b8073ffffffffffffffffffffffffffffffffffffffff1661098b6126c1565b73ffffffffffffffffffffffffffffffffffffffff1614806109ba57506109b9816109b46126c1565b612321565b5b6109f9576040517f08c379a00000000000000000000000000000000000000000000000000000000081526004016109f0906151a6565b60405180910390fd5b610a0383836126c9565b505050565b6000806000806000806000601260009054906101000a900473ffffffffffffffffffffffffffffffffffffffff1673ffffffffffffffffffffffffffffffffffffffff1663355916a46040518163ffffffff1660e01b815260040160e060405180830381600087803b158015610a7d57600080fd5b505af1158015610a91573d6000803e3d6000fd5b505050506040513d601f19601f82011682018060405250810190610ab5919061457b565b96509650965096509650965096506000610ace8c612782565b90506000610af789838e8e8e60008a8f8f8f8f8e600d60009054906101000a900460ff166127ac565b9050610b033382612a44565b7f3045fac2aa90b666e53421f7c8b2245fae88d8c0bc2a2b62ff6283daea24f36f818a60001c604051610b379291906152b4565b60405180910390a150505050505050505050505050565b60008073ffffffffffffffffffffffffffffffffffffffff168273ffffffffffffffffffffffffffffffffffffffff161415610bbf576040517f08c379a0000000000000000000000000000000000000000000000000000000008152600401610bb690615226565b60405180910390fd5b8173ffffffffffffffffffffffffffffffffffffffff16601460003373ffffffffffffffffffffffffffffffffffffffff1673ffffffffffffffffffffffffffffffffffffffff16815260200190815260200160002060009054906101000a900473ffffffffffffffffffffffffffffffffffffffff1673ffffffffffffffffffffffffffffffffffffffff16149050919050565b6000600880549050905090565b600080600080600b8581548110610ca1577f4e487b7100000000000000000000000000000000000000000000000000000000600052603260045260246000fd5b90600052602060002090600402019050601260009054906101000a900473ffffffffffffffffffffffffffffffffffffffff1673ffffffffffffffffffffffffffffffffffffffff166391926cff82600001546040518263ffffffff1660e01b8152600401610d109190614ec9565b60606040518083038186803b158015610d2857600080fd5b505afa158015610d3c573d6000803e3d6000fd5b505050506040513d601f19601f82011682018060405250810190610d609190614751565b809450819550829650505050509193909250565b610d85610d7f6126c1565b82612c12565b610dc4576040517f08c379a0000000000000000000000000000000000000000000000000000000008152600401610dbb906150e6565b60405180910390fd5b610dcf838383612cf0565b505050565b6000610ddf836112e4565b8210610e20576040517f08c379a0000000000000000000000000000000000000000000000000000000008152600401610e1790615206565b60405180910390fd5b600660008473ffffffffffffffffffffffffffffffffffffffff1673ffffffffffffffffffffffffffffffffffffffff168152602001908152602001600020600083815260200190815260200160002054905092915050565b610e9483838360405180602001604052806000815250611ad8565b505050565b6000610ea3610c54565b8210610ee4576040517f08c379a0000000000000000000000000000000000000000000000000000000008152600401610edb90615206565b60405180910390fd5b60088281548110610f1e577f4e487b7100000000000000000000000000000000000000000000000000000000600052603260045260246000fd5b90600052602060002001549050919050565b600c6020528060005260406000206000915054906101000a900473ffffffffffffffffffffffffffffffffffffffff1681565b600073ffffffffffffffffffffffffffffffffffffffff168173ffffffffffffffffffffffffffffffffffffffff161415610fd3576040517f08c379a0000000000000000000000000000000000000000000000000000000008152600401610fca90615226565b60405180910390fd5b600073ffffffffffffffffffffffffffffffffffffffff16601460003373ffffffffffffffffffffffffffffffffffffffff1673ffffffffffffffffffffffffffffffffffffffff16815260200190815260200160002060009054906101000a900473ffffffffffffffffffffffffffffffffffffffff1673ffffffffffffffffffffffffffffffffffffffff16146110a1576040517f08c379a000000000000000000000000000000000000000000000000000000000815260040161109890615166565b60405180910390fd5b80601460003373ffffffffffffffffffffffffffffffffffffffff1673ffffffffffffffffffffffffffffffffffffffff16815260200190815260200160002060006101000a81548173ffffffffffffffffffffffffffffffffffffffff021916908373ffffffffffffffffffffffffffffffffffffffff16021790555050565b6000806002600084815260200190815260200160002060009054906101000a900473ffffffffffffffffffffffffffffffffffffffff169050600073ffffffffffffffffffffffffffffffffffffffff168173ffffffffffffffffffffffffffffffffffffffff1614156111cb576040517f08c379a00000000000000000000000000000000000000000000000000000000081526004016111c2906150a6565b60405180910390fd5b80915050919050565b601160009054906101000a900473ffffffffffffffffffffffffffffffffffffffff1673ffffffffffffffffffffffffffffffffffffffff163373ffffffffffffffffffffffffffffffffffffffff1614611264576040517f08c379a000000000000000000000000000000000000000000000000000000000815260040161125b906151c6565b60405180910390fd5b600073ffffffffffffffffffffffffffffffffffffffff168373ffffffffffffffffffffffffffffffffffffffff1614156112d4576040517f08c379a00000000000000000000000000000000000000000000000000000000081526004016112cb90615026565b60405180910390fd5b6112df838383612f4c565b505050565b60008073ffffffffffffffffffffffffffffffffffffffff168273ffffffffffffffffffffffffffffffffffffffff161415611355576040517f08c379a000000000000000000000000000000000000000000000000000000000815260040161134c90615086565b60405180910390fd5b600360008373ffffffffffffffffffffffffffffffffffffffff1673ffffffffffffffffffffffffffffffffffffffff168152602001908152602001600020549050919050565b6113a46114ce565b6113e3576040517f08c379a00000000000000000000000000000000000000000000000000000000081526004016113da906151c6565b60405180910390fd5b600073ffffffffffffffffffffffffffffffffffffffff16600a60009054906101000a900473ffffffffffffffffffffffffffffffffffffffff1673ffffffffffffffffffffffffffffffffffffffff167f8be0079c531659141344cd1fd0a4f28419497f9722a3daafe3b4186f6b6457e060405160405180910390a36000600a60006101000a81548173ffffffffffffffffffffffffffffffffffffffff021916908373ffffffffffffffffffffffffffffffffffffffff160217905550565b6000600a60009054906101000a900473ffffffffffffffffffffffffffffffffffffffff16905090565b6000600a60009054906101000a900473ffffffffffffffffffffffffffffffffffffffff1673ffffffffffffffffffffffffffffffffffffffff163373ffffffffffffffffffffffffffffffffffffffff1614905090565b606060018054611535906155f4565b80601f0160208091040260200160405190810160405280929190818152602001828054611561906155f4565b80156115ae5780601f10611583576101008083540402835291602001916115ae565b820191906000526020600020905b81548152906001019060200180831161159157829003601f168201915b5050505050905090565b6115c06114ce565b6115ff576040517f08c379a00000000000000000000000000000000000000000000000000000000081526004016115f6906151c6565b60405180910390fd5b600073ffffffffffffffffffffffffffffffffffffffff168173ffffffffffffffffffffffffffffffffffffffff16141561166f576040517f08c379a000000000000000000000000000000000000000000000000000000000815260040161166690614fc6565b60405180910390fd5b80601260006101000a81548173ffffffffffffffffffffffffffffffffffffffff021916908373ffffffffffffffffffffffffffffffffffffffff16021790555050565b6116bb6126c1565b73ffffffffffffffffffffffffffffffffffffffff168273ffffffffffffffffffffffffffffffffffffffff161415611729576040517f08c379a000000000000000000000000000000000000000000000000000000000815260040161172090615066565b60405180910390fd5b80600560006117366126c1565b73ffffffffffffffffffffffffffffffffffffffff1673ffffffffffffffffffffffffffffffffffffffff16815260200190815260200160002060008473ffffffffffffffffffffffffffffffffffffffff1673ffffffffffffffffffffffffffffffffffffffff16815260200190815260200160002060006101000a81548160ff0219169083151502179055508173ffffffffffffffffffffffffffffffffffffffff166117e36126c1565b73ffffffffffffffffffffffffffffffffffffffff167f17307eab39ab6107e8899845ad3d59bd9653f200f220920489ca2b5937696c31836040516118289190614eae565b60405180910390a35050565b61183c6114ce565b61187b576040517f08c379a0000000000000000000000000000000000000000000000000000000008152600401611872906151c6565b60405180910390fd5b600073ffffffffffffffffffffffffffffffffffffffff168173ffffffffffffffffffffffffffffffffffffffff1614156118eb576040517f08c379a00000000000000000000000000000000000000000000000000000000081526004016118e290614fe6565b60405180910390fd5b80601160006101000a81548173ffffffffffffffffffffffffffffffffffffffff021916908373ffffffffffffffffffffffffffffffffffffffff16021790555050565b6119376114ce565b611976576040517f08c379a000000000000000000000000000000000000000000000000000000000815260040161196d906151c6565b60405180910390fd5b600073ffffffffffffffffffffffffffffffffffffffff168273ffffffffffffffffffffffffffffffffffffffff1614156119e6576040517f08c379a00000000000000000000000000000000000000000000000000000000081526004016119dd90615146565b60405180910390fd5b600073ffffffffffffffffffffffffffffffffffffffff168173ffffffffffffffffffffffffffffffffffffffff161415611a56576040517f08c379a0000000000000000000000000000000000000000000000000000000008152600401611a4d90615226565b60405180910390fd5b80601460008473ffffffffffffffffffffffffffffffffffffffff1673ffffffffffffffffffffffffffffffffffffffff16815260200190815260200160002060006101000a81548173ffffffffffffffffffffffffffffffffffffffff021916908373ffffffffffffffffffffffffffffffffffffffff1602179055505050565b611ae9611ae36126c1565b83612c12565b611b28576040517f08c379a0000000000000000000000000000000000000000000000000000000008152600401611b1f906150e6565b60405180910390fd5b611b348484848461315a565b50505050565b803373ffffffffffffffffffffffffffffffffffffffff16611b5b82611122565b73ffffffffffffffffffffffffffffffffffffffff1614611bb1576040517f08c379a0000000000000000000000000000000000000000000000000000000008152600401611ba8906151a6565b60405180910390fd5b600073ffffffffffffffffffffffffffffffffffffffff16601460003373ffffffffffffffffffffffffffffffffffffffff1673ffffffffffffffffffffffffffffffffffffffff16815260200190815260200160002060009054906101000a900473ffffffffffffffffffffffffffffffffffffffff1673ffffffffffffffffffffffffffffffffffffffff161415611c80576040517f08c379a0000000000000000000000000000000000000000000000000000000008152600401611c7790615106565b60405180910390fd5b600b805490508210611cc7576040517f08c379a0000000000000000000000000000000000000000000000000000000008152600401611cbe90615126565b60405180910390fd5b6000600b8381548110611d03577f4e487b7100000000000000000000000000000000000000000000000000000000600052603260045260246000fd5b9060005260206000209060040201604051806101a001604052908160008201548152602001600182015481526020016002820160009054906101000a900467ffffffffffffffff1667ffffffffffffffff1667ffffffffffffffff1681526020016002820160089054906101000a900463ffffffff1663ffffffff1663ffffffff16815260200160028201600c9054906101000a900463ffffffff1663ffffffff1663ffffffff1681526020016002820160109054906101000a900463ffffffff1663ffffffff1663ffffffff1681526020016002820160149054906101000a900461ffff1661ffff1661ffff1681526020016002820160169054906101000a900461ffff1661ffff1661ffff1681526020016002820160189054906101000a900461ffff1661ffff1661ffff16815260200160028201601a9054906101000a900461ffff1661ffff1661ffff16815260200160028201601c9054906101000a900461ffff1661ffff1661ffff16815260200160028201601e9054906101000a900461ffff1661ffff1661ffff1681526020016003820160009054906101000a900460ff1660ff1660ff168152505090506000601360009054906101000a900473ffffffffffffffffffffffffffffffffffffffff1673ffffffffffffffffffffffffffffffffffffffff16630cb6d1e2836040518263ffffffff1660e01b8152600401611f119190615246565b60006040518083038186803b158015611f2957600080fd5b505afa158015611f3d573d6000803e3d6000fd5b505050506040513d6000823e3d601f19601f82011682018060405250810190611f66919061466b565b9050611f9533601160009054906101000a900473ffffffffffffffffffffffffffffffffffffffff1686610d74565b6000601160009054906101000a900473ffffffffffffffffffffffffffffffffffffffff1690506000600d60009054906101000a900460ff1660ff1684610180015160ff1614611fed57611fe8866131b6565b611fef565b855b90508173ffffffffffffffffffffffffffffffffffffffff16632492fbeb33601460003373ffffffffffffffffffffffffffffffffffffffff1673ffffffffffffffffffffffffffffffffffffffff16815260200190815260200160002060009054906101000a900473ffffffffffffffffffffffffffffffffffffffff1684876040518563ffffffff1660e01b815260040161208f9493929190614e40565b600060405180830381600087803b1580156120a957600080fd5b505af11580156120bd573d6000803e3d6000fd5b50505050505050505050565b60606120d482612655565b612113576040517f08c379a000000000000000000000000000000000000000000000000000000000815260040161210a906150c6565b60405180910390fd5b600061211d6131d3565b9050600081511161213d5760405180602001604052806000815250612168565b80612147846131ea565b604051602001612158929190614e01565b6040516020818303038152906040525b915050919050565b6000806000806000806000806000600b8a815481106121b8577f4e487b7100000000000000000000000000000000000000000000000000000000600052603260045260246000fd5b90600052602060002090600402019050806001015498508060020160089054906101000a900463ffffffff16975080600201600c9054906101000a900463ffffffff1696508060020160109054906101000a900463ffffffff1695508060020160169054906101000a900461ffff1694508060020160189054906101000a900461ffff16935080600201601a9054906101000a900461ffff16925080600201601c9054906101000a900461ffff16915050919395975091939597565b600080600b83815481106122b1577f4e487b7100000000000000000000000000000000000000000000000000000000600052603260045260246000fd5b906000526020600020906004020190506000603c8260020160009054906101000a900467ffffffffffffffff1667ffffffffffffffff16426122f391906154c1565b6122fd9190615467565b905081600201601e9054906101000a900461ffff1661ffff16811092505050919050565b6000600560008473ffffffffffffffffffffffffffffffffffffffff1673ffffffffffffffffffffffffffffffffffffffff16815260200190815260200160002060008373ffffffffffffffffffffffffffffffffffffffff1673ffffffffffffffffffffffffffffffffffffffff16815260200190815260200160002060009054906101000a900460ff16905092915050565b6123bd6114ce565b6123fc576040517f08c379a00000000000000000000000000000000000000000000000000000000081526004016123f3906151c6565b60405180910390fd5b61240581613397565b50565b823373ffffffffffffffffffffffffffffffffffffffff1661242982611122565b73ffffffffffffffffffffffffffffffffffffffff161461247f576040517f08c379a0000000000000000000000000000000000000000000000000000000008152600401612476906151a6565b60405180910390fd5b6000600b85815481106124bb577f4e487b7100000000000000000000000000000000000000000000000000000000600052603260045260246000fd5b90600052602060002090600402019050600061251a85858080601f016020809104026020016040519081016040528093929190818152602001838380828437600081840152601f19601f82011690508083019250505050505050612782565b90506000801b811415612562576040517f08c379a000000000000000000000000000000000000000000000000000000000815260040161255990615046565b60405180910390fd5b808260010181905550505050505050565b60007f80ac58cd000000000000000000000000000000000000000000000000000000007bffffffffffffffffffffffffffffffffffffffffffffffffffffffff1916827bffffffffffffffffffffffffffffffffffffffffffffffffffffffff1916148061263e57507f5b5e139f000000000000000000000000000000000000000000000000000000007bffffffffffffffffffffffffffffffffffffffffffffffffffffffff1916827bffffffffffffffffffffffffffffffffffffffffffffffffffffffff1916145b8061264e575061264d826134c7565b5b9050919050565b60008073ffffffffffffffffffffffffffffffffffffffff166002600084815260200190815260200160002060009054906101000a900473ffffffffffffffffffffffffffffffffffffffff1673ffffffffffffffffffffffffffffffffffffffff1614159050919050565b600033905090565b816004600083815260200190815260200160002060006101000a81548173ffffffffffffffffffffffffffffffffffffffff021916908373ffffffffffffffffffffffffffffffffffffffff160217905550808273ffffffffffffffffffffffffffffffffffffffff1661273c83611122565b73ffffffffffffffffffffffffffffffffffffffff167f8c5be1e5ebec7d5bd14f71427d1e84f3dd0314c0f7b2291e5b200ac8c7c3b92560405160405180910390a45050565b60008082905060008151141561279e576000801b9150506127a7565b60208301519150505b919050565b6000600b604051806101a001604052806000801b81526020016000801b81526020018e67ffffffffffffffff1681526020018d63ffffffff1681526020018c63ffffffff1681526020018b63ffffffff1681526020018a61ffff1681526020018961ffff1681526020018861ffff1681526020018761ffff1681526020018661ffff1681526020018561ffff1681526020018460ff168152509080600181540180825580915050600190039060005260206000209060040201600090919091909150600082015181600001556020820151816001015560408201518160020160006101000a81548167ffffffffffffffff021916908367ffffffffffffffff16021790555060608201518160020160086101000a81548163ffffffff021916908363ffffffff160217905550608082015181600201600c6101000a81548163ffffffff021916908363ffffffff16021790555060a08201518160020160106101000a81548163ffffffff021916908363ffffffff16021790555060c08201518160020160146101000a81548161ffff021916908361ffff16021790555060e08201518160020160166101000a81548161ffff021916908361ffff1602179055506101008201518160020160186101000a81548161ffff021916908361ffff16021790555061012082015181600201601a6101000a81548161ffff021916908361ffff16021790555061014082015181600201601c6101000a81548161ffff021916908361ffff16021790555061016082015181600201601e6101000a81548161ffff021916908361ffff1602179055506101808201518160030160006101000a81548160ff021916908360ff1602179055505050600b805490509050612a33818f8f613531565b9d9c50505050505050505050505050565b600073ffffffffffffffffffffffffffffffffffffffff168273ffffffffffffffffffffffffffffffffffffffff161415612ab4576040517f08c379a0000000000000000000000000000000000000000000000000000000008152600401612aab90615086565b60405180910390fd5b612abd81612655565b15612afd576040517f08c379a0000000000000000000000000000000000000000000000000000000008152600401612af490614fa6565b60405180910390fd5b612b0960008383613595565b6001600360008473ffffffffffffffffffffffffffffffffffffffff1673ffffffffffffffffffffffffffffffffffffffff1681526020019081526020016000206000828254612b5991906153e0565b92505081905550816002600083815260200190815260200160002060006101000a81548173ffffffffffffffffffffffffffffffffffffffff021916908373ffffffffffffffffffffffffffffffffffffffff160217905550808273ffffffffffffffffffffffffffffffffffffffff16600073ffffffffffffffffffffffffffffffffffffffff167fddf252ad1be2c89b69c2b068fc378daa952ba7f163c4a11628f55a4df523b3ef60405160405180910390a45050565b6000612c1d82612655565b612c5c576040517f08c379a0000000000000000000000000000000000000000000000000000000008152600401612c53906150a6565b60405180910390fd5b6000612c6783611122565b90508073ffffffffffffffffffffffffffffffffffffffff168473ffffffffffffffffffffffffffffffffffffffff161480612cd657508373ffffffffffffffffffffffffffffffffffffffff16612cbe8461086b565b73ffffffffffffffffffffffffffffffffffffffff16145b80612ce75750612ce68185612321565b5b91505092915050565b8273ffffffffffffffffffffffffffffffffffffffff16612d1082611122565b73ffffffffffffffffffffffffffffffffffffffff1614612d66576040517f08c379a0000000000000000000000000000000000000000000000000000000008152600401612d5d90615186565b60405180910390fd5b600073ffffffffffffffffffffffffffffffffffffffff168273ffffffffffffffffffffffffffffffffffffffff161415612dd6576040517f08c379a0000000000000000000000000000000000000000000000000000000008152600401612dcd90615086565b60405180910390fd5b612de1838383613595565b612dec6000826126c9565b6001600360008573ffffffffffffffffffffffffffffffffffffffff1673ffffffffffffffffffffffffffffffffffffffff1681526020019081526020016000206000828254612e3c91906154c1565b925050819055506001600360008473ffffffffffffffffffffffffffffffffffffffff1673ffffffffffffffffffffffffffffffffffffffff1681526020019081526020016000206000828254612e9391906153e0565b92505081905550816002600083815260200190815260200160002060006101000a81548173ffffffffffffffffffffffffffffffffffffffff021916908373ffffffffffffffffffffffffffffffffffffffff160217905550808273ffffffffffffffffffffffffffffffffffffffff168473ffffffffffffffffffffffffffffffffffffffff167fddf252ad1be2c89b69c2b068fc378daa952ba7f163c4a11628f55a4df523b3ef60405160405180910390a4505050565b6000601360009054906101000a900473ffffffffffffffffffffffffffffffffffffffff1673ffffffffffffffffffffffffffffffffffffffff16631ebe57ea836040518263ffffffff1660e01b8152600401612fa99190614f62565b60206040518083038186803b158015612fc157600080fd5b505afa158015612fd5573d6000803e3d6000fd5b505050506040513d601f19601f82011682018060405250810190612ff99190614821565b90506000600d60009054906101000a900460ff1660ff168260ff16149050801561305a5761304b601160009054906101000a900473ffffffffffffffffffffffffffffffffffffffff16868686611ad8565b61305584846136a9565b613153565b600015156010600086815260200190815260200160002060009054906101000a900460ff1615151415613100576000613092846137ad565b905080600e60008781526020019081526020016000208190555084600f60008381526020019081526020016000208190555060016010600087815260200190815260200160002060006101000a81548160ff0219169083151502179055506130fa8682612a44565b50613152565b6000600e6000868152602001908152602001600020549050613146601160009054906101000a900473ffffffffffffffffffffffffffffffffffffffff16878387611ad8565b61315081856136a9565b505b5b5050505050565b613165848484612cf0565b613171848484846138ba565b6131b0576040517f08c379a00000000000000000000000000000000000000000000000000000000081526004016131a7906151e6565b60405180910390fd5b50505050565b6000600f6000838152602001908152602001600020549050919050565b606060405180602001604052806000815250905090565b60606000821415613232576040518060400160405280600181526020017f30000000000000000000000000000000000000000000000000000000000000008152509050613392565b600082905060005b6000821461326457808061324d90615657565b915050600a8261325d9190615436565b915061323a565b60008167ffffffffffffffff8111156132a6577f4e487b7100000000000000000000000000000000000000000000000000000000600052604160045260246000fd5b6040519080825280601f01601f1916602001820160405280156132d85781602001600182028036833780820191505090505b5090505b6000851461338b576001826132f191906154c1565b9150600a8561330091906156a0565b603061330c91906153e0565b60f81b818381518110613348577f4e487b7100000000000000000000000000000000000000000000000000000000600052603260045260246000fd5b60200101907effffffffffffffffffffffffffffffffffffffffffffffffffffffffffffff1916908160001a905350600a856133849190615436565b94506132dc565b8093505050505b919050565b600073ffffffffffffffffffffffffffffffffffffffff168173ffffffffffffffffffffffffffffffffffffffff161415613407576040517f08c379a00000000000000000000000000000000000000000000000000000000081526004016133fe90614fc6565b60405180910390fd5b8073ffffffffffffffffffffffffffffffffffffffff16600a60009054906101000a900473ffffffffffffffffffffffffffffffffffffffff1673ffffffffffffffffffffffffffffffffffffffff167f8be0079c531659141344cd1fd0a4f28419497f9722a3daafe3b4186f6b6457e060405160405180910390a380600a60006101000a81548173ffffffffffffffffffffffffffffffffffffffff021916908373ffffffffffffffffffffffffffffffffffffffff16021790555050565b60007f01ffc9a7000000000000000000000000000000000000000000000000000000007bffffffffffffffffffffffffffffffffffffffffffffffffffffffff1916827bffffffffffffffffffffffffffffffffffffffffffffffffffffffff1916149050919050565b6000600b848154811061356d577f4e487b7100000000000000000000000000000000000000000000000000000000600052603260045260246000fd5b9060005260206000209060040201905082816000018190555081816001018190555050505050565b6135a0838383613a51565b600073ffffffffffffffffffffffffffffffffffffffff168373ffffffffffffffffffffffffffffffffffffffff1614156135e3576135de81613a56565b613622565b8173ffffffffffffffffffffffffffffffffffffffff168373ffffffffffffffffffffffffffffffffffffffff1614613621576136208382613a9f565b5b5b600073ffffffffffffffffffffffffffffffffffffffff168273ffffffffffffffffffffffffffffffffffffffff1614156136655761366081613c0c565b6136a4565b8273ffffffffffffffffffffffffffffffffffffffff168273ffffffffffffffffffffffffffffffffffffffff16146136a3576136a28282613d4f565b5b5b505050565b6000601360009054906101000a900473ffffffffffffffffffffffffffffffffffffffff1673ffffffffffffffffffffffffffffffffffffffff1663459efab6836040518263ffffffff1660e01b81526004016137069190614f62565b6101a06040518083038186803b15801561371f57600080fd5b505afa158015613733573d6000803e3d6000fd5b505050506040513d601f19601f820116820180604052508101906137579190614727565b90506137a883826000015183602001518460400151856060015186608001518760a001518860c001518960e001518a61010001518b61012001518c61014001518d61016001518e6101800151613dce565b505050565b600080601360009054906101000a900473ffffffffffffffffffffffffffffffffffffffff1673ffffffffffffffffffffffffffffffffffffffff1663459efab6846040518263ffffffff1660e01b815260040161380b9190614f62565b6101a06040518083038186803b15801561382457600080fd5b505afa158015613838573d6000803e3d6000fd5b505050506040513d601f19601f8201168201806040525081019061385c9190614727565b905060006138ae826000015183602001518460400151856060015186608001518760a001518860c001518960e001518a61010001518b61012001518c61014001518d61016001518e61018001516127ac565b90508092505050919050565b60006138db8473ffffffffffffffffffffffffffffffffffffffff16613fa8565b15613a44578373ffffffffffffffffffffffffffffffffffffffff1663150b7a026139046126c1565b8786866040518563ffffffff1660e01b81526004016139269493929190614e40565b602060405180830381600087803b15801561394057600080fd5b505af192505050801561397157506040513d601f19601f8201168201806040525081019061396e9190614642565b60015b6139f4573d80600081146139a1576040519150601f19603f3d011682016040523d82523d6000602084013e6139a6565b606091505b506000815114156139ec576040517f08c379a00000000000000000000000000000000000000000000000000000000081526004016139e3906151e6565b60405180910390fd5b805181602001fd5b63150b7a0260e01b7bffffffffffffffffffffffffffffffffffffffffffffffffffffffff1916817bffffffffffffffffffffffffffffffffffffffffffffffffffffffff191614915050613a49565b600190505b949350505050565b505050565b6008805490506009600083815260200190815260200160002081905550600881908060018154018082558091505060019003906000526020600020016000909190919091505550565b60006001613aac846112e4565b613ab691906154c1565b9050600060076000848152602001908152602001600020549050818114613b9b576000600660008673ffffffffffffffffffffffffffffffffffffffff1673ffffffffffffffffffffffffffffffffffffffff168152602001908152602001600020600084815260200190815260200160002054905080600660008773ffffffffffffffffffffffffffffffffffffffff1673ffffffffffffffffffffffffffffffffffffffff168152602001908152602001600020600084815260200190815260200160002081905550816007600083815260200190815260200160002081905550505b6007600084815260200190815260200160002060009055600660008573ffffffffffffffffffffffffffffffffffffffff1673ffffffffffffffffffffffffffffffffffffffff16815260200190815260200160002060008381526020019081526020016000206000905550505050565b60006001600880549050613c2091906154c1565b9050600060096000848152602001908152602001600020549050600060088381548110613c76577f4e487b7100000000000000000000000000000000000000000000000000000000600052603260045260246000fd5b906000526020600020015490508060088381548110613cbe577f4e487b7100000000000000000000000000000000000000000000000000000000600052603260045260246000fd5b906000526020600020018190555081600960008381526020019081526020016000208190555060096000858152602001908152602001600020600090556008805480613d33577f4e487b7100000000000000000000000000000000000000000000000000000000600052603160045260246000fd5b6001900381819060005260206000200160009055905550505050565b6000613d5a836112e4565b905081600660008573ffffffffffffffffffffffffffffffffffffffff1673ffffffffffffffffffffffffffffffffffffffff168152602001908152602001600020600083815260200190815260200160002081905550806007600084815260200190815260200160002081905550505050565b6000600b8f81548110613e0a577f4e487b7100000000000000000000000000000000000000000000000000000000600052603260045260246000fd5b906000526020600020906004020190508d81600001819055508c81600101819055508b8160020160006101000a81548167ffffffffffffffff021916908367ffffffffffffffff1602179055508a8160020160086101000a81548163ffffffff021916908363ffffffff1602179055508981600201600c6101000a81548163ffffffff021916908363ffffffff160217905550888160020160106101000a81548163ffffffff021916908363ffffffff160217905550878160020160146101000a81548161ffff021916908361ffff160217905550868160020160166101000a81548161ffff021916908361ffff160217905550858160020160186101000a81548161ffff021916908361ffff1602179055508481600201601a6101000a81548161ffff021916908361ffff1602179055508381600201601c6101000a81548161ffff021916908361ffff1602179055508281600201601e6101000a81548161ffff021916908361ffff160217905550818160030160006101000a81548160ff021916908360ff160217905550505050505050505050505050505050565b600080823b905060008111915050919050565b6000613fce613fc984615302565b6152dd565b905082815260208101848484011115613fe657600080fd5b613ff18482856155b2565b509392505050565b600061400c61400784615302565b6152dd565b90508281526020810184848401111561402457600080fd5b61402f8482856155c1565b509392505050565b600061404a61404584615333565b6152dd565b90508281526020810184848401111561406257600080fd5b61406d8482856155b2565b509392505050565b60008135905061408481615afb565b92915050565b60008135905061409981615b12565b92915050565b6000815190506140ae81615b29565b92915050565b6000813590506140c381615b40565b92915050565b6000815190506140d881615b40565b92915050565b600082601f8301126140ef57600080fd5b81356140ff848260208601613fbb565b91505092915050565b600082601f83011261411957600080fd5b8151614129848260208601613ff9565b91505092915050565b60008083601f84011261414457600080fd5b8235905067ffffffffffffffff81111561415d57600080fd5b60208301915083600182028301111561417557600080fd5b9250929050565b600082601f83011261418d57600080fd5b813561419d848260208601614037565b91505092915050565b60006101a082840312156141b957600080fd5b6141c46101a06152dd565b905060006141d48482850161409f565b60008301525060206141e88482850161409f565b60208301525060406141fc84828501614343565b604083015250606061421084828501614319565b606083015250608061422484828501614319565b60808301525060a061423884828501614319565b60a08301525060c061424c848285016142da565b60c08301525060e0614260848285016142da565b60e083015250610100614275848285016142da565b6101008301525061012061428b848285016142da565b610120830152506101406142a1848285016142da565b610140830152506101606142b7848285016142da565b610160830152506101806142cd84828501614358565b6101808301525092915050565b6000815190506142e981615b57565b92915050565b6000813590506142fe81615b6e565b92915050565b60008135905061431381615b85565b92915050565b60008151905061432881615b85565b92915050565b60008135905061433d81615b9c565b92915050565b60008151905061435281615b9c565b92915050565b60008151905061436781615bb3565b92915050565b60006020828403121561437f57600080fd5b600061438d84828501614075565b91505092915050565b600080604083850312156143a957600080fd5b60006143b785828601614075565b92505060206143c885828601614075565b9150509250929050565b6000806000606084860312156143e757600080fd5b60006143f586828701614075565b935050602061440686828701614075565b9250506040614417868287016142ef565b9150509250925092565b6000806000806080858703121561443757600080fd5b600061444587828801614075565b945050602061445687828801614075565b9350506040614467878288016142ef565b925050606085013567ffffffffffffffff81111561448457600080fd5b614490878288016140de565b91505092959194509250565b600080604083850312156144af57600080fd5b60006144bd85828601614075565b92505060206144ce8582860161408a565b9150509250929050565b600080604083850312156144eb57600080fd5b60006144f985828601614075565b925050602061450a858286016142ef565b9150509250929050565b60008060006060848603121561452957600080fd5b600061453786828701614075565b9350506020614548868287016142ef565b925050604084013567ffffffffffffffff81111561456557600080fd5b614571868287016140de565b9150509250925092565b600080600080600080600060e0888a03121561459657600080fd5b60006145a48a828b0161409f565b97505060206145b58a828b016142da565b96505060406145c68a828b016142da565b95505060606145d78a828b016142da565b94505060806145e88a828b016142da565b93505060a06145f98a828b016142da565b92505060c061460a8a828b016142da565b91505092959891949750929550565b60006020828403121561462b57600080fd5b6000614639848285016140b4565b91505092915050565b60006020828403121561465457600080fd5b6000614662848285016140c9565b91505092915050565b60006020828403121561467d57600080fd5b600082015167ffffffffffffffff81111561469757600080fd5b6146a384828501614108565b91505092915050565b600080600080608085870312156146c257600080fd5b600085013567ffffffffffffffff8111156146dc57600080fd5b6146e88782880161417c565b94505060206146f98782880161432e565b935050604061470a87828801614304565b925050606061471b87828801614304565b91505092959194509250565b60006101a0828403121561473a57600080fd5b6000614748848285016141a6565b91505092915050565b60008060006060848603121561476657600080fd5b6000614774868287016142da565b9350506020614785868287016142da565b9250506040614796868287016142da565b9150509250925092565b6000602082840312156147b257600080fd5b60006147c0848285016142ef565b91505092915050565b6000806000604084860312156147de57600080fd5b60006147ec868287016142ef565b935050602084013567ffffffffffffffff81111561480957600080fd5b61481586828701614132565b92509250509250925092565b60006020828403121561483357600080fd5b600061484184828501614358565b91505092915050565b60006148568383614da7565b60208301905092915050565b61486b816154f5565b82525050565b600061487c82615374565b61488681856153a2565b935061489183615364565b8060005b838110156148c25781516148a9888261484a565b97506148b483615395565b925050600181019050614895565b5085935050505092915050565b6148d881615507565b82525050565b6148e781615513565b82525050565b6148f681615513565b82525050565b60006149078261537f565b61491181856153b3565b93506149218185602086016155c1565b61492a8161578d565b840191505092915050565b60006149408261538a565b61494a81856153c4565b935061495a8185602086016155c1565b6149638161578d565b840191505092915050565b60006149798261538a565b61498381856153d5565b93506149938185602086016155c1565b80840191505092915050565b60006149ac600e836153c4565b91506149b78261579e565b602082019050919050565b60006149cf600f836153c4565b91506149da826157c7565b602082019050919050565b60006149f26014836153c4565b91506149fd826157f0565b602082019050919050565b6000614a15600d836153c4565b9150614a2082615819565b602082019050919050565b6000614a38600c836153c4565b9150614a4382615842565b602082019050919050565b6000614a5b600a836153c4565b9150614a668261586b565b602082019050919050565b6000614a7e6011836153c4565b9150614a8982615894565b602082019050919050565b6000614aa1600c836153c4565b9150614aac826158bd565b602082019050919050565b6000614ac46011836153c4565b9150614acf826158e6565b602082019050919050565b6000614ae76011836153c4565b9150614af28261590f565b602082019050919050565b6000614b0a6016836153c4565b9150614b1582615938565b602082019050919050565b6000614b2d600a836153c4565b9150614b3882615961565b602082019050919050565b6000614b506010836153c4565b9150614b5b8261598a565b602082019050919050565b6000614b736012836153c4565b9150614b7e826159b3565b602082019050919050565b6000614b96600e836153c4565b9150614ba1826159dc565b602082019050919050565b6000614bb96007836153c4565b9150614bc482615a05565b602082019050919050565b6000614bdc6009836153c4565b9150614be782615a2e565b602082019050919050565b6000614bff6012836153c4565b9150614c0a82615a57565b602082019050919050565b6000614c22601e836153c4565b9150614c2d82615a80565b602082019050919050565b6000614c456013836153c4565b9150614c5082615aa9565b602082019050919050565b6000614c686014836153c4565b9150614c7382615ad2565b602082019050919050565b6101a082016000820151614c9560008501826148de565b506020820151614ca860208501826148de565b506040820151614cbb6040850182614de3565b506060820151614cce6060850182614dc5565b506080820151614ce16080850182614dc5565b5060a0820151614cf460a0850182614dc5565b5060c0820151614d0760c0850182614d89565b5060e0820151614d1a60e0850182614d89565b50610100820151614d2f610100850182614d89565b50610120820151614d44610120850182614d89565b50610140820151614d59610140850182614d89565b50610160820151614d6e610160850182614d89565b50610180820151614d83610180850182614df2565b50505050565b614d9281615549565b82525050565b614da181615549565b82525050565b614db081615577565b82525050565b614dbf81615577565b82525050565b614dce81615581565b82525050565b614ddd81615581565b82525050565b614dec81615591565b82525050565b614dfb816155a5565b82525050565b6000614e0d828561496e565b9150614e19828461496e565b91508190509392505050565b6000602082019050614e3a6000830184614862565b92915050565b6000608082019050614e556000830187614862565b614e626020830186614862565b614e6f6040830185614db6565b8181036060830152614e8181846148fc565b905095945050505050565b60006020820190508181036000830152614ea68184614871565b905092915050565b6000602082019050614ec360008301846148cf565b92915050565b6000602082019050614ede60008301846148ed565b92915050565b600061010082019050614efa600083018b6148ed565b614f07602083018a614dd4565b614f146040830189614dd4565b614f216060830188614dd4565b614f2e6080830187614d98565b614f3b60a0830186614d98565b614f4860c0830185614d98565b614f5560e0830184614d98565b9998505050505050505050565b60006020820190508181036000830152614f7c81846148fc565b905092915050565b60006020820190508181036000830152614f9e8184614935565b905092915050565b60006020820190508181036000830152614fbf8161499f565b9050919050565b60006020820190508181036000830152614fdf816149c2565b9050919050565b60006020820190508181036000830152614fff816149e5565b9050919050565b6000602082019050818103600083015261501f81614a08565b9050919050565b6000602082019050818103600083015261503f81614a2b565b9050919050565b6000602082019050818103600083015261505f81614a4e565b9050919050565b6000602082019050818103600083015261507f81614a71565b9050919050565b6000602082019050818103600083015261509f81614a94565b9050919050565b600060208201905081810360008301526150bf81614ab7565b9050919050565b600060208201905081810360008301526150df81614ada565b9050919050565b600060208201905081810360008301526150ff81614afd565b9050919050565b6000602082019050818103600083015261511f81614b20565b9050919050565b6000602082019050818103600083015261513f81614b43565b9050919050565b6000602082019050818103600083015261515f81614b66565b9050919050565b6000602082019050818103600083015261517f81614b89565b9050919050565b6000602082019050818103600083015261519f81614bac565b9050919050565b600060208201905081810360008301526151bf81614bcf565b9050919050565b600060208201905081810360008301526151df81614bf2565b9050919050565b600060208201905081810360008301526151ff81614c15565b9050919050565b6000602082019050818103600083015261521f81614c38565b9050919050565b6000602082019050818103600083015261523f81614c5b565b9050919050565b60006101a08201905061525c6000830184614c7e565b92915050565b60006060820190506152776000830186614d98565b6152846020830185614d98565b6152916040830184614d98565b949350505050565b60006020820190506152ae6000830184614db6565b92915050565b60006040820190506152c96000830185614db6565b6152d66020830184614db6565b9392505050565b60006152e76152f8565b90506152f38282615626565b919050565b6000604051905090565b600067ffffffffffffffff82111561531d5761531c61575e565b5b6153268261578d565b9050602081019050919050565b600067ffffffffffffffff82111561534e5761534d61575e565b5b6153578261578d565b9050602081019050919050565b6000819050602082019050919050565b600081519050919050565b600081519050919050565b600081519050919050565b6000602082019050919050565b600082825260208201905092915050565b600082825260208201905092915050565b600082825260208201905092915050565b600081905092915050565b60006153eb82615577565b91506153f683615577565b9250827fffffffffffffffffffffffffffffffffffffffffffffffffffffffffffffffff0382111561542b5761542a6156d1565b5b828201905092915050565b600061544182615577565b915061544c83615577565b92508261545c5761545b615700565b5b828204905092915050565b600061547282615577565b915061547d83615577565b9250817fffffffffffffffffffffffffffffffffffffffffffffffffffffffffffffffff04831182151516156154b6576154b56156d1565b5b828202905092915050565b60006154cc82615577565b91506154d783615577565b9250828210156154ea576154e96156d1565b5b828203905092915050565b600061550082615557565b9050919050565b60008115159050919050565b6000819050919050565b60007fffffffff0000000000000000000000000000000000000000000000000000000082169050919050565b600061ffff82169050919050565b600073ffffffffffffffffffffffffffffffffffffffff82169050919050565b6000819050919050565b600063ffffffff82169050919050565b600067ffffffffffffffff82169050919050565b600060ff82169050919050565b82818337600083830152505050565b60005b838110156155df5780820151818401526020810190506155c4565b838111156155ee576000848401525b50505050565b6000600282049050600182168061560c57607f821691505b602082108114156156205761561f61572f565b5b50919050565b61562f8261578d565b810181811067ffffffffffffffff8211171561564e5761564d61575e565b5b80604052505050565b600061566282615577565b91507fffffffffffffffffffffffffffffffffffffffffffffffffffffffffffffffff821415615695576156946156d1565b5b600182019050919050565b60006156ab82615577565b91506156b683615577565b9250826156c6576156c5615700565b5b828206905092915050565b7f4e487b7100000000000000000000000000000000000000000000000000000000600052601160045260246000fd5b7f4e487b7100000000000000000000000000000000000000000000000000000000600052601260045260246000fd5b7f4e487b7100000000000000000000000000000000000000000000000000000000600052602260045260246000fd5b7f4e487b7100000000000000000000000000000000000000000000000000000000600052604160045260246000fd5b6000601f19601f8301169050919050565b7f416c7265616479206d696e746564000000000000000000000000000000000000600082015250565b7f496e76616c696420616464726573730000000000000000000000000000000000600082015250565b7f496e76616c696420676174657761792061646472000000000000000000000000600082015250565b7f43757272656e74206f776e657200000000000000000000000000000000000000600082015250565b7f496e76616c696420616464720000000000000000000000000000000000000000600082015250565b7f456d707479206e616d6500000000000000000000000000000000000000000000600082015250565b7f417070726f766520746f2063616c6c6572000000000000000000000000000000600082015250565b7f5a65726f20616464726573730000000000000000000000000000000000000000600082015250565b7f4e6f6e6578697374656e7420746f6b656e000000000000000000000000000000600082015250565b7f6e6f6e6578697374656e7420746f6b656e000000000000000000000000000000600082015250565b7f4e6f74206f776e6572206e6f7220617070726f76656400000000000000000000600082015250565b7f4e6f74206d617070656400000000000000000000000000000000000000000000600082015250565b7f496e76616c696420746f6b656e20496400000000000000000000000000000000600082015250565b7f496e76616c6964206f776e657220616464720000000000000000000000000000600082015250565b7f416c7265616479206d6170706564000000000000000000000000000000000000600082015250565b7f4e6f74206f776e00000000000000000000000000000000000000000000000000600082015250565b7f4e6f74206f776e65720000000000000000000000000000000000000000000000600082015250565b7f496e76616c6964207065726d697373696f6e0000000000000000000000000000600082015250565b7f4e6f6e20455243373231526563656976657220696d706c656d656e7465720000600082015250565b7f496e646578206f7574206f6620626f756e647300000000000000000000000000600082015250565b7f496e76616c6964206d61696e6e65742061646472000000000000000000000000600082015250565b615b04816154f5565b8114615b0f57600080fd5b50565b615b1b81615507565b8114615b2657600080fd5b50565b615b3281615513565b8114615b3d57600080fd5b50565b615b498161551d565b8114615b5457600080fd5b50565b615b6081615549565b8114615b6b57600080fd5b50565b615b7781615577565b8114615b8257600080fd5b50565b615b8e81615581565b8114615b9957600080fd5b50565b615ba581615591565b8114615bb057600080fd5b50565b615bbc816155a5565b8114615bc757600080fd5b5056fea2646970667358221220cdbce9354f7bf2a59971fe795f2c1b185500def1b56948cb98a66c4b15c3c3f164736f6c63430008040033",
  "immutableReferences": {},
  "source": "// SPDX-License-Identifier: GPL-3.0 License\n\npragma solidity ^0.8.0;\n\nimport '../common/DragonFactory.sol';\nimport '../common/libraries/DragonLibrary.sol';\n\ninterface IDappchainGateway {\n\tfunction depositDragon(\n\t\taddress from,\n\t\taddress to,\n\t\tuint256 uid,\n\t\tbytes calldata data\n\t) external;\n}\n\ncontract DappchainTransferableDragon is DragonFactory {\n\t// map sidechain address to mainchain address\n\tmapping(address => address) private _sidechainAddressToMainchain;\n\n\tconstructor(\n\t\taddress gateway,\n\t\taddress dragonDecoder,\n\t\tuint8 blockchainId\n\t) DragonFactory(gateway, dragonDecoder, blockchainId) {}\n\n\t// Setter to update who the gateway is\n\tfunction setGatewayAddress(address gateway) external onlyOwner {\n\t\t//TODO check address is a gateway\n\t\trequire(gateway != address(0), 'Invalid gateway addr');\n\t\t_gateway = gateway;\n\t}\n\n\t// Used by the DAppChain Gateway to mint tokens that have been deposited to the Ethereum Gateway\n\tfunction retrieveToken(\n\t\taddress receiver,\n\t\tuint256 _tokenId,\n\t\tbytes memory _data\n\t) public {\n\t\trequire(msg.sender == _gateway, 'Invalid permission');\n\t\trequire(receiver != address(0), 'Invalid addr');\n\t\t_mintReceivedDragon(receiver, _tokenId, _data);\n\t}\n\n\tfunction undoMapping(address owner, address mainnetAddress) external onlyOwner {\n\t\trequire(owner != address(0), 'Invalid owner addr');\n\t\trequire(mainnetAddress != address(0), 'Invalid mainnet addr');\n\t\t_sidechainAddressToMainchain[owner] = mainnetAddress;\n\t}\n\n\tfunction mapContractToMainnet(address mainnetAddress) external {\n\t\trequire(mainnetAddress != address(0), 'Invalid mainnet addr');\n\t\trequire(\n\t\t\t_sidechainAddressToMainchain[msg.sender] == address(0),\n\t\t\t'Already mapped'\n\t\t);\n\t\t_sidechainAddressToMainchain[msg.sender] = mainnetAddress;\n\t}\n\n\tfunction isMap(address mainnetAddress) external view returns (bool) {\n\t\trequire(mainnetAddress != address(0), 'Invalid mainnet addr');\n\t\treturn _sidechainAddressToMainchain[msg.sender] == mainnetAddress;\n\t}\n\n\tfunction transferToGateway(uint256 _tokenId) public onlyDragonOwner(_tokenId) {\n\t\trequire(\n\t\t\t_sidechainAddressToMainchain[msg.sender] != address(0),\n\t\t\t'Not mapped'\n\t\t);\n\t\trequire(_tokenId < dragons.length, 'Invalid token Id');\n\n\t\tDragonLibrary.Dragon memory dragon = dragons[_tokenId];\n\t\tbytes memory encodedDragon = IDragonSerializer(_dragonDecoderAddress).encodeDragonToBytes(dragon);\n\n\t\t// Transfer ownership\n\t\ttransferFrom(msg.sender, _gateway, _tokenId);\n\n\t\t// Trigger trnsference in gateway\n\t\tIDappchainGateway gateway = IDappchainGateway(_gateway);\n\t\tuint256 originalTokenId = dragon.blockchainOriginId == _blockchainId ? _tokenId : _getForeignTokenId(_tokenId);\n\t\tgateway.depositDragon(msg.sender, _sidechainAddressToMainchain[msg.sender], originalTokenId, encodedDragon);\n\t}\n}\n",
  "sourcePath": "/usr/src/app/contractGetter/contracts/dappchain/DappchainTransferableDragon.sol",
  "compiler": {
    "name": "solc",
    "version": "0.8.4+commit.c7e474f2.Emscripten.clang"
  },
  "schemaVersion": "3.4.1",
  "updatedAt": "2021-07-20T15:15:08.684Z",
  "networkType": "ethereum",
  "devdoc": {
    "kind": "dev",
    "methods": {
      "approve(address,uint256)": {
        "details": "See {IERC721-approve}."
      },
      "balanceOf(address)": {
        "details": "See {IERC721-balanceOf}."
      },
      "getApproved(uint256)": {
        "details": "See {IERC721-getApproved}."
      },
      "isApprovedForAll(address,address)": {
        "details": "See {IERC721-isApprovedForAll}."
      },
      "isOwner()": {
        "returns": {
          "_0": "true if `msg.sender` is the owner of the contract."
        }
      },
      "name()": {
        "details": "See {IERC721Metadata-name}."
      },
      "owner()": {
        "returns": {
          "_0": "the address of the owner."
        }
      },
      "ownerOf(uint256)": {
        "details": "See {IERC721-ownerOf}."
      },
      "renounceOwnership()": {
        "details": "Allows the current owner to relinquish control of the contract."
      },
      "safeTransferFrom(address,address,uint256)": {
        "details": "See {IERC721-safeTransferFrom}."
      },
      "safeTransferFrom(address,address,uint256,bytes)": {
        "details": "See {IERC721-safeTransferFrom}."
      },
      "setApprovalForAll(address,bool)": {
        "details": "See {IERC721-setApprovalForAll}."
      },
      "supportsInterface(bytes4)": {
        "details": "See {IERC165-supportsInterface}."
      },
      "symbol()": {
        "details": "See {IERC721Metadata-symbol}."
      },
      "tokenByIndex(uint256)": {
        "details": "See {IERC721Enumerable-tokenByIndex}."
      },
      "tokenOfOwnerByIndex(address,uint256)": {
        "details": "See {IERC721Enumerable-tokenOfOwnerByIndex}."
      },
      "tokenURI(uint256)": {
        "details": "See {IERC721Metadata-tokenURI}."
      },
      "totalSupply()": {
        "details": "See {IERC721Enumerable-totalSupply}."
      },
      "transferFrom(address,address,uint256)": {
        "details": "See {IERC721-transferFrom}."
      },
      "transferOwnership(address)": {
        "details": "Allows the current owner to transfer control of the contract to a newOwner.",
        "params": {
          "newOwner": "The address to transfer ownership to."
        }
      }
    },
    "version": 1
  },
  "userdoc": {
    "kind": "user",
    "methods": {
      "createDragon(string,uint64,uint32,uint32)": {
        "notice": "Creates new Dragon and give it to its creator."
      },
      "renounceOwnership()": {
        "notice": "Renouncing to ownership will leave the contract without an owner. It will not be possible to call the functions with the `onlyOwner` modifier anymore."
      }
    },
    "version": 1
  }
}