{
  "contractName": "DappchainTransferableDragon",
  "abi": [
    {
      "inputs": [
        {
          "internalType": "address",
          "name": "gateway",
          "type": "address"
        },
        {
          "internalType": "address",
          "name": "dragonDecoder",
          "type": "address"
        },
        {
          "internalType": "uint8",
          "name": "blockchainId",
          "type": "uint8"
        }
      ],
      "stateMutability": "nonpayable",
      "type": "constructor"
    },
    {
      "anonymous": false,
      "inputs": [
        {
          "indexed": true,
          "internalType": "address",
          "name": "owner",
          "type": "address"
        },
        {
          "indexed": true,
          "internalType": "address",
          "name": "approved",
          "type": "address"
        },
        {
          "indexed": true,
          "internalType": "uint256",
          "name": "tokenId",
          "type": "uint256"
        }
      ],
      "name": "Approval",
      "type": "event"
    },
    {
      "anonymous": false,
      "inputs": [
        {
          "indexed": true,
          "internalType": "address",
          "name": "owner",
          "type": "address"
        },
        {
          "indexed": true,
          "internalType": "address",
          "name": "operator",
          "type": "address"
        },
        {
          "indexed": false,
          "internalType": "bool",
          "name": "approved",
          "type": "bool"
        }
      ],
      "name": "ApprovalForAll",
      "type": "event"
    },
    {
      "anonymous": false,
      "inputs": [
        {
          "indexed": false,
          "internalType": "uint256",
          "name": "dragonId",
          "type": "uint256"
        },
        {
          "indexed": false,
          "internalType": "uint256",
          "name": "genes",
          "type": "uint256"
        }
      ],
      "name": "NewDragon",
      "type": "event"
    },
    {
      "anonymous": false,
      "inputs": [
        {
          "indexed": true,
          "internalType": "address",
          "name": "previousOwner",
          "type": "address"
        },
        {
          "indexed": true,
          "internalType": "address",
          "name": "newOwner",
          "type": "address"
        }
      ],
      "name": "OwnershipTransferred",
      "type": "event"
    },
    {
      "anonymous": false,
      "inputs": [
        {
          "indexed": true,
          "internalType": "address",
          "name": "from",
          "type": "address"
        },
        {
          "indexed": true,
          "internalType": "address",
          "name": "to",
          "type": "address"
        },
        {
          "indexed": true,
          "internalType": "uint256",
          "name": "tokenId",
          "type": "uint256"
        }
      ],
      "name": "Transfer",
      "type": "event"
    },
    {
      "inputs": [
        {
          "internalType": "address",
          "name": "to",
          "type": "address"
        },
        {
          "internalType": "uint256",
          "name": "tokenId",
          "type": "uint256"
        }
      ],
      "name": "approve",
      "outputs": [],
      "stateMutability": "nonpayable",
      "type": "function"
    },
    {
      "inputs": [
        {
          "internalType": "address",
          "name": "owner",
          "type": "address"
        }
      ],
      "name": "balanceOf",
      "outputs": [
        {
          "internalType": "uint256",
          "name": "",
          "type": "uint256"
        }
      ],
      "stateMutability": "view",
      "type": "function"
    },
    {
      "inputs": [
        {
          "internalType": "string",
          "name": "_name",
          "type": "string"
        },
        {
          "internalType": "uint64",
          "name": "_creationTime",
          "type": "uint64"
        },
        {
          "internalType": "uint32",
          "name": "_dadId",
          "type": "uint32"
        },
        {
          "internalType": "uint32",
          "name": "_motherId",
          "type": "uint32"
        }
      ],
      "name": "createDragon",
      "outputs": [],
      "stateMutability": "nonpayable",
      "type": "function"
    },
    {
      "inputs": [
        {
          "internalType": "uint256",
          "name": "",
          "type": "uint256"
        }
      ],
      "name": "dragonIndexToOwner",
      "outputs": [
        {
          "internalType": "address",
          "name": "",
          "type": "address"
        }
      ],
      "stateMutability": "view",
      "type": "function"
    },
    {
      "inputs": [
        {
          "internalType": "uint256",
          "name": "tokenId",
          "type": "uint256"
        }
      ],
      "name": "getApproved",
      "outputs": [
        {
          "internalType": "address",
          "name": "",
          "type": "address"
        }
      ],
      "stateMutability": "view",
      "type": "function"
    },
    {
      "inputs": [
        {
          "internalType": "uint256",
          "name": "_dragonId",
          "type": "uint256"
        }
      ],
      "name": "getDragonById",
      "outputs": [
        {
          "components": [
            {
              "internalType": "bytes32",
              "name": "genes",
              "type": "bytes32"
            },
            {
              "internalType": "bytes32",
              "name": "name",
              "type": "bytes32"
            },
            {
              "internalType": "uint64",
              "name": "creationTime",
              "type": "uint64"
            },
            {
              "internalType": "uint32",
              "name": "dadId",
              "type": "uint32"
            },
            {
              "internalType": "uint32",
              "name": "motherId",
              "type": "uint32"
            },
            {
              "internalType": "uint32",
              "name": "currentExperience",
              "type": "uint32"
            },
            {
              "internalType": "uint16",
              "name": "actionCooldown",
              "type": "uint16"
            },
            {
              "internalType": "uint16",
              "name": "health",
              "type": "uint16"
            },
            {
              "internalType": "uint16",
              "name": "strength",
              "type": "uint16"
            },
            {
              "internalType": "uint16",
              "name": "agility",
              "type": "uint16"
            },
            {
              "internalType": "uint16",
              "name": "fortitude",
              "type": "uint16"
            },
            {
              "internalType": "uint16",
              "name": "hatchTime",
              "type": "uint16"
            },
            {
              "internalType": "uint8",
              "name": "blockchainOriginId",
              "type": "uint8"
            }
          ],
          "internalType": "struct DragonLibrary.Dragon",
          "name": "",
          "type": "tuple"
        }
      ],
      "stateMutability": "view",
      "type": "function"
    },
    {
      "inputs": [
        {
          "internalType": "address",
          "name": "owner",
          "type": "address"
        },
        {
          "internalType": "address",
          "name": "operator",
          "type": "address"
        }
      ],
      "name": "isApprovedForAll",
      "outputs": [
        {
          "internalType": "bool",
          "name": "",
          "type": "bool"
        }
      ],
      "stateMutability": "view",
      "type": "function"
    },
    {
      "inputs": [],
      "name": "isOwner",
      "outputs": [
        {
          "internalType": "bool",
          "name": "",
          "type": "bool"
        }
      ],
      "stateMutability": "view",
      "type": "function"
    },
    {
      "inputs": [],
      "name": "name",
      "outputs": [
        {
          "internalType": "string",
          "name": "",
          "type": "string"
        }
      ],
      "stateMutability": "view",
      "type": "function"
    },
    {
      "inputs": [],
      "name": "owner",
      "outputs": [
        {
          "internalType": "address",
          "name": "",
          "type": "address"
        }
      ],
      "stateMutability": "view",
      "type": "function"
    },
    {
      "inputs": [
        {
          "internalType": "uint256",
          "name": "tokenId",
          "type": "uint256"
        }
      ],
      "name": "ownerOf",
      "outputs": [
        {
          "internalType": "address",
          "name": "",
          "type": "address"
        }
      ],
      "stateMutability": "view",
      "type": "function"
    },
    {
      "inputs": [],
      "name": "renounceOwnership",
      "outputs": [],
      "stateMutability": "nonpayable",
      "type": "function"
    },
    {
      "inputs": [
        {
          "internalType": "address",
          "name": "from",
          "type": "address"
        },
        {
          "internalType": "address",
          "name": "to",
          "type": "address"
        },
        {
          "internalType": "uint256",
          "name": "tokenId",
          "type": "uint256"
        }
      ],
      "name": "safeTransferFrom",
      "outputs": [],
      "stateMutability": "nonpayable",
      "type": "function"
    },
    {
      "inputs": [
        {
          "internalType": "address",
          "name": "from",
          "type": "address"
        },
        {
          "internalType": "address",
          "name": "to",
          "type": "address"
        },
        {
          "internalType": "uint256",
          "name": "tokenId",
          "type": "uint256"
        },
        {
          "internalType": "bytes",
          "name": "_data",
          "type": "bytes"
        }
      ],
      "name": "safeTransferFrom",
      "outputs": [],
      "stateMutability": "nonpayable",
      "type": "function"
    },
    {
      "inputs": [
        {
          "internalType": "address",
          "name": "operator",
          "type": "address"
        },
        {
          "internalType": "bool",
          "name": "approved",
          "type": "bool"
        }
      ],
      "name": "setApprovalForAll",
      "outputs": [],
      "stateMutability": "nonpayable",
      "type": "function"
    },
    {
      "inputs": [
        {
          "internalType": "address",
          "name": "genesLaboratoryAddress",
          "type": "address"
        }
      ],
      "name": "setGenesLaboratoryAddress",
      "outputs": [],
      "stateMutability": "nonpayable",
      "type": "function"
    },
    {
      "inputs": [
        {
          "internalType": "uint256",
          "name": "_dragonId",
          "type": "uint256"
        },
        {
          "internalType": "string",
          "name": "_name",
          "type": "string"
        }
      ],
      "name": "setName",
      "outputs": [],
      "stateMutability": "nonpayable",
      "type": "function"
    },
    {
      "inputs": [
        {
          "internalType": "bytes4",
          "name": "interfaceId",
          "type": "bytes4"
        }
      ],
      "name": "supportsInterface",
      "outputs": [
        {
          "internalType": "bool",
          "name": "",
          "type": "bool"
        }
      ],
      "stateMutability": "view",
      "type": "function"
    },
    {
      "inputs": [],
      "name": "symbol",
      "outputs": [
        {
          "internalType": "string",
          "name": "",
          "type": "string"
        }
      ],
      "stateMutability": "view",
      "type": "function"
    },
    {
      "inputs": [
        {
          "internalType": "uint256",
          "name": "index",
          "type": "uint256"
        }
      ],
      "name": "tokenByIndex",
      "outputs": [
        {
          "internalType": "uint256",
          "name": "",
          "type": "uint256"
        }
      ],
      "stateMutability": "view",
      "type": "function"
    },
    {
      "inputs": [
        {
          "internalType": "address",
          "name": "owner",
          "type": "address"
        },
        {
          "internalType": "uint256",
          "name": "index",
          "type": "uint256"
        }
      ],
      "name": "tokenOfOwnerByIndex",
      "outputs": [
        {
          "internalType": "uint256",
          "name": "",
          "type": "uint256"
        }
      ],
      "stateMutability": "view",
      "type": "function"
    },
    {
      "inputs": [
        {
          "internalType": "uint256",
          "name": "tokenId",
          "type": "uint256"
        }
      ],
      "name": "tokenURI",
      "outputs": [
        {
          "internalType": "string",
          "name": "",
          "type": "string"
        }
      ],
      "stateMutability": "view",
      "type": "function"
    },
    {
      "inputs": [],
      "name": "totalSupply",
      "outputs": [
        {
          "internalType": "uint256",
          "name": "",
          "type": "uint256"
        }
      ],
      "stateMutability": "view",
      "type": "function"
    },
    {
      "inputs": [
        {
          "internalType": "address",
          "name": "from",
          "type": "address"
        },
        {
          "internalType": "address",
          "name": "to",
          "type": "address"
        },
        {
          "internalType": "uint256",
          "name": "tokenId",
          "type": "uint256"
        }
      ],
      "name": "transferFrom",
      "outputs": [],
      "stateMutability": "nonpayable",
      "type": "function"
    },
    {
      "inputs": [
        {
          "internalType": "address",
          "name": "newOwner",
          "type": "address"
        }
      ],
      "name": "transferOwnership",
      "outputs": [],
      "stateMutability": "nonpayable",
      "type": "function"
    },
    {
      "inputs": [
        {
          "internalType": "address",
          "name": "gateway",
          "type": "address"
        }
      ],
      "name": "setGatewayAddress",
      "outputs": [],
      "stateMutability": "nonpayable",
      "type": "function"
    },
    {
      "inputs": [
        {
          "internalType": "address",
          "name": "receiver",
          "type": "address"
        },
        {
          "internalType": "uint256",
          "name": "_tokenId",
          "type": "uint256"
        },
        {
          "internalType": "bytes",
          "name": "_data",
          "type": "bytes"
        }
      ],
      "name": "retrieveToken",
      "outputs": [],
      "stateMutability": "nonpayable",
      "type": "function"
    },
    {
      "inputs": [
        {
          "internalType": "address",
          "name": "owner",
          "type": "address"
        },
        {
          "internalType": "address",
          "name": "mainnetAddress",
          "type": "address"
        }
      ],
      "name": "undoMapping",
      "outputs": [],
      "stateMutability": "nonpayable",
      "type": "function"
    },
    {
      "inputs": [
        {
          "internalType": "address",
          "name": "mainnetAddress",
          "type": "address"
        }
      ],
      "name": "mapContractToMainnet",
      "outputs": [],
      "stateMutability": "nonpayable",
      "type": "function"
    },
    {
      "inputs": [
        {
          "internalType": "address",
          "name": "mainnetAddress",
          "type": "address"
        }
      ],
      "name": "isMap",
      "outputs": [
        {
          "internalType": "bool",
          "name": "",
          "type": "bool"
        }
      ],
      "stateMutability": "view",
      "type": "function"
    },
    {
      "inputs": [
        {
          "internalType": "uint256",
          "name": "_tokenId",
          "type": "uint256"
        }
      ],
      "name": "transferToGateway",
      "outputs": [],
      "stateMutability": "nonpayable",
      "type": "function"
    }
  ],
  "bytecode": "0x60806040526040518060400160405280600c81526020017f447261676f6e20546f6b656e000000000000000000000000000000000000000081525060009080519060200190620000519291906200033f565b506040518060400160405280600381526020017f4447540000000000000000000000000000000000000000000000000000000000815250600190805190602001906200009f9291906200033f565b506000600d60006101000a81548160ff021916908360ff160217905550348015620000c957600080fd5b5060405162005e6838038062005e688339818101604052810190620000ef91906200041d565b82828233600a60006101000a81548173ffffffffffffffffffffffffffffffffffffffff021916908373ffffffffffffffffffffffffffffffffffffffff160217905550600a60009054906101000a900473ffffffffffffffffffffffffffffffffffffffff1673ffffffffffffffffffffffffffffffffffffffff16600073ffffffffffffffffffffffffffffffffffffffff167f8be0079c531659141344cd1fd0a4f28419497f9722a3daafe3b4186f6b6457e060405160405180910390a3600073ffffffffffffffffffffffffffffffffffffffff168373ffffffffffffffffffffffffffffffffffffffff16141562000223576040517f08c379a00000000000000000000000000000000000000000000000000000000081526004016200021a90620004c1565b60405180910390fd5b600073ffffffffffffffffffffffffffffffffffffffff168273ffffffffffffffffffffffffffffffffffffffff16141562000296576040517f08c379a00000000000000000000000000000000000000000000000000000000081526004016200028d90620004e3565b60405180910390fd5b82601160006101000a81548173ffffffffffffffffffffffffffffffffffffffff021916908373ffffffffffffffffffffffffffffffffffffffff16021790555081601360006101000a81548173ffffffffffffffffffffffffffffffffffffffff021916908373ffffffffffffffffffffffffffffffffffffffff16021790555080600d60006101000a81548160ff021916908360ff16021790555050505050505062000642565b8280546200034d9062000557565b90600052602060002090601f016020900481019282620003715760008555620003bd565b82601f106200038c57805160ff1916838001178555620003bd565b82800160010185558215620003bd579182015b82811115620003bc5782518255916020019190600101906200039f565b5b509050620003cc9190620003d0565b5090565b5b80821115620003eb576000816000905550600101620003d1565b5090565b60008151905062000400816200060e565b92915050565b600081519050620004178162000628565b92915050565b6000806000606084860312156200043357600080fd5b60006200044386828701620003ef565b93505060206200045686828701620003ef565b9250506040620004698682870162000406565b9150509250925092565b60006200048260178362000505565b91506200048f82620005bc565b602082019050919050565b6000620004a960178362000505565b9150620004b682620005e5565b602082019050919050565b60006020820190508181036000830152620004dc8162000473565b9050919050565b60006020820190508181036000830152620004fe816200049a565b9050919050565b600082825260208201905092915050565b600062000523826200052a565b9050919050565b600073ffffffffffffffffffffffffffffffffffffffff82169050919050565b600060ff82169050919050565b600060028204905060018216806200057057607f821691505b602082108114156200058757620005866200058d565b5b50919050565b7f4e487b7100000000000000000000000000000000000000000000000000000000600052602260045260246000fd5b7f496e76616c696420676174657761792061646472657373000000000000000000600082015250565b7f496e76616c6964206465636f6465722061646472657373000000000000000000600082015250565b620006198162000516565b81146200062557600080fd5b50565b62000633816200054a565b81146200063f57600080fd5b50565b61581680620006526000396000f3fe608060405234801561001057600080fd5b50600436106101e55760003560e01c806370a082311161010f578063a8def880116100a2578063c9cf557011610071578063c9cf55701461058a578063e985e9c5146105ba578063f2fde38b146105ea578063fe55932a14610606576101e5565b8063a8def88014610506578063b88d4fde14610522578063bef36c491461053e578063c87b56dd1461055a576101e5565b806395d89b41116100de57806395d89b411461049457806398ae481d146104b2578063a22cb465146104ce578063a35ff076146104ea576101e5565b806370a082311461041e578063715018a61461044e5780638da5cb5b146104585780638f32d59b14610476576101e5565b806323b872dd116101875780635d64aa68116101565780635d64aa681461038657806362635ed7146103b65780636352211e146103d25780636fbb704514610402576101e5565b806323b872dd146102ee5780632f745c591461030a57806342842e0e1461033a5780634f6ccce714610356576101e5565b8063095ea7b3116101c3578063095ea7b3146102685780630b4cb527146102845780630d6dd812146102a057806318160ddd146102d0576101e5565b806301ffc9a7146101ea57806306fdde031461021a578063081812fc14610238575b600080fd5b61020460048036038101906101ff91906144b5565b610622565b6040516102119190614c27565b60405180910390f35b61022261069c565b60405161022f9190614c64565b60405180910390f35b610252600480360381019061024d91906145ed565b61072e565b60405161025f9190614bc0565b60405180910390f35b610282600480360381019061027d9190614374565b6107b3565b005b61029e60048036038101906102999190614548565b6108cb565b005b6102ba60048036038101906102b59190614209565b610a11565b6040516102c79190614c27565b60405180910390f35b6102d8610b17565b6040516102e59190614f42565b60405180910390f35b6103086004803603810190610303919061426e565b610b24565b005b610324600480360381019061031f9190614374565b610b84565b6040516103319190614f42565b60405180910390f35b610354600480360381019061034f919061426e565b610c29565b005b610370600480360381019061036b91906145ed565b610c49565b60405161037d9190614f42565b60405180910390f35b6103a0600480360381019061039b91906145ed565b610ce0565b6040516103ad9190614bc0565b60405180910390f35b6103d060048036038101906103cb9190614209565b610d13565b005b6103ec60048036038101906103e791906145ed565b610ed2565b6040516103f99190614bc0565b60405180910390f35b61041c600480360381019061041791906143b0565b610f84565b005b61043860048036038101906104339190614209565b611094565b6040516104459190614f42565b60405180910390f35b61045661114c565b005b610460611254565b60405161046d9190614bc0565b60405180910390f35b61047e61127e565b60405161048b9190614c27565b60405180910390f35b61049c6112d6565b6040516104a99190614c64565b60405180910390f35b6104cc60048036038101906104c79190614209565b611368565b005b6104e860048036038101906104e39190614338565b611463565b005b61050460048036038101906104ff9190614209565b6115e4565b005b610520600480360381019061051b9190614232565b6116df565b005b61053c600480360381019061053791906142bd565b611888565b005b610558600480360381019061055391906145ed565b6118ea565b005b610574600480360381019061056f91906145ed565b611e79565b6040516105819190614c64565b60405180910390f35b6105a4600480360381019061059f91906145ed565b611f20565b6040516105b19190614f26565b60405180910390f35b6105d460048036038101906105cf9190614232565b612118565b6040516105e19190614c27565b60405180910390f35b61060460048036038101906105ff9190614209565b6121ac565b005b610620600480360381019061061b9190614616565b6121ff565b005b60007f780e9d63000000000000000000000000000000000000000000000000000000007bffffffffffffffffffffffffffffffffffffffffffffffffffffffff1916827bffffffffffffffffffffffffffffffffffffffffffffffffffffffff1916148061069557506106948261236a565b5b9050919050565b6060600080546106ab9061520a565b80601f01602080910402602001604051908101604052809291908181526020018280546106d79061520a565b80156107245780601f106106f957610100808354040283529160200191610724565b820191906000526020600020905b81548152906001019060200180831161070757829003601f168201915b5050505050905090565b60006107398261244c565b610778576040517f08c379a000000000000000000000000000000000000000000000000000000000815260040161076f90614d86565b60405180910390fd5b6004600083815260200190815260200160002060009054906101000a900473ffffffffffffffffffffffffffffffffffffffff169050919050565b60006107be82610ed2565b90508073ffffffffffffffffffffffffffffffffffffffff168373ffffffffffffffffffffffffffffffffffffffff16141561082f576040517f08c379a000000000000000000000000000000000000000000000000000000000815260040161082690614ce6565b60405180910390fd5b8073ffffffffffffffffffffffffffffffffffffffff1661084e6124b8565b73ffffffffffffffffffffffffffffffffffffffff16148061087d575061087c816108776124b8565b612118565b5b6108bc576040517f08c379a00000000000000000000000000000000000000000000000000000000081526004016108b390614e86565b60405180910390fd5b6108c683836124c0565b505050565b6000806000806000806000601260009054906101000a900473ffffffffffffffffffffffffffffffffffffffff1673ffffffffffffffffffffffffffffffffffffffff1663355916a46040518163ffffffff1660e01b815260040160e060405180830381600087803b15801561094057600080fd5b505af1158015610954573d6000803e3d6000fd5b505050506040513d601f19601f820116820180604052508101906109789190614417565b965096509650965096509650965060006109918c612579565b905060006109ba89838e8e8e60008a8f8f8f8f8e600d60009054906101000a900460ff166125a3565b90506109c6338261283b565b7f3045fac2aa90b666e53421f7c8b2245fae88d8c0bc2a2b62ff6283daea24f36f818a60001c6040516109fa929190614f5d565b60405180910390a150505050505050505050505050565b60008073ffffffffffffffffffffffffffffffffffffffff168273ffffffffffffffffffffffffffffffffffffffff161415610a82576040517f08c379a0000000000000000000000000000000000000000000000000000000008152600401610a7990614f06565b60405180910390fd5b8173ffffffffffffffffffffffffffffffffffffffff16601460003373ffffffffffffffffffffffffffffffffffffffff1673ffffffffffffffffffffffffffffffffffffffff16815260200190815260200160002060009054906101000a900473ffffffffffffffffffffffffffffffffffffffff1673ffffffffffffffffffffffffffffffffffffffff16149050919050565b6000600880549050905090565b610b35610b2f6124b8565b82612a09565b610b74576040517f08c379a0000000000000000000000000000000000000000000000000000000008152600401610b6b90614dc6565b60405180910390fd5b610b7f838383612ae7565b505050565b6000610b8f83611094565b8210610bd0576040517f08c379a0000000000000000000000000000000000000000000000000000000008152600401610bc790614ee6565b60405180910390fd5b600660008473ffffffffffffffffffffffffffffffffffffffff1673ffffffffffffffffffffffffffffffffffffffff168152602001908152602001600020600083815260200190815260200160002054905092915050565b610c4483838360405180602001604052806000815250611888565b505050565b6000610c53610b17565b8210610c94576040517f08c379a0000000000000000000000000000000000000000000000000000000008152600401610c8b90614ee6565b60405180910390fd5b60088281548110610cce577f4e487b7100000000000000000000000000000000000000000000000000000000600052603260045260246000fd5b90600052602060002001549050919050565b600c6020528060005260406000206000915054906101000a900473ffffffffffffffffffffffffffffffffffffffff1681565b600073ffffffffffffffffffffffffffffffffffffffff168173ffffffffffffffffffffffffffffffffffffffff161415610d83576040517f08c379a0000000000000000000000000000000000000000000000000000000008152600401610d7a90614f06565b60405180910390fd5b600073ffffffffffffffffffffffffffffffffffffffff16601460003373ffffffffffffffffffffffffffffffffffffffff1673ffffffffffffffffffffffffffffffffffffffff16815260200190815260200160002060009054906101000a900473ffffffffffffffffffffffffffffffffffffffff1673ffffffffffffffffffffffffffffffffffffffff1614610e51576040517f08c379a0000000000000000000000000000000000000000000000000000000008152600401610e4890614e46565b60405180910390fd5b80601460003373ffffffffffffffffffffffffffffffffffffffff1673ffffffffffffffffffffffffffffffffffffffff16815260200190815260200160002060006101000a81548173ffffffffffffffffffffffffffffffffffffffff021916908373ffffffffffffffffffffffffffffffffffffffff16021790555050565b6000806002600084815260200190815260200160002060009054906101000a900473ffffffffffffffffffffffffffffffffffffffff169050600073ffffffffffffffffffffffffffffffffffffffff168173ffffffffffffffffffffffffffffffffffffffff161415610f7b576040517f08c379a0000000000000000000000000000000000000000000000000000000008152600401610f7290614d86565b60405180910390fd5b80915050919050565b601160009054906101000a900473ffffffffffffffffffffffffffffffffffffffff1673ffffffffffffffffffffffffffffffffffffffff163373ffffffffffffffffffffffffffffffffffffffff1614611014576040517f08c379a000000000000000000000000000000000000000000000000000000000815260040161100b90614ea6565b60405180910390fd5b600073ffffffffffffffffffffffffffffffffffffffff168373ffffffffffffffffffffffffffffffffffffffff161415611084576040517f08c379a000000000000000000000000000000000000000000000000000000000815260040161107b90614d06565b60405180910390fd5b61108f838383612d43565b505050565b60008073ffffffffffffffffffffffffffffffffffffffff168273ffffffffffffffffffffffffffffffffffffffff161415611105576040517f08c379a00000000000000000000000000000000000000000000000000000000081526004016110fc90614d66565b60405180910390fd5b600360008373ffffffffffffffffffffffffffffffffffffffff1673ffffffffffffffffffffffffffffffffffffffff168152602001908152602001600020549050919050565b61115461127e565b611193576040517f08c379a000000000000000000000000000000000000000000000000000000000815260040161118a90614ea6565b60405180910390fd5b600073ffffffffffffffffffffffffffffffffffffffff16600a60009054906101000a900473ffffffffffffffffffffffffffffffffffffffff1673ffffffffffffffffffffffffffffffffffffffff167f8be0079c531659141344cd1fd0a4f28419497f9722a3daafe3b4186f6b6457e060405160405180910390a36000600a60006101000a81548173ffffffffffffffffffffffffffffffffffffffff021916908373ffffffffffffffffffffffffffffffffffffffff160217905550565b6000600a60009054906101000a900473ffffffffffffffffffffffffffffffffffffffff16905090565b6000600a60009054906101000a900473ffffffffffffffffffffffffffffffffffffffff1673ffffffffffffffffffffffffffffffffffffffff163373ffffffffffffffffffffffffffffffffffffffff1614905090565b6060600180546112e59061520a565b80601f01602080910402602001604051908101604052809291908181526020018280546113119061520a565b801561135e5780601f106113335761010080835404028352916020019161135e565b820191906000526020600020905b81548152906001019060200180831161134157829003601f168201915b5050505050905090565b61137061127e565b6113af576040517f08c379a00000000000000000000000000000000000000000000000000000000081526004016113a690614ea6565b60405180910390fd5b600073ffffffffffffffffffffffffffffffffffffffff168173ffffffffffffffffffffffffffffffffffffffff16141561141f576040517f08c379a000000000000000000000000000000000000000000000000000000000815260040161141690614ca6565b60405180910390fd5b80601260006101000a81548173ffffffffffffffffffffffffffffffffffffffff021916908373ffffffffffffffffffffffffffffffffffffffff16021790555050565b61146b6124b8565b73ffffffffffffffffffffffffffffffffffffffff168273ffffffffffffffffffffffffffffffffffffffff1614156114d9576040517f08c379a00000000000000000000000000000000000000000000000000000000081526004016114d090614d46565b60405180910390fd5b80600560006114e66124b8565b73ffffffffffffffffffffffffffffffffffffffff1673ffffffffffffffffffffffffffffffffffffffff16815260200190815260200160002060008473ffffffffffffffffffffffffffffffffffffffff1673ffffffffffffffffffffffffffffffffffffffff16815260200190815260200160002060006101000a81548160ff0219169083151502179055508173ffffffffffffffffffffffffffffffffffffffff166115936124b8565b73ffffffffffffffffffffffffffffffffffffffff167f17307eab39ab6107e8899845ad3d59bd9653f200f220920489ca2b5937696c31836040516115d89190614c27565b60405180910390a35050565b6115ec61127e565b61162b576040517f08c379a000000000000000000000000000000000000000000000000000000000815260040161162290614ea6565b60405180910390fd5b600073ffffffffffffffffffffffffffffffffffffffff168173ffffffffffffffffffffffffffffffffffffffff16141561169b576040517f08c379a000000000000000000000000000000000000000000000000000000000815260040161169290614cc6565b60405180910390fd5b80601160006101000a81548173ffffffffffffffffffffffffffffffffffffffff021916908373ffffffffffffffffffffffffffffffffffffffff16021790555050565b6116e761127e565b611726576040517f08c379a000000000000000000000000000000000000000000000000000000000815260040161171d90614ea6565b60405180910390fd5b600073ffffffffffffffffffffffffffffffffffffffff168273ffffffffffffffffffffffffffffffffffffffff161415611796576040517f08c379a000000000000000000000000000000000000000000000000000000000815260040161178d90614e26565b60405180910390fd5b600073ffffffffffffffffffffffffffffffffffffffff168173ffffffffffffffffffffffffffffffffffffffff161415611806576040517f08c379a00000000000000000000000000000000000000000000000000000000081526004016117fd90614f06565b60405180910390fd5b80601460008473ffffffffffffffffffffffffffffffffffffffff1673ffffffffffffffffffffffffffffffffffffffff16815260200190815260200160002060006101000a81548173ffffffffffffffffffffffffffffffffffffffff021916908373ffffffffffffffffffffffffffffffffffffffff1602179055505050565b6118996118936124b8565b83612a09565b6118d8576040517f08c379a00000000000000000000000000000000000000000000000000000000081526004016118cf90614dc6565b60405180910390fd5b6118e484848484612f51565b50505050565b803373ffffffffffffffffffffffffffffffffffffffff1661190b82610ed2565b73ffffffffffffffffffffffffffffffffffffffff1614611961576040517f08c379a000000000000000000000000000000000000000000000000000000000815260040161195890614e86565b60405180910390fd5b600073ffffffffffffffffffffffffffffffffffffffff16601460003373ffffffffffffffffffffffffffffffffffffffff1673ffffffffffffffffffffffffffffffffffffffff16815260200190815260200160002060009054906101000a900473ffffffffffffffffffffffffffffffffffffffff1673ffffffffffffffffffffffffffffffffffffffff161415611a30576040517f08c379a0000000000000000000000000000000000000000000000000000000008152600401611a2790614de6565b60405180910390fd5b600b805490508210611a77576040517f08c379a0000000000000000000000000000000000000000000000000000000008152600401611a6e90614e06565b60405180910390fd5b6000600b8381548110611ab3577f4e487b7100000000000000000000000000000000000000000000000000000000600052603260045260246000fd5b9060005260206000209060040201604051806101a001604052908160008201548152602001600182015481526020016002820160009054906101000a900467ffffffffffffffff1667ffffffffffffffff1667ffffffffffffffff1681526020016002820160089054906101000a900463ffffffff1663ffffffff1663ffffffff16815260200160028201600c9054906101000a900463ffffffff1663ffffffff1663ffffffff1681526020016002820160109054906101000a900463ffffffff1663ffffffff1663ffffffff1681526020016002820160149054906101000a900461ffff1661ffff1661ffff1681526020016002820160169054906101000a900461ffff1661ffff1661ffff1681526020016002820160189054906101000a900461ffff1661ffff1661ffff16815260200160028201601a9054906101000a900461ffff1661ffff1661ffff16815260200160028201601c9054906101000a900461ffff1661ffff1661ffff16815260200160028201601e9054906101000a900461ffff1661ffff1661ffff1681526020016003820160009054906101000a900460ff1660ff1660ff168152505090506000601360009054906101000a900473ffffffffffffffffffffffffffffffffffffffff1673ffffffffffffffffffffffffffffffffffffffff16630cb6d1e2836040518263ffffffff1660e01b8152600401611cc19190614f26565b60006040518083038186803b158015611cd957600080fd5b505afa158015611ced573d6000803e3d6000fd5b505050506040513d6000823e3d601f19601f82011682018060405250810190611d169190614507565b9050611d4533601160009054906101000a900473ffffffffffffffffffffffffffffffffffffffff1686610b24565b6000601160009054906101000a900473ffffffffffffffffffffffffffffffffffffffff1690506000600d60009054906101000a900460ff1660ff1684610180015160ff1614611d9d57611d9886612fad565b611d9f565b855b90508173ffffffffffffffffffffffffffffffffffffffff16632492fbeb33601460003373ffffffffffffffffffffffffffffffffffffffff1673ffffffffffffffffffffffffffffffffffffffff16815260200190815260200160002060009054906101000a900473ffffffffffffffffffffffffffffffffffffffff1684876040518563ffffffff1660e01b8152600401611e3f9493929190614bdb565b600060405180830381600087803b158015611e5957600080fd5b505af1158015611e6d573d6000803e3d6000fd5b50505050505050505050565b6060611e848261244c565b611ec3576040517f08c379a0000000000000000000000000000000000000000000000000000000008152600401611eba90614da6565b60405180910390fd5b6000611ecd612fca565b90506000815111611eed5760405180602001604052806000815250611f18565b80611ef784612fe1565b604051602001611f08929190614b9c565b6040516020818303038152906040525b915050919050565b611f28613db2565b600b8281548110611f62577f4e487b7100000000000000000000000000000000000000000000000000000000600052603260045260246000fd5b9060005260206000209060040201604051806101a001604052908160008201548152602001600182015481526020016002820160009054906101000a900467ffffffffffffffff1667ffffffffffffffff1667ffffffffffffffff1681526020016002820160089054906101000a900463ffffffff1663ffffffff1663ffffffff16815260200160028201600c9054906101000a900463ffffffff1663ffffffff1663ffffffff1681526020016002820160109054906101000a900463ffffffff1663ffffffff1663ffffffff1681526020016002820160149054906101000a900461ffff1661ffff1661ffff1681526020016002820160169054906101000a900461ffff1661ffff1661ffff1681526020016002820160189054906101000a900461ffff1661ffff1661ffff16815260200160028201601a9054906101000a900461ffff1661ffff1661ffff16815260200160028201601c9054906101000a900461ffff1661ffff1661ffff16815260200160028201601e9054906101000a900461ffff1661ffff1661ffff1681526020016003820160009054906101000a900460ff1660ff1660ff16815250509050919050565b6000600560008473ffffffffffffffffffffffffffffffffffffffff1673ffffffffffffffffffffffffffffffffffffffff16815260200190815260200160002060008373ffffffffffffffffffffffffffffffffffffffff1673ffffffffffffffffffffffffffffffffffffffff16815260200190815260200160002060009054906101000a900460ff16905092915050565b6121b461127e565b6121f3576040517f08c379a00000000000000000000000000000000000000000000000000000000081526004016121ea90614ea6565b60405180910390fd5b6121fc8161318e565b50565b823373ffffffffffffffffffffffffffffffffffffffff1661222082610ed2565b73ffffffffffffffffffffffffffffffffffffffff1614612276576040517f08c379a000000000000000000000000000000000000000000000000000000000815260040161226d90614e86565b60405180910390fd5b6000600b85815481106122b2577f4e487b7100000000000000000000000000000000000000000000000000000000600052603260045260246000fd5b90600052602060002090600402019050600061231185858080601f016020809104026020016040519081016040528093929190818152602001838380828437600081840152601f19601f82011690508083019250505050505050612579565b90506000801b811415612359576040517f08c379a000000000000000000000000000000000000000000000000000000000815260040161235090614d26565b60405180910390fd5b808260010181905550505050505050565b60007f80ac58cd000000000000000000000000000000000000000000000000000000007bffffffffffffffffffffffffffffffffffffffffffffffffffffffff1916827bffffffffffffffffffffffffffffffffffffffffffffffffffffffff1916148061243557507f5b5e139f000000000000000000000000000000000000000000000000000000007bffffffffffffffffffffffffffffffffffffffffffffffffffffffff1916827bffffffffffffffffffffffffffffffffffffffffffffffffffffffff1916145b806124455750612444826132be565b5b9050919050565b60008073ffffffffffffffffffffffffffffffffffffffff166002600084815260200190815260200160002060009054906101000a900473ffffffffffffffffffffffffffffffffffffffff1673ffffffffffffffffffffffffffffffffffffffff1614159050919050565b600033905090565b816004600083815260200190815260200160002060006101000a81548173ffffffffffffffffffffffffffffffffffffffff021916908373ffffffffffffffffffffffffffffffffffffffff160217905550808273ffffffffffffffffffffffffffffffffffffffff1661253383610ed2565b73ffffffffffffffffffffffffffffffffffffffff167f8c5be1e5ebec7d5bd14f71427d1e84f3dd0314c0f7b2291e5b200ac8c7c3b92560405160405180910390a45050565b600080829050600081511415612595576000801b91505061259e565b60208301519150505b919050565b6000600b604051806101a001604052806000801b81526020016000801b81526020018e67ffffffffffffffff1681526020018d63ffffffff1681526020018c63ffffffff1681526020018b63ffffffff1681526020018a61ffff1681526020018961ffff1681526020018861ffff1681526020018761ffff1681526020018661ffff1681526020018561ffff1681526020018460ff168152509080600181540180825580915050600190039060005260206000209060040201600090919091909150600082015181600001556020820151816001015560408201518160020160006101000a81548167ffffffffffffffff021916908367ffffffffffffffff16021790555060608201518160020160086101000a81548163ffffffff021916908363ffffffff160217905550608082015181600201600c6101000a81548163ffffffff021916908363ffffffff16021790555060a08201518160020160106101000a81548163ffffffff021916908363ffffffff16021790555060c08201518160020160146101000a81548161ffff021916908361ffff16021790555060e08201518160020160166101000a81548161ffff021916908361ffff1602179055506101008201518160020160186101000a81548161ffff021916908361ffff16021790555061012082015181600201601a6101000a81548161ffff021916908361ffff16021790555061014082015181600201601c6101000a81548161ffff021916908361ffff16021790555061016082015181600201601e6101000a81548161ffff021916908361ffff1602179055506101808201518160030160006101000a81548160ff021916908360ff1602179055505050600b80549050905061282a818f8f613328565b9d9c50505050505050505050505050565b600073ffffffffffffffffffffffffffffffffffffffff168273ffffffffffffffffffffffffffffffffffffffff1614156128ab576040517f08c379a00000000000000000000000000000000000000000000000000000000081526004016128a290614d66565b60405180910390fd5b6128b48161244c565b156128f4576040517f08c379a00000000000000000000000000000000000000000000000000000000081526004016128eb90614c86565b60405180910390fd5b6129006000838361338c565b6001600360008473ffffffffffffffffffffffffffffffffffffffff1673ffffffffffffffffffffffffffffffffffffffff16815260200190815260200160002060008282546129509190615050565b92505081905550816002600083815260200190815260200160002060006101000a81548173ffffffffffffffffffffffffffffffffffffffff021916908373ffffffffffffffffffffffffffffffffffffffff160217905550808273ffffffffffffffffffffffffffffffffffffffff16600073ffffffffffffffffffffffffffffffffffffffff167fddf252ad1be2c89b69c2b068fc378daa952ba7f163c4a11628f55a4df523b3ef60405160405180910390a45050565b6000612a148261244c565b612a53576040517f08c379a0000000000000000000000000000000000000000000000000000000008152600401612a4a90614d86565b60405180910390fd5b6000612a5e83610ed2565b90508073ffffffffffffffffffffffffffffffffffffffff168473ffffffffffffffffffffffffffffffffffffffff161480612acd57508373ffffffffffffffffffffffffffffffffffffffff16612ab58461072e565b73ffffffffffffffffffffffffffffffffffffffff16145b80612ade5750612add8185612118565b5b91505092915050565b8273ffffffffffffffffffffffffffffffffffffffff16612b0782610ed2565b73ffffffffffffffffffffffffffffffffffffffff1614612b5d576040517f08c379a0000000000000000000000000000000000000000000000000000000008152600401612b5490614e66565b60405180910390fd5b600073ffffffffffffffffffffffffffffffffffffffff168273ffffffffffffffffffffffffffffffffffffffff161415612bcd576040517f08c379a0000000000000000000000000000000000000000000000000000000008152600401612bc490614d66565b60405180910390fd5b612bd883838361338c565b612be36000826124c0565b6001600360008573ffffffffffffffffffffffffffffffffffffffff1673ffffffffffffffffffffffffffffffffffffffff1681526020019081526020016000206000828254612c3391906150d7565b925050819055506001600360008473ffffffffffffffffffffffffffffffffffffffff1673ffffffffffffffffffffffffffffffffffffffff1681526020019081526020016000206000828254612c8a9190615050565b92505081905550816002600083815260200190815260200160002060006101000a81548173ffffffffffffffffffffffffffffffffffffffff021916908373ffffffffffffffffffffffffffffffffffffffff160217905550808273ffffffffffffffffffffffffffffffffffffffff168473ffffffffffffffffffffffffffffffffffffffff167fddf252ad1be2c89b69c2b068fc378daa952ba7f163c4a11628f55a4df523b3ef60405160405180910390a4505050565b6000601360009054906101000a900473ffffffffffffffffffffffffffffffffffffffff1673ffffffffffffffffffffffffffffffffffffffff16631ebe57ea836040518263ffffffff1660e01b8152600401612da09190614c42565b60206040518083038186803b158015612db857600080fd5b505afa158015612dcc573d6000803e3d6000fd5b505050506040513d601f19601f82011682018060405250810190612df0919061466e565b90506000600d60009054906101000a900460ff1660ff168260ff161490508015612e5157612e42601160009054906101000a900473ffffffffffffffffffffffffffffffffffffffff16868686611888565b612e4c84846134a0565b612f4a565b600015156010600086815260200190815260200160002060009054906101000a900460ff1615151415612ef7576000612e89846135a4565b905080600e60008781526020019081526020016000208190555084600f60008381526020019081526020016000208190555060016010600087815260200190815260200160002060006101000a81548160ff021916908315150217905550612ef1868261283b565b50612f49565b6000600e6000868152602001908152602001600020549050612f3d601160009054906101000a900473ffffffffffffffffffffffffffffffffffffffff16878387611888565b612f4781856134a0565b505b5b5050505050565b612f5c848484612ae7565b612f68848484846136b1565b612fa7576040517f08c379a0000000000000000000000000000000000000000000000000000000008152600401612f9e90614ec6565b60405180910390fd5b50505050565b6000600f6000838152602001908152602001600020549050919050565b606060405180602001604052806000815250905090565b60606000821415613029576040518060400160405280600181526020017f30000000000000000000000000000000000000000000000000000000000000008152509050613189565b600082905060005b6000821461305b5780806130449061526d565b915050600a8261305491906150a6565b9150613031565b60008167ffffffffffffffff81111561309d577f4e487b7100000000000000000000000000000000000000000000000000000000600052604160045260246000fd5b6040519080825280601f01601f1916602001820160405280156130cf5781602001600182028036833780820191505090505b5090505b60008514613182576001826130e891906150d7565b9150600a856130f791906152b6565b60306131039190615050565b60f81b81838151811061313f577f4e487b7100000000000000000000000000000000000000000000000000000000600052603260045260246000fd5b60200101907effffffffffffffffffffffffffffffffffffffffffffffffffffffffffffff1916908160001a905350600a8561317b91906150a6565b94506130d3565b8093505050505b919050565b600073ffffffffffffffffffffffffffffffffffffffff168173ffffffffffffffffffffffffffffffffffffffff1614156131fe576040517f08c379a00000000000000000000000000000000000000000000000000000000081526004016131f590614ca6565b60405180910390fd5b8073ffffffffffffffffffffffffffffffffffffffff16600a60009054906101000a900473ffffffffffffffffffffffffffffffffffffffff1673ffffffffffffffffffffffffffffffffffffffff167f8be0079c531659141344cd1fd0a4f28419497f9722a3daafe3b4186f6b6457e060405160405180910390a380600a60006101000a81548173ffffffffffffffffffffffffffffffffffffffff021916908373ffffffffffffffffffffffffffffffffffffffff16021790555050565b60007f01ffc9a7000000000000000000000000000000000000000000000000000000007bffffffffffffffffffffffffffffffffffffffffffffffffffffffff1916827bffffffffffffffffffffffffffffffffffffffffffffffffffffffff1916149050919050565b6000600b8481548110613364577f4e487b7100000000000000000000000000000000000000000000000000000000600052603260045260246000fd5b9060005260206000209060040201905082816000018190555081816001018190555050505050565b613397838383613848565b600073ffffffffffffffffffffffffffffffffffffffff168373ffffffffffffffffffffffffffffffffffffffff1614156133da576133d58161384d565b613419565b8173ffffffffffffffffffffffffffffffffffffffff168373ffffffffffffffffffffffffffffffffffffffff1614613418576134178382613896565b5b5b600073ffffffffffffffffffffffffffffffffffffffff168273ffffffffffffffffffffffffffffffffffffffff16141561345c5761345781613a03565b61349b565b8273ffffffffffffffffffffffffffffffffffffffff168273ffffffffffffffffffffffffffffffffffffffff161461349a576134998282613b46565b5b5b505050565b6000601360009054906101000a900473ffffffffffffffffffffffffffffffffffffffff1673ffffffffffffffffffffffffffffffffffffffff1663459efab6836040518263ffffffff1660e01b81526004016134fd9190614c42565b6101a06040518083038186803b15801561351657600080fd5b505afa15801561352a573d6000803e3d6000fd5b505050506040513d601f19601f8201168201806040525081019061354e91906145c3565b905061359f83826000015183602001518460400151856060015186608001518760a001518860c001518960e001518a61010001518b61012001518c61014001518d61016001518e6101800151613bc5565b505050565b600080601360009054906101000a900473ffffffffffffffffffffffffffffffffffffffff1673ffffffffffffffffffffffffffffffffffffffff1663459efab6846040518263ffffffff1660e01b81526004016136029190614c42565b6101a06040518083038186803b15801561361b57600080fd5b505afa15801561362f573d6000803e3d6000fd5b505050506040513d601f19601f8201168201806040525081019061365391906145c3565b905060006136a5826000015183602001518460400151856060015186608001518760a001518860c001518960e001518a61010001518b61012001518c61014001518d61016001518e61018001516125a3565b90508092505050919050565b60006136d28473ffffffffffffffffffffffffffffffffffffffff16613d9f565b1561383b578373ffffffffffffffffffffffffffffffffffffffff1663150b7a026136fb6124b8565b8786866040518563ffffffff1660e01b815260040161371d9493929190614bdb565b602060405180830381600087803b15801561373757600080fd5b505af192505050801561376857506040513d601f19601f8201168201806040525081019061376591906144de565b60015b6137eb573d8060008114613798576040519150601f19603f3d011682016040523d82523d6000602084013e61379d565b606091505b506000815114156137e3576040517f08c379a00000000000000000000000000000000000000000000000000000000081526004016137da90614ec6565b60405180910390fd5b805181602001fd5b63150b7a0260e01b7bffffffffffffffffffffffffffffffffffffffffffffffffffffffff1916817bffffffffffffffffffffffffffffffffffffffffffffffffffffffff191614915050613840565b600190505b949350505050565b505050565b6008805490506009600083815260200190815260200160002081905550600881908060018154018082558091505060019003906000526020600020016000909190919091505550565b600060016138a384611094565b6138ad91906150d7565b9050600060076000848152602001908152602001600020549050818114613992576000600660008673ffffffffffffffffffffffffffffffffffffffff1673ffffffffffffffffffffffffffffffffffffffff168152602001908152602001600020600084815260200190815260200160002054905080600660008773ffffffffffffffffffffffffffffffffffffffff1673ffffffffffffffffffffffffffffffffffffffff168152602001908152602001600020600084815260200190815260200160002081905550816007600083815260200190815260200160002081905550505b6007600084815260200190815260200160002060009055600660008573ffffffffffffffffffffffffffffffffffffffff1673ffffffffffffffffffffffffffffffffffffffff16815260200190815260200160002060008381526020019081526020016000206000905550505050565b60006001600880549050613a1791906150d7565b9050600060096000848152602001908152602001600020549050600060088381548110613a6d577f4e487b7100000000000000000000000000000000000000000000000000000000600052603260045260246000fd5b906000526020600020015490508060088381548110613ab5577f4e487b7100000000000000000000000000000000000000000000000000000000600052603260045260246000fd5b906000526020600020018190555081600960008381526020019081526020016000208190555060096000858152602001908152602001600020600090556008805480613b2a577f4e487b7100000000000000000000000000000000000000000000000000000000600052603160045260246000fd5b6001900381819060005260206000200160009055905550505050565b6000613b5183611094565b905081600660008573ffffffffffffffffffffffffffffffffffffffff1673ffffffffffffffffffffffffffffffffffffffff168152602001908152602001600020600083815260200190815260200160002081905550806007600084815260200190815260200160002081905550505050565b6000600b8f81548110613c01577f4e487b7100000000000000000000000000000000000000000000000000000000600052603260045260246000fd5b906000526020600020906004020190508d81600001819055508c81600101819055508b8160020160006101000a81548167ffffffffffffffff021916908367ffffffffffffffff1602179055508a8160020160086101000a81548163ffffffff021916908363ffffffff1602179055508981600201600c6101000a81548163ffffffff021916908363ffffffff160217905550888160020160106101000a81548163ffffffff021916908363ffffffff160217905550878160020160146101000a81548161ffff021916908361ffff160217905550868160020160166101000a81548161ffff021916908361ffff160217905550858160020160186101000a81548161ffff021916908361ffff1602179055508481600201601a6101000a81548161ffff021916908361ffff1602179055508381600201601c6101000a81548161ffff021916908361ffff1602179055508281600201601e6101000a81548161ffff021916908361ffff160217905550818160030160006101000a81548160ff021916908360ff160217905550505050505050505050505050505050565b600080823b905060008111915050919050565b604051806101a001604052806000801916815260200160008019168152602001600067ffffffffffffffff168152602001600063ffffffff168152602001600063ffffffff168152602001600063ffffffff168152602001600061ffff168152602001600061ffff168152602001600061ffff168152602001600061ffff168152602001600061ffff168152602001600061ffff168152602001600060ff1681525090565b6000613e6a613e6584614fab565b614f86565b905082815260208101848484011115613e8257600080fd5b613e8d8482856151c8565b509392505050565b6000613ea8613ea384614fab565b614f86565b905082815260208101848484011115613ec057600080fd5b613ecb8482856151d7565b509392505050565b6000613ee6613ee184614fdc565b614f86565b905082815260208101848484011115613efe57600080fd5b613f098482856151c8565b509392505050565b600081359050613f2081615711565b92915050565b600081359050613f3581615728565b92915050565b600081519050613f4a8161573f565b92915050565b600081359050613f5f81615756565b92915050565b600081519050613f7481615756565b92915050565b600082601f830112613f8b57600080fd5b8135613f9b848260208601613e57565b91505092915050565b600082601f830112613fb557600080fd5b8151613fc5848260208601613e95565b91505092915050565b60008083601f840112613fe057600080fd5b8235905067ffffffffffffffff811115613ff957600080fd5b60208301915083600182028301111561401157600080fd5b9250929050565b600082601f83011261402957600080fd5b8135614039848260208601613ed3565b91505092915050565b60006101a0828403121561405557600080fd5b6140606101a0614f86565b9050600061407084828501613f3b565b600083015250602061408484828501613f3b565b6020830152506040614098848285016141df565b60408301525060606140ac848285016141b5565b60608301525060806140c0848285016141b5565b60808301525060a06140d4848285016141b5565b60a08301525060c06140e884828501614176565b60c08301525060e06140fc84828501614176565b60e08301525061010061411184828501614176565b6101008301525061012061412784828501614176565b6101208301525061014061413d84828501614176565b6101408301525061016061415384828501614176565b61016083015250610180614169848285016141f4565b6101808301525092915050565b6000815190506141858161576d565b92915050565b60008135905061419a81615784565b92915050565b6000813590506141af8161579b565b92915050565b6000815190506141c48161579b565b92915050565b6000813590506141d9816157b2565b92915050565b6000815190506141ee816157b2565b92915050565b600081519050614203816157c9565b92915050565b60006020828403121561421b57600080fd5b600061422984828501613f11565b91505092915050565b6000806040838503121561424557600080fd5b600061425385828601613f11565b925050602061426485828601613f11565b9150509250929050565b60008060006060848603121561428357600080fd5b600061429186828701613f11565b93505060206142a286828701613f11565b92505060406142b38682870161418b565b9150509250925092565b600080600080608085870312156142d357600080fd5b60006142e187828801613f11565b94505060206142f287828801613f11565b93505060406143038782880161418b565b925050606085013567ffffffffffffffff81111561432057600080fd5b61432c87828801613f7a565b91505092959194509250565b6000806040838503121561434b57600080fd5b600061435985828601613f11565b925050602061436a85828601613f26565b9150509250929050565b6000806040838503121561438757600080fd5b600061439585828601613f11565b92505060206143a68582860161418b565b9150509250929050565b6000806000606084860312156143c557600080fd5b60006143d386828701613f11565b93505060206143e48682870161418b565b925050604084013567ffffffffffffffff81111561440157600080fd5b61440d86828701613f7a565b9150509250925092565b600080600080600080600060e0888a03121561443257600080fd5b60006144408a828b01613f3b565b97505060206144518a828b01614176565b96505060406144628a828b01614176565b95505060606144738a828b01614176565b94505060806144848a828b01614176565b93505060a06144958a828b01614176565b92505060c06144a68a828b01614176565b91505092959891949750929550565b6000602082840312156144c757600080fd5b60006144d584828501613f50565b91505092915050565b6000602082840312156144f057600080fd5b60006144fe84828501613f65565b91505092915050565b60006020828403121561451957600080fd5b600082015167ffffffffffffffff81111561453357600080fd5b61453f84828501613fa4565b91505092915050565b6000806000806080858703121561455e57600080fd5b600085013567ffffffffffffffff81111561457857600080fd5b61458487828801614018565b9450506020614595878288016141ca565b93505060406145a6878288016141a0565b92505060606145b7878288016141a0565b91505092959194509250565b60006101a082840312156145d657600080fd5b60006145e484828501614042565b91505092915050565b6000602082840312156145ff57600080fd5b600061460d8482850161418b565b91505092915050565b60008060006040848603121561462b57600080fd5b60006146398682870161418b565b935050602084013567ffffffffffffffff81111561465657600080fd5b61466286828701613fce565b92509250509250925092565b60006020828403121561468057600080fd5b600061468e848285016141f4565b91505092915050565b6146a08161510b565b82525050565b6146af8161511d565b82525050565b6146be81615129565b82525050565b60006146cf8261500d565b6146d98185615023565b93506146e98185602086016151d7565b6146f2816153a3565b840191505092915050565b600061470882615018565b6147128185615034565b93506147228185602086016151d7565b61472b816153a3565b840191505092915050565b600061474182615018565b61474b8185615045565b935061475b8185602086016151d7565b80840191505092915050565b6000614774600e83615034565b915061477f826153b4565b602082019050919050565b6000614797600f83615034565b91506147a2826153dd565b602082019050919050565b60006147ba601483615034565b91506147c582615406565b602082019050919050565b60006147dd600d83615034565b91506147e88261542f565b602082019050919050565b6000614800600c83615034565b915061480b82615458565b602082019050919050565b6000614823600a83615034565b915061482e82615481565b602082019050919050565b6000614846601183615034565b9150614851826154aa565b602082019050919050565b6000614869600c83615034565b9150614874826154d3565b602082019050919050565b600061488c601183615034565b9150614897826154fc565b602082019050919050565b60006148af601183615034565b91506148ba82615525565b602082019050919050565b60006148d2601683615034565b91506148dd8261554e565b602082019050919050565b60006148f5600a83615034565b915061490082615577565b602082019050919050565b6000614918601083615034565b9150614923826155a0565b602082019050919050565b600061493b601283615034565b9150614946826155c9565b602082019050919050565b600061495e600e83615034565b9150614969826155f2565b602082019050919050565b6000614981600783615034565b915061498c8261561b565b602082019050919050565b60006149a4600983615034565b91506149af82615644565b602082019050919050565b60006149c7601283615034565b91506149d28261566d565b602082019050919050565b60006149ea601e83615034565b91506149f582615696565b602082019050919050565b6000614a0d601383615034565b9150614a18826156bf565b602082019050919050565b6000614a30601483615034565b9150614a3b826156e8565b602082019050919050565b6101a082016000820151614a5d60008501826146b5565b506020820151614a7060208501826146b5565b506040820151614a836040850182614b7e565b506060820151614a966060850182614b6f565b506080820151614aa96080850182614b6f565b5060a0820151614abc60a0850182614b6f565b5060c0820151614acf60c0850182614b51565b5060e0820151614ae260e0850182614b51565b50610100820151614af7610100850182614b51565b50610120820151614b0c610120850182614b51565b50610140820151614b21610140850182614b51565b50610160820151614b36610160850182614b51565b50610180820151614b4b610180850182614b8d565b50505050565b614b5a8161515f565b82525050565b614b698161518d565b82525050565b614b7881615197565b82525050565b614b87816151a7565b82525050565b614b96816151bb565b82525050565b6000614ba88285614736565b9150614bb48284614736565b91508190509392505050565b6000602082019050614bd56000830184614697565b92915050565b6000608082019050614bf06000830187614697565b614bfd6020830186614697565b614c0a6040830185614b60565b8181036060830152614c1c81846146c4565b905095945050505050565b6000602082019050614c3c60008301846146a6565b92915050565b60006020820190508181036000830152614c5c81846146c4565b905092915050565b60006020820190508181036000830152614c7e81846146fd565b905092915050565b60006020820190508181036000830152614c9f81614767565b9050919050565b60006020820190508181036000830152614cbf8161478a565b9050919050565b60006020820190508181036000830152614cdf816147ad565b9050919050565b60006020820190508181036000830152614cff816147d0565b9050919050565b60006020820190508181036000830152614d1f816147f3565b9050919050565b60006020820190508181036000830152614d3f81614816565b9050919050565b60006020820190508181036000830152614d5f81614839565b9050919050565b60006020820190508181036000830152614d7f8161485c565b9050919050565b60006020820190508181036000830152614d9f8161487f565b9050919050565b60006020820190508181036000830152614dbf816148a2565b9050919050565b60006020820190508181036000830152614ddf816148c5565b9050919050565b60006020820190508181036000830152614dff816148e8565b9050919050565b60006020820190508181036000830152614e1f8161490b565b9050919050565b60006020820190508181036000830152614e3f8161492e565b9050919050565b60006020820190508181036000830152614e5f81614951565b9050919050565b60006020820190508181036000830152614e7f81614974565b9050919050565b60006020820190508181036000830152614e9f81614997565b9050919050565b60006020820190508181036000830152614ebf816149ba565b9050919050565b60006020820190508181036000830152614edf816149dd565b9050919050565b60006020820190508181036000830152614eff81614a00565b9050919050565b60006020820190508181036000830152614f1f81614a23565b9050919050565b60006101a082019050614f3c6000830184614a46565b92915050565b6000602082019050614f576000830184614b60565b92915050565b6000604082019050614f726000830185614b60565b614f7f6020830184614b60565b9392505050565b6000614f90614fa1565b9050614f9c828261523c565b919050565b6000604051905090565b600067ffffffffffffffff821115614fc657614fc5615374565b5b614fcf826153a3565b9050602081019050919050565b600067ffffffffffffffff821115614ff757614ff6615374565b5b615000826153a3565b9050602081019050919050565b600081519050919050565b600081519050919050565b600082825260208201905092915050565b600082825260208201905092915050565b600081905092915050565b600061505b8261518d565b91506150668361518d565b9250827fffffffffffffffffffffffffffffffffffffffffffffffffffffffffffffffff0382111561509b5761509a6152e7565b5b828201905092915050565b60006150b18261518d565b91506150bc8361518d565b9250826150cc576150cb615316565b5b828204905092915050565b60006150e28261518d565b91506150ed8361518d565b925082821015615100576150ff6152e7565b5b828203905092915050565b60006151168261516d565b9050919050565b60008115159050919050565b6000819050919050565b60007fffffffff0000000000000000000000000000000000000000000000000000000082169050919050565b600061ffff82169050919050565b600073ffffffffffffffffffffffffffffffffffffffff82169050919050565b6000819050919050565b600063ffffffff82169050919050565b600067ffffffffffffffff82169050919050565b600060ff82169050919050565b82818337600083830152505050565b60005b838110156151f55780820151818401526020810190506151da565b83811115615204576000848401525b50505050565b6000600282049050600182168061522257607f821691505b6020821081141561523657615235615345565b5b50919050565b615245826153a3565b810181811067ffffffffffffffff8211171561526457615263615374565b5b80604052505050565b60006152788261518d565b91507fffffffffffffffffffffffffffffffffffffffffffffffffffffffffffffffff8214156152ab576152aa6152e7565b5b600182019050919050565b60006152c18261518d565b91506152cc8361518d565b9250826152dc576152db615316565b5b828206905092915050565b7f4e487b7100000000000000000000000000000000000000000000000000000000600052601160045260246000fd5b7f4e487b7100000000000000000000000000000000000000000000000000000000600052601260045260246000fd5b7f4e487b7100000000000000000000000000000000000000000000000000000000600052602260045260246000fd5b7f4e487b7100000000000000000000000000000000000000000000000000000000600052604160045260246000fd5b6000601f19601f8301169050919050565b7f416c7265616479206d696e746564000000000000000000000000000000000000600082015250565b7f496e76616c696420616464726573730000000000000000000000000000000000600082015250565b7f496e76616c696420676174657761792061646472000000000000000000000000600082015250565b7f43757272656e74206f776e657200000000000000000000000000000000000000600082015250565b7f496e76616c696420616464720000000000000000000000000000000000000000600082015250565b7f456d707479206e616d6500000000000000000000000000000000000000000000600082015250565b7f417070726f766520746f2063616c6c6572000000000000000000000000000000600082015250565b7f5a65726f20616464726573730000000000000000000000000000000000000000600082015250565b7f4e6f6e6578697374656e7420746f6b656e000000000000000000000000000000600082015250565b7f6e6f6e6578697374656e7420746f6b656e000000000000000000000000000000600082015250565b7f4e6f74206f776e6572206e6f7220617070726f76656400000000000000000000600082015250565b7f4e6f74206d617070656400000000000000000000000000000000000000000000600082015250565b7f496e76616c696420746f6b656e20496400000000000000000000000000000000600082015250565b7f496e76616c6964206f776e657220616464720000000000000000000000000000600082015250565b7f416c7265616479206d6170706564000000000000000000000000000000000000600082015250565b7f4e6f74206f776e00000000000000000000000000000000000000000000000000600082015250565b7f4e6f74206f776e65720000000000000000000000000000000000000000000000600082015250565b7f496e76616c6964207065726d697373696f6e0000000000000000000000000000600082015250565b7f4e6f6e20455243373231526563656976657220696d706c656d656e7465720000600082015250565b7f496e646578206f7574206f6620626f756e647300000000000000000000000000600082015250565b7f496e76616c6964206d61696e6e65742061646472000000000000000000000000600082015250565b61571a8161510b565b811461572557600080fd5b50565b6157318161511d565b811461573c57600080fd5b50565b61574881615129565b811461575357600080fd5b50565b61575f81615133565b811461576a57600080fd5b50565b6157768161515f565b811461578157600080fd5b50565b61578d8161518d565b811461579857600080fd5b50565b6157a481615197565b81146157af57600080fd5b50565b6157bb816151a7565b81146157c657600080fd5b50565b6157d2816151bb565b81146157dd57600080fd5b5056fea2646970667358221220999a5882d36ce0c7972db2c28abbb5a0b3199830f568472f8169b67cd895967c64736f6c63430008040033",
  "immutableReferences": {},
  "source": "// SPDX-License-Identifier: GPL-3.0 License\n\npragma solidity ^0.8.0;\n\nimport '../common/DragonFactory.sol';\nimport '../common/libraries/DragonLibrary.sol';\n\ninterface IDappchainGateway {\n\tfunction depositDragon(\n\t\taddress from,\n\t\taddress to,\n\t\tuint256 uid,\n\t\tbytes calldata data\n\t) external;\n}\n\ncontract DappchainTransferableDragon is DragonFactory {\n\t// map sidechain address to mainchain address\n\tmapping(address => address) private _sidechainAddressToMainchain;\n\n\tconstructor(\n\t\taddress gateway,\n\t\taddress dragonDecoder,\n\t\tuint8 blockchainId\n\t) DragonFactory(gateway, dragonDecoder, blockchainId) {}\n\n\t// Setter to update who the gateway is\n\tfunction setGatewayAddress(address gateway) external onlyOwner {\n\t\t//TODO check address is a gateway\n\t\trequire(gateway != address(0), 'Invalid gateway addr');\n\t\t_gateway = gateway;\n\t}\n\n\t// Used by the DAppChain Gateway to mint tokens that have been deposited to the Ethereum Gateway\n\tfunction retrieveToken(\n\t\taddress receiver,\n\t\tuint256 _tokenId,\n\t\tbytes memory _data\n\t) public {\n\t\trequire(msg.sender == _gateway, 'Invalid permission');\n\t\trequire(receiver != address(0), 'Invalid addr');\n\t\t_mintReceivedDragon(receiver, _tokenId, _data);\n\t}\n\n\tfunction undoMapping(address owner, address mainnetAddress) external onlyOwner {\n\t\trequire(owner != address(0), 'Invalid owner addr');\n\t\trequire(mainnetAddress != address(0), 'Invalid mainnet addr');\n\t\t_sidechainAddressToMainchain[owner] = mainnetAddress;\n\t}\n\n\tfunction mapContractToMainnet(address mainnetAddress) external {\n\t\trequire(mainnetAddress != address(0), 'Invalid mainnet addr');\n\t\trequire(\n\t\t\t_sidechainAddressToMainchain[msg.sender] == address(0),\n\t\t\t'Already mapped'\n\t\t);\n\t\t_sidechainAddressToMainchain[msg.sender] = mainnetAddress;\n\t}\n\n\tfunction isMap(address mainnetAddress) external view returns (bool) {\n\t\trequire(mainnetAddress != address(0), 'Invalid mainnet addr');\n\t\treturn _sidechainAddressToMainchain[msg.sender] == mainnetAddress;\n\t}\n\n\tfunction transferToGateway(uint256 _tokenId) public onlyDragonOwner(_tokenId) {\n\t\trequire(\n\t\t\t_sidechainAddressToMainchain[msg.sender] != address(0),\n\t\t\t'Not mapped'\n\t\t);\n\t\trequire(_tokenId < dragons.length, 'Invalid token Id');\n\n\t\tDragonLibrary.Dragon memory dragon = dragons[_tokenId];\n\t\tbytes memory encodedDragon = IDragonSerializer(_dragonDecoderAddress).encodeDragonToBytes(dragon);\n\n\t\t// Transfer ownership\n\t\ttransferFrom(msg.sender, _gateway, _tokenId);\n\n\t\t// Trigger trnsference in gateway\n\t\tIDappchainGateway gateway = IDappchainGateway(_gateway);\n\t\tuint256 originalTokenId = dragon.blockchainOriginId == _blockchainId ? _tokenId : _getForeignTokenId(_tokenId);\n\t\tgateway.depositDragon(msg.sender, _sidechainAddressToMainchain[msg.sender], originalTokenId, encodedDragon);\n\t}\n}\n",
  "sourcePath": "/mnt/d/Projects/cryptodragons/truffle-project/contracts/dappchain/DappchainTransferableDragon.sol",
  "compiler": {
    "name": "solc",
    "version": "0.8.4+commit.c7e474f2.Emscripten.clang"
  },
  "schemaVersion": "3.4.3",
  "updatedAt": "2021-10-31T17:35:56.232Z",
  "devdoc": {
    "kind": "dev",
    "methods": {
      "approve(address,uint256)": {
        "details": "See {IERC721-approve}."
      },
      "balanceOf(address)": {
        "details": "See {IERC721-balanceOf}."
      },
      "getApproved(uint256)": {
        "details": "See {IERC721-getApproved}."
      },
      "isApprovedForAll(address,address)": {
        "details": "See {IERC721-isApprovedForAll}."
      },
      "isOwner()": {
        "returns": {
          "_0": "true if `msg.sender` is the owner of the contract."
        }
      },
      "name()": {
        "details": "See {IERC721Metadata-name}."
      },
      "owner()": {
        "returns": {
          "_0": "the address of the owner."
        }
      },
      "ownerOf(uint256)": {
        "details": "See {IERC721-ownerOf}."
      },
      "renounceOwnership()": {
        "details": "Allows the current owner to relinquish control of the contract."
      },
      "safeTransferFrom(address,address,uint256)": {
        "details": "See {IERC721-safeTransferFrom}."
      },
      "safeTransferFrom(address,address,uint256,bytes)": {
        "details": "See {IERC721-safeTransferFrom}."
      },
      "setApprovalForAll(address,bool)": {
        "details": "See {IERC721-setApprovalForAll}."
      },
      "supportsInterface(bytes4)": {
        "details": "See {IERC165-supportsInterface}."
      },
      "symbol()": {
        "details": "See {IERC721Metadata-symbol}."
      },
      "tokenByIndex(uint256)": {
        "details": "See {IERC721Enumerable-tokenByIndex}."
      },
      "tokenOfOwnerByIndex(address,uint256)": {
        "details": "See {IERC721Enumerable-tokenOfOwnerByIndex}."
      },
      "tokenURI(uint256)": {
        "details": "See {IERC721Metadata-tokenURI}."
      },
      "totalSupply()": {
        "details": "See {IERC721Enumerable-totalSupply}."
      },
      "transferFrom(address,address,uint256)": {
        "details": "See {IERC721-transferFrom}."
      },
      "transferOwnership(address)": {
        "details": "Allows the current owner to transfer control of the contract to a newOwner.",
        "params": {
          "newOwner": "The address to transfer ownership to."
        }
      }
    },
    "version": 1
  },
  "userdoc": {
    "kind": "user",
    "methods": {
      "createDragon(string,uint64,uint32,uint32)": {
        "notice": "Creates new Dragon and give it to its creator."
      },
      "renounceOwnership()": {
        "notice": "Renouncing to ownership will leave the contract without an owner. It will not be possible to call the functions with the `onlyOwner` modifier anymore."
      }
    },
    "version": 1
  }
}