{
  "contractName": "DappchainGateway",
  "abi": [
    {
      "inputs": [
        {
          "internalType": "address[]",
          "name": "_validators",
          "type": "address[]"
        },
        {
          "internalType": "uint8",
          "name": "_threshold_num",
          "type": "uint8"
        },
        {
          "internalType": "uint8",
          "name": "_threshold_denom",
          "type": "uint8"
        }
      ],
      "payable": false,
      "stateMutability": "nonpayable",
      "type": "constructor",
      "signature": "constructor"
    },
    {
      "anonymous": false,
      "inputs": [
        {
          "indexed": false,
          "internalType": "address",
          "name": "validator",
          "type": "address"
        }
      ],
      "name": "AddedValidator",
      "type": "event",
      "signature": "0x8e15bf46bd11add443414ada75aa9592a4af68f3f2ec02ae3d49572f9843c2a8"
    },
    {
      "anonymous": false,
      "inputs": [
        {
          "indexed": false,
          "internalType": "address",
          "name": "sidechainAddress",
          "type": "address"
        },
        {
          "indexed": false,
          "internalType": "uint256",
          "name": "uid",
          "type": "uint256"
        },
        {
          "indexed": false,
          "internalType": "bytes",
          "name": "data",
          "type": "bytes"
        }
      ],
      "name": "DragonSuccessfullyRetrievedInSidechain",
      "type": "event",
      "signature": "0xd7bfef63d0fc0e667288131b6edbcceff4c15ddb1b4dfcf3ffa2fccebbeb8401"
    },
    {
      "anonymous": false,
      "inputs": [
        {
          "indexed": false,
          "internalType": "address",
          "name": "from",
          "type": "address"
        },
        {
          "indexed": false,
          "internalType": "uint256",
          "name": "amount",
          "type": "uint256"
        },
        {
          "indexed": false,
          "internalType": "address",
          "name": "contractAddress",
          "type": "address"
        }
      ],
      "name": "ERC20Received",
      "type": "event",
      "signature": "0xa13cf347fb36122550e414f6fd1a0c2e490cff76331c4dcc20f760891ecca12a"
    },
    {
      "anonymous": false,
      "inputs": [
        {
          "indexed": false,
          "internalType": "address",
          "name": "from",
          "type": "address"
        },
        {
          "indexed": false,
          "internalType": "uint256",
          "name": "uid",
          "type": "uint256"
        },
        {
          "indexed": false,
          "internalType": "address",
          "name": "contractAddress",
          "type": "address"
        },
        {
          "indexed": false,
          "internalType": "bytes",
          "name": "data",
          "type": "bytes"
        }
      ],
      "name": "ERC721Received",
      "type": "event",
      "signature": "0x588be4790523ccfac918f892b3167c3555209d3263e5f49e41a8a4cd9cbeed1d"
    },
    {
      "anonymous": false,
      "inputs": [
        {
          "indexed": false,
          "internalType": "address",
          "name": "from",
          "type": "address"
        },
        {
          "indexed": false,
          "internalType": "uint256",
          "name": "amount",
          "type": "uint256"
        }
      ],
      "name": "ETHReceived",
      "type": "event",
      "signature": "0xbfe611b001dfcd411432f7bf0d79b82b4b2ee81511edac123a3403c357fb972a"
    },
    {
      "anonymous": false,
      "inputs": [
        {
          "indexed": true,
          "internalType": "address",
          "name": "previousOwner",
          "type": "address"
        },
        {
          "indexed": true,
          "internalType": "address",
          "name": "newOwner",
          "type": "address"
        }
      ],
      "name": "OwnershipTransferred",
      "type": "event",
      "signature": "0x8be0079c531659141344cd1fd0a4f28419497f9722a3daafe3b4186f6b6457e0"
    },
    {
      "anonymous": false,
      "inputs": [
        {
          "indexed": false,
          "internalType": "address",
          "name": "validator",
          "type": "address"
        }
      ],
      "name": "RemovedValidator",
      "type": "event",
      "signature": "0xb625c55cf7e37b54fcd18bc4edafdf3f4f9acd59a5ec824c77c795dcb2d65070"
    },
    {
      "anonymous": false,
      "inputs": [
        {
          "indexed": false,
          "internalType": "address",
          "name": "from",
          "type": "address"
        },
        {
          "indexed": false,
          "internalType": "uint256",
          "name": "uid",
          "type": "uint256"
        },
        {
          "indexed": false,
          "internalType": "address",
          "name": "toMainchainAddress",
          "type": "address"
        },
        {
          "indexed": false,
          "internalType": "bytes",
          "name": "data",
          "type": "bytes"
        }
      ],
      "name": "SendDragonToMainchainAttempt",
      "type": "event",
      "signature": "0x90f75b8584158f3e931097b4ca7a191f389af9be2b63e6ce384524ef8213c989"
    },
    {
      "anonymous": false,
      "inputs": [
        {
          "indexed": true,
          "internalType": "address",
          "name": "owner",
          "type": "address"
        },
        {
          "indexed": false,
          "internalType": "enum DappchainGateway.TokenKind",
          "name": "kind",
          "type": "uint8"
        },
        {
          "indexed": false,
          "internalType": "address",
          "name": "contractAddress",
          "type": "address"
        },
        {
          "indexed": false,
          "internalType": "uint256",
          "name": "value",
          "type": "uint256"
        }
      ],
      "name": "TokenWithdrawn",
      "type": "event",
      "signature": "0x591f2d33d85291e32c4067b5a497caf3ddb5b1830eba9909e66006ec3a0051b4"
    },
    {
      "payable": true,
      "stateMutability": "payable",
      "type": "fallback"
    },
    {
      "constant": false,
      "inputs": [
        {
          "internalType": "address",
          "name": "validator",
          "type": "address"
        },
        {
          "internalType": "uint8[]",
          "name": "v",
          "type": "uint8[]"
        },
        {
          "internalType": "bytes32[]",
          "name": "r",
          "type": "bytes32[]"
        },
        {
          "internalType": "bytes32[]",
          "name": "s",
          "type": "bytes32[]"
        }
      ],
      "name": "addValidator",
      "outputs": [],
      "payable": false,
      "stateMutability": "nonpayable",
      "type": "function",
      "signature": "0x90b616c8"
    },
    {
      "constant": true,
      "inputs": [
        {
          "internalType": "address",
          "name": "",
          "type": "address"
        }
      ],
      "name": "allowedTokens",
      "outputs": [
        {
          "internalType": "bool",
          "name": "",
          "type": "bool"
        }
      ],
      "payable": false,
      "stateMutability": "view",
      "type": "function",
      "signature": "0xe744092e"
    },
    {
      "constant": true,
      "inputs": [
        {
          "internalType": "address",
          "name": "_address",
          "type": "address"
        }
      ],
      "name": "checkValidator",
      "outputs": [
        {
          "internalType": "bool",
          "name": "",
          "type": "bool"
        }
      ],
      "payable": false,
      "stateMutability": "view",
      "type": "function",
      "signature": "0x797327ae"
    },
    {
      "constant": true,
      "inputs": [],
      "name": "isOwner",
      "outputs": [
        {
          "internalType": "bool",
          "name": "",
          "type": "bool"
        }
      ],
      "payable": false,
      "stateMutability": "view",
      "type": "function",
      "signature": "0x8f32d59b"
    },
    {
      "constant": true,
      "inputs": [],
      "name": "nonce",
      "outputs": [
        {
          "internalType": "uint256",
          "name": "",
          "type": "uint256"
        }
      ],
      "payable": false,
      "stateMutability": "view",
      "type": "function",
      "signature": "0xaffed0e0"
    },
    {
      "constant": true,
      "inputs": [
        {
          "internalType": "address",
          "name": "",
          "type": "address"
        }
      ],
      "name": "nonces",
      "outputs": [
        {
          "internalType": "uint256",
          "name": "",
          "type": "uint256"
        }
      ],
      "payable": false,
      "stateMutability": "view",
      "type": "function",
      "signature": "0x7ecebe00"
    },
    {
      "constant": true,
      "inputs": [],
      "name": "numValidators",
      "outputs": [
        {
          "internalType": "uint256",
          "name": "",
          "type": "uint256"
        }
      ],
      "payable": false,
      "stateMutability": "view",
      "type": "function",
      "signature": "0x5d593f8d"
    },
    {
      "constant": true,
      "inputs": [],
      "name": "owner",
      "outputs": [
        {
          "internalType": "address",
          "name": "",
          "type": "address"
        }
      ],
      "payable": false,
      "stateMutability": "view",
      "type": "function",
      "signature": "0x8da5cb5b"
    },
    {
      "constant": false,
      "inputs": [
        {
          "internalType": "address",
          "name": "validator",
          "type": "address"
        },
        {
          "internalType": "uint8[]",
          "name": "v",
          "type": "uint8[]"
        },
        {
          "internalType": "bytes32[]",
          "name": "r",
          "type": "bytes32[]"
        },
        {
          "internalType": "bytes32[]",
          "name": "s",
          "type": "bytes32[]"
        }
      ],
      "name": "removeValidator",
      "outputs": [],
      "payable": false,
      "stateMutability": "nonpayable",
      "type": "function",
      "signature": "0xc7e7f6f6"
    },
    {
      "constant": false,
      "inputs": [],
      "name": "renounceOwnership",
      "outputs": [],
      "payable": false,
      "stateMutability": "nonpayable",
      "type": "function",
      "signature": "0x715018a6"
    },
    {
      "constant": false,
      "inputs": [
        {
          "internalType": "address",
          "name": "_token",
          "type": "address"
        }
      ],
      "name": "toggleToken",
      "outputs": [],
      "payable": false,
      "stateMutability": "nonpayable",
      "type": "function",
      "signature": "0x15c75f89"
    },
    {
      "constant": false,
      "inputs": [
        {
          "internalType": "address",
          "name": "newOwner",
          "type": "address"
        }
      ],
      "name": "transferOwnership",
      "outputs": [],
      "payable": false,
      "stateMutability": "nonpayable",
      "type": "function",
      "signature": "0xf2fde38b"
    },
    {
      "constant": false,
      "inputs": [
        {
          "internalType": "address",
          "name": "contractAddress",
          "type": "address"
        }
      ],
      "name": "setERC721ContractAddress",
      "outputs": [],
      "payable": false,
      "stateMutability": "nonpayable",
      "type": "function",
      "signature": "0x1e0f692e"
    },
    {
      "constant": false,
      "inputs": [
        {
          "internalType": "address",
          "name": "from",
          "type": "address"
        },
        {
          "internalType": "address",
          "name": "toMainchainAddress",
          "type": "address"
        },
        {
          "internalType": "uint256",
          "name": "uid",
          "type": "uint256"
        },
        {
          "internalType": "bytes",
          "name": "data",
          "type": "bytes"
        }
      ],
      "name": "depositDragon",
      "outputs": [],
      "payable": false,
      "stateMutability": "nonpayable",
      "type": "function",
      "signature": "0x2492fbeb"
    },
    {
      "constant": false,
      "inputs": [
        {
          "internalType": "address",
          "name": "sidechainAddress",
          "type": "address"
        },
        {
          "internalType": "uint256",
          "name": "uid",
          "type": "uint256"
        },
        {
          "internalType": "bytes",
          "name": "data",
          "type": "bytes"
        }
      ],
      "name": "receiveDragon",
      "outputs": [],
      "payable": false,
      "stateMutability": "nonpayable",
      "type": "function",
      "signature": "0x841a9be4"
    },
    {
      "constant": false,
      "inputs": [
        {
          "internalType": "uint256",
          "name": "amount",
          "type": "uint256"
        },
        {
          "internalType": "bytes",
          "name": "sig",
          "type": "bytes"
        },
        {
          "internalType": "address",
          "name": "contractAddress",
          "type": "address"
        }
      ],
      "name": "withdrawERC20",
      "outputs": [],
      "payable": false,
      "stateMutability": "nonpayable",
      "type": "function",
      "signature": "0x2cd2e930"
    },
    {
      "constant": false,
      "inputs": [
        {
          "internalType": "uint256",
          "name": "uid",
          "type": "uint256"
        },
        {
          "internalType": "bytes",
          "name": "sig",
          "type": "bytes"
        },
        {
          "internalType": "address",
          "name": "contractAddress",
          "type": "address"
        }
      ],
      "name": "withdrawERC721",
      "outputs": [],
      "payable": false,
      "stateMutability": "nonpayable",
      "type": "function",
      "signature": "0xc899a86b"
    },
    {
      "constant": false,
      "inputs": [
        {
          "internalType": "uint256",
          "name": "amount",
          "type": "uint256"
        },
        {
          "internalType": "bytes",
          "name": "sig",
          "type": "bytes"
        }
      ],
      "name": "withdrawETH",
      "outputs": [],
      "payable": false,
      "stateMutability": "nonpayable",
      "type": "function",
      "signature": "0x3ef32986"
    },
    {
      "constant": false,
      "inputs": [
        {
          "internalType": "uint256",
          "name": "amount",
          "type": "uint256"
        },
        {
          "internalType": "address",
          "name": "contractAddress",
          "type": "address"
        }
      ],
      "name": "depositERC20",
      "outputs": [],
      "payable": false,
      "stateMutability": "nonpayable",
      "type": "function",
      "signature": "0x392d661c"
    },
    {
      "constant": false,
      "inputs": [
        {
          "internalType": "address",
          "name": "_from",
          "type": "address"
        },
        {
          "internalType": "uint256",
          "name": "amount",
          "type": "uint256"
        }
      ],
      "name": "onERC20Received",
      "outputs": [
        {
          "internalType": "bytes4",
          "name": "",
          "type": "bytes4"
        }
      ],
      "payable": false,
      "stateMutability": "nonpayable",
      "type": "function",
      "signature": "0xbc04f0af"
    },
    {
      "constant": false,
      "inputs": [
        {
          "internalType": "address",
          "name": "operator",
          "type": "address"
        },
        {
          "internalType": "address",
          "name": "_from",
          "type": "address"
        },
        {
          "internalType": "uint256",
          "name": "_uid",
          "type": "uint256"
        },
        {
          "internalType": "bytes",
          "name": "data",
          "type": "bytes"
        }
      ],
      "name": "onERC721Received",
      "outputs": [
        {
          "internalType": "bytes4",
          "name": "",
          "type": "bytes4"
        }
      ],
      "payable": false,
      "stateMutability": "nonpayable",
      "type": "function",
      "signature": "0x150b7a02"
    },
    {
      "constant": true,
      "inputs": [
        {
          "internalType": "address",
          "name": "owner",
          "type": "address"
        }
      ],
      "name": "getETH",
      "outputs": [
        {
          "internalType": "uint256",
          "name": "",
          "type": "uint256"
        }
      ],
      "payable": false,
      "stateMutability": "view",
      "type": "function",
      "signature": "0xa928584b"
    },
    {
      "constant": true,
      "inputs": [
        {
          "internalType": "address",
          "name": "owner",
          "type": "address"
        },
        {
          "internalType": "address",
          "name": "contractAddress",
          "type": "address"
        }
      ],
      "name": "getERC20",
      "outputs": [
        {
          "internalType": "uint256",
          "name": "",
          "type": "uint256"
        }
      ],
      "payable": false,
      "stateMutability": "view",
      "type": "function",
      "signature": "0xb3e51f87"
    },
    {
      "constant": true,
      "inputs": [
        {
          "internalType": "address",
          "name": "owner",
          "type": "address"
        },
        {
          "internalType": "uint256",
          "name": "uid",
          "type": "uint256"
        },
        {
          "internalType": "address",
          "name": "contractAddress",
          "type": "address"
        }
      ],
      "name": "getNFT",
      "outputs": [
        {
          "internalType": "bool",
          "name": "",
          "type": "bool"
        }
      ],
      "payable": false,
      "stateMutability": "view",
      "type": "function",
      "signature": "0x9594058a"
    }
  ],
  "bytecode": "0x60806040523480156200001157600080fd5b50604051620049d2380380620049d2833981810160405260608110156200003757600080fd5b81019080805160405193929190846401000000008211156200005857600080fd5b838201915060208201858111156200006f57600080fd5b82518660208202830111640100000000821117156200008d57600080fd5b8083526020830192505050908051906020019060200280838360005b83811015620000c6578082015181840152602081019050620000a9565b505050509050016040526020018051906020019092919080519060200190929190505050828282336000806101000a81548173ffffffffffffffffffffffffffffffffffffffff021916908373ffffffffffffffffffffffffffffffffffffffff1602179055506000809054906101000a900473ffffffffffffffffffffffffffffffffffffffff1673ffffffffffffffffffffffffffffffffffffffff16600073ffffffffffffffffffffffffffffffffffffffff167f8be0079c531659141344cd1fd0a4f28419497f9722a3daafe3b4186f6b6457e060405160405180910390a360008351905060008111620001bd57600080fd5b82600460006101000a81548160ff021916908360ff16021790555081600460016101000a81548160ff021916908360ff16021790555060008090505b818110156200034257600073ffffffffffffffffffffffffffffffffffffffff168582815181106200022757fe5b602002602001015173ffffffffffffffffffffffffffffffffffffffff1614156200025157600080fd5b6001600360008784815181106200026457fe5b602002602001015173ffffffffffffffffffffffffffffffffffffffff1673ffffffffffffffffffffffffffffffffffffffff16815260200190815260200160002060006101000a81548160ff0219169083151502179055507f8e15bf46bd11add443414ada75aa9592a4af68f3f2ec02ae3d49572f9843c2a8858281518110620002eb57fe5b6020026020010151604051808273ffffffffffffffffffffffffffffffffffffffff1673ffffffffffffffffffffffffffffffffffffffff16815260200191505060405180910390a18080600101915050620001f9565b5083516005819055505050505050505061467080620003626000396000f3fe608060405260043610610168576000357c0100000000000000000000000000000000000000000000000000000000900480638da5cb5b116100d3578063b3e51f871161008c578063b3e51f8714610b8b578063bc04f0af14610c10578063c7e7f6f614610cbd578063c899a86b14610e0d578063e744092e14610ebd578063f2fde38b14610f2657610168565b80638da5cb5b146108925780638f32d59b146108e957806390b616c8146109185780639594058a14610a68578063a928584b14610afb578063affed0e014610b6057610168565b80633ef32986116101255780633ef32986146106005780635d593f8d14610690578063715018a6146106bb578063797327ae146106d25780637ecebe001461073b578063841a9be4146107a057610168565b8063150b7a02146101dd57806315c75f89146103415780631e0f692e146103925780632492fbeb146103e35780632cd2e930146104f5578063392d661c146105a5575b610170610f77565b7fbfe611b001dfcd411432f7bf0d79b82b4b2ee81511edac123a3403c357fb972a3334604051808373ffffffffffffffffffffffffffffffffffffffff1673ffffffffffffffffffffffffffffffffffffffff1681526020018281526020019250505060405180910390a1005b3480156101e957600080fd5b506102ed6004803603608081101561020057600080fd5b81019080803573ffffffffffffffffffffffffffffffffffffffff169060200190929190803573ffffffffffffffffffffffffffffffffffffffff169060200190929190803590602001909291908035906020019064010000000081111561026757600080fd5b82018360208201111561027957600080fd5b8035906020019184600183028401116401000000008311171561029b57600080fd5b91908080601f016020809104026020016040519081016040528093929190818152602001838380828437600081840152601f19601f820116905080830192505050505050509192919290505050611014565b60405180827bffffffffffffffffffffffffffffffffffffffffffffffffffffffff19167bffffffffffffffffffffffffffffffffffffffffffffffffffffffff1916815260200191505060405180910390f35b34801561034d57600080fd5b506103906004803603602081101561036457600080fd5b81019080803573ffffffffffffffffffffffffffffffffffffffff16906020019092919050505061121a565b005b34801561039e57600080fd5b506103e1600480360360208110156103b557600080fd5b81019080803573ffffffffffffffffffffffffffffffffffffffff1690602001909291905050506112d3565b005b3480156103ef57600080fd5b506104f36004803603608081101561040657600080fd5b81019080803573ffffffffffffffffffffffffffffffffffffffff169060200190929190803573ffffffffffffffffffffffffffffffffffffffff169060200190929190803590602001909291908035906020019064010000000081111561046d57600080fd5b82018360208201111561047f57600080fd5b803590602001918460018302840111640100000000831117156104a157600080fd5b91908080601f016020809104026020016040519081016040528093929190818152602001838380828437600081840152601f19601f8201169050808301925050505050505091929192905050506114db565b005b34801561050157600080fd5b506105a36004803603606081101561051857600080fd5b81019080803590602001909291908035906020019064010000000081111561053f57600080fd5b82018360208201111561055157600080fd5b8035906020019184600183028401116401000000008311171561057357600080fd5b9091929391929390803573ffffffffffffffffffffffffffffffffffffffff169060200190929190505050611764565b005b3480156105b157600080fd5b506105fe600480360360408110156105c857600080fd5b8101908080359060200190929190803573ffffffffffffffffffffffffffffffffffffffff169060200190929190505050611c43565b005b34801561060c57600080fd5b5061068e6004803603604081101561062357600080fd5b81019080803590602001909291908035906020019064010000000081111561064a57600080fd5b82018360208201111561065c57600080fd5b8035906020019184600183028401116401000000008311171561067e57600080fd5b9091929391929390505050611f0e565b005b34801561069c57600080fd5b506106a56122da565b6040518082815260200191505060405180910390f35b3480156106c757600080fd5b506106d06122e0565b005b3480156106de57600080fd5b50610721600480360360208110156106f557600080fd5b81019080803573ffffffffffffffffffffffffffffffffffffffff1690602001909291905050506123fc565b604051808215151515815260200191505060405180910390f35b34801561074757600080fd5b5061078a6004803603602081101561075e57600080fd5b81019080803573ffffffffffffffffffffffffffffffffffffffff169060200190929190505050612497565b6040518082815260200191505060405180910390f35b3480156107ac57600080fd5b50610890600480360360608110156107c357600080fd5b81019080803573ffffffffffffffffffffffffffffffffffffffff169060200190929190803590602001909291908035906020019064010000000081111561080a57600080fd5b82018360208201111561081c57600080fd5b8035906020019184600183028401116401000000008311171561083e57600080fd5b91908080601f016020809104026020016040519081016040528093929190818152602001838380828437600081840152601f19601f8201169050808301925050505050505091929192905050506124af565b005b34801561089e57600080fd5b506108a761295c565b604051808273ffffffffffffffffffffffffffffffffffffffff1673ffffffffffffffffffffffffffffffffffffffff16815260200191505060405180910390f35b3480156108f557600080fd5b506108fe612985565b604051808215151515815260200191505060405180910390f35b34801561092457600080fd5b50610a666004803603608081101561093b57600080fd5b81019080803573ffffffffffffffffffffffffffffffffffffffff1690602001909291908035906020019064010000000081111561097857600080fd5b82018360208201111561098a57600080fd5b803590602001918460208302840111640100000000831117156109ac57600080fd5b9091929391929390803590602001906401000000008111156109cd57600080fd5b8201836020820111156109df57600080fd5b80359060200191846020830284011164010000000083111715610a0157600080fd5b909192939192939080359060200190640100000000811115610a2257600080fd5b820183602082011115610a3457600080fd5b80359060200191846020830284011164010000000083111715610a5657600080fd5b90919293919293905050506129dc565b005b348015610a7457600080fd5b50610ae160048036036060811015610a8b57600080fd5b81019080803573ffffffffffffffffffffffffffffffffffffffff16906020019092919080359060200190929190803573ffffffffffffffffffffffffffffffffffffffff169060200190929190505050612cec565b604051808215151515815260200191505060405180910390f35b348015610b0757600080fd5b50610b4a60048036036020811015610b1e57600080fd5b81019080803573ffffffffffffffffffffffffffffffffffffffff169060200190929190505050612d9e565b6040518082815260200191505060405180910390f35b348015610b6c57600080fd5b50610b75612dea565b6040518082815260200191505060405180910390f35b348015610b9757600080fd5b50610bfa60048036036040811015610bae57600080fd5b81019080803573ffffffffffffffffffffffffffffffffffffffff169060200190929190803573ffffffffffffffffffffffffffffffffffffffff169060200190929190505050612df0565b6040518082815260200191505060405180910390f35b348015610c1c57600080fd5b50610c6960048036036040811015610c3357600080fd5b81019080803573ffffffffffffffffffffffffffffffffffffffff16906020019092919080359060200190929190505050612e7a565b60405180827bffffffffffffffffffffffffffffffffffffffffffffffffffffffff19167bffffffffffffffffffffffffffffffffffffffffffffffffffffffff1916815260200191505060405180910390f35b348015610cc957600080fd5b50610e0b60048036036080811015610ce057600080fd5b81019080803573ffffffffffffffffffffffffffffffffffffffff16906020019092919080359060200190640100000000811115610d1d57600080fd5b820183602082011115610d2f57600080fd5b80359060200191846020830284011164010000000083111715610d5157600080fd5b909192939192939080359060200190640100000000811115610d7257600080fd5b820183602082011115610d8457600080fd5b80359060200191846020830284011164010000000083111715610da657600080fd5b909192939192939080359060200190640100000000811115610dc757600080fd5b820183602082011115610dd957600080fd5b80359060200191846020830284011164010000000083111715610dfb57600080fd5b9091929391929390505050613010565b005b348015610e1957600080fd5b50610ebb60048036036060811015610e3057600080fd5b810190808035906020019092919080359060200190640100000000811115610e5757600080fd5b820183602082011115610e6957600080fd5b80359060200191846001830284011164010000000083111715610e8b57600080fd5b9091929391929390803573ffffffffffffffffffffffffffffffffffffffff169060200190929190505050613326565b005b348015610ec957600080fd5b50610f0c60048036036020811015610ee057600080fd5b81019080803573ffffffffffffffffffffffffffffffffffffffff1690602001909291905050506139d5565b604051808215151515815260200191505060405180910390f35b348015610f3257600080fd5b50610f7560048036036020811015610f4957600080fd5b81019080803573ffffffffffffffffffffffffffffffffffffffff1690602001909291905050506139f5565b005b610fcc34600860003373ffffffffffffffffffffffffffffffffffffffff1673ffffffffffffffffffffffffffffffffffffffff16815260200190815260200160002060000154613a5e90919063ffffffff16565b600860003373ffffffffffffffffffffffffffffffffffffffff1673ffffffffffffffffffffffffffffffffffffffff16815260200190815260200160002060000181905550565b6000600160003373ffffffffffffffffffffffffffffffffffffffff1673ffffffffffffffffffffffffffffffffffffffff16815260200190815260200160002060009054906101000a900460ff166110d5576040517f08c379a00000000000000000000000000000000000000000000000000000000081526004018080602001828103825260118152602001807f4e6f7420612076616c696420746f6b656e00000000000000000000000000000081525060200191505060405180910390fd5b6110e0848484613ac9565b7f588be4790523ccfac918f892b3167c3555209d3263e5f49e41a8a4cd9cbeed1d84843385604051808573ffffffffffffffffffffffffffffffffffffffff1673ffffffffffffffffffffffffffffffffffffffff1681526020018481526020018373ffffffffffffffffffffffffffffffffffffffff1673ffffffffffffffffffffffffffffffffffffffff16815260200180602001828103825283818151815260200191508051906020019080838360005b838110156111af578082015181840152602081019050611194565b50505050905090810190601f1680156111dc5780820380516001836020036101000a031916815260200191505b509550505050505060405180910390a163f0b9e5ba7c0100000000000000000000000000000000000000000000000000000000029050949350505050565b611223336123fc565b61122c57600080fd5b600160008273ffffffffffffffffffffffffffffffffffffffff1673ffffffffffffffffffffffffffffffffffffffff16815260200190815260200160002060009054906101000a900460ff1615600160008373ffffffffffffffffffffffffffffffffffffffff1673ffffffffffffffffffffffffffffffffffffffff16815260200190815260200160002060006101000a81548160ff02191690831515021790555050565b6112db612985565b611330576040517f08c379a00000000000000000000000000000000000000000000000000000000081526004018080602001828103825260268152602001806145b06026913960400191505060405180910390fd5b600073ffffffffffffffffffffffffffffffffffffffff168173ffffffffffffffffffffffffffffffffffffffff1614156113d3576040517f08c379a00000000000000000000000000000000000000000000000000000000081526004018080602001828103825260198152602001807f496e76616c6964206164647265737320706172616d657465720000000000000081525060200191505060405180910390fd5b600073ffffffffffffffffffffffffffffffffffffffff16600760009054906101000a900473ffffffffffffffffffffffffffffffffffffffff1673ffffffffffffffffffffffffffffffffffffffff1614611497576040517f08c379a000000000000000000000000000000000000000000000000000000000815260040180806020018281038252601d8152602001807f636f6e747261637420636f6e206f6e6c7920626520736574206f6e636500000081525060200191505060405180910390fd5b80600760006101000a81548173ffffffffffffffffffffffffffffffffffffffff021916908373ffffffffffffffffffffffffffffffffffffffff16021790555050565b600760009054906101000a900473ffffffffffffffffffffffffffffffffffffffff1673ffffffffffffffffffffffffffffffffffffffff163373ffffffffffffffffffffffffffffffffffffffff1614611581576040517f08c379a00000000000000000000000000000000000000000000000000000000081526004018080602001828103825260308152602001806145256030913960400191505060405180910390fd5b60016009600084815260200190815260200160002060006101000a81548160ff02191690831515021790555080600860008673ffffffffffffffffffffffffffffffffffffffff1673ffffffffffffffffffffffffffffffffffffffff16815260200190815260200160002060020160008673ffffffffffffffffffffffffffffffffffffffff1673ffffffffffffffffffffffffffffffffffffffff16815260200190815260200160002060008481526020019081526020016000209080519060200190611651929190614411565b507f90f75b8584158f3e931097b4ca7a191f389af9be2b63e6ce384524ef8213c98984838584604051808573ffffffffffffffffffffffffffffffffffffffff1673ffffffffffffffffffffffffffffffffffffffff1681526020018481526020018373ffffffffffffffffffffffffffffffffffffffff1673ffffffffffffffffffffffffffffffffffffffff16815260200180602001828103825283818151815260200191508051906020019080838360005b83811015611721578082015181840152602081019050611706565b50505050905090810190601f16801561174e5780820380516001836020036101000a031916815260200191505b509550505050505060405180910390a150505050565b838184848080601f016020809104026020016040519081016040528093929190818152602001838380828437600081840152601f19601f8201169050808301925050505050505060003383600260003373ffffffffffffffffffffffffffffffffffffffff1673ffffffffffffffffffffffffffffffffffffffff1681526020019081526020016000205486604051602001808573ffffffffffffffffffffffffffffffffffffffff1673ffffffffffffffffffffffffffffffffffffffff166c010000000000000000000000000281526014018473ffffffffffffffffffffffffffffffffffffffff1673ffffffffffffffffffffffffffffffffffffffff166c0100000000000000000000000002815260140183815260200182815260200194505050505060405160208183030381529060405280519060200120905060006118b88383613b7390919063ffffffff16565b9050600360008273ffffffffffffffffffffffffffffffffffffffff1673ffffffffffffffffffffffffffffffffffffffff16815260200190815260200160002060009054906101000a900460ff1661195c576040517f08c379a000000000000000000000000000000000000000000000000000000000815260040180806020018281038252602181526020018061458f6021913960400191505060405180910390fd5b6119ee89600860003373ffffffffffffffffffffffffffffffffffffffff1673ffffffffffffffffffffffffffffffffffffffff16815260200190815260200160002060010160008973ffffffffffffffffffffffffffffffffffffffff1673ffffffffffffffffffffffffffffffffffffffff16815260200190815260200160002054613dd190919063ffffffff16565b600860003373ffffffffffffffffffffffffffffffffffffffff1673ffffffffffffffffffffffffffffffffffffffff16815260200190815260200160002060010160008873ffffffffffffffffffffffffffffffffffffffff1673ffffffffffffffffffffffffffffffffffffffff168152602001908152602001600020819055508573ffffffffffffffffffffffffffffffffffffffff1663a9059cbb338b6040518363ffffffff167c0100000000000000000000000000000000000000000000000000000000028152600401808373ffffffffffffffffffffffffffffffffffffffff1673ffffffffffffffffffffffffffffffffffffffff16815260200182815260200192505050602060405180830381600087803b158015611b1457600080fd5b505af1158015611b28573d6000803e3d6000fd5b505050506040513d6020811015611b3e57600080fd5b8101908080519060200190929190505050503373ffffffffffffffffffffffffffffffffffffffff167f591f2d33d85291e32c4067b5a497caf3ddb5b1830eba9909e66006ec3a0051b46001888c60405180846002811115611b9c57fe5b60ff1681526020018373ffffffffffffffffffffffffffffffffffffffff1673ffffffffffffffffffffffffffffffffffffffff168152602001828152602001935050505060405180910390a2600260003373ffffffffffffffffffffffffffffffffffffffff1673ffffffffffffffffffffffffffffffffffffffff16815260200190815260200160002060008154809291906001019190505550505050505050505050565b8073ffffffffffffffffffffffffffffffffffffffff166323b872dd3330856040518463ffffffff167c0100000000000000000000000000000000000000000000000000000000028152600401808473ffffffffffffffffffffffffffffffffffffffff1673ffffffffffffffffffffffffffffffffffffffff1681526020018373ffffffffffffffffffffffffffffffffffffffff1673ffffffffffffffffffffffffffffffffffffffff1681526020018281526020019350505050602060405180830381600087803b158015611d1a57600080fd5b505af1158015611d2e573d6000803e3d6000fd5b505050506040513d6020811015611d4457600080fd5b810190808051906020019092919050505050611de882600860003373ffffffffffffffffffffffffffffffffffffffff1673ffffffffffffffffffffffffffffffffffffffff16815260200190815260200160002060010160008473ffffffffffffffffffffffffffffffffffffffff1673ffffffffffffffffffffffffffffffffffffffff16815260200190815260200160002054613a5e90919063ffffffff16565b600860003373ffffffffffffffffffffffffffffffffffffffff1673ffffffffffffffffffffffffffffffffffffffff16815260200190815260200160002060010160008373ffffffffffffffffffffffffffffffffffffffff1673ffffffffffffffffffffffffffffffffffffffff168152602001908152602001600020819055507fa13cf347fb36122550e414f6fd1a0c2e490cff76331c4dcc20f760891ecca12a338383604051808473ffffffffffffffffffffffffffffffffffffffff1673ffffffffffffffffffffffffffffffffffffffff1681526020018381526020018273ffffffffffffffffffffffffffffffffffffffff1673ffffffffffffffffffffffffffffffffffffffff168152602001935050505060405180910390a15050565b823083838080601f016020809104026020016040519081016040528093929190818152602001838380828437600081840152601f19601f8201169050808301925050505050505060003383600260003373ffffffffffffffffffffffffffffffffffffffff1673ffffffffffffffffffffffffffffffffffffffff1681526020019081526020016000205486604051602001808573ffffffffffffffffffffffffffffffffffffffff1673ffffffffffffffffffffffffffffffffffffffff166c010000000000000000000000000281526014018473ffffffffffffffffffffffffffffffffffffffff1673ffffffffffffffffffffffffffffffffffffffff166c0100000000000000000000000002815260140183815260200182815260200194505050505060405160208183030381529060405280519060200120905060006120628383613b7390919063ffffffff16565b9050600360008273ffffffffffffffffffffffffffffffffffffffff1673ffffffffffffffffffffffffffffffffffffffff16815260200190815260200160002060009054906101000a900460ff16612106576040517f08c379a000000000000000000000000000000000000000000000000000000000815260040180806020018281038252602181526020018061458f6021913960400191505060405180910390fd5b61215b88600860003373ffffffffffffffffffffffffffffffffffffffff1673ffffffffffffffffffffffffffffffffffffffff16815260200190815260200160002060000154613dd190919063ffffffff16565b600860003373ffffffffffffffffffffffffffffffffffffffff1673ffffffffffffffffffffffffffffffffffffffff168152602001908152602001600020600001819055503373ffffffffffffffffffffffffffffffffffffffff166108fc899081150290604051600060405180830381858888f193505050501580156121e7573d6000803e3d6000fd5b503373ffffffffffffffffffffffffffffffffffffffff167f591f2d33d85291e32c4067b5a497caf3ddb5b1830eba9909e66006ec3a0051b46000808b6040518084600281111561223457fe5b60ff1681526020018373ffffffffffffffffffffffffffffffffffffffff1673ffffffffffffffffffffffffffffffffffffffff168152602001828152602001935050505060405180910390a2600260003373ffffffffffffffffffffffffffffffffffffffff1673ffffffffffffffffffffffffffffffffffffffff168152602001908152602001600020600081548092919060010191905055505050505050505050565b60055481565b6122e8612985565b61233d576040517f08c379a00000000000000000000000000000000000000000000000000000000081526004018080602001828103825260268152602001806145b06026913960400191505060405180910390fd5b600073ffffffffffffffffffffffffffffffffffffffff166000809054906101000a900473ffffffffffffffffffffffffffffffffffffffff1673ffffffffffffffffffffffffffffffffffffffff167f8be0079c531659141344cd1fd0a4f28419497f9722a3daafe3b4186f6b6457e060405160405180910390a360008060006101000a81548173ffffffffffffffffffffffffffffffffffffffff021916908373ffffffffffffffffffffffffffffffffffffffff160217905550565b600061240661295c565b73ffffffffffffffffffffffffffffffffffffffff168273ffffffffffffffffffffffffffffffffffffffff1614156124425760019050612492565b600360008373ffffffffffffffffffffffffffffffffffffffff1673ffffffffffffffffffffffffffffffffffffffff16815260200190815260200160002060009054906101000a900460ff1690505b919050565b60026020528060005260406000206000915090505481565b600073ffffffffffffffffffffffffffffffffffffffff168373ffffffffffffffffffffffffffffffffffffffff161415612535576040517f08c379a000000000000000000000000000000000000000000000000000000000815260040180806020018281038252602a815260200180614612602a913960400191505060405180910390fd5b6009600083815260200190815260200160002060009054906101000a900460ff1615612676576000600860008573ffffffffffffffffffffffffffffffffffffffff1673ffffffffffffffffffffffffffffffffffffffff16815260200190815260200160002060020160008573ffffffffffffffffffffffffffffffffffffffff1673ffffffffffffffffffffffffffffffffffffffff168152602001908152602001600020600084815260200190815260200160002080546001816001161561010002031660029004905011612675576040517f08c379a00000000000000000000000000000000000000000000000000000000081526004018080602001828103825260128152602001807f446f6573206e6f74206f776e20746f6b656e000000000000000000000000000081525060200191505060405180910390fd5b5b600760009054906101000a900473ffffffffffffffffffffffffffffffffffffffff1673ffffffffffffffffffffffffffffffffffffffff16636fbb70458484846040518463ffffffff167c0100000000000000000000000000000000000000000000000000000000028152600401808473ffffffffffffffffffffffffffffffffffffffff1673ffffffffffffffffffffffffffffffffffffffff16815260200183815260200180602001828103825283818151815260200191508051906020019080838360005b8381101561275a57808201518184015260208101905061273f565b50505050905090810190601f1680156127875780820380516001836020036101000a031916815260200191505b50945050505050600060405180830381600087803b1580156127a857600080fd5b505af11580156127bc573d6000803e3d6000fd5b505050506009600083815260200190815260200160002060006101000a81549060ff0219169055600860008473ffffffffffffffffffffffffffffffffffffffff1673ffffffffffffffffffffffffffffffffffffffff16815260200190815260200160002060020160008473ffffffffffffffffffffffffffffffffffffffff1673ffffffffffffffffffffffffffffffffffffffff1681526020019081526020016000206000838152602001908152602001600020600061287f9190614491565b7fd7bfef63d0fc0e667288131b6edbcceff4c15ddb1b4dfcf3ffa2fccebbeb8401838383604051808473ffffffffffffffffffffffffffffffffffffffff1673ffffffffffffffffffffffffffffffffffffffff16815260200183815260200180602001828103825283818151815260200191508051906020019080838360005b8381101561291b578082015181840152602081019050612900565b50505050905090810190601f1680156129485780820380516001836020036101000a031916815260200191505b5094505050505060405180910390a1505050565b60008060009054906101000a900473ffffffffffffffffffffffffffffffffffffffff16905090565b60008060009054906101000a900473ffffffffffffffffffffffffffffffffffffffff1673ffffffffffffffffffffffffffffffffffffffff163373ffffffffffffffffffffffffffffffffffffffff1614905090565b600360008873ffffffffffffffffffffffffffffffffffffffff1673ffffffffffffffffffffffffffffffffffffffff16815260200190815260200160002060009054906101000a900460ff1615612a9c576040517f08c379a00000000000000000000000000000000000000000000000000000000081526004018080602001828103825260138152602001807f416c726561647920612076616c696461746f720000000000000000000000000081525060200191505060405180910390fd5b60008760065460405160200180807f61646400000000000000000000000000000000000000000000000000000000008152506003018373ffffffffffffffffffffffffffffffffffffffff1673ffffffffffffffffffffffffffffffffffffffff166c0100000000000000000000000002815260140182815260200192505050604051602081830303815290604052805190602001209050612c0381888880806020026020016040519081016040528093929190818152602001838360200280828437600081840152601f19601f82011690508083019250505050505050878780806020026020016040519081016040528093929190818152602001838360200280828437600081840152601f19601f82011690508083019250505050505050868680806020026020016040519081016040528093929190818152602001838360200280828437600081840152601f19601f82011690508083019250505050505050613e3d565b6001600360008a73ffffffffffffffffffffffffffffffffffffffff1673ffffffffffffffffffffffffffffffffffffffff16815260200190815260200160002060006101000a81548160ff0219169083151502179055506005600081548092919060010191905055506006600081548092919060010191905055507f8e15bf46bd11add443414ada75aa9592a4af68f3f2ec02ae3d49572f9843c2a888604051808273ffffffffffffffffffffffffffffffffffffffff1673ffffffffffffffffffffffffffffffffffffffff16815260200191505060405180910390a15050505050505050565b600080600860008673ffffffffffffffffffffffffffffffffffffffff1673ffffffffffffffffffffffffffffffffffffffff16815260200190815260200160002060020160008473ffffffffffffffffffffffffffffffffffffffff1673ffffffffffffffffffffffffffffffffffffffff16815260200190815260200160002060008581526020019081526020016000208054600181600116156101000203166002900490501190509392505050565b6000600860008373ffffffffffffffffffffffffffffffffffffffff1673ffffffffffffffffffffffffffffffffffffffff168152602001908152602001600020600001549050919050565b60065481565b6000600860008473ffffffffffffffffffffffffffffffffffffffff1673ffffffffffffffffffffffffffffffffffffffff16815260200190815260200160002060010160008373ffffffffffffffffffffffffffffffffffffffff1673ffffffffffffffffffffffffffffffffffffffff16815260200190815260200160002054905092915050565b6000600160003373ffffffffffffffffffffffffffffffffffffffff1673ffffffffffffffffffffffffffffffffffffffff16815260200190815260200160002060009054906101000a900460ff16612f3b576040517f08c379a00000000000000000000000000000000000000000000000000000000081526004018080602001828103825260118152602001807f4e6f7420612076616c696420746f6b656e00000000000000000000000000000081525060200191505060405180910390fd5b612f458383614197565b7fa13cf347fb36122550e414f6fd1a0c2e490cff76331c4dcc20f760891ecca12a838333604051808473ffffffffffffffffffffffffffffffffffffffff1673ffffffffffffffffffffffffffffffffffffffff1681526020018381526020018273ffffffffffffffffffffffffffffffffffffffff1673ffffffffffffffffffffffffffffffffffffffff168152602001935050505060405180910390a163bc04f0af7c010000000000000000000000000000000000000000000000000000000002905092915050565b600360008873ffffffffffffffffffffffffffffffffffffffff1673ffffffffffffffffffffffffffffffffffffffff16815260200190815260200160002060009054906101000a900460ff166130cf576040517f08c379a000000000000000000000000000000000000000000000000000000000815260040180806020018281038252600f8152602001807f4e6f7420612076616c696461746f72000000000000000000000000000000000081525060200191505060405180910390fd5b6001600554116130de57600080fd5b60008760065460405160200180807f72656d6f766500000000000000000000000000000000000000000000000000008152506006018373ffffffffffffffffffffffffffffffffffffffff1673ffffffffffffffffffffffffffffffffffffffff166c010000000000000000000000000281526014018281526020019250505060405160208183030381529060405280519060200120905061324581888880806020026020016040519081016040528093929190818152602001838360200280828437600081840152601f19601f82011690508083019250505050505050878780806020026020016040519081016040528093929190818152602001838360200280828437600081840152601f19601f82011690508083019250505050505050868680806020026020016040519081016040528093929190818152602001838360200280828437600081840152601f19601f82011690508083019250505050505050613e3d565b600360008973ffffffffffffffffffffffffffffffffffffffff1673ffffffffffffffffffffffffffffffffffffffff16815260200190815260200160002060006101000a81549060ff0219169055600560008154809291906001900391905055506006600081548092919060010191905055507fb625c55cf7e37b54fcd18bc4edafdf3f4f9acd59a5ec824c77c795dcb2d6507088604051808273ffffffffffffffffffffffffffffffffffffffff1673ffffffffffffffffffffffffffffffffffffffff16815260200191505060405180910390a15050505050505050565b838184848080601f016020809104026020016040519081016040528093929190818152602001838380828437600081840152601f19601f8201169050808301925050505050505060003383600260003373ffffffffffffffffffffffffffffffffffffffff1673ffffffffffffffffffffffffffffffffffffffff1681526020019081526020016000205486604051602001808573ffffffffffffffffffffffffffffffffffffffff1673ffffffffffffffffffffffffffffffffffffffff166c010000000000000000000000000281526014018473ffffffffffffffffffffffffffffffffffffffff1673ffffffffffffffffffffffffffffffffffffffff166c01000000000000000000000000028152601401838152602001828152602001945050505050604051602081830303815290604052805190602001209050600061347a8383613b7390919063ffffffff16565b9050600360008273ffffffffffffffffffffffffffffffffffffffff1673ffffffffffffffffffffffffffffffffffffffff16815260200190815260200160002060009054906101000a900460ff1661351e576040517f08c379a000000000000000000000000000000000000000000000000000000000815260040180806020018281038252602181526020018061458f6021913960400191505060405180910390fd5b6000600860003373ffffffffffffffffffffffffffffffffffffffff1673ffffffffffffffffffffffffffffffffffffffff16815260200190815260200160002060020160008873ffffffffffffffffffffffffffffffffffffffff1673ffffffffffffffffffffffffffffffffffffffff16815260200190815260200160002060008b815260200190815260200160002080546001816001161561010002031660029004905011613638576040517f08c379a00000000000000000000000000000000000000000000000000000000081526004018080602001828103825260128152602001807f446f6573206e6f74206f776e20746f6b656e000000000000000000000000000081525060200191505060405180910390fd5b6000600860003373ffffffffffffffffffffffffffffffffffffffff1673ffffffffffffffffffffffffffffffffffffffff16815260200190815260200160002060020160008873ffffffffffffffffffffffffffffffffffffffff1673ffffffffffffffffffffffffffffffffffffffff16815260200190815260200160002060008b815260200190815260200160002090508673ffffffffffffffffffffffffffffffffffffffff1663b88d4fde30338d856040518563ffffffff167c0100000000000000000000000000000000000000000000000000000000028152600401808573ffffffffffffffffffffffffffffffffffffffff1673ffffffffffffffffffffffffffffffffffffffff1681526020018473ffffffffffffffffffffffffffffffffffffffff1673ffffffffffffffffffffffffffffffffffffffff1681526020018381526020018060200182810382528381815460018160011615610100020316600290048152602001915080546001816001161561010002031660029004801561380a5780601f106137df5761010080835404028352916020019161380a565b820191906000526020600020905b8154815290600101906020018083116137ed57829003601f168201915b505095505050505050600060405180830381600087803b15801561382d57600080fd5b505af1158015613841573d6000803e3d6000fd5b50505050600860003373ffffffffffffffffffffffffffffffffffffffff1673ffffffffffffffffffffffffffffffffffffffff16815260200190815260200160002060020160008873ffffffffffffffffffffffffffffffffffffffff1673ffffffffffffffffffffffffffffffffffffffff16815260200190815260200160002060008b815260200190815260200160002060006138e19190614491565b3373ffffffffffffffffffffffffffffffffffffffff167f591f2d33d85291e32c4067b5a497caf3ddb5b1830eba9909e66006ec3a0051b46002898d6040518084600281111561392d57fe5b60ff1681526020018373ffffffffffffffffffffffffffffffffffffffff1673ffffffffffffffffffffffffffffffffffffffff168152602001828152602001935050505060405180910390a250600260003373ffffffffffffffffffffffffffffffffffffffff1673ffffffffffffffffffffffffffffffffffffffff16815260200190815260200160002060008154809291906001019190505550505050505050505050565b60016020528060005260406000206000915054906101000a900460ff1681565b6139fd612985565b613a52576040517f08c379a00000000000000000000000000000000000000000000000000000000081526004018080602001828103825260268152602001806145b06026913960400191505060405180910390fd5b613a5b816142b0565b50565b600080828401905083811015613abf576040517f08c379a00000000000000000000000000000000000000000000000000000000081526004018080602001828103825260268152602001806144ff6026913960400191505060405180910390fd5b8091505092915050565b80600860008573ffffffffffffffffffffffffffffffffffffffff1673ffffffffffffffffffffffffffffffffffffffff16815260200190815260200160002060020160003373ffffffffffffffffffffffffffffffffffffffff1673ffffffffffffffffffffffffffffffffffffffff16815260200190815260200160002060008481526020019081526020016000209080519060200190613b6d929190614411565b50505050565b60006042825114613bcf576040517f08c379a000000000000000000000000000000000000000000000000000000000815260040180806020018281038252603c8152602001806145d6603c913960400191505060405180910390fd5b600082600081518110613bde57fe5b60200101517f010000000000000000000000000000000000000000000000000000000000000090047f0100000000000000000000000000000000000000000000000000000000000000027f0100000000000000000000000000000000000000000000000000000000000000900460ff166002811115613c5957fe5b90506000806000602186015191506041860151905060ff604287015116925060016002811115613c8557fe5b846002811115613c9157fe5b1415613ced578660405160200180807f19457468657265756d205369676e6564204d6573736167653a0a333200000000815250601c01828152602001915050604051602081830303815290604052805190602001209650613d5e565b600280811115613cf957fe5b846002811115613d0557fe5b1415613d5d578660405160200180807f19457468657265756d205369676e6564204d6573736167653a0a200000000000815250601b018281526020019150506040516020818303038152906040528051906020012096505b5b60018784848460405160008152602001604052604051808581526020018460ff1660ff1681526020018381526020018281526020019450505050506020604051602081039080840390855afa158015613dbb573d6000803e3d6000fd5b5050506020604051035194505050505092915050565b600082821115613e2c576040517f08c379a000000000000000000000000000000000000000000000000000000000815260040180806020018281038252603a815260200180614555603a913960400191505060405180910390fd5b600082840390508091505092915050565b60008351118015613e4f575081518351145b8015613e5c575080518251145b613ece576040517f08c379a000000000000000000000000000000000000000000000000000000000815260040180806020018281038252601a8152602001807f496e636f7272656374206e756d626572206f6620706172616d7300000000000081525060200191505060405180910390fd5b600460019054906101000a900460ff1660ff16600554600460009054906101000a900460ff1660ff160281613eff57fe5b0483511015613f76576040517f08c379a00000000000000000000000000000000000000000000000000000000081526004018080602001828103825260108152602001807f4e6f7420656e6f75676820766f7465730000000000000000000000000000000081525060200191505060405180910390fd5b60008460405160200180807f19457468657265756d205369676e6564204d6573736167653a0a333200000000815250601c01828152602001915050604051602081830303815290604052805190602001209050600084519050600080905060008090505b8281101561418d576000600185898481518110613ff357fe5b602002602001015189858151811061400757fe5b602002602001015189868151811061401b57fe5b602002602001015160405160008152602001604052604051808581526020018460ff1660ff1681526020018381526020018281526020019450505050506020604051602081039080840390855afa15801561407a573d6000803e3d6000fd5b5050506020604051035190508273ffffffffffffffffffffffffffffffffffffffff168173ffffffffffffffffffffffffffffffffffffffff1611801561410a5750600360008273ffffffffffffffffffffffffffffffffffffffff1673ffffffffffffffffffffffffffffffffffffffff16815260200190815260200160002060009054906101000a900460ff165b61417c576040517f08c379a00000000000000000000000000000000000000000000000000000000081526004018080602001828103825260198152602001807f4e6f74207369676e656420627920612076616c696461746f720000000000000081525060200191505060405180910390fd5b809250508080600101915050613fda565b5050505050505050565b61422981600860008573ffffffffffffffffffffffffffffffffffffffff1673ffffffffffffffffffffffffffffffffffffffff16815260200190815260200160002060010160003373ffffffffffffffffffffffffffffffffffffffff1673ffffffffffffffffffffffffffffffffffffffff16815260200190815260200160002054613a5e90919063ffffffff16565b600860008473ffffffffffffffffffffffffffffffffffffffff1673ffffffffffffffffffffffffffffffffffffffff16815260200190815260200160002060010160003373ffffffffffffffffffffffffffffffffffffffff1673ffffffffffffffffffffffffffffffffffffffff168152602001908152602001600020819055505050565b600073ffffffffffffffffffffffffffffffffffffffff168173ffffffffffffffffffffffffffffffffffffffff161415614353576040517f08c379a00000000000000000000000000000000000000000000000000000000081526004018080602001828103825260198152602001807f496e76616c6964206e6577206f776e657220616464726573730000000000000081525060200191505060405180910390fd5b8073ffffffffffffffffffffffffffffffffffffffff166000809054906101000a900473ffffffffffffffffffffffffffffffffffffffff1673ffffffffffffffffffffffffffffffffffffffff167f8be0079c531659141344cd1fd0a4f28419497f9722a3daafe3b4186f6b6457e060405160405180910390a3806000806101000a81548173ffffffffffffffffffffffffffffffffffffffff021916908373ffffffffffffffffffffffffffffffffffffffff16021790555050565b828054600181600116156101000203166002900490600052602060002090601f016020900481019282601f1061445257805160ff1916838001178555614480565b82800160010185558215614480579182015b8281111561447f578251825591602001919060010190614464565b5b50905061448d91906144d9565b5090565b50805460018160011615610100020316600290046000825580601f106144b757506144d6565b601f0160209004906000526020600020908101906144d591906144d9565b5b50565b6144fb91905b808211156144f75760008160009055506001016144df565b5090565b9056fe726573756c742063616e742062652067726561746572207468616e20706172616d65746572734f6e6c79207468652065726337323120636f6e74726163742063616e20706572666f726d207468697320616374696f6e61206d7573742062652067726561746572207468616e20622c206e6567617469766520726573756c747320617265206e6f7420616c6c6f7765644d657373616765206e6f74207369676e656420627920612076616c696461746f724f6e6c7920746865206f776e65722063616e20706572666f726d207468697320616374696f6e7369676e6174757265206e6564647320746f206265203636206279746573206c6f6e672e20536565204d61696e6e657445435665726966792e736f6c73696465636861696e416464726573732073686f756c6420626520612076616c69642061646472657373a265627a7a72315820ccf0037c16a6458809204b4769592bf7adc2dc8d3a38c795626730a9a1ec7f2a64736f6c63430005110032",
  "source": "pragma solidity ^0.5.0;\n\nimport \"../../common/token/ERC721.sol\";\nimport \"../../common/token/ERC20.sol\";\nimport \"../../common/math/SafeMath.sol\";\nimport \"../../common/token/IERC721Receiver.sol\";\nimport \"../../common/token/IERC20Receiver.sol\";\nimport \"./DappchainValidatorManagerContract.sol\";\n\ncontract IDragonContract {\n    function retrieveToken(address receiver, uint256 _tokenId, bytes calldata _data) external;\n}\n\ncontract DappchainGateway is IERC20Receiver, IERC721Receiver, DappchainValidatorManagerContract {\n\n  using SafeMath for uint256;\n\n  struct Balance {\n    uint256 eth;\n    mapping(address => uint256) erc20;\n\n    // Fijarse si suficiente esta implementacion o si hace falta un booleano como estaba, que diga si tiene o no el token\n    // Ahora se fija si una cuenta tiene un token, si en el mapa existen datos para ese token, para esa cuenta\n    mapping(address => mapping(uint256 => bytes)) erc721;\n  }\n\n  address private _erc721ContractAddress;\n\n  mapping (address => Balance) balances;\n  mapping (uint => bool) lockedDragons;\n\n  event ETHReceived(address from, uint256 amount);\n  event ERC20Received(address from, uint256 amount, address contractAddress);\n  event ERC721Received(address from, uint256 uid, address contractAddress, bytes data);\n\n  event SendDragonToMainchainAttempt(address from, uint256 uid, address toMainchainAddress, bytes data);\n  event DragonSuccessfullyRetrievedInSidechain(address sidechainAddress, uint256 uid, bytes data);\n\n  enum TokenKind {\n    ETH,\n    ERC20,\n    ERC721\n  }\n\n  /**\n   * Event to log the withdrawal of a token from the Gateway.\n   * @param owner Address of the entity that made the withdrawal.\n   * @param kind The type of token withdrawn (ERC20/ERC721/ETH).\n   * @param contractAddress Address of token contract the token belong to.\n   * @param value For ERC721 this is the uid of the token, for ETH/ERC20 this is the amount.\n   */\n  event TokenWithdrawn(address indexed owner, TokenKind kind, address contractAddress, uint256 value);\n\n  constructor (address[] memory _validators, uint8 _threshold_num, uint8 _threshold_denom)\n    public DappchainValidatorManagerContract(_validators, _threshold_num, _threshold_denom) {\n  }\n\n\n  function setERC721ContractAddress(address contractAddress) external onlyOwner {\n    require(contractAddress != address(0), \"Invalid address parameter\");\n    require(_erc721ContractAddress == address(0), \"contract con only be set once\");\n    _erc721ContractAddress = contractAddress;\n  }\n\n  /**\n  * @dev Throws if called by any account other than the dragon contract.\n  */\n  modifier onlyDragonContract() {\n      require(msg.sender == _erc721ContractAddress, \"Only the erc721 contract can perform this action\");\n      _;\n  }\n\n  /******************* Nuestras funciones sin validadores *************************** */\n\n  /**\n  * @dev Se llama cuando se quiere transferir un dragon a la otra blockchain\n  */\n  function depositDragon(address from, address toMainchainAddress, uint256 uid, bytes memory data) public onlyDragonContract {\n      // locked dragon to know a transference was made for this id\n      lockedDragons[uid] = true;\n      balances[from].erc721[from][uid] = data;\n      emit SendDragonToMainchainAttempt(from, uid, toMainchainAddress, data);\n  }\n\n //@TODO hacer onlyOracle\n  /**\n  * @dev Se llama cuando se recibe un dragon desde la otra blockchain\n  */\n  function receiveDragon(address sidechainAddress, uint256 uid, bytes memory data) public {\n    require(sidechainAddress != address(0), \"sidechainAddress should be a valid address\");\n\n    if (lockedDragons[uid]) { // Token isnt new\n      require(balances[sidechainAddress].erc721[sidechainAddress][uid].length > 0, \"Does not own token\");\n    }\n\n    IDragonContract(_erc721ContractAddress).retrieveToken(sidechainAddress, uid, data);\n\n    delete lockedDragons[uid];\n    delete balances[sidechainAddress].erc721[sidechainAddress][uid];\n    emit DragonSuccessfullyRetrievedInSidechain(sidechainAddress, uid, data);\n  }\n\n  /*********************************************************************************** */\n\n  // Deposit functions\n  function depositETH() private {\n    balances[msg.sender].eth = balances[msg.sender].eth.add(msg.value);\n  }\n\n  function _depositERC721(address from, uint256 uid, bytes memory data) private {\n    balances[from].erc721[msg.sender][uid] = data;\n  }\n\n  function depositERC20(address from, uint256 amount) private {\n    balances[from].erc20[msg.sender] = balances[from].erc20[msg.sender].add(amount);\n  }\n\n  // Withdrawal functions\n  function withdrawERC20(uint256 amount, bytes calldata sig, address contractAddress)\n    external\n    isVerifiedByValidator(amount, contractAddress, sig)\n  {\n    balances[msg.sender].erc20[contractAddress] = balances[msg.sender].erc20[contractAddress].sub(amount);\n    ERC20(contractAddress).transfer(msg.sender, amount);\n    emit TokenWithdrawn(msg.sender, TokenKind.ERC20, contractAddress, amount);\n  }\n\n  function withdrawERC721(uint256 uid, bytes calldata sig, address contractAddress)\n    external\n    isVerifiedByValidator(uid, contractAddress, sig)\n  {\n    require(balances[msg.sender].erc721[contractAddress][uid].length > 0, \"Does not own token\");\n    bytes storage dragonData = balances[msg.sender].erc721[contractAddress][uid];\n    ERC721(contractAddress).safeTransferFrom(address(this),  msg.sender, uid, dragonData);\n    delete balances[msg.sender].erc721[contractAddress][uid];\n    emit TokenWithdrawn(msg.sender, TokenKind.ERC721, contractAddress, uid);\n  }\n\n  function withdrawETH(uint256 amount, bytes calldata sig)\n    external\n    isVerifiedByValidator(amount, address(this), sig)\n  {\n    balances[msg.sender].eth = balances[msg.sender].eth.sub(amount);\n    msg.sender.transfer(amount); // ensure it's not reentrant\n    emit TokenWithdrawn(msg.sender, TokenKind.ETH, address(0), amount);\n  }\n\n  // Approve and Deposit function for 2-step deposits\n  // Requires first to have called `approve` on the specified ERC20 contract\n  function depositERC20(uint256 amount, address contractAddress) external {\n    ERC20(contractAddress).transferFrom(msg.sender, address(this), amount);\n    balances[msg.sender].erc20[contractAddress] = balances[msg.sender].erc20[contractAddress].add(amount);\n    emit ERC20Received(msg.sender, amount, contractAddress);\n  }\n\n  // Receiver functions for 1-step deposits to the gateway\n\n  function onERC20Received(address _from, uint256 amount)\n    public\n    returns (bytes4)\n  {\n    require(allowedTokens[msg.sender], \"Not a valid token\");\n    depositERC20(_from, amount);\n    emit ERC20Received(_from, amount, msg.sender);\n    return ERC20_RECEIVED;\n  }\n\n  function onERC721Received(address operator, address _from, uint256 _uid, bytes memory data)\n    public\n    returns (bytes4)\n  {\n    require(allowedTokens[msg.sender], \"Not a valid token\");\n    _depositERC721(_from, _uid, data);\n    emit ERC721Received(_from, _uid, msg.sender, data);\n    return ERC721_RECEIVED;\n  }\n\n  function () external payable {\n    depositETH();\n    emit ETHReceived(msg.sender, msg.value);\n  }\n\n  // Returns all the ETH you own\n  function getETH(address owner) external view returns (uint256) {\n    return balances[owner].eth;\n  }\n\n  // Returns all the ETH you own\n  function getERC20(address owner, address contractAddress) external view returns (uint256) {\n    return balances[owner].erc20[contractAddress];\n  }\n\n  // Returns ERC721 token by uid\n  function getNFT(address owner, uint256 uid, address contractAddress) external view returns (bool) {\n    return balances[owner].erc721[contractAddress][uid].length > 0;\n  }\n}",
  "sourcePath": "/usr/src/app/side-sv/contracts/dappchain/gateway/DappchainGateway.sol",
  "compiler": {
    "name": "solc",
    "version": "0.5.17+commit.d19bba13.Emscripten.clang"
  },
  "schemaVersion": "3.0.1",
  "updatedAt": "2020-08-02T23:33:38.036Z",
  "devdoc": {
    "methods": {
      "depositDragon(address,address,uint256,bytes)": {
        "details": "Se llama cuando se quiere transferir un dragon a la otra blockchain"
      },
      "isOwner()": {
        "return": "true if `msg.sender` is the owner of the contract."
      },
      "owner()": {
        "return": "the address of the owner."
      },
      "receiveDragon(address,uint256,bytes)": {
        "details": "Se llama cuando se recibe un dragon desde la otra blockchain"
      },
      "renounceOwnership()": {
        "details": "Allows the current owner to relinquish control of the contract."
      },
      "transferOwnership(address)": {
        "details": "Allows the current owner to transfer control of the contract to a newOwner.",
        "params": {
          "newOwner": "The address to transfer ownership to."
        }
      }
    }
  },
  "userdoc": {
    "methods": {
      "renounceOwnership()": {
        "notice": "Renouncing to ownership will leave the contract without an owner. It will not be possible to call the functions with the `onlyOwner` modifier anymore."
      }
    }
  }
}