{
  "contractName": "DragonApi",
  "abi": [
    {
      "inputs": [
        {
          "internalType": "address",
          "name": "dragonAddress",
          "type": "address"
        },
        {
          "internalType": "address",
          "name": "genesLaboratory",
          "type": "address"
        }
      ],
      "stateMutability": "nonpayable",
      "type": "constructor"
    },
    {
      "inputs": [
        {
          "internalType": "uint256",
          "name": "pageNumber",
          "type": "uint256"
        },
        {
          "internalType": "uint256",
          "name": "pageSize",
          "type": "uint256"
        }
      ],
      "name": "getDragonsByPage",
      "outputs": [
        {
          "internalType": "uint256",
          "name": "totalPages",
          "type": "uint256"
        },
        {
          "components": [
            {
              "internalType": "uint256",
              "name": "dragonId",
              "type": "uint256"
            },
            {
              "internalType": "address",
              "name": "owner",
              "type": "address"
            },
            {
              "internalType": "bool",
              "name": "onSale",
              "type": "bool"
            }
          ],
          "internalType": "struct DragonLibrary.DragonFetchPageData[]",
          "name": "dragonPagesData",
          "type": "tuple[]"
        }
      ],
      "stateMutability": "view",
      "type": "function",
      "constant": true
    },
    {
      "inputs": [
        {
          "internalType": "address",
          "name": "owner",
          "type": "address"
        }
      ],
      "name": "getDragonsIdsByOwner",
      "outputs": [
        {
          "internalType": "uint256[]",
          "name": "",
          "type": "uint256[]"
        }
      ],
      "stateMutability": "view",
      "type": "function",
      "constant": true
    },
    {
      "inputs": [
        {
          "internalType": "uint256",
          "name": "dragonId",
          "type": "uint256"
        }
      ],
      "name": "getDragonById",
      "outputs": [
        {
          "components": [
            {
              "internalType": "bytes32",
              "name": "genes",
              "type": "bytes32"
            },
            {
              "internalType": "bytes32",
              "name": "name",
              "type": "bytes32"
            },
            {
              "internalType": "uint64",
              "name": "creationTime",
              "type": "uint64"
            },
            {
              "internalType": "uint32",
              "name": "dadId",
              "type": "uint32"
            },
            {
              "internalType": "uint32",
              "name": "motherId",
              "type": "uint32"
            },
            {
              "internalType": "uint32",
              "name": "currentExperience",
              "type": "uint32"
            },
            {
              "internalType": "uint16",
              "name": "actionCooldown",
              "type": "uint16"
            },
            {
              "internalType": "uint16",
              "name": "health",
              "type": "uint16"
            },
            {
              "internalType": "uint16",
              "name": "strength",
              "type": "uint16"
            },
            {
              "internalType": "uint16",
              "name": "agility",
              "type": "uint16"
            },
            {
              "internalType": "uint16",
              "name": "fortitude",
              "type": "uint16"
            },
            {
              "internalType": "uint16",
              "name": "hatchTime",
              "type": "uint16"
            },
            {
              "internalType": "uint8",
              "name": "blockchainOriginId",
              "type": "uint8"
            }
          ],
          "internalType": "struct DragonLibrary.Dragon",
          "name": "",
          "type": "tuple"
        }
      ],
      "stateMutability": "view",
      "type": "function",
      "constant": true
    },
    {
      "inputs": [
        {
          "internalType": "address",
          "name": "owner",
          "type": "address"
        }
      ],
      "name": "getDragonsCountByOwner",
      "outputs": [
        {
          "internalType": "uint256",
          "name": "",
          "type": "uint256"
        }
      ],
      "stateMutability": "view",
      "type": "function",
      "constant": true
    },
    {
      "inputs": [
        {
          "internalType": "uint256",
          "name": "dragonId",
          "type": "uint256"
        }
      ],
      "name": "isEgg",
      "outputs": [
        {
          "internalType": "bool",
          "name": "",
          "type": "bool"
        }
      ],
      "stateMutability": "view",
      "type": "function",
      "constant": true
    },
    {
      "inputs": [
        {
          "internalType": "uint256",
          "name": "dragonId",
          "type": "uint256"
        }
      ],
      "name": "getVisualAttributes",
      "outputs": [
        {
          "components": [
            {
              "internalType": "uint8",
              "name": "bodyType",
              "type": "uint8"
            },
            {
              "internalType": "uint8",
              "name": "bodyColor",
              "type": "uint8"
            },
            {
              "internalType": "uint8",
              "name": "bodyPatternType",
              "type": "uint8"
            },
            {
              "internalType": "uint8",
              "name": "bodyPatternColor",
              "type": "uint8"
            },
            {
              "internalType": "uint8",
              "name": "wingsType",
              "type": "uint8"
            },
            {
              "internalType": "uint8",
              "name": "wingsColor",
              "type": "uint8"
            },
            {
              "internalType": "uint8",
              "name": "hornsType",
              "type": "uint8"
            },
            {
              "internalType": "uint8",
              "name": "hornsColor",
              "type": "uint8"
            },
            {
              "internalType": "uint8",
              "name": "eyesType",
              "type": "uint8"
            },
            {
              "internalType": "uint8",
              "name": "eyesColor",
              "type": "uint8"
            },
            {
              "internalType": "uint8",
              "name": "tailType",
              "type": "uint8"
            },
            {
              "internalType": "uint8",
              "name": "tailColor",
              "type": "uint8"
            }
          ],
          "internalType": "struct DragonLibrary.DragonVisualAttributes",
          "name": "",
          "type": "tuple"
        }
      ],
      "stateMutability": "view",
      "type": "function",
      "constant": true
    }
  ],
  "bytecode": "0x60806040523480156200001157600080fd5b5060405162001ece38038062001ece8339818101604052810190620000379190620001bd565b600073ffffffffffffffffffffffffffffffffffffffff168273ffffffffffffffffffffffffffffffffffffffff161415620000aa576040517f08c379a0000000000000000000000000000000000000000000000000000000008152600401620000a1906200024c565b60405180910390fd5b600073ffffffffffffffffffffffffffffffffffffffff168173ffffffffffffffffffffffffffffffffffffffff1614156200011d576040517f08c379a000000000000000000000000000000000000000000000000000000000815260040162000114906200026e565b60405180910390fd5b816000806101000a81548173ffffffffffffffffffffffffffffffffffffffff021916908373ffffffffffffffffffffffffffffffffffffffff16021790555080600160006101000a81548173ffffffffffffffffffffffffffffffffffffffff021916908373ffffffffffffffffffffffffffffffffffffffff160217905550505062000341565b600081519050620001b78162000327565b92915050565b60008060408385031215620001d157600080fd5b6000620001e185828601620001a6565b9250506020620001f485828601620001a6565b9150509250929050565b60006200020d60168362000290565b91506200021a82620002d5565b602082019050919050565b60006200023460208362000290565b91506200024182620002fe565b602082019050919050565b600060208201905081810360008301526200026781620001fe565b9050919050565b60006020820190508181036000830152620002898162000225565b9050919050565b600082825260208201905092915050565b6000620002ae82620002b5565b9050919050565b600073ffffffffffffffffffffffffffffffffffffffff82169050919050565b7f496e76616c696420647261676f6e206164647265737300000000000000000000600082015250565b7f496e76616c69642067656e6573206c61626f7261746f72792061646472657373600082015250565b6200033281620002a1565b81146200033e57600080fd5b50565b611b7d80620003516000396000f3fe608060405234801561001057600080fd5b50600436106100625760003560e01c80630469e8ac146100675780632014a8be146100975780637534de9f146100c7578063c9cf5570146100f8578063d9b6e2f714610128578063dfd4e4a414610158575b600080fd5b610081600480360381019061007c9190610fc6565b610188565b60405161008e919061158a565b60405180910390f35b6100b160048036038101906100ac919061106c565b6103aa565b6040516100be9190611642565b60405180910390f35b6100e160048036038101906100dc91906110be565b610519565b6040516100ef929190611695565b60405180910390f35b610112600480360381019061010d919061106c565b6108f3565b60405161011f919061165e565b60405180910390f35b610142600480360381019061013d9190610fc6565b6109ac565b60405161014f919061167a565b60405180910390f35b610172600480360381019061016d919061106c565b610a5f565b60405161017f91906115ac565b60405180910390f35b606060008060009054906101000a900473ffffffffffffffffffffffffffffffffffffffff16905060008173ffffffffffffffffffffffffffffffffffffffff166370a08231856040518263ffffffff1660e01b81526004016101eb9190611546565b60206040518083038186803b15801561020357600080fd5b505afa158015610217573d6000803e3d6000fd5b505050506040513d601f19601f8201168201806040525081019061023b9190611095565b905060008167ffffffffffffffff81111561027f577f4e487b7100000000000000000000000000000000000000000000000000000000600052604160045260246000fd5b6040519080825280602002602001820160405280156102ad5781602001602082028036833780820191505090505b50905060005b8281101561039e578373ffffffffffffffffffffffffffffffffffffffff16632f745c5987836040518363ffffffff1660e01b81526004016102f6929190611561565b60206040518083038186803b15801561030e57600080fd5b505afa158015610322573d6000803e3d6000fd5b505050506040513d601f19601f820116820180604052508101906103469190611095565b82828151811061037f577f4e487b7100000000000000000000000000000000000000000000000000000000600052603260045260246000fd5b602002602001018181525050808061039690611944565b9150506102b3565b50809350505050919050565b6103b2610b54565b60008060009054906101000a900473ffffffffffffffffffffffffffffffffffffffff1673ffffffffffffffffffffffffffffffffffffffff1663c9cf5570846040518263ffffffff1660e01b815260040161040e919061167a565b6101a06040518083038186803b15801561042757600080fd5b505afa15801561043b573d6000803e3d6000fd5b505050506040513d601f19601f8201168201806040525081019061045f9190611042565b9050600160009054906101000a900473ffffffffffffffffffffffffffffffffffffffff1673ffffffffffffffffffffffffffffffffffffffff166391926cff82600001516040518263ffffffff1660e01b81526004016104c091906115c7565b6101806040518083038186803b1580156104d957600080fd5b505afa1580156104ed573d6000803e3d6000fd5b505050506040513d601f19601f820116820180604052508101906105119190611018565b915050919050565b6000606060008411610560576040517f08c379a0000000000000000000000000000000000000000000000000000000008152600401610557906115e2565b60405180910390fd5b600083116105a3576040517f08c379a000000000000000000000000000000000000000000000000000000000815260040161059a90611622565b60405180910390fd5b6000836001866105b3919061184e565b6105bd91906117f4565b905060008060009054906101000a900473ffffffffffffffffffffffffffffffffffffffff1673ffffffffffffffffffffffffffffffffffffffff166318160ddd6040518163ffffffff1660e01b815260040160206040518083038186803b15801561062857600080fd5b505afa15801561063c573d6000803e3d6000fd5b505050506040513d601f19601f820116820180604052508101906106609190611095565b9050808211156106a5576040517f08c379a000000000000000000000000000000000000000000000000000000000815260040161069c90611602565b60405180910390fd5b600085905082826106b6919061184e565b8111156106cc5782826106c9919061184e565b90505b8067ffffffffffffffff81111561070c577f4e487b7100000000000000000000000000000000000000000000000000000000600052604160045260246000fd5b60405190808252806020026020018201604052801561074557816020015b610732610bd9565b81526020019060019003908161072a5790505b50935060005b818110156108a55760008185610761919061176d565b905060008060009054906101000a900473ffffffffffffffffffffffffffffffffffffffff1673ffffffffffffffffffffffffffffffffffffffff16636352211e836040518263ffffffff1660e01b81526004016107bf919061167a565b60206040518083038186803b1580156107d757600080fd5b505afa1580156107eb573d6000803e3d6000fd5b505050506040513d601f19601f8201168201806040525081019061080f9190610fef565b905060405180606001604052808381526020018273ffffffffffffffffffffffffffffffffffffffff16815260200161084783610b4d565b1515815250878481518110610885577f4e487b7100000000000000000000000000000000000000000000000000000000600052603260045260246000fd5b60200260200101819052505050808061089d90611944565b91505061074b565b50600086836108b491906117c3565b9050600087826108c491906117f4565b846108cf919061184e565b11156108e5576001816108e2919061176d565b90505b809550505050509250929050565b6108fb610c12565b60008054906101000a900473ffffffffffffffffffffffffffffffffffffffff1673ffffffffffffffffffffffffffffffffffffffff1663c9cf5570836040518263ffffffff1660e01b8152600401610954919061167a565b6101a06040518083038186803b15801561096d57600080fd5b505afa158015610981573d6000803e3d6000fd5b505050506040513d601f19601f820116820180604052508101906109a59190611042565b9050919050565b60008060009054906101000a900473ffffffffffffffffffffffffffffffffffffffff1673ffffffffffffffffffffffffffffffffffffffff166370a08231836040518263ffffffff1660e01b8152600401610a089190611546565b60206040518083038186803b158015610a2057600080fd5b505afa158015610a34573d6000803e3d6000fd5b505050506040513d601f19601f82011682018060405250810190610a589190611095565b9050919050565b60008060008054906101000a900473ffffffffffffffffffffffffffffffffffffffff1673ffffffffffffffffffffffffffffffffffffffff1663c9cf5570846040518263ffffffff1660e01b8152600401610abb919061167a565b6101a06040518083038186803b158015610ad457600080fd5b505afa158015610ae8573d6000803e3d6000fd5b505050506040513d601f19601f82011682018060405250810190610b0c9190611042565b90506000603c826040015167ffffffffffffffff1642610b2c919061184e565b610b3691906117f4565b905081610160015161ffff16811092505050919050565b6000919050565b604051806101800160405280600060ff168152602001600060ff168152602001600060ff168152602001600060ff168152602001600060ff168152602001600060ff168152602001600060ff168152602001600060ff168152602001600060ff168152602001600060ff168152602001600060ff168152602001600060ff1681525090565b604051806060016040528060008152602001600073ffffffffffffffffffffffffffffffffffffffff1681526020016000151581525090565b604051806101a001604052806000801916815260200160008019168152602001600067ffffffffffffffff168152602001600063ffffffff168152602001600063ffffffff168152602001600063ffffffff168152602001600061ffff168152602001600061ffff168152602001600061ffff168152602001600061ffff168152602001600061ffff168152602001600061ffff168152602001600060ff1681525090565b600081359050610cc681611aa6565b92915050565b600081519050610cdb81611aa6565b92915050565b600081519050610cf081611abd565b92915050565b60006101808284031215610d0957600080fd5b610d146101806116c5565b90506000610d2484828501610fb1565b6000830152506020610d3884828501610fb1565b6020830152506040610d4c84828501610fb1565b6040830152506060610d6084828501610fb1565b6060830152506080610d7484828501610fb1565b60808301525060a0610d8884828501610fb1565b60a08301525060c0610d9c84828501610fb1565b60c08301525060e0610db084828501610fb1565b60e083015250610100610dc584828501610fb1565b61010083015250610120610ddb84828501610fb1565b61012083015250610140610df184828501610fb1565b61014083015250610160610e0784828501610fb1565b6101608301525092915050565b60006101a08284031215610e2757600080fd5b610e326101a06116c5565b90506000610e4284828501610ce1565b6000830152506020610e5684828501610ce1565b6020830152506040610e6a84828501610f9c565b6040830152506060610e7e84828501610f87565b6060830152506080610e9284828501610f87565b60808301525060a0610ea684828501610f87565b60a08301525060c0610eba84828501610f48565b60c08301525060e0610ece84828501610f48565b60e083015250610100610ee384828501610f48565b61010083015250610120610ef984828501610f48565b61012083015250610140610f0f84828501610f48565b61014083015250610160610f2584828501610f48565b61016083015250610180610f3b84828501610fb1565b6101808301525092915050565b600081519050610f5781611ad4565b92915050565b600081359050610f6c81611aeb565b92915050565b600081519050610f8181611aeb565b92915050565b600081519050610f9681611b02565b92915050565b600081519050610fab81611b19565b92915050565b600081519050610fc081611b30565b92915050565b600060208284031215610fd857600080fd5b6000610fe684828501610cb7565b91505092915050565b60006020828403121561100157600080fd5b600061100f84828501610ccc565b91505092915050565b6000610180828403121561102b57600080fd5b600061103984828501610cf6565b91505092915050565b60006101a0828403121561105557600080fd5b600061106384828501610e14565b91505092915050565b60006020828403121561107e57600080fd5b600061108c84828501610f5d565b91505092915050565b6000602082840312156110a757600080fd5b60006110b584828501610f72565b91505092915050565b600080604083850312156110d157600080fd5b60006110df85828601610f5d565b92505060206110f085828601610f5d565b9150509250929050565b600061110683836112a9565b60608301905092915050565b600061111e83836114fb565b60208301905092915050565b61113381611882565b82525050565b61114281611882565b82525050565b60006111538261170a565b61115d818561173a565b9350611168836116ea565b8060005b8381101561119957815161118088826110fa565b975061118b83611720565b92505060018101905061116c565b5085935050505092915050565b60006111b182611715565b6111bb818561174b565b93506111c6836116fa565b8060005b838110156111f75781516111de8882611112565b97506111e98361172d565b9250506001810190506111ca565b5085935050505092915050565b61120d81611894565b82525050565b61121c81611894565b82525050565b61122b816118a0565b82525050565b61123a816118a0565b82525050565b600061124d60198361175c565b915061125882611a2b565b602082019050919050565b600061127060118361175c565b915061127b82611a54565b602082019050919050565b600061129360178361175c565b915061129e82611a7d565b602082019050919050565b6060820160008201516112bf60008501826114fb565b5060208201516112d2602085018261112a565b5060408201516112e56040850182611204565b50505050565b610180820160008201516113026000850182611537565b5060208201516113156020850182611537565b5060408201516113286040850182611537565b50606082015161133b6060850182611537565b50608082015161134e6080850182611537565b5060a082015161136160a0850182611537565b5060c082015161137460c0850182611537565b5060e082015161138760e0850182611537565b5061010082015161139c610100850182611537565b506101208201516113b1610120850182611537565b506101408201516113c6610140850182611537565b506101608201516113db610160850182611537565b50505050565b6101a0820160008201516113f86000850182611222565b50602082015161140b6020850182611222565b50604082015161141e6040850182611528565b5060608201516114316060850182611519565b5060808201516114446080850182611519565b5060a082015161145760a0850182611519565b5060c082015161146a60c08501826114ec565b5060e082015161147d60e08501826114ec565b506101008201516114926101008501826114ec565b506101208201516114a76101208501826114ec565b506101408201516114bc6101408501826114ec565b506101608201516114d16101608501826114ec565b506101808201516114e6610180850182611537565b50505050565b6114f5816118aa565b82525050565b611504816118d8565b82525050565b611513816118d8565b82525050565b611522816118e2565b82525050565b611531816118f2565b82525050565b61154081611906565b82525050565b600060208201905061155b6000830184611139565b92915050565b60006040820190506115766000830185611139565b611583602083018461150a565b9392505050565b600060208201905081810360008301526115a481846111a6565b905092915050565b60006020820190506115c16000830184611213565b92915050565b60006020820190506115dc6000830184611231565b92915050565b600060208201905081810360008301526115fb81611240565b9050919050565b6000602082019050818103600083015261161b81611263565b9050919050565b6000602082019050818103600083015261163b81611286565b9050919050565b60006101808201905061165860008301846112eb565b92915050565b60006101a08201905061167460008301846113e1565b92915050565b600060208201905061168f600083018461150a565b92915050565b60006040820190506116aa600083018561150a565b81810360208301526116bc8184611148565b90509392505050565b60006116cf6116e0565b90506116db8282611913565b919050565b6000604051905090565b6000819050602082019050919050565b6000819050602082019050919050565b600081519050919050565b600081519050919050565b6000602082019050919050565b6000602082019050919050565b600082825260208201905092915050565b600082825260208201905092915050565b600082825260208201905092915050565b6000611778826118d8565b9150611783836118d8565b9250827fffffffffffffffffffffffffffffffffffffffffffffffffffffffffffffffff038211156117b8576117b761198d565b5b828201905092915050565b60006117ce826118d8565b91506117d9836118d8565b9250826117e9576117e86119bc565b5b828204905092915050565b60006117ff826118d8565b915061180a836118d8565b9250817fffffffffffffffffffffffffffffffffffffffffffffffffffffffffffffffff04831182151516156118435761184261198d565b5b828202905092915050565b6000611859826118d8565b9150611864836118d8565b9250828210156118775761187661198d565b5b828203905092915050565b600061188d826118b8565b9050919050565b60008115159050919050565b6000819050919050565b600061ffff82169050919050565b600073ffffffffffffffffffffffffffffffffffffffff82169050919050565b6000819050919050565b600063ffffffff82169050919050565b600067ffffffffffffffff82169050919050565b600060ff82169050919050565b61191c82611a1a565b810181811067ffffffffffffffff8211171561193b5761193a6119eb565b5b80604052505050565b600061194f826118d8565b91507fffffffffffffffffffffffffffffffffffffffffffffffffffffffffffffffff8214156119825761198161198d565b5b600182019050919050565b7f4e487b7100000000000000000000000000000000000000000000000000000000600052601160045260246000fd5b7f4e487b7100000000000000000000000000000000000000000000000000000000600052601260045260246000fd5b7f4e487b7100000000000000000000000000000000000000000000000000000000600052604160045260246000fd5b6000601f19601f8301169050919050565b7f706167654e756d6265722063616e6e6f74206265207a65726f00000000000000600082015250565b7f4f7574206f662072616e67652070616765000000000000000000000000000000600082015250565b7f7061676553697a652063616e6e6f74206265207a65726f000000000000000000600082015250565b611aaf81611882565b8114611aba57600080fd5b50565b611ac6816118a0565b8114611ad157600080fd5b50565b611add816118aa565b8114611ae857600080fd5b50565b611af4816118d8565b8114611aff57600080fd5b50565b611b0b816118e2565b8114611b1657600080fd5b50565b611b22816118f2565b8114611b2d57600080fd5b50565b611b3981611906565b8114611b4457600080fd5b5056fea2646970667358221220429f26a65489880b87285719b7bb8fd5cf9629cd41fb3038adac5f0cf31a36bb64736f6c63430008040033",
  "immutableReferences": {},
  "source": "// SPDX-License-Identifier: GPL-3.0 License\n\npragma solidity ^0.8.0;\n\nimport '../common/token/IERC721Enumerable.sol';\nimport '../common/token/IERC721.sol';\nimport '../common/libraries/DragonLibrary.sol';\n\ninterface IDragonContract {\n\tfunction getDragonById(uint256 _dragonId) external view returns (DragonLibrary.Dragon memory);\n}\n\ninterface IGenesLaboratory {\n\tfunction getVisualAttributes(bytes32 genes)\n\t\texternal\n\t\tpure\n\t\treturns (DragonLibrary.DragonVisualAttributes memory);\n}\n\ncontract DragonApi {\n\n    address internal _dragonAddress;\n\taddress internal _genesLaboratory;\n\n    constructor(address dragonAddress, address genesLaboratory) {\n\t\trequire(dragonAddress != address(0), 'Invalid dragon address');\n\t\trequire(genesLaboratory != address(0), 'Invalid genes laboratory address');\n\n\t\t_dragonAddress = dragonAddress;\n\t\t_genesLaboratory = genesLaboratory;\n\t}\n\n\t/*******************************************************************************************\n        Actions\n    ********************************************************************************************/\n\n\t/*******************************************************************************************\n        GETTERS\n    ********************************************************************************************/\n\t\n\t/**\n\t * @dev Return dragons with pagination\n\t * @param pageNumber page starting with value 1. Page 1 will return dragons with id 0 to pageSize\n\t * @param pageSize amount of dragons that will be returned in each page\n\t * @return totalPages amount of pages that can be fetched\n\t * @return dragonPagesData all dragon ids contain in the resulting page\n\t */\n\tfunction getDragonsByPage(uint256 pageNumber, uint256 pageSize) external view returns (uint256 totalPages, DragonLibrary.DragonFetchPageData[] memory dragonPagesData) {\n\t\trequire(pageNumber > 0, \"pageNumber cannot be zero\");\n\t\trequire(pageSize > 0, \"pageSize cannot be zero\");\n\t\t\n\t\tuint256 cursor = (pageNumber - 1) * pageSize;\n\t\tuint256 totalDragons = IERC721Enumerable(_dragonAddress).totalSupply();\n\n\t\trequire(cursor <= totalDragons, \"Out of range page\");\n\n\t\tuint256 length = pageSize;\n\t\tif (length > totalDragons - cursor) {\n\t\t\tlength = totalDragons - cursor;\n\t\t}\n\n\t\tdragonPagesData = new DragonLibrary.DragonFetchPageData[](length);\n\t\tfor (uint256 i = 0; i < length; i++) {\n\t\t\tuint256 tokenId = cursor + i;\n\t\t\taddress dragonOwner = IERC721(_dragonAddress).ownerOf(tokenId);\n\t\t\tdragonPagesData[i] = DragonLibrary.DragonFetchPageData( {\n\t\t\t\tdragonId: tokenId,\n\t\t\t\towner: dragonOwner,\n\t\t\t\tonSale: isDragonOnSale(dragonOwner)\n\t\t\t});\n\t\t}\n\n\t\tuint256 pages = (totalDragons / pageSize);\n\t\tif (totalDragons - (pages * pageSize) > 0) {\n\t\t\tpages += 1;\n\t\t}\n\t\treturn (pages, dragonPagesData);\n    }\n\n\t/**\n\t * @dev Get all dragons ids owned by owner address\n\t */\n\tfunction getDragonsIdsByOwner(address owner) external view returns (uint256[] memory) {\n\t\tIERC721Enumerable dragonContract = IERC721Enumerable(_dragonAddress);\n\t\tuint256 balance = dragonContract.balanceOf(owner);\n\t\tuint[] memory tokensOfOwner = new uint[](balance);\n\t\tfor (uint256 i = 0; i < balance; i++) {\n\t\t\ttokensOfOwner[i] = dragonContract.tokenOfOwnerByIndex(owner, i);\n\t\t}\n\t\treturn tokensOfOwner;\n\t}\n\n\t/**\n\t * @dev Get dragon data by dragon id\n\t */\n\tfunction getDragonById(uint256 dragonId) external view returns (DragonLibrary.Dragon memory) {\n\t\treturn IDragonContract(_dragonAddress).getDragonById(dragonId);\n\t}\n\n\t/**\n\t * @dev Get amount of dragons owned by owner address\n\t */\n\tfunction getDragonsCountByOwner(address owner) external view returns (uint256) {\n\t\treturn IERC721Enumerable(_dragonAddress).balanceOf(owner);\n\t}\n\n\t/**\n\t * @dev return if dragon is in egg stage\n\t */\n\tfunction isEgg(uint256 dragonId) public view returns (bool) {\n\t\tDragonLibrary.Dragon memory dragon = IDragonContract(_dragonAddress).getDragonById(dragonId);\n\t\tuint256 lifeTimeSinceCreation = (block.timestamp - dragon.creationTime) * 60;\n\t\treturn (lifeTimeSinceCreation < dragon.hatchTime);\n\t}\n\n\tfunction getVisualAttributes(uint256 dragonId)\n\t\texternal\n\t\tview\n\t\treturns (DragonLibrary.DragonVisualAttributes memory)\n\t{\n\t\tDragonLibrary.Dragon memory dragon = IDragonContract(_dragonAddress).getDragonById(dragonId);\n\t\treturn IGenesLaboratory(_genesLaboratory).getVisualAttributes(dragon.genes);\n\t}\n\n\tfunction isDragonOnSale(address dragonOwner) internal virtual view returns (bool) {\n\t\treturn false;\n\t}\n}",
  "sourcePath": "/usr/src/app/contractGetter/contracts/public/DragonApi.sol",
  "compiler": {
    "name": "solc",
    "version": "0.8.4+commit.c7e474f2.Emscripten.clang"
  },
  "schemaVersion": "3.4.1",
  "updatedAt": "2023-02-02T14:38:51.983Z",
  "networkType": "ethereum",
  "devdoc": {
    "kind": "dev",
    "methods": {
      "getDragonById(uint256)": {
        "details": "Get dragon data by dragon id"
      },
      "getDragonsByPage(uint256,uint256)": {
        "details": "Return dragons with pagination",
        "params": {
          "pageNumber": "page starting with value 1. Page 1 will return dragons with id 0 to pageSize",
          "pageSize": "amount of dragons that will be returned in each page"
        },
        "returns": {
          "dragonPagesData": "all dragon ids contain in the resulting page",
          "totalPages": "amount of pages that can be fetched"
        }
      },
      "getDragonsCountByOwner(address)": {
        "details": "Get amount of dragons owned by owner address"
      },
      "getDragonsIdsByOwner(address)": {
        "details": "Get all dragons ids owned by owner address"
      },
      "isEgg(uint256)": {
        "details": "return if dragon is in egg stage"
      }
    },
    "version": 1
  },
  "userdoc": {
    "kind": "user",
    "methods": {},
    "version": 1
  }
}