{
  "contractName": "DragonApi",
  "abi": [
    {
      "inputs": [
        {
          "internalType": "address",
          "name": "dragonAddress",
          "type": "address"
        },
        {
          "internalType": "address",
          "name": "genesLaboratory",
          "type": "address"
        }
      ],
      "stateMutability": "nonpayable",
      "type": "constructor"
    },
    {
      "inputs": [
        {
          "internalType": "address",
          "name": "owner",
          "type": "address"
        }
      ],
      "name": "getDragonsIdsByOwner",
      "outputs": [
        {
          "internalType": "uint256[]",
          "name": "tokenIds",
          "type": "uint256[]"
        }
      ],
      "stateMutability": "view",
      "type": "function"
    },
    {
      "inputs": [
        {
          "internalType": "uint256",
          "name": "dragonId",
          "type": "uint256"
        }
      ],
      "name": "getDragonById",
      "outputs": [
        {
          "components": [
            {
              "internalType": "bytes32",
              "name": "genes",
              "type": "bytes32"
            },
            {
              "internalType": "bytes32",
              "name": "name",
              "type": "bytes32"
            },
            {
              "internalType": "uint64",
              "name": "creationTime",
              "type": "uint64"
            },
            {
              "internalType": "uint32",
              "name": "dadId",
              "type": "uint32"
            },
            {
              "internalType": "uint32",
              "name": "motherId",
              "type": "uint32"
            },
            {
              "internalType": "uint32",
              "name": "currentExperience",
              "type": "uint32"
            },
            {
              "internalType": "uint16",
              "name": "actionCooldown",
              "type": "uint16"
            },
            {
              "internalType": "uint16",
              "name": "health",
              "type": "uint16"
            },
            {
              "internalType": "uint16",
              "name": "strength",
              "type": "uint16"
            },
            {
              "internalType": "uint16",
              "name": "agility",
              "type": "uint16"
            },
            {
              "internalType": "uint16",
              "name": "fortitude",
              "type": "uint16"
            },
            {
              "internalType": "uint16",
              "name": "hatchTime",
              "type": "uint16"
            },
            {
              "internalType": "uint8",
              "name": "blockchainOriginId",
              "type": "uint8"
            }
          ],
          "internalType": "struct DragonLibrary.Dragon",
          "name": "",
          "type": "tuple"
        }
      ],
      "stateMutability": "view",
      "type": "function"
    },
    {
      "inputs": [
        {
          "internalType": "address",
          "name": "owner",
          "type": "address"
        }
      ],
      "name": "getDragonsCountByOwner",
      "outputs": [
        {
          "internalType": "uint256",
          "name": "",
          "type": "uint256"
        }
      ],
      "stateMutability": "view",
      "type": "function"
    },
    {
      "inputs": [
        {
          "internalType": "uint256",
          "name": "dragonId",
          "type": "uint256"
        }
      ],
      "name": "isEgg",
      "outputs": [
        {
          "internalType": "bool",
          "name": "",
          "type": "bool"
        }
      ],
      "stateMutability": "view",
      "type": "function"
    },
    {
      "inputs": [
        {
          "internalType": "uint256",
          "name": "dragonId",
          "type": "uint256"
        }
      ],
      "name": "getVisualAttributes",
      "outputs": [
        {
          "internalType": "uint16",
          "name": "head",
          "type": "uint16"
        },
        {
          "internalType": "uint16",
          "name": "body",
          "type": "uint16"
        },
        {
          "internalType": "uint16",
          "name": "wings",
          "type": "uint16"
        }
      ],
      "stateMutability": "view",
      "type": "function"
    }
  ],
  "bytecode": "0x60806040523480156200001157600080fd5b50604051620013fb380380620013fb8339818101604052810190620000379190620001bd565b600073ffffffffffffffffffffffffffffffffffffffff168273ffffffffffffffffffffffffffffffffffffffff161415620000aa576040517f08c379a0000000000000000000000000000000000000000000000000000000008152600401620000a1906200024c565b60405180910390fd5b600073ffffffffffffffffffffffffffffffffffffffff168173ffffffffffffffffffffffffffffffffffffffff1614156200011d576040517f08c379a000000000000000000000000000000000000000000000000000000000815260040162000114906200026e565b60405180910390fd5b816000806101000a81548173ffffffffffffffffffffffffffffffffffffffff021916908373ffffffffffffffffffffffffffffffffffffffff16021790555080600160006101000a81548173ffffffffffffffffffffffffffffffffffffffff021916908373ffffffffffffffffffffffffffffffffffffffff160217905550505062000341565b600081519050620001b78162000327565b92915050565b60008060408385031215620001d157600080fd5b6000620001e185828601620001a6565b9250506020620001f485828601620001a6565b9150509250929050565b60006200020d60168362000290565b91506200021a82620002d5565b602082019050919050565b60006200023460208362000290565b91506200024182620002fe565b602082019050919050565b600060208201905081810360008301526200026781620001fe565b9050919050565b60006020820190508181036000830152620002898162000225565b9050919050565b600082825260208201905092915050565b6000620002ae82620002b5565b9050919050565b600073ffffffffffffffffffffffffffffffffffffffff82169050919050565b7f496e76616c696420647261676f6e206164647265737300000000000000000000600082015250565b7f496e76616c69642067656e6573206c61626f7261746f72792061646472657373600082015250565b6200033281620002a1565b81146200033e57600080fd5b50565b6110aa80620003516000396000f3fe608060405234801561001057600080fd5b50600436106100575760003560e01c80630469e8ac1461005c5780632014a8be1461008c578063c9cf5570146100be578063d9b6e2f7146100ee578063dfd4e4a41461011e575b600080fd5b61007660048036038101906100719190610949565b61014e565b6040516100839190610ca7565b60405180910390f35b6100a660048036038101906100a191906109eb565b6102f9565b6040516100b593929190610d1b565b60405180910390f35b6100d860048036038101906100d391906109eb565b61046e565b6040516100e59190610cff565b60405180910390f35b61010860048036038101906101039190610949565b610527565b6040516101159190610d52565b60405180910390f35b610138600480360381019061013391906109eb565b6105da565b6040516101459190610cc9565b60405180910390f35b606060008060009054906101000a900473ffffffffffffffffffffffffffffffffffffffff16905060008173ffffffffffffffffffffffffffffffffffffffff166370a08231856040518263ffffffff1660e01b81526004016101b19190610c63565b60206040518083038186803b1580156101c957600080fd5b505afa1580156101dd573d6000803e3d6000fd5b505050506040513d601f19601f820116820180604052508101906102019190610a14565b905060005b818110156102f1578273ffffffffffffffffffffffffffffffffffffffff16632f745c5986836040518363ffffffff1660e01b8152600401610249929190610c7e565b60206040518083038186803b15801561026157600080fd5b505afa158015610275573d6000803e3d6000fd5b505050506040513d601f19601f820116820180604052508101906102999190610a14565b8482815181106102d2577f4e487b7100000000000000000000000000000000000000000000000000000000600052603260045260246000fd5b60200260200101818152505080806102e990610f1b565b915050610206565b505050919050565b60008060008060008054906101000a900473ffffffffffffffffffffffffffffffffffffffff1673ffffffffffffffffffffffffffffffffffffffff1663c9cf5570866040518263ffffffff1660e01b81526004016103589190610d52565b6101a06040518083038186803b15801561037157600080fd5b505afa158015610385573d6000803e3d6000fd5b505050506040513d601f19601f820116820180604052508101906103a99190610972565b9050600160009054906101000a900473ffffffffffffffffffffffffffffffffffffffff1673ffffffffffffffffffffffffffffffffffffffff166391926cff82600001516040518263ffffffff1660e01b815260040161040a9190610ce4565b60606040518083038186803b15801561042257600080fd5b505afa158015610436573d6000803e3d6000fd5b505050506040513d601f19601f8201168201806040525081019061045a919061099c565b809450819550829650505050509193909250565b6104766106c8565b60008054906101000a900473ffffffffffffffffffffffffffffffffffffffff1673ffffffffffffffffffffffffffffffffffffffff1663c9cf5570836040518263ffffffff1660e01b81526004016104cf9190610d52565b6101a06040518083038186803b1580156104e857600080fd5b505afa1580156104fc573d6000803e3d6000fd5b505050506040513d601f19601f820116820180604052508101906105209190610972565b9050919050565b60008060009054906101000a900473ffffffffffffffffffffffffffffffffffffffff1673ffffffffffffffffffffffffffffffffffffffff166370a08231836040518263ffffffff1660e01b81526004016105839190610c63565b60206040518083038186803b15801561059b57600080fd5b505afa1580156105af573d6000803e3d6000fd5b505050506040513d601f19601f820116820180604052508101906105d39190610a14565b9050919050565b60008060008054906101000a900473ffffffffffffffffffffffffffffffffffffffff1673ffffffffffffffffffffffffffffffffffffffff1663c9cf5570846040518263ffffffff1660e01b81526004016106369190610d52565b6101a06040518083038186803b15801561064f57600080fd5b505afa158015610663573d6000803e3d6000fd5b505050506040513d601f19601f820116820180604052508101906106879190610972565b90506000603c826040015167ffffffffffffffff16426106a79190610e25565b6106b19190610dcb565b905081610160015161ffff16811092505050919050565b604051806101a001604052806000801916815260200160008019168152602001600067ffffffffffffffff168152602001600063ffffffff168152602001600063ffffffff168152602001600063ffffffff168152602001600061ffff168152602001600061ffff168152602001600061ffff168152602001600061ffff168152602001600061ffff168152602001600061ffff168152602001600060ff1681525090565b60008135905061077c81610fd3565b92915050565b60008151905061079181610fea565b92915050565b60006101a082840312156107aa57600080fd5b6107b56101a0610d6d565b905060006107c584828501610782565b60008301525060206107d984828501610782565b60208301525060406107ed8482850161091f565b60408301525060606108018482850161090a565b60608301525060806108158482850161090a565b60808301525060a06108298482850161090a565b60a08301525060c061083d848285016108cb565b60c08301525060e0610851848285016108cb565b60e083015250610100610866848285016108cb565b6101008301525061012061087c848285016108cb565b61012083015250610140610892848285016108cb565b610140830152506101606108a8848285016108cb565b610160830152506101806108be84828501610934565b6101808301525092915050565b6000815190506108da81611001565b92915050565b6000813590506108ef81611018565b92915050565b60008151905061090481611018565b92915050565b6000815190506109198161102f565b92915050565b60008151905061092e81611046565b92915050565b6000815190506109438161105d565b92915050565b60006020828403121561095b57600080fd5b60006109698482850161076d565b91505092915050565b60006101a0828403121561098557600080fd5b600061099384828501610797565b91505092915050565b6000806000606084860312156109b157600080fd5b60006109bf868287016108cb565b93505060206109d0868287016108cb565b92505060406109e1868287016108cb565b9150509250925092565b6000602082840312156109fd57600080fd5b6000610a0b848285016108e0565b91505092915050565b600060208284031215610a2657600080fd5b6000610a34848285016108f5565b91505092915050565b6000610a498383610c18565b60208301905092915050565b610a5e81610e59565b82525050565b6000610a6f82610da2565b610a798185610dba565b9350610a8483610d92565b8060005b83811015610ab5578151610a9c8882610a3d565b9750610aa783610dad565b925050600181019050610a88565b5085935050505092915050565b610acb81610e6b565b82525050565b610ada81610e77565b82525050565b610ae981610e77565b82525050565b6101a082016000820151610b066000850182610ad1565b506020820151610b196020850182610ad1565b506040820151610b2c6040850182610c45565b506060820151610b3f6060850182610c36565b506080820151610b526080850182610c36565b5060a0820151610b6560a0850182610c36565b5060c0820151610b7860c0850182610bfa565b5060e0820151610b8b60e0850182610bfa565b50610100820151610ba0610100850182610bfa565b50610120820151610bb5610120850182610bfa565b50610140820151610bca610140850182610bfa565b50610160820151610bdf610160850182610bfa565b50610180820151610bf4610180850182610c54565b50505050565b610c0381610e81565b82525050565b610c1281610e81565b82525050565b610c2181610eaf565b82525050565b610c3081610eaf565b82525050565b610c3f81610eb9565b82525050565b610c4e81610ec9565b82525050565b610c5d81610edd565b82525050565b6000602082019050610c786000830184610a55565b92915050565b6000604082019050610c936000830185610a55565b610ca06020830184610c27565b9392505050565b60006020820190508181036000830152610cc18184610a64565b905092915050565b6000602082019050610cde6000830184610ac2565b92915050565b6000602082019050610cf96000830184610ae0565b92915050565b60006101a082019050610d156000830184610aef565b92915050565b6000606082019050610d306000830186610c09565b610d3d6020830185610c09565b610d4a6040830184610c09565b949350505050565b6000602082019050610d676000830184610c27565b92915050565b6000610d77610d88565b9050610d838282610eea565b919050565b6000604051905090565b6000819050602082019050919050565b600081519050919050565b6000602082019050919050565b600082825260208201905092915050565b6000610dd682610eaf565b9150610de183610eaf565b9250817fffffffffffffffffffffffffffffffffffffffffffffffffffffffffffffffff0483118215151615610e1a57610e19610f64565b5b828202905092915050565b6000610e3082610eaf565b9150610e3b83610eaf565b925082821015610e4e57610e4d610f64565b5b828203905092915050565b6000610e6482610e8f565b9050919050565b60008115159050919050565b6000819050919050565b600061ffff82169050919050565b600073ffffffffffffffffffffffffffffffffffffffff82169050919050565b6000819050919050565b600063ffffffff82169050919050565b600067ffffffffffffffff82169050919050565b600060ff82169050919050565b610ef382610fc2565b810181811067ffffffffffffffff82111715610f1257610f11610f93565b5b80604052505050565b6000610f2682610eaf565b91507fffffffffffffffffffffffffffffffffffffffffffffffffffffffffffffffff821415610f5957610f58610f64565b5b600182019050919050565b7f4e487b7100000000000000000000000000000000000000000000000000000000600052601160045260246000fd5b7f4e487b7100000000000000000000000000000000000000000000000000000000600052604160045260246000fd5b6000601f19601f8301169050919050565b610fdc81610e59565b8114610fe757600080fd5b50565b610ff381610e77565b8114610ffe57600080fd5b50565b61100a81610e81565b811461101557600080fd5b50565b61102181610eaf565b811461102c57600080fd5b50565b61103881610eb9565b811461104357600080fd5b50565b61104f81610ec9565b811461105a57600080fd5b50565b61106681610edd565b811461107157600080fd5b5056fea26469706673582212208273cf38252014df0762d373ef38c701020482f2b08fad08098cb21b90d73f4564736f6c63430008040033",
  "immutableReferences": {},
  "source": "// SPDX-License-Identifier: GPL-3.0 License\n\npragma solidity ^0.8.0;\n\nimport '../common/token/IERC721Enumerable.sol';\nimport '../common/libraries/DragonLibrary.sol';\n\ninterface IDragonContract {\n\tfunction getDragonById(uint256 _dragonId) external view returns (DragonLibrary.Dragon memory);\n}\n\ninterface IGenesLaboratory {\n\tfunction getVisualAttributes(bytes32 genes)\n\t\texternal\n\t\tpure\n\t\treturns (\n\t\t\tuint16 head,\n\t\t\tuint16 body,\n\t\t\tuint16 wings\n\t\t);\n}\n\ncontract DragonApi {\n\n    address internal _dragonAddress;\n\taddress internal _genesLaboratory;\n\n    constructor(address dragonAddress, address genesLaboratory) {\n\t\trequire(dragonAddress != address(0), 'Invalid dragon address');\n\t\trequire(genesLaboratory != address(0), 'Invalid genes laboratory address');\n\n\t\t_dragonAddress = dragonAddress;\n\t\t_genesLaboratory = genesLaboratory;\n\t}\n\n\t/*******************************************************************************************\n        Actions\n    ********************************************************************************************/\n\n\t/*******************************************************************************************\n        GETTERS\n    ********************************************************************************************/\n\n\t/**\n\t * @dev Get all dragons ids owned by owner address\n\t */\n\tfunction getDragonsIdsByOwner(address owner) external view returns (uint256[] memory tokenIds) {\n\t\tIERC721Enumerable dragonContract = IERC721Enumerable(_dragonAddress);\n\t\tuint256 balance = dragonContract.balanceOf(owner);\n\t\tfor (uint256 i = 0; i < balance; i++) {\n\t\t\ttokenIds[i] = dragonContract.tokenOfOwnerByIndex(owner, i);\n\t\t}\n\t}\n\n\t/**\n\t * @dev Get dragon data by dragon id\n\t */\n\tfunction getDragonById(uint256 dragonId) external view returns (DragonLibrary.Dragon memory) {\n\t\treturn IDragonContract(_dragonAddress).getDragonById(dragonId);\n\t}\n\n\t/**\n\t * @dev Get amount of dragons owned by owner address\n\t */\n\tfunction getDragonsCountByOwner(address owner) external view returns (uint256) {\n\t\treturn IERC721Enumerable(_dragonAddress).balanceOf(owner);\n\t}\n\n\t/**\n\t * @dev return if dragon is in egg stage\n\t */\n\tfunction isEgg(uint256 dragonId) public view returns (bool) {\n\t\tDragonLibrary.Dragon memory dragon = IDragonContract(_dragonAddress).getDragonById(dragonId);\n\t\tuint256 lifeTimeSinceCreation = (block.timestamp - dragon.creationTime) * 60;\n\t\treturn (lifeTimeSinceCreation < dragon.hatchTime);\n\t}\n\n\tfunction getVisualAttributes(uint256 dragonId)\n\t\texternal\n\t\tview\n\t\treturns (\n\t\t\tuint16 head,\n\t\t\tuint16 body,\n\t\t\tuint16 wings\n\t\t)\n\t{\n\t\tDragonLibrary.Dragon memory dragon = IDragonContract(_dragonAddress).getDragonById(dragonId);\n\t\t(head, body, wings) = IGenesLaboratory(_genesLaboratory).getVisualAttributes(dragon.genes);\n\t}\n}",
  "sourcePath": "/mnt/d/Projects/cryptodragons/truffle-project/contracts/public/DragonApi.sol",
  "compiler": {
    "name": "solc",
    "version": "0.8.4+commit.c7e474f2.Emscripten.clang"
  },
  "schemaVersion": "3.4.3",
  "updatedAt": "2021-10-31T17:35:56.574Z",
  "devdoc": {
    "kind": "dev",
    "methods": {
      "getDragonById(uint256)": {
        "details": "Get dragon data by dragon id"
      },
      "getDragonsCountByOwner(address)": {
        "details": "Get amount of dragons owned by owner address"
      },
      "getDragonsIdsByOwner(address)": {
        "details": "Get all dragons ids owned by owner address"
      },
      "isEgg(uint256)": {
        "details": "return if dragon is in egg stage"
      }
    },
    "version": 1
  },
  "userdoc": {
    "kind": "user",
    "methods": {},
    "version": 1
  }
}