{
  "contractName": "DragonSerializer",
  "abi": [
    {
      "inputs": [
        {
          "internalType": "bytes",
          "name": "_data",
          "type": "bytes"
        }
      ],
      "name": "decodeDragonFromBytes",
      "outputs": [
        {
          "components": [
            {
              "internalType": "bytes32",
              "name": "genes",
              "type": "bytes32"
            },
            {
              "internalType": "bytes32",
              "name": "name",
              "type": "bytes32"
            },
            {
              "internalType": "uint64",
              "name": "creationTime",
              "type": "uint64"
            },
            {
              "internalType": "uint32",
              "name": "dadId",
              "type": "uint32"
            },
            {
              "internalType": "uint32",
              "name": "motherId",
              "type": "uint32"
            },
            {
              "internalType": "uint32",
              "name": "currentExperience",
              "type": "uint32"
            },
            {
              "internalType": "uint16",
              "name": "actionCooldown",
              "type": "uint16"
            },
            {
              "internalType": "uint16",
              "name": "health",
              "type": "uint16"
            },
            {
              "internalType": "uint16",
              "name": "strength",
              "type": "uint16"
            },
            {
              "internalType": "uint16",
              "name": "agility",
              "type": "uint16"
            },
            {
              "internalType": "uint16",
              "name": "fortitude",
              "type": "uint16"
            },
            {
              "internalType": "uint16",
              "name": "hatchTime",
              "type": "uint16"
            },
            {
              "internalType": "uint8",
              "name": "blockchainOriginId",
              "type": "uint8"
            }
          ],
          "internalType": "struct DragonLibrary.Dragon",
          "name": "dragon",
          "type": "tuple"
        }
      ],
      "stateMutability": "pure",
      "type": "function",
      "constant": true
    },
    {
      "inputs": [
        {
          "internalType": "bytes",
          "name": "_data",
          "type": "bytes"
        }
      ],
      "name": "decodeBlockchainIdFromData",
      "outputs": [
        {
          "internalType": "uint8",
          "name": "blockchainId",
          "type": "uint8"
        }
      ],
      "stateMutability": "pure",
      "type": "function",
      "constant": true
    },
    {
      "inputs": [
        {
          "components": [
            {
              "internalType": "bytes32",
              "name": "genes",
              "type": "bytes32"
            },
            {
              "internalType": "bytes32",
              "name": "name",
              "type": "bytes32"
            },
            {
              "internalType": "uint64",
              "name": "creationTime",
              "type": "uint64"
            },
            {
              "internalType": "uint32",
              "name": "dadId",
              "type": "uint32"
            },
            {
              "internalType": "uint32",
              "name": "motherId",
              "type": "uint32"
            },
            {
              "internalType": "uint32",
              "name": "currentExperience",
              "type": "uint32"
            },
            {
              "internalType": "uint16",
              "name": "actionCooldown",
              "type": "uint16"
            },
            {
              "internalType": "uint16",
              "name": "health",
              "type": "uint16"
            },
            {
              "internalType": "uint16",
              "name": "strength",
              "type": "uint16"
            },
            {
              "internalType": "uint16",
              "name": "agility",
              "type": "uint16"
            },
            {
              "internalType": "uint16",
              "name": "fortitude",
              "type": "uint16"
            },
            {
              "internalType": "uint16",
              "name": "hatchTime",
              "type": "uint16"
            },
            {
              "internalType": "uint8",
              "name": "blockchainOriginId",
              "type": "uint8"
            }
          ],
          "internalType": "struct DragonLibrary.Dragon",
          "name": "_dragon",
          "type": "tuple"
        }
      ],
      "name": "encodeDragonToBytes",
      "outputs": [
        {
          "internalType": "bytes",
          "name": "",
          "type": "bytes"
        }
      ],
      "stateMutability": "pure",
      "type": "function",
      "constant": true
    }
  ],
  "bytecode": "0x608060405234801561001057600080fd5b50611d5d806100206000396000f3fe608060405234801561001057600080fd5b50600436106100415760003560e01c80630cb6d1e2146100465780631ebe57ea14610076578063459efab6146100a6575b600080fd5b610060600480360381019061005b9190611833565b6100d6565b60405161006d91906119fb565b60405180910390f35b610090600480360381019061008b91906117ee565b610b1d565b60405161009d9190611a39565b60405180910390f35b6100c060048036038101906100bb91906117ee565b610b6e565b6040516100cd9190611a1d565b60405180910390f35b606060006061905060008167ffffffffffffffff811115610120577f4e487b7100000000000000000000000000000000000000000000000000000000600052604160045260246000fd5b6040519080825280601f01601f1916602001820160405280156101525781602001600182028036833780820191505090505b5090506000805b602081101561022c578560000151816020811061019f577f4e487b7100000000000000000000000000000000000000000000000000000000600052603260045260246000fd5b1a60f81b8383815181106101dc577f4e487b7100000000000000000000000000000000000000000000000000000000600052603260045260246000fd5b60200101907effffffffffffffffffffffffffffffffffffffffffffffffffffffffffffff1916908160001a905350818061021690611bfc565b925050808061022490611bfc565b915050610159565b5060005b60208110156103035785602001518160208110610276577f4e487b7100000000000000000000000000000000000000000000000000000000600052603260045260246000fd5b1a60f81b8383815181106102b3577f4e487b7100000000000000000000000000000000000000000000000000000000600052603260045260246000fd5b60200101907effffffffffffffffffffffffffffffffffffffffffffffffffffffffffffff1916908160001a90535081806102ed90611bfc565b92505080806102fb90611bfc565b915050610230565b5060005b60088110156103c35760ff63ffffffff168160086103259190611aeb565b16866040015167ffffffffffffffff16901c60f81b838381518110610373577f4e487b7100000000000000000000000000000000000000000000000000000000600052603260045260246000fd5b60200101907effffffffffffffffffffffffffffffffffffffffffffffffffffffffffffff1916908160001a90535081806103ad90611bfc565b92505080806103bb90611bfc565b915050610307565b5060005b600481101561047f5760ff63ffffffff168160086103e59190611aeb565b16866060015163ffffffff16901c60f81b83838151811061042f577f4e487b7100000000000000000000000000000000000000000000000000000000600052603260045260246000fd5b60200101907effffffffffffffffffffffffffffffffffffffffffffffffffffffffffffff1916908160001a905350818061046990611bfc565b925050808061047790611bfc565b9150506103c7565b5060005b600481101561053b5760ff63ffffffff168160086104a19190611aeb565b16866080015163ffffffff16901c60f81b8383815181106104eb577f4e487b7100000000000000000000000000000000000000000000000000000000600052603260045260246000fd5b60200101907effffffffffffffffffffffffffffffffffffffffffffffffffffffffffffff1916908160001a905350818061052590611bfc565b925050808061053390611bfc565b915050610483565b5060005b60048110156105f75760ff63ffffffff1681600861055d9190611aeb565b168660a0015163ffffffff16901c60f81b8383815181106105a7577f4e487b7100000000000000000000000000000000000000000000000000000000600052603260045260246000fd5b60200101907effffffffffffffffffffffffffffffffffffffffffffffffffffffffffffff1916908160001a90535081806105e190611bfc565b92505080806105ef90611bfc565b91505061053f565b5060005b60028110156106b15760ff63ffffffff168160086106199190611aeb565b168660c0015161ffff16901c60f81b838381518110610661577f4e487b7100000000000000000000000000000000000000000000000000000000600052603260045260246000fd5b60200101907effffffffffffffffffffffffffffffffffffffffffffffffffffffffffffff1916908160001a905350818061069b90611bfc565b92505080806106a990611bfc565b9150506105fb565b5060005b600281101561076b5760ff63ffffffff168160086106d39190611aeb565b168660e0015161ffff16901c60f81b83838151811061071b577f4e487b7100000000000000000000000000000000000000000000000000000000600052603260045260246000fd5b60200101907effffffffffffffffffffffffffffffffffffffffffffffffffffffffffffff1916908160001a905350818061075590611bfc565b925050808061076390611bfc565b9150506106b5565b5060005b60028110156108265760ff63ffffffff1681600861078d9190611aeb565b1686610100015161ffff16901c60f81b8383815181106107d6577f4e487b7100000000000000000000000000000000000000000000000000000000600052603260045260246000fd5b60200101907effffffffffffffffffffffffffffffffffffffffffffffffffffffffffffff1916908160001a905350818061081090611bfc565b925050808061081e90611bfc565b91505061076f565b5060005b60028110156108e15760ff63ffffffff168160086108489190611aeb565b1686610120015161ffff16901c60f81b838381518110610891577f4e487b7100000000000000000000000000000000000000000000000000000000600052603260045260246000fd5b60200101907effffffffffffffffffffffffffffffffffffffffffffffffffffffffffffff1916908160001a90535081806108cb90611bfc565b92505080806108d990611bfc565b91505061082a565b5060005b600281101561099c5760ff63ffffffff168160086109039190611aeb565b1686610140015161ffff16901c60f81b83838151811061094c577f4e487b7100000000000000000000000000000000000000000000000000000000600052603260045260246000fd5b60200101907effffffffffffffffffffffffffffffffffffffffffffffffffffffffffffff1916908160001a905350818061098690611bfc565b925050808061099490611bfc565b9150506108e5565b5060005b6002811015610a575760ff63ffffffff168160086109be9190611aeb565b1686610160015161ffff16901c60f81b838381518110610a07577f4e487b7100000000000000000000000000000000000000000000000000000000600052603260045260246000fd5b60200101907effffffffffffffffffffffffffffffffffffffffffffffffffffffffffffff1916908160001a9053508180610a4190611bfc565b9250508080610a4f90611bfc565b9150506109a0565b5060005b6001811015610b115760ff63ffffffff16816008610a799190611aeb565b1686610180015160ff16901c60f81b838381518110610ac1577f4e487b7100000000000000000000000000000000000000000000000000000000600052603260045260246000fd5b60200101907effffffffffffffffffffffffffffffffffffffffffffffffffffffffffffff1916908160001a9053508180610afb90611bfc565b9250508080610b0990611bfc565b915050610a5b565b50819350505050919050565b600082826060818110610b59577f4e487b7100000000000000000000000000000000000000000000000000000000600052603260045260246000fd5b9050013560f81c60f81b60f81c905092915050565b610b76611562565b610bc383838080601f016020809104026020016040519081016040528093929190818152602001838380828437600081840152601f19601f82011690508083019250505050505050610d4b565b846000018560200186604001876060018463ffffffff1663ffffffff168152508467ffffffffffffffff1667ffffffffffffffff16815250848152508481525050505050610c5483838080601f016020809104026020016040519081016040528093929190818152602001838380828437600081840152601f19601f82011690508083019250505050505050610f65565b856080018660a0018760c0018860e00189610100018561ffff1661ffff168152508561ffff1661ffff168152508561ffff1661ffff168152508563ffffffff1663ffffffff168152508563ffffffff1663ffffffff168152505050505050610cff83838080601f016020809104026020016040519081016040528093929190818152602001838380828437600081840152601f19601f82011690508083019250505050505050611278565b84610120018561014001866101600187610180018460ff1660ff168152508461ffff1661ffff168152508461ffff1661ffff168152508461ffff1661ffff168152505050505092915050565b6000806000806000805b6020811015610e0957600881610d6b9190611aeb565b60ff60f81b888385610d7d9190611a95565b81518110610db4577f4e487b7100000000000000000000000000000000000000000000000000000000600052603260045260246000fd5b602001015160f81c60f81b167effffffffffffffffffffffffffffffffffffffffffffffffffffffffffffff1916901c861795508180610df390611bfc565b9250508080610e0190611bfc565b915050610d55565b50610e1486826114ad565b9350602081610e239190611a95565b905060005b6008811015610ec2576000878381518110610e6c577f4e487b7100000000000000000000000000000000000000000000000000000000600052603260045260246000fd5b602001015160f81c60f81b60f81c60ff169050816008610e8c9190611aeb565b8167ffffffffffffffff16901b905080851894508280610eab90611bfc565b935050508080610eba90611bfc565b915050610e28565b5060005b6004811015610f5c576000878381518110610f0a577f4e487b7100000000000000000000000000000000000000000000000000000000600052603260045260246000fd5b602001015160f81c60f81b60f81c60ff169050816008610f2a9190611aeb565b8163ffffffff16901b905080841893508280610f4590611bfc565b935050508080610f5490611bfc565b915050610ec6565b50509193509193565b600080600080600080604c905060005b600481101561100b576000888381518110610fb9577f4e487b7100000000000000000000000000000000000000000000000000000000600052603260045260246000fd5b602001015160f81c60f81b60f81c60ff169050816008610fd99190611aeb565b8163ffffffff16901b905080881897508280610ff490611bfc565b93505050808061100390611bfc565b915050610f75565b5060005b60048110156110a5576000888381518110611053577f4e487b7100000000000000000000000000000000000000000000000000000000600052603260045260246000fd5b602001015160f81c60f81b60f81c60ff1690508160086110739190611aeb565b8163ffffffff16901b90508087189650828061108e90611bfc565b93505050808061109d90611bfc565b91505061100f565b5060005b600281101561113d5760008883815181106110ed577f4e487b7100000000000000000000000000000000000000000000000000000000600052603260045260246000fd5b602001015160f81c60f81b60f81c60ff16905081600861110d9190611aeb565b8161ffff16901b90508086189550828061112690611bfc565b93505050808061113590611bfc565b9150506110a9565b5060005b60028110156111d5576000888381518110611185577f4e487b7100000000000000000000000000000000000000000000000000000000600052603260045260246000fd5b602001015160f81c60f81b60f81c60ff1690508160086111a59190611aeb565b8161ffff16901b9050808518945082806111be90611bfc565b9350505080806111cd90611bfc565b915050611141565b5060005b600281101561126d57600088838151811061121d577f4e487b7100000000000000000000000000000000000000000000000000000000600052603260045260246000fd5b602001015160f81c60f81b60f81c60ff16905081600861123d9190611aeb565b8161ffff16901b90508084189350828061125690611bfc565b93505050808061126590611bfc565b9150506111d9565b505091939590929450565b6000806000806000605a905060005b600281101561131b5760008783815181106112cb577f4e487b7100000000000000000000000000000000000000000000000000000000600052603260045260246000fd5b602001015160f81c60f81b60f81c60ff1690508160086112eb9190611aeb565b8161ffff16901b90508087189650828061130490611bfc565b93505050808061131390611bfc565b915050611287565b5060005b60028110156113b3576000878381518110611363577f4e487b7100000000000000000000000000000000000000000000000000000000600052603260045260246000fd5b602001015160f81c60f81b60f81c60ff1690508160086113839190611aeb565b8161ffff16901b90508086189550828061139c90611bfc565b9350505080806113ab90611bfc565b91505061131f565b5060005b600281101561144b5760008783815181106113fb577f4e487b7100000000000000000000000000000000000000000000000000000000600052603260045260246000fd5b602001015160f81c60f81b60f81c60ff16905081600861141b9190611aeb565b8161ffff16901b90508085189450828061143490611bfc565b93505050808061144390611bfc565b9150506113b7565b50858181518110611485577f4e487b7100000000000000000000000000000000000000000000000000000000600052603260045260246000fd5b602001015160f81c60f81b60f81c8218915080806114a290611bfc565b915050509193509193565b600080600090505b602081101561155b576008816114cb9190611aeb565b60ff60f81b8583866114dd9190611a95565b81518110611514577f4e487b7100000000000000000000000000000000000000000000000000000000600052603260045260246000fd5b602001015160f81c60f81b167effffffffffffffffffffffffffffffffffffffffffffffffffffffffffffff1916901c82179150808061155390611bfc565b9150506114b5565b5092915050565b604051806101a001604052806000801916815260200160008019168152602001600067ffffffffffffffff168152602001600063ffffffff168152602001600063ffffffff168152602001600063ffffffff168152602001600061ffff168152602001600061ffff168152602001600061ffff168152602001600061ffff168152602001600061ffff168152602001600061ffff168152602001600060ff1681525090565b60008135905061161681611cb4565b92915050565b60008083601f84011261162e57600080fd5b8235905067ffffffffffffffff81111561164757600080fd5b60208301915083600182028301111561165f57600080fd5b9250929050565b60006101a0828403121561167957600080fd5b6116846101a0611a54565b9050600061169484828501611607565b60008301525060206116a884828501611607565b60208301525060406116bc848285016117c4565b60408301525060606116d0848285016117af565b60608301525060806116e4848285016117af565b60808301525060a06116f8848285016117af565b60a08301525060c061170c8482850161179a565b60c08301525060e06117208482850161179a565b60e0830152506101006117358482850161179a565b6101008301525061012061174b8482850161179a565b610120830152506101406117618482850161179a565b610140830152506101606117778482850161179a565b6101608301525061018061178d848285016117d9565b6101808301525092915050565b6000813590506117a981611ccb565b92915050565b6000813590506117be81611ce2565b92915050565b6000813590506117d381611cf9565b92915050565b6000813590506117e881611d10565b92915050565b6000806020838503121561180157600080fd5b600083013567ffffffffffffffff81111561181b57600080fd5b6118278582860161161c565b92509250509250929050565b60006101a0828403121561184657600080fd5b600061185484828501611666565b91505092915050565b61186681611b45565b82525050565b600061187782611a79565b6118818185611a84565b9350611891818560208601611b98565b61189a81611ca3565b840191505092915050565b6101a0820160008201516118bc600085018261185d565b5060208201516118cf602085018261185d565b5060408201516118e260408501826119ce565b5060608201516118f560608501826119bf565b50608082015161190860808501826119bf565b5060a082015161191b60a08501826119bf565b5060c082015161192e60c08501826119b0565b5060e082015161194160e08501826119b0565b506101008201516119566101008501826119b0565b5061012082015161196b6101208501826119b0565b506101408201516119806101408501826119b0565b506101608201516119956101608501826119b0565b506101808201516119aa6101808501826119dd565b50505050565b6119b981611b4f565b82525050565b6119c881611b67565b82525050565b6119d781611b77565b82525050565b6119e681611b8b565b82525050565b6119f581611b8b565b82525050565b60006020820190508181036000830152611a15818461186c565b905092915050565b60006101a082019050611a3360008301846118a5565b92915050565b6000602082019050611a4e60008301846119ec565b92915050565b6000611a5e611a6f565b9050611a6a8282611bcb565b919050565b6000604051905090565b600081519050919050565b600082825260208201905092915050565b6000611aa082611b5d565b9150611aab83611b5d565b9250827fffffffffffffffffffffffffffffffffffffffffffffffffffffffffffffffff03821115611ae057611adf611c45565b5b828201905092915050565b6000611af682611b5d565b9150611b0183611b5d565b9250817fffffffffffffffffffffffffffffffffffffffffffffffffffffffffffffffff0483118215151615611b3a57611b39611c45565b5b828202905092915050565b6000819050919050565b600061ffff82169050919050565b6000819050919050565b600063ffffffff82169050919050565b600067ffffffffffffffff82169050919050565b600060ff82169050919050565b60005b83811015611bb6578082015181840152602081019050611b9b565b83811115611bc5576000848401525b50505050565b611bd482611ca3565b810181811067ffffffffffffffff82111715611bf357611bf2611c74565b5b80604052505050565b6000611c0782611b5d565b91507fffffffffffffffffffffffffffffffffffffffffffffffffffffffffffffffff821415611c3a57611c39611c45565b5b600182019050919050565b7f4e487b7100000000000000000000000000000000000000000000000000000000600052601160045260246000fd5b7f4e487b7100000000000000000000000000000000000000000000000000000000600052604160045260246000fd5b6000601f19601f8301169050919050565b611cbd81611b45565b8114611cc857600080fd5b50565b611cd481611b4f565b8114611cdf57600080fd5b50565b611ceb81611b67565b8114611cf657600080fd5b50565b611d0281611b77565b8114611d0d57600080fd5b50565b611d1981611b8b565b8114611d2457600080fd5b5056fea26469706673582212203f944fe1b3f1d4021d79761e56cd870df9b19daa9e0ec386fcdddae6ff71e03164736f6c63430008040033",
  "immutableReferences": {},
  "source": "// SPDX-License-Identifier: GPL-3.0 License\n\npragma solidity ^0.8.0;\n\nimport '../libraries/DragonLibrary.sol';\n\ncontract DragonSerializer {\n\tfunction decodeDragonFromBytes(bytes calldata _data) external pure returns (DragonLibrary.Dragon memory dragon) {\n\t\t(dragon.genes, dragon.name, dragon.creationTime, dragon.dadId) = decodeFirstThirdOfDragonFromBytes(_data);\n\n\t\t(\n\t\t\tdragon.motherId,\n\t\t\tdragon.currentExperience,\n\t\t\tdragon.actionCooldown,\n\t\t\tdragon.health,\n\t\t\tdragon.strength\n\t\t) = decodeSecondThirdOfDragonFromBytes(_data);\n\n\t\t(dragon.agility, dragon.fortitude, dragon.hatchTime, dragon.blockchainOriginId) = decodeThirdThirdOfDragonFromBytes(\n\t\t\t_data\n\t\t);\n\t}\n\n\tfunction decodeBlockchainIdFromData(bytes calldata _data) external pure returns (uint8 blockchainId) {\n\t\tblockchainId = uint8(_data[96]);\n\t}\n\n\t/**\n        Packed dragon data in an array of bytes\n    */\n\tfunction encodeDragonToBytes(DragonLibrary.Dragon memory _dragon) external pure returns (bytes memory) {\n\t\t// TODO update size in bytes whenever dragon struct is updated\n\t\tuint256 size = 97; //32 + 32 + 8 + 4 + 4 + 4 + 2 + 2 + 2 + 2 + 2 + 2 + 1;\n\t\tbytes memory encodedData = new bytes(size);\n\n\t\tuint256 counter = 0;\n\n\t\t// encode 32 bytes from genes\n\t\tfor (uint256 i = 0; i < 32; i++) {\n\t\t\tencodedData[counter] = _dragon.genes[i];\n\t\t\tcounter++;\n\t\t}\n\n\t\t// encode 32 bytes from name\n\t\tfor (uint256 i = 0; i < 32; i++) {\n\t\t\tencodedData[counter] = _dragon.name[i];\n\t\t\tcounter++;\n\t\t}\n\n\t\t// encode 8 bytes from creation time\n\t\tfor (uint256 i = 0; i < 8; i++) {\n\t\t\tencodedData[counter] = bytes1(uint8(_dragon.creationTime >> ((8 * i) & uint32(255))));\n\t\t\tcounter++;\n\t\t}\n\n\t\t// encode 4 bytes from dad id\n\t\tfor (uint256 i = 0; i < 4; i++) {\n\t\t\tencodedData[counter] = bytes1(uint8(_dragon.dadId >> ((8 * i) & uint32(255))));\n\t\t\tcounter++;\n\t\t}\n\n\t\t// encode 4 bytes from mother id\n\t\tfor (uint256 i = 0; i < 4; i++) {\n\t\t\tencodedData[counter] = bytes1(uint8(_dragon.motherId >> ((8 * i) & uint32(255))));\n\t\t\tcounter++;\n\t\t}\n\n\t\t// encode 4 bytes from current experience\n\t\tfor (uint256 i = 0; i < 4; i++) {\n\t\t\tencodedData[counter] = bytes1(uint8(_dragon.currentExperience >> ((8 * i) & uint32(255))));\n\t\t\tcounter++;\n\t\t}\n\n\t\t// encode 2 bytes from action cooldown\n\t\tfor (uint256 i = 0; i < 2; i++) {\n\t\t\tencodedData[counter] = bytes1(uint8(_dragon.actionCooldown >> ((8 * i) & uint32(255))));\n\t\t\tcounter++;\n\t\t}\n\n\t\t// encode 2 bytes from health\n\t\tfor (uint256 i = 0; i < 2; i++) {\n\t\t\tencodedData[counter] = bytes1(uint8(_dragon.health >> ((8 * i) & uint32(255))));\n\t\t\tcounter++;\n\t\t}\n\n\t\t// encode 2 bytes from strength\n\t\tfor (uint256 i = 0; i < 2; i++) {\n\t\t\tencodedData[counter] = bytes1(uint8(_dragon.strength >> ((8 * i) & uint32(255))));\n\t\t\tcounter++;\n\t\t}\n\n\t\t// encode 2 bytes from agility\n\t\tfor (uint256 i = 0; i < 2; i++) {\n\t\t\tencodedData[counter] = bytes1(uint8(_dragon.agility >> ((8 * i) & uint32(255))));\n\t\t\tcounter++;\n\t\t}\n\n\t\t// encode 2 bytes from fortitude\n\t\tfor (uint256 i = 0; i < 2; i++) {\n\t\t\tencodedData[counter] = bytes1(uint8(_dragon.fortitude >> ((8 * i) & uint32(255))));\n\t\t\tcounter++;\n\t\t}\n\n\t\t// encode 2 bytes from hatch time\n\t\tfor (uint256 i = 0; i < 2; i++) {\n\t\t\tencodedData[counter] = bytes1(uint8(_dragon.hatchTime >> ((8 * i) & uint32(255))));\n\t\t\tcounter++;\n\t\t}\n\n\t\t// encode  byte from blockchain origin id\n\t\tfor (uint256 i = 0; i < 1; i++) {\n\t\t\tencodedData[counter] = bytes1(uint8(_dragon.blockchainOriginId >> ((8 * i) & uint32(255))));\n\t\t\tcounter++;\n\t\t}\n\t\treturn encodedData;\n\t}\n\n\t/******************************************************************* */\n\n\tfunction decodeFirstThirdOfDragonFromBytes(bytes memory _data)\n\t\tprivate\n\t\tpure\n\t\treturns (\n\t\t\tbytes32 genes,\n\t\t\tbytes32 name,\n\t\t\tuint64 creationTime,\n\t\t\tuint32 dadId\n\t\t)\n\t{\n\t\tuint256 counter = 0;\n\n\t\t// Decode genes\n\t\tfor (uint256 i = 0; i < 32; i++) {\n\t\t\tgenes |= bytes32(_data[counter + i] & 0xFF) >> (i * 8);\n\t\t\tcounter++;\n\t\t}\n\n\t\t// Decode name\n\t\tname = _decodeName(_data, counter);\n\t\tcounter += 32;\n\n\t\t// Decode creation time\n\t\tfor (uint256 i = 0; i < 8; i++) {\n\t\t\tuint64 temp = uint64(uint8(_data[counter]));\n\t\t\ttemp <<= 8 * i;\n\t\t\tcreationTime ^= temp;\n\t\t\tcounter++;\n\t\t}\n\n\t\t// Decode dad id\n\t\tfor (uint256 i = 0; i < 4; i++) {\n\t\t\tuint32 temp = uint32(uint8(_data[counter]));\n\t\t\ttemp <<= 8 * i;\n\t\t\tdadId ^= temp;\n\t\t\tcounter++;\n\t\t}\n\t}\n\n\tfunction decodeSecondThirdOfDragonFromBytes(bytes memory _data)\n\t\tprivate\n\t\tpure\n\t\treturns (\n\t\t\tuint32 motherId,\n\t\t\tuint32 currentExperience,\n\t\t\tuint16 actionCooldown,\n\t\t\tuint16 health,\n\t\t\tuint16 strength\n\t\t)\n\t{\n\t\tuint256 counter = 76;\n\n\t\t// Decode mother id\n\t\tfor (uint256 i = 0; i < 4; i++) {\n\t\t\tuint32 temp = uint32(uint8(_data[counter]));\n\t\t\ttemp <<= 8 * i;\n\t\t\tmotherId ^= temp;\n\t\t\tcounter++;\n\t\t}\n\n\t\t// Decode current experience\n\t\tfor (uint256 i = 0; i < 4; i++) {\n\t\t\tuint32 temp = uint32(uint8(_data[counter]));\n\t\t\ttemp <<= 8 * i;\n\t\t\tcurrentExperience ^= temp;\n\t\t\tcounter++;\n\t\t}\n\n\t\t// Decode action cooldown\n\t\tfor (uint256 i = 0; i < 2; i++) {\n\t\t\tuint16 temp = uint16(uint8(_data[counter]));\n\t\t\ttemp <<= 8 * i;\n\t\t\tactionCooldown ^= temp;\n\t\t\tcounter++;\n\t\t}\n\n\t\t// Decode health\n\t\tfor (uint256 i = 0; i < 2; i++) {\n\t\t\tuint16 temp = uint16(uint8(_data[counter]));\n\t\t\ttemp <<= 8 * i;\n\t\t\thealth ^= temp;\n\t\t\tcounter++;\n\t\t}\n\n\t\t// Decode strength\n\t\tfor (uint256 i = 0; i < 2; i++) {\n\t\t\tuint16 temp = uint16(uint8(_data[counter]));\n\t\t\ttemp <<= 8 * i;\n\t\t\tstrength ^= temp;\n\t\t\tcounter++;\n\t\t}\n\t}\n\n\tfunction decodeThirdThirdOfDragonFromBytes(bytes memory _data)\n\t\tprivate\n\t\tpure\n\t\treturns (\n\t\t\tuint16 agility,\n\t\t\tuint16 fortitude,\n\t\t\tuint16 hatchTime,\n\t\t\tuint8 blockchainOriginId\n\t\t)\n\t{\n\t\tuint256 counter = 90;\n\n\t\t// Decode agility\n\t\tfor (uint256 i = 0; i < 2; i++) {\n\t\t\tuint16 temp = uint16(uint8(_data[counter]));\n\t\t\ttemp <<= 8 * i;\n\t\t\tagility ^= temp;\n\t\t\tcounter++;\n\t\t}\n\n\t\t// Decode fortitude\n\t\tfor (uint256 i = 0; i < 2; i++) {\n\t\t\tuint16 temp = uint16(uint8(_data[counter]));\n\t\t\ttemp <<= 8 * i;\n\t\t\tfortitude ^= temp;\n\t\t\tcounter++;\n\t\t}\n\n\t\t// Decode hatch time\n\t\tfor (uint256 i = 0; i < 2; i++) {\n\t\t\tuint16 temp = uint16(uint8(_data[counter]));\n\t\t\ttemp <<= 8 * i;\n\t\t\thatchTime ^= temp;\n\t\t\tcounter++;\n\t\t}\n\n\t\t// Decode blockchain origin id\n\t\tblockchainOriginId ^= uint8(_data[counter]);\n\t\tcounter++;\n\t}\n\n\tfunction _decodeName(bytes memory _data, uint256 _dataIndex) private pure returns (bytes32 name) {\n\t\tfor (uint256 i = 0; i < 32; i++) {\n\t\t\tname |= bytes32(_data[_dataIndex + i] & 0xFF) >> (i * 8);\n\t\t}\n\t}\n}\n",
  "sourcePath": "/usr/src/app/contractGetter/contracts/common/serialization/DragonSerializer.sol",
  "compiler": {
    "name": "solc",
    "version": "0.8.4+commit.c7e474f2.Emscripten.clang"
  },
  "schemaVersion": "3.4.1",
  "updatedAt": "2022-01-03T21:24:05.412Z",
  "networkType": "ethereum",
  "devdoc": {
    "kind": "dev",
    "methods": {},
    "version": 1
  },
  "userdoc": {
    "kind": "user",
    "methods": {
      "encodeDragonToBytes((bytes32,bytes32,uint64,uint32,uint32,uint32,uint16,uint16,uint16,uint16,uint16,uint16,uint8))": {
        "notice": "Packed dragon data in an array of bytes"
      }
    },
    "version": 1
  }
}