{
  "contractName": "DragonGoldERC20",
  "abi": [
    {
      "anonymous": false,
      "inputs": [
        {
          "indexed": true,
          "internalType": "address",
          "name": "owner",
          "type": "address"
        },
        {
          "indexed": true,
          "internalType": "address",
          "name": "spender",
          "type": "address"
        },
        {
          "indexed": false,
          "internalType": "uint256",
          "name": "value",
          "type": "uint256"
        }
      ],
      "name": "Approval",
      "type": "event"
    },
    {
      "anonymous": false,
      "inputs": [
        {
          "indexed": true,
          "internalType": "address",
          "name": "account",
          "type": "address"
        }
      ],
      "name": "MinterAdded",
      "type": "event"
    },
    {
      "anonymous": false,
      "inputs": [
        {
          "indexed": true,
          "internalType": "address",
          "name": "account",
          "type": "address"
        }
      ],
      "name": "MinterRemoved",
      "type": "event"
    },
    {
      "anonymous": false,
      "inputs": [
        {
          "indexed": true,
          "internalType": "address",
          "name": "previousOwner",
          "type": "address"
        },
        {
          "indexed": true,
          "internalType": "address",
          "name": "newOwner",
          "type": "address"
        }
      ],
      "name": "OwnershipTransferred",
      "type": "event"
    },
    {
      "anonymous": false,
      "inputs": [
        {
          "indexed": true,
          "internalType": "address",
          "name": "account",
          "type": "address"
        }
      ],
      "name": "SpenderAdded",
      "type": "event"
    },
    {
      "anonymous": false,
      "inputs": [
        {
          "indexed": true,
          "internalType": "address",
          "name": "account",
          "type": "address"
        }
      ],
      "name": "SpenderRemoved",
      "type": "event"
    },
    {
      "anonymous": false,
      "inputs": [
        {
          "indexed": true,
          "internalType": "address",
          "name": "from",
          "type": "address"
        },
        {
          "indexed": true,
          "internalType": "address",
          "name": "to",
          "type": "address"
        },
        {
          "indexed": false,
          "internalType": "uint256",
          "name": "value",
          "type": "uint256"
        }
      ],
      "name": "Transfer",
      "type": "event"
    },
    {
      "inputs": [
        {
          "internalType": "address",
          "name": "account",
          "type": "address"
        }
      ],
      "name": "addMinter",
      "outputs": [],
      "stateMutability": "nonpayable",
      "type": "function"
    },
    {
      "inputs": [
        {
          "internalType": "address",
          "name": "account",
          "type": "address"
        }
      ],
      "name": "addSpender",
      "outputs": [],
      "stateMutability": "nonpayable",
      "type": "function"
    },
    {
      "inputs": [
        {
          "internalType": "address",
          "name": "owner",
          "type": "address"
        },
        {
          "internalType": "address",
          "name": "spender",
          "type": "address"
        }
      ],
      "name": "allowance",
      "outputs": [
        {
          "internalType": "uint256",
          "name": "",
          "type": "uint256"
        }
      ],
      "stateMutability": "view",
      "type": "function"
    },
    {
      "inputs": [
        {
          "internalType": "address",
          "name": "spender",
          "type": "address"
        },
        {
          "internalType": "uint256",
          "name": "amount",
          "type": "uint256"
        }
      ],
      "name": "approve",
      "outputs": [
        {
          "internalType": "bool",
          "name": "",
          "type": "bool"
        }
      ],
      "stateMutability": "nonpayable",
      "type": "function"
    },
    {
      "inputs": [
        {
          "internalType": "address",
          "name": "account",
          "type": "address"
        }
      ],
      "name": "balanceOf",
      "outputs": [
        {
          "internalType": "uint256",
          "name": "",
          "type": "uint256"
        }
      ],
      "stateMutability": "view",
      "type": "function"
    },
    {
      "inputs": [],
      "name": "decimals",
      "outputs": [
        {
          "internalType": "uint8",
          "name": "",
          "type": "uint8"
        }
      ],
      "stateMutability": "view",
      "type": "function"
    },
    {
      "inputs": [
        {
          "internalType": "address",
          "name": "spender",
          "type": "address"
        },
        {
          "internalType": "uint256",
          "name": "subtractedValue",
          "type": "uint256"
        }
      ],
      "name": "decreaseAllowance",
      "outputs": [
        {
          "internalType": "bool",
          "name": "",
          "type": "bool"
        }
      ],
      "stateMutability": "nonpayable",
      "type": "function"
    },
    {
      "inputs": [
        {
          "internalType": "address",
          "name": "spender",
          "type": "address"
        },
        {
          "internalType": "uint256",
          "name": "addedValue",
          "type": "uint256"
        }
      ],
      "name": "increaseAllowance",
      "outputs": [
        {
          "internalType": "bool",
          "name": "",
          "type": "bool"
        }
      ],
      "stateMutability": "nonpayable",
      "type": "function"
    },
    {
      "inputs": [
        {
          "internalType": "address",
          "name": "account",
          "type": "address"
        }
      ],
      "name": "isMinter",
      "outputs": [
        {
          "internalType": "bool",
          "name": "",
          "type": "bool"
        }
      ],
      "stateMutability": "view",
      "type": "function"
    },
    {
      "inputs": [],
      "name": "isOwner",
      "outputs": [
        {
          "internalType": "bool",
          "name": "",
          "type": "bool"
        }
      ],
      "stateMutability": "view",
      "type": "function"
    },
    {
      "inputs": [
        {
          "internalType": "address",
          "name": "account",
          "type": "address"
        }
      ],
      "name": "isSpender",
      "outputs": [
        {
          "internalType": "bool",
          "name": "",
          "type": "bool"
        }
      ],
      "stateMutability": "view",
      "type": "function"
    },
    {
      "inputs": [],
      "name": "name",
      "outputs": [
        {
          "internalType": "string",
          "name": "",
          "type": "string"
        }
      ],
      "stateMutability": "view",
      "type": "function"
    },
    {
      "inputs": [],
      "name": "owner",
      "outputs": [
        {
          "internalType": "address",
          "name": "",
          "type": "address"
        }
      ],
      "stateMutability": "view",
      "type": "function"
    },
    {
      "inputs": [],
      "name": "renounceMinter",
      "outputs": [],
      "stateMutability": "nonpayable",
      "type": "function"
    },
    {
      "inputs": [],
      "name": "renounceOwnership",
      "outputs": [],
      "stateMutability": "nonpayable",
      "type": "function"
    },
    {
      "inputs": [],
      "name": "renounceSpender",
      "outputs": [],
      "stateMutability": "nonpayable",
      "type": "function"
    },
    {
      "inputs": [],
      "name": "symbol",
      "outputs": [
        {
          "internalType": "string",
          "name": "",
          "type": "string"
        }
      ],
      "stateMutability": "view",
      "type": "function"
    },
    {
      "inputs": [],
      "name": "totalSupply",
      "outputs": [
        {
          "internalType": "uint256",
          "name": "",
          "type": "uint256"
        }
      ],
      "stateMutability": "view",
      "type": "function"
    },
    {
      "inputs": [
        {
          "internalType": "address",
          "name": "recipient",
          "type": "address"
        },
        {
          "internalType": "uint256",
          "name": "amount",
          "type": "uint256"
        }
      ],
      "name": "transfer",
      "outputs": [
        {
          "internalType": "bool",
          "name": "",
          "type": "bool"
        }
      ],
      "stateMutability": "nonpayable",
      "type": "function"
    },
    {
      "inputs": [
        {
          "internalType": "address",
          "name": "sender",
          "type": "address"
        },
        {
          "internalType": "address",
          "name": "recipient",
          "type": "address"
        },
        {
          "internalType": "uint256",
          "name": "amount",
          "type": "uint256"
        }
      ],
      "name": "transferFrom",
      "outputs": [
        {
          "internalType": "bool",
          "name": "",
          "type": "bool"
        }
      ],
      "stateMutability": "nonpayable",
      "type": "function"
    },
    {
      "inputs": [
        {
          "internalType": "address",
          "name": "newOwner",
          "type": "address"
        }
      ],
      "name": "transferOwnership",
      "outputs": [],
      "stateMutability": "nonpayable",
      "type": "function"
    },
    {
      "inputs": [
        {
          "internalType": "address",
          "name": "to",
          "type": "address"
        },
        {
          "internalType": "uint256",
          "name": "value",
          "type": "uint256"
        }
      ],
      "name": "mint",
      "outputs": [
        {
          "internalType": "bool",
          "name": "",
          "type": "bool"
        }
      ],
      "stateMutability": "nonpayable",
      "type": "function"
    },
    {
      "inputs": [
        {
          "internalType": "address",
          "name": "from",
          "type": "address"
        },
        {
          "internalType": "uint256",
          "name": "value",
          "type": "uint256"
        }
      ],
      "name": "spendFrom",
      "outputs": [],
      "stateMutability": "nonpayable",
      "type": "function"
    }
  ],
  "bytecode": "0x60806040526040518060400160405280600b81526020017f447261676f6e20436f696e000000000000000000000000000000000000000000815250600390805190602001906200005192919062000447565b506040518060400160405280600381526020017f4447430000000000000000000000000000000000000000000000000000000000815250600490805190602001906200009f92919062000447565b50348015620000ad57600080fd5b5033600560006101000a81548173ffffffffffffffffffffffffffffffffffffffff021916908373ffffffffffffffffffffffffffffffffffffffff160217905550600560009054906101000a900473ffffffffffffffffffffffffffffffffffffffff1673ffffffffffffffffffffffffffffffffffffffff16600073ffffffffffffffffffffffffffffffffffffffff167f8be0079c531659141344cd1fd0a4f28419497f9722a3daafe3b4186f6b6457e060405160405180910390a36200017d336200019460201b60201c565b6200018e33620001f560201b60201c565b62000651565b620001af8160066200025660201b62000ccc1790919060201c565b8073ffffffffffffffffffffffffffffffffffffffff167f3139419c41cdd7abca84fa19dd21118cd285d3e2ce1a9444e8161ce9fa62fdcd60405160405180910390a250565b620002108160076200025660201b62000ccc1790919060201c565b8073ffffffffffffffffffffffffffffffffffffffff167f6ae172837ea30b801fbfcdd4108aa1d5bf8ff775444fd70256b44e6bf3dfc3f660405160405180910390a250565b600073ffffffffffffffffffffffffffffffffffffffff168173ffffffffffffffffffffffffffffffffffffffff161415620002c9576040517f08c379a0000000000000000000000000000000000000000000000000000000008152600401620002c09062000567565b60405180910390fd5b620002db82826200037c60201b60201c565b156200031e576040517f08c379a0000000000000000000000000000000000000000000000000000000008152600401620003159062000545565b60405180910390fd5b60018260000160008373ffffffffffffffffffffffffffffffffffffffff1673ffffffffffffffffffffffffffffffffffffffff16815260200190815260200160002060006101000a81548160ff0219169083151502179055505050565b60008073ffffffffffffffffffffffffffffffffffffffff168273ffffffffffffffffffffffffffffffffffffffff161415620003f0576040517f08c379a0000000000000000000000000000000000000000000000000000000008152600401620003e79062000567565b60405180910390fd5b8260000160008373ffffffffffffffffffffffffffffffffffffffff1673ffffffffffffffffffffffffffffffffffffffff16815260200190815260200160002060009054906101000a900460ff16905092915050565b82805462000455906200059a565b90600052602060002090601f016020900481019282620004795760008555620004c5565b82601f106200049457805160ff1916838001178555620004c5565b82800160010185558215620004c5579182015b82811115620004c4578251825591602001919060010190620004a7565b5b509050620004d49190620004d8565b5090565b5b80821115620004f3576000816000905550600101620004d9565b5090565b600062000506601d8362000589565b91506200051382620005ff565b602082019050919050565b60006200052d60178362000589565b91506200053a8262000628565b602082019050919050565b600060208201905081810360008301526200056081620004f7565b9050919050565b6000602082019050818103600083015262000582816200051e565b9050919050565b600082825260208201905092915050565b60006002820490506001821680620005b357607f821691505b60208210811415620005ca57620005c9620005d0565b5b50919050565b7f4e487b7100000000000000000000000000000000000000000000000000000000600052602260045260246000fd5b7f4163636f756e7420616c726561647920686173207468697320726f6c65000000600082015250565b7f496e76616c69642061646472657373206163636f756e74000000000000000000600082015250565b6125c280620006616000396000f3fe608060405234801561001057600080fd5b506004361061014d5760003560e01c80638f32d59b116100c3578063a9059cbb1161007c578063a9059cbb146103a2578063aa271e1a146103d2578063dd62ed3e14610402578063e7a027ea14610432578063e7e31e7a1461043c578063f2fde38b146104585761014d565b80638f32d59b146102e057806395d89b41146102fe578063983b2d561461031c57806398650275146103385780639a206ece14610342578063a457c2d7146103725761014d565b80633950935111610115578063395093511461020c57806340c10f191461023c5780636aade2881461026c57806370a0823114610288578063715018a6146102b85780638da5cb5b146102c25761014d565b806306fdde0314610152578063095ea7b31461017057806318160ddd146101a057806323b872dd146101be578063313ce567146101ee575b600080fd5b61015a610474565b6040516101679190611d9a565b60405180910390f35b61018a60048036038101906101859190611aa6565b610506565b6040516101979190611d7f565b60405180910390f35b6101a8610524565b6040516101b59190611f9c565b60405180910390f35b6101d860048036038101906101d39190611a57565b61052e565b6040516101e59190611d7f565b60405180910390f35b6101f6610626565b6040516102039190611fb7565b60405180910390f35b61022660048036038101906102219190611aa6565b61062f565b6040516102339190611d7f565b60405180910390f35b61025660048036038101906102519190611aa6565b6106db565b6040516102639190611d7f565b60405180910390f35b61028660048036038101906102819190611aa6565b610739565b005b6102a2600480360381019061029d91906119f2565b61078f565b6040516102af9190611f9c565b60405180910390f35b6102c06107d7565b005b6102ca6108df565b6040516102d79190611d64565b60405180910390f35b6102e8610909565b6040516102f59190611d7f565b60405180910390f35b610306610961565b6040516103139190611d9a565b60405180910390f35b610336600480360381019061033191906119f2565b6109f3565b005b610340610a46565b005b61035c600480360381019061035791906119f2565b610a51565b6040516103699190611d7f565b60405180910390f35b61038c60048036038101906103879190611aa6565b610a6e565b6040516103999190611d7f565b60405180910390f35b6103bc60048036038101906103b79190611aa6565b610b59565b6040516103c99190611d7f565b60405180910390f35b6103ec60048036038101906103e791906119f2565b610b77565b6040516103f99190611d7f565b60405180910390f35b61041c60048036038101906104179190611a1b565b610b94565b6040516104299190611f9c565b60405180910390f35b61043a610c1b565b005b610456600480360381019061045191906119f2565b610c26565b005b610472600480360381019061046d91906119f2565b610c79565b005b60606003805461048390612100565b80601f01602080910402602001604051908101604052809291908181526020018280546104af90612100565b80156104fc5780601f106104d1576101008083540402835291602001916104fc565b820191906000526020600020905b8154815290600101906020018083116104df57829003601f168201915b5050505050905090565b600061051a610513610de4565b8484610dec565b6001905092915050565b6000600254905090565b600061053b848484610fb7565b6000600160008673ffffffffffffffffffffffffffffffffffffffff1673ffffffffffffffffffffffffffffffffffffffff1681526020019081526020016000206000610586610de4565b73ffffffffffffffffffffffffffffffffffffffff1673ffffffffffffffffffffffffffffffffffffffff16815260200190815260200160002054905082811015610606576040517f08c379a00000000000000000000000000000000000000000000000000000000081526004016105fd90611e9c565b60405180910390fd5b61061a85610612610de4565b858403610dec565b60019150509392505050565b60006012905090565b60006106d161063c610de4565b84846001600061064a610de4565b73ffffffffffffffffffffffffffffffffffffffff1673ffffffffffffffffffffffffffffffffffffffff16815260200190815260200160002060008873ffffffffffffffffffffffffffffffffffffffff1673ffffffffffffffffffffffffffffffffffffffff168152602001908152602001600020546106cc9190611fee565b610dec565b6001905092915050565b60006106e633610b77565b610725576040517f08c379a000000000000000000000000000000000000000000000000000000000815260040161071c90611f1c565b60405180910390fd5b61072f838361122d565b6001905092915050565b61074233610a51565b610781576040517f08c379a000000000000000000000000000000000000000000000000000000000815260040161077890611f1c565b60405180910390fd5b61078b8282611381565b5050565b60008060008373ffffffffffffffffffffffffffffffffffffffff1673ffffffffffffffffffffffffffffffffffffffff168152602001908152602001600020549050919050565b6107df610909565b61081e576040517f08c379a000000000000000000000000000000000000000000000000000000000815260040161081590611f1c565b60405180910390fd5b600073ffffffffffffffffffffffffffffffffffffffff16600560009054906101000a900473ffffffffffffffffffffffffffffffffffffffff1673ffffffffffffffffffffffffffffffffffffffff167f8be0079c531659141344cd1fd0a4f28419497f9722a3daafe3b4186f6b6457e060405160405180910390a36000600560006101000a81548173ffffffffffffffffffffffffffffffffffffffff021916908373ffffffffffffffffffffffffffffffffffffffff160217905550565b6000600560009054906101000a900473ffffffffffffffffffffffffffffffffffffffff16905090565b6000600560009054906101000a900473ffffffffffffffffffffffffffffffffffffffff1673ffffffffffffffffffffffffffffffffffffffff163373ffffffffffffffffffffffffffffffffffffffff1614905090565b60606004805461097090612100565b80601f016020809104026020016040519081016040528092919081815260200182805461099c90612100565b80156109e95780601f106109be576101008083540402835291602001916109e9565b820191906000526020600020905b8154815290600101906020018083116109cc57829003601f168201915b5050505050905090565b6109fb610909565b610a3a576040517f08c379a0000000000000000000000000000000000000000000000000000000008152600401610a3190611f1c565b60405180910390fd5b610a438161154c565b50565b610a4f336115a6565b565b6000610a6782600661160090919063ffffffff16565b9050919050565b60008060016000610a7d610de4565b73ffffffffffffffffffffffffffffffffffffffff1673ffffffffffffffffffffffffffffffffffffffff16815260200190815260200160002060008573ffffffffffffffffffffffffffffffffffffffff1673ffffffffffffffffffffffffffffffffffffffff16815260200190815260200160002054905082811015610b3a576040517f08c379a0000000000000000000000000000000000000000000000000000000008152600401610b3190611f5c565b60405180910390fd5b610b4e610b45610de4565b85858403610dec565b600191505092915050565b6000610b6d610b66610de4565b8484610fb7565b6001905092915050565b6000610b8d82600761160090919063ffffffff16565b9050919050565b6000600160008473ffffffffffffffffffffffffffffffffffffffff1673ffffffffffffffffffffffffffffffffffffffff16815260200190815260200160002060008373ffffffffffffffffffffffffffffffffffffffff1673ffffffffffffffffffffffffffffffffffffffff16815260200190815260200160002054905092915050565b610c24336116c8565b565b610c2e610909565b610c6d576040517f08c379a0000000000000000000000000000000000000000000000000000000008152600401610c6490611f1c565b60405180910390fd5b610c7681611722565b50565b610c81610909565b610cc0576040517f08c379a0000000000000000000000000000000000000000000000000000000008152600401610cb790611f1c565b60405180910390fd5b610cc98161177c565b50565b600073ffffffffffffffffffffffffffffffffffffffff168173ffffffffffffffffffffffffffffffffffffffff161415610d3c576040517f08c379a0000000000000000000000000000000000000000000000000000000008152600401610d3390611f3c565b60405180910390fd5b610d468282611600565b15610d86576040517f08c379a0000000000000000000000000000000000000000000000000000000008152600401610d7d90611e7c565b60405180910390fd5b60018260000160008373ffffffffffffffffffffffffffffffffffffffff1673ffffffffffffffffffffffffffffffffffffffff16815260200190815260200160002060006101000a81548160ff0219169083151502179055505050565b600033905090565b600073ffffffffffffffffffffffffffffffffffffffff168373ffffffffffffffffffffffffffffffffffffffff161415610e5c576040517f08c379a0000000000000000000000000000000000000000000000000000000008152600401610e5390611efc565b60405180910390fd5b600073ffffffffffffffffffffffffffffffffffffffff168273ffffffffffffffffffffffffffffffffffffffff161415610ecc576040517f08c379a0000000000000000000000000000000000000000000000000000000008152600401610ec390611e3c565b60405180910390fd5b80600160008573ffffffffffffffffffffffffffffffffffffffff1673ffffffffffffffffffffffffffffffffffffffff16815260200190815260200160002060008473ffffffffffffffffffffffffffffffffffffffff1673ffffffffffffffffffffffffffffffffffffffff168152602001908152602001600020819055508173ffffffffffffffffffffffffffffffffffffffff168373ffffffffffffffffffffffffffffffffffffffff167f8c5be1e5ebec7d5bd14f71427d1e84f3dd0314c0f7b2291e5b200ac8c7c3b92583604051610faa9190611f9c565b60405180910390a3505050565b600073ffffffffffffffffffffffffffffffffffffffff168373ffffffffffffffffffffffffffffffffffffffff161415611027576040517f08c379a000000000000000000000000000000000000000000000000000000000815260040161101e90611edc565b60405180910390fd5b600073ffffffffffffffffffffffffffffffffffffffff168273ffffffffffffffffffffffffffffffffffffffff161415611097576040517f08c379a000000000000000000000000000000000000000000000000000000000815260040161108e90611ddc565b60405180910390fd5b6110a28383836118ac565b60008060008573ffffffffffffffffffffffffffffffffffffffff1673ffffffffffffffffffffffffffffffffffffffff16815260200190815260200160002054905081811015611128576040517f08c379a000000000000000000000000000000000000000000000000000000000815260040161111f90611e5c565b60405180910390fd5b8181036000808673ffffffffffffffffffffffffffffffffffffffff1673ffffffffffffffffffffffffffffffffffffffff16815260200190815260200160002081905550816000808573ffffffffffffffffffffffffffffffffffffffff1673ffffffffffffffffffffffffffffffffffffffff16815260200190815260200160002060008282546111bb9190611fee565b925050819055508273ffffffffffffffffffffffffffffffffffffffff168473ffffffffffffffffffffffffffffffffffffffff167fddf252ad1be2c89b69c2b068fc378daa952ba7f163c4a11628f55a4df523b3ef8460405161121f9190611f9c565b60405180910390a350505050565b600073ffffffffffffffffffffffffffffffffffffffff168273ffffffffffffffffffffffffffffffffffffffff16141561129d576040517f08c379a000000000000000000000000000000000000000000000000000000000815260040161129490611f7c565b60405180910390fd5b6112a9600083836118ac565b80600260008282546112bb9190611fee565b92505081905550806000808473ffffffffffffffffffffffffffffffffffffffff1673ffffffffffffffffffffffffffffffffffffffff16815260200190815260200160002060008282546113109190611fee565b925050819055508173ffffffffffffffffffffffffffffffffffffffff16600073ffffffffffffffffffffffffffffffffffffffff167fddf252ad1be2c89b69c2b068fc378daa952ba7f163c4a11628f55a4df523b3ef836040516113759190611f9c565b60405180910390a35050565b600073ffffffffffffffffffffffffffffffffffffffff168273ffffffffffffffffffffffffffffffffffffffff1614156113f1576040517f08c379a00000000000000000000000000000000000000000000000000000000081526004016113e890611ebc565b60405180910390fd5b6113fd826000836118ac565b60008060008473ffffffffffffffffffffffffffffffffffffffff1673ffffffffffffffffffffffffffffffffffffffff16815260200190815260200160002054905081811015611483576040517f08c379a000000000000000000000000000000000000000000000000000000000815260040161147a90611e1c565b60405180910390fd5b8181036000808573ffffffffffffffffffffffffffffffffffffffff1673ffffffffffffffffffffffffffffffffffffffff1681526020019081526020016000208190555081600260008282546114da9190612044565b92505081905550600073ffffffffffffffffffffffffffffffffffffffff168373ffffffffffffffffffffffffffffffffffffffff167fddf252ad1be2c89b69c2b068fc378daa952ba7f163c4a11628f55a4df523b3ef8460405161153f9190611f9c565b60405180910390a3505050565b611560816007610ccc90919063ffffffff16565b8073ffffffffffffffffffffffffffffffffffffffff167f6ae172837ea30b801fbfcdd4108aa1d5bf8ff775444fd70256b44e6bf3dfc3f660405160405180910390a250565b6115ba8160076118b190919063ffffffff16565b8073ffffffffffffffffffffffffffffffffffffffff167fe94479a9f7e1952cc78f2d6baab678adc1b772d936c6583def489e524cb6669260405160405180910390a250565b60008073ffffffffffffffffffffffffffffffffffffffff168273ffffffffffffffffffffffffffffffffffffffff161415611671576040517f08c379a000000000000000000000000000000000000000000000000000000000815260040161166890611f3c565b60405180910390fd5b8260000160008373ffffffffffffffffffffffffffffffffffffffff1673ffffffffffffffffffffffffffffffffffffffff16815260200190815260200160002060009054906101000a900460ff16905092915050565b6116dc8160066118b190919063ffffffff16565b8073ffffffffffffffffffffffffffffffffffffffff167fab8cff50266d80b9c9d9703af934ca455b9218286bf4fcaa05653a564c499e4b60405160405180910390a250565b611736816006610ccc90919063ffffffff16565b8073ffffffffffffffffffffffffffffffffffffffff167f3139419c41cdd7abca84fa19dd21118cd285d3e2ce1a9444e8161ce9fa62fdcd60405160405180910390a250565b600073ffffffffffffffffffffffffffffffffffffffff168173ffffffffffffffffffffffffffffffffffffffff1614156117ec576040517f08c379a00000000000000000000000000000000000000000000000000000000081526004016117e390611dfc565b60405180910390fd5b8073ffffffffffffffffffffffffffffffffffffffff16600560009054906101000a900473ffffffffffffffffffffffffffffffffffffffff1673ffffffffffffffffffffffffffffffffffffffff167f8be0079c531659141344cd1fd0a4f28419497f9722a3daafe3b4186f6b6457e060405160405180910390a380600560006101000a81548173ffffffffffffffffffffffffffffffffffffffff021916908373ffffffffffffffffffffffffffffffffffffffff16021790555050565b505050565b600073ffffffffffffffffffffffffffffffffffffffff168173ffffffffffffffffffffffffffffffffffffffff161415611921576040517f08c379a000000000000000000000000000000000000000000000000000000000815260040161191890611f3c565b60405180910390fd5b61192b8282611600565b61196a576040517f08c379a000000000000000000000000000000000000000000000000000000000815260040161196190611dbc565b60405180910390fd5b60008260000160008373ffffffffffffffffffffffffffffffffffffffff1673ffffffffffffffffffffffffffffffffffffffff16815260200190815260200160002060006101000a81548160ff0219169083151502179055505050565b6000813590506119d78161255e565b92915050565b6000813590506119ec81612575565b92915050565b600060208284031215611a0457600080fd5b6000611a12848285016119c8565b91505092915050565b60008060408385031215611a2e57600080fd5b6000611a3c858286016119c8565b9250506020611a4d858286016119c8565b9150509250929050565b600080600060608486031215611a6c57600080fd5b6000611a7a868287016119c8565b9350506020611a8b868287016119c8565b9250506040611a9c868287016119dd565b9150509250925092565b60008060408385031215611ab957600080fd5b6000611ac7858286016119c8565b9250506020611ad8858286016119dd565b9150509250929050565b611aeb81612078565b82525050565b611afa8161208a565b82525050565b6000611b0b82611fd2565b611b158185611fdd565b9350611b258185602086016120cd565b611b2e81612190565b840191505092915050565b6000611b46601f83611fdd565b9150611b51826121a1565b602082019050919050565b6000611b69602383611fdd565b9150611b74826121ca565b604082019050919050565b6000611b8c600f83611fdd565b9150611b9782612219565b602082019050919050565b6000611baf602283611fdd565b9150611bba82612242565b604082019050919050565b6000611bd2602283611fdd565b9150611bdd82612291565b604082019050919050565b6000611bf5602683611fdd565b9150611c00826122e0565b604082019050919050565b6000611c18601d83611fdd565b9150611c238261232f565b602082019050919050565b6000611c3b602883611fdd565b9150611c4682612358565b604082019050919050565b6000611c5e602183611fdd565b9150611c69826123a7565b604082019050919050565b6000611c81602583611fdd565b9150611c8c826123f6565b604082019050919050565b6000611ca4602483611fdd565b9150611caf82612445565b604082019050919050565b6000611cc7601283611fdd565b9150611cd282612494565b602082019050919050565b6000611cea601783611fdd565b9150611cf5826124bd565b602082019050919050565b6000611d0d602583611fdd565b9150611d18826124e6565b604082019050919050565b6000611d30601f83611fdd565b9150611d3b82612535565b602082019050919050565b611d4f816120b6565b82525050565b611d5e816120c0565b82525050565b6000602082019050611d796000830184611ae2565b92915050565b6000602082019050611d946000830184611af1565b92915050565b60006020820190508181036000830152611db48184611b00565b905092915050565b60006020820190508181036000830152611dd581611b39565b9050919050565b60006020820190508181036000830152611df581611b5c565b9050919050565b60006020820190508181036000830152611e1581611b7f565b9050919050565b60006020820190508181036000830152611e3581611ba2565b9050919050565b60006020820190508181036000830152611e5581611bc5565b9050919050565b60006020820190508181036000830152611e7581611be8565b9050919050565b60006020820190508181036000830152611e9581611c0b565b9050919050565b60006020820190508181036000830152611eb581611c2e565b9050919050565b60006020820190508181036000830152611ed581611c51565b9050919050565b60006020820190508181036000830152611ef581611c74565b9050919050565b60006020820190508181036000830152611f1581611c97565b9050919050565b60006020820190508181036000830152611f3581611cba565b9050919050565b60006020820190508181036000830152611f5581611cdd565b9050919050565b60006020820190508181036000830152611f7581611d00565b9050919050565b60006020820190508181036000830152611f9581611d23565b9050919050565b6000602082019050611fb16000830184611d46565b92915050565b6000602082019050611fcc6000830184611d55565b92915050565b600081519050919050565b600082825260208201905092915050565b6000611ff9826120b6565b9150612004836120b6565b9250827fffffffffffffffffffffffffffffffffffffffffffffffffffffffffffffffff0382111561203957612038612132565b5b828201905092915050565b600061204f826120b6565b915061205a836120b6565b92508282101561206d5761206c612132565b5b828203905092915050565b600061208382612096565b9050919050565b60008115159050919050565b600073ffffffffffffffffffffffffffffffffffffffff82169050919050565b6000819050919050565b600060ff82169050919050565b60005b838110156120eb5780820151818401526020810190506120d0565b838111156120fa576000848401525b50505050565b6000600282049050600182168061211857607f821691505b6020821081141561212c5761212b612161565b5b50919050565b7f4e487b7100000000000000000000000000000000000000000000000000000000600052601160045260246000fd5b7f4e487b7100000000000000000000000000000000000000000000000000000000600052602260045260246000fd5b6000601f19601f8301169050919050565b7f4163636f756e7420646f6573206e6f742068617665207468697320726f6c6500600082015250565b7f45524332303a207472616e7366657220746f20746865207a65726f206164647260008201527f6573730000000000000000000000000000000000000000000000000000000000602082015250565b7f496e76616c696420616464726573730000000000000000000000000000000000600082015250565b7f45524332303a206275726e20616d6f756e7420657863656564732062616c616e60008201527f6365000000000000000000000000000000000000000000000000000000000000602082015250565b7f45524332303a20617070726f766520746f20746865207a65726f20616464726560008201527f7373000000000000000000000000000000000000000000000000000000000000602082015250565b7f45524332303a207472616e7366657220616d6f756e742065786365656473206260008201527f616c616e63650000000000000000000000000000000000000000000000000000602082015250565b7f4163636f756e7420616c726561647920686173207468697320726f6c65000000600082015250565b7f45524332303a207472616e7366657220616d6f756e742065786365656473206160008201527f6c6c6f77616e6365000000000000000000000000000000000000000000000000602082015250565b7f45524332303a206275726e2066726f6d20746865207a65726f2061646472657360008201527f7300000000000000000000000000000000000000000000000000000000000000602082015250565b7f45524332303a207472616e736665722066726f6d20746865207a65726f20616460008201527f6472657373000000000000000000000000000000000000000000000000000000602082015250565b7f45524332303a20617070726f76652066726f6d20746865207a65726f2061646460008201527f7265737300000000000000000000000000000000000000000000000000000000602082015250565b7f496e76616c6964207065726d697373696f6e0000000000000000000000000000600082015250565b7f496e76616c69642061646472657373206163636f756e74000000000000000000600082015250565b7f45524332303a2064656372656173656420616c6c6f77616e63652062656c6f7760008201527f207a65726f000000000000000000000000000000000000000000000000000000602082015250565b7f45524332303a206d696e7420746f20746865207a65726f206164647265737300600082015250565b61256781612078565b811461257257600080fd5b50565b61257e816120b6565b811461258957600080fd5b5056fea26469706673582212205626b45e7222df5306a53f0bbcfbf5fb83eef62b73d2ee4b0764eaf6ce2b8ce964736f6c63430008040033",
  "immutableReferences": {},
  "source": "// SPDX-License-Identifier: GPL-3.0 License\n\npragma solidity ^0.8.0;\n\nimport './token/ERC20.sol';\nimport './access/roles/Spender.sol';\nimport './access/roles/Minter.sol';\n\n/**\n * @title DragonGold\n * @dev ERC20 with minting and burning logic so that it can be used as ingame virtual currency\n */\ncontract DragonGoldERC20 is ERC20, Spender, Minter {\n\t/**\n\t * @dev Function to mint tokens\n\t * @param to The address that will receive the minted tokens.\n\t * @param value The amount of tokens to mint.\n\t * @return A boolean that indicates if the operation was successful.\n\t */\n\tfunction mint(address to, uint256 value) public onlyMinter returns (bool) {\n\t\t_mint(to, value);\n\t\treturn true;\n\t}\n\n\t/**\n\t * @dev Burns a specific amount of tokens from the target address and decrements allowance\n\t * @param from address The address which you want to send tokens from\n\t * @param value uint256 The amount of token to be burned\n\t */\n\tfunction spendFrom(address from, uint256 value) public onlySpender {\n\t\t_burn(from, value);\n\t}\n}\n",
  "sourcePath": "/mnt/d/Projects/cryptodragons/truffle-project/contracts/common/DragonGoldERC20.sol",
  "compiler": {
    "name": "solc",
    "version": "0.8.4+commit.c7e474f2.Emscripten.clang"
  },
  "schemaVersion": "3.4.3",
  "updatedAt": "2021-10-31T17:35:55.999Z",
  "devdoc": {
    "details": "ERC20 with minting and burning logic so that it can be used as ingame virtual currency",
    "kind": "dev",
    "methods": {
      "allowance(address,address)": {
        "details": "See {IERC20-allowance}."
      },
      "approve(address,uint256)": {
        "details": "See {IERC20-approve}. Requirements: - `spender` cannot be the zero address."
      },
      "balanceOf(address)": {
        "details": "See {IERC20-balanceOf}."
      },
      "decimals()": {
        "details": "Returns the number of decimals used to get its user representation. For example, if `decimals` equals `2`, a balance of `505` tokens should be displayed to a user as `5,05` (`505 / 10 ** 2`). Tokens usually opt for a value of 18, imitating the relationship between Ether and Wei. This is the value {ERC20} uses, unless this function is overridden; NOTE: This information is only used for _display_ purposes: it in no way affects any of the arithmetic of the contract, including {IERC20-balanceOf} and {IERC20-transfer}."
      },
      "decreaseAllowance(address,uint256)": {
        "details": "Atomically decreases the allowance granted to `spender` by the caller. This is an alternative to {approve} that can be used as a mitigation for problems described in {IERC20-approve}. Emits an {Approval} event indicating the updated allowance. Requirements: - `spender` cannot be the zero address. - `spender` must have allowance for the caller of at least `subtractedValue`."
      },
      "increaseAllowance(address,uint256)": {
        "details": "Atomically increases the allowance granted to `spender` by the caller. This is an alternative to {approve} that can be used as a mitigation for problems described in {IERC20-approve}. Emits an {Approval} event indicating the updated allowance. Requirements: - `spender` cannot be the zero address."
      },
      "isOwner()": {
        "returns": {
          "_0": "true if `msg.sender` is the owner of the contract."
        }
      },
      "mint(address,uint256)": {
        "details": "Function to mint tokens",
        "params": {
          "to": "The address that will receive the minted tokens.",
          "value": "The amount of tokens to mint."
        },
        "returns": {
          "_0": "A boolean that indicates if the operation was successful."
        }
      },
      "name()": {
        "details": "Returns the name of the token."
      },
      "owner()": {
        "returns": {
          "_0": "the address of the owner."
        }
      },
      "renounceOwnership()": {
        "details": "Allows the current owner to relinquish control of the contract."
      },
      "spendFrom(address,uint256)": {
        "details": "Burns a specific amount of tokens from the target address and decrements allowance",
        "params": {
          "from": "address The address which you want to send tokens from",
          "value": "uint256 The amount of token to be burned"
        }
      },
      "symbol()": {
        "details": "Returns the symbol of the token, usually a shorter version of the name."
      },
      "totalSupply()": {
        "details": "See {IERC20-totalSupply}."
      },
      "transfer(address,uint256)": {
        "details": "See {IERC20-transfer}. Requirements: - `recipient` cannot be the zero address. - the caller must have a balance of at least `amount`."
      },
      "transferFrom(address,address,uint256)": {
        "details": "See {IERC20-transferFrom}. Emits an {Approval} event indicating the updated allowance. This is not required by the EIP. See the note at the beginning of {ERC20}. Requirements: - `sender` and `recipient` cannot be the zero address. - `sender` must have a balance of at least `amount`. - the caller must have allowance for ``sender``'s tokens of at least `amount`."
      },
      "transferOwnership(address)": {
        "details": "Allows the current owner to transfer control of the contract to a newOwner.",
        "params": {
          "newOwner": "The address to transfer ownership to."
        }
      }
    },
    "title": "DragonGold",
    "version": 1
  },
  "userdoc": {
    "kind": "user",
    "methods": {
      "renounceOwnership()": {
        "notice": "Renouncing to ownership will leave the contract without an owner. It will not be possible to call the functions with the `onlyOwner` modifier anymore."
      }
    },
    "version": 1
  }
}