{
  "contractName": "DragonApi",
  "abi": [
    {
      "inputs": [
        {
          "internalType": "address",
          "name": "dragonAddress",
          "type": "address"
        },
        {
          "internalType": "address",
          "name": "genesLaboratory",
          "type": "address"
        }
      ],
      "stateMutability": "nonpayable",
      "type": "constructor"
    },
    {
      "inputs": [
        {
          "internalType": "address",
          "name": "owner",
          "type": "address"
        }
      ],
      "name": "getDragonsIdsByOwner",
      "outputs": [
        {
          "internalType": "uint256[]",
          "name": "",
          "type": "uint256[]"
        }
      ],
      "stateMutability": "view",
      "type": "function",
      "constant": true
    },
    {
      "inputs": [
        {
          "internalType": "uint256",
          "name": "dragonId",
          "type": "uint256"
        }
      ],
      "name": "getDragonById",
      "outputs": [
        {
          "components": [
            {
              "internalType": "bytes32",
              "name": "genes",
              "type": "bytes32"
            },
            {
              "internalType": "bytes32",
              "name": "name",
              "type": "bytes32"
            },
            {
              "internalType": "uint64",
              "name": "creationTime",
              "type": "uint64"
            },
            {
              "internalType": "uint32",
              "name": "dadId",
              "type": "uint32"
            },
            {
              "internalType": "uint32",
              "name": "motherId",
              "type": "uint32"
            },
            {
              "internalType": "uint32",
              "name": "currentExperience",
              "type": "uint32"
            },
            {
              "internalType": "uint16",
              "name": "actionCooldown",
              "type": "uint16"
            },
            {
              "internalType": "uint16",
              "name": "health",
              "type": "uint16"
            },
            {
              "internalType": "uint16",
              "name": "strength",
              "type": "uint16"
            },
            {
              "internalType": "uint16",
              "name": "agility",
              "type": "uint16"
            },
            {
              "internalType": "uint16",
              "name": "fortitude",
              "type": "uint16"
            },
            {
              "internalType": "uint16",
              "name": "hatchTime",
              "type": "uint16"
            },
            {
              "internalType": "uint8",
              "name": "blockchainOriginId",
              "type": "uint8"
            }
          ],
          "internalType": "struct DragonLibrary.Dragon",
          "name": "",
          "type": "tuple"
        }
      ],
      "stateMutability": "view",
      "type": "function",
      "constant": true
    },
    {
      "inputs": [
        {
          "internalType": "address",
          "name": "owner",
          "type": "address"
        }
      ],
      "name": "getDragonsCountByOwner",
      "outputs": [
        {
          "internalType": "uint256",
          "name": "",
          "type": "uint256"
        }
      ],
      "stateMutability": "view",
      "type": "function",
      "constant": true
    },
    {
      "inputs": [
        {
          "internalType": "uint256",
          "name": "dragonId",
          "type": "uint256"
        }
      ],
      "name": "isEgg",
      "outputs": [
        {
          "internalType": "bool",
          "name": "",
          "type": "bool"
        }
      ],
      "stateMutability": "view",
      "type": "function",
      "constant": true
    },
    {
      "inputs": [
        {
          "internalType": "uint256",
          "name": "dragonId",
          "type": "uint256"
        }
      ],
      "name": "getVisualAttributes",
      "outputs": [
        {
          "internalType": "uint16",
          "name": "head",
          "type": "uint16"
        },
        {
          "internalType": "uint16",
          "name": "body",
          "type": "uint16"
        },
        {
          "internalType": "uint16",
          "name": "wings",
          "type": "uint16"
        }
      ],
      "stateMutability": "view",
      "type": "function",
      "constant": true
    }
  ],
  "bytecode": "0x60806040523480156200001157600080fd5b5060405162001472380380620014728339818101604052810190620000379190620001bd565b600073ffffffffffffffffffffffffffffffffffffffff168273ffffffffffffffffffffffffffffffffffffffff161415620000aa576040517f08c379a0000000000000000000000000000000000000000000000000000000008152600401620000a1906200024c565b60405180910390fd5b600073ffffffffffffffffffffffffffffffffffffffff168173ffffffffffffffffffffffffffffffffffffffff1614156200011d576040517f08c379a000000000000000000000000000000000000000000000000000000000815260040162000114906200026e565b60405180910390fd5b816000806101000a81548173ffffffffffffffffffffffffffffffffffffffff021916908373ffffffffffffffffffffffffffffffffffffffff16021790555080600160006101000a81548173ffffffffffffffffffffffffffffffffffffffff021916908373ffffffffffffffffffffffffffffffffffffffff160217905550505062000341565b600081519050620001b78162000327565b92915050565b60008060408385031215620001d157600080fd5b6000620001e185828601620001a6565b9250506020620001f485828601620001a6565b9150509250929050565b60006200020d60168362000290565b91506200021a82620002d5565b602082019050919050565b60006200023460208362000290565b91506200024182620002fe565b602082019050919050565b600060208201905081810360008301526200026781620001fe565b9050919050565b60006020820190508181036000830152620002898162000225565b9050919050565b600082825260208201905092915050565b6000620002ae82620002b5565b9050919050565b600073ffffffffffffffffffffffffffffffffffffffff82169050919050565b7f496e76616c696420647261676f6e206164647265737300000000000000000000600082015250565b7f496e76616c69642067656e6573206c61626f7261746f72792061646472657373600082015250565b6200033281620002a1565b81146200033e57600080fd5b50565b61112180620003516000396000f3fe608060405234801561001057600080fd5b50600436106100575760003560e01c80630469e8ac1461005c5780632014a8be1461008c578063c9cf5570146100be578063d9b6e2f7146100ee578063dfd4e4a41461011e575b600080fd5b610076600480360381019061007191906109c0565b61014e565b6040516100839190610d1e565b60405180910390f35b6100a660048036038101906100a19190610a62565b610370565b6040516100b593929190610d92565b60405180910390f35b6100d860048036038101906100d39190610a62565b6104e5565b6040516100e59190610d76565b60405180910390f35b610108600480360381019061010391906109c0565b61059e565b6040516101159190610dc9565b60405180910390f35b61013860048036038101906101339190610a62565b610651565b6040516101459190610d40565b60405180910390f35b606060008060009054906101000a900473ffffffffffffffffffffffffffffffffffffffff16905060008173ffffffffffffffffffffffffffffffffffffffff166370a08231856040518263ffffffff1660e01b81526004016101b19190610cda565b60206040518083038186803b1580156101c957600080fd5b505afa1580156101dd573d6000803e3d6000fd5b505050506040513d601f19601f820116820180604052508101906102019190610a8b565b905060008167ffffffffffffffff811115610245577f4e487b7100000000000000000000000000000000000000000000000000000000600052604160045260246000fd5b6040519080825280602002602001820160405280156102735781602001602082028036833780820191505090505b50905060005b82811015610364578373ffffffffffffffffffffffffffffffffffffffff16632f745c5987836040518363ffffffff1660e01b81526004016102bc929190610cf5565b60206040518083038186803b1580156102d457600080fd5b505afa1580156102e8573d6000803e3d6000fd5b505050506040513d601f19601f8201168201806040525081019061030c9190610a8b565b828281518110610345577f4e487b7100000000000000000000000000000000000000000000000000000000600052603260045260246000fd5b602002602001018181525050808061035c90610f92565b915050610279565b50809350505050919050565b60008060008060008054906101000a900473ffffffffffffffffffffffffffffffffffffffff1673ffffffffffffffffffffffffffffffffffffffff1663c9cf5570866040518263ffffffff1660e01b81526004016103cf9190610dc9565b6101a06040518083038186803b1580156103e857600080fd5b505afa1580156103fc573d6000803e3d6000fd5b505050506040513d601f19601f8201168201806040525081019061042091906109e9565b9050600160009054906101000a900473ffffffffffffffffffffffffffffffffffffffff1673ffffffffffffffffffffffffffffffffffffffff166391926cff82600001516040518263ffffffff1660e01b81526004016104819190610d5b565b60606040518083038186803b15801561049957600080fd5b505afa1580156104ad573d6000803e3d6000fd5b505050506040513d601f19601f820116820180604052508101906104d19190610a13565b809450819550829650505050509193909250565b6104ed61073f565b60008054906101000a900473ffffffffffffffffffffffffffffffffffffffff1673ffffffffffffffffffffffffffffffffffffffff1663c9cf5570836040518263ffffffff1660e01b81526004016105469190610dc9565b6101a06040518083038186803b15801561055f57600080fd5b505afa158015610573573d6000803e3d6000fd5b505050506040513d601f19601f8201168201806040525081019061059791906109e9565b9050919050565b60008060009054906101000a900473ffffffffffffffffffffffffffffffffffffffff1673ffffffffffffffffffffffffffffffffffffffff166370a08231836040518263ffffffff1660e01b81526004016105fa9190610cda565b60206040518083038186803b15801561061257600080fd5b505afa158015610626573d6000803e3d6000fd5b505050506040513d601f19601f8201168201806040525081019061064a9190610a8b565b9050919050565b60008060008054906101000a900473ffffffffffffffffffffffffffffffffffffffff1673ffffffffffffffffffffffffffffffffffffffff1663c9cf5570846040518263ffffffff1660e01b81526004016106ad9190610dc9565b6101a06040518083038186803b1580156106c657600080fd5b505afa1580156106da573d6000803e3d6000fd5b505050506040513d601f19601f820116820180604052508101906106fe91906109e9565b90506000603c826040015167ffffffffffffffff164261071e9190610e9c565b6107289190610e42565b905081610160015161ffff16811092505050919050565b604051806101a001604052806000801916815260200160008019168152602001600067ffffffffffffffff168152602001600063ffffffff168152602001600063ffffffff168152602001600063ffffffff168152602001600061ffff168152602001600061ffff168152602001600061ffff168152602001600061ffff168152602001600061ffff168152602001600061ffff168152602001600060ff1681525090565b6000813590506107f38161104a565b92915050565b60008151905061080881611061565b92915050565b60006101a0828403121561082157600080fd5b61082c6101a0610de4565b9050600061083c848285016107f9565b6000830152506020610850848285016107f9565b602083015250604061086484828501610996565b604083015250606061087884828501610981565b606083015250608061088c84828501610981565b60808301525060a06108a084828501610981565b60a08301525060c06108b484828501610942565b60c08301525060e06108c884828501610942565b60e0830152506101006108dd84828501610942565b610100830152506101206108f384828501610942565b6101208301525061014061090984828501610942565b6101408301525061016061091f84828501610942565b61016083015250610180610935848285016109ab565b6101808301525092915050565b60008151905061095181611078565b92915050565b6000813590506109668161108f565b92915050565b60008151905061097b8161108f565b92915050565b600081519050610990816110a6565b92915050565b6000815190506109a5816110bd565b92915050565b6000815190506109ba816110d4565b92915050565b6000602082840312156109d257600080fd5b60006109e0848285016107e4565b91505092915050565b60006101a082840312156109fc57600080fd5b6000610a0a8482850161080e565b91505092915050565b600080600060608486031215610a2857600080fd5b6000610a3686828701610942565b9350506020610a4786828701610942565b9250506040610a5886828701610942565b9150509250925092565b600060208284031215610a7457600080fd5b6000610a8284828501610957565b91505092915050565b600060208284031215610a9d57600080fd5b6000610aab8482850161096c565b91505092915050565b6000610ac08383610c8f565b60208301905092915050565b610ad581610ed0565b82525050565b6000610ae682610e19565b610af08185610e31565b9350610afb83610e09565b8060005b83811015610b2c578151610b138882610ab4565b9750610b1e83610e24565b925050600181019050610aff565b5085935050505092915050565b610b4281610ee2565b82525050565b610b5181610eee565b82525050565b610b6081610eee565b82525050565b6101a082016000820151610b7d6000850182610b48565b506020820151610b906020850182610b48565b506040820151610ba36040850182610cbc565b506060820151610bb66060850182610cad565b506080820151610bc96080850182610cad565b5060a0820151610bdc60a0850182610cad565b5060c0820151610bef60c0850182610c71565b5060e0820151610c0260e0850182610c71565b50610100820151610c17610100850182610c71565b50610120820151610c2c610120850182610c71565b50610140820151610c41610140850182610c71565b50610160820151610c56610160850182610c71565b50610180820151610c6b610180850182610ccb565b50505050565b610c7a81610ef8565b82525050565b610c8981610ef8565b82525050565b610c9881610f26565b82525050565b610ca781610f26565b82525050565b610cb681610f30565b82525050565b610cc581610f40565b82525050565b610cd481610f54565b82525050565b6000602082019050610cef6000830184610acc565b92915050565b6000604082019050610d0a6000830185610acc565b610d176020830184610c9e565b9392505050565b60006020820190508181036000830152610d388184610adb565b905092915050565b6000602082019050610d556000830184610b39565b92915050565b6000602082019050610d706000830184610b57565b92915050565b60006101a082019050610d8c6000830184610b66565b92915050565b6000606082019050610da76000830186610c80565b610db46020830185610c80565b610dc16040830184610c80565b949350505050565b6000602082019050610dde6000830184610c9e565b92915050565b6000610dee610dff565b9050610dfa8282610f61565b919050565b6000604051905090565b6000819050602082019050919050565b600081519050919050565b6000602082019050919050565b600082825260208201905092915050565b6000610e4d82610f26565b9150610e5883610f26565b9250817fffffffffffffffffffffffffffffffffffffffffffffffffffffffffffffffff0483118215151615610e9157610e90610fdb565b5b828202905092915050565b6000610ea782610f26565b9150610eb283610f26565b925082821015610ec557610ec4610fdb565b5b828203905092915050565b6000610edb82610f06565b9050919050565b60008115159050919050565b6000819050919050565b600061ffff82169050919050565b600073ffffffffffffffffffffffffffffffffffffffff82169050919050565b6000819050919050565b600063ffffffff82169050919050565b600067ffffffffffffffff82169050919050565b600060ff82169050919050565b610f6a82611039565b810181811067ffffffffffffffff82111715610f8957610f8861100a565b5b80604052505050565b6000610f9d82610f26565b91507fffffffffffffffffffffffffffffffffffffffffffffffffffffffffffffffff821415610fd057610fcf610fdb565b5b600182019050919050565b7f4e487b7100000000000000000000000000000000000000000000000000000000600052601160045260246000fd5b7f4e487b7100000000000000000000000000000000000000000000000000000000600052604160045260246000fd5b6000601f19601f8301169050919050565b61105381610ed0565b811461105e57600080fd5b50565b61106a81610eee565b811461107557600080fd5b50565b61108181610ef8565b811461108c57600080fd5b50565b61109881610f26565b81146110a357600080fd5b50565b6110af81610f30565b81146110ba57600080fd5b50565b6110c681610f40565b81146110d157600080fd5b50565b6110dd81610f54565b81146110e857600080fd5b5056fea2646970667358221220b9bd89fda72f4da367fb762de2ed71e56c056057dfb29d99aa9563aa1d34aeac64736f6c63430008040033",
  "immutableReferences": {},
  "source": "// SPDX-License-Identifier: GPL-3.0 License\n\npragma solidity ^0.8.0;\n\nimport '../common/token/IERC721Enumerable.sol';\nimport '../common/libraries/DragonLibrary.sol';\n\ninterface IDragonContract {\n\tfunction getDragonById(uint256 _dragonId) external view returns (DragonLibrary.Dragon memory);\n}\n\ninterface IGenesLaboratory {\n\tfunction getVisualAttributes(bytes32 genes)\n\t\texternal\n\t\tpure\n\t\treturns (\n\t\t\tuint16 head,\n\t\t\tuint16 body,\n\t\t\tuint16 wings\n\t\t);\n}\n\ncontract DragonApi {\n\n    address internal _dragonAddress;\n\taddress internal _genesLaboratory;\n\n    constructor(address dragonAddress, address genesLaboratory) {\n\t\trequire(dragonAddress != address(0), 'Invalid dragon address');\n\t\trequire(genesLaboratory != address(0), 'Invalid genes laboratory address');\n\n\t\t_dragonAddress = dragonAddress;\n\t\t_genesLaboratory = genesLaboratory;\n\t}\n\n\t/*******************************************************************************************\n        Actions\n    ********************************************************************************************/\n\n\t/*******************************************************************************************\n        GETTERS\n    ********************************************************************************************/\n\n\t/**\n\t * @dev Get all dragons ids owned by owner address\n\t */\n\tfunction getDragonsIdsByOwner(address owner) external view returns (uint256[] memory) {\n\t\tIERC721Enumerable dragonContract = IERC721Enumerable(_dragonAddress);\n\t\tuint256 balance = dragonContract.balanceOf(owner);\n\t\tuint[] memory tokensOfOwner = new uint[](balance);\n\t\tfor (uint256 i = 0; i < balance; i++) {\n\t\t\ttokensOfOwner[i] = dragonContract.tokenOfOwnerByIndex(owner, i);\n\t\t}\n\t\treturn tokensOfOwner;\n\t}\n\n\t/**\n\t * @dev Get dragon data by dragon id\n\t */\n\tfunction getDragonById(uint256 dragonId) external view returns (DragonLibrary.Dragon memory) {\n\t\treturn IDragonContract(_dragonAddress).getDragonById(dragonId);\n\t}\n\n\t/**\n\t * @dev Get amount of dragons owned by owner address\n\t */\n\tfunction getDragonsCountByOwner(address owner) external view returns (uint256) {\n\t\treturn IERC721Enumerable(_dragonAddress).balanceOf(owner);\n\t}\n\n\t/**\n\t * @dev return if dragon is in egg stage\n\t */\n\tfunction isEgg(uint256 dragonId) public view returns (bool) {\n\t\tDragonLibrary.Dragon memory dragon = IDragonContract(_dragonAddress).getDragonById(dragonId);\n\t\tuint256 lifeTimeSinceCreation = (block.timestamp - dragon.creationTime) * 60;\n\t\treturn (lifeTimeSinceCreation < dragon.hatchTime);\n\t}\n\n\tfunction getVisualAttributes(uint256 dragonId)\n\t\texternal\n\t\tview\n\t\treturns (\n\t\t\tuint16 head,\n\t\t\tuint16 body,\n\t\t\tuint16 wings\n\t\t)\n\t{\n\t\tDragonLibrary.Dragon memory dragon = IDragonContract(_dragonAddress).getDragonById(dragonId);\n\t\t(head, body, wings) = IGenesLaboratory(_genesLaboratory).getVisualAttributes(dragon.genes);\n\t}\n}",
  "sourcePath": "/usr/src/app/contractGetter/contracts/public/DragonApi.sol",
  "compiler": {
    "name": "solc",
    "version": "0.8.4+commit.c7e474f2.Emscripten.clang"
  },
  "schemaVersion": "3.4.1",
  "updatedAt": "2022-01-04T14:49:18.072Z",
  "networkType": "ethereum",
  "devdoc": {
    "kind": "dev",
    "methods": {
      "getDragonById(uint256)": {
        "details": "Get dragon data by dragon id"
      },
      "getDragonsCountByOwner(address)": {
        "details": "Get amount of dragons owned by owner address"
      },
      "getDragonsIdsByOwner(address)": {
        "details": "Get all dragons ids owned by owner address"
      },
      "isEgg(uint256)": {
        "details": "return if dragon is in egg stage"
      }
    },
    "version": 1
  },
  "userdoc": {
    "kind": "user",
    "methods": {},
    "version": 1
  }
}