{
  "contractName": "GenesLaboratory",
  "abi": [
    {
      "inputs": [
        {
          "internalType": "address",
          "name": "dragonAddress",
          "type": "address"
        }
      ],
      "stateMutability": "nonpayable",
      "type": "constructor"
    },
    {
      "inputs": [],
      "name": "createNewDragonGenes",
      "outputs": [
        {
          "internalType": "bytes32",
          "name": "genes",
          "type": "bytes32"
        },
        {
          "internalType": "uint16",
          "name": "initialHealth",
          "type": "uint16"
        },
        {
          "internalType": "uint16",
          "name": "initialStrength",
          "type": "uint16"
        },
        {
          "internalType": "uint16",
          "name": "initialAgility",
          "type": "uint16"
        },
        {
          "internalType": "uint16",
          "name": "initialFortitude",
          "type": "uint16"
        },
        {
          "internalType": "uint16",
          "name": "actionCooldown",
          "type": "uint16"
        },
        {
          "internalType": "uint16",
          "name": "hatchTime",
          "type": "uint16"
        }
      ],
      "stateMutability": "nonpayable",
      "type": "function"
    },
    {
      "inputs": [
        {
          "internalType": "bytes32",
          "name": "fatherGenes",
          "type": "bytes32"
        },
        {
          "internalType": "bytes32",
          "name": "motherGenes",
          "type": "bytes32"
        }
      ],
      "name": "createChildGenes",
      "outputs": [
        {
          "internalType": "bytes32",
          "name": "childGenes",
          "type": "bytes32"
        },
        {
          "internalType": "uint16",
          "name": "initialHealth",
          "type": "uint16"
        },
        {
          "internalType": "uint16",
          "name": "initialStrength",
          "type": "uint16"
        },
        {
          "internalType": "uint16",
          "name": "initialAgility",
          "type": "uint16"
        },
        {
          "internalType": "uint16",
          "name": "initialFortitude",
          "type": "uint16"
        },
        {
          "internalType": "uint16",
          "name": "actionCooldown",
          "type": "uint16"
        },
        {
          "internalType": "uint16",
          "name": "hatchTime",
          "type": "uint16"
        }
      ],
      "stateMutability": "nonpayable",
      "type": "function"
    },
    {
      "inputs": [
        {
          "internalType": "bytes32",
          "name": "genes",
          "type": "bytes32"
        }
      ],
      "name": "getVisualAttributes",
      "outputs": [
        {
          "internalType": "uint16",
          "name": "head",
          "type": "uint16"
        },
        {
          "internalType": "uint16",
          "name": "body",
          "type": "uint16"
        },
        {
          "internalType": "uint16",
          "name": "wings",
          "type": "uint16"
        }
      ],
      "stateMutability": "pure",
      "type": "function",
      "constant": true
    },
    {
      "inputs": [
        {
          "internalType": "bytes32",
          "name": "genes",
          "type": "bytes32"
        }
      ],
      "name": "getInitialHealthFromBytes",
      "outputs": [
        {
          "internalType": "uint16",
          "name": "",
          "type": "uint16"
        }
      ],
      "stateMutability": "pure",
      "type": "function",
      "constant": true
    },
    {
      "inputs": [
        {
          "internalType": "bytes32",
          "name": "genes",
          "type": "bytes32"
        }
      ],
      "name": "getMaxHealthFromBytes",
      "outputs": [
        {
          "internalType": "uint16",
          "name": "",
          "type": "uint16"
        }
      ],
      "stateMutability": "pure",
      "type": "function",
      "constant": true
    },
    {
      "inputs": [
        {
          "internalType": "bytes32",
          "name": "genes",
          "type": "bytes32"
        }
      ],
      "name": "getInitialStrengthFromBytes",
      "outputs": [
        {
          "internalType": "uint16",
          "name": "",
          "type": "uint16"
        }
      ],
      "stateMutability": "pure",
      "type": "function",
      "constant": true
    },
    {
      "inputs": [
        {
          "internalType": "bytes32",
          "name": "genes",
          "type": "bytes32"
        }
      ],
      "name": "getMaxStrengthFromBytes",
      "outputs": [
        {
          "internalType": "uint16",
          "name": "",
          "type": "uint16"
        }
      ],
      "stateMutability": "pure",
      "type": "function",
      "constant": true
    },
    {
      "inputs": [
        {
          "internalType": "bytes32",
          "name": "genes",
          "type": "bytes32"
        }
      ],
      "name": "getInitialAgilityFromBytes",
      "outputs": [
        {
          "internalType": "uint16",
          "name": "",
          "type": "uint16"
        }
      ],
      "stateMutability": "pure",
      "type": "function",
      "constant": true
    },
    {
      "inputs": [
        {
          "internalType": "bytes32",
          "name": "genes",
          "type": "bytes32"
        }
      ],
      "name": "getMaxAgilityFromBytes",
      "outputs": [
        {
          "internalType": "uint16",
          "name": "",
          "type": "uint16"
        }
      ],
      "stateMutability": "pure",
      "type": "function",
      "constant": true
    },
    {
      "inputs": [
        {
          "internalType": "bytes32",
          "name": "genes",
          "type": "bytes32"
        }
      ],
      "name": "getInitialFortitudeFromBytes",
      "outputs": [
        {
          "internalType": "uint16",
          "name": "",
          "type": "uint16"
        }
      ],
      "stateMutability": "pure",
      "type": "function",
      "constant": true
    },
    {
      "inputs": [
        {
          "internalType": "bytes32",
          "name": "genes",
          "type": "bytes32"
        }
      ],
      "name": "getMaxFortitudeFromBytes",
      "outputs": [
        {
          "internalType": "uint16",
          "name": "",
          "type": "uint16"
        }
      ],
      "stateMutability": "pure",
      "type": "function",
      "constant": true
    },
    {
      "inputs": [
        {
          "internalType": "bytes32",
          "name": "genes",
          "type": "bytes32"
        }
      ],
      "name": "getActionCooldownFromBytes",
      "outputs": [
        {
          "internalType": "uint16",
          "name": "",
          "type": "uint16"
        }
      ],
      "stateMutability": "pure",
      "type": "function",
      "constant": true
    },
    {
      "inputs": [
        {
          "internalType": "bytes32",
          "name": "genes",
          "type": "bytes32"
        }
      ],
      "name": "getHatchTimeFromBytes",
      "outputs": [
        {
          "internalType": "uint16",
          "name": "",
          "type": "uint16"
        }
      ],
      "stateMutability": "pure",
      "type": "function",
      "constant": true
    },
    {
      "inputs": [
        {
          "internalType": "bytes32",
          "name": "genes",
          "type": "bytes32"
        }
      ],
      "name": "getHeadAttributeFromBytes",
      "outputs": [
        {
          "internalType": "uint16",
          "name": "",
          "type": "uint16"
        }
      ],
      "stateMutability": "pure",
      "type": "function",
      "constant": true
    },
    {
      "inputs": [
        {
          "internalType": "bytes32",
          "name": "genes",
          "type": "bytes32"
        }
      ],
      "name": "getBodyAttributeFromBytes",
      "outputs": [
        {
          "internalType": "uint16",
          "name": "",
          "type": "uint16"
        }
      ],
      "stateMutability": "pure",
      "type": "function",
      "constant": true
    },
    {
      "inputs": [
        {
          "internalType": "bytes32",
          "name": "genes",
          "type": "bytes32"
        }
      ],
      "name": "getWingsAttributeFromBytes",
      "outputs": [
        {
          "internalType": "uint16",
          "name": "",
          "type": "uint16"
        }
      ],
      "stateMutability": "pure",
      "type": "function",
      "constant": true
    },
    {
      "inputs": [
        {
          "internalType": "bytes32",
          "name": "genes",
          "type": "bytes32"
        }
      ],
      "name": "getGenerationAttributeFromBytes",
      "outputs": [
        {
          "internalType": "uint16",
          "name": "",
          "type": "uint16"
        }
      ],
      "stateMutability": "pure",
      "type": "function",
      "constant": true
    }
  ],
  "bytecode": "0x60806040523480156200001157600080fd5b506040516200184838038062001848833981810160405281019062000037919062000108565b600073ffffffffffffffffffffffffffffffffffffffff168173ffffffffffffffffffffffffffffffffffffffff161415620000aa576040517f08c379a0000000000000000000000000000000000000000000000000000000008152600401620000a1906200015b565b60405180910390fd5b806000806101000a81548173ffffffffffffffffffffffffffffffffffffffff021916908373ffffffffffffffffffffffffffffffffffffffff1602179055505062000205565b6000815190506200010281620001eb565b92915050565b6000602082840312156200011b57600080fd5b60006200012b84828501620000f1565b91505092915050565b600062000143601e836200017d565b91506200015082620001c2565b602082019050919050565b60006020820190508181036000830152620001768162000134565b9050919050565b600082825260208201905092915050565b60006200019b82620001a2565b9050919050565b600073ffffffffffffffffffffffffffffffffffffffff82169050919050565b7f496e76616c696420647261676f6e206164647265737320616464726573730000600082015250565b620001f6816200018e565b81146200020257600080fd5b50565b61163380620002156000396000f3fe608060405234801561001057600080fd5b506004361061010b5760003560e01c8063c32369a3116100a2578063e71bb1a011610071578063e71bb1a01461034c578063ea4f89f31461037c578063ecb04748146103ac578063f5373ed7146103dc578063ff1816ee1461040c5761010b565b8063c32369a31461028c578063cf4cd1de146102bc578063d77936ec146102ec578063d9b8a6181461031c5761010b565b806353df58d7116100de57806353df58d7146101c45780636204f857146101fa57806370f17ac81461022a57806391926cff1461025a5761010b565b80630ce68f8a14610110578063238e672a14610140578063355916a41461017057806352bc13fe14610194575b600080fd5b61012a600480360381019061012591906111bb565b61043c565b6040516101379190611318565b60405180910390f35b61015a600480360381019061015591906111bb565b61044d565b6040516101679190611318565b60405180910390f35b61017861045e565b60405161018b97969594939291906112a9565b60405180910390f35b6101ae60048036038101906101a991906111bb565b610530565b6040516101bb9190611318565b60405180910390f35b6101de60048036038101906101d991906111e4565b610541565b6040516101f197969594939291906112a9565b60405180910390f35b610214600480360381019061020f91906111bb565b610632565b6040516102219190611318565b60405180910390f35b610244600480360381019061023f91906111bb565b610643565b6040516102519190611318565b60405180910390f35b610274600480360381019061026f91906111bb565b610654565b60405161028393929190611333565b60405180910390f35b6102a660048036038101906102a191906111bb565b610681565b6040516102b39190611318565b60405180910390f35b6102d660048036038101906102d191906111bb565b610692565b6040516102e39190611318565b60405180910390f35b610306600480360381019061030191906111bb565b6106a3565b6040516103139190611318565b60405180910390f35b610336600480360381019061033191906111bb565b6106b4565b6040516103439190611318565b60405180910390f35b610366600480360381019061036191906111bb565b6106c5565b6040516103739190611318565b60405180910390f35b610396600480360381019061039191906111bb565b6106d6565b6040516103a39190611318565b60405180910390f35b6103c660048036038101906103c191906111bb565b6106e7565b6040516103d39190611318565b60405180910390f35b6103f660048036038101906103f191906111bb565b6106f8565b6040516104039190611318565b60405180910390f35b610426600480360381019061042191906111bb565b610709565b6040516104339190611318565b60405180910390f35b600060908260001c901c9050919050565b600060d08260001c901c9050919050565b600080600080600080600061047287610716565b80975081985050506104838761074d565b965061048e8761077f565b809650819850505061049f876107b6565b96506104aa876107e8565b80955081985050506104bb8761081f565b96506104c687610851565b80945081985050506104d787610888565b96506104e2876108ba565b80935081985050506104f3876108e7565b809250819850505061050487610915565b965061050f8761094d565b965061051a87610985565b9650610525876109bd565b965090919293949596565b600060608260001c901c9050919050565b6000806000806000806000610557878a8a6109db565b809750819850505061056a878a8a610a33565b9650610577878a8a610a85565b809650819850505061058a878a8a610add565b9650610597878a8a610b2f565b80955081985050506105aa878a8a610b87565b96506105b7878a8a610bd9565b80945081985050506105ca878a8a610c31565b96506105d7878a8a610c83565b80935081985050506105ea878a8a610d1f565b80925081985050506105fd878a8a610dbb565b965061060a878a8a610e0d565b9650610617878a8a610e5f565b9650610624878a8a610eb1565b965092959891949750929550565b600060a08260001c901c9050919050565b600060308260001c901c9050919050565b6000806000610662846106d6565b925061066d846106c5565b915061067884610643565b90509193909250565b600060b08260001c901c9050919050565b600060e08260001c901c9050919050565b600060708260001c901c9050919050565b600060c08260001c901c9050919050565b600060408260001c901c9050919050565b600060508260001c901c9050919050565b600060f08260001c901c9050919050565b600060808260001c901c9050919050565b60008160001c9050919050565b600080600061072760106016610ef9565b9050600060f082901b905060008560001c821790508060001b8394509450505050915091565b60008061075c60af60e1610ef9565b9050600060e082901b905060008460001c821790508060001b9350505050919050565b600080600061079060046006610ef9565b9050600060d082901b905060008560001c821790508060001b8394509450505050915091565b6000806107c56032604b610ef9565b9050600060c082901b905060008460001c821790508060001b9350505050919050565b60008060006107f960046006610ef9565b9050600060b082901b905060008560001c821790508060001b8394509450505050915091565b60008061082e6032604b610ef9565b9050600060a082901b905060008460001c821790508060001b9350505050919050565b600080600061086260046006610ef9565b90506000609082901b905060008560001c821790508060001b8394509450505050915091565b6000806108976032604b610ef9565b90506000608082901b905060008460001c821790508060001b9350505050919050565b600080600060b490506000607082901b905060008560001c821790508060001b8394509450505050915091565b600080600061016890506000606082901b905060008560001c821790508060001b8394509450505050915091565b600080600590506000610929600083610ef9565b90506000605082901b905060008560001c821790508060001b945050505050919050565b600080600590506000610961600083610ef9565b90506000604082901b905060008560001c821790508060001b945050505050919050565b600080600590506000610999600083610ef9565b90506000603082901b905060008560001c821790508060001b945050505050919050565b6000806001905060008360001c821790508060001b92505050919050565b60008060006109e9856106e7565b905060006109f6856106e7565b90506000610a048383610f86565b61ffff169050600060f082901b905060008960001c821790508060001b83965096505050505050935093915050565b600080610a3f84610692565b90506000610a4c84610692565b90506000610a5a8383610f86565b61ffff169050600060e082901b905060008860001c821790508060001b955050505050509392505050565b6000806000610a938561044d565b90506000610aa08561044d565b90506000610aae8383610f86565b61ffff169050600060d082901b905060008960001c821790508060001b83965096505050505050935093915050565b600080610ae9846106b4565b90506000610af6846106b4565b90506000610b048383610f86565b61ffff169050600060c082901b905060008860001c821790508060001b955050505050509392505050565b6000806000610b3d85610681565b90506000610b4a85610681565b90506000610b588383610f86565b61ffff169050600060b082901b905060008960001c821790508060001b83965096505050505050935093915050565b600080610b9384610632565b90506000610ba084610632565b90506000610bae8383610f86565b61ffff169050600060a082901b905060008860001c821790508060001b955050505050509392505050565b6000806000610be78561043c565b90506000610bf48561043c565b90506000610c028383610f86565b61ffff1690506000609082901b905060008960001c821790508060001b83965096505050505050935093915050565b600080610c3d846106b4565b90506000610c4a846106b4565b90506000610c588383610f86565b61ffff1690506000608082901b905060008860001c821790508060001b955050505050509392505050565b6000806000610c9185610530565b90506000610c9e85610530565b905060008161ffff168361ffff161115610cbe578261ffff169050610cc6565b8161ffff1690505b60006103e861044c83610cd991906113f1565b610ce391906113c0565b905061ffff811115610cf55761ffff90505b6000607082901b905060008a60001c821790508060001b8397509750505050505050935093915050565b6000806000610d2d85610530565b90506000610d3a85610530565b905060008161ffff168361ffff161115610d5a578261ffff169050610d62565b8161ffff1690505b60006103e861044c83610d7591906113f1565b610d7f91906113c0565b905061ffff811115610d915761ffff90505b6000606082901b905060008a60001c821790508060001b8397509750505050505050935093915050565b600080610dc7846106d6565b90506000610dd4846106d6565b90506000610de28383611076565b61ffff1690506000605082901b905060008860001c821790508060001b955050505050509392505050565b600080610e19846106c5565b90506000610e26846106c5565b90506000610e3483836110c3565b61ffff1690506000603c82901b905060008860001c821790508060001b955050505050509392505050565b600080610e6b846106c5565b90506000610e78846106c5565b90506000610e868383611110565b61ffff1690506000602882901b905060008860001c821790508060001b955050505050509392505050565b600080610ebd84610709565b90506000610eca84610709565b90506000610ed8838361115d565b61ffff16905060008760001c821790508060001b9450505050509392505050565b60008060018484610f0a919061144b565b610f14919061136a565b90506000814233600154604051602001610f309392919061126c565b6040516020818303038152906040528051906020012060001c610f53919061154a565b90508481610f61919061136a565b905060016000815480929190610f76906114d3565b9190505550809250505092915050565b6000806127108461ffff16610f9b91906113f1565b905060006127108461ffff16610fb191906113f1565b905060008082841015610fc957839150829050610fd0565b8291508390505b611d4c6064605f84610fe291906113f1565b610fec91906113c0565b610ff6919061144b565b91506127108210156110085761271091505b611d4c606460698361101a91906113f1565b61102491906113c0565b61102e919061136a565b905060006127106113886110428585610ef9565b61104c919061136a565b61105691906113c0565b905061ffff8111156110685761ffff90505b809550505050505092915050565b6000806110866000612710610ef9565b9050610fa081101561109a578391506110bc565b611d4c8110156110ac578291506110bb565b6110b860016004610ef9565b91505b5b5092915050565b6000806110d36000612710610ef9565b9050610ea68110156110e757839150611109565b611d4c8110156110f957829150611108565b61110560016004610ef9565b91505b5b5092915050565b6000806111206000612710610ef9565b9050610dac81101561113457839150611156565b611d4c81101561114657829150611155565b61115260016004610ef9565b91505b5b5092915050565b6000808261ffff168461ffff16116111755782611177565b835b61ffff16905060018161118a919061136a565b905061ffff81111561119c5761ffff90505b8091505092915050565b6000813590506111b5816115e6565b92915050565b6000602082840312156111cd57600080fd5b60006111db848285016111a6565b91505092915050565b600080604083850312156111f757600080fd5b6000611205858286016111a6565b9250506020611216858286016111a6565b9150509250929050565b61123161122c8261147f565b61151c565b82525050565b61124081611491565b82525050565b61124f8161149b565b82525050565b611266611261826114c9565b611540565b82525050565b60006112788286611255565b6020820191506112888285611220565b6014820191506112988284611255565b602082019150819050949350505050565b600060e0820190506112be600083018a611237565b6112cb6020830189611246565b6112d86040830188611246565b6112e56060830187611246565b6112f26080830186611246565b6112ff60a0830185611246565b61130c60c0830184611246565b98975050505050505050565b600060208201905061132d6000830184611246565b92915050565b60006060820190506113486000830186611246565b6113556020830185611246565b6113626040830184611246565b949350505050565b6000611375826114c9565b9150611380836114c9565b9250827fffffffffffffffffffffffffffffffffffffffffffffffffffffffffffffffff038211156113b5576113b461157b565b5b828201905092915050565b60006113cb826114c9565b91506113d6836114c9565b9250826113e6576113e56115aa565b5b828204905092915050565b60006113fc826114c9565b9150611407836114c9565b9250817fffffffffffffffffffffffffffffffffffffffffffffffffffffffffffffffff04831182151516156114405761143f61157b565b5b828202905092915050565b6000611456826114c9565b9150611461836114c9565b9250828210156114745761147361157b565b5b828203905092915050565b600061148a826114a9565b9050919050565b6000819050919050565b600061ffff82169050919050565b600073ffffffffffffffffffffffffffffffffffffffff82169050919050565b6000819050919050565b60006114de826114c9565b91507fffffffffffffffffffffffffffffffffffffffffffffffffffffffffffffffff8214156115115761151061157b565b5b600182019050919050565b60006115278261152e565b9050919050565b6000611539826115d9565b9050919050565b6000819050919050565b6000611555826114c9565b9150611560836114c9565b9250826115705761156f6115aa565b5b828206905092915050565b7f4e487b7100000000000000000000000000000000000000000000000000000000600052601160045260246000fd5b7f4e487b7100000000000000000000000000000000000000000000000000000000600052601260045260246000fd5b60008160601b9050919050565b6115ef81611491565b81146115fa57600080fd5b5056fea26469706673582212207cbd38ee676b69e93763764530286431b6f1e8b31833be5dd19424407c0ef47b64736f6c63430008040033",
  "immutableReferences": {},
  "source": "// SPDX-License-Identifier: GPL-3.0 License\n\npragma solidity ^0.8.0;\n\ncontract GenesLaboratory {\n\taddress private _dragonContractAddress;\n\tuint256 private _randomNonce;\n\n\tconstructor(address dragonAddress) {\n\t\trequire(dragonAddress != address(0), 'Invalid dragon address address');\n\t\t_dragonContractAddress = dragonAddress;\n\t}\n\n\tmodifier onlyFromDragonContract() {\n\t\t_;\n\t}\n\n\tfunction createNewDragonGenes()\n\t\tpublic\n\t\tonlyFromDragonContract\n\t\treturns (\n\t\t\tbytes32 genes,\n\t\t\tuint16 initialHealth,\n\t\t\tuint16 initialStrength,\n\t\t\tuint16 initialAgility,\n\t\t\tuint16 initialFortitude,\n\t\t\tuint16 actionCooldown,\n\t\t\tuint16 hatchTime\n\t\t)\n\t{\n\t\t(genes, initialHealth) = createInitialHealthValue(genes);\n\t\tgenes = createMaxHealthValue(genes);\n\t\t(genes, initialStrength) = createInitialStrengthValue(genes);\n\t\tgenes = createMaxStrengthValue(genes);\n\t\t(genes, initialAgility) = createInitialAgilityValue(genes);\n\t\tgenes = createMaxAgilityValue(genes);\n\t\t(genes, initialFortitude) = createInitialFortitudeValue(genes);\n\t\tgenes = createMaxFortitudeValue(genes);\n\t\t(genes, actionCooldown) = createActionCooldown(genes);\n\t\t(genes, hatchTime) = createHatchTime(genes);\n\t\tgenes = createHead(genes);\n\t\tgenes = createBody(genes);\n\t\tgenes = createWings(genes);\n\t\tgenes = createGeneration(genes);\n\t}\n\n\tfunction createChildGenes(bytes32 fatherGenes, bytes32 motherGenes)\n\t\tpublic\n\t\tonlyFromDragonContract\n\t\treturns (\n\t\t\tbytes32 childGenes,\n\t\t\tuint16 initialHealth,\n\t\t\tuint16 initialStrength,\n\t\t\tuint16 initialAgility,\n\t\t\tuint16 initialFortitude,\n\t\t\tuint16 actionCooldown,\n\t\t\tuint16 hatchTime\n\t\t)\n\t{\n\t\t(childGenes, initialHealth) = getChildInitialHealth(childGenes, fatherGenes, motherGenes);\n\t\tchildGenes = getChildMaxHealth(childGenes, fatherGenes, motherGenes);\n\t\t(childGenes, initialStrength) = getChildInitialStrength(childGenes, fatherGenes, motherGenes);\n\t\tchildGenes = getChildMaxStrength(childGenes, fatherGenes, motherGenes);\n\t\t(childGenes, initialAgility) = getChildInitialAgility(childGenes, fatherGenes, motherGenes);\n\t\tchildGenes = getChildMaxAgility(childGenes, fatherGenes, motherGenes);\n\t\t(childGenes, initialFortitude) = getChildInitialFortitude(childGenes, fatherGenes, motherGenes);\n\t\tchildGenes = getChildMaxFortitude(childGenes, fatherGenes, motherGenes);\n\t\t(childGenes, actionCooldown) = getChildActionCooldown(childGenes, fatherGenes, motherGenes);\n\t\t(childGenes, hatchTime) = getChildHatchTime(childGenes, fatherGenes, motherGenes);\n\t\tchildGenes = getChildHead(childGenes, fatherGenes, motherGenes);\n\t\tchildGenes = getChildBody(childGenes, fatherGenes, motherGenes);\n\t\tchildGenes = getChildWings(childGenes, fatherGenes, motherGenes);\n\t\tchildGenes = getChildGeneration(childGenes, fatherGenes, motherGenes);\n\t}\n\t\n\tfunction getVisualAttributes(bytes32 genes) external pure returns (uint16 head, uint16 body, uint16 wings) {\n\t    head = getHeadAttributeFromBytes(genes);\n\t    body = getBodyAttributeFromBytes(genes);\n\t    wings = getWingsAttributeFromBytes(genes);\n\t}\n\n\t/************************** Genes creation ***************************************** */\n\n\tfunction createInitialHealthValue(bytes32 genes) private returns (bytes32, uint16) {\n\t\tuint256 value = random(16, 22);\n\t\tuint256 shiftedValue = value << (30 * 8);\n\t\tuint256 result = shiftedValue | uint256(genes);\n\t\treturn (bytes32(result), uint16(value));\n\t}\n\n\tfunction createMaxHealthValue(bytes32 genes) private returns (bytes32) {\n\t\tuint256 value = random(175, 225);\n\t\tuint256 shiftedValue = value << (28 * 8);\n\t\tuint256 result = shiftedValue | uint256(genes);\n\t\treturn bytes32(result);\n\t}\n\n\tfunction createInitialStrengthValue(bytes32 genes) private returns (bytes32, uint16) {\n\t\tuint256 value = random(4, 6);\n\t\tuint256 shiftedValue = value << (26 * 8);\n\t\tuint256 result = shiftedValue | uint256(genes);\n\t\treturn (bytes32(result), uint16(value));\n\t}\n\n\tfunction createMaxStrengthValue(bytes32 genes) private returns (bytes32) {\n\t\tuint256 value = random(50, 75);\n\t\tuint256 shiftedValue = value << (24 * 8);\n\t\tuint256 result = shiftedValue | uint256(genes);\n\t\treturn bytes32(result);\n\t}\n\n\tfunction createInitialAgilityValue(bytes32 genes) private returns (bytes32, uint16) {\n\t\tuint256 value = random(4, 6);\n\t\tuint256 shiftedValue = value << (22 * 8);\n\t\tuint256 result = shiftedValue | uint256(genes);\n\t\treturn (bytes32(result), uint16(value));\n\t}\n\n\tfunction createMaxAgilityValue(bytes32 genes) private returns (bytes32) {\n\t\tuint256 value = random(50, 75);\n\t\tuint256 shiftedValue = value << (20 * 8);\n\t\tuint256 result = shiftedValue | uint256(genes);\n\t\treturn bytes32(result);\n\t}\n\n\tfunction createInitialFortitudeValue(bytes32 genes) private returns (bytes32, uint16) {\n\t\tuint256 value = random(4, 6);\n\t\tuint256 shiftedValue = value << (18 * 8);\n\t\tuint256 result = shiftedValue | uint256(genes);\n\t\treturn (bytes32(result), uint16(value));\n\t}\n\n\tfunction createMaxFortitudeValue(bytes32 genes) private returns (bytes32) {\n\t\tuint256 value = random(50, 75);\n\t\tuint256 shiftedValue = value << (16 * 8);\n\t\tuint256 result = shiftedValue | uint256(genes);\n\t\treturn bytes32(result);\n\t}\n\n\tfunction createActionCooldown(bytes32 genes) private pure returns (bytes32, uint16) {\n\t\tuint256 value = 180;\n\t\tuint256 shiftedValue = value << (14 * 8);\n\t\tuint256 result = shiftedValue | uint256(genes);\n\t\treturn (bytes32(result), uint16(value));\n\t}\n\n\tfunction createHatchTime(bytes32 genes) private pure returns (bytes32, uint16) {\n\t\tuint256 value = 360;\n\t\tuint256 shiftedValue = value << (12 * 8);\n\t\tuint256 result = shiftedValue | uint256(genes);\n\t\treturn (bytes32(result), uint16(value));\n\t}\n\n\tfunction createHead(bytes32 genes) private returns (bytes32) {\n\t\tuint256 headsAmount = 5;\n\t\tuint256 value = random(0, headsAmount);\n\n\t\tuint256 shiftedValue = value << (10 * 8);\n\t\tuint256 result = shiftedValue | uint256(genes);\n\t\treturn bytes32(result);\n\t}\n\n\tfunction createBody(bytes32 genes) private returns (bytes32) {\n\t\tuint256 bodyAmount = 5;\n\t\tuint256 value = random(0, bodyAmount);\n\n\t\tuint256 shiftedValue = value << (8 * 8);\n\t\tuint256 result = shiftedValue | uint256(genes);\n\t\treturn bytes32(result);\n\t}\n\n\tfunction createWings(bytes32 genes) private returns (bytes32) {\n\t\tuint256 wingsAmount = 5;\n\t\tuint256 value = random(0, wingsAmount);\n\n\t\tuint256 shiftedValue = value << (6 * 8);\n\t\tuint256 result = shiftedValue | uint256(genes);\n\t\treturn bytes32(result);\n\t}\n\n\tfunction createGeneration(bytes32 genes) private pure returns (bytes32) {\n\t\tuint256 generation = 1;\n\t\tuint256 result = generation | uint256(genes);\n\t\treturn bytes32(result);\n\t}\n\n\t/******************************* Genes propagation ****************************************************/\n\n\tfunction getChildInitialHealth(\n\t\tbytes32 childGenes,\n\t\tbytes32 fatherGenes,\n\t\tbytes32 motherGenes\n\t) private returns (bytes32, uint16) {\n\t\tuint16 fatherInitialHealth = getInitialHealthFromBytes(fatherGenes);\n\t\tuint16 motherInitialHealth = getInitialHealthFromBytes(motherGenes);\n\n\t\tuint256 childInitialHealth = generateChildValue(fatherInitialHealth, motherInitialHealth);\n\n\t\tuint256 shiftedValue = childInitialHealth << (30 * 8);\n\t\tuint256 result = shiftedValue | uint256(childGenes);\n\t\treturn (bytes32(result), uint16(childInitialHealth));\n\t}\n\n\tfunction getChildMaxHealth(\n\t\tbytes32 childGenes,\n\t\tbytes32 fatherGenes,\n\t\tbytes32 motherGenes\n\t) private returns (bytes32) {\n\t\tuint16 fatherMaxHealth = getMaxHealthFromBytes(fatherGenes);\n\t\tuint16 motherMaxHealth = getMaxHealthFromBytes(motherGenes);\n\n\t\tuint256 childMaxHealth = generateChildValue(fatherMaxHealth, motherMaxHealth);\n\n\t\tuint256 shiftedValue = childMaxHealth << (28 * 8);\n\t\tuint256 result = shiftedValue | uint256(childGenes);\n\t\treturn bytes32(result);\n\t}\n\n\tfunction getChildInitialStrength(\n\t\tbytes32 childGenes,\n\t\tbytes32 fatherGenes,\n\t\tbytes32 motherGenes\n\t) private returns (bytes32, uint16) {\n\t\tuint16 fatherInitialStrength = getInitialStrengthFromBytes(fatherGenes);\n\t\tuint16 motherInitialStrength = getInitialStrengthFromBytes(motherGenes);\n\n\t\tuint256 childInitialStrength = generateChildValue(fatherInitialStrength, motherInitialStrength);\n\n\t\tuint256 shiftedValue = childInitialStrength << (26 * 8);\n\t\tuint256 result = shiftedValue | uint256(childGenes);\n\t\treturn (bytes32(result), uint16(childInitialStrength));\n\t}\n\n\tfunction getChildMaxStrength(\n\t\tbytes32 childGenes,\n\t\tbytes32 fatherGenes,\n\t\tbytes32 motherGenes\n\t) private returns (bytes32) {\n\t\tuint16 fatherMaxStrength = getMaxStrengthFromBytes(fatherGenes);\n\t\tuint16 motherMaxStrength = getMaxStrengthFromBytes(motherGenes);\n\n\t\tuint256 childMaxStrength = generateChildValue(fatherMaxStrength, motherMaxStrength);\n\n\t\tuint256 shiftedValue = childMaxStrength << (24 * 8);\n\t\tuint256 result = shiftedValue | uint256(childGenes);\n\t\treturn bytes32(result);\n\t}\n\n\tfunction getChildInitialAgility(\n\t\tbytes32 childGenes,\n\t\tbytes32 fatherGenes,\n\t\tbytes32 motherGenes\n\t) private returns (bytes32, uint16) {\n\t\tuint16 fatherInitialAgility = getInitialAgilityFromBytes(fatherGenes);\n\t\tuint16 motherInitialAgility = getInitialAgilityFromBytes(motherGenes);\n\n\t\tuint256 childInitialAgility = generateChildValue(fatherInitialAgility, motherInitialAgility);\n\n\t\tuint256 shiftedValue = childInitialAgility << (22 * 8);\n\t\tuint256 result = shiftedValue | uint256(childGenes);\n\t\treturn (bytes32(result), uint16(childInitialAgility));\n\t}\n\n\tfunction getChildMaxAgility(\n\t\tbytes32 childGenes,\n\t\tbytes32 fatherGenes,\n\t\tbytes32 motherGenes\n\t) private returns (bytes32) {\n\t\tuint16 fatherMaxAgility = getMaxAgilityFromBytes(fatherGenes);\n\t\tuint16 motherMaxAgility = getMaxAgilityFromBytes(motherGenes);\n\n\t\tuint256 childMaxAgility = generateChildValue(fatherMaxAgility, motherMaxAgility);\n\n\t\tuint256 shiftedValue = childMaxAgility << (20 * 8);\n\t\tuint256 result = shiftedValue | uint256(childGenes);\n\t\treturn bytes32(result);\n\t}\n\n\tfunction getChildInitialFortitude(\n\t\tbytes32 childGenes,\n\t\tbytes32 fatherGenes,\n\t\tbytes32 motherGenes\n\t) private returns (bytes32, uint16) {\n\t\tuint16 fatherInitialFortitude = getInitialFortitudeFromBytes(fatherGenes);\n\t\tuint16 motherInitialFortitude = getInitialFortitudeFromBytes(motherGenes);\n\n\t\tuint256 childInitialFortitude = generateChildValue(fatherInitialFortitude, motherInitialFortitude);\n\n\t\tuint256 shiftedValue = childInitialFortitude << (18 * 8);\n\t\tuint256 result = shiftedValue | uint256(childGenes);\n\t\treturn (bytes32(result), uint16(childInitialFortitude));\n\t}\n\n\tfunction getChildMaxFortitude(\n\t\tbytes32 childGenes,\n\t\tbytes32 fatherGenes,\n\t\tbytes32 motherGenes\n\t) private returns (bytes32) {\n\t\tuint16 fatherMaxFortitude = getMaxStrengthFromBytes(fatherGenes);\n\t\tuint16 motherMaxFortitude = getMaxStrengthFromBytes(motherGenes);\n\n\t\tuint256 childMaxFortitude = generateChildValue(fatherMaxFortitude, motherMaxFortitude);\n\n\t\tuint256 shiftedValue = childMaxFortitude << (16 * 8);\n\t\tuint256 result = shiftedValue | uint256(childGenes);\n\t\treturn bytes32(result);\n\t}\n\n\tfunction getChildActionCooldown(\n\t\tbytes32 childGenes,\n\t\tbytes32 fatherGenes,\n\t\tbytes32 motherGenes\n\t) private pure returns (bytes32, uint16) {\n\t\tuint16 fatherHatchTime = getHatchTimeFromBytes(fatherGenes);\n\t\tuint16 motherHatchTime = getHatchTimeFromBytes(motherGenes);\n\n\t\tuint256 maxValue;\n\t\tif (fatherHatchTime > motherHatchTime) {\n\t\t\tmaxValue = fatherHatchTime;\n\t\t} else {\n\t\t\tmaxValue = motherHatchTime;\n\t\t}\n\n\t\tuint256 value = (uint256(maxValue) * 1100) / 1000;\n\t\tif (value > 65535) {\n\t\t\tvalue = 65535;\n\t\t}\n\t\tuint256 shiftedValue = value << (14 * 8);\n\t\tuint256 result = shiftedValue | uint256(childGenes);\n\t\treturn (bytes32(result), uint16(value));\n\t}\n\n\tfunction getChildHatchTime(\n\t\tbytes32 childGenes,\n\t\tbytes32 fatherGenes,\n\t\tbytes32 motherGenes\n\t) private pure returns (bytes32, uint16) {\n\t\tuint16 fatherHatchTime = getHatchTimeFromBytes(fatherGenes);\n\t\tuint16 motherHatchTime = getHatchTimeFromBytes(motherGenes);\n\n\t\tuint256 maxValue;\n\t\tif (fatherHatchTime > motherHatchTime) {\n\t\t\tmaxValue = fatherHatchTime;\n\t\t} else {\n\t\t\tmaxValue = motherHatchTime;\n\t\t}\n\n\t\tuint256 value = (uint256(maxValue) * 1100) / 1000;\n\t\tif (value > 65535) {\n\t\t\tvalue = 65535;\n\t\t}\n\t\tuint256 shiftedValue = value << (12 * 8);\n\t\tuint256 result = shiftedValue | uint256(childGenes);\n\t\treturn (bytes32(result), uint16(value));\n\t}\n\n\tfunction getChildHead(\n\t\tbytes32 childGenes,\n\t\tbytes32 fatherGenes,\n\t\tbytes32 motherGenes\n\t) private returns (bytes32) {\n\t\tuint16 fatherHead = getHeadAttributeFromBytes(fatherGenes);\n\t\tuint16 motherHead = getHeadAttributeFromBytes(motherGenes);\n\n\t\tuint256 childHead = generateChildHeadValue(fatherHead, motherHead);\n\n\t\tuint256 shiftedValue = childHead << (10 * 8);\n\t\tuint256 result = shiftedValue | uint256(childGenes);\n\t\treturn bytes32(result);\n\t}\n\n\tfunction getChildBody(\n\t\tbytes32 childGenes,\n\t\tbytes32 fatherGenes,\n\t\tbytes32 motherGenes\n\t) private returns (bytes32) {\n\t\tuint16 fatherBody = getBodyAttributeFromBytes(fatherGenes);\n\t\tuint16 motherBody = getBodyAttributeFromBytes(motherGenes);\n\n\t\tuint256 childBody = generateChildBodyValue(fatherBody, motherBody);\n\n\t\tuint256 shiftedValue = childBody << (10 * 6);\n\t\tuint256 result = shiftedValue | uint256(childGenes);\n\t\treturn bytes32(result);\n\t}\n\n\tfunction getChildWings(\n\t\tbytes32 childGenes,\n\t\tbytes32 fatherGenes,\n\t\tbytes32 motherGenes\n\t) private returns (bytes32) {\n\t\tuint16 fatherWings = getBodyAttributeFromBytes(fatherGenes);\n\t\tuint16 motherWings = getBodyAttributeFromBytes(motherGenes);\n\n\t\tuint256 childWings = generateChildWingsValue(fatherWings, motherWings);\n\n\t\tuint256 shiftedValue = childWings << (10 * 4);\n\t\tuint256 result = shiftedValue | uint256(childGenes);\n\t\treturn bytes32(result);\n\t}\n\n\tfunction getChildGeneration(\n\t\tbytes32 childGenes,\n\t\tbytes32 fatherGenes,\n\t\tbytes32 motherGenes\n\t) private pure returns (bytes32) {\n\t\tuint16 fatherGeneration = getGenerationAttributeFromBytes(fatherGenes);\n\t\tuint16 motherGeneration = getGenerationAttributeFromBytes(motherGenes);\n\n\t\tuint256 childGeneration = generateChildGeneration(fatherGeneration, motherGeneration);\n\n\t\tuint256 result = childGeneration | uint256(childGenes);\n\t\treturn bytes32(result);\n\t}\n\n\tfunction generateChildValue(uint16 fatherValue, uint16 motherValue) private returns (uint16 value) {\n\t\tuint256 fatherFixedValue = uint256(fatherValue) * 10000;\n\t\tuint256 motherFixedValue = uint256(motherValue) * 10000;\n\n\t\tuint256 minimumValue;\n\t\tuint256 maximumValue;\n\t\tif (fatherFixedValue < motherFixedValue) {\n\t\t\tminimumValue = fatherFixedValue;\n\t\t\tmaximumValue = motherFixedValue;\n\t\t} else {\n\t\t\tminimumValue = motherFixedValue;\n\t\t\tmaximumValue = fatherFixedValue;\n\t\t}\n\n\t\t// Increase variance by 7500 to allow stats jump on lower values\n\t\tminimumValue = ((minimumValue * 95) / 100) - 7500;\n\t\tif (minimumValue < 10000) {\n\t\t\tminimumValue = 10000;\n\t\t}\n\t\tmaximumValue = ((maximumValue * 105) / 100) + 7500;\n\n\t\t// adds 5000 to round positive integer value and clamp value to prevent int overflow\n\t\tuint256 randomValue = (random(minimumValue, maximumValue) + 5000) / 10000;\n\t\tif (randomValue > 65535) {\n\t\t\trandomValue = 65535;\n\t\t}\n\t\treturn uint16(randomValue);\n\t}\n\n\tfunction generateChildHeadValue(uint16 fatherValue, uint16 motherValue) private returns (uint16 value) {\n\t\tuint256 roll = random(0, 10000);\n\t\tif (roll < 4000) {\n\t\t\tvalue = fatherValue;\n\t\t} else if (roll < 7500) {\n\t\t\tvalue = motherValue;\n\t\t} else {\n\t\t\tvalue = uint16(random(1, 4));\n\t\t}\n\t}\n\n\tfunction generateChildBodyValue(uint16 fatherValue, uint16 motherValue) private returns (uint16 value) {\n\t\tuint256 roll = random(0, 10000);\n\t\tif (roll < 3750) {\n\t\t\tvalue = fatherValue;\n\t\t} else if (roll < 7500) {\n\t\t\tvalue = motherValue;\n\t\t} else {\n\t\t\tvalue = uint16(random(1, 4));\n\t\t}\n\t}\n\n\tfunction generateChildWingsValue(uint16 fatherValue, uint16 motherValue) private returns (uint16 value) {\n\t\tuint256 roll = random(0, 10000);\n\t\tif (roll < 3500) {\n\t\t\tvalue = fatherValue;\n\t\t} else if (roll < 7500) {\n\t\t\tvalue = motherValue;\n\t\t} else {\n\t\t\tvalue = uint16(random(1, 4));\n\t\t}\n\t}\n\n\tfunction generateChildGeneration(uint16 fatherValue, uint16 motherValue) private pure returns (uint16) {\n\t\tuint256 maxValue = (fatherValue > motherValue) ? fatherValue : motherValue;\n\t\tmaxValue = maxValue + 1;\n\t\tif (maxValue > 65535) {\n\t\t\tmaxValue = 65535;\n\t\t}\n\t\treturn uint16(maxValue);\n\t}\n\n\t/**************************** Getters *********************************************** */\n\n\tfunction getInitialHealthFromBytes(bytes32 genes) public pure returns (uint16) {\n\t\treturn uint16(uint256(genes) >> (30 * 8));\n\t}\n\n\tfunction getMaxHealthFromBytes(bytes32 genes) public pure returns (uint16) {\n\t\treturn uint16(uint256(genes) >> (28 * 8));\n\t}\n\n\tfunction getInitialStrengthFromBytes(bytes32 genes) public pure returns (uint16) {\n\t\treturn uint16(uint256(genes) >> (26 * 8));\n\t}\n\n\tfunction getMaxStrengthFromBytes(bytes32 genes) public pure returns (uint16) {\n\t\treturn uint16(uint256(genes) >> (24 * 8));\n\t}\n\n\tfunction getInitialAgilityFromBytes(bytes32 genes) public pure returns (uint16) {\n\t\treturn uint16(uint256(genes) >> (22 * 8));\n\t}\n\n\tfunction getMaxAgilityFromBytes(bytes32 genes) public pure returns (uint16) {\n\t\treturn uint16(uint256(genes) >> (20 * 8));\n\t}\n\n\tfunction getInitialFortitudeFromBytes(bytes32 genes) public pure returns (uint16) {\n\t\treturn uint16(uint256(genes) >> (18 * 8));\n\t}\n\n\tfunction getMaxFortitudeFromBytes(bytes32 genes) public pure returns (uint16) {\n\t\treturn uint16(uint256(genes) >> (16 * 8));\n\t}\n\n\tfunction getActionCooldownFromBytes(bytes32 genes) public pure returns (uint16) {\n\t\treturn uint16(uint256(genes) >> (14 * 8));\n\t}\n\n\tfunction getHatchTimeFromBytes(bytes32 genes) public pure returns (uint16) {\n\t\treturn uint16(uint256(genes) >> (12 * 8));\n\t}\n\n\t/*********************** Visual Attributes *************************************** */\n\tfunction getHeadAttributeFromBytes(bytes32 genes) public pure returns (uint16) {\n\t\treturn uint16(uint256(genes) >> (10 * 8));\n\t}\n\n\tfunction getBodyAttributeFromBytes(bytes32 genes) public pure returns (uint16) {\n\t\treturn uint16(uint256(genes) >> (8 * 8));\n\t}\n\n\tfunction getWingsAttributeFromBytes(bytes32 genes) public pure returns (uint16) {\n\t\treturn uint16(uint256(genes) >> (6 * 8));\n\t}\n\n\tfunction getGenerationAttributeFromBytes(bytes32 genes) public pure returns (uint16) {\n\t\treturn uint16(uint256(genes));\n\t}\n\n\t/********************* Utils *************************************** */\n\n\t// This is vulnerable, but I don't think it is worth protecting for this use case.\n\t// A safer, more complex and expensive solution is using an oracle like Provable\n\tfunction random(uint256 start, uint256 end) private returns (uint256) {\n\t\tuint256 n = end - start + 1;\n\t\tuint256 randomnumber = uint256(keccak256(abi.encodePacked(block.timestamp, msg.sender, _randomNonce))) % n;\n\t\trandomnumber = randomnumber + start;\n\t\t_randomNonce++;\n\t\treturn randomnumber;\n\t}\n}\n",
  "sourcePath": "/usr/src/app/contractGetter/contracts/genes/GenesLaboratory.sol",
  "compiler": {
    "name": "solc",
    "version": "0.8.4+commit.c7e474f2.Emscripten.clang"
  },
  "schemaVersion": "3.4.1",
  "updatedAt": "2022-01-03T21:24:05.577Z",
  "networkType": "ethereum",
  "devdoc": {
    "kind": "dev",
    "methods": {},
    "version": 1
  },
  "userdoc": {
    "kind": "user",
    "methods": {},
    "version": 1
  }
}