{
  "contractName": "GenesLaboratory",
  "abi": [
    {
      "inputs": [
        {
          "internalType": "address",
          "name": "dragonAddress",
          "type": "address"
        }
      ],
      "stateMutability": "nonpayable",
      "type": "constructor"
    },
    {
      "inputs": [],
      "name": "createNewDragonGenes",
      "outputs": [
        {
          "internalType": "bytes32",
          "name": "genes",
          "type": "bytes32"
        },
        {
          "internalType": "uint16",
          "name": "initialHealth",
          "type": "uint16"
        },
        {
          "internalType": "uint16",
          "name": "initialStrength",
          "type": "uint16"
        },
        {
          "internalType": "uint16",
          "name": "initialAgility",
          "type": "uint16"
        },
        {
          "internalType": "uint16",
          "name": "initialFortitude",
          "type": "uint16"
        },
        {
          "internalType": "uint16",
          "name": "actionCooldown",
          "type": "uint16"
        },
        {
          "internalType": "uint16",
          "name": "hatchTime",
          "type": "uint16"
        }
      ],
      "stateMutability": "nonpayable",
      "type": "function"
    },
    {
      "inputs": [
        {
          "internalType": "bytes32",
          "name": "fatherGenes",
          "type": "bytes32"
        },
        {
          "internalType": "bytes32",
          "name": "motherGenes",
          "type": "bytes32"
        }
      ],
      "name": "createChildGenes",
      "outputs": [
        {
          "internalType": "bytes32",
          "name": "childGenes",
          "type": "bytes32"
        },
        {
          "internalType": "uint16",
          "name": "initialHealth",
          "type": "uint16"
        },
        {
          "internalType": "uint16",
          "name": "initialStrength",
          "type": "uint16"
        },
        {
          "internalType": "uint16",
          "name": "initialAgility",
          "type": "uint16"
        },
        {
          "internalType": "uint16",
          "name": "initialFortitude",
          "type": "uint16"
        },
        {
          "internalType": "uint16",
          "name": "actionCooldown",
          "type": "uint16"
        },
        {
          "internalType": "uint16",
          "name": "hatchTime",
          "type": "uint16"
        }
      ],
      "stateMutability": "nonpayable",
      "type": "function"
    },
    {
      "inputs": [
        {
          "internalType": "bytes32",
          "name": "genes",
          "type": "bytes32"
        }
      ],
      "name": "getInitialHealthFromBytes",
      "outputs": [
        {
          "internalType": "uint16",
          "name": "",
          "type": "uint16"
        }
      ],
      "stateMutability": "pure",
      "type": "function"
    },
    {
      "inputs": [
        {
          "internalType": "bytes32",
          "name": "genes",
          "type": "bytes32"
        }
      ],
      "name": "getMaxHealthFromBytes",
      "outputs": [
        {
          "internalType": "uint16",
          "name": "",
          "type": "uint16"
        }
      ],
      "stateMutability": "pure",
      "type": "function"
    },
    {
      "inputs": [
        {
          "internalType": "bytes32",
          "name": "genes",
          "type": "bytes32"
        }
      ],
      "name": "getInitialStrengthFromBytes",
      "outputs": [
        {
          "internalType": "uint16",
          "name": "",
          "type": "uint16"
        }
      ],
      "stateMutability": "pure",
      "type": "function"
    },
    {
      "inputs": [
        {
          "internalType": "bytes32",
          "name": "genes",
          "type": "bytes32"
        }
      ],
      "name": "getMaxStrengthFromBytes",
      "outputs": [
        {
          "internalType": "uint16",
          "name": "",
          "type": "uint16"
        }
      ],
      "stateMutability": "pure",
      "type": "function"
    },
    {
      "inputs": [
        {
          "internalType": "bytes32",
          "name": "genes",
          "type": "bytes32"
        }
      ],
      "name": "getInitialAgilityFromBytes",
      "outputs": [
        {
          "internalType": "uint16",
          "name": "",
          "type": "uint16"
        }
      ],
      "stateMutability": "pure",
      "type": "function"
    },
    {
      "inputs": [
        {
          "internalType": "bytes32",
          "name": "genes",
          "type": "bytes32"
        }
      ],
      "name": "getMaxAgilityFromBytes",
      "outputs": [
        {
          "internalType": "uint16",
          "name": "",
          "type": "uint16"
        }
      ],
      "stateMutability": "pure",
      "type": "function"
    },
    {
      "inputs": [
        {
          "internalType": "bytes32",
          "name": "genes",
          "type": "bytes32"
        }
      ],
      "name": "getInitialFortitudeFromBytes",
      "outputs": [
        {
          "internalType": "uint16",
          "name": "",
          "type": "uint16"
        }
      ],
      "stateMutability": "pure",
      "type": "function"
    },
    {
      "inputs": [
        {
          "internalType": "bytes32",
          "name": "genes",
          "type": "bytes32"
        }
      ],
      "name": "getMaxFortitudeFromBytes",
      "outputs": [
        {
          "internalType": "uint16",
          "name": "",
          "type": "uint16"
        }
      ],
      "stateMutability": "pure",
      "type": "function"
    },
    {
      "inputs": [
        {
          "internalType": "bytes32",
          "name": "genes",
          "type": "bytes32"
        }
      ],
      "name": "getActionCooldownFromBytes",
      "outputs": [
        {
          "internalType": "uint16",
          "name": "",
          "type": "uint16"
        }
      ],
      "stateMutability": "pure",
      "type": "function"
    },
    {
      "inputs": [
        {
          "internalType": "bytes32",
          "name": "genes",
          "type": "bytes32"
        }
      ],
      "name": "getHatchTimeFromBytes",
      "outputs": [
        {
          "internalType": "uint16",
          "name": "",
          "type": "uint16"
        }
      ],
      "stateMutability": "pure",
      "type": "function"
    },
    {
      "inputs": [
        {
          "internalType": "bytes32",
          "name": "genes",
          "type": "bytes32"
        }
      ],
      "name": "getHeadAttributeFromBytes",
      "outputs": [
        {
          "internalType": "uint16",
          "name": "",
          "type": "uint16"
        }
      ],
      "stateMutability": "pure",
      "type": "function"
    },
    {
      "inputs": [
        {
          "internalType": "bytes32",
          "name": "genes",
          "type": "bytes32"
        }
      ],
      "name": "getBodyAttributeFromBytes",
      "outputs": [
        {
          "internalType": "uint16",
          "name": "",
          "type": "uint16"
        }
      ],
      "stateMutability": "pure",
      "type": "function"
    },
    {
      "inputs": [
        {
          "internalType": "bytes32",
          "name": "genes",
          "type": "bytes32"
        }
      ],
      "name": "getWingsAttributeFromBytes",
      "outputs": [
        {
          "internalType": "uint16",
          "name": "",
          "type": "uint16"
        }
      ],
      "stateMutability": "pure",
      "type": "function"
    },
    {
      "inputs": [
        {
          "internalType": "bytes32",
          "name": "genes",
          "type": "bytes32"
        }
      ],
      "name": "getGenerationAttributeFromBytes",
      "outputs": [
        {
          "internalType": "uint16",
          "name": "",
          "type": "uint16"
        }
      ],
      "stateMutability": "pure",
      "type": "function"
    }
  ],
  "bytecode": "0x60806040523480156200001157600080fd5b506040516200196838038062001968833981810160405281019062000037919062000108565b600073ffffffffffffffffffffffffffffffffffffffff168173ffffffffffffffffffffffffffffffffffffffff161415620000aa576040517f08c379a0000000000000000000000000000000000000000000000000000000008152600401620000a1906200015b565b60405180910390fd5b806000806101000a81548173ffffffffffffffffffffffffffffffffffffffff021916908373ffffffffffffffffffffffffffffffffffffffff1602179055505062000205565b6000815190506200010281620001eb565b92915050565b6000602082840312156200011b57600080fd5b60006200012b84828501620000f1565b91505092915050565b600062000143601e836200017d565b91506200015082620001c2565b602082019050919050565b60006020820190508181036000830152620001768162000134565b9050919050565b600082825260208201905092915050565b60006200019b82620001a2565b9050919050565b600073ffffffffffffffffffffffffffffffffffffffff82169050919050565b7f496e76616c696420647261676f6e206164647265737320616464726573730000600082015250565b620001f6816200018e565b81146200020257600080fd5b50565b61175380620002156000396000f3fe608060405234801561001057600080fd5b50600436106101005760003560e01c8063cf4cd1de11610097578063ea4f89f311610066578063ea4f89f31461033f578063ecb047481461036f578063f5373ed71461039f578063ff1816ee146103cf57610100565b8063cf4cd1de1461027f578063d77936ec146102af578063d9b8a618146102df578063e71bb1a01461030f57610100565b806353df58d7116100d357806353df58d7146101b95780636204f857146101ef57806370f17ac81461021f578063c32369a31461024f57610100565b80630ce68f8a14610105578063238e672a14610135578063355916a41461016557806352bc13fe14610189575b600080fd5b61011f600480360381019061011a919061126f565b6103ff565b60405161012c919061140f565b60405180910390f35b61014f600480360381019061014a919061126f565b610410565b60405161015c919061140f565b60405180910390f35b61016d610421565b6040516101809796959493929190611380565b60405180910390f35b6101a3600480360381019061019e919061126f565b610582565b6040516101b0919061140f565b60405180910390f35b6101d360048036038101906101ce9190611298565b610593565b6040516101e69796959493929190611380565b60405180910390f35b6102096004803603810190610204919061126f565b610713565b604051610216919061140f565b60405180910390f35b6102396004803603810190610234919061126f565b610724565b604051610246919061140f565b60405180910390f35b6102696004803603810190610264919061126f565b610735565b604051610276919061140f565b60405180910390f35b6102996004803603810190610294919061126f565b610746565b6040516102a6919061140f565b60405180910390f35b6102c960048036038101906102c4919061126f565b610757565b6040516102d6919061140f565b60405180910390f35b6102f960048036038101906102f4919061126f565b610768565b604051610306919061140f565b60405180910390f35b6103296004803603810190610324919061126f565b610779565b604051610336919061140f565b60405180910390f35b6103596004803603810190610354919061126f565b61078a565b604051610366919061140f565b60405180910390f35b6103896004803603810190610384919061126f565b61079b565b604051610396919061140f565b60405180910390f35b6103b960048036038101906103b4919061126f565b6107ac565b6040516103c6919061140f565b60405180910390f35b6103e960048036038101906103e4919061126f565b6107bd565b6040516103f6919061140f565b60405180910390f35b600060908260001c901c9050919050565b600060d08260001c901c9050919050565b60008060008060008060008060009054906101000a900473ffffffffffffffffffffffffffffffffffffffff1673ffffffffffffffffffffffffffffffffffffffff163373ffffffffffffffffffffffffffffffffffffffff16146104bb576040517f08c379a00000000000000000000000000000000000000000000000000000000081526004016104b2906113ef565b60405180910390fd5b6104c4876107ca565b80975081985050506104d587610801565b96506104e087610833565b80965081985050506104f18761086a565b96506104fc8761089c565b809550819850505061050d876108d3565b965061051887610905565b80945081985050506105298761093c565b96506105348761096e565b80935081985050506105458761099b565b8092508198505050610556876109c9565b965061056187610a01565b965061056c87610a39565b965061057787610a71565b965090919293949596565b600060608260001c901c9050919050565b60008060008060008060008060009054906101000a900473ffffffffffffffffffffffffffffffffffffffff1673ffffffffffffffffffffffffffffffffffffffff163373ffffffffffffffffffffffffffffffffffffffff161461062d576040517f08c379a0000000000000000000000000000000000000000000000000000000008152600401610624906113ef565b60405180910390fd5b610638878a8a610a8f565b809750819850505061064b878a8a610ae7565b9650610658878a8a610b39565b809650819850505061066b878a8a610b91565b9650610678878a8a610be3565b809550819850505061068b878a8a610c3b565b9650610698878a8a610c8d565b80945081985050506106ab878a8a610ce5565b96506106b8878a8a610d37565b80935081985050506106cb878a8a610dd3565b80925081985050506106de878a8a610e6f565b96506106eb878a8a610ec1565b96506106f8878a8a610f13565b9650610705878a8a610f65565b965092959891949750929550565b600060a08260001c901c9050919050565b600060308260001c901c9050919050565b600060b08260001c901c9050919050565b600060e08260001c901c9050919050565b600060708260001c901c9050919050565b600060c08260001c901c9050919050565b600060408260001c901c9050919050565b600060508260001c901c9050919050565b600060f08260001c901c9050919050565b600060808260001c901c9050919050565b60008160001c9050919050565b60008060006107db60106016610fad565b9050600060f082901b905060008560001c821790508060001b8394509450505050915091565b60008061081060af60e1610fad565b9050600060e082901b905060008460001c821790508060001b9350505050919050565b600080600061084460046006610fad565b9050600060d082901b905060008560001c821790508060001b8394509450505050915091565b6000806108796032604b610fad565b9050600060c082901b905060008460001c821790508060001b9350505050919050565b60008060006108ad60046006610fad565b9050600060b082901b905060008560001c821790508060001b8394509450505050915091565b6000806108e26032604b610fad565b9050600060a082901b905060008460001c821790508060001b9350505050919050565b600080600061091660046006610fad565b90506000609082901b905060008560001c821790508060001b8394509450505050915091565b60008061094b6032604b610fad565b90506000608082901b905060008460001c821790508060001b9350505050919050565b600080600060b490506000607082901b905060008560001c821790508060001b8394509450505050915091565b600080600061016890506000606082901b905060008560001c821790508060001b8394509450505050915091565b6000806005905060006109dd600083610fad565b90506000605082901b905060008560001c821790508060001b945050505050919050565b600080600590506000610a15600083610fad565b90506000604082901b905060008560001c821790508060001b945050505050919050565b600080600590506000610a4d600083610fad565b90506000603082901b905060008560001c821790508060001b945050505050919050565b6000806001905060008360001c821790508060001b92505050919050565b6000806000610a9d8561079b565b90506000610aaa8561079b565b90506000610ab8838361103a565b61ffff169050600060f082901b905060008960001c821790508060001b83965096505050505050935093915050565b600080610af384610746565b90506000610b0084610746565b90506000610b0e838361103a565b61ffff169050600060e082901b905060008860001c821790508060001b955050505050509392505050565b6000806000610b4785610410565b90506000610b5485610410565b90506000610b62838361103a565b61ffff169050600060d082901b905060008960001c821790508060001b83965096505050505050935093915050565b600080610b9d84610768565b90506000610baa84610768565b90506000610bb8838361103a565b61ffff169050600060c082901b905060008860001c821790508060001b955050505050509392505050565b6000806000610bf185610735565b90506000610bfe85610735565b90506000610c0c838361103a565b61ffff169050600060b082901b905060008960001c821790508060001b83965096505050505050935093915050565b600080610c4784610713565b90506000610c5484610713565b90506000610c62838361103a565b61ffff169050600060a082901b905060008860001c821790508060001b955050505050509392505050565b6000806000610c9b856103ff565b90506000610ca8856103ff565b90506000610cb6838361103a565b61ffff1690506000609082901b905060008960001c821790508060001b83965096505050505050935093915050565b600080610cf184610768565b90506000610cfe84610768565b90506000610d0c838361103a565b61ffff1690506000608082901b905060008860001c821790508060001b955050505050509392505050565b6000806000610d4585610582565b90506000610d5285610582565b905060008161ffff168361ffff161115610d72578261ffff169050610d7a565b8161ffff1690505b60006103e861044c83610d8d91906114c2565b610d979190611491565b905061ffff811115610da95761ffff90505b6000607082901b905060008a60001c821790508060001b8397509750505050505050935093915050565b6000806000610de185610582565b90506000610dee85610582565b905060008161ffff168361ffff161115610e0e578261ffff169050610e16565b8161ffff1690505b60006103e861044c83610e2991906114c2565b610e339190611491565b905061ffff811115610e455761ffff90505b6000606082901b905060008a60001c821790508060001b8397509750505050505050935093915050565b600080610e7b8461078a565b90506000610e888461078a565b90506000610e96838361112a565b61ffff1690506000605082901b905060008860001c821790508060001b955050505050509392505050565b600080610ecd84610779565b90506000610eda84610779565b90506000610ee88383611177565b61ffff1690506000603c82901b905060008860001c821790508060001b955050505050509392505050565b600080610f1f84610779565b90506000610f2c84610779565b90506000610f3a83836111c4565b61ffff1690506000602882901b905060008860001c821790508060001b955050505050509392505050565b600080610f71846107bd565b90506000610f7e846107bd565b90506000610f8c8383611211565b61ffff16905060008760001c821790508060001b9450505050509392505050565b60008060018484610fbe919061151c565b610fc8919061143b565b90506000814233600154604051602001610fe493929190611343565b6040516020818303038152906040528051906020012060001c611007919061161b565b90508481611015919061143b565b90506001600081548092919061102a906115a4565b9190505550809250505092915050565b6000806127108461ffff1661104f91906114c2565b905060006127108461ffff1661106591906114c2565b90506000808284101561107d57839150829050611084565b8291508390505b611d4c6064605f8461109691906114c2565b6110a09190611491565b6110aa919061151c565b91506127108210156110bc5761271091505b611d4c60646069836110ce91906114c2565b6110d89190611491565b6110e2919061143b565b905060006127106113886110f68585610fad565b611100919061143b565b61110a9190611491565b905061ffff81111561111c5761ffff90505b809550505050505092915050565b60008061113a6000612710610fad565b9050610fa081101561114e57839150611170565b611d4c8110156111605782915061116f565b61116c60016004610fad565b91505b5b5092915050565b6000806111876000612710610fad565b9050610ea681101561119b578391506111bd565b611d4c8110156111ad578291506111bc565b6111b960016004610fad565b91505b5b5092915050565b6000806111d46000612710610fad565b9050610dac8110156111e85783915061120a565b611d4c8110156111fa57829150611209565b61120660016004610fad565b91505b5b5092915050565b6000808261ffff168461ffff1611611229578261122b565b835b61ffff16905060018161123e919061143b565b905061ffff8111156112505761ffff90505b8091505092915050565b60008135905061126981611706565b92915050565b60006020828403121561128157600080fd5b600061128f8482850161125a565b91505092915050565b600080604083850312156112ab57600080fd5b60006112b98582860161125a565b92505060206112ca8582860161125a565b9150509250929050565b6112e56112e082611550565b6115ed565b82525050565b6112f481611562565b82525050565b600061130760228361142a565b9150611312826116b7565b604082019050919050565b6113268161156c565b82525050565b61133d6113388261159a565b611611565b82525050565b600061134f828661132c565b60208201915061135f82856112d4565b60148201915061136f828461132c565b602082019150819050949350505050565b600060e082019050611395600083018a6112eb565b6113a2602083018961131d565b6113af604083018861131d565b6113bc606083018761131d565b6113c9608083018661131d565b6113d660a083018561131d565b6113e360c083018461131d565b98975050505050505050565b60006020820190508181036000830152611408816112fa565b9050919050565b6000602082019050611424600083018461131d565b92915050565b600082825260208201905092915050565b60006114468261159a565b91506114518361159a565b9250827fffffffffffffffffffffffffffffffffffffffffffffffffffffffffffffffff038211156114865761148561164c565b5b828201905092915050565b600061149c8261159a565b91506114a78361159a565b9250826114b7576114b661167b565b5b828204905092915050565b60006114cd8261159a565b91506114d88361159a565b9250817fffffffffffffffffffffffffffffffffffffffffffffffffffffffffffffffff04831182151516156115115761151061164c565b5b828202905092915050565b60006115278261159a565b91506115328361159a565b9250828210156115455761154461164c565b5b828203905092915050565b600061155b8261157a565b9050919050565b6000819050919050565b600061ffff82169050919050565b600073ffffffffffffffffffffffffffffffffffffffff82169050919050565b6000819050919050565b60006115af8261159a565b91507fffffffffffffffffffffffffffffffffffffffffffffffffffffffffffffffff8214156115e2576115e161164c565b5b600182019050919050565b60006115f8826115ff565b9050919050565b600061160a826116aa565b9050919050565b6000819050919050565b60006116268261159a565b91506116318361159a565b9250826116415761164061167b565b5b828206905092915050565b7f4e487b7100000000000000000000000000000000000000000000000000000000600052601160045260246000fd5b7f4e487b7100000000000000000000000000000000000000000000000000000000600052601260045260246000fd5b60008160601b9050919050565b7f4f6e6c7920647261676f6e20636f6e74726163742063616e2063616c6c20746860008201527f6973000000000000000000000000000000000000000000000000000000000000602082015250565b61170f81611562565b811461171a57600080fd5b5056fea2646970667358221220d501121c3e60f5fb37ddaf56a9370750fa5cce38383831fb6361a69f85cb381164736f6c63430008040033",
  "immutableReferences": {},
  "source": "// SPDX-License-Identifier: GPL-3.0 License\n\npragma solidity ^0.8.0;\n\ncontract GenesLaboratory {\n\taddress private _dragonContractAddress;\n\tuint256 private _randomNonce;\n\n\tconstructor(address dragonAddress) {\n\t\trequire(dragonAddress != address(0), 'Invalid dragon address address');\n\t\t_dragonContractAddress = dragonAddress;\n\t}\n\n\tmodifier onlyFromDragonContract() {\n\t\trequire(msg.sender == _dragonContractAddress, 'Only dragon contract can call this');\n\t\t_;\n\t}\n\n\tfunction createNewDragonGenes()\n\t\tpublic\n\t\tonlyFromDragonContract\n\t\treturns (\n\t\t\tbytes32 genes,\n\t\t\tuint16 initialHealth,\n\t\t\tuint16 initialStrength,\n\t\t\tuint16 initialAgility,\n\t\t\tuint16 initialFortitude,\n\t\t\tuint16 actionCooldown,\n\t\t\tuint16 hatchTime\n\t\t)\n\t{\n\t\t(genes, initialHealth) = createInitialHealthValue(genes);\n\t\tgenes = createMaxHealthValue(genes);\n\t\t(genes, initialStrength) = createInitialStrengthValue(genes);\n\t\tgenes = createMaxStrengthValue(genes);\n\t\t(genes, initialAgility) = createInitialAgilityValue(genes);\n\t\tgenes = createMaxAgilityValue(genes);\n\t\t(genes, initialFortitude) = createInitialFortitudeValue(genes);\n\t\tgenes = createMaxFortitudeValue(genes);\n\t\t(genes, actionCooldown) = createActionCooldown(genes);\n\t\t(genes, hatchTime) = createHatchTime(genes);\n\t\tgenes = createHead(genes);\n\t\tgenes = createBody(genes);\n\t\tgenes = createWings(genes);\n\t\tgenes = createGeneration(genes);\n\t}\n\n\tfunction createChildGenes(bytes32 fatherGenes, bytes32 motherGenes)\n\t\tpublic\n\t\tonlyFromDragonContract\n\t\treturns (\n\t\t\tbytes32 childGenes,\n\t\t\tuint16 initialHealth,\n\t\t\tuint16 initialStrength,\n\t\t\tuint16 initialAgility,\n\t\t\tuint16 initialFortitude,\n\t\t\tuint16 actionCooldown,\n\t\t\tuint16 hatchTime\n\t\t)\n\t{\n\t\t(childGenes, initialHealth) = getChildInitialHealth(childGenes, fatherGenes, motherGenes);\n\t\tchildGenes = getChildMaxHealth(childGenes, fatherGenes, motherGenes);\n\t\t(childGenes, initialStrength) = getChildInitialStrength(childGenes, fatherGenes, motherGenes);\n\t\tchildGenes = getChildMaxStrength(childGenes, fatherGenes, motherGenes);\n\t\t(childGenes, initialAgility) = getChildInitialAgility(childGenes, fatherGenes, motherGenes);\n\t\tchildGenes = getChildMaxAgility(childGenes, fatherGenes, motherGenes);\n\t\t(childGenes, initialFortitude) = getChildInitialFortitude(childGenes, fatherGenes, motherGenes);\n\t\tchildGenes = getChildMaxFortitude(childGenes, fatherGenes, motherGenes);\n\t\t(childGenes, actionCooldown) = getChildActionCooldown(childGenes, fatherGenes, motherGenes);\n\t\t(childGenes, hatchTime) = getChildHatchTime(childGenes, fatherGenes, motherGenes);\n\t\tchildGenes = getChildHead(childGenes, fatherGenes, motherGenes);\n\t\tchildGenes = getChildBody(childGenes, fatherGenes, motherGenes);\n\t\tchildGenes = getChildWings(childGenes, fatherGenes, motherGenes);\n\t\tchildGenes = getChildGeneration(childGenes, fatherGenes, motherGenes);\n\t}\n\n\t/************************** Genes creation ***************************************** */\n\n\tfunction createInitialHealthValue(bytes32 genes) private returns (bytes32, uint16) {\n\t\tuint256 value = random(16, 22);\n\t\tuint256 shiftedValue = value << (30 * 8);\n\t\tuint256 result = shiftedValue | uint256(genes);\n\t\treturn (bytes32(result), uint16(value));\n\t}\n\n\tfunction createMaxHealthValue(bytes32 genes) private returns (bytes32) {\n\t\tuint256 value = random(175, 225);\n\t\tuint256 shiftedValue = value << (28 * 8);\n\t\tuint256 result = shiftedValue | uint256(genes);\n\t\treturn bytes32(result);\n\t}\n\n\tfunction createInitialStrengthValue(bytes32 genes) private returns (bytes32, uint16) {\n\t\tuint256 value = random(4, 6);\n\t\tuint256 shiftedValue = value << (26 * 8);\n\t\tuint256 result = shiftedValue | uint256(genes);\n\t\treturn (bytes32(result), uint16(value));\n\t}\n\n\tfunction createMaxStrengthValue(bytes32 genes) private returns (bytes32) {\n\t\tuint256 value = random(50, 75);\n\t\tuint256 shiftedValue = value << (24 * 8);\n\t\tuint256 result = shiftedValue | uint256(genes);\n\t\treturn bytes32(result);\n\t}\n\n\tfunction createInitialAgilityValue(bytes32 genes) private returns (bytes32, uint16) {\n\t\tuint256 value = random(4, 6);\n\t\tuint256 shiftedValue = value << (22 * 8);\n\t\tuint256 result = shiftedValue | uint256(genes);\n\t\treturn (bytes32(result), uint16(value));\n\t}\n\n\tfunction createMaxAgilityValue(bytes32 genes) private returns (bytes32) {\n\t\tuint256 value = random(50, 75);\n\t\tuint256 shiftedValue = value << (20 * 8);\n\t\tuint256 result = shiftedValue | uint256(genes);\n\t\treturn bytes32(result);\n\t}\n\n\tfunction createInitialFortitudeValue(bytes32 genes) private returns (bytes32, uint16) {\n\t\tuint256 value = random(4, 6);\n\t\tuint256 shiftedValue = value << (18 * 8);\n\t\tuint256 result = shiftedValue | uint256(genes);\n\t\treturn (bytes32(result), uint16(value));\n\t}\n\n\tfunction createMaxFortitudeValue(bytes32 genes) private returns (bytes32) {\n\t\tuint256 value = random(50, 75);\n\t\tuint256 shiftedValue = value << (16 * 8);\n\t\tuint256 result = shiftedValue | uint256(genes);\n\t\treturn bytes32(result);\n\t}\n\n\tfunction createActionCooldown(bytes32 genes) private pure returns (bytes32, uint16) {\n\t\tuint256 value = 180;\n\t\tuint256 shiftedValue = value << (14 * 8);\n\t\tuint256 result = shiftedValue | uint256(genes);\n\t\treturn (bytes32(result), uint16(value));\n\t}\n\n\tfunction createHatchTime(bytes32 genes) private pure returns (bytes32, uint16) {\n\t\tuint256 value = 360;\n\t\tuint256 shiftedValue = value << (12 * 8);\n\t\tuint256 result = shiftedValue | uint256(genes);\n\t\treturn (bytes32(result), uint16(value));\n\t}\n\n\tfunction createHead(bytes32 genes) private returns (bytes32) {\n\t\tuint256 headsAmount = 5;\n\t\tuint256 value = random(0, headsAmount);\n\n\t\tuint256 shiftedValue = value << (10 * 8);\n\t\tuint256 result = shiftedValue | uint256(genes);\n\t\treturn bytes32(result);\n\t}\n\n\tfunction createBody(bytes32 genes) private returns (bytes32) {\n\t\tuint256 bodyAmount = 5;\n\t\tuint256 value = random(0, bodyAmount);\n\n\t\tuint256 shiftedValue = value << (8 * 8);\n\t\tuint256 result = shiftedValue | uint256(genes);\n\t\treturn bytes32(result);\n\t}\n\n\tfunction createWings(bytes32 genes) private returns (bytes32) {\n\t\tuint256 wingsAmount = 5;\n\t\tuint256 value = random(0, wingsAmount);\n\n\t\tuint256 shiftedValue = value << (6 * 8);\n\t\tuint256 result = shiftedValue | uint256(genes);\n\t\treturn bytes32(result);\n\t}\n\n\tfunction createGeneration(bytes32 genes) private pure returns (bytes32) {\n\t\tuint256 generation = 1;\n\t\tuint256 result = generation | uint256(genes);\n\t\treturn bytes32(result);\n\t}\n\n\t/******************************* Genes propagation ****************************************************/\n\n\tfunction getChildInitialHealth(\n\t\tbytes32 childGenes,\n\t\tbytes32 fatherGenes,\n\t\tbytes32 motherGenes\n\t) private returns (bytes32, uint16) {\n\t\tuint16 fatherInitialHealth = getInitialHealthFromBytes(fatherGenes);\n\t\tuint16 motherInitialHealth = getInitialHealthFromBytes(motherGenes);\n\n\t\tuint256 childInitialHealth = generateChildValue(fatherInitialHealth, motherInitialHealth);\n\n\t\tuint256 shiftedValue = childInitialHealth << (30 * 8);\n\t\tuint256 result = shiftedValue | uint256(childGenes);\n\t\treturn (bytes32(result), uint16(childInitialHealth));\n\t}\n\n\tfunction getChildMaxHealth(\n\t\tbytes32 childGenes,\n\t\tbytes32 fatherGenes,\n\t\tbytes32 motherGenes\n\t) private returns (bytes32) {\n\t\tuint16 fatherMaxHealth = getMaxHealthFromBytes(fatherGenes);\n\t\tuint16 motherMaxHealth = getMaxHealthFromBytes(motherGenes);\n\n\t\tuint256 childMaxHealth = generateChildValue(fatherMaxHealth, motherMaxHealth);\n\n\t\tuint256 shiftedValue = childMaxHealth << (28 * 8);\n\t\tuint256 result = shiftedValue | uint256(childGenes);\n\t\treturn bytes32(result);\n\t}\n\n\tfunction getChildInitialStrength(\n\t\tbytes32 childGenes,\n\t\tbytes32 fatherGenes,\n\t\tbytes32 motherGenes\n\t) private returns (bytes32, uint16) {\n\t\tuint16 fatherInitialStrength = getInitialStrengthFromBytes(fatherGenes);\n\t\tuint16 motherInitialStrength = getInitialStrengthFromBytes(motherGenes);\n\n\t\tuint256 childInitialStrength = generateChildValue(fatherInitialStrength, motherInitialStrength);\n\n\t\tuint256 shiftedValue = childInitialStrength << (26 * 8);\n\t\tuint256 result = shiftedValue | uint256(childGenes);\n\t\treturn (bytes32(result), uint16(childInitialStrength));\n\t}\n\n\tfunction getChildMaxStrength(\n\t\tbytes32 childGenes,\n\t\tbytes32 fatherGenes,\n\t\tbytes32 motherGenes\n\t) private returns (bytes32) {\n\t\tuint16 fatherMaxStrength = getMaxStrengthFromBytes(fatherGenes);\n\t\tuint16 motherMaxStrength = getMaxStrengthFromBytes(motherGenes);\n\n\t\tuint256 childMaxStrength = generateChildValue(fatherMaxStrength, motherMaxStrength);\n\n\t\tuint256 shiftedValue = childMaxStrength << (24 * 8);\n\t\tuint256 result = shiftedValue | uint256(childGenes);\n\t\treturn bytes32(result);\n\t}\n\n\tfunction getChildInitialAgility(\n\t\tbytes32 childGenes,\n\t\tbytes32 fatherGenes,\n\t\tbytes32 motherGenes\n\t) private returns (bytes32, uint16) {\n\t\tuint16 fatherInitialAgility = getInitialAgilityFromBytes(fatherGenes);\n\t\tuint16 motherInitialAgility = getInitialAgilityFromBytes(motherGenes);\n\n\t\tuint256 childInitialAgility = generateChildValue(fatherInitialAgility, motherInitialAgility);\n\n\t\tuint256 shiftedValue = childInitialAgility << (22 * 8);\n\t\tuint256 result = shiftedValue | uint256(childGenes);\n\t\treturn (bytes32(result), uint16(childInitialAgility));\n\t}\n\n\tfunction getChildMaxAgility(\n\t\tbytes32 childGenes,\n\t\tbytes32 fatherGenes,\n\t\tbytes32 motherGenes\n\t) private returns (bytes32) {\n\t\tuint16 fatherMaxAgility = getMaxAgilityFromBytes(fatherGenes);\n\t\tuint16 motherMaxAgility = getMaxAgilityFromBytes(motherGenes);\n\n\t\tuint256 childMaxAgility = generateChildValue(fatherMaxAgility, motherMaxAgility);\n\n\t\tuint256 shiftedValue = childMaxAgility << (20 * 8);\n\t\tuint256 result = shiftedValue | uint256(childGenes);\n\t\treturn bytes32(result);\n\t}\n\n\tfunction getChildInitialFortitude(\n\t\tbytes32 childGenes,\n\t\tbytes32 fatherGenes,\n\t\tbytes32 motherGenes\n\t) private returns (bytes32, uint16) {\n\t\tuint16 fatherInitialFortitude = getInitialFortitudeFromBytes(fatherGenes);\n\t\tuint16 motherInitialFortitude = getInitialFortitudeFromBytes(motherGenes);\n\n\t\tuint256 childInitialFortitude = generateChildValue(fatherInitialFortitude, motherInitialFortitude);\n\n\t\tuint256 shiftedValue = childInitialFortitude << (18 * 8);\n\t\tuint256 result = shiftedValue | uint256(childGenes);\n\t\treturn (bytes32(result), uint16(childInitialFortitude));\n\t}\n\n\tfunction getChildMaxFortitude(\n\t\tbytes32 childGenes,\n\t\tbytes32 fatherGenes,\n\t\tbytes32 motherGenes\n\t) private returns (bytes32) {\n\t\tuint16 fatherMaxFortitude = getMaxStrengthFromBytes(fatherGenes);\n\t\tuint16 motherMaxFortitude = getMaxStrengthFromBytes(motherGenes);\n\n\t\tuint256 childMaxFortitude = generateChildValue(fatherMaxFortitude, motherMaxFortitude);\n\n\t\tuint256 shiftedValue = childMaxFortitude << (16 * 8);\n\t\tuint256 result = shiftedValue | uint256(childGenes);\n\t\treturn bytes32(result);\n\t}\n\n\tfunction getChildActionCooldown(\n\t\tbytes32 childGenes,\n\t\tbytes32 fatherGenes,\n\t\tbytes32 motherGenes\n\t) private pure returns (bytes32, uint16) {\n\t\tuint16 fatherHatchTime = getHatchTimeFromBytes(fatherGenes);\n\t\tuint16 motherHatchTime = getHatchTimeFromBytes(motherGenes);\n\n\t\tuint256 maxValue;\n\t\tif (fatherHatchTime > motherHatchTime) {\n\t\t\tmaxValue = fatherHatchTime;\n\t\t} else {\n\t\t\tmaxValue = motherHatchTime;\n\t\t}\n\n\t\tuint256 value = (uint256(maxValue) * 1100) / 1000;\n\t\tif (value > 65535) {\n\t\t\tvalue = 65535;\n\t\t}\n\t\tuint256 shiftedValue = value << (14 * 8);\n\t\tuint256 result = shiftedValue | uint256(childGenes);\n\t\treturn (bytes32(result), uint16(value));\n\t}\n\n\tfunction getChildHatchTime(\n\t\tbytes32 childGenes,\n\t\tbytes32 fatherGenes,\n\t\tbytes32 motherGenes\n\t) private pure returns (bytes32, uint16) {\n\t\tuint16 fatherHatchTime = getHatchTimeFromBytes(fatherGenes);\n\t\tuint16 motherHatchTime = getHatchTimeFromBytes(motherGenes);\n\n\t\tuint256 maxValue;\n\t\tif (fatherHatchTime > motherHatchTime) {\n\t\t\tmaxValue = fatherHatchTime;\n\t\t} else {\n\t\t\tmaxValue = motherHatchTime;\n\t\t}\n\n\t\tuint256 value = (uint256(maxValue) * 1100) / 1000;\n\t\tif (value > 65535) {\n\t\t\tvalue = 65535;\n\t\t}\n\t\tuint256 shiftedValue = value << (12 * 8);\n\t\tuint256 result = shiftedValue | uint256(childGenes);\n\t\treturn (bytes32(result), uint16(value));\n\t}\n\n\tfunction getChildHead(\n\t\tbytes32 childGenes,\n\t\tbytes32 fatherGenes,\n\t\tbytes32 motherGenes\n\t) private returns (bytes32) {\n\t\tuint16 fatherHead = getHeadAttributeFromBytes(fatherGenes);\n\t\tuint16 motherHead = getHeadAttributeFromBytes(motherGenes);\n\n\t\tuint256 childHead = generateChildHeadValue(fatherHead, motherHead);\n\n\t\tuint256 shiftedValue = childHead << (10 * 8);\n\t\tuint256 result = shiftedValue | uint256(childGenes);\n\t\treturn bytes32(result);\n\t}\n\n\tfunction getChildBody(\n\t\tbytes32 childGenes,\n\t\tbytes32 fatherGenes,\n\t\tbytes32 motherGenes\n\t) private returns (bytes32) {\n\t\tuint16 fatherBody = getBodyAttributeFromBytes(fatherGenes);\n\t\tuint16 motherBody = getBodyAttributeFromBytes(motherGenes);\n\n\t\tuint256 childBody = generateChildBodyValue(fatherBody, motherBody);\n\n\t\tuint256 shiftedValue = childBody << (10 * 6);\n\t\tuint256 result = shiftedValue | uint256(childGenes);\n\t\treturn bytes32(result);\n\t}\n\n\tfunction getChildWings(\n\t\tbytes32 childGenes,\n\t\tbytes32 fatherGenes,\n\t\tbytes32 motherGenes\n\t) private returns (bytes32) {\n\t\tuint16 fatherWings = getBodyAttributeFromBytes(fatherGenes);\n\t\tuint16 motherWings = getBodyAttributeFromBytes(motherGenes);\n\n\t\tuint256 childWings = generateChildWingsValue(fatherWings, motherWings);\n\n\t\tuint256 shiftedValue = childWings << (10 * 4);\n\t\tuint256 result = shiftedValue | uint256(childGenes);\n\t\treturn bytes32(result);\n\t}\n\n\tfunction getChildGeneration(\n\t\tbytes32 childGenes,\n\t\tbytes32 fatherGenes,\n\t\tbytes32 motherGenes\n\t) private pure returns (bytes32) {\n\t\tuint16 fatherGeneration = getGenerationAttributeFromBytes(fatherGenes);\n\t\tuint16 motherGeneration = getGenerationAttributeFromBytes(motherGenes);\n\n\t\tuint256 childGeneration = generateChildGeneration(fatherGeneration, motherGeneration);\n\n\t\tuint256 result = childGeneration | uint256(childGenes);\n\t\treturn bytes32(result);\n\t}\n\n\tfunction generateChildValue(uint16 fatherValue, uint16 motherValue) private returns (uint16 value) {\n\t\tuint256 fatherFixedValue = uint256(fatherValue) * 10000;\n\t\tuint256 motherFixedValue = uint256(motherValue) * 10000;\n\n\t\tuint256 minimumValue;\n\t\tuint256 maximumValue;\n\t\tif (fatherFixedValue < motherFixedValue) {\n\t\t\tminimumValue = fatherFixedValue;\n\t\t\tmaximumValue = motherFixedValue;\n\t\t} else {\n\t\t\tminimumValue = motherFixedValue;\n\t\t\tmaximumValue = fatherFixedValue;\n\t\t}\n\n\t\t// Increase variance by 7500 to allow stats jump on lower values\n\t\tminimumValue = ((minimumValue * 95) / 100) - 7500;\n\t\tif (minimumValue < 10000) {\n\t\t\tminimumValue = 10000;\n\t\t}\n\t\tmaximumValue = ((maximumValue * 105) / 100) + 7500;\n\n\t\t// adds 5000 to round positive integer value and clamp value to prevent int overflow\n\t\tuint256 randomValue = (random(minimumValue, maximumValue) + 5000) / 10000;\n\t\tif (randomValue > 65535) {\n\t\t\trandomValue = 65535;\n\t\t}\n\t\treturn uint16(randomValue);\n\t}\n\n\tfunction generateChildHeadValue(uint16 fatherValue, uint16 motherValue) private returns (uint16 value) {\n\t\tuint256 roll = random(0, 10000);\n\t\tif (roll < 4000) {\n\t\t\tvalue = fatherValue;\n\t\t} else if (roll < 7500) {\n\t\t\tvalue = motherValue;\n\t\t} else {\n\t\t\tvalue = uint16(random(1, 4));\n\t\t}\n\t}\n\n\tfunction generateChildBodyValue(uint16 fatherValue, uint16 motherValue) private returns (uint16 value) {\n\t\tuint256 roll = random(0, 10000);\n\t\tif (roll < 3750) {\n\t\t\tvalue = fatherValue;\n\t\t} else if (roll < 7500) {\n\t\t\tvalue = motherValue;\n\t\t} else {\n\t\t\tvalue = uint16(random(1, 4));\n\t\t}\n\t}\n\n\tfunction generateChildWingsValue(uint16 fatherValue, uint16 motherValue) private returns (uint16 value) {\n\t\tuint256 roll = random(0, 10000);\n\t\tif (roll < 3500) {\n\t\t\tvalue = fatherValue;\n\t\t} else if (roll < 7500) {\n\t\t\tvalue = motherValue;\n\t\t} else {\n\t\t\tvalue = uint16(random(1, 4));\n\t\t}\n\t}\n\n\tfunction generateChildGeneration(uint16 fatherValue, uint16 motherValue) private pure returns (uint16) {\n\t\tuint256 maxValue = (fatherValue > motherValue) ? fatherValue : motherValue;\n\t\tmaxValue = maxValue + 1;\n\t\tif (maxValue > 65535) {\n\t\t\tmaxValue = 65535;\n\t\t}\n\t\treturn uint16(maxValue);\n\t}\n\n\t/**************************** Getters *********************************************** */\n\n\tfunction getInitialHealthFromBytes(bytes32 genes) public pure returns (uint16) {\n\t\treturn uint16(uint256(genes) >> (30 * 8));\n\t}\n\n\tfunction getMaxHealthFromBytes(bytes32 genes) public pure returns (uint16) {\n\t\treturn uint16(uint256(genes) >> (28 * 8));\n\t}\n\n\tfunction getInitialStrengthFromBytes(bytes32 genes) public pure returns (uint16) {\n\t\treturn uint16(uint256(genes) >> (26 * 8));\n\t}\n\n\tfunction getMaxStrengthFromBytes(bytes32 genes) public pure returns (uint16) {\n\t\treturn uint16(uint256(genes) >> (24 * 8));\n\t}\n\n\tfunction getInitialAgilityFromBytes(bytes32 genes) public pure returns (uint16) {\n\t\treturn uint16(uint256(genes) >> (22 * 8));\n\t}\n\n\tfunction getMaxAgilityFromBytes(bytes32 genes) public pure returns (uint16) {\n\t\treturn uint16(uint256(genes) >> (20 * 8));\n\t}\n\n\tfunction getInitialFortitudeFromBytes(bytes32 genes) public pure returns (uint16) {\n\t\treturn uint16(uint256(genes) >> (18 * 8));\n\t}\n\n\tfunction getMaxFortitudeFromBytes(bytes32 genes) public pure returns (uint16) {\n\t\treturn uint16(uint256(genes) >> (16 * 8));\n\t}\n\n\tfunction getActionCooldownFromBytes(bytes32 genes) public pure returns (uint16) {\n\t\treturn uint16(uint256(genes) >> (14 * 8));\n\t}\n\n\tfunction getHatchTimeFromBytes(bytes32 genes) public pure returns (uint16) {\n\t\treturn uint16(uint256(genes) >> (12 * 8));\n\t}\n\n\t/*********************** Visual Attributes *************************************** */\n\tfunction getHeadAttributeFromBytes(bytes32 genes) public pure returns (uint16) {\n\t\treturn uint16(uint256(genes) >> (10 * 8));\n\t}\n\n\tfunction getBodyAttributeFromBytes(bytes32 genes) public pure returns (uint16) {\n\t\treturn uint16(uint256(genes) >> (8 * 8));\n\t}\n\n\tfunction getWingsAttributeFromBytes(bytes32 genes) public pure returns (uint16) {\n\t\treturn uint16(uint256(genes) >> (6 * 8));\n\t}\n\n\tfunction getGenerationAttributeFromBytes(bytes32 genes) public pure returns (uint16) {\n\t\treturn uint16(uint256(genes));\n\t}\n\n\t/********************* Utils *************************************** */\n\n\t// This is vulnerable, but I don't think it is worth protecting for this use case.\n\t// A safer, more complex and expensive solution is using an oracle like Provable\n\tfunction random(uint256 start, uint256 end) private returns (uint256) {\n\t\tuint256 n = end - start + 1;\n\t\tuint256 randomnumber = uint256(keccak256(abi.encodePacked(block.timestamp, msg.sender, _randomNonce))) % n;\n\t\trandomnumber = randomnumber + start;\n\t\t_randomNonce++;\n\t\treturn randomnumber;\n\t}\n}\n",
  "sourcePath": "/mnt/d/Projects/cryptodragons/truffle-project/contracts/genes/GenesLaboratory.sol",
  "compiler": {
    "name": "solc",
    "version": "0.8.4+commit.c7e474f2.Emscripten.clang"
  },
  "schemaVersion": "3.4.3",
  "updatedAt": "2021-10-31T17:35:56.408Z",
  "devdoc": {
    "kind": "dev",
    "methods": {},
    "version": 1
  },
  "userdoc": {
    "kind": "user",
    "methods": {},
    "version": 1
  }
}