{
  "contractName": "GenesLaboratory",
  "abi": [
    {
      "inputs": [
        {
          "internalType": "address",
          "name": "dragonAddress",
          "type": "address"
        }
      ],
      "stateMutability": "nonpayable",
      "type": "constructor"
    },
    {
      "inputs": [],
      "name": "createNewDragonGenes",
      "outputs": [
        {
          "internalType": "bytes32",
          "name": "genes",
          "type": "bytes32"
        },
        {
          "internalType": "uint16",
          "name": "initialHealth",
          "type": "uint16"
        },
        {
          "internalType": "uint16",
          "name": "initialStrength",
          "type": "uint16"
        },
        {
          "internalType": "uint16",
          "name": "initialAgility",
          "type": "uint16"
        },
        {
          "internalType": "uint16",
          "name": "initialFortitude",
          "type": "uint16"
        },
        {
          "internalType": "uint16",
          "name": "actionCooldown",
          "type": "uint16"
        },
        {
          "internalType": "uint16",
          "name": "hatchTime",
          "type": "uint16"
        }
      ],
      "stateMutability": "nonpayable",
      "type": "function"
    },
    {
      "inputs": [
        {
          "internalType": "bytes32",
          "name": "fatherGenes",
          "type": "bytes32"
        },
        {
          "internalType": "bytes32",
          "name": "motherGenes",
          "type": "bytes32"
        }
      ],
      "name": "createChildGenes",
      "outputs": [
        {
          "internalType": "bytes32",
          "name": "childGenes",
          "type": "bytes32"
        },
        {
          "internalType": "uint16",
          "name": "initialHealth",
          "type": "uint16"
        },
        {
          "internalType": "uint16",
          "name": "initialStrength",
          "type": "uint16"
        },
        {
          "internalType": "uint16",
          "name": "initialAgility",
          "type": "uint16"
        },
        {
          "internalType": "uint16",
          "name": "initialFortitude",
          "type": "uint16"
        },
        {
          "internalType": "uint16",
          "name": "actionCooldown",
          "type": "uint16"
        },
        {
          "internalType": "uint16",
          "name": "hatchTime",
          "type": "uint16"
        }
      ],
      "stateMutability": "nonpayable",
      "type": "function"
    },
    {
      "inputs": [
        {
          "internalType": "bytes32",
          "name": "genes",
          "type": "bytes32"
        }
      ],
      "name": "getVisualAttributes",
      "outputs": [
        {
          "components": [
            {
              "internalType": "uint8",
              "name": "bodyType",
              "type": "uint8"
            },
            {
              "internalType": "uint8",
              "name": "bodyColor",
              "type": "uint8"
            },
            {
              "internalType": "uint8",
              "name": "bodyPatternType",
              "type": "uint8"
            },
            {
              "internalType": "uint8",
              "name": "bodyPatternColor",
              "type": "uint8"
            },
            {
              "internalType": "uint8",
              "name": "wingsType",
              "type": "uint8"
            },
            {
              "internalType": "uint8",
              "name": "wingsColor",
              "type": "uint8"
            },
            {
              "internalType": "uint8",
              "name": "hornsType",
              "type": "uint8"
            },
            {
              "internalType": "uint8",
              "name": "hornsColor",
              "type": "uint8"
            },
            {
              "internalType": "uint8",
              "name": "eyesType",
              "type": "uint8"
            },
            {
              "internalType": "uint8",
              "name": "eyesColor",
              "type": "uint8"
            },
            {
              "internalType": "uint8",
              "name": "tailType",
              "type": "uint8"
            },
            {
              "internalType": "uint8",
              "name": "tailColor",
              "type": "uint8"
            }
          ],
          "internalType": "struct DragonLibrary.DragonVisualAttributes",
          "name": "",
          "type": "tuple"
        }
      ],
      "stateMutability": "pure",
      "type": "function",
      "constant": true
    },
    {
      "inputs": [
        {
          "internalType": "bytes32",
          "name": "genes",
          "type": "bytes32"
        }
      ],
      "name": "getInitialHealthFromBytes",
      "outputs": [
        {
          "internalType": "uint16",
          "name": "",
          "type": "uint16"
        }
      ],
      "stateMutability": "pure",
      "type": "function",
      "constant": true
    },
    {
      "inputs": [
        {
          "internalType": "bytes32",
          "name": "genes",
          "type": "bytes32"
        }
      ],
      "name": "getMaxHealthFromBytes",
      "outputs": [
        {
          "internalType": "uint16",
          "name": "",
          "type": "uint16"
        }
      ],
      "stateMutability": "pure",
      "type": "function",
      "constant": true
    },
    {
      "inputs": [
        {
          "internalType": "bytes32",
          "name": "genes",
          "type": "bytes32"
        }
      ],
      "name": "getInitialStrengthFromBytes",
      "outputs": [
        {
          "internalType": "uint16",
          "name": "",
          "type": "uint16"
        }
      ],
      "stateMutability": "pure",
      "type": "function",
      "constant": true
    },
    {
      "inputs": [
        {
          "internalType": "bytes32",
          "name": "genes",
          "type": "bytes32"
        }
      ],
      "name": "getMaxStrengthFromBytes",
      "outputs": [
        {
          "internalType": "uint16",
          "name": "",
          "type": "uint16"
        }
      ],
      "stateMutability": "pure",
      "type": "function",
      "constant": true
    },
    {
      "inputs": [
        {
          "internalType": "bytes32",
          "name": "genes",
          "type": "bytes32"
        }
      ],
      "name": "getInitialAgilityFromBytes",
      "outputs": [
        {
          "internalType": "uint16",
          "name": "",
          "type": "uint16"
        }
      ],
      "stateMutability": "pure",
      "type": "function",
      "constant": true
    },
    {
      "inputs": [
        {
          "internalType": "bytes32",
          "name": "genes",
          "type": "bytes32"
        }
      ],
      "name": "getMaxAgilityFromBytes",
      "outputs": [
        {
          "internalType": "uint16",
          "name": "",
          "type": "uint16"
        }
      ],
      "stateMutability": "pure",
      "type": "function",
      "constant": true
    },
    {
      "inputs": [
        {
          "internalType": "bytes32",
          "name": "genes",
          "type": "bytes32"
        }
      ],
      "name": "getInitialFortitudeFromBytes",
      "outputs": [
        {
          "internalType": "uint16",
          "name": "",
          "type": "uint16"
        }
      ],
      "stateMutability": "pure",
      "type": "function",
      "constant": true
    },
    {
      "inputs": [
        {
          "internalType": "bytes32",
          "name": "genes",
          "type": "bytes32"
        }
      ],
      "name": "getMaxFortitudeFromBytes",
      "outputs": [
        {
          "internalType": "uint16",
          "name": "",
          "type": "uint16"
        }
      ],
      "stateMutability": "pure",
      "type": "function",
      "constant": true
    },
    {
      "inputs": [
        {
          "internalType": "bytes32",
          "name": "genes",
          "type": "bytes32"
        }
      ],
      "name": "getActionCooldownFromBytes",
      "outputs": [
        {
          "internalType": "uint16",
          "name": "",
          "type": "uint16"
        }
      ],
      "stateMutability": "pure",
      "type": "function",
      "constant": true
    },
    {
      "inputs": [
        {
          "internalType": "bytes32",
          "name": "genes",
          "type": "bytes32"
        }
      ],
      "name": "getHatchTimeFromBytes",
      "outputs": [
        {
          "internalType": "uint16",
          "name": "",
          "type": "uint16"
        }
      ],
      "stateMutability": "pure",
      "type": "function",
      "constant": true
    },
    {
      "inputs": [
        {
          "internalType": "bytes32",
          "name": "genes",
          "type": "bytes32"
        }
      ],
      "name": "getBodyTypeFromBytes",
      "outputs": [
        {
          "internalType": "uint8",
          "name": "",
          "type": "uint8"
        }
      ],
      "stateMutability": "pure",
      "type": "function",
      "constant": true
    },
    {
      "inputs": [
        {
          "internalType": "bytes32",
          "name": "genes",
          "type": "bytes32"
        }
      ],
      "name": "getBodyColorFromBytes",
      "outputs": [
        {
          "internalType": "uint8",
          "name": "",
          "type": "uint8"
        }
      ],
      "stateMutability": "pure",
      "type": "function",
      "constant": true
    },
    {
      "inputs": [
        {
          "internalType": "bytes32",
          "name": "genes",
          "type": "bytes32"
        }
      ],
      "name": "getBodyPatternTypeFromBytes",
      "outputs": [
        {
          "internalType": "uint8",
          "name": "",
          "type": "uint8"
        }
      ],
      "stateMutability": "pure",
      "type": "function",
      "constant": true
    },
    {
      "inputs": [
        {
          "internalType": "bytes32",
          "name": "genes",
          "type": "bytes32"
        }
      ],
      "name": "getBodyPatternColorFromBytes",
      "outputs": [
        {
          "internalType": "uint8",
          "name": "",
          "type": "uint8"
        }
      ],
      "stateMutability": "pure",
      "type": "function",
      "constant": true
    },
    {
      "inputs": [
        {
          "internalType": "bytes32",
          "name": "genes",
          "type": "bytes32"
        }
      ],
      "name": "getWingsTypeFromBytes",
      "outputs": [
        {
          "internalType": "uint8",
          "name": "",
          "type": "uint8"
        }
      ],
      "stateMutability": "pure",
      "type": "function",
      "constant": true
    },
    {
      "inputs": [
        {
          "internalType": "bytes32",
          "name": "genes",
          "type": "bytes32"
        }
      ],
      "name": "getWingsColorFromBytes",
      "outputs": [
        {
          "internalType": "uint8",
          "name": "",
          "type": "uint8"
        }
      ],
      "stateMutability": "pure",
      "type": "function",
      "constant": true
    },
    {
      "inputs": [
        {
          "internalType": "bytes32",
          "name": "genes",
          "type": "bytes32"
        }
      ],
      "name": "getHornsTypeFromBytes",
      "outputs": [
        {
          "internalType": "uint8",
          "name": "",
          "type": "uint8"
        }
      ],
      "stateMutability": "pure",
      "type": "function",
      "constant": true
    },
    {
      "inputs": [
        {
          "internalType": "bytes32",
          "name": "genes",
          "type": "bytes32"
        }
      ],
      "name": "getHornsColorFromBytes",
      "outputs": [
        {
          "internalType": "uint8",
          "name": "",
          "type": "uint8"
        }
      ],
      "stateMutability": "pure",
      "type": "function",
      "constant": true
    },
    {
      "inputs": [
        {
          "internalType": "bytes32",
          "name": "genes",
          "type": "bytes32"
        }
      ],
      "name": "getEyesTypeFromBytes",
      "outputs": [
        {
          "internalType": "uint8",
          "name": "",
          "type": "uint8"
        }
      ],
      "stateMutability": "pure",
      "type": "function",
      "constant": true
    },
    {
      "inputs": [
        {
          "internalType": "bytes32",
          "name": "genes",
          "type": "bytes32"
        }
      ],
      "name": "getEyesColorFromBytes",
      "outputs": [
        {
          "internalType": "uint8",
          "name": "",
          "type": "uint8"
        }
      ],
      "stateMutability": "pure",
      "type": "function",
      "constant": true
    },
    {
      "inputs": [
        {
          "internalType": "bytes32",
          "name": "genes",
          "type": "bytes32"
        }
      ],
      "name": "getTailTypeFromBytes",
      "outputs": [
        {
          "internalType": "uint8",
          "name": "",
          "type": "uint8"
        }
      ],
      "stateMutability": "pure",
      "type": "function",
      "constant": true
    },
    {
      "inputs": [
        {
          "internalType": "bytes32",
          "name": "genes",
          "type": "bytes32"
        }
      ],
      "name": "getTailColorFromBytes",
      "outputs": [
        {
          "internalType": "uint8",
          "name": "",
          "type": "uint8"
        }
      ],
      "stateMutability": "pure",
      "type": "function",
      "constant": true
    }
  ],
  "bytecode": "0x60806040523480156200001157600080fd5b5060405162001f5f38038062001f5f833981810160405281019062000037919062000108565b600073ffffffffffffffffffffffffffffffffffffffff168173ffffffffffffffffffffffffffffffffffffffff161415620000aa576040517f08c379a0000000000000000000000000000000000000000000000000000000008152600401620000a1906200015b565b60405180910390fd5b806000806101000a81548173ffffffffffffffffffffffffffffffffffffffff021916908373ffffffffffffffffffffffffffffffffffffffff1602179055505062000205565b6000815190506200010281620001eb565b92915050565b6000602082840312156200011b57600080fd5b60006200012b84828501620000f1565b91505092915050565b600062000143601e836200017d565b91506200015082620001c2565b602082019050919050565b60006020820190508181036000830152620001768162000134565b9050919050565b600082825260208201905092915050565b60006200019b82620001a2565b9050919050565b600073ffffffffffffffffffffffffffffffffffffffff82169050919050565b7f496e76616c696420647261676f6e206164647265737320616464726573730000600082015250565b620001f6816200018e565b81146200020257600080fd5b50565b611d4a80620002156000396000f3fe608060405234801561001057600080fd5b50600436106101735760003560e01c8063aad860c7116100de578063cc83d2c611610097578063d9b8a61811610071578063d9b8a61814610562578063ecb0474814610592578063ef4b456c146105c2578063f5373ed7146105f257610173565b8063cc83d2c6146104d2578063cf4cd1de14610502578063d77936ec1461053257610173565b8063aad860c7146103b2578063b0e6c953146103e2578063c32369a314610412578063c3e5bdba14610442578063c7b47c2914610472578063cc7dffef146104a257610173565b80635bbc2801116101305780635bbc2801146102925780636204f857146102c25780637faca69f146102f2578063869e7c44146103225780638f7a58041461035257806391926cff1461038257610173565b806307deaa53146101785780630ce68f8a146101a8578063238e672a146101d8578063355916a41461020857806352bc13fe1461022c57806353df58d71461025c575b600080fd5b610192600480360381019061018d91906117b1565b610622565b60405161019f9190611a59565b60405180910390f35b6101c260048036038101906101bd91906117b1565b610633565b6040516101cf9190611a3e565b60405180910390f35b6101f260048036038101906101ed91906117b1565b610644565b6040516101ff9190611a3e565b60405180910390f35b610210610655565b60405161022397969594939291906119b3565b60405180910390f35b610246600480360381019061024191906117b1565b610797565b6040516102539190611a3e565b60405180910390f35b610276600480360381019061027191906117da565b6107a8565b60405161028997969594939291906119b3565b60405180910390f35b6102ac60048036038101906102a791906117b1565b610901565b6040516102b99190611a59565b60405180910390f35b6102dc60048036038101906102d791906117b1565b610912565b6040516102e99190611a3e565b60405180910390f35b61030c600480360381019061030791906117b1565b610923565b6040516103199190611a59565b60405180910390f35b61033c600480360381019061033791906117b1565b610934565b6040516103499190611a59565b60405180910390f35b61036c600480360381019061036791906117b1565b610941565b6040516103799190611a59565b60405180910390f35b61039c600480360381019061039791906117b1565b610952565b6040516103a99190611a22565b60405180910390f35b6103cc60048036038101906103c791906117b1565b610a3d565b6040516103d99190611a59565b60405180910390f35b6103fc60048036038101906103f791906117b1565b610a4e565b6040516104099190611a59565b60405180910390f35b61042c600480360381019061042791906117b1565b610a5f565b6040516104399190611a3e565b60405180910390f35b61045c600480360381019061045791906117b1565b610a70565b6040516104699190611a59565b60405180910390f35b61048c600480360381019061048791906117b1565b610a81565b6040516104999190611a59565b60405180910390f35b6104bc60048036038101906104b791906117b1565b610a92565b6040516104c99190611a59565b60405180910390f35b6104ec60048036038101906104e791906117b1565b610aa3565b6040516104f99190611a59565b60405180910390f35b61051c600480360381019061051791906117b1565b610ab4565b6040516105299190611a3e565b60405180910390f35b61054c600480360381019061054791906117b1565b610ac5565b6040516105599190611a3e565b60405180910390f35b61057c600480360381019061057791906117b1565b610ad6565b6040516105899190611a3e565b60405180910390f35b6105ac60048036038101906105a791906117b1565b610ae7565b6040516105b99190611a3e565b60405180910390f35b6105dc60048036038101906105d791906117b1565b610af8565b6040516105e99190611a59565b60405180910390f35b61060c600480360381019061060791906117b1565b610b09565b6040516106199190611a3e565b60405180910390f35b600060088260001c901c9050919050565b600060908260001c901c9050919050565b600060d08260001c901c9050919050565b600080600080600080600061066987610b1a565b809750819850505061067a87610b51565b965061068587610b83565b809650819850505061069687610bba565b96506106a187610bec565b80955081985050506106b287610c23565b96506106bd87610c55565b80945081985050506106ce87610c8c565b96506106d987610cbe565b80935081985050506106ea87610ceb565b80925081985050506106fd87600b610d19565b965061070a87600a610d19565b9650610717876009610d19565b9650610724876008610d19565b9650610731876007610d19565b965061073e876006610d19565b965061074b876005610d19565b9650610758876004610d19565b9650610765876003610d19565b9650610772876002610d19565b965061077f876001610d19565b965061078c876000610d19565b965090919293949596565b600060608260001c901c9050919050565b60008060008060008060006107be878a8a610d57565b80975081985050506107d1878a8a610daf565b96506107de878a8a610e01565b80965081985050506107f1878a8a610e59565b96506107fe878a8a610eab565b8095508198505050610811878a8a610f03565b965061081e878a8a610f55565b8094508198505050610831878a8a610fad565b965061083e878a8a610fff565b8093508198505050610851878a8a61109b565b8092508198505050610864878a8a611137565b9650610871878a8a61118f565b965061087e878a8a6111e7565b965061088b878a8a61123f565b9650610898878a8a611297565b96506108a5878a8a6112ef565b96506108b2878a8a611347565b96506108bf878a8a61139f565b96506108cc878a8a6113f7565b96506108d9878a8a61144f565b96506108e6878a8a6114a7565b96506108f3878a8a6114ff565b965092959891949750929550565b600060408260001c901c9050919050565b600060a08260001c901c9050919050565b600060588260001c901c9050919050565b60008160001c9050919050565b600060208260001c901c9050919050565b61095a611717565b600060405180610180016040528061097185610923565b60ff16815260200161098285610aa3565b60ff16815260200161099385610a81565b60ff1681526020016109a485610901565b60ff1681526020016109b585610af8565b60ff1681526020016109c685610a70565b60ff1681526020016109d785610a92565b60ff1681526020016109e885610941565b60ff1681526020016109f985610a3d565b60ff168152602001610a0a85610a4e565b60ff168152602001610a1b85610622565b60ff168152602001610a2c85610934565b60ff16815250905080915050919050565b600060188260001c901c9050919050565b600060108260001c901c9050919050565b600060b08260001c901c9050919050565b600060308260001c901c9050919050565b600060488260001c901c9050919050565b600060288260001c901c9050919050565b600060508260001c901c9050919050565b600060e08260001c901c9050919050565b600060708260001c901c9050919050565b600060c08260001c901c9050919050565b600060f08260001c901c9050919050565b600060388260001c901c9050919050565b600060808260001c901c9050919050565b6000806000610b2b6010601661154d565b9050600060f082901b905060008560001c821790508060001b8394509450505050915091565b600080610b6060af60e161154d565b9050600060e082901b905060008460001c821790508060001b9350505050919050565b6000806000610b946004600661154d565b9050600060d082901b905060008560001c821790508060001b8394509450505050915091565b600080610bc96032604b61154d565b9050600060c082901b905060008460001c821790508060001b9350505050919050565b6000806000610bfd6004600661154d565b9050600060b082901b905060008560001c821790508060001b8394509450505050915091565b600080610c326032604b61154d565b9050600060a082901b905060008460001c821790508060001b9350505050919050565b6000806000610c666004600661154d565b90506000609082901b905060008560001c821790508060001b8394509450505050915091565b600080610c9b6032604b61154d565b90506000608082901b905060008460001c821790508060001b9350505050919050565b600080600060b490506000607082901b905060008560001c821790508060001b8394509450505050915091565b600080600061016890506000606082901b905060008560001c821790508060001b8394509450505050915091565b600080610d28600160ff61154d565b90506000600884610d399190611afb565b82901b905060008560001c821790508060001b935050505092915050565b6000806000610d6585610ae7565b90506000610d7285610ae7565b90506000610d8083836115da565b61ffff169050600060f082901b905060008960001c821790508060001b83965096505050505050935093915050565b600080610dbb84610ab4565b90506000610dc884610ab4565b90506000610dd683836115da565b61ffff169050600060e082901b905060008860001c821790508060001b955050505050509392505050565b6000806000610e0f85610644565b90506000610e1c85610644565b90506000610e2a83836115da565b61ffff169050600060d082901b905060008960001c821790508060001b83965096505050505050935093915050565b600080610e6584610ad6565b90506000610e7284610ad6565b90506000610e8083836115da565b61ffff169050600060c082901b905060008860001c821790508060001b955050505050509392505050565b6000806000610eb985610a5f565b90506000610ec685610a5f565b90506000610ed483836115da565b61ffff169050600060b082901b905060008960001c821790508060001b83965096505050505050935093915050565b600080610f0f84610912565b90506000610f1c84610912565b90506000610f2a83836115da565b61ffff169050600060a082901b905060008860001c821790508060001b955050505050509392505050565b6000806000610f6385610633565b90506000610f7085610633565b90506000610f7e83836115da565b61ffff1690506000609082901b905060008960001c821790508060001b83965096505050505050935093915050565b600080610fb984610ad6565b90506000610fc684610ad6565b90506000610fd483836115da565b61ffff1690506000608082901b905060008860001c821790508060001b955050505050509392505050565b600080600061100d85610797565b9050600061101a85610797565b905060008161ffff168361ffff16111561103a578261ffff169050611042565b8161ffff1690505b60006103e861044c836110559190611afb565b61105f9190611aca565b905061ffff8111156110715761ffff90505b6000607082901b905060008a60001c821790508060001b8397509750505050505050935093915050565b60008060006110a985610797565b905060006110b685610797565b905060008161ffff168361ffff1611156110d6578261ffff1690506110de565b8161ffff1690505b60006103e861044c836110f19190611afb565b6110fb9190611aca565b905061ffff81111561110d5761ffff90505b6000606082901b905060008a60001c821790508060001b8397509750505050505050935093915050565b60008061114384610923565b60ff169050600061115384610923565b60ff169050600061116483836116ca565b61ffff1690506000605882901b905060008860001c821790508060001b955050505050509392505050565b60008061119b84610aa3565b60ff16905060006111ab84610aa3565b60ff16905060006111bc83836116ca565b61ffff1690506000605082901b905060008860001c821790508060001b955050505050509392505050565b6000806111f384610a81565b60ff169050600061120384610a81565b60ff169050600061121483836116ca565b61ffff1690506000604882901b905060008860001c821790508060001b955050505050509392505050565b60008061124b84610901565b60ff169050600061125b84610901565b60ff169050600061126c83836116ca565b61ffff1690506000604082901b905060008860001c821790508060001b955050505050509392505050565b6000806112a384610af8565b60ff16905060006112b384610af8565b60ff16905060006112c483836116ca565b61ffff1690506000603882901b905060008860001c821790508060001b955050505050509392505050565b6000806112fb84610a70565b60ff169050600061130b84610a70565b60ff169050600061131c83836116ca565b61ffff1690506000603082901b905060008860001c821790508060001b955050505050509392505050565b60008061135384610a92565b60ff169050600061136384610a92565b60ff169050600061137483836116ca565b61ffff1690506000602882901b905060008860001c821790508060001b955050505050509392505050565b6000806113ab84610941565b60ff16905060006113bb84610941565b60ff16905060006113cc83836116ca565b61ffff1690506000602082901b905060008860001c821790508060001b955050505050509392505050565b60008061140384610a3d565b60ff169050600061141384610a3d565b60ff169050600061142483836116ca565b61ffff1690506000601882901b905060008860001c821790508060001b955050505050509392505050565b60008061145b84610a4e565b60ff169050600061146b84610a4e565b60ff169050600061147c83836116ca565b61ffff1690506000601082901b905060008860001c821790508060001b955050505050509392505050565b6000806114b384610622565b60ff16905060006114c384610622565b60ff16905060006114d483836116ca565b61ffff1690506000600882901b905060008860001c821790508060001b955050505050509392505050565b60008061150b84610934565b60ff169050600061151b84610934565b60ff169050600061152c83836116ca565b61ffff16905060008760001c821790508060001b9450505050509392505050565b6000806001848461155e9190611b55565b6115689190611a74565b9050600081423360015460405160200161158493929190611976565b6040516020818303038152906040528051906020012060001c6115a79190611c61565b905084816115b59190611a74565b9050600160008154809291906115ca90611bea565b9190505550809250505092915050565b6000806127108461ffff166115ef9190611afb565b905060006127108461ffff166116059190611afb565b90506000808284101561161d57839150829050611624565b8291508390505b611d4c6064605f846116369190611afb565b6116409190611aca565b61164a9190611b55565b915061271082101561165c5761271091505b611d4c606460698361166e9190611afb565b6116789190611aca565b6116829190611a74565b90506000612710611388611696858561154d565b6116a09190611a74565b6116aa9190611aca565b905061ffff8111156116bc5761ffff90505b809550505050505092915050565b6000806116da600061271061154d565b9050610fa08110156116ee57839150611710565b611d4c8110156117005782915061170f565b61170c600160ff61154d565b91505b5b5092915050565b604051806101800160405280600060ff168152602001600060ff168152602001600060ff168152602001600060ff168152602001600060ff168152602001600060ff168152602001600060ff168152602001600060ff168152602001600060ff168152602001600060ff168152602001600060ff168152602001600060ff1681525090565b6000813590506117ab81611cfd565b92915050565b6000602082840312156117c357600080fd5b60006117d18482850161179c565b91505092915050565b600080604083850312156117ed57600080fd5b60006117fb8582860161179c565b925050602061180c8582860161179c565b9150509250929050565b61182761182282611b89565b611c33565b82525050565b61183681611b9b565b82525050565b610180820160008201516118536000850182611958565b5060208201516118666020850182611958565b5060408201516118796040850182611958565b50606082015161188c6060850182611958565b50608082015161189f6080850182611958565b5060a08201516118b260a0850182611958565b5060c08201516118c560c0850182611958565b5060e08201516118d860e0850182611958565b506101008201516118ed610100850182611958565b50610120820151611902610120850182611958565b50610140820151611917610140850182611958565b5061016082015161192c610160850182611958565b50505050565b61193b81611ba5565b82525050565b61195261194d82611bd3565b611c57565b82525050565b61196181611bdd565b82525050565b61197081611bdd565b82525050565b60006119828286611941565b6020820191506119928285611816565b6014820191506119a28284611941565b602082019150819050949350505050565b600060e0820190506119c8600083018a61182d565b6119d56020830189611932565b6119e26040830188611932565b6119ef6060830187611932565b6119fc6080830186611932565b611a0960a0830185611932565b611a1660c0830184611932565b98975050505050505050565b600061018082019050611a38600083018461183c565b92915050565b6000602082019050611a536000830184611932565b92915050565b6000602082019050611a6e6000830184611967565b92915050565b6000611a7f82611bd3565b9150611a8a83611bd3565b9250827fffffffffffffffffffffffffffffffffffffffffffffffffffffffffffffffff03821115611abf57611abe611c92565b5b828201905092915050565b6000611ad582611bd3565b9150611ae083611bd3565b925082611af057611aef611cc1565b5b828204905092915050565b6000611b0682611bd3565b9150611b1183611bd3565b9250817fffffffffffffffffffffffffffffffffffffffffffffffffffffffffffffffff0483118215151615611b4a57611b49611c92565b5b828202905092915050565b6000611b6082611bd3565b9150611b6b83611bd3565b925082821015611b7e57611b7d611c92565b5b828203905092915050565b6000611b9482611bb3565b9050919050565b6000819050919050565b600061ffff82169050919050565b600073ffffffffffffffffffffffffffffffffffffffff82169050919050565b6000819050919050565b600060ff82169050919050565b6000611bf582611bd3565b91507fffffffffffffffffffffffffffffffffffffffffffffffffffffffffffffffff821415611c2857611c27611c92565b5b600182019050919050565b6000611c3e82611c45565b9050919050565b6000611c5082611cf0565b9050919050565b6000819050919050565b6000611c6c82611bd3565b9150611c7783611bd3565b925082611c8757611c86611cc1565b5b828206905092915050565b7f4e487b7100000000000000000000000000000000000000000000000000000000600052601160045260246000fd5b7f4e487b7100000000000000000000000000000000000000000000000000000000600052601260045260246000fd5b60008160601b9050919050565b611d0681611b9b565b8114611d1157600080fd5b5056fea26469706673582212206cafe3f115559bfe5724e9ca58cf1c308ef0e8420043528204bdc2432edd73c664736f6c63430008040033",
  "immutableReferences": {},
  "source": "// SPDX-License-Identifier: GPL-3.0 License\n\npragma solidity ^0.8.0;\n\nimport \"../common/libraries/DragonLibrary.sol\";\n\ncontract GenesLaboratory {\n\taddress private _dragonContractAddress;\n\tuint256 private _randomNonce;\n\n\tconstructor(address dragonAddress) {\n\t\trequire(dragonAddress != address(0), 'Invalid dragon address address');\n\t\t_dragonContractAddress = dragonAddress;\n\t}\n\n\tmodifier onlyFromDragonContract() {\n\t\t_;\n\t}\n\n\tfunction createNewDragonGenes()\n\t\tpublic\n\t\tonlyFromDragonContract\n\t\treturns (\n\t\t\tbytes32 genes,\n\t\t\tuint16 initialHealth,\n\t\t\tuint16 initialStrength,\n\t\t\tuint16 initialAgility,\n\t\t\tuint16 initialFortitude,\n\t\t\tuint16 actionCooldown,\n\t\t\tuint16 hatchTime\n\t\t)\n\t{\n\t\t(genes, initialHealth) = createInitialHealthValue(genes);\n\t\tgenes = createMaxHealthValue(genes);\n\t\t(genes, initialStrength) = createInitialStrengthValue(genes);\n\t\tgenes = createMaxStrengthValue(genes);\n\t\t(genes, initialAgility) = createInitialAgilityValue(genes);\n\t\tgenes = createMaxAgilityValue(genes);\n\t\t(genes, initialFortitude) = createInitialFortitudeValue(genes);\n\t\tgenes = createMaxFortitudeValue(genes);\n\t\t(genes, actionCooldown) = createActionCooldown(genes);\n\t\t(genes, hatchTime) = createHatchTime(genes);\n\t\tgenes = createVisualAttribute(genes, 11);\n\t\tgenes = createVisualAttribute(genes, 10);\n\t\tgenes = createVisualAttribute(genes, 9);\n\t\tgenes = createVisualAttribute(genes, 8);\n\t\tgenes = createVisualAttribute(genes, 7);\n\t\tgenes = createVisualAttribute(genes, 6);\n\t\tgenes = createVisualAttribute(genes, 5);\n\t\tgenes = createVisualAttribute(genes, 4);\n\t\tgenes = createVisualAttribute(genes, 3);\n\t\tgenes = createVisualAttribute(genes, 2);\n\t\tgenes = createVisualAttribute(genes, 1);\n\t\tgenes = createVisualAttribute(genes, 0);\n\t}\n\n\tfunction createChildGenes(bytes32 fatherGenes, bytes32 motherGenes)\n\t\tpublic\n\t\tonlyFromDragonContract\n\t\treturns (\n\t\t\tbytes32 childGenes,\n\t\t\tuint16 initialHealth,\n\t\t\tuint16 initialStrength,\n\t\t\tuint16 initialAgility,\n\t\t\tuint16 initialFortitude,\n\t\t\tuint16 actionCooldown,\n\t\t\tuint16 hatchTime\n\t\t)\n\t{\n\t\t(childGenes, initialHealth) = getChildInitialHealth(childGenes, fatherGenes, motherGenes);\n\t\tchildGenes = getChildMaxHealth(childGenes, fatherGenes, motherGenes);\n\t\t(childGenes, initialStrength) = getChildInitialStrength(childGenes, fatherGenes, motherGenes);\n\t\tchildGenes = getChildMaxStrength(childGenes, fatherGenes, motherGenes);\n\t\t(childGenes, initialAgility) = getChildInitialAgility(childGenes, fatherGenes, motherGenes);\n\t\tchildGenes = getChildMaxAgility(childGenes, fatherGenes, motherGenes);\n\t\t(childGenes, initialFortitude) = getChildInitialFortitude(childGenes, fatherGenes, motherGenes);\n\t\tchildGenes = getChildMaxFortitude(childGenes, fatherGenes, motherGenes);\n\t\t(childGenes, actionCooldown) = getChildActionCooldown(childGenes, fatherGenes, motherGenes);\n\t\t(childGenes, hatchTime) = getChildHatchTime(childGenes, fatherGenes, motherGenes);\n\n\t\tchildGenes = getChildBodyType(childGenes, fatherGenes, motherGenes);\n\t\tchildGenes = getChildBodyColor(childGenes, fatherGenes, motherGenes);\n\t\tchildGenes = getChildBodyPatternType(childGenes, fatherGenes, motherGenes);\n\t\tchildGenes = getChildBodyPatternColor(childGenes, fatherGenes, motherGenes);\n\t\tchildGenes = getChildWingsType(childGenes, fatherGenes, motherGenes);\n\t\tchildGenes = getChildWingsColor(childGenes, fatherGenes, motherGenes);\n\t\tchildGenes = getChildHornsType(childGenes, fatherGenes, motherGenes);\n\t\tchildGenes = getChildHornsColor(childGenes, fatherGenes, motherGenes);\n\t\tchildGenes = getChildEyesType(childGenes, fatherGenes, motherGenes);\n\t\tchildGenes = getChildEyesColor(childGenes, fatherGenes, motherGenes);\n\t\tchildGenes = getChildTailType(childGenes, fatherGenes, motherGenes);\n\t\tchildGenes = getChildTailColor(childGenes, fatherGenes, motherGenes);\n\t}\n\n\tfunction getVisualAttributes(bytes32 genes) external pure returns (DragonLibrary.DragonVisualAttributes memory) {\n\t\tDragonLibrary.DragonVisualAttributes memory visualAttributes = DragonLibrary.DragonVisualAttributes({\n\t\t\tbodyType: getBodyTypeFromBytes(genes),\n\t\t\tbodyColor: getBodyColorFromBytes(genes),\n\t\t\tbodyPatternType: getBodyPatternTypeFromBytes(genes),\n\t\t\tbodyPatternColor: getBodyPatternColorFromBytes(genes),\n\t\t\twingsType: getWingsTypeFromBytes(genes),\n\t\t\twingsColor: getWingsColorFromBytes(genes),\n\t\t\thornsType: getHornsTypeFromBytes(genes),\n\t\t\thornsColor: getHornsColorFromBytes(genes),\n\t\t\teyesType: getEyesTypeFromBytes(genes),\n\t\t\teyesColor: getEyesColorFromBytes(genes),\n\t\t\ttailType: getTailTypeFromBytes(genes),\n\t\t\ttailColor: getTailColorFromBytes(genes)\n\t\t});\n\t\treturn visualAttributes;\n\t}\n\n\t/************************** Genes creation ***************************************** */\n\n\tfunction createInitialHealthValue(bytes32 genes) private returns (bytes32, uint16) {\n\t\tuint256 value = random(16, 22);\n\t\tuint256 shiftedValue = value << (30 * 8);\n\t\tuint256 result = shiftedValue | uint256(genes);\n\t\treturn (bytes32(result), uint16(value));\n\t}\n\n\tfunction createMaxHealthValue(bytes32 genes) private returns (bytes32) {\n\t\tuint256 value = random(175, 225);\n\t\tuint256 shiftedValue = value << (28 * 8);\n\t\tuint256 result = shiftedValue | uint256(genes);\n\t\treturn bytes32(result);\n\t}\n\n\tfunction createInitialStrengthValue(bytes32 genes) private returns (bytes32, uint16) {\n\t\tuint256 value = random(4, 6);\n\t\tuint256 shiftedValue = value << (26 * 8);\n\t\tuint256 result = shiftedValue | uint256(genes);\n\t\treturn (bytes32(result), uint16(value));\n\t}\n\n\tfunction createMaxStrengthValue(bytes32 genes) private returns (bytes32) {\n\t\tuint256 value = random(50, 75);\n\t\tuint256 shiftedValue = value << (24 * 8);\n\t\tuint256 result = shiftedValue | uint256(genes);\n\t\treturn bytes32(result);\n\t}\n\n\tfunction createInitialAgilityValue(bytes32 genes) private returns (bytes32, uint16) {\n\t\tuint256 value = random(4, 6);\n\t\tuint256 shiftedValue = value << (22 * 8);\n\t\tuint256 result = shiftedValue | uint256(genes);\n\t\treturn (bytes32(result), uint16(value));\n\t}\n\n\tfunction createMaxAgilityValue(bytes32 genes) private returns (bytes32) {\n\t\tuint256 value = random(50, 75);\n\t\tuint256 shiftedValue = value << (20 * 8);\n\t\tuint256 result = shiftedValue | uint256(genes);\n\t\treturn bytes32(result);\n\t}\n\n\tfunction createInitialFortitudeValue(bytes32 genes) private returns (bytes32, uint16) {\n\t\tuint256 value = random(4, 6);\n\t\tuint256 shiftedValue = value << (18 * 8);\n\t\tuint256 result = shiftedValue | uint256(genes);\n\t\treturn (bytes32(result), uint16(value));\n\t}\n\n\tfunction createMaxFortitudeValue(bytes32 genes) private returns (bytes32) {\n\t\tuint256 value = random(50, 75);\n\t\tuint256 shiftedValue = value << (16 * 8);\n\t\tuint256 result = shiftedValue | uint256(genes);\n\t\treturn bytes32(result);\n\t}\n\n\tfunction createActionCooldown(bytes32 genes) private pure returns (bytes32, uint16) {\n\t\tuint256 value = 180;\n\t\tuint256 shiftedValue = value << (14 * 8);\n\t\tuint256 result = shiftedValue | uint256(genes);\n\t\treturn (bytes32(result), uint16(value));\n\t}\n\n\tfunction createHatchTime(bytes32 genes) private pure returns (bytes32, uint16) {\n\t\tuint256 value = 360;\n\t\tuint256 shiftedValue = value << (12 * 8);\n\t\tuint256 result = shiftedValue | uint256(genes);\n\t\treturn (bytes32(result), uint16(value));\n\t}\n\n\tfunction createVisualAttribute(bytes32 genes, uint position) private returns (bytes32) {\n\t\tuint256 value = random(1, 255);\n\t\tuint256 shiftedValue = value << (position * 8);\n\t\tuint256 result = shiftedValue | uint256(genes);\n\t\treturn bytes32(result);\n\t}\n\n\t/******************************* Genes propagation ****************************************************/\n\n\tfunction getChildInitialHealth(\n\t\tbytes32 childGenes,\n\t\tbytes32 fatherGenes,\n\t\tbytes32 motherGenes\n\t) private returns (bytes32, uint16) {\n\t\tuint16 fatherInitialHealth = getInitialHealthFromBytes(fatherGenes);\n\t\tuint16 motherInitialHealth = getInitialHealthFromBytes(motherGenes);\n\n\t\tuint256 childInitialHealth = generateChildValue(fatherInitialHealth, motherInitialHealth);\n\n\t\tuint256 shiftedValue = childInitialHealth << (30 * 8);\n\t\tuint256 result = shiftedValue | uint256(childGenes);\n\t\treturn (bytes32(result), uint16(childInitialHealth));\n\t}\n\n\tfunction getChildMaxHealth(\n\t\tbytes32 childGenes,\n\t\tbytes32 fatherGenes,\n\t\tbytes32 motherGenes\n\t) private returns (bytes32) {\n\t\tuint16 fatherMaxHealth = getMaxHealthFromBytes(fatherGenes);\n\t\tuint16 motherMaxHealth = getMaxHealthFromBytes(motherGenes);\n\n\t\tuint256 childMaxHealth = generateChildValue(fatherMaxHealth, motherMaxHealth);\n\n\t\tuint256 shiftedValue = childMaxHealth << (28 * 8);\n\t\tuint256 result = shiftedValue | uint256(childGenes);\n\t\treturn bytes32(result);\n\t}\n\n\tfunction getChildInitialStrength(\n\t\tbytes32 childGenes,\n\t\tbytes32 fatherGenes,\n\t\tbytes32 motherGenes\n\t) private returns (bytes32, uint16) {\n\t\tuint16 fatherInitialStrength = getInitialStrengthFromBytes(fatherGenes);\n\t\tuint16 motherInitialStrength = getInitialStrengthFromBytes(motherGenes);\n\n\t\tuint256 childInitialStrength = generateChildValue(fatherInitialStrength, motherInitialStrength);\n\n\t\tuint256 shiftedValue = childInitialStrength << (26 * 8);\n\t\tuint256 result = shiftedValue | uint256(childGenes);\n\t\treturn (bytes32(result), uint16(childInitialStrength));\n\t}\n\n\tfunction getChildMaxStrength(\n\t\tbytes32 childGenes,\n\t\tbytes32 fatherGenes,\n\t\tbytes32 motherGenes\n\t) private returns (bytes32) {\n\t\tuint16 fatherMaxStrength = getMaxStrengthFromBytes(fatherGenes);\n\t\tuint16 motherMaxStrength = getMaxStrengthFromBytes(motherGenes);\n\n\t\tuint256 childMaxStrength = generateChildValue(fatherMaxStrength, motherMaxStrength);\n\n\t\tuint256 shiftedValue = childMaxStrength << (24 * 8);\n\t\tuint256 result = shiftedValue | uint256(childGenes);\n\t\treturn bytes32(result);\n\t}\n\n\tfunction getChildInitialAgility(\n\t\tbytes32 childGenes,\n\t\tbytes32 fatherGenes,\n\t\tbytes32 motherGenes\n\t) private returns (bytes32, uint16) {\n\t\tuint16 fatherInitialAgility = getInitialAgilityFromBytes(fatherGenes);\n\t\tuint16 motherInitialAgility = getInitialAgilityFromBytes(motherGenes);\n\n\t\tuint256 childInitialAgility = generateChildValue(fatherInitialAgility, motherInitialAgility);\n\n\t\tuint256 shiftedValue = childInitialAgility << (22 * 8);\n\t\tuint256 result = shiftedValue | uint256(childGenes);\n\t\treturn (bytes32(result), uint16(childInitialAgility));\n\t}\n\n\tfunction getChildMaxAgility(\n\t\tbytes32 childGenes,\n\t\tbytes32 fatherGenes,\n\t\tbytes32 motherGenes\n\t) private returns (bytes32) {\n\t\tuint16 fatherMaxAgility = getMaxAgilityFromBytes(fatherGenes);\n\t\tuint16 motherMaxAgility = getMaxAgilityFromBytes(motherGenes);\n\n\t\tuint256 childMaxAgility = generateChildValue(fatherMaxAgility, motherMaxAgility);\n\n\t\tuint256 shiftedValue = childMaxAgility << (20 * 8);\n\t\tuint256 result = shiftedValue | uint256(childGenes);\n\t\treturn bytes32(result);\n\t}\n\n\tfunction getChildInitialFortitude(\n\t\tbytes32 childGenes,\n\t\tbytes32 fatherGenes,\n\t\tbytes32 motherGenes\n\t) private returns (bytes32, uint16) {\n\t\tuint16 fatherInitialFortitude = getInitialFortitudeFromBytes(fatherGenes);\n\t\tuint16 motherInitialFortitude = getInitialFortitudeFromBytes(motherGenes);\n\n\t\tuint256 childInitialFortitude = generateChildValue(fatherInitialFortitude, motherInitialFortitude);\n\n\t\tuint256 shiftedValue = childInitialFortitude << (18 * 8);\n\t\tuint256 result = shiftedValue | uint256(childGenes);\n\t\treturn (bytes32(result), uint16(childInitialFortitude));\n\t}\n\n\tfunction getChildMaxFortitude(\n\t\tbytes32 childGenes,\n\t\tbytes32 fatherGenes,\n\t\tbytes32 motherGenes\n\t) private returns (bytes32) {\n\t\tuint16 fatherMaxFortitude = getMaxStrengthFromBytes(fatherGenes);\n\t\tuint16 motherMaxFortitude = getMaxStrengthFromBytes(motherGenes);\n\n\t\tuint256 childMaxFortitude = generateChildValue(fatherMaxFortitude, motherMaxFortitude);\n\n\t\tuint256 shiftedValue = childMaxFortitude << (16 * 8);\n\t\tuint256 result = shiftedValue | uint256(childGenes);\n\t\treturn bytes32(result);\n\t}\n\n\tfunction getChildActionCooldown(\n\t\tbytes32 childGenes,\n\t\tbytes32 fatherGenes,\n\t\tbytes32 motherGenes\n\t) private pure returns (bytes32, uint16) {\n\t\tuint16 fatherHatchTime = getHatchTimeFromBytes(fatherGenes);\n\t\tuint16 motherHatchTime = getHatchTimeFromBytes(motherGenes);\n\n\t\tuint256 maxValue;\n\t\tif (fatherHatchTime > motherHatchTime) {\n\t\t\tmaxValue = fatherHatchTime;\n\t\t} else {\n\t\t\tmaxValue = motherHatchTime;\n\t\t}\n\n\t\tuint256 value = (uint256(maxValue) * 1100) / 1000;\n\t\tif (value > 65535) {\n\t\t\tvalue = 65535;\n\t\t}\n\t\tuint256 shiftedValue = value << (14 * 8);\n\t\tuint256 result = shiftedValue | uint256(childGenes);\n\t\treturn (bytes32(result), uint16(value));\n\t}\n\n\tfunction getChildHatchTime(\n\t\tbytes32 childGenes,\n\t\tbytes32 fatherGenes,\n\t\tbytes32 motherGenes\n\t) private pure returns (bytes32, uint16) {\n\t\tuint16 fatherHatchTime = getHatchTimeFromBytes(fatherGenes);\n\t\tuint16 motherHatchTime = getHatchTimeFromBytes(motherGenes);\n\n\t\tuint256 maxValue;\n\t\tif (fatherHatchTime > motherHatchTime) {\n\t\t\tmaxValue = fatherHatchTime;\n\t\t} else {\n\t\t\tmaxValue = motherHatchTime;\n\t\t}\n\n\t\tuint256 value = (uint256(maxValue) * 1100) / 1000;\n\t\tif (value > 65535) {\n\t\t\tvalue = 65535;\n\t\t}\n\t\tuint256 shiftedValue = value << (12 * 8);\n\t\tuint256 result = shiftedValue | uint256(childGenes);\n\t\treturn (bytes32(result), uint16(value));\n\t}\n\n\tfunction getChildBodyType(\n\t\tbytes32 childGenes,\n\t\tbytes32 fatherGenes,\n\t\tbytes32 motherGenes\n\t) private returns (bytes32) {\n\t\tuint16 fatherHead = getBodyTypeFromBytes(fatherGenes);\n\t\tuint16 motherHead = getBodyTypeFromBytes(motherGenes);\n\n\t\tuint256 childHead = generateChildVisualAttributeValue(fatherHead, motherHead);\n\n\t\tuint256 shiftedValue = childHead << (11 * 8);\n\t\tuint256 result = shiftedValue | uint256(childGenes);\n\t\treturn bytes32(result);\n\t}\n\n\tfunction getChildBodyColor(\n\t\tbytes32 childGenes,\n\t\tbytes32 fatherGenes,\n\t\tbytes32 motherGenes\n\t) private returns (bytes32) {\n\t\tuint16 fatherBody = getBodyColorFromBytes(fatherGenes);\n\t\tuint16 motherBody = getBodyColorFromBytes(motherGenes);\n\n\t\tuint256 childBody = generateChildVisualAttributeValue(fatherBody, motherBody);\n\n\t\tuint256 shiftedValue = childBody << (10 * 8);\n\t\tuint256 result = shiftedValue | uint256(childGenes);\n\t\treturn bytes32(result);\n\t}\n\n\tfunction getChildBodyPatternType(\n\t\tbytes32 childGenes,\n\t\tbytes32 fatherGenes,\n\t\tbytes32 motherGenes\n\t) private returns (bytes32) {\n\t\tuint16 fatherHead = getBodyPatternTypeFromBytes(fatherGenes);\n\t\tuint16 motherHead = getBodyPatternTypeFromBytes(motherGenes);\n\n\t\tuint256 childHead = generateChildVisualAttributeValue(fatherHead, motherHead);\n\n\t\tuint256 shiftedValue = childHead << (9 * 8);\n\t\tuint256 result = shiftedValue | uint256(childGenes);\n\t\treturn bytes32(result);\n\t}\n\n\tfunction getChildBodyPatternColor(\n\t\tbytes32 childGenes,\n\t\tbytes32 fatherGenes,\n\t\tbytes32 motherGenes\n\t) private returns (bytes32) {\n\t\tuint16 fatherBody = getBodyPatternColorFromBytes(fatherGenes);\n\t\tuint16 motherBody = getBodyPatternColorFromBytes(motherGenes);\n\n\t\tuint256 childBody = generateChildVisualAttributeValue(fatherBody, motherBody);\n\n\t\tuint256 shiftedValue = childBody << (8 * 8);\n\t\tuint256 result = shiftedValue | uint256(childGenes);\n\t\treturn bytes32(result);\n\t}\n\n\tfunction getChildWingsType(\n\t\tbytes32 childGenes,\n\t\tbytes32 fatherGenes,\n\t\tbytes32 motherGenes\n\t) private returns (bytes32) {\n\t\tuint16 fatherHead = getWingsTypeFromBytes(fatherGenes);\n\t\tuint16 motherHead = getWingsTypeFromBytes(motherGenes);\n\n\t\tuint256 childHead = generateChildVisualAttributeValue(fatherHead, motherHead);\n\n\t\tuint256 shiftedValue = childHead << (7 * 8);\n\t\tuint256 result = shiftedValue | uint256(childGenes);\n\t\treturn bytes32(result);\n\t}\n\n\tfunction getChildWingsColor(\n\t\tbytes32 childGenes,\n\t\tbytes32 fatherGenes,\n\t\tbytes32 motherGenes\n\t) private returns (bytes32) {\n\t\tuint16 fatherBody = getWingsColorFromBytes(fatherGenes);\n\t\tuint16 motherBody = getWingsColorFromBytes(motherGenes);\n\n\t\tuint256 childBody = generateChildVisualAttributeValue(fatherBody, motherBody);\n\n\t\tuint256 shiftedValue = childBody << (6 * 8);\n\t\tuint256 result = shiftedValue | uint256(childGenes);\n\t\treturn bytes32(result);\n\t}\n\n\tfunction getChildHornsType(\n\t\tbytes32 childGenes,\n\t\tbytes32 fatherGenes,\n\t\tbytes32 motherGenes\n\t) private returns (bytes32) {\n\t\tuint16 fatherHead = getHornsTypeFromBytes(fatherGenes);\n\t\tuint16 motherHead = getHornsTypeFromBytes(motherGenes);\n\n\t\tuint256 childHead = generateChildVisualAttributeValue(fatherHead, motherHead);\n\n\t\tuint256 shiftedValue = childHead << (5 * 8);\n\t\tuint256 result = shiftedValue | uint256(childGenes);\n\t\treturn bytes32(result);\n\t}\n\n\tfunction getChildHornsColor(\n\t\tbytes32 childGenes,\n\t\tbytes32 fatherGenes,\n\t\tbytes32 motherGenes\n\t) private returns (bytes32) {\n\t\tuint16 fatherBody = getHornsColorFromBytes(fatherGenes);\n\t\tuint16 motherBody = getHornsColorFromBytes(motherGenes);\n\n\t\tuint256 childBody = generateChildVisualAttributeValue(fatherBody, motherBody);\n\n\t\tuint256 shiftedValue = childBody << (4 * 8);\n\t\tuint256 result = shiftedValue | uint256(childGenes);\n\t\treturn bytes32(result);\n\t}\n\n\tfunction getChildEyesType(\n\t\tbytes32 childGenes,\n\t\tbytes32 fatherGenes,\n\t\tbytes32 motherGenes\n\t) private returns (bytes32) {\n\t\tuint16 fatherHead = getEyesTypeFromBytes(fatherGenes);\n\t\tuint16 motherHead = getEyesTypeFromBytes(motherGenes);\n\n\t\tuint256 childHead = generateChildVisualAttributeValue(fatherHead, motherHead);\n\n\t\tuint256 shiftedValue = childHead << (3 * 8);\n\t\tuint256 result = shiftedValue | uint256(childGenes);\n\t\treturn bytes32(result);\n\t}\n\n\tfunction getChildEyesColor(\n\t\tbytes32 childGenes,\n\t\tbytes32 fatherGenes,\n\t\tbytes32 motherGenes\n\t) private returns (bytes32) {\n\t\tuint16 fatherBody = getEyesColorFromBytes(fatherGenes);\n\t\tuint16 motherBody = getEyesColorFromBytes(motherGenes);\n\n\t\tuint256 childBody = generateChildVisualAttributeValue(fatherBody, motherBody);\n\n\t\tuint256 shiftedValue = childBody << (2 * 8);\n\t\tuint256 result = shiftedValue | uint256(childGenes);\n\t\treturn bytes32(result);\n\t}\n\n\tfunction getChildTailType(\n\t\tbytes32 childGenes,\n\t\tbytes32 fatherGenes,\n\t\tbytes32 motherGenes\n\t) private returns (bytes32) {\n\t\tuint16 fatherHead = getTailTypeFromBytes(fatherGenes);\n\t\tuint16 motherHead = getTailTypeFromBytes(motherGenes);\n\n\t\tuint256 childHead = generateChildVisualAttributeValue(fatherHead, motherHead);\n\n\t\tuint256 shiftedValue = childHead << (1 * 8);\n\t\tuint256 result = shiftedValue | uint256(childGenes);\n\t\treturn bytes32(result);\n\t}\n\n\tfunction getChildTailColor(\n\t\tbytes32 childGenes,\n\t\tbytes32 fatherGenes,\n\t\tbytes32 motherGenes\n\t) private returns (bytes32) {\n\t\tuint16 fatherBody = getTailColorFromBytes(fatherGenes);\n\t\tuint16 motherBody = getTailColorFromBytes(motherGenes);\n\n\t\tuint256 childBody = generateChildVisualAttributeValue(fatherBody, motherBody);\n\n\t\tuint256 result = childBody | uint256(childGenes);\n\t\treturn bytes32(result);\n\t}\n\n\tfunction generateChildValue(uint16 fatherValue, uint16 motherValue) private returns (uint16 value) {\n\t\tuint256 fatherFixedValue = uint256(fatherValue) * 10000;\n\t\tuint256 motherFixedValue = uint256(motherValue) * 10000;\n\n\t\tuint256 minimumValue;\n\t\tuint256 maximumValue;\n\t\tif (fatherFixedValue < motherFixedValue) {\n\t\t\tminimumValue = fatherFixedValue;\n\t\t\tmaximumValue = motherFixedValue;\n\t\t} else {\n\t\t\tminimumValue = motherFixedValue;\n\t\t\tmaximumValue = fatherFixedValue;\n\t\t}\n\n\t\t// Increase variance by 7500 to allow stats jump on lower values\n\t\tminimumValue = ((minimumValue * 95) / 100) - 7500;\n\t\tif (minimumValue < 10000) {\n\t\t\tminimumValue = 10000;\n\t\t}\n\t\tmaximumValue = ((maximumValue * 105) / 100) + 7500;\n\n\t\t// adds 5000 to round positive integer value and clamp value to prevent int overflow\n\t\tuint256 randomValue = (random(minimumValue, maximumValue) + 5000) / 10000;\n\t\tif (randomValue > 65535) {\n\t\t\trandomValue = 65535;\n\t\t}\n\t\treturn uint16(randomValue);\n\t}\n\n\tfunction generateChildVisualAttributeValue(uint16 fatherValue, uint16 motherValue) private returns (uint16 value) {\n\t\tuint256 roll = random(0, 10000);\n\t\tif (roll < 4000) {\n\t\t\tvalue = fatherValue;\n\t\t} else if (roll < 7500) {\n\t\t\tvalue = motherValue;\n\t\t} else {\n\t\t\tvalue = uint16(random(1, 255));\n\t\t}\n\t}\n\n\t/**************************** Getters *********************************************** */\n\n\tfunction getInitialHealthFromBytes(bytes32 genes) public pure returns (uint16) {\n\t\treturn uint16(uint256(genes) >> (30 * 8));\n\t}\n\n\tfunction getMaxHealthFromBytes(bytes32 genes) public pure returns (uint16) {\n\t\treturn uint16(uint256(genes) >> (28 * 8));\n\t}\n\n\tfunction getInitialStrengthFromBytes(bytes32 genes) public pure returns (uint16) {\n\t\treturn uint16(uint256(genes) >> (26 * 8));\n\t}\n\n\tfunction getMaxStrengthFromBytes(bytes32 genes) public pure returns (uint16) {\n\t\treturn uint16(uint256(genes) >> (24 * 8));\n\t}\n\n\tfunction getInitialAgilityFromBytes(bytes32 genes) public pure returns (uint16) {\n\t\treturn uint16(uint256(genes) >> (22 * 8));\n\t}\n\n\tfunction getMaxAgilityFromBytes(bytes32 genes) public pure returns (uint16) {\n\t\treturn uint16(uint256(genes) >> (20 * 8));\n\t}\n\n\tfunction getInitialFortitudeFromBytes(bytes32 genes) public pure returns (uint16) {\n\t\treturn uint16(uint256(genes) >> (18 * 8));\n\t}\n\n\tfunction getMaxFortitudeFromBytes(bytes32 genes) public pure returns (uint16) {\n\t\treturn uint16(uint256(genes) >> (16 * 8));\n\t}\n\n\tfunction getActionCooldownFromBytes(bytes32 genes) public pure returns (uint16) {\n\t\treturn uint16(uint256(genes) >> (14 * 8));\n\t}\n\n\tfunction getHatchTimeFromBytes(bytes32 genes) public pure returns (uint16) {\n\t\treturn uint16(uint256(genes) >> (12 * 8));\n\t}\n\n\t/*********************** Visual Attributes *************************************** */\n\tfunction getBodyTypeFromBytes(bytes32 genes) public pure returns (uint8) {\n\t\treturn uint8(uint256(genes) >> (11 * 8));\n\t}\n\n\tfunction getBodyColorFromBytes(bytes32 genes) public pure returns (uint8) {\n\t\treturn uint8(uint256(genes) >> (10 * 8));\n\t}\n\n\tfunction getBodyPatternTypeFromBytes(bytes32 genes) public pure returns (uint8) {\n\t\treturn uint8(uint256(genes) >> (9 * 8));\n\t}\n\n\tfunction getBodyPatternColorFromBytes(bytes32 genes) public pure returns (uint8) {\n\t\treturn uint8(uint256(genes) >> (8 * 8));\n\t}\n\n\tfunction getWingsTypeFromBytes(bytes32 genes) public pure returns (uint8) {\n\t\treturn uint8(uint256(genes) >> (7 * 8));\n\t}\n\n\tfunction getWingsColorFromBytes(bytes32 genes) public pure returns (uint8) {\n\t\treturn uint8(uint256(genes) >> (6 * 8));\n\t}\n\n\tfunction getHornsTypeFromBytes(bytes32 genes) public pure returns (uint8) {\n\t\treturn uint8(uint256(genes) >> (5 * 8));\n\t}\n\n\tfunction getHornsColorFromBytes(bytes32 genes) public pure returns (uint8) {\n\t\treturn uint8(uint256(genes) >> (4 * 8));\n\t}\n\n\tfunction getEyesTypeFromBytes(bytes32 genes) public pure returns (uint8) {\n\t\treturn uint8(uint256(genes) >> (3 * 8));\n\t}\n\n\tfunction getEyesColorFromBytes(bytes32 genes) public pure returns (uint8) {\n\t\treturn uint8(uint256(genes) >> (2 * 8));\n\t}\n\n\tfunction getTailTypeFromBytes(bytes32 genes) public pure returns (uint8) {\n\t\treturn uint8(uint256(genes) >> (1 * 8));\n\t}\n\n\tfunction getTailColorFromBytes(bytes32 genes) public pure returns (uint8) {\n\t\treturn uint8(uint256(genes));\n\t}\n\n\n\t/********************* Utils *************************************** */\n\n\t// This is vulnerable, but I don't think it is worth protecting for this use case.\n\t// A safer, more complex and expensive solution is using an oracle like Provable\n\tfunction random(uint256 start, uint256 end) private returns (uint256) {\n\t\tuint256 n = end - start + 1;\n\t\tuint256 randomnumber = uint256(keccak256(abi.encodePacked(block.timestamp, msg.sender, _randomNonce))) % n;\n\t\trandomnumber = randomnumber + start;\n\t\t_randomNonce++;\n\t\treturn randomnumber;\n\t}\n}\n",
  "sourcePath": "/usr/src/app/contractGetter/contracts/genes/GenesLaboratory.sol",
  "compiler": {
    "name": "solc",
    "version": "0.8.4+commit.c7e474f2.Emscripten.clang"
  },
  "schemaVersion": "3.4.1",
  "updatedAt": "2023-02-02T14:39:08.202Z",
  "networkType": "ethereum",
  "devdoc": {
    "kind": "dev",
    "methods": {},
    "version": 1
  },
  "userdoc": {
    "kind": "user",
    "methods": {},
    "version": 1
  }
}