{
  "contractName": "MainnetDragonApi",
  "abi": [
    {
      "inputs": [
        {
          "internalType": "address",
          "name": "dragonAddress",
          "type": "address"
        },
        {
          "internalType": "address",
          "name": "genesLaboratory",
          "type": "address"
        },
        {
          "internalType": "address",
          "name": "marketplaceAddress",
          "type": "address"
        }
      ],
      "stateMutability": "nonpayable",
      "type": "constructor"
    },
    {
      "inputs": [
        {
          "internalType": "uint256",
          "name": "dragonId",
          "type": "uint256"
        }
      ],
      "name": "getDragonById",
      "outputs": [
        {
          "components": [
            {
              "internalType": "bytes32",
              "name": "genes",
              "type": "bytes32"
            },
            {
              "internalType": "bytes32",
              "name": "name",
              "type": "bytes32"
            },
            {
              "internalType": "uint64",
              "name": "creationTime",
              "type": "uint64"
            },
            {
              "internalType": "uint32",
              "name": "dadId",
              "type": "uint32"
            },
            {
              "internalType": "uint32",
              "name": "motherId",
              "type": "uint32"
            },
            {
              "internalType": "uint32",
              "name": "currentExperience",
              "type": "uint32"
            },
            {
              "internalType": "uint16",
              "name": "actionCooldown",
              "type": "uint16"
            },
            {
              "internalType": "uint16",
              "name": "health",
              "type": "uint16"
            },
            {
              "internalType": "uint16",
              "name": "strength",
              "type": "uint16"
            },
            {
              "internalType": "uint16",
              "name": "agility",
              "type": "uint16"
            },
            {
              "internalType": "uint16",
              "name": "fortitude",
              "type": "uint16"
            },
            {
              "internalType": "uint16",
              "name": "hatchTime",
              "type": "uint16"
            },
            {
              "internalType": "uint8",
              "name": "blockchainOriginId",
              "type": "uint8"
            }
          ],
          "internalType": "struct DragonLibrary.Dragon",
          "name": "",
          "type": "tuple"
        }
      ],
      "stateMutability": "view",
      "type": "function"
    },
    {
      "inputs": [
        {
          "internalType": "uint256",
          "name": "pageNumber",
          "type": "uint256"
        },
        {
          "internalType": "uint256",
          "name": "pageSize",
          "type": "uint256"
        }
      ],
      "name": "getDragonsByPage",
      "outputs": [
        {
          "internalType": "uint256",
          "name": "totalPages",
          "type": "uint256"
        },
        {
          "components": [
            {
              "internalType": "uint256",
              "name": "dragonId",
              "type": "uint256"
            },
            {
              "internalType": "address",
              "name": "owner",
              "type": "address"
            },
            {
              "internalType": "bool",
              "name": "onSale",
              "type": "bool"
            }
          ],
          "internalType": "struct DragonLibrary.DragonFetchPageData[]",
          "name": "dragonPagesData",
          "type": "tuple[]"
        }
      ],
      "stateMutability": "view",
      "type": "function"
    },
    {
      "inputs": [
        {
          "internalType": "address",
          "name": "owner",
          "type": "address"
        }
      ],
      "name": "getDragonsCountByOwner",
      "outputs": [
        {
          "internalType": "uint256",
          "name": "",
          "type": "uint256"
        }
      ],
      "stateMutability": "view",
      "type": "function"
    },
    {
      "inputs": [
        {
          "internalType": "address",
          "name": "owner",
          "type": "address"
        }
      ],
      "name": "getDragonsIdsByOwner",
      "outputs": [
        {
          "internalType": "uint256[]",
          "name": "",
          "type": "uint256[]"
        }
      ],
      "stateMutability": "view",
      "type": "function"
    },
    {
      "inputs": [
        {
          "internalType": "uint256",
          "name": "dragonId",
          "type": "uint256"
        }
      ],
      "name": "getVisualAttributes",
      "outputs": [
        {
          "components": [
            {
              "internalType": "uint8",
              "name": "bodyType",
              "type": "uint8"
            },
            {
              "internalType": "uint8",
              "name": "bodyColor",
              "type": "uint8"
            },
            {
              "internalType": "uint8",
              "name": "bodyPatternType",
              "type": "uint8"
            },
            {
              "internalType": "uint8",
              "name": "bodyPatternColor",
              "type": "uint8"
            },
            {
              "internalType": "uint8",
              "name": "wingsType",
              "type": "uint8"
            },
            {
              "internalType": "uint8",
              "name": "wingsColor",
              "type": "uint8"
            },
            {
              "internalType": "uint8",
              "name": "hornsType",
              "type": "uint8"
            },
            {
              "internalType": "uint8",
              "name": "hornsColor",
              "type": "uint8"
            },
            {
              "internalType": "uint8",
              "name": "eyesType",
              "type": "uint8"
            },
            {
              "internalType": "uint8",
              "name": "eyesColor",
              "type": "uint8"
            },
            {
              "internalType": "uint8",
              "name": "tailType",
              "type": "uint8"
            },
            {
              "internalType": "uint8",
              "name": "tailColor",
              "type": "uint8"
            }
          ],
          "internalType": "struct DragonLibrary.DragonVisualAttributes",
          "name": "",
          "type": "tuple"
        }
      ],
      "stateMutability": "view",
      "type": "function"
    },
    {
      "inputs": [
        {
          "internalType": "uint256",
          "name": "dragonId",
          "type": "uint256"
        }
      ],
      "name": "isEgg",
      "outputs": [
        {
          "internalType": "bool",
          "name": "",
          "type": "bool"
        }
      ],
      "stateMutability": "view",
      "type": "function"
    }
  ],
  "bytecode": "0x60806040523480156200001157600080fd5b5060405162001fb238038062001fb2833981810160405281019062000037919062000276565b8282600073ffffffffffffffffffffffffffffffffffffffff168273ffffffffffffffffffffffffffffffffffffffff161415620000ac576040517f08c379a0000000000000000000000000000000000000000000000000000000008152600401620000a39062000341565b60405180910390fd5b600073ffffffffffffffffffffffffffffffffffffffff168173ffffffffffffffffffffffffffffffffffffffff1614156200011f576040517f08c379a0000000000000000000000000000000000000000000000000000000008152600401620001169062000363565b60405180910390fd5b816000806101000a81548173ffffffffffffffffffffffffffffffffffffffff021916908373ffffffffffffffffffffffffffffffffffffffff16021790555080600160006101000a81548173ffffffffffffffffffffffffffffffffffffffff021916908373ffffffffffffffffffffffffffffffffffffffff1602179055505050600073ffffffffffffffffffffffffffffffffffffffff168273ffffffffffffffffffffffffffffffffffffffff16141562000215576040517f08c379a00000000000000000000000000000000000000000000000000000000081526004016200020c9062000385565b60405180910390fd5b80600260006101000a81548173ffffffffffffffffffffffffffffffffffffffff021916908373ffffffffffffffffffffffffffffffffffffffff16021790555050505062000481565b600081519050620002708162000467565b92915050565b6000806000606084860312156200028c57600080fd5b60006200029c868287016200025f565b9350506020620002af868287016200025f565b9250506040620002c2868287016200025f565b9150509250925092565b6000620002db601683620003a7565b9150620002e882620003ec565b602082019050919050565b600062000302602083620003a7565b91506200030f8262000415565b602082019050919050565b600062000329601b83620003a7565b915062000336826200043e565b602082019050919050565b600060208201905081810360008301526200035c81620002cc565b9050919050565b600060208201905081810360008301526200037e81620002f3565b9050919050565b60006020820190508181036000830152620003a0816200031a565b9050919050565b600082825260208201905092915050565b6000620003c582620003cc565b9050919050565b600073ffffffffffffffffffffffffffffffffffffffff82169050919050565b7f496e76616c696420647261676f6e206164647265737300000000000000000000600082015250565b7f496e76616c69642067656e6573206c61626f7261746f72792061646472657373600082015250565b7f496e76616c6964206d61726b6574706c61636520616464726573730000000000600082015250565b6200047281620003b8565b81146200047e57600080fd5b50565b611b2180620004916000396000f3fe608060405234801561001057600080fd5b50600436106100625760003560e01c80630469e8ac146100675780632014a8be146100975780637534de9f146100c7578063c9cf5570146100f8578063d9b6e2f714610128578063dfd4e4a414610158575b600080fd5b610081600480360381019061007c9190610fd6565b610188565b60405161008e9190611577565b60405180910390f35b6100b160048036038101906100ac919061107c565b6103aa565b6040516100be919061160f565b60405180910390f35b6100e160048036038101906100dc91906110ce565b610519565b6040516100ef929190611662565b60405180910390f35b610112600480360381019061010d919061107c565b6108b0565b60405161011f919061162b565b60405180910390f35b610142600480360381019061013d9190610fd6565b610969565b60405161014f9190611647565b60405180910390f35b610172600480360381019061016d919061107c565b610a1c565b60405161017f9190611599565b60405180910390f35b606060008060009054906101000a900473ffffffffffffffffffffffffffffffffffffffff16905060008173ffffffffffffffffffffffffffffffffffffffff166370a08231856040518263ffffffff1660e01b81526004016101eb9190611533565b60206040518083038186803b15801561020357600080fd5b505afa158015610217573d6000803e3d6000fd5b505050506040513d601f19601f8201168201806040525081019061023b91906110a5565b905060008167ffffffffffffffff81111561027f577f4e487b7100000000000000000000000000000000000000000000000000000000600052604160045260246000fd5b6040519080825280602002602001820160405280156102ad5781602001602082028036833780820191505090505b50905060005b8281101561039e578373ffffffffffffffffffffffffffffffffffffffff16632f745c5987836040518363ffffffff1660e01b81526004016102f692919061154e565b60206040518083038186803b15801561030e57600080fd5b505afa158015610322573d6000803e3d6000fd5b505050506040513d601f19601f8201168201806040525081019061034691906110a5565b82828151811061037f577f4e487b7100000000000000000000000000000000000000000000000000000000600052603260045260246000fd5b602002602001018181525050808061039690611911565b9150506102b3565b50809350505050919050565b6103b2610b64565b60008060009054906101000a900473ffffffffffffffffffffffffffffffffffffffff1673ffffffffffffffffffffffffffffffffffffffff1663c9cf5570846040518263ffffffff1660e01b815260040161040e9190611647565b6101a06040518083038186803b15801561042757600080fd5b505afa15801561043b573d6000803e3d6000fd5b505050506040513d601f19601f8201168201806040525081019061045f9190611052565b9050600160009054906101000a900473ffffffffffffffffffffffffffffffffffffffff1673ffffffffffffffffffffffffffffffffffffffff166391926cff82600001516040518263ffffffff1660e01b81526004016104c091906115b4565b6101806040518083038186803b1580156104d957600080fd5b505afa1580156104ed573d6000803e3d6000fd5b505050506040513d601f19601f820116820180604052508101906105119190611028565b915050919050565b6000606060008311610560576040517f08c379a0000000000000000000000000000000000000000000000000000000008152600401610557906115ef565b60405180910390fd5b600083600186610570919061181b565b61057a91906117c1565b905060008060009054906101000a900473ffffffffffffffffffffffffffffffffffffffff1673ffffffffffffffffffffffffffffffffffffffff166318160ddd6040518163ffffffff1660e01b815260040160206040518083038186803b1580156105e557600080fd5b505afa1580156105f9573d6000803e3d6000fd5b505050506040513d601f19601f8201168201806040525081019061061d91906110a5565b905080821115610662576040517f08c379a0000000000000000000000000000000000000000000000000000000008152600401610659906115cf565b60405180910390fd5b60008590508282610673919061181b565b811115610689578282610686919061181b565b90505b8067ffffffffffffffff8111156106c9577f4e487b7100000000000000000000000000000000000000000000000000000000600052604160045260246000fd5b60405190808252806020026020018201604052801561070257816020015b6106ef610be9565b8152602001906001900390816106e75790505b50935060005b81811015610862576000818561071e919061173a565b905060008060009054906101000a900473ffffffffffffffffffffffffffffffffffffffff1673ffffffffffffffffffffffffffffffffffffffff16636352211e836040518263ffffffff1660e01b815260040161077c9190611647565b60206040518083038186803b15801561079457600080fd5b505afa1580156107a8573d6000803e3d6000fd5b505050506040513d601f19601f820116820180604052508101906107cc9190610fff565b905060405180606001604052808381526020018273ffffffffffffffffffffffffffffffffffffffff16815260200161080483610b0a565b1515815250878481518110610842577f4e487b7100000000000000000000000000000000000000000000000000000000600052603260045260246000fd5b60200260200101819052505050808061085a90611911565b915050610708565b50600086836108719190611790565b90506000878261088191906117c1565b8461088c919061181b565b11156108a25760018161089f919061173a565b90505b809550505050509250929050565b6108b8610c22565b60008054906101000a900473ffffffffffffffffffffffffffffffffffffffff1673ffffffffffffffffffffffffffffffffffffffff1663c9cf5570836040518263ffffffff1660e01b81526004016109119190611647565b6101a06040518083038186803b15801561092a57600080fd5b505afa15801561093e573d6000803e3d6000fd5b505050506040513d601f19601f820116820180604052508101906109629190611052565b9050919050565b60008060009054906101000a900473ffffffffffffffffffffffffffffffffffffffff1673ffffffffffffffffffffffffffffffffffffffff166370a08231836040518263ffffffff1660e01b81526004016109c59190611533565b60206040518083038186803b1580156109dd57600080fd5b505afa1580156109f1573d6000803e3d6000fd5b505050506040513d601f19601f82011682018060405250810190610a1591906110a5565b9050919050565b60008060008054906101000a900473ffffffffffffffffffffffffffffffffffffffff1673ffffffffffffffffffffffffffffffffffffffff1663c9cf5570846040518263ffffffff1660e01b8152600401610a789190611647565b6101a06040518083038186803b158015610a9157600080fd5b505afa158015610aa5573d6000803e3d6000fd5b505050506040513d601f19601f82011682018060405250810190610ac99190611052565b90506000603c826040015167ffffffffffffffff1642610ae9919061181b565b610af391906117c1565b905081610160015161ffff16811092505050919050565b6000600260009054906101000a900473ffffffffffffffffffffffffffffffffffffffff1673ffffffffffffffffffffffffffffffffffffffff168273ffffffffffffffffffffffffffffffffffffffff16149050919050565b604051806101800160405280600060ff168152602001600060ff168152602001600060ff168152602001600060ff168152602001600060ff168152602001600060ff168152602001600060ff168152602001600060ff168152602001600060ff168152602001600060ff168152602001600060ff168152602001600060ff1681525090565b604051806060016040528060008152602001600073ffffffffffffffffffffffffffffffffffffffff1681526020016000151581525090565b604051806101a001604052806000801916815260200160008019168152602001600067ffffffffffffffff168152602001600063ffffffff168152602001600063ffffffff168152602001600063ffffffff168152602001600061ffff168152602001600061ffff168152602001600061ffff168152602001600061ffff168152602001600061ffff168152602001600061ffff168152602001600060ff1681525090565b600081359050610cd681611a4a565b92915050565b600081519050610ceb81611a4a565b92915050565b600081519050610d0081611a61565b92915050565b60006101808284031215610d1957600080fd5b610d24610180611692565b90506000610d3484828501610fc1565b6000830152506020610d4884828501610fc1565b6020830152506040610d5c84828501610fc1565b6040830152506060610d7084828501610fc1565b6060830152506080610d8484828501610fc1565b60808301525060a0610d9884828501610fc1565b60a08301525060c0610dac84828501610fc1565b60c08301525060e0610dc084828501610fc1565b60e083015250610100610dd584828501610fc1565b61010083015250610120610deb84828501610fc1565b61012083015250610140610e0184828501610fc1565b61014083015250610160610e1784828501610fc1565b6101608301525092915050565b60006101a08284031215610e3757600080fd5b610e426101a0611692565b90506000610e5284828501610cf1565b6000830152506020610e6684828501610cf1565b6020830152506040610e7a84828501610fac565b6040830152506060610e8e84828501610f97565b6060830152506080610ea284828501610f97565b60808301525060a0610eb684828501610f97565b60a08301525060c0610eca84828501610f58565b60c08301525060e0610ede84828501610f58565b60e083015250610100610ef384828501610f58565b61010083015250610120610f0984828501610f58565b61012083015250610140610f1f84828501610f58565b61014083015250610160610f3584828501610f58565b61016083015250610180610f4b84828501610fc1565b6101808301525092915050565b600081519050610f6781611a78565b92915050565b600081359050610f7c81611a8f565b92915050565b600081519050610f9181611a8f565b92915050565b600081519050610fa681611aa6565b92915050565b600081519050610fbb81611abd565b92915050565b600081519050610fd081611ad4565b92915050565b600060208284031215610fe857600080fd5b6000610ff684828501610cc7565b91505092915050565b60006020828403121561101157600080fd5b600061101f84828501610cdc565b91505092915050565b6000610180828403121561103b57600080fd5b600061104984828501610d06565b91505092915050565b60006101a0828403121561106557600080fd5b600061107384828501610e24565b91505092915050565b60006020828403121561108e57600080fd5b600061109c84828501610f6d565b91505092915050565b6000602082840312156110b757600080fd5b60006110c584828501610f82565b91505092915050565b600080604083850312156110e157600080fd5b60006110ef85828601610f6d565b925050602061110085828601610f6d565b9150509250929050565b60006111168383611296565b60608301905092915050565b600061112e83836114e8565b60208301905092915050565b6111438161184f565b82525050565b6111528161184f565b82525050565b6000611163826116d7565b61116d8185611707565b9350611178836116b7565b8060005b838110156111a9578151611190888261110a565b975061119b836116ed565b92505060018101905061117c565b5085935050505092915050565b60006111c1826116e2565b6111cb8185611718565b93506111d6836116c7565b8060005b838110156112075781516111ee8882611122565b97506111f9836116fa565b9250506001810190506111da565b5085935050505092915050565b61121d81611861565b82525050565b61122c81611861565b82525050565b61123b8161186d565b82525050565b61124a8161186d565b82525050565b600061125d601183611729565b9150611268826119f8565b602082019050919050565b6000611280601783611729565b915061128b82611a21565b602082019050919050565b6060820160008201516112ac60008501826114e8565b5060208201516112bf602085018261113a565b5060408201516112d26040850182611214565b50505050565b610180820160008201516112ef6000850182611524565b5060208201516113026020850182611524565b5060408201516113156040850182611524565b5060608201516113286060850182611524565b50608082015161133b6080850182611524565b5060a082015161134e60a0850182611524565b5060c082015161136160c0850182611524565b5060e082015161137460e0850182611524565b50610100820151611389610100850182611524565b5061012082015161139e610120850182611524565b506101408201516113b3610140850182611524565b506101608201516113c8610160850182611524565b50505050565b6101a0820160008201516113e56000850182611232565b5060208201516113f86020850182611232565b50604082015161140b6040850182611515565b50606082015161141e6060850182611506565b5060808201516114316080850182611506565b5060a082015161144460a0850182611506565b5060c082015161145760c08501826114d9565b5060e082015161146a60e08501826114d9565b5061010082015161147f6101008501826114d9565b506101208201516114946101208501826114d9565b506101408201516114a96101408501826114d9565b506101608201516114be6101608501826114d9565b506101808201516114d3610180850182611524565b50505050565b6114e281611877565b82525050565b6114f1816118a5565b82525050565b611500816118a5565b82525050565b61150f816118af565b82525050565b61151e816118bf565b82525050565b61152d816118d3565b82525050565b60006020820190506115486000830184611149565b92915050565b60006040820190506115636000830185611149565b61157060208301846114f7565b9392505050565b6000602082019050818103600083015261159181846111b6565b905092915050565b60006020820190506115ae6000830184611223565b92915050565b60006020820190506115c96000830184611241565b92915050565b600060208201905081810360008301526115e881611250565b9050919050565b6000602082019050818103600083015261160881611273565b9050919050565b60006101808201905061162560008301846112d8565b92915050565b60006101a08201905061164160008301846113ce565b92915050565b600060208201905061165c60008301846114f7565b92915050565b600060408201905061167760008301856114f7565b81810360208301526116898184611158565b90509392505050565b600061169c6116ad565b90506116a882826118e0565b919050565b6000604051905090565b6000819050602082019050919050565b6000819050602082019050919050565b600081519050919050565b600081519050919050565b6000602082019050919050565b6000602082019050919050565b600082825260208201905092915050565b600082825260208201905092915050565b600082825260208201905092915050565b6000611745826118a5565b9150611750836118a5565b9250827fffffffffffffffffffffffffffffffffffffffffffffffffffffffffffffffff038211156117855761178461195a565b5b828201905092915050565b600061179b826118a5565b91506117a6836118a5565b9250826117b6576117b5611989565b5b828204905092915050565b60006117cc826118a5565b91506117d7836118a5565b9250817fffffffffffffffffffffffffffffffffffffffffffffffffffffffffffffffff04831182151516156118105761180f61195a565b5b828202905092915050565b6000611826826118a5565b9150611831836118a5565b9250828210156118445761184361195a565b5b828203905092915050565b600061185a82611885565b9050919050565b60008115159050919050565b6000819050919050565b600061ffff82169050919050565b600073ffffffffffffffffffffffffffffffffffffffff82169050919050565b6000819050919050565b600063ffffffff82169050919050565b600067ffffffffffffffff82169050919050565b600060ff82169050919050565b6118e9826119e7565b810181811067ffffffffffffffff82111715611908576119076119b8565b5b80604052505050565b600061191c826118a5565b91507fffffffffffffffffffffffffffffffffffffffffffffffffffffffffffffffff82141561194f5761194e61195a565b5b600182019050919050565b7f4e487b7100000000000000000000000000000000000000000000000000000000600052601160045260246000fd5b7f4e487b7100000000000000000000000000000000000000000000000000000000600052601260045260246000fd5b7f4e487b7100000000000000000000000000000000000000000000000000000000600052604160045260246000fd5b6000601f19601f8301169050919050565b7f4f7574206f662072616e67652070616765000000000000000000000000000000600082015250565b7f7061676553697a652063616e6e6f74206265207a65726f000000000000000000600082015250565b611a538161184f565b8114611a5e57600080fd5b50565b611a6a8161186d565b8114611a7557600080fd5b50565b611a8181611877565b8114611a8c57600080fd5b50565b611a98816118a5565b8114611aa357600080fd5b50565b611aaf816118af565b8114611aba57600080fd5b50565b611ac6816118bf565b8114611ad157600080fd5b50565b611add816118d3565b8114611ae857600080fd5b5056fea264697066735822122033bbaabefda509a180df1d7c2fc1262c68ee52b1da6ee5681d236f44ce99cc1964736f6c63430008040033",
  "immutableReferences": {},
  "source": "// SPDX-License-Identifier: GPL-3.0 License\n\npragma solidity ^0.8.0;\n\nimport './DragonApi.sol';\n\ncontract MainnetDragonApi is DragonApi {\n\n    address private _marketplaceAddress;\n\n    constructor(address dragonAddress, address genesLaboratory, address marketplaceAddress) DragonApi(dragonAddress, genesLaboratory)  {\n        require(genesLaboratory != address(0), 'Invalid marketplace address');\n\t\t_marketplaceAddress = marketplaceAddress;\n\t}\n\n    function isDragonOnSale(address dragonOwner) internal virtual override view returns (bool) {\n\t\treturn dragonOwner == _marketplaceAddress;\n\t}\n}",
  "sourcePath": "/usr/src/app/contractGetter/contracts/public/MainnetDragonApi.sol",
  "compiler": {
    "name": "solc",
    "version": "0.8.4+commit.c7e474f2.Emscripten.clang"
  },
  "schemaVersion": "3.4.1",
  "updatedAt": "2022-06-25T22:06:52.553Z",
  "networkType": "ethereum",
  "devdoc": {
    "kind": "dev",
    "methods": {
      "getDragonById(uint256)": {
        "details": "Get dragon data by dragon id"
      },
      "getDragonsByPage(uint256,uint256)": {
        "details": "Return dragons with pagination",
        "params": {
          "pageNumber": "page starting with value 1. Page 1 will return dragons with id 0 to pageSize",
          "pageSize": "amount of dragons that will be returned in each page"
        },
        "returns": {
          "dragonPagesData": "all dragon ids contain in the resulting page",
          "totalPages": "amount of pages that can be fetched"
        }
      },
      "getDragonsCountByOwner(address)": {
        "details": "Get amount of dragons owned by owner address"
      },
      "getDragonsIdsByOwner(address)": {
        "details": "Get all dragons ids owned by owner address"
      },
      "isEgg(uint256)": {
        "details": "return if dragon is in egg stage"
      }
    },
    "version": 1
  },
  "userdoc": {
    "kind": "user",
    "methods": {},
    "version": 1
  }
}