{
  "contractName": "MainnetMarketplace",
  "abi": [
    {
      "inputs": [
        {
          "internalType": "address",
          "name": "_dragonTokenAddress",
          "type": "address"
        }
      ],
      "stateMutability": "nonpayable",
      "type": "constructor"
    },
    {
      "inputs": [],
      "name": "dragonTokenAddress",
      "outputs": [
        {
          "internalType": "address",
          "name": "",
          "type": "address"
        }
      ],
      "stateMutability": "view",
      "type": "function",
      "constant": true
    },
    {
      "inputs": [
        {
          "internalType": "uint256",
          "name": "",
          "type": "uint256"
        }
      ],
      "name": "salesHistory",
      "outputs": [
        {
          "internalType": "uint256",
          "name": "id",
          "type": "uint256"
        },
        {
          "internalType": "address",
          "name": "owner",
          "type": "address"
        },
        {
          "internalType": "address",
          "name": "buyer",
          "type": "address"
        },
        {
          "internalType": "uint256",
          "name": "price",
          "type": "uint256"
        },
        {
          "internalType": "string",
          "name": "title",
          "type": "string"
        }
      ],
      "stateMutability": "view",
      "type": "function",
      "constant": true
    },
    {
      "inputs": [
        {
          "internalType": "uint256",
          "name": "",
          "type": "uint256"
        }
      ],
      "name": "sellOrderById",
      "outputs": [
        {
          "internalType": "uint256",
          "name": "id",
          "type": "uint256"
        },
        {
          "internalType": "string",
          "name": "title",
          "type": "string"
        },
        {
          "internalType": "string",
          "name": "description",
          "type": "string"
        },
        {
          "internalType": "uint256",
          "name": "date",
          "type": "uint256"
        },
        {
          "internalType": "address payable",
          "name": "owner",
          "type": "address"
        },
        {
          "internalType": "uint256",
          "name": "price",
          "type": "uint256"
        }
      ],
      "stateMutability": "view",
      "type": "function",
      "constant": true
    },
    {
      "inputs": [
        {
          "internalType": "uint256",
          "name": "",
          "type": "uint256"
        }
      ],
      "name": "sellOrders",
      "outputs": [
        {
          "internalType": "uint256",
          "name": "id",
          "type": "uint256"
        },
        {
          "internalType": "string",
          "name": "title",
          "type": "string"
        },
        {
          "internalType": "string",
          "name": "description",
          "type": "string"
        },
        {
          "internalType": "uint256",
          "name": "date",
          "type": "uint256"
        },
        {
          "internalType": "address payable",
          "name": "owner",
          "type": "address"
        },
        {
          "internalType": "uint256",
          "name": "price",
          "type": "uint256"
        }
      ],
      "stateMutability": "view",
      "type": "function",
      "constant": true
    },
    {
      "inputs": [
        {
          "internalType": "uint256",
          "name": "_dragonId",
          "type": "uint256"
        },
        {
          "internalType": "string",
          "name": "_title",
          "type": "string"
        },
        {
          "internalType": "string",
          "name": "_description",
          "type": "string"
        },
        {
          "internalType": "uint256",
          "name": "_price",
          "type": "uint256"
        }
      ],
      "name": "createSellOrder",
      "outputs": [],
      "stateMutability": "nonpayable",
      "type": "function"
    },
    {
      "inputs": [
        {
          "internalType": "uint256",
          "name": "_dragonId",
          "type": "uint256"
        }
      ],
      "name": "buyDragon",
      "outputs": [],
      "stateMutability": "payable",
      "type": "function",
      "payable": true
    }
  ],
  "bytecode": "0x60806040523480156200001157600080fd5b5060405162001b9938038062001b99833981810160405281019062000037919062000109565b600073ffffffffffffffffffffffffffffffffffffffff168173ffffffffffffffffffffffffffffffffffffffff161415620000aa576040517f08c379a0000000000000000000000000000000000000000000000000000000008152600401620000a1906200015c565b60405180910390fd5b80600360006101000a81548173ffffffffffffffffffffffffffffffffffffffff021916908373ffffffffffffffffffffffffffffffffffffffff1602179055505062000206565b6000815190506200010381620001ec565b92915050565b6000602082840312156200011c57600080fd5b60006200012c84828501620000f2565b91505092915050565b600062000144600d836200017e565b91506200015182620001c3565b602082019050919050565b60006020820190508181036000830152620001778162000135565b9050919050565b600082825260208201905092915050565b60006200019c82620001a3565b9050919050565b600073ffffffffffffffffffffffffffffffffffffffff82169050919050565b7f456d707479206164647265737300000000000000000000000000000000000000600082015250565b620001f7816200018f565b81146200020357600080fd5b50565b61198380620002166000396000f3fe6080604052600436106100545760003560e01c806213363c146100595780634a8393f31461009a57806361f428b0146100dc57806379b93296146101055780638d15978714610147578063b08fba8b14610163575b600080fd5b34801561006557600080fd5b50610080600480360381019061007b9190611386565b61018e565b60405161009195949392919061160e565b60405180910390f35b3480156100a657600080fd5b506100c160048036038101906100bc9190611386565b61029c565b6040516100d396959493929190611668565b60405180910390f35b3480156100e857600080fd5b5061010360048036038101906100fe91906113af565b610418565b005b34801561011157600080fd5b5061012c60048036038101906101279190611386565b610702565b60405161013e96959493929190611668565b60405180910390f35b610161600480360381019061015c9190611386565b61086e565b005b34801561016f57600080fd5b5061017861121e565b604051610185919061153c565b60405180910390f35b6002818154811061019e57600080fd5b90600052602060002090600502016000915090508060000154908060010160009054906101000a900473ffffffffffffffffffffffffffffffffffffffff16908060020160009054906101000a900473ffffffffffffffffffffffffffffffffffffffff1690806003015490806004018054610219906117a8565b80601f0160208091040260200160405190810160405280929190818152602001828054610245906117a8565b80156102925780601f1061026757610100808354040283529160200191610292565b820191906000526020600020905b81548152906001019060200180831161027557829003601f168201915b5050505050905085565b600181815481106102ac57600080fd5b90600052602060002090600602016000915090508060000154908060010180546102d5906117a8565b80601f0160208091040260200160405190810160405280929190818152602001828054610301906117a8565b801561034e5780601f106103235761010080835404028352916020019161034e565b820191906000526020600020905b81548152906001019060200180831161033157829003601f168201915b505050505090806002018054610363906117a8565b80601f016020809104026020016040519081016040528092919081815260200182805461038f906117a8565b80156103dc5780601f106103b1576101008083540402835291602001916103dc565b820191906000526020600020905b8154815290600101906020018083116103bf57829003601f168201915b5050505050908060030154908060040160009054906101000a900473ffffffffffffffffffffffffffffffffffffffff16908060050154905086565b3373ffffffffffffffffffffffffffffffffffffffff16600360009054906101000a900473ffffffffffffffffffffffffffffffffffffffff1673ffffffffffffffffffffffffffffffffffffffff16146104a8576040517f08c379a000000000000000000000000000000000000000000000000000000000815260040161049f906115ee565b60405180910390fd5b60006040518060c0016040528088815260200187878080601f016020809104026020016040519081016040528093929190818152602001838380828437600081840152601f19601f82011690508083019250505050505050815260200185858080601f016020809104026020016040519081016040528093929190818152602001838380828437600081840152601f19601f8201169050808301925050505050505081526020014281526020013373ffffffffffffffffffffffffffffffffffffffff16815260200183815250905060018190806001815401808255809150506001900390600052602060002090600602016000909190919091506000820151816000015560208201518160010190805190602001906105c9929190611244565b5060408201518160020190805190602001906105e6929190611244565b506060820151816003015560808201518160040160006101000a81548173ffffffffffffffffffffffffffffffffffffffff021916908373ffffffffffffffffffffffffffffffffffffffff16021790555060a0820151816005015550508060008089815260200190815260200160002060008201518160000155602082015181600101908051906020019061067d929190611244565b50604082015181600201908051906020019061069a929190611244565b506060820151816003015560808201518160040160006101000a81548173ffffffffffffffffffffffffffffffffffffffff021916908373ffffffffffffffffffffffffffffffffffffffff16021790555060a0820151816005015590505050505050505050565b600060205280600052604060002060009150905080600001549080600101805461072b906117a8565b80601f0160208091040260200160405190810160405280929190818152602001828054610757906117a8565b80156107a45780601f10610779576101008083540402835291602001916107a4565b820191906000526020600020905b81548152906001019060200180831161078757829003601f168201915b5050505050908060020180546107b9906117a8565b80601f01602080910402602001604051908101604052809291908181526020018280546107e5906117a8565b80156108325780601f1061080757610100808354040283529160200191610832565b820191906000526020600020905b81548152906001019060200180831161081557829003601f168201915b5050505050908060030154908060040160009054906101000a900473ffffffffffffffffffffffffffffffffffffffff16908060050154905086565b600073ffffffffffffffffffffffffffffffffffffffff16600360009054906101000a900473ffffffffffffffffffffffffffffffffffffffff1673ffffffffffffffffffffffffffffffffffffffff161415610900576040517f08c379a00000000000000000000000000000000000000000000000000000000081526004016108f79061158e565b60405180910390fd5b60008060008381526020019081526020016000206040518060c001604052908160008201548152602001600182018054610939906117a8565b80601f0160208091040260200160405190810160405280929190818152602001828054610965906117a8565b80156109b25780601f10610987576101008083540402835291602001916109b2565b820191906000526020600020905b81548152906001019060200180831161099557829003601f168201915b505050505081526020016002820180546109cb906117a8565b80601f01602080910402602001604051908101604052809291908181526020018280546109f7906117a8565b8015610a445780601f10610a1957610100808354040283529160200191610a44565b820191906000526020600020905b815481529060010190602001808311610a2757829003601f168201915b50505050508152602001600382015481526020016004820160009054906101000a900473ffffffffffffffffffffffffffffffffffffffff1673ffffffffffffffffffffffffffffffffffffffff1673ffffffffffffffffffffffffffffffffffffffff1681526020016005820154815250509050600073ffffffffffffffffffffffffffffffffffffffff16816080015173ffffffffffffffffffffffffffffffffffffffff161415610b2d576040517f08c379a0000000000000000000000000000000000000000000000000000000008152600401610b24906115ae565b60405180910390fd5b60006040518060a00160405280848152602001836080015173ffffffffffffffffffffffffffffffffffffffff1681526020013373ffffffffffffffffffffffffffffffffffffffff1681526020018360a001518152602001836020015181525090508160a00151341015610bd7576040517f08c379a0000000000000000000000000000000000000000000000000000000008152600401610bce906115ce565b60405180910390fd5b60005b600180549050811015610fe8578360018281548110610c22577f4e487b7100000000000000000000000000000000000000000000000000000000600052603260045260246000fd5b9060005260206000209060060201600001541415610fd55760006001808080549050610c4e91906116f3565b81548110610c85577f4e487b7100000000000000000000000000000000000000000000000000000000600052603260045260246000fd5b90600052602060002090600602016040518060c001604052908160008201548152602001600182018054610cb8906117a8565b80601f0160208091040260200160405190810160405280929190818152602001828054610ce4906117a8565b8015610d315780601f10610d0657610100808354040283529160200191610d31565b820191906000526020600020905b815481529060010190602001808311610d1457829003601f168201915b50505050508152602001600282018054610d4a906117a8565b80601f0160208091040260200160405190810160405280929190818152602001828054610d76906117a8565b8015610dc35780601f10610d9857610100808354040283529160200191610dc3565b820191906000526020600020905b815481529060010190602001808311610da657829003601f168201915b50505050508152602001600382015481526020016004820160009054906101000a900473ffffffffffffffffffffffffffffffffffffffff1673ffffffffffffffffffffffffffffffffffffffff1673ffffffffffffffffffffffffffffffffffffffff16815260200160058201548152505090508060018381548110610e73577f4e487b7100000000000000000000000000000000000000000000000000000000600052603260045260246000fd5b9060005260206000209060060201600082015181600001556020820151816001019080519060200190610ea7929190611244565b506040820151816002019080519060200190610ec4929190611244565b506060820151816003015560808201518160040160006101000a81548173ffffffffffffffffffffffffffffffffffffffff021916908373ffffffffffffffffffffffffffffffffffffffff16021790555060a082015181600501559050506001805480610f5b577f4e487b7100000000000000000000000000000000000000000000000000000000600052603160045260246000fd5b6001900381819060005260206000209060060201600080820160009055600182016000610f8891906112ca565b600282016000610f9891906112ca565b60038201600090556004820160006101000a81549073ffffffffffffffffffffffffffffffffffffffff0219169055600582016000905550509055505b8080610fe0906117da565b915050610bda565b508160a0015134111561104c573373ffffffffffffffffffffffffffffffffffffffff166108fc8360a001513461101f91906116f3565b9081150290604051600060405180830381858888f1935050505015801561104a573d6000803e3d6000fd5b505b60028190806001815401808255809150506001900390600052602060002090600502016000909190919091506000820151816000015560208201518160010160006101000a81548173ffffffffffffffffffffffffffffffffffffffff021916908373ffffffffffffffffffffffffffffffffffffffff16021790555060408201518160020160006101000a81548173ffffffffffffffffffffffffffffffffffffffff021916908373ffffffffffffffffffffffffffffffffffffffff160217905550606082015181600301556080820151816004019080519060200190611136929190611244565b505050600360009054906101000a900473ffffffffffffffffffffffffffffffffffffffff1673ffffffffffffffffffffffffffffffffffffffff166342842e0e3033866040518463ffffffff1660e01b815260040161119893929190611557565b600060405180830381600087803b1580156111b257600080fd5b505af11580156111c6573d6000803e3d6000fd5b50505050816080015173ffffffffffffffffffffffffffffffffffffffff166108fc8360a001519081150290604051600060405180830381858888f19350505050158015611218573d6000803e3d6000fd5b50505050565b600360009054906101000a900473ffffffffffffffffffffffffffffffffffffffff1681565b828054611250906117a8565b90600052602060002090601f01602090048101928261127257600085556112b9565b82601f1061128b57805160ff19168380011785556112b9565b828001600101855582156112b9579182015b828111156112b857825182559160200191906001019061129d565b5b5090506112c6919061130a565b5090565b5080546112d6906117a8565b6000825580601f106112e85750611307565b601f016020900490600052602060002090810190611306919061130a565b5b50565b5b8082111561132357600081600090555060010161130b565b5090565b60008083601f84011261133957600080fd5b8235905067ffffffffffffffff81111561135257600080fd5b60208301915083600182028301111561136a57600080fd5b9250929050565b60008135905061138081611936565b92915050565b60006020828403121561139857600080fd5b60006113a684828501611371565b91505092915050565b600080600080600080608087890312156113c857600080fd5b60006113d689828a01611371565b965050602087013567ffffffffffffffff8111156113f357600080fd5b6113ff89828a01611327565b9550955050604087013567ffffffffffffffff81111561141e57600080fd5b61142a89828a01611327565b9350935050606061143d89828a01611371565b9150509295509295509295565b61145381611739565b82525050565b61146281611727565b82525050565b6000611473826116d7565b61147d81856116e2565b935061148d818560208601611775565b61149681611881565b840191505092915050565b60006114ae600f836116e2565b91506114b982611892565b602082019050919050565b60006114d16017836116e2565b91506114dc826118bb565b602082019050919050565b60006114f46015836116e2565b91506114ff826118e4565b602082019050919050565b60006115176012836116e2565b91506115228261190d565b602082019050919050565b6115368161176b565b82525050565b60006020820190506115516000830184611459565b92915050565b600060608201905061156c6000830186611459565b6115796020830185611459565b611586604083018461152d565b949350505050565b600060208201905081810360008301526115a7816114a1565b9050919050565b600060208201905081810360008301526115c7816114c4565b9050919050565b600060208201905081810360008301526115e7816114e7565b9050919050565b600060208201905081810360008301526116078161150a565b9050919050565b600060a082019050611623600083018861152d565b6116306020830187611459565b61163d6040830186611459565b61164a606083018561152d565b818103608083015261165c8184611468565b90509695505050505050565b600060c08201905061167d600083018961152d565b818103602083015261168f8188611468565b905081810360408301526116a38187611468565b90506116b2606083018661152d565b6116bf608083018561144a565b6116cc60a083018461152d565b979650505050505050565b600081519050919050565b600082825260208201905092915050565b60006116fe8261176b565b91506117098361176b565b92508282101561171c5761171b611823565b5b828203905092915050565b60006117328261174b565b9050919050565b60006117448261174b565b9050919050565b600073ffffffffffffffffffffffffffffffffffffffff82169050919050565b6000819050919050565b60005b83811015611793578082015181840152602081019050611778565b838111156117a2576000848401525b50505050565b600060028204905060018216806117c057607f821691505b602082108114156117d4576117d3611852565b5b50919050565b60006117e58261176b565b91507fffffffffffffffffffffffffffffffffffffffffffffffffffffffffffffffff82141561181857611817611823565b5b600182019050919050565b7f4e487b7100000000000000000000000000000000000000000000000000000000600052601160045260246000fd5b7f4e487b7100000000000000000000000000000000000000000000000000000000600052602260045260246000fd5b6000601f19601f8301169050919050565b7f496e76616c696420616464726573730000000000000000000000000000000000600082015250565b7f412073656c6c206f72646572206d757374206578697374000000000000000000600082015250565b7f5061796d656e74206973206e6f7420656e6f7567680000000000000000000000600082015250565b7f496e76616c6964207065726d697373696f6e0000000000000000000000000000600082015250565b61193f8161176b565b811461194a57600080fd5b5056fea2646970667358221220e45c7bb7029d9d1eda82c52c09bd80092e6cb42450cb1f5a6598ceee2472db6a64736f6c63430008040033",
  "immutableReferences": {},
  "source": "// SPDX-License-Identifier: GPL-3.0 License\n\npragma solidity ^0.8.0;\n\ninterface IERC721 {\n\tfunction safeTransferFrom(\n\t\taddress from,\n\t\taddress to,\n\t\tuint256 tokenId\n\t) external;\n}\n\ncontract MainnetMarketplace {\n\t// dragon id => sell order\n\tmapping(uint256 => SellOrder) public sellOrderById;\n\n\t// Contain sell orders for dragons on sale\n\tSellOrder[] public sellOrders;\n\n\t// History containing all sales\n\tSale[] public salesHistory;\n\n\taddress public dragonTokenAddress;\n\n\tstruct SellOrder {\n\t\tuint256 id;\n\t\tstring title;\n\t\tstring description;\n\t\tuint256 date;\n\t\taddress payable owner;\n\t\tuint256 price;\n\t}\n\tstruct Sale {\n\t\tuint256 id;\n\t\taddress owner;\n\t\taddress buyer;\n\t\tuint256 price;\n\t\tstring title;\n\t}\n\n\t/// @notice To setup the address of the ERC-721 token to use for this contract\n\t/// @param _dragonTokenAddress The token address\n\tconstructor(address _dragonTokenAddress) {\n\t\trequire(_dragonTokenAddress != address(0), 'Empty address');\n\t\tdragonTokenAddress = _dragonTokenAddress;\n\t}\n\n\t/**\n\t * @dev Throws if function isn't called from dragon contract\n\t */\n\tmodifier onlyFromDragonToken() {\n\t\trequire(dragonTokenAddress == msg.sender, 'Invalid permission');\n\t\t_;\n\t}\n\n\t/// @notice To publish a sellOrder as a seller\n\t/// @param _dragonId The if of the dragon being published\n\t/// @param _title The title of the sellOrder\n\t/// @param _description The description of the sellOrder\n\t/// @param _price The price of the sellOrder in ETH\n\tfunction createSellOrder(\n\t\tuint256 _dragonId,\n\t\tstring calldata _title,\n\t\tstring calldata _description,\n\t\tuint256 _price\n\t) external onlyFromDragonToken() {\n\t\t// Parameter validity are checked in dragon token contract\n\t\tSellOrder memory sellOrder = SellOrder(\n\t\t\t_dragonId,\n\t\t\t_title,\n\t\t\t_description,\n\t\t\tblock.timestamp,\n\t\t\tpayable(msg.sender),\n\t\t\t_price\n\t\t);\n\t\tsellOrders.push(sellOrder);\n\t\tsellOrderById[_dragonId] = sellOrder;\n\t}\n\n\t/// @notice To buy a new dragon, note that the seller must authorize this contract to manage the token\n\t/// @param _dragonId The id of the dragon to buy - dragon id references a sell order\n\tfunction buyDragon(uint256 _dragonId) external payable {\n\t\trequire(dragonTokenAddress != address(0), 'Invalid address');\n\n\t\tSellOrder memory sellOrder = sellOrderById[_dragonId];\n\t\trequire(sellOrder.owner != address(0), 'A sell order must exist');\n\n\t\tSale memory sale = Sale(_dragonId, sellOrder.owner, msg.sender, sellOrder.price, sellOrder.title);\n\n\t\trequire(msg.value >= sellOrder.price, 'Payment is not enough');\n\n\t\t// We can charge a fee here\n\n\t\t// Delete the sellOrder from the array of sellOrders\n\t\tfor (uint256 i = 0; i < sellOrders.length; i++) {\n\t\t\tif (sellOrders[i].id == _dragonId) {\n\t\t\t\tSellOrder memory lastElement = sellOrders[sellOrders.length - 1];\n\t\t\t\tsellOrders[i] = lastElement;\n\t\t\t\tsellOrders.pop();\n\t\t\t}\n\t\t}\n\t\t// Return the excess ETH sent by the buyer\n\t\tif (msg.value > sellOrder.price) {\n\t\t\tpayable(msg.sender).transfer(msg.value - sellOrder.price);\n\t\t}\n\n\t\tsalesHistory.push(sale);\n\n\t\t//Transfer the token to the new owner\n\t\tIERC721(dragonTokenAddress).safeTransferFrom(address(this), msg.sender, _dragonId);\n\n\t\tsellOrder.owner.transfer(sellOrder.price);\n\t}\n}\n",
  "sourcePath": "/usr/src/app/contractGetter/contracts/mainnet/marketplace/MainnetMarketplace.sol",
  "compiler": {
    "name": "solc",
    "version": "0.8.4+commit.c7e474f2.Emscripten.clang"
  },
  "schemaVersion": "3.4.1",
  "updatedAt": "2022-01-06T20:22:53.125Z",
  "networkType": "ethereum",
  "devdoc": {
    "kind": "dev",
    "methods": {
      "buyDragon(uint256)": {
        "params": {
          "_dragonId": "The id of the dragon to buy - dragon id references a sell order"
        }
      },
      "constructor": {
        "params": {
          "_dragonTokenAddress": "The token address"
        }
      },
      "createSellOrder(uint256,string,string,uint256)": {
        "params": {
          "_description": "The description of the sellOrder",
          "_dragonId": "The if of the dragon being published",
          "_price": "The price of the sellOrder in ETH",
          "_title": "The title of the sellOrder"
        }
      }
    },
    "version": 1
  },
  "userdoc": {
    "kind": "user",
    "methods": {
      "buyDragon(uint256)": {
        "notice": "To buy a new dragon, note that the seller must authorize this contract to manage the token"
      },
      "constructor": {
        "notice": "To setup the address of the ERC-721 token to use for this contract"
      },
      "createSellOrder(uint256,string,string,uint256)": {
        "notice": "To publish a sellOrder as a seller"
      }
    },
    "version": 1
  }
}