{
  "contractName": "MainnetTransferableDragon",
  "abi": [
    {
      "inputs": [
        {
          "internalType": "address",
          "name": "gateway",
          "type": "address"
        },
        {
          "internalType": "address",
          "name": "dragonDecoder",
          "type": "address"
        },
        {
          "internalType": "uint8",
          "name": "blockchainId",
          "type": "uint8"
        }
      ],
      "stateMutability": "nonpayable",
      "type": "constructor"
    },
    {
      "anonymous": false,
      "inputs": [
        {
          "indexed": true,
          "internalType": "address",
          "name": "owner",
          "type": "address"
        },
        {
          "indexed": true,
          "internalType": "address",
          "name": "approved",
          "type": "address"
        },
        {
          "indexed": true,
          "internalType": "uint256",
          "name": "tokenId",
          "type": "uint256"
        }
      ],
      "name": "Approval",
      "type": "event"
    },
    {
      "anonymous": false,
      "inputs": [
        {
          "indexed": true,
          "internalType": "address",
          "name": "owner",
          "type": "address"
        },
        {
          "indexed": true,
          "internalType": "address",
          "name": "operator",
          "type": "address"
        },
        {
          "indexed": false,
          "internalType": "bool",
          "name": "approved",
          "type": "bool"
        }
      ],
      "name": "ApprovalForAll",
      "type": "event"
    },
    {
      "anonymous": false,
      "inputs": [
        {
          "indexed": false,
          "internalType": "uint256",
          "name": "dragonId",
          "type": "uint256"
        },
        {
          "indexed": false,
          "internalType": "uint256",
          "name": "genes",
          "type": "uint256"
        }
      ],
      "name": "NewDragon",
      "type": "event"
    },
    {
      "anonymous": false,
      "inputs": [
        {
          "indexed": true,
          "internalType": "address",
          "name": "previousOwner",
          "type": "address"
        },
        {
          "indexed": true,
          "internalType": "address",
          "name": "newOwner",
          "type": "address"
        }
      ],
      "name": "OwnershipTransferred",
      "type": "event"
    },
    {
      "anonymous": false,
      "inputs": [
        {
          "indexed": true,
          "internalType": "address",
          "name": "from",
          "type": "address"
        },
        {
          "indexed": true,
          "internalType": "address",
          "name": "to",
          "type": "address"
        },
        {
          "indexed": true,
          "internalType": "uint256",
          "name": "tokenId",
          "type": "uint256"
        }
      ],
      "name": "Transfer",
      "type": "event"
    },
    {
      "inputs": [
        {
          "internalType": "address",
          "name": "to",
          "type": "address"
        },
        {
          "internalType": "uint256",
          "name": "tokenId",
          "type": "uint256"
        }
      ],
      "name": "approve",
      "outputs": [],
      "stateMutability": "nonpayable",
      "type": "function"
    },
    {
      "inputs": [
        {
          "internalType": "address",
          "name": "owner",
          "type": "address"
        }
      ],
      "name": "balanceOf",
      "outputs": [
        {
          "internalType": "uint256",
          "name": "",
          "type": "uint256"
        }
      ],
      "stateMutability": "view",
      "type": "function"
    },
    {
      "inputs": [
        {
          "internalType": "string",
          "name": "_name",
          "type": "string"
        },
        {
          "internalType": "uint64",
          "name": "_creationTime",
          "type": "uint64"
        },
        {
          "internalType": "uint32",
          "name": "_dadId",
          "type": "uint32"
        },
        {
          "internalType": "uint32",
          "name": "_motherId",
          "type": "uint32"
        }
      ],
      "name": "createDragon",
      "outputs": [],
      "stateMutability": "nonpayable",
      "type": "function"
    },
    {
      "inputs": [
        {
          "internalType": "uint256",
          "name": "",
          "type": "uint256"
        }
      ],
      "name": "dragonIndexToOwner",
      "outputs": [
        {
          "internalType": "address",
          "name": "",
          "type": "address"
        }
      ],
      "stateMutability": "view",
      "type": "function"
    },
    {
      "inputs": [
        {
          "internalType": "uint256",
          "name": "tokenId",
          "type": "uint256"
        }
      ],
      "name": "getApproved",
      "outputs": [
        {
          "internalType": "address",
          "name": "",
          "type": "address"
        }
      ],
      "stateMutability": "view",
      "type": "function"
    },
    {
      "inputs": [
        {
          "internalType": "uint256",
          "name": "_dragonId",
          "type": "uint256"
        }
      ],
      "name": "getDragonById",
      "outputs": [
        {
          "components": [
            {
              "internalType": "bytes32",
              "name": "genes",
              "type": "bytes32"
            },
            {
              "internalType": "bytes32",
              "name": "name",
              "type": "bytes32"
            },
            {
              "internalType": "uint64",
              "name": "creationTime",
              "type": "uint64"
            },
            {
              "internalType": "uint32",
              "name": "dadId",
              "type": "uint32"
            },
            {
              "internalType": "uint32",
              "name": "motherId",
              "type": "uint32"
            },
            {
              "internalType": "uint32",
              "name": "currentExperience",
              "type": "uint32"
            },
            {
              "internalType": "uint16",
              "name": "actionCooldown",
              "type": "uint16"
            },
            {
              "internalType": "uint16",
              "name": "health",
              "type": "uint16"
            },
            {
              "internalType": "uint16",
              "name": "strength",
              "type": "uint16"
            },
            {
              "internalType": "uint16",
              "name": "agility",
              "type": "uint16"
            },
            {
              "internalType": "uint16",
              "name": "fortitude",
              "type": "uint16"
            },
            {
              "internalType": "uint16",
              "name": "hatchTime",
              "type": "uint16"
            },
            {
              "internalType": "uint8",
              "name": "blockchainOriginId",
              "type": "uint8"
            }
          ],
          "internalType": "struct DragonLibrary.Dragon",
          "name": "",
          "type": "tuple"
        }
      ],
      "stateMutability": "view",
      "type": "function"
    },
    {
      "inputs": [
        {
          "internalType": "address",
          "name": "owner",
          "type": "address"
        },
        {
          "internalType": "address",
          "name": "operator",
          "type": "address"
        }
      ],
      "name": "isApprovedForAll",
      "outputs": [
        {
          "internalType": "bool",
          "name": "",
          "type": "bool"
        }
      ],
      "stateMutability": "view",
      "type": "function"
    },
    {
      "inputs": [],
      "name": "isOwner",
      "outputs": [
        {
          "internalType": "bool",
          "name": "",
          "type": "bool"
        }
      ],
      "stateMutability": "view",
      "type": "function"
    },
    {
      "inputs": [],
      "name": "name",
      "outputs": [
        {
          "internalType": "string",
          "name": "",
          "type": "string"
        }
      ],
      "stateMutability": "view",
      "type": "function"
    },
    {
      "inputs": [],
      "name": "owner",
      "outputs": [
        {
          "internalType": "address",
          "name": "",
          "type": "address"
        }
      ],
      "stateMutability": "view",
      "type": "function"
    },
    {
      "inputs": [
        {
          "internalType": "uint256",
          "name": "tokenId",
          "type": "uint256"
        }
      ],
      "name": "ownerOf",
      "outputs": [
        {
          "internalType": "address",
          "name": "",
          "type": "address"
        }
      ],
      "stateMutability": "view",
      "type": "function"
    },
    {
      "inputs": [],
      "name": "renounceOwnership",
      "outputs": [],
      "stateMutability": "nonpayable",
      "type": "function"
    },
    {
      "inputs": [
        {
          "internalType": "address",
          "name": "from",
          "type": "address"
        },
        {
          "internalType": "address",
          "name": "to",
          "type": "address"
        },
        {
          "internalType": "uint256",
          "name": "tokenId",
          "type": "uint256"
        }
      ],
      "name": "safeTransferFrom",
      "outputs": [],
      "stateMutability": "nonpayable",
      "type": "function"
    },
    {
      "inputs": [
        {
          "internalType": "address",
          "name": "from",
          "type": "address"
        },
        {
          "internalType": "address",
          "name": "to",
          "type": "address"
        },
        {
          "internalType": "uint256",
          "name": "tokenId",
          "type": "uint256"
        },
        {
          "internalType": "bytes",
          "name": "_data",
          "type": "bytes"
        }
      ],
      "name": "safeTransferFrom",
      "outputs": [],
      "stateMutability": "nonpayable",
      "type": "function"
    },
    {
      "inputs": [
        {
          "internalType": "address",
          "name": "operator",
          "type": "address"
        },
        {
          "internalType": "bool",
          "name": "approved",
          "type": "bool"
        }
      ],
      "name": "setApprovalForAll",
      "outputs": [],
      "stateMutability": "nonpayable",
      "type": "function"
    },
    {
      "inputs": [
        {
          "internalType": "address",
          "name": "genesLaboratoryAddress",
          "type": "address"
        }
      ],
      "name": "setGenesLaboratoryAddress",
      "outputs": [],
      "stateMutability": "nonpayable",
      "type": "function"
    },
    {
      "inputs": [
        {
          "internalType": "uint256",
          "name": "_dragonId",
          "type": "uint256"
        },
        {
          "internalType": "string",
          "name": "_name",
          "type": "string"
        }
      ],
      "name": "setName",
      "outputs": [],
      "stateMutability": "nonpayable",
      "type": "function"
    },
    {
      "inputs": [
        {
          "internalType": "bytes4",
          "name": "interfaceId",
          "type": "bytes4"
        }
      ],
      "name": "supportsInterface",
      "outputs": [
        {
          "internalType": "bool",
          "name": "",
          "type": "bool"
        }
      ],
      "stateMutability": "view",
      "type": "function"
    },
    {
      "inputs": [],
      "name": "symbol",
      "outputs": [
        {
          "internalType": "string",
          "name": "",
          "type": "string"
        }
      ],
      "stateMutability": "view",
      "type": "function"
    },
    {
      "inputs": [
        {
          "internalType": "uint256",
          "name": "index",
          "type": "uint256"
        }
      ],
      "name": "tokenByIndex",
      "outputs": [
        {
          "internalType": "uint256",
          "name": "",
          "type": "uint256"
        }
      ],
      "stateMutability": "view",
      "type": "function"
    },
    {
      "inputs": [
        {
          "internalType": "address",
          "name": "owner",
          "type": "address"
        },
        {
          "internalType": "uint256",
          "name": "index",
          "type": "uint256"
        }
      ],
      "name": "tokenOfOwnerByIndex",
      "outputs": [
        {
          "internalType": "uint256",
          "name": "",
          "type": "uint256"
        }
      ],
      "stateMutability": "view",
      "type": "function"
    },
    {
      "inputs": [
        {
          "internalType": "uint256",
          "name": "tokenId",
          "type": "uint256"
        }
      ],
      "name": "tokenURI",
      "outputs": [
        {
          "internalType": "string",
          "name": "",
          "type": "string"
        }
      ],
      "stateMutability": "view",
      "type": "function"
    },
    {
      "inputs": [],
      "name": "totalSupply",
      "outputs": [
        {
          "internalType": "uint256",
          "name": "",
          "type": "uint256"
        }
      ],
      "stateMutability": "view",
      "type": "function"
    },
    {
      "inputs": [
        {
          "internalType": "address",
          "name": "from",
          "type": "address"
        },
        {
          "internalType": "address",
          "name": "to",
          "type": "address"
        },
        {
          "internalType": "uint256",
          "name": "tokenId",
          "type": "uint256"
        }
      ],
      "name": "transferFrom",
      "outputs": [],
      "stateMutability": "nonpayable",
      "type": "function"
    },
    {
      "inputs": [
        {
          "internalType": "address",
          "name": "newOwner",
          "type": "address"
        }
      ],
      "name": "transferOwnership",
      "outputs": [],
      "stateMutability": "nonpayable",
      "type": "function"
    },
    {
      "inputs": [
        {
          "internalType": "address",
          "name": "gateway",
          "type": "address"
        }
      ],
      "name": "setGatewayAddress",
      "outputs": [],
      "stateMutability": "nonpayable",
      "type": "function"
    },
    {
      "inputs": [
        {
          "internalType": "address",
          "name": "receiver",
          "type": "address"
        },
        {
          "internalType": "uint256",
          "name": "_tokenId",
          "type": "uint256"
        },
        {
          "internalType": "bytes",
          "name": "_data",
          "type": "bytes"
        }
      ],
      "name": "retrieveToken",
      "outputs": [],
      "stateMutability": "nonpayable",
      "type": "function"
    },
    {
      "inputs": [
        {
          "internalType": "address",
          "name": "owner",
          "type": "address"
        },
        {
          "internalType": "address",
          "name": "sidechainAddress",
          "type": "address"
        }
      ],
      "name": "undoMapping",
      "outputs": [],
      "stateMutability": "nonpayable",
      "type": "function"
    },
    {
      "inputs": [
        {
          "internalType": "address",
          "name": "sidechainAddress",
          "type": "address"
        }
      ],
      "name": "mapContractToSidechain",
      "outputs": [],
      "stateMutability": "nonpayable",
      "type": "function"
    },
    {
      "inputs": [
        {
          "internalType": "address",
          "name": "sidechainAddress",
          "type": "address"
        }
      ],
      "name": "isMap",
      "outputs": [
        {
          "internalType": "bool",
          "name": "",
          "type": "bool"
        }
      ],
      "stateMutability": "view",
      "type": "function"
    },
    {
      "inputs": [
        {
          "internalType": "uint256",
          "name": "_tokenId",
          "type": "uint256"
        }
      ],
      "name": "transferToGateway",
      "outputs": [],
      "stateMutability": "nonpayable",
      "type": "function"
    }
  ],
  "bytecode": "0x60806040526040518060400160405280600c81526020017f447261676f6e20546f6b656e000000000000000000000000000000000000000081525060009080519060200190620000519291906200033f565b506040518060400160405280600381526020017f4447540000000000000000000000000000000000000000000000000000000000815250600190805190602001906200009f9291906200033f565b506000600d60006101000a81548160ff021916908360ff160217905550348015620000c957600080fd5b5060405162005e7438038062005e748339818101604052810190620000ef91906200041d565b82828233600a60006101000a81548173ffffffffffffffffffffffffffffffffffffffff021916908373ffffffffffffffffffffffffffffffffffffffff160217905550600a60009054906101000a900473ffffffffffffffffffffffffffffffffffffffff1673ffffffffffffffffffffffffffffffffffffffff16600073ffffffffffffffffffffffffffffffffffffffff167f8be0079c531659141344cd1fd0a4f28419497f9722a3daafe3b4186f6b6457e060405160405180910390a3600073ffffffffffffffffffffffffffffffffffffffff168373ffffffffffffffffffffffffffffffffffffffff16141562000223576040517f08c379a00000000000000000000000000000000000000000000000000000000081526004016200021a90620004c1565b60405180910390fd5b600073ffffffffffffffffffffffffffffffffffffffff168273ffffffffffffffffffffffffffffffffffffffff16141562000296576040517f08c379a00000000000000000000000000000000000000000000000000000000081526004016200028d90620004e3565b60405180910390fd5b82601160006101000a81548173ffffffffffffffffffffffffffffffffffffffff021916908373ffffffffffffffffffffffffffffffffffffffff16021790555081601360006101000a81548173ffffffffffffffffffffffffffffffffffffffff021916908373ffffffffffffffffffffffffffffffffffffffff16021790555080600d60006101000a81548160ff021916908360ff16021790555050505050505062000642565b8280546200034d9062000557565b90600052602060002090601f016020900481019282620003715760008555620003bd565b82601f106200038c57805160ff1916838001178555620003bd565b82800160010185558215620003bd579182015b82811115620003bc5782518255916020019190600101906200039f565b5b509050620003cc9190620003d0565b5090565b5b80821115620003eb576000816000905550600101620003d1565b5090565b60008151905062000400816200060e565b92915050565b600081519050620004178162000628565b92915050565b6000806000606084860312156200043357600080fd5b60006200044386828701620003ef565b93505060206200045686828701620003ef565b9250506040620004698682870162000406565b9150509250925092565b60006200048260178362000505565b91506200048f82620005bc565b602082019050919050565b6000620004a960178362000505565b9150620004b682620005e5565b602082019050919050565b60006020820190508181036000830152620004dc8162000473565b9050919050565b60006020820190508181036000830152620004fe816200049a565b9050919050565b600082825260208201905092915050565b600062000523826200052a565b9050919050565b600073ffffffffffffffffffffffffffffffffffffffff82169050919050565b600060ff82169050919050565b600060028204905060018216806200057057607f821691505b602082108114156200058757620005866200058d565b5b50919050565b7f4e487b7100000000000000000000000000000000000000000000000000000000600052602260045260246000fd5b7f496e76616c696420676174657761792061646472657373000000000000000000600082015250565b7f496e76616c6964206465636f6465722061646472657373000000000000000000600082015250565b620006198162000516565b81146200062557600080fd5b50565b62000633816200054a565b81146200063f57600080fd5b50565b61582280620006526000396000f3fe608060405234801561001057600080fd5b50600436106101e55760003560e01c806370a082311161010f578063a8def880116100a2578063c9cf557011610071578063c9cf55701461058a578063e985e9c5146105ba578063f2fde38b146105ea578063fe55932a14610606576101e5565b8063a8def88014610506578063b88d4fde14610522578063bef36c491461053e578063c87b56dd1461055a576101e5565b806395d89b41116100de57806395d89b411461049457806398ae481d146104b2578063a22cb465146104ce578063a35ff076146104ea576101e5565b806370a082311461041e578063715018a61461044e5780638da5cb5b146104585780638f32d59b14610476576101e5565b806323b872dd11610187578063520104dc11610156578063520104dc146103865780635d64aa68146103a25780636352211e146103d25780636fbb704514610402576101e5565b806323b872dd146102ee5780632f745c591461030a57806342842e0e1461033a5780634f6ccce714610356576101e5565b8063095ea7b3116101c3578063095ea7b3146102685780630b4cb527146102845780630d6dd812146102a057806318160ddd146102d0576101e5565b806301ffc9a7146101ea57806306fdde031461021a578063081812fc14610238575b600080fd5b61020460048036038101906101ff91906144c1565b610622565b6040516102119190614c33565b60405180910390f35b61022261069c565b60405161022f9190614c70565b60405180910390f35b610252600480360381019061024d91906145f9565b61072e565b60405161025f9190614bcc565b60405180910390f35b610282600480360381019061027d9190614380565b6107b3565b005b61029e60048036038101906102999190614554565b6108cb565b005b6102ba60048036038101906102b59190614215565b610a11565b6040516102c79190614c33565b60405180910390f35b6102d8610b17565b6040516102e59190614f4e565b60405180910390f35b6103086004803603810190610303919061427a565b610b24565b005b610324600480360381019061031f9190614380565b610b84565b6040516103319190614f4e565b60405180910390f35b610354600480360381019061034f919061427a565b610c29565b005b610370600480360381019061036b91906145f9565b610c49565b60405161037d9190614f4e565b60405180910390f35b6103a0600480360381019061039b9190614215565b610ce0565b005b6103bc60048036038101906103b791906145f9565b610e9f565b6040516103c99190614bcc565b60405180910390f35b6103ec60048036038101906103e791906145f9565b610ed2565b6040516103f99190614bcc565b60405180910390f35b61041c600480360381019061041791906143bc565b610f84565b005b61043860048036038101906104339190614215565b611094565b6040516104459190614f4e565b60405180910390f35b61045661114c565b005b610460611254565b60405161046d9190614bcc565b60405180910390f35b61047e61127e565b60405161048b9190614c33565b60405180910390f35b61049c6112d6565b6040516104a99190614c70565b60405180910390f35b6104cc60048036038101906104c79190614215565b611368565b005b6104e860048036038101906104e39190614344565b611463565b005b61050460048036038101906104ff9190614215565b6115e4565b005b610520600480360381019061051b919061423e565b6116df565b005b61053c600480360381019061053791906142c9565b611888565b005b610558600480360381019061055391906145f9565b6118ea565b005b610574600480360381019061056f91906145f9565b611e79565b6040516105819190614c70565b60405180910390f35b6105a4600480360381019061059f91906145f9565b611f20565b6040516105b19190614f32565b60405180910390f35b6105d460048036038101906105cf919061423e565b612118565b6040516105e19190614c33565b60405180910390f35b61060460048036038101906105ff9190614215565b6121ac565b005b610620600480360381019061061b9190614622565b6121ff565b005b60007f780e9d63000000000000000000000000000000000000000000000000000000007bffffffffffffffffffffffffffffffffffffffffffffffffffffffff1916827bffffffffffffffffffffffffffffffffffffffffffffffffffffffff1916148061069557506106948261236a565b5b9050919050565b6060600080546106ab90615216565b80601f01602080910402602001604051908101604052809291908181526020018280546106d790615216565b80156107245780601f106106f957610100808354040283529160200191610724565b820191906000526020600020905b81548152906001019060200180831161070757829003601f168201915b5050505050905090565b60006107398261244c565b610778576040517f08c379a000000000000000000000000000000000000000000000000000000000815260040161076f90614db2565b60405180910390fd5b6004600083815260200190815260200160002060009054906101000a900473ffffffffffffffffffffffffffffffffffffffff169050919050565b60006107be82610ed2565b90508073ffffffffffffffffffffffffffffffffffffffff168373ffffffffffffffffffffffffffffffffffffffff16141561082f576040517f08c379a000000000000000000000000000000000000000000000000000000000815260040161082690614cf2565b60405180910390fd5b8073ffffffffffffffffffffffffffffffffffffffff1661084e6124b8565b73ffffffffffffffffffffffffffffffffffffffff16148061087d575061087c816108776124b8565b612118565b5b6108bc576040517f08c379a00000000000000000000000000000000000000000000000000000000081526004016108b390614eb2565b60405180910390fd5b6108c683836124c0565b505050565b6000806000806000806000601260009054906101000a900473ffffffffffffffffffffffffffffffffffffffff1673ffffffffffffffffffffffffffffffffffffffff1663355916a46040518163ffffffff1660e01b815260040160e060405180830381600087803b15801561094057600080fd5b505af1158015610954573d6000803e3d6000fd5b505050506040513d601f19601f820116820180604052508101906109789190614423565b965096509650965096509650965060006109918c612579565b905060006109ba89838e8e8e60008a8f8f8f8f8e600d60009054906101000a900460ff166125a3565b90506109c63382612847565b7f3045fac2aa90b666e53421f7c8b2245fae88d8c0bc2a2b62ff6283daea24f36f818a60001c6040516109fa929190614f69565b60405180910390a150505050505050505050505050565b60008073ffffffffffffffffffffffffffffffffffffffff168273ffffffffffffffffffffffffffffffffffffffff161415610a82576040517f08c379a0000000000000000000000000000000000000000000000000000000008152600401610a7990614d52565b60405180910390fd5b8173ffffffffffffffffffffffffffffffffffffffff16601460003373ffffffffffffffffffffffffffffffffffffffff1673ffffffffffffffffffffffffffffffffffffffff16815260200190815260200160002060009054906101000a900473ffffffffffffffffffffffffffffffffffffffff1673ffffffffffffffffffffffffffffffffffffffff16149050919050565b6000600880549050905090565b610b35610b2f6124b8565b82612a15565b610b74576040517f08c379a0000000000000000000000000000000000000000000000000000000008152600401610b6b90614df2565b60405180910390fd5b610b7f838383612af3565b505050565b6000610b8f83611094565b8210610bd0576040517f08c379a0000000000000000000000000000000000000000000000000000000008152600401610bc790614f12565b60405180910390fd5b600660008473ffffffffffffffffffffffffffffffffffffffff1673ffffffffffffffffffffffffffffffffffffffff168152602001908152602001600020600083815260200190815260200160002054905092915050565b610c4483838360405180602001604052806000815250611888565b505050565b6000610c53610b17565b8210610c94576040517f08c379a0000000000000000000000000000000000000000000000000000000008152600401610c8b90614f12565b60405180910390fd5b60088281548110610cce577f4e487b7100000000000000000000000000000000000000000000000000000000600052603260045260246000fd5b90600052602060002001549050919050565b600073ffffffffffffffffffffffffffffffffffffffff168173ffffffffffffffffffffffffffffffffffffffff161415610d50576040517f08c379a0000000000000000000000000000000000000000000000000000000008152600401610d4790614d52565b60405180910390fd5b600073ffffffffffffffffffffffffffffffffffffffff16601460003373ffffffffffffffffffffffffffffffffffffffff1673ffffffffffffffffffffffffffffffffffffffff16815260200190815260200160002060009054906101000a900473ffffffffffffffffffffffffffffffffffffffff1673ffffffffffffffffffffffffffffffffffffffff1614610e1e576040517f08c379a0000000000000000000000000000000000000000000000000000000008152600401610e1590614e72565b60405180910390fd5b80601460003373ffffffffffffffffffffffffffffffffffffffff1673ffffffffffffffffffffffffffffffffffffffff16815260200190815260200160002060006101000a81548173ffffffffffffffffffffffffffffffffffffffff021916908373ffffffffffffffffffffffffffffffffffffffff16021790555050565b600c6020528060005260406000206000915054906101000a900473ffffffffffffffffffffffffffffffffffffffff1681565b6000806002600084815260200190815260200160002060009054906101000a900473ffffffffffffffffffffffffffffffffffffffff169050600073ffffffffffffffffffffffffffffffffffffffff168173ffffffffffffffffffffffffffffffffffffffff161415610f7b576040517f08c379a0000000000000000000000000000000000000000000000000000000008152600401610f7290614db2565b60405180910390fd5b80915050919050565b601160009054906101000a900473ffffffffffffffffffffffffffffffffffffffff1673ffffffffffffffffffffffffffffffffffffffff163373ffffffffffffffffffffffffffffffffffffffff1614611014576040517f08c379a000000000000000000000000000000000000000000000000000000000815260040161100b90614ed2565b60405180910390fd5b600073ffffffffffffffffffffffffffffffffffffffff168373ffffffffffffffffffffffffffffffffffffffff161415611084576040517f08c379a000000000000000000000000000000000000000000000000000000000815260040161107b90614d12565b60405180910390fd5b61108f838383612d4f565b505050565b60008073ffffffffffffffffffffffffffffffffffffffff168273ffffffffffffffffffffffffffffffffffffffff161415611105576040517f08c379a00000000000000000000000000000000000000000000000000000000081526004016110fc90614d92565b60405180910390fd5b600360008373ffffffffffffffffffffffffffffffffffffffff1673ffffffffffffffffffffffffffffffffffffffff168152602001908152602001600020549050919050565b61115461127e565b611193576040517f08c379a000000000000000000000000000000000000000000000000000000000815260040161118a90614ed2565b60405180910390fd5b600073ffffffffffffffffffffffffffffffffffffffff16600a60009054906101000a900473ffffffffffffffffffffffffffffffffffffffff1673ffffffffffffffffffffffffffffffffffffffff167f8be0079c531659141344cd1fd0a4f28419497f9722a3daafe3b4186f6b6457e060405160405180910390a36000600a60006101000a81548173ffffffffffffffffffffffffffffffffffffffff021916908373ffffffffffffffffffffffffffffffffffffffff160217905550565b6000600a60009054906101000a900473ffffffffffffffffffffffffffffffffffffffff16905090565b6000600a60009054906101000a900473ffffffffffffffffffffffffffffffffffffffff1673ffffffffffffffffffffffffffffffffffffffff163373ffffffffffffffffffffffffffffffffffffffff1614905090565b6060600180546112e590615216565b80601f016020809104026020016040519081016040528092919081815260200182805461131190615216565b801561135e5780601f106113335761010080835404028352916020019161135e565b820191906000526020600020905b81548152906001019060200180831161134157829003601f168201915b5050505050905090565b61137061127e565b6113af576040517f08c379a00000000000000000000000000000000000000000000000000000000081526004016113a690614ed2565b60405180910390fd5b600073ffffffffffffffffffffffffffffffffffffffff168173ffffffffffffffffffffffffffffffffffffffff16141561141f576040517f08c379a000000000000000000000000000000000000000000000000000000000815260040161141690614cb2565b60405180910390fd5b80601260006101000a81548173ffffffffffffffffffffffffffffffffffffffff021916908373ffffffffffffffffffffffffffffffffffffffff16021790555050565b61146b6124b8565b73ffffffffffffffffffffffffffffffffffffffff168273ffffffffffffffffffffffffffffffffffffffff1614156114d9576040517f08c379a00000000000000000000000000000000000000000000000000000000081526004016114d090614d72565b60405180910390fd5b80600560006114e66124b8565b73ffffffffffffffffffffffffffffffffffffffff1673ffffffffffffffffffffffffffffffffffffffff16815260200190815260200160002060008473ffffffffffffffffffffffffffffffffffffffff1673ffffffffffffffffffffffffffffffffffffffff16815260200190815260200160002060006101000a81548160ff0219169083151502179055508173ffffffffffffffffffffffffffffffffffffffff166115936124b8565b73ffffffffffffffffffffffffffffffffffffffff167f17307eab39ab6107e8899845ad3d59bd9653f200f220920489ca2b5937696c31836040516115d89190614c33565b60405180910390a35050565b6115ec61127e565b61162b576040517f08c379a000000000000000000000000000000000000000000000000000000000815260040161162290614ed2565b60405180910390fd5b600073ffffffffffffffffffffffffffffffffffffffff168173ffffffffffffffffffffffffffffffffffffffff16141561169b576040517f08c379a000000000000000000000000000000000000000000000000000000000815260040161169290614cd2565b60405180910390fd5b80601160006101000a81548173ffffffffffffffffffffffffffffffffffffffff021916908373ffffffffffffffffffffffffffffffffffffffff16021790555050565b6116e761127e565b611726576040517f08c379a000000000000000000000000000000000000000000000000000000000815260040161171d90614ed2565b60405180910390fd5b600073ffffffffffffffffffffffffffffffffffffffff168273ffffffffffffffffffffffffffffffffffffffff161415611796576040517f08c379a000000000000000000000000000000000000000000000000000000000815260040161178d90614e52565b60405180910390fd5b600073ffffffffffffffffffffffffffffffffffffffff168173ffffffffffffffffffffffffffffffffffffffff161415611806576040517f08c379a00000000000000000000000000000000000000000000000000000000081526004016117fd90614d52565b60405180910390fd5b80601460008473ffffffffffffffffffffffffffffffffffffffff1673ffffffffffffffffffffffffffffffffffffffff16815260200190815260200160002060006101000a81548173ffffffffffffffffffffffffffffffffffffffff021916908373ffffffffffffffffffffffffffffffffffffffff1602179055505050565b6118996118936124b8565b83612a15565b6118d8576040517f08c379a00000000000000000000000000000000000000000000000000000000081526004016118cf90614df2565b60405180910390fd5b6118e484848484612f5d565b50505050565b803373ffffffffffffffffffffffffffffffffffffffff1661190b82610ed2565b73ffffffffffffffffffffffffffffffffffffffff1614611961576040517f08c379a000000000000000000000000000000000000000000000000000000000815260040161195890614eb2565b60405180910390fd5b600073ffffffffffffffffffffffffffffffffffffffff16601460003373ffffffffffffffffffffffffffffffffffffffff1673ffffffffffffffffffffffffffffffffffffffff16815260200190815260200160002060009054906101000a900473ffffffffffffffffffffffffffffffffffffffff1673ffffffffffffffffffffffffffffffffffffffff161415611a30576040517f08c379a0000000000000000000000000000000000000000000000000000000008152600401611a2790614e12565b60405180910390fd5b600b805490508210611a77576040517f08c379a0000000000000000000000000000000000000000000000000000000008152600401611a6e90614e32565b60405180910390fd5b6000600b8381548110611ab3577f4e487b7100000000000000000000000000000000000000000000000000000000600052603260045260246000fd5b9060005260206000209060040201604051806101a001604052908160008201548152602001600182015481526020016002820160009054906101000a900467ffffffffffffffff1667ffffffffffffffff1667ffffffffffffffff1681526020016002820160089054906101000a900463ffffffff1663ffffffff1663ffffffff16815260200160028201600c9054906101000a900463ffffffff1663ffffffff1663ffffffff1681526020016002820160109054906101000a900463ffffffff1663ffffffff1663ffffffff1681526020016002820160149054906101000a900461ffff1661ffff1661ffff1681526020016002820160169054906101000a900461ffff1661ffff1661ffff1681526020016002820160189054906101000a900461ffff1661ffff1661ffff16815260200160028201601a9054906101000a900461ffff1661ffff1661ffff16815260200160028201601c9054906101000a900461ffff1661ffff1661ffff16815260200160028201601e9054906101000a900461ffff1661ffff1661ffff1681526020016003820160009054906101000a900460ff1660ff1660ff168152505090506000601360009054906101000a900473ffffffffffffffffffffffffffffffffffffffff1673ffffffffffffffffffffffffffffffffffffffff16630cb6d1e2836040518263ffffffff1660e01b8152600401611cc19190614f32565b60006040518083038186803b158015611cd957600080fd5b505afa158015611ced573d6000803e3d6000fd5b505050506040513d6000823e3d601f19601f82011682018060405250810190611d169190614513565b9050611d4533601160009054906101000a900473ffffffffffffffffffffffffffffffffffffffff1686610b24565b6000601160009054906101000a900473ffffffffffffffffffffffffffffffffffffffff1690506000600d60009054906101000a900460ff1660ff1684610180015160ff1614611d9d57611d9886612fb9565b611d9f565b855b90508173ffffffffffffffffffffffffffffffffffffffff16632492fbeb33601460003373ffffffffffffffffffffffffffffffffffffffff1673ffffffffffffffffffffffffffffffffffffffff16815260200190815260200160002060009054906101000a900473ffffffffffffffffffffffffffffffffffffffff1684876040518563ffffffff1660e01b8152600401611e3f9493929190614be7565b600060405180830381600087803b158015611e5957600080fd5b505af1158015611e6d573d6000803e3d6000fd5b50505050505050505050565b6060611e848261244c565b611ec3576040517f08c379a0000000000000000000000000000000000000000000000000000000008152600401611eba90614dd2565b60405180910390fd5b6000611ecd612fd6565b90506000815111611eed5760405180602001604052806000815250611f18565b80611ef784612fed565b604051602001611f08929190614ba8565b6040516020818303038152906040525b915050919050565b611f28613dbe565b600b8281548110611f62577f4e487b7100000000000000000000000000000000000000000000000000000000600052603260045260246000fd5b9060005260206000209060040201604051806101a001604052908160008201548152602001600182015481526020016002820160009054906101000a900467ffffffffffffffff1667ffffffffffffffff1667ffffffffffffffff1681526020016002820160089054906101000a900463ffffffff1663ffffffff1663ffffffff16815260200160028201600c9054906101000a900463ffffffff1663ffffffff1663ffffffff1681526020016002820160109054906101000a900463ffffffff1663ffffffff1663ffffffff1681526020016002820160149054906101000a900461ffff1661ffff1661ffff1681526020016002820160169054906101000a900461ffff1661ffff1661ffff1681526020016002820160189054906101000a900461ffff1661ffff1661ffff16815260200160028201601a9054906101000a900461ffff1661ffff1661ffff16815260200160028201601c9054906101000a900461ffff1661ffff1661ffff16815260200160028201601e9054906101000a900461ffff1661ffff1661ffff1681526020016003820160009054906101000a900460ff1660ff1660ff16815250509050919050565b6000600560008473ffffffffffffffffffffffffffffffffffffffff1673ffffffffffffffffffffffffffffffffffffffff16815260200190815260200160002060008373ffffffffffffffffffffffffffffffffffffffff1673ffffffffffffffffffffffffffffffffffffffff16815260200190815260200160002060009054906101000a900460ff16905092915050565b6121b461127e565b6121f3576040517f08c379a00000000000000000000000000000000000000000000000000000000081526004016121ea90614ed2565b60405180910390fd5b6121fc8161319a565b50565b823373ffffffffffffffffffffffffffffffffffffffff1661222082610ed2565b73ffffffffffffffffffffffffffffffffffffffff1614612276576040517f08c379a000000000000000000000000000000000000000000000000000000000815260040161226d90614eb2565b60405180910390fd5b6000600b85815481106122b2577f4e487b7100000000000000000000000000000000000000000000000000000000600052603260045260246000fd5b90600052602060002090600402019050600061231185858080601f016020809104026020016040519081016040528093929190818152602001838380828437600081840152601f19601f82011690508083019250505050505050612579565b90506000801b811415612359576040517f08c379a000000000000000000000000000000000000000000000000000000000815260040161235090614d32565b60405180910390fd5b808260010181905550505050505050565b60007f80ac58cd000000000000000000000000000000000000000000000000000000007bffffffffffffffffffffffffffffffffffffffffffffffffffffffff1916827bffffffffffffffffffffffffffffffffffffffffffffffffffffffff1916148061243557507f5b5e139f000000000000000000000000000000000000000000000000000000007bffffffffffffffffffffffffffffffffffffffffffffffffffffffff1916827bffffffffffffffffffffffffffffffffffffffffffffffffffffffff1916145b806124455750612444826132ca565b5b9050919050565b60008073ffffffffffffffffffffffffffffffffffffffff166002600084815260200190815260200160002060009054906101000a900473ffffffffffffffffffffffffffffffffffffffff1673ffffffffffffffffffffffffffffffffffffffff1614159050919050565b600033905090565b816004600083815260200190815260200160002060006101000a81548173ffffffffffffffffffffffffffffffffffffffff021916908373ffffffffffffffffffffffffffffffffffffffff160217905550808273ffffffffffffffffffffffffffffffffffffffff1661253383610ed2565b73ffffffffffffffffffffffffffffffffffffffff167f8c5be1e5ebec7d5bd14f71427d1e84f3dd0314c0f7b2291e5b200ac8c7c3b92560405160405180910390a45050565b600080829050600081511415612595576000801b91505061259e565b60208301519150505b919050565b6000600b604051806101a001604052806000801b81526020016000801b81526020018e67ffffffffffffffff1681526020018d63ffffffff1681526020018c63ffffffff1681526020018b63ffffffff1681526020018a61ffff1681526020018961ffff1681526020018861ffff1681526020018761ffff1681526020018661ffff1681526020018561ffff1681526020018460ff168152509080600181540180825580915050600190039060005260206000209060040201600090919091909150600082015181600001556020820151816001015560408201518160020160006101000a81548167ffffffffffffffff021916908367ffffffffffffffff16021790555060608201518160020160086101000a81548163ffffffff021916908363ffffffff160217905550608082015181600201600c6101000a81548163ffffffff021916908363ffffffff16021790555060a08201518160020160106101000a81548163ffffffff021916908363ffffffff16021790555060c08201518160020160146101000a81548161ffff021916908361ffff16021790555060e08201518160020160166101000a81548161ffff021916908361ffff1602179055506101008201518160020160186101000a81548161ffff021916908361ffff16021790555061012082015181600201601a6101000a81548161ffff021916908361ffff16021790555061014082015181600201601c6101000a81548161ffff021916908361ffff16021790555061016082015181600201601e6101000a81548161ffff021916908361ffff1602179055506101808201518160030160006101000a81548160ff021916908360ff16021790555050506001600b8054905061282991906150e3565b9050612836818f8f613334565b9d9c50505050505050505050505050565b600073ffffffffffffffffffffffffffffffffffffffff168273ffffffffffffffffffffffffffffffffffffffff1614156128b7576040517f08c379a00000000000000000000000000000000000000000000000000000000081526004016128ae90614d92565b60405180910390fd5b6128c08161244c565b15612900576040517f08c379a00000000000000000000000000000000000000000000000000000000081526004016128f790614c92565b60405180910390fd5b61290c60008383613398565b6001600360008473ffffffffffffffffffffffffffffffffffffffff1673ffffffffffffffffffffffffffffffffffffffff168152602001908152602001600020600082825461295c919061505c565b92505081905550816002600083815260200190815260200160002060006101000a81548173ffffffffffffffffffffffffffffffffffffffff021916908373ffffffffffffffffffffffffffffffffffffffff160217905550808273ffffffffffffffffffffffffffffffffffffffff16600073ffffffffffffffffffffffffffffffffffffffff167fddf252ad1be2c89b69c2b068fc378daa952ba7f163c4a11628f55a4df523b3ef60405160405180910390a45050565b6000612a208261244c565b612a5f576040517f08c379a0000000000000000000000000000000000000000000000000000000008152600401612a5690614db2565b60405180910390fd5b6000612a6a83610ed2565b90508073ffffffffffffffffffffffffffffffffffffffff168473ffffffffffffffffffffffffffffffffffffffff161480612ad957508373ffffffffffffffffffffffffffffffffffffffff16612ac18461072e565b73ffffffffffffffffffffffffffffffffffffffff16145b80612aea5750612ae98185612118565b5b91505092915050565b8273ffffffffffffffffffffffffffffffffffffffff16612b1382610ed2565b73ffffffffffffffffffffffffffffffffffffffff1614612b69576040517f08c379a0000000000000000000000000000000000000000000000000000000008152600401612b6090614e92565b60405180910390fd5b600073ffffffffffffffffffffffffffffffffffffffff168273ffffffffffffffffffffffffffffffffffffffff161415612bd9576040517f08c379a0000000000000000000000000000000000000000000000000000000008152600401612bd090614d92565b60405180910390fd5b612be4838383613398565b612bef6000826124c0565b6001600360008573ffffffffffffffffffffffffffffffffffffffff1673ffffffffffffffffffffffffffffffffffffffff1681526020019081526020016000206000828254612c3f91906150e3565b925050819055506001600360008473ffffffffffffffffffffffffffffffffffffffff1673ffffffffffffffffffffffffffffffffffffffff1681526020019081526020016000206000828254612c96919061505c565b92505081905550816002600083815260200190815260200160002060006101000a81548173ffffffffffffffffffffffffffffffffffffffff021916908373ffffffffffffffffffffffffffffffffffffffff160217905550808273ffffffffffffffffffffffffffffffffffffffff168473ffffffffffffffffffffffffffffffffffffffff167fddf252ad1be2c89b69c2b068fc378daa952ba7f163c4a11628f55a4df523b3ef60405160405180910390a4505050565b6000601360009054906101000a900473ffffffffffffffffffffffffffffffffffffffff1673ffffffffffffffffffffffffffffffffffffffff16631ebe57ea836040518263ffffffff1660e01b8152600401612dac9190614c4e565b60206040518083038186803b158015612dc457600080fd5b505afa158015612dd8573d6000803e3d6000fd5b505050506040513d601f19601f82011682018060405250810190612dfc919061467a565b90506000600d60009054906101000a900460ff1660ff168260ff161490508015612e5d57612e4e601160009054906101000a900473ffffffffffffffffffffffffffffffffffffffff16868686611888565b612e5884846134ac565b612f56565b600015156010600086815260200190815260200160002060009054906101000a900460ff1615151415612f03576000612e95846135b0565b905080600e60008781526020019081526020016000208190555084600f60008381526020019081526020016000208190555060016010600087815260200190815260200160002060006101000a81548160ff021916908315150217905550612efd8682612847565b50612f55565b6000600e6000868152602001908152602001600020549050612f49601160009054906101000a900473ffffffffffffffffffffffffffffffffffffffff16878387611888565b612f5381856134ac565b505b5b5050505050565b612f68848484612af3565b612f74848484846136bd565b612fb3576040517f08c379a0000000000000000000000000000000000000000000000000000000008152600401612faa90614ef2565b60405180910390fd5b50505050565b6000600f6000838152602001908152602001600020549050919050565b606060405180602001604052806000815250905090565b60606000821415613035576040518060400160405280600181526020017f30000000000000000000000000000000000000000000000000000000000000008152509050613195565b600082905060005b6000821461306757808061305090615279565b915050600a8261306091906150b2565b915061303d565b60008167ffffffffffffffff8111156130a9577f4e487b7100000000000000000000000000000000000000000000000000000000600052604160045260246000fd5b6040519080825280601f01601f1916602001820160405280156130db5781602001600182028036833780820191505090505b5090505b6000851461318e576001826130f491906150e3565b9150600a8561310391906152c2565b603061310f919061505c565b60f81b81838151811061314b577f4e487b7100000000000000000000000000000000000000000000000000000000600052603260045260246000fd5b60200101907effffffffffffffffffffffffffffffffffffffffffffffffffffffffffffff1916908160001a905350600a8561318791906150b2565b94506130df565b8093505050505b919050565b600073ffffffffffffffffffffffffffffffffffffffff168173ffffffffffffffffffffffffffffffffffffffff16141561320a576040517f08c379a000000000000000000000000000000000000000000000000000000000815260040161320190614cb2565b60405180910390fd5b8073ffffffffffffffffffffffffffffffffffffffff16600a60009054906101000a900473ffffffffffffffffffffffffffffffffffffffff1673ffffffffffffffffffffffffffffffffffffffff167f8be0079c531659141344cd1fd0a4f28419497f9722a3daafe3b4186f6b6457e060405160405180910390a380600a60006101000a81548173ffffffffffffffffffffffffffffffffffffffff021916908373ffffffffffffffffffffffffffffffffffffffff16021790555050565b60007f01ffc9a7000000000000000000000000000000000000000000000000000000007bffffffffffffffffffffffffffffffffffffffffffffffffffffffff1916827bffffffffffffffffffffffffffffffffffffffffffffffffffffffff1916149050919050565b6000600b8481548110613370577f4e487b7100000000000000000000000000000000000000000000000000000000600052603260045260246000fd5b9060005260206000209060040201905082816000018190555081816001018190555050505050565b6133a3838383613854565b600073ffffffffffffffffffffffffffffffffffffffff168373ffffffffffffffffffffffffffffffffffffffff1614156133e6576133e181613859565b613425565b8173ffffffffffffffffffffffffffffffffffffffff168373ffffffffffffffffffffffffffffffffffffffff16146134245761342383826138a2565b5b5b600073ffffffffffffffffffffffffffffffffffffffff168273ffffffffffffffffffffffffffffffffffffffff1614156134685761346381613a0f565b6134a7565b8273ffffffffffffffffffffffffffffffffffffffff168273ffffffffffffffffffffffffffffffffffffffff16146134a6576134a58282613b52565b5b5b505050565b6000601360009054906101000a900473ffffffffffffffffffffffffffffffffffffffff1673ffffffffffffffffffffffffffffffffffffffff1663459efab6836040518263ffffffff1660e01b81526004016135099190614c4e565b6101a06040518083038186803b15801561352257600080fd5b505afa158015613536573d6000803e3d6000fd5b505050506040513d601f19601f8201168201806040525081019061355a91906145cf565b90506135ab83826000015183602001518460400151856060015186608001518760a001518860c001518960e001518a61010001518b61012001518c61014001518d61016001518e6101800151613bd1565b505050565b600080601360009054906101000a900473ffffffffffffffffffffffffffffffffffffffff1673ffffffffffffffffffffffffffffffffffffffff1663459efab6846040518263ffffffff1660e01b815260040161360e9190614c4e565b6101a06040518083038186803b15801561362757600080fd5b505afa15801561363b573d6000803e3d6000fd5b505050506040513d601f19601f8201168201806040525081019061365f91906145cf565b905060006136b1826000015183602001518460400151856060015186608001518760a001518860c001518960e001518a61010001518b61012001518c61014001518d61016001518e61018001516125a3565b90508092505050919050565b60006136de8473ffffffffffffffffffffffffffffffffffffffff16613dab565b15613847578373ffffffffffffffffffffffffffffffffffffffff1663150b7a026137076124b8565b8786866040518563ffffffff1660e01b81526004016137299493929190614be7565b602060405180830381600087803b15801561374357600080fd5b505af192505050801561377457506040513d601f19601f8201168201806040525081019061377191906144ea565b60015b6137f7573d80600081146137a4576040519150601f19603f3d011682016040523d82523d6000602084013e6137a9565b606091505b506000815114156137ef576040517f08c379a00000000000000000000000000000000000000000000000000000000081526004016137e690614ef2565b60405180910390fd5b805181602001fd5b63150b7a0260e01b7bffffffffffffffffffffffffffffffffffffffffffffffffffffffff1916817bffffffffffffffffffffffffffffffffffffffffffffffffffffffff19161491505061384c565b600190505b949350505050565b505050565b6008805490506009600083815260200190815260200160002081905550600881908060018154018082558091505060019003906000526020600020016000909190919091505550565b600060016138af84611094565b6138b991906150e3565b905060006007600084815260200190815260200160002054905081811461399e576000600660008673ffffffffffffffffffffffffffffffffffffffff1673ffffffffffffffffffffffffffffffffffffffff168152602001908152602001600020600084815260200190815260200160002054905080600660008773ffffffffffffffffffffffffffffffffffffffff1673ffffffffffffffffffffffffffffffffffffffff168152602001908152602001600020600084815260200190815260200160002081905550816007600083815260200190815260200160002081905550505b6007600084815260200190815260200160002060009055600660008573ffffffffffffffffffffffffffffffffffffffff1673ffffffffffffffffffffffffffffffffffffffff16815260200190815260200160002060008381526020019081526020016000206000905550505050565b60006001600880549050613a2391906150e3565b9050600060096000848152602001908152602001600020549050600060088381548110613a79577f4e487b7100000000000000000000000000000000000000000000000000000000600052603260045260246000fd5b906000526020600020015490508060088381548110613ac1577f4e487b7100000000000000000000000000000000000000000000000000000000600052603260045260246000fd5b906000526020600020018190555081600960008381526020019081526020016000208190555060096000858152602001908152602001600020600090556008805480613b36577f4e487b7100000000000000000000000000000000000000000000000000000000600052603160045260246000fd5b6001900381819060005260206000200160009055905550505050565b6000613b5d83611094565b905081600660008573ffffffffffffffffffffffffffffffffffffffff1673ffffffffffffffffffffffffffffffffffffffff168152602001908152602001600020600083815260200190815260200160002081905550806007600084815260200190815260200160002081905550505050565b6000600b8f81548110613c0d577f4e487b7100000000000000000000000000000000000000000000000000000000600052603260045260246000fd5b906000526020600020906004020190508d81600001819055508c81600101819055508b8160020160006101000a81548167ffffffffffffffff021916908367ffffffffffffffff1602179055508a8160020160086101000a81548163ffffffff021916908363ffffffff1602179055508981600201600c6101000a81548163ffffffff021916908363ffffffff160217905550888160020160106101000a81548163ffffffff021916908363ffffffff160217905550878160020160146101000a81548161ffff021916908361ffff160217905550868160020160166101000a81548161ffff021916908361ffff160217905550858160020160186101000a81548161ffff021916908361ffff1602179055508481600201601a6101000a81548161ffff021916908361ffff1602179055508381600201601c6101000a81548161ffff021916908361ffff1602179055508281600201601e6101000a81548161ffff021916908361ffff160217905550818160030160006101000a81548160ff021916908360ff160217905550505050505050505050505050505050565b600080823b905060008111915050919050565b604051806101a001604052806000801916815260200160008019168152602001600067ffffffffffffffff168152602001600063ffffffff168152602001600063ffffffff168152602001600063ffffffff168152602001600061ffff168152602001600061ffff168152602001600061ffff168152602001600061ffff168152602001600061ffff168152602001600061ffff168152602001600060ff1681525090565b6000613e76613e7184614fb7565b614f92565b905082815260208101848484011115613e8e57600080fd5b613e998482856151d4565b509392505050565b6000613eb4613eaf84614fb7565b614f92565b905082815260208101848484011115613ecc57600080fd5b613ed78482856151e3565b509392505050565b6000613ef2613eed84614fe8565b614f92565b905082815260208101848484011115613f0a57600080fd5b613f158482856151d4565b509392505050565b600081359050613f2c8161571d565b92915050565b600081359050613f4181615734565b92915050565b600081519050613f568161574b565b92915050565b600081359050613f6b81615762565b92915050565b600081519050613f8081615762565b92915050565b600082601f830112613f9757600080fd5b8135613fa7848260208601613e63565b91505092915050565b600082601f830112613fc157600080fd5b8151613fd1848260208601613ea1565b91505092915050565b60008083601f840112613fec57600080fd5b8235905067ffffffffffffffff81111561400557600080fd5b60208301915083600182028301111561401d57600080fd5b9250929050565b600082601f83011261403557600080fd5b8135614045848260208601613edf565b91505092915050565b60006101a0828403121561406157600080fd5b61406c6101a0614f92565b9050600061407c84828501613f47565b600083015250602061409084828501613f47565b60208301525060406140a4848285016141eb565b60408301525060606140b8848285016141c1565b60608301525060806140cc848285016141c1565b60808301525060a06140e0848285016141c1565b60a08301525060c06140f484828501614182565b60c08301525060e061410884828501614182565b60e08301525061010061411d84828501614182565b6101008301525061012061413384828501614182565b6101208301525061014061414984828501614182565b6101408301525061016061415f84828501614182565b6101608301525061018061417584828501614200565b6101808301525092915050565b60008151905061419181615779565b92915050565b6000813590506141a681615790565b92915050565b6000813590506141bb816157a7565b92915050565b6000815190506141d0816157a7565b92915050565b6000813590506141e5816157be565b92915050565b6000815190506141fa816157be565b92915050565b60008151905061420f816157d5565b92915050565b60006020828403121561422757600080fd5b600061423584828501613f1d565b91505092915050565b6000806040838503121561425157600080fd5b600061425f85828601613f1d565b925050602061427085828601613f1d565b9150509250929050565b60008060006060848603121561428f57600080fd5b600061429d86828701613f1d565b93505060206142ae86828701613f1d565b92505060406142bf86828701614197565b9150509250925092565b600080600080608085870312156142df57600080fd5b60006142ed87828801613f1d565b94505060206142fe87828801613f1d565b935050604061430f87828801614197565b925050606085013567ffffffffffffffff81111561432c57600080fd5b61433887828801613f86565b91505092959194509250565b6000806040838503121561435757600080fd5b600061436585828601613f1d565b925050602061437685828601613f32565b9150509250929050565b6000806040838503121561439357600080fd5b60006143a185828601613f1d565b92505060206143b285828601614197565b9150509250929050565b6000806000606084860312156143d157600080fd5b60006143df86828701613f1d565b93505060206143f086828701614197565b925050604084013567ffffffffffffffff81111561440d57600080fd5b61441986828701613f86565b9150509250925092565b600080600080600080600060e0888a03121561443e57600080fd5b600061444c8a828b01613f47565b975050602061445d8a828b01614182565b965050604061446e8a828b01614182565b955050606061447f8a828b01614182565b94505060806144908a828b01614182565b93505060a06144a18a828b01614182565b92505060c06144b28a828b01614182565b91505092959891949750929550565b6000602082840312156144d357600080fd5b60006144e184828501613f5c565b91505092915050565b6000602082840312156144fc57600080fd5b600061450a84828501613f71565b91505092915050565b60006020828403121561452557600080fd5b600082015167ffffffffffffffff81111561453f57600080fd5b61454b84828501613fb0565b91505092915050565b6000806000806080858703121561456a57600080fd5b600085013567ffffffffffffffff81111561458457600080fd5b61459087828801614024565b94505060206145a1878288016141d6565b93505060406145b2878288016141ac565b92505060606145c3878288016141ac565b91505092959194509250565b60006101a082840312156145e257600080fd5b60006145f08482850161404e565b91505092915050565b60006020828403121561460b57600080fd5b600061461984828501614197565b91505092915050565b60008060006040848603121561463757600080fd5b600061464586828701614197565b935050602084013567ffffffffffffffff81111561466257600080fd5b61466e86828701613fda565b92509250509250925092565b60006020828403121561468c57600080fd5b600061469a84828501614200565b91505092915050565b6146ac81615117565b82525050565b6146bb81615129565b82525050565b6146ca81615135565b82525050565b60006146db82615019565b6146e5818561502f565b93506146f58185602086016151e3565b6146fe816153af565b840191505092915050565b600061471482615024565b61471e8185615040565b935061472e8185602086016151e3565b614737816153af565b840191505092915050565b600061474d82615024565b6147578185615051565b93506147678185602086016151e3565b80840191505092915050565b6000614780600e83615040565b915061478b826153c0565b602082019050919050565b60006147a3600f83615040565b91506147ae826153e9565b602082019050919050565b60006147c6601483615040565b91506147d182615412565b602082019050919050565b60006147e9600d83615040565b91506147f48261543b565b602082019050919050565b600061480c600c83615040565b915061481782615464565b602082019050919050565b600061482f600a83615040565b915061483a8261548d565b602082019050919050565b6000614852601683615040565b915061485d826154b6565b602082019050919050565b6000614875601183615040565b9150614880826154df565b602082019050919050565b6000614898600c83615040565b91506148a382615508565b602082019050919050565b60006148bb601183615040565b91506148c682615531565b602082019050919050565b60006148de601183615040565b91506148e98261555a565b602082019050919050565b6000614901601683615040565b915061490c82615583565b602082019050919050565b6000614924600a83615040565b915061492f826155ac565b602082019050919050565b6000614947601083615040565b9150614952826155d5565b602082019050919050565b600061496a601283615040565b9150614975826155fe565b602082019050919050565b600061498d600e83615040565b915061499882615627565b602082019050919050565b60006149b0600783615040565b91506149bb82615650565b602082019050919050565b60006149d3600983615040565b91506149de82615679565b602082019050919050565b60006149f6601283615040565b9150614a01826156a2565b602082019050919050565b6000614a19601e83615040565b9150614a24826156cb565b602082019050919050565b6000614a3c601383615040565b9150614a47826156f4565b602082019050919050565b6101a082016000820151614a6960008501826146c1565b506020820151614a7c60208501826146c1565b506040820151614a8f6040850182614b8a565b506060820151614aa26060850182614b7b565b506080820151614ab56080850182614b7b565b5060a0820151614ac860a0850182614b7b565b5060c0820151614adb60c0850182614b5d565b5060e0820151614aee60e0850182614b5d565b50610100820151614b03610100850182614b5d565b50610120820151614b18610120850182614b5d565b50610140820151614b2d610140850182614b5d565b50610160820151614b42610160850182614b5d565b50610180820151614b57610180850182614b99565b50505050565b614b668161516b565b82525050565b614b7581615199565b82525050565b614b84816151a3565b82525050565b614b93816151b3565b82525050565b614ba2816151c7565b82525050565b6000614bb48285614742565b9150614bc08284614742565b91508190509392505050565b6000602082019050614be160008301846146a3565b92915050565b6000608082019050614bfc60008301876146a3565b614c0960208301866146a3565b614c166040830185614b6c565b8181036060830152614c2881846146d0565b905095945050505050565b6000602082019050614c4860008301846146b2565b92915050565b60006020820190508181036000830152614c6881846146d0565b905092915050565b60006020820190508181036000830152614c8a8184614709565b905092915050565b60006020820190508181036000830152614cab81614773565b9050919050565b60006020820190508181036000830152614ccb81614796565b9050919050565b60006020820190508181036000830152614ceb816147b9565b9050919050565b60006020820190508181036000830152614d0b816147dc565b9050919050565b60006020820190508181036000830152614d2b816147ff565b9050919050565b60006020820190508181036000830152614d4b81614822565b9050919050565b60006020820190508181036000830152614d6b81614845565b9050919050565b60006020820190508181036000830152614d8b81614868565b9050919050565b60006020820190508181036000830152614dab8161488b565b9050919050565b60006020820190508181036000830152614dcb816148ae565b9050919050565b60006020820190508181036000830152614deb816148d1565b9050919050565b60006020820190508181036000830152614e0b816148f4565b9050919050565b60006020820190508181036000830152614e2b81614917565b9050919050565b60006020820190508181036000830152614e4b8161493a565b9050919050565b60006020820190508181036000830152614e6b8161495d565b9050919050565b60006020820190508181036000830152614e8b81614980565b9050919050565b60006020820190508181036000830152614eab816149a3565b9050919050565b60006020820190508181036000830152614ecb816149c6565b9050919050565b60006020820190508181036000830152614eeb816149e9565b9050919050565b60006020820190508181036000830152614f0b81614a0c565b9050919050565b60006020820190508181036000830152614f2b81614a2f565b9050919050565b60006101a082019050614f486000830184614a52565b92915050565b6000602082019050614f636000830184614b6c565b92915050565b6000604082019050614f7e6000830185614b6c565b614f8b6020830184614b6c565b9392505050565b6000614f9c614fad565b9050614fa88282615248565b919050565b6000604051905090565b600067ffffffffffffffff821115614fd257614fd1615380565b5b614fdb826153af565b9050602081019050919050565b600067ffffffffffffffff82111561500357615002615380565b5b61500c826153af565b9050602081019050919050565b600081519050919050565b600081519050919050565b600082825260208201905092915050565b600082825260208201905092915050565b600081905092915050565b600061506782615199565b915061507283615199565b9250827fffffffffffffffffffffffffffffffffffffffffffffffffffffffffffffffff038211156150a7576150a66152f3565b5b828201905092915050565b60006150bd82615199565b91506150c883615199565b9250826150d8576150d7615322565b5b828204905092915050565b60006150ee82615199565b91506150f983615199565b92508282101561510c5761510b6152f3565b5b828203905092915050565b600061512282615179565b9050919050565b60008115159050919050565b6000819050919050565b60007fffffffff0000000000000000000000000000000000000000000000000000000082169050919050565b600061ffff82169050919050565b600073ffffffffffffffffffffffffffffffffffffffff82169050919050565b6000819050919050565b600063ffffffff82169050919050565b600067ffffffffffffffff82169050919050565b600060ff82169050919050565b82818337600083830152505050565b60005b838110156152015780820151818401526020810190506151e6565b83811115615210576000848401525b50505050565b6000600282049050600182168061522e57607f821691505b6020821081141561524257615241615351565b5b50919050565b615251826153af565b810181811067ffffffffffffffff821117156152705761526f615380565b5b80604052505050565b600061528482615199565b91507fffffffffffffffffffffffffffffffffffffffffffffffffffffffffffffffff8214156152b7576152b66152f3565b5b600182019050919050565b60006152cd82615199565b91506152d883615199565b9250826152e8576152e7615322565b5b828206905092915050565b7f4e487b7100000000000000000000000000000000000000000000000000000000600052601160045260246000fd5b7f4e487b7100000000000000000000000000000000000000000000000000000000600052601260045260246000fd5b7f4e487b7100000000000000000000000000000000000000000000000000000000600052602260045260246000fd5b7f4e487b7100000000000000000000000000000000000000000000000000000000600052604160045260246000fd5b6000601f19601f8301169050919050565b7f416c7265616479206d696e746564000000000000000000000000000000000000600082015250565b7f496e76616c696420616464726573730000000000000000000000000000000000600082015250565b7f496e76616c696420676174657761792061646472000000000000000000000000600082015250565b7f43757272656e74206f776e657200000000000000000000000000000000000000600082015250565b7f496e76616c696420616464720000000000000000000000000000000000000000600082015250565b7f456d707479206e616d6500000000000000000000000000000000000000000000600082015250565b7f496e76616c69642073696465636861696e206164647200000000000000000000600082015250565b7f417070726f766520746f2063616c6c6572000000000000000000000000000000600082015250565b7f5a65726f20616464726573730000000000000000000000000000000000000000600082015250565b7f4e6f6e6578697374656e7420746f6b656e000000000000000000000000000000600082015250565b7f6e6f6e6578697374656e7420746f6b656e000000000000000000000000000000600082015250565b7f4e6f74206f776e6572206e6f7220617070726f76656400000000000000000000600082015250565b7f4e6f74206d617070656400000000000000000000000000000000000000000000600082015250565b7f496e76616c696420746f6b656e20496400000000000000000000000000000000600082015250565b7f496e76616c6964206f776e657220616464720000000000000000000000000000600082015250565b7f416c7265616479206d6170706564000000000000000000000000000000000000600082015250565b7f4e6f74206f776e00000000000000000000000000000000000000000000000000600082015250565b7f4e6f74206f776e65720000000000000000000000000000000000000000000000600082015250565b7f496e76616c6964207065726d697373696f6e0000000000000000000000000000600082015250565b7f4e6f6e20455243373231526563656976657220696d706c656d656e7465720000600082015250565b7f496e646578206f7574206f6620626f756e647300000000000000000000000000600082015250565b61572681615117565b811461573157600080fd5b50565b61573d81615129565b811461574857600080fd5b50565b61575481615135565b811461575f57600080fd5b50565b61576b8161513f565b811461577657600080fd5b50565b6157828161516b565b811461578d57600080fd5b50565b61579981615199565b81146157a457600080fd5b50565b6157b0816151a3565b81146157bb57600080fd5b50565b6157c7816151b3565b81146157d257600080fd5b50565b6157de816151c7565b81146157e957600080fd5b5056fea264697066735822122007e9e6694a0cd1d4c05c90191d84821f6d8bdbe67125af8f1db5228efedb8a7e64736f6c63430008040033",
  "immutableReferences": {},
  "source": "pragma solidity ^0.8.0;\n\n// SPDX-License-Identifier: GPL-3.0 License\n\nimport '../common/DragonFactory.sol';\n\ninterface IMainnetGateway {\n\tfunction depositDragon(\n\t\taddress from,\n\t\taddress to,\n\t\tuint256 uid,\n\t\tbytes calldata data\n\t) external;\n}\n\ncontract MainnetTransferableDragon is DragonFactory {\n\t// map mainnet address to sidechain address\n\tmapping(address => address) private _mainnetAddressToSidechain;\n\n\tconstructor(\n\t\taddress gateway,\n\t\taddress dragonDecoder,\n\t\tuint8 blockchainId\n\t) DragonFactory(gateway, dragonDecoder, blockchainId) {}\n\n\t// Setter to update who the gateway is\n\tfunction setGatewayAddress(address gateway) external onlyOwner {\n\t\trequire(gateway != address(0), 'Invalid gateway addr');\n\t\t_gateway = gateway;\n\t}\n\n\tfunction retrieveToken(\n\t\taddress receiver,\n\t\tuint256 _tokenId,\n\t\tbytes memory _data\n\t) public {\n\t\trequire(msg.sender == _gateway, 'Invalid permission');\n\t\trequire(receiver != address(0), 'Invalid addr');\n\t\t_mintReceivedDragon(receiver, _tokenId, _data);\n\t}\n\n\tfunction undoMapping(address owner, address sidechainAddress) external onlyOwner {\n\t\trequire(owner != address(0), 'Invalid owner addr');\n\t\trequire(sidechainAddress != address(0), 'Invalid sidechain addr');\n\t\t_mainnetAddressToSidechain[owner] = sidechainAddress;\n\t}\n\n\tfunction mapContractToSidechain(address sidechainAddress) external {\n\t\trequire(sidechainAddress != address(0), 'Invalid sidechain addr');\n\t\trequire(\n\t\t\t_mainnetAddressToSidechain[msg.sender] == address(0),\n\t\t\t'Already mapped'\n\t\t);\n\t\t_mainnetAddressToSidechain[msg.sender] = sidechainAddress;\n\t}\n\n\tfunction isMap(address sidechainAddress) external view returns (bool) {\n\t\trequire(sidechainAddress != address(0), 'Invalid sidechain addr');\n\t\treturn _mainnetAddressToSidechain[msg.sender] == sidechainAddress;\n\t}\n\n\tfunction transferToGateway(uint256 _tokenId) public onlyDragonOwner(_tokenId) {\n\t\trequire(\n\t\t\t_mainnetAddressToSidechain[msg.sender] != address(0),\n\t\t\t'Not mapped'\n\t\t);\n\t\trequire(_tokenId < dragons.length, 'Invalid token Id');\n\n\t\tDragonLibrary.Dragon memory dragon = dragons[_tokenId];\n\t\tbytes memory encodedDragon = IDragonSerializer(_dragonDecoderAddress).encodeDragonToBytes(dragon);\n\n\t\t// Transfer ownership\n\t\ttransferFrom(msg.sender, _gateway, _tokenId);\n\n\t\t// Trigger trnsference in gateway\n\n\t\tIMainnetGateway gateway = IMainnetGateway(_gateway);\n\t\tuint256 originalTokenId = dragon.blockchainOriginId == _blockchainId ? _tokenId : _getForeignTokenId(_tokenId);\n\t\tgateway.depositDragon(msg.sender, _mainnetAddressToSidechain[msg.sender], originalTokenId, encodedDragon);\n\t}\n}\n",
  "sourcePath": "/usr/src/app/contractGetter/contracts/mainnet/MainnetTransferableDragon.sol",
  "compiler": {
    "name": "solc",
    "version": "0.8.4+commit.c7e474f2.Emscripten.clang"
  },
  "schemaVersion": "3.4.1",
  "updatedAt": "2023-12-04T02:41:33.409Z",
  "networkType": "ethereum",
  "devdoc": {
    "kind": "dev",
    "methods": {
      "approve(address,uint256)": {
        "details": "See {IERC721-approve}."
      },
      "balanceOf(address)": {
        "details": "See {IERC721-balanceOf}."
      },
      "getApproved(uint256)": {
        "details": "See {IERC721-getApproved}."
      },
      "isApprovedForAll(address,address)": {
        "details": "See {IERC721-isApprovedForAll}."
      },
      "isOwner()": {
        "returns": {
          "_0": "true if `msg.sender` is the owner of the contract."
        }
      },
      "name()": {
        "details": "See {IERC721Metadata-name}."
      },
      "owner()": {
        "returns": {
          "_0": "the address of the owner."
        }
      },
      "ownerOf(uint256)": {
        "details": "See {IERC721-ownerOf}."
      },
      "renounceOwnership()": {
        "details": "Allows the current owner to relinquish control of the contract."
      },
      "safeTransferFrom(address,address,uint256)": {
        "details": "See {IERC721-safeTransferFrom}."
      },
      "safeTransferFrom(address,address,uint256,bytes)": {
        "details": "See {IERC721-safeTransferFrom}."
      },
      "setApprovalForAll(address,bool)": {
        "details": "See {IERC721-setApprovalForAll}."
      },
      "supportsInterface(bytes4)": {
        "details": "See {IERC165-supportsInterface}."
      },
      "symbol()": {
        "details": "See {IERC721Metadata-symbol}."
      },
      "tokenByIndex(uint256)": {
        "details": "See {IERC721Enumerable-tokenByIndex}."
      },
      "tokenOfOwnerByIndex(address,uint256)": {
        "details": "See {IERC721Enumerable-tokenOfOwnerByIndex}."
      },
      "tokenURI(uint256)": {
        "details": "See {IERC721Metadata-tokenURI}."
      },
      "totalSupply()": {
        "details": "See {IERC721Enumerable-totalSupply}."
      },
      "transferFrom(address,address,uint256)": {
        "details": "See {IERC721-transferFrom}."
      },
      "transferOwnership(address)": {
        "details": "Allows the current owner to transfer control of the contract to a newOwner.",
        "params": {
          "newOwner": "The address to transfer ownership to."
        }
      }
    },
    "version": 1
  },
  "userdoc": {
    "kind": "user",
    "methods": {
      "createDragon(string,uint64,uint32,uint32)": {
        "notice": "Creates new Dragon and give it to its creator."
      },
      "renounceOwnership()": {
        "notice": "Renouncing to ownership will leave the contract without an owner. It will not be possible to call the functions with the `onlyOwner` modifier anymore."
      }
    },
    "version": 1
  }
}