{
  "contractName": "MainnetMerchantableDragon",
  "abi": [
    {
      "inputs": [
        {
          "internalType": "address",
          "name": "gateway",
          "type": "address"
        },
        {
          "internalType": "address",
          "name": "dragonDecoder",
          "type": "address"
        },
        {
          "internalType": "uint8",
          "name": "blockchainId",
          "type": "uint8"
        }
      ],
      "stateMutability": "nonpayable",
      "type": "constructor"
    },
    {
      "anonymous": false,
      "inputs": [
        {
          "indexed": true,
          "internalType": "address",
          "name": "owner",
          "type": "address"
        },
        {
          "indexed": true,
          "internalType": "address",
          "name": "approved",
          "type": "address"
        },
        {
          "indexed": true,
          "internalType": "uint256",
          "name": "tokenId",
          "type": "uint256"
        }
      ],
      "name": "Approval",
      "type": "event"
    },
    {
      "anonymous": false,
      "inputs": [
        {
          "indexed": true,
          "internalType": "address",
          "name": "owner",
          "type": "address"
        },
        {
          "indexed": true,
          "internalType": "address",
          "name": "operator",
          "type": "address"
        },
        {
          "indexed": false,
          "internalType": "bool",
          "name": "approved",
          "type": "bool"
        }
      ],
      "name": "ApprovalForAll",
      "type": "event"
    },
    {
      "anonymous": false,
      "inputs": [
        {
          "indexed": false,
          "internalType": "uint256",
          "name": "dragonId",
          "type": "uint256"
        },
        {
          "indexed": false,
          "internalType": "uint256",
          "name": "genes",
          "type": "uint256"
        }
      ],
      "name": "NewDragon",
      "type": "event"
    },
    {
      "anonymous": false,
      "inputs": [
        {
          "indexed": true,
          "internalType": "address",
          "name": "previousOwner",
          "type": "address"
        },
        {
          "indexed": true,
          "internalType": "address",
          "name": "newOwner",
          "type": "address"
        }
      ],
      "name": "OwnershipTransferred",
      "type": "event"
    },
    {
      "anonymous": false,
      "inputs": [
        {
          "indexed": true,
          "internalType": "address",
          "name": "from",
          "type": "address"
        },
        {
          "indexed": true,
          "internalType": "address",
          "name": "to",
          "type": "address"
        },
        {
          "indexed": true,
          "internalType": "uint256",
          "name": "tokenId",
          "type": "uint256"
        }
      ],
      "name": "Transfer",
      "type": "event"
    },
    {
      "inputs": [
        {
          "internalType": "address",
          "name": "to",
          "type": "address"
        },
        {
          "internalType": "uint256",
          "name": "tokenId",
          "type": "uint256"
        }
      ],
      "name": "approve",
      "outputs": [],
      "stateMutability": "nonpayable",
      "type": "function"
    },
    {
      "inputs": [
        {
          "internalType": "address",
          "name": "owner",
          "type": "address"
        }
      ],
      "name": "balanceOf",
      "outputs": [
        {
          "internalType": "uint256",
          "name": "",
          "type": "uint256"
        }
      ],
      "stateMutability": "view",
      "type": "function"
    },
    {
      "inputs": [
        {
          "internalType": "string",
          "name": "_name",
          "type": "string"
        },
        {
          "internalType": "uint64",
          "name": "_creationTime",
          "type": "uint64"
        },
        {
          "internalType": "uint32",
          "name": "_dadId",
          "type": "uint32"
        },
        {
          "internalType": "uint32",
          "name": "_motherId",
          "type": "uint32"
        }
      ],
      "name": "createDragon",
      "outputs": [],
      "stateMutability": "nonpayable",
      "type": "function"
    },
    {
      "inputs": [
        {
          "internalType": "uint256",
          "name": "",
          "type": "uint256"
        }
      ],
      "name": "dragonIndexToOwner",
      "outputs": [
        {
          "internalType": "address",
          "name": "",
          "type": "address"
        }
      ],
      "stateMutability": "view",
      "type": "function"
    },
    {
      "inputs": [
        {
          "internalType": "uint256",
          "name": "tokenId",
          "type": "uint256"
        }
      ],
      "name": "getApproved",
      "outputs": [
        {
          "internalType": "address",
          "name": "",
          "type": "address"
        }
      ],
      "stateMutability": "view",
      "type": "function"
    },
    {
      "inputs": [
        {
          "internalType": "uint256",
          "name": "_dragonId",
          "type": "uint256"
        }
      ],
      "name": "getDragonById",
      "outputs": [
        {
          "internalType": "bytes32",
          "name": "name",
          "type": "bytes32"
        },
        {
          "internalType": "uint32",
          "name": "dadId",
          "type": "uint32"
        },
        {
          "internalType": "uint32",
          "name": "motherId",
          "type": "uint32"
        },
        {
          "internalType": "uint32",
          "name": "currentExperience",
          "type": "uint32"
        },
        {
          "internalType": "uint16",
          "name": "health",
          "type": "uint16"
        },
        {
          "internalType": "uint16",
          "name": "strength",
          "type": "uint16"
        },
        {
          "internalType": "uint16",
          "name": "agility",
          "type": "uint16"
        },
        {
          "internalType": "uint16",
          "name": "fortitude",
          "type": "uint16"
        }
      ],
      "stateMutability": "view",
      "type": "function"
    },
    {
      "inputs": [
        {
          "internalType": "address",
          "name": "owner",
          "type": "address"
        }
      ],
      "name": "getDragonsIdsByOwner",
      "outputs": [
        {
          "internalType": "uint256[]",
          "name": "tokenIds",
          "type": "uint256[]"
        }
      ],
      "stateMutability": "view",
      "type": "function"
    },
    {
      "inputs": [
        {
          "internalType": "uint256",
          "name": "id",
          "type": "uint256"
        }
      ],
      "name": "getVisualAttributes",
      "outputs": [
        {
          "internalType": "uint16",
          "name": "head",
          "type": "uint16"
        },
        {
          "internalType": "uint16",
          "name": "body",
          "type": "uint16"
        },
        {
          "internalType": "uint16",
          "name": "wings",
          "type": "uint16"
        }
      ],
      "stateMutability": "view",
      "type": "function"
    },
    {
      "inputs": [
        {
          "internalType": "address",
          "name": "owner",
          "type": "address"
        },
        {
          "internalType": "address",
          "name": "operator",
          "type": "address"
        }
      ],
      "name": "isApprovedForAll",
      "outputs": [
        {
          "internalType": "bool",
          "name": "",
          "type": "bool"
        }
      ],
      "stateMutability": "view",
      "type": "function"
    },
    {
      "inputs": [
        {
          "internalType": "uint256",
          "name": "_dragonId",
          "type": "uint256"
        }
      ],
      "name": "isEgg",
      "outputs": [
        {
          "internalType": "bool",
          "name": "",
          "type": "bool"
        }
      ],
      "stateMutability": "view",
      "type": "function"
    },
    {
      "inputs": [
        {
          "internalType": "address",
          "name": "sidechainAddress",
          "type": "address"
        }
      ],
      "name": "isMap",
      "outputs": [
        {
          "internalType": "bool",
          "name": "",
          "type": "bool"
        }
      ],
      "stateMutability": "view",
      "type": "function"
    },
    {
      "inputs": [],
      "name": "isOwner",
      "outputs": [
        {
          "internalType": "bool",
          "name": "",
          "type": "bool"
        }
      ],
      "stateMutability": "view",
      "type": "function"
    },
    {
      "inputs": [
        {
          "internalType": "address",
          "name": "sidechainAddress",
          "type": "address"
        }
      ],
      "name": "mapContractToSidechain",
      "outputs": [],
      "stateMutability": "nonpayable",
      "type": "function"
    },
    {
      "inputs": [],
      "name": "name",
      "outputs": [
        {
          "internalType": "string",
          "name": "",
          "type": "string"
        }
      ],
      "stateMutability": "view",
      "type": "function"
    },
    {
      "inputs": [],
      "name": "owner",
      "outputs": [
        {
          "internalType": "address",
          "name": "",
          "type": "address"
        }
      ],
      "stateMutability": "view",
      "type": "function"
    },
    {
      "inputs": [
        {
          "internalType": "uint256",
          "name": "tokenId",
          "type": "uint256"
        }
      ],
      "name": "ownerOf",
      "outputs": [
        {
          "internalType": "address",
          "name": "",
          "type": "address"
        }
      ],
      "stateMutability": "view",
      "type": "function"
    },
    {
      "inputs": [],
      "name": "renounceOwnership",
      "outputs": [],
      "stateMutability": "nonpayable",
      "type": "function"
    },
    {
      "inputs": [
        {
          "internalType": "address",
          "name": "receiver",
          "type": "address"
        },
        {
          "internalType": "uint256",
          "name": "_tokenId",
          "type": "uint256"
        },
        {
          "internalType": "bytes",
          "name": "_data",
          "type": "bytes"
        }
      ],
      "name": "retrieveToken",
      "outputs": [],
      "stateMutability": "nonpayable",
      "type": "function"
    },
    {
      "inputs": [
        {
          "internalType": "address",
          "name": "from",
          "type": "address"
        },
        {
          "internalType": "address",
          "name": "to",
          "type": "address"
        },
        {
          "internalType": "uint256",
          "name": "tokenId",
          "type": "uint256"
        }
      ],
      "name": "safeTransferFrom",
      "outputs": [],
      "stateMutability": "nonpayable",
      "type": "function"
    },
    {
      "inputs": [
        {
          "internalType": "address",
          "name": "from",
          "type": "address"
        },
        {
          "internalType": "address",
          "name": "to",
          "type": "address"
        },
        {
          "internalType": "uint256",
          "name": "tokenId",
          "type": "uint256"
        },
        {
          "internalType": "bytes",
          "name": "_data",
          "type": "bytes"
        }
      ],
      "name": "safeTransferFrom",
      "outputs": [],
      "stateMutability": "nonpayable",
      "type": "function"
    },
    {
      "inputs": [
        {
          "internalType": "address",
          "name": "operator",
          "type": "address"
        },
        {
          "internalType": "bool",
          "name": "approved",
          "type": "bool"
        }
      ],
      "name": "setApprovalForAll",
      "outputs": [],
      "stateMutability": "nonpayable",
      "type": "function"
    },
    {
      "inputs": [
        {
          "internalType": "address",
          "name": "gateway",
          "type": "address"
        }
      ],
      "name": "setGatewayAddress",
      "outputs": [],
      "stateMutability": "nonpayable",
      "type": "function"
    },
    {
      "inputs": [
        {
          "internalType": "address",
          "name": "genesLaboratoryAddress",
          "type": "address"
        }
      ],
      "name": "setGenesLaboratoryAddress",
      "outputs": [],
      "stateMutability": "nonpayable",
      "type": "function"
    },
    {
      "inputs": [
        {
          "internalType": "uint256",
          "name": "_dragonId",
          "type": "uint256"
        },
        {
          "internalType": "string",
          "name": "_name",
          "type": "string"
        }
      ],
      "name": "setName",
      "outputs": [],
      "stateMutability": "nonpayable",
      "type": "function"
    },
    {
      "inputs": [
        {
          "internalType": "bytes4",
          "name": "interfaceId",
          "type": "bytes4"
        }
      ],
      "name": "supportsInterface",
      "outputs": [
        {
          "internalType": "bool",
          "name": "",
          "type": "bool"
        }
      ],
      "stateMutability": "view",
      "type": "function"
    },
    {
      "inputs": [],
      "name": "symbol",
      "outputs": [
        {
          "internalType": "string",
          "name": "",
          "type": "string"
        }
      ],
      "stateMutability": "view",
      "type": "function"
    },
    {
      "inputs": [
        {
          "internalType": "uint256",
          "name": "index",
          "type": "uint256"
        }
      ],
      "name": "tokenByIndex",
      "outputs": [
        {
          "internalType": "uint256",
          "name": "",
          "type": "uint256"
        }
      ],
      "stateMutability": "view",
      "type": "function"
    },
    {
      "inputs": [
        {
          "internalType": "address",
          "name": "owner",
          "type": "address"
        },
        {
          "internalType": "uint256",
          "name": "index",
          "type": "uint256"
        }
      ],
      "name": "tokenOfOwnerByIndex",
      "outputs": [
        {
          "internalType": "uint256",
          "name": "",
          "type": "uint256"
        }
      ],
      "stateMutability": "view",
      "type": "function"
    },
    {
      "inputs": [
        {
          "internalType": "uint256",
          "name": "tokenId",
          "type": "uint256"
        }
      ],
      "name": "tokenURI",
      "outputs": [
        {
          "internalType": "string",
          "name": "",
          "type": "string"
        }
      ],
      "stateMutability": "view",
      "type": "function"
    },
    {
      "inputs": [],
      "name": "totalSupply",
      "outputs": [
        {
          "internalType": "uint256",
          "name": "",
          "type": "uint256"
        }
      ],
      "stateMutability": "view",
      "type": "function"
    },
    {
      "inputs": [
        {
          "internalType": "address",
          "name": "from",
          "type": "address"
        },
        {
          "internalType": "address",
          "name": "to",
          "type": "address"
        },
        {
          "internalType": "uint256",
          "name": "tokenId",
          "type": "uint256"
        }
      ],
      "name": "transferFrom",
      "outputs": [],
      "stateMutability": "nonpayable",
      "type": "function"
    },
    {
      "inputs": [
        {
          "internalType": "address",
          "name": "newOwner",
          "type": "address"
        }
      ],
      "name": "transferOwnership",
      "outputs": [],
      "stateMutability": "nonpayable",
      "type": "function"
    },
    {
      "inputs": [
        {
          "internalType": "uint256",
          "name": "_tokenId",
          "type": "uint256"
        }
      ],
      "name": "transferToGateway",
      "outputs": [],
      "stateMutability": "nonpayable",
      "type": "function"
    },
    {
      "inputs": [
        {
          "internalType": "address",
          "name": "owner",
          "type": "address"
        },
        {
          "internalType": "address",
          "name": "sidechainAddress",
          "type": "address"
        }
      ],
      "name": "undoMapping",
      "outputs": [],
      "stateMutability": "nonpayable",
      "type": "function"
    },
    {
      "inputs": [
        {
          "internalType": "address",
          "name": "_marketplaceAddress",
          "type": "address"
        }
      ],
      "name": "setMarketplace",
      "outputs": [],
      "stateMutability": "nonpayable",
      "type": "function"
    },
    {
      "inputs": [
        {
          "internalType": "uint256",
          "name": "_tokenId",
          "type": "uint256"
        },
        {
          "internalType": "string",
          "name": "_title",
          "type": "string"
        },
        {
          "internalType": "string",
          "name": "_description",
          "type": "string"
        },
        {
          "internalType": "uint256",
          "name": "_price",
          "type": "uint256"
        }
      ],
      "name": "publishDragon",
      "outputs": [],
      "stateMutability": "nonpayable",
      "type": "function"
    }
  ],
  "bytecode": "0x60806040526040518060400160405280600c81526020017f447261676f6e20546f6b656e0000000000000000000000000000000000000000815250600090805190602001906200005192919062000345565b506040518060400160405280600381526020017f4447540000000000000000000000000000000000000000000000000000000000815250600190805190602001906200009f92919062000345565b506000600d60006101000a81548160ff021916908360ff160217905550348015620000c957600080fd5b5060405162006914380380620069148339818101604052810190620000ef919062000423565b82828282828233600a60006101000a81548173ffffffffffffffffffffffffffffffffffffffff021916908373ffffffffffffffffffffffffffffffffffffffff160217905550600a60009054906101000a900473ffffffffffffffffffffffffffffffffffffffff1673ffffffffffffffffffffffffffffffffffffffff16600073ffffffffffffffffffffffffffffffffffffffff167f8be0079c531659141344cd1fd0a4f28419497f9722a3daafe3b4186f6b6457e060405160405180910390a3600073ffffffffffffffffffffffffffffffffffffffff168373ffffffffffffffffffffffffffffffffffffffff16141562000226576040517f08c379a00000000000000000000000000000000000000000000000000000000081526004016200021d90620004c7565b60405180910390fd5b600073ffffffffffffffffffffffffffffffffffffffff168273ffffffffffffffffffffffffffffffffffffffff16141562000299576040517f08c379a00000000000000000000000000000000000000000000000000000000081526004016200029090620004e9565b60405180910390fd5b82601160006101000a81548173ffffffffffffffffffffffffffffffffffffffff021916908373ffffffffffffffffffffffffffffffffffffffff16021790555081601360006101000a81548173ffffffffffffffffffffffffffffffffffffffff021916908373ffffffffffffffffffffffffffffffffffffffff16021790555080600d60006101000a81548160ff021916908360ff16021790555050505050505050505062000648565b82805462000353906200055d565b90600052602060002090601f016020900481019282620003775760008555620003c3565b82601f106200039257805160ff1916838001178555620003c3565b82800160010185558215620003c3579182015b82811115620003c2578251825591602001919060010190620003a5565b5b509050620003d29190620003d6565b5090565b5b80821115620003f1576000816000905550600101620003d7565b5090565b600081519050620004068162000614565b92915050565b6000815190506200041d816200062e565b92915050565b6000806000606084860312156200043957600080fd5b60006200044986828701620003f5565b93505060206200045c86828701620003f5565b92505060406200046f868287016200040c565b9150509250925092565b6000620004886017836200050b565b91506200049582620005c2565b602082019050919050565b6000620004af6017836200050b565b9150620004bc82620005eb565b602082019050919050565b60006020820190508181036000830152620004e28162000479565b9050919050565b600060208201905081810360008301526200050481620004a0565b9050919050565b600082825260208201905092915050565b6000620005298262000530565b9050919050565b600073ffffffffffffffffffffffffffffffffffffffff82169050919050565b600060ff82169050919050565b600060028204905060018216806200057657607f821691505b602082108114156200058d576200058c62000593565b5b50919050565b7f4e487b7100000000000000000000000000000000000000000000000000000000600052602260045260246000fd5b7f496e76616c696420676174657761792061646472657373000000000000000000600082015250565b7f496e76616c6964206465636f6465722061646472657373000000000000000000600082015250565b6200061f816200051c565b81146200062b57600080fd5b50565b620006398162000550565b81146200064557600080fd5b50565b6162bc80620006586000396000f3fe608060405234801561001057600080fd5b506004361061021c5760003560e01c8063715018a611610125578063b88d4fde116100ad578063d297a6851161007c578063d297a68514610676578063dfd4e4a414610692578063e985e9c5146106c2578063f2fde38b146106f2578063fe55932a1461070e5761021c565b8063b88d4fde146105d7578063bef36c49146105f3578063c87b56dd1461060f578063c9cf55701461063f5761021c565b806395d89b41116100f457806395d89b411461054957806398ae481d14610567578063a22cb46514610583578063a35ff0761461059f578063a8def880146105bb5761021c565b8063715018a6146104e757806373ad6c2d146104f15780638da5cb5b1461050d5780638f32d59b1461052b5761021c565b806323b872dd116101a8578063520104dc11610177578063520104dc1461041f5780635d64aa681461043b5780636352211e1461046b5780636fbb70451461049b57806370a08231146104b75761021c565b806323b872dd146103875780632f745c59146103a357806342842e0e146103d35780634f6ccce7146103ef5761021c565b8063095ea7b3116101ef578063095ea7b3146102cf5780630b4cb527146102eb5780630d6dd8121461030757806318160ddd146103375780632014a8be146103555761021c565b806301ffc9a7146102215780630469e8ac1461025157806306fdde0314610281578063081812fc1461029f575b600080fd5b61023b60048036038101906102369190614a06565b61072a565b60405161024891906153ef565b60405180910390f35b61026b6004803603810190610266919061475a565b6107a4565b60405161027891906153cd565b60405180910390f35b610289610827565b60405161029691906154c5565b60405180910390f35b6102b960048036038101906102b49190614b8d565b6108b9565b6040516102c69190615366565b60405180910390f35b6102e960048036038101906102e491906148c5565b61093e565b005b61030560048036038101906103009190614a99565b610a56565b005b610321600480360381019061031c919061475a565b610b9c565b60405161032e91906153ef565b60405180910390f35b61033f610ca2565b60405161034c919061585a565b60405180910390f35b61036f600480360381019061036a9190614b8d565b610caf565b60405161037e93929190615823565b60405180910390f35b6103a1600480360381019061039c91906147bf565b610dc2565b005b6103bd60048036038101906103b891906148c5565b610e22565b6040516103ca919061585a565b60405180910390f35b6103ed60048036038101906103e891906147bf565b610ec7565b005b61040960048036038101906104049190614b8d565b610ee7565b604051610416919061585a565b60405180910390f35b6104396004803603810190610434919061475a565b610f7e565b005b61045560048036038101906104509190614b8d565b61113d565b6040516104629190615366565b60405180910390f35b61048560048036038101906104809190614b8d565b611170565b6040516104929190615366565b60405180910390f35b6104b560048036038101906104b09190614901565b611222565b005b6104d160048036038101906104cc919061475a565b611332565b6040516104de919061585a565b60405180910390f35b6104ef6113ea565b005b61050b6004803603810190610506919061475a565b6114f2565b005b6105156115ed565b6040516105229190615366565b60405180910390f35b610533611617565b60405161054091906153ef565b60405180910390f35b61055161166f565b60405161055e91906154c5565b60405180910390f35b610581600480360381019061057c919061475a565b611701565b005b61059d60048036038101906105989190614889565b6117fc565b005b6105b960048036038101906105b4919061475a565b61197d565b005b6105d560048036038101906105d09190614783565b611a78565b005b6105f160048036038101906105ec919061480e565b611c21565b005b61060d60048036038101906106089190614b8d565b611c83565b005b61062960048036038101906106249190614b8d565b612212565b60405161063691906154c5565b60405180910390f35b61065960048036038101906106549190614b8d565b6122b9565b60405161066d989796959493929190615425565b60405180910390f35b610690600480360381019061068b9190614c0e565b6123bd565b005b6106ac60048036038101906106a79190614b8d565b612661565b6040516106b991906153ef565b60405180910390f35b6106dc60048036038101906106d79190614783565b61270e565b6040516106e991906153ef565b60405180910390f35b61070c6004803603810190610707919061475a565b6127a2565b005b61072860048036038101906107239190614bb6565b6127f5565b005b60007f780e9d63000000000000000000000000000000000000000000000000000000007bffffffffffffffffffffffffffffffffffffffffffffffffffffffff1916827bffffffffffffffffffffffffffffffffffffffffffffffffffffffff1916148061079d575061079c82612960565b5b9050919050565b606060006107b183611332565b905060005b81811015610820576107c88482610e22565b838281518110610801577f4e487b7100000000000000000000000000000000000000000000000000000000600052603260045260246000fd5b602002602001018181525050808061081890615c6f565b9150506107b6565b5050919050565b60606000805461083690615c0c565b80601f016020809104026020016040519081016040528092919081815260200182805461086290615c0c565b80156108af5780601f10610884576101008083540402835291602001916108af565b820191906000526020600020905b81548152906001019060200180831161089257829003601f168201915b5050505050905090565b60006108c482612a42565b610903576040517f08c379a00000000000000000000000000000000000000000000000000000000081526004016108fa90615647565b60405180910390fd5b6004600083815260200190815260200160002060009054906101000a900473ffffffffffffffffffffffffffffffffffffffff169050919050565b600061094982611170565b90508073ffffffffffffffffffffffffffffffffffffffff168373ffffffffffffffffffffffffffffffffffffffff1614156109ba576040517f08c379a00000000000000000000000000000000000000000000000000000000081526004016109b190615567565b60405180910390fd5b8073ffffffffffffffffffffffffffffffffffffffff166109d9612aae565b73ffffffffffffffffffffffffffffffffffffffff161480610a085750610a0781610a02612aae565b61270e565b5b610a47576040517f08c379a0000000000000000000000000000000000000000000000000000000008152600401610a3e90615787565b60405180910390fd5b610a518383612ab6565b505050565b6000806000806000806000601260009054906101000a900473ffffffffffffffffffffffffffffffffffffffff1673ffffffffffffffffffffffffffffffffffffffff1663355916a46040518163ffffffff1660e01b815260040160e060405180830381600087803b158015610acb57600080fd5b505af1158015610adf573d6000803e3d6000fd5b505050506040513d601f19601f82011682018060405250810190610b039190614968565b96509650965096509650965096506000610b1c8c612b6f565b90506000610b4589838e8e8e60008a8f8f8f8f8e600d60009054906101000a900460ff16612b99565b9050610b513382612e31565b7f3045fac2aa90b666e53421f7c8b2245fae88d8c0bc2a2b62ff6283daea24f36f818a60001c604051610b859291906158cc565b60405180910390a150505050505050505050505050565b60008073ffffffffffffffffffffffffffffffffffffffff168273ffffffffffffffffffffffffffffffffffffffff161415610c0d576040517f08c379a0000000000000000000000000000000000000000000000000000000008152600401610c04906155e7565b60405180910390fd5b8173ffffffffffffffffffffffffffffffffffffffff16601460003373ffffffffffffffffffffffffffffffffffffffff1673ffffffffffffffffffffffffffffffffffffffff16815260200190815260200160002060009054906101000a900473ffffffffffffffffffffffffffffffffffffffff1673ffffffffffffffffffffffffffffffffffffffff16149050919050565b6000600880549050905090565b600080600080600b8581548110610cef577f4e487b7100000000000000000000000000000000000000000000000000000000600052603260045260246000fd5b90600052602060002090600402019050601260009054906101000a900473ffffffffffffffffffffffffffffffffffffffff1673ffffffffffffffffffffffffffffffffffffffff166391926cff82600001546040518263ffffffff1660e01b8152600401610d5e919061540a565b60606040518083038186803b158015610d7657600080fd5b505afa158015610d8a573d6000803e3d6000fd5b505050506040513d601f19601f82011682018060405250810190610dae9190614b3e565b809450819550829650505050509193909250565b610dd3610dcd612aae565b82612fff565b610e12576040517f08c379a0000000000000000000000000000000000000000000000000000000008152600401610e09906156a7565b60405180910390fd5b610e1d8383836130dd565b505050565b6000610e2d83611332565b8210610e6e576040517f08c379a0000000000000000000000000000000000000000000000000000000008152600401610e65906157e7565b60405180910390fd5b600660008473ffffffffffffffffffffffffffffffffffffffff1673ffffffffffffffffffffffffffffffffffffffff168152602001908152602001600020600083815260200190815260200160002054905092915050565b610ee283838360405180602001604052806000815250611c21565b505050565b6000610ef1610ca2565b8210610f32576040517f08c379a0000000000000000000000000000000000000000000000000000000008152600401610f29906157e7565b60405180910390fd5b60088281548110610f6c577f4e487b7100000000000000000000000000000000000000000000000000000000600052603260045260246000fd5b90600052602060002001549050919050565b600073ffffffffffffffffffffffffffffffffffffffff168173ffffffffffffffffffffffffffffffffffffffff161415610fee576040517f08c379a0000000000000000000000000000000000000000000000000000000008152600401610fe5906155e7565b60405180910390fd5b600073ffffffffffffffffffffffffffffffffffffffff16601460003373ffffffffffffffffffffffffffffffffffffffff1673ffffffffffffffffffffffffffffffffffffffff16815260200190815260200160002060009054906101000a900473ffffffffffffffffffffffffffffffffffffffff1673ffffffffffffffffffffffffffffffffffffffff16146110bc576040517f08c379a00000000000000000000000000000000000000000000000000000000081526004016110b390615727565b60405180910390fd5b80601460003373ffffffffffffffffffffffffffffffffffffffff1673ffffffffffffffffffffffffffffffffffffffff16815260200190815260200160002060006101000a81548173ffffffffffffffffffffffffffffffffffffffff021916908373ffffffffffffffffffffffffffffffffffffffff16021790555050565b600c6020528060005260406000206000915054906101000a900473ffffffffffffffffffffffffffffffffffffffff1681565b6000806002600084815260200190815260200160002060009054906101000a900473ffffffffffffffffffffffffffffffffffffffff169050600073ffffffffffffffffffffffffffffffffffffffff168173ffffffffffffffffffffffffffffffffffffffff161415611219576040517f08c379a000000000000000000000000000000000000000000000000000000000815260040161121090615647565b60405180910390fd5b80915050919050565b601160009054906101000a900473ffffffffffffffffffffffffffffffffffffffff1673ffffffffffffffffffffffffffffffffffffffff163373ffffffffffffffffffffffffffffffffffffffff16146112b2576040517f08c379a00000000000000000000000000000000000000000000000000000000081526004016112a9906157a7565b60405180910390fd5b600073ffffffffffffffffffffffffffffffffffffffff168373ffffffffffffffffffffffffffffffffffffffff161415611322576040517f08c379a000000000000000000000000000000000000000000000000000000000815260040161131990615587565b60405180910390fd5b61132d838383613339565b505050565b60008073ffffffffffffffffffffffffffffffffffffffff168273ffffffffffffffffffffffffffffffffffffffff1614156113a3576040517f08c379a000000000000000000000000000000000000000000000000000000000815260040161139a90615627565b60405180910390fd5b600360008373ffffffffffffffffffffffffffffffffffffffff1673ffffffffffffffffffffffffffffffffffffffff168152602001908152602001600020549050919050565b6113f2611617565b611431576040517f08c379a0000000000000000000000000000000000000000000000000000000008152600401611428906157a7565b60405180910390fd5b600073ffffffffffffffffffffffffffffffffffffffff16600a60009054906101000a900473ffffffffffffffffffffffffffffffffffffffff1673ffffffffffffffffffffffffffffffffffffffff167f8be0079c531659141344cd1fd0a4f28419497f9722a3daafe3b4186f6b6457e060405160405180910390a36000600a60006101000a81548173ffffffffffffffffffffffffffffffffffffffff021916908373ffffffffffffffffffffffffffffffffffffffff160217905550565b6114fa611617565b611539576040517f08c379a0000000000000000000000000000000000000000000000000000000008152600401611530906157a7565b60405180910390fd5b600073ffffffffffffffffffffffffffffffffffffffff168173ffffffffffffffffffffffffffffffffffffffff1614156115a9576040517f08c379a00000000000000000000000000000000000000000000000000000000081526004016115a090615507565b60405180910390fd5b80601560006101000a81548173ffffffffffffffffffffffffffffffffffffffff021916908373ffffffffffffffffffffffffffffffffffffffff16021790555050565b6000600a60009054906101000a900473ffffffffffffffffffffffffffffffffffffffff16905090565b6000600a60009054906101000a900473ffffffffffffffffffffffffffffffffffffffff1673ffffffffffffffffffffffffffffffffffffffff163373ffffffffffffffffffffffffffffffffffffffff1614905090565b60606001805461167e90615c0c565b80601f01602080910402602001604051908101604052809291908181526020018280546116aa90615c0c565b80156116f75780601f106116cc576101008083540402835291602001916116f7565b820191906000526020600020905b8154815290600101906020018083116116da57829003601f168201915b5050505050905090565b611709611617565b611748576040517f08c379a000000000000000000000000000000000000000000000000000000000815260040161173f906157a7565b60405180910390fd5b600073ffffffffffffffffffffffffffffffffffffffff168173ffffffffffffffffffffffffffffffffffffffff1614156117b8576040517f08c379a00000000000000000000000000000000000000000000000000000000081526004016117af90615507565b60405180910390fd5b80601260006101000a81548173ffffffffffffffffffffffffffffffffffffffff021916908373ffffffffffffffffffffffffffffffffffffffff16021790555050565b611804612aae565b73ffffffffffffffffffffffffffffffffffffffff168273ffffffffffffffffffffffffffffffffffffffff161415611872576040517f08c379a000000000000000000000000000000000000000000000000000000000815260040161186990615607565b60405180910390fd5b806005600061187f612aae565b73ffffffffffffffffffffffffffffffffffffffff1673ffffffffffffffffffffffffffffffffffffffff16815260200190815260200160002060008473ffffffffffffffffffffffffffffffffffffffff1673ffffffffffffffffffffffffffffffffffffffff16815260200190815260200160002060006101000a81548160ff0219169083151502179055508173ffffffffffffffffffffffffffffffffffffffff1661192c612aae565b73ffffffffffffffffffffffffffffffffffffffff167f17307eab39ab6107e8899845ad3d59bd9653f200f220920489ca2b5937696c318360405161197191906153ef565b60405180910390a35050565b611985611617565b6119c4576040517f08c379a00000000000000000000000000000000000000000000000000000000081526004016119bb906157a7565b60405180910390fd5b600073ffffffffffffffffffffffffffffffffffffffff168173ffffffffffffffffffffffffffffffffffffffff161415611a34576040517f08c379a0000000000000000000000000000000000000000000000000000000008152600401611a2b90615527565b60405180910390fd5b80601160006101000a81548173ffffffffffffffffffffffffffffffffffffffff021916908373ffffffffffffffffffffffffffffffffffffffff16021790555050565b611a80611617565b611abf576040517f08c379a0000000000000000000000000000000000000000000000000000000008152600401611ab6906157a7565b60405180910390fd5b600073ffffffffffffffffffffffffffffffffffffffff168273ffffffffffffffffffffffffffffffffffffffff161415611b2f576040517f08c379a0000000000000000000000000000000000000000000000000000000008152600401611b2690615707565b60405180910390fd5b600073ffffffffffffffffffffffffffffffffffffffff168173ffffffffffffffffffffffffffffffffffffffff161415611b9f576040517f08c379a0000000000000000000000000000000000000000000000000000000008152600401611b96906155e7565b60405180910390fd5b80601460008473ffffffffffffffffffffffffffffffffffffffff1673ffffffffffffffffffffffffffffffffffffffff16815260200190815260200160002060006101000a81548173ffffffffffffffffffffffffffffffffffffffff021916908373ffffffffffffffffffffffffffffffffffffffff1602179055505050565b611c32611c2c612aae565b83612fff565b611c71576040517f08c379a0000000000000000000000000000000000000000000000000000000008152600401611c68906156a7565b60405180910390fd5b611c7d84848484613547565b50505050565b803373ffffffffffffffffffffffffffffffffffffffff16611ca482611170565b73ffffffffffffffffffffffffffffffffffffffff1614611cfa576040517f08c379a0000000000000000000000000000000000000000000000000000000008152600401611cf190615787565b60405180910390fd5b600073ffffffffffffffffffffffffffffffffffffffff16601460003373ffffffffffffffffffffffffffffffffffffffff1673ffffffffffffffffffffffffffffffffffffffff16815260200190815260200160002060009054906101000a900473ffffffffffffffffffffffffffffffffffffffff1673ffffffffffffffffffffffffffffffffffffffff161415611dc9576040517f08c379a0000000000000000000000000000000000000000000000000000000008152600401611dc0906156c7565b60405180910390fd5b600b805490508210611e10576040517f08c379a0000000000000000000000000000000000000000000000000000000008152600401611e07906156e7565b60405180910390fd5b6000600b8381548110611e4c577f4e487b7100000000000000000000000000000000000000000000000000000000600052603260045260246000fd5b9060005260206000209060040201604051806101a001604052908160008201548152602001600182015481526020016002820160009054906101000a900467ffffffffffffffff1667ffffffffffffffff1667ffffffffffffffff1681526020016002820160089054906101000a900463ffffffff1663ffffffff1663ffffffff16815260200160028201600c9054906101000a900463ffffffff1663ffffffff1663ffffffff1681526020016002820160109054906101000a900463ffffffff1663ffffffff1663ffffffff1681526020016002820160149054906101000a900461ffff1661ffff1661ffff1681526020016002820160169054906101000a900461ffff1661ffff1661ffff1681526020016002820160189054906101000a900461ffff1661ffff1661ffff16815260200160028201601a9054906101000a900461ffff1661ffff1661ffff16815260200160028201601c9054906101000a900461ffff1661ffff1661ffff16815260200160028201601e9054906101000a900461ffff1661ffff1661ffff1681526020016003820160009054906101000a900460ff1660ff1660ff168152505090506000601360009054906101000a900473ffffffffffffffffffffffffffffffffffffffff1673ffffffffffffffffffffffffffffffffffffffff16630cb6d1e2836040518263ffffffff1660e01b815260040161205a9190615807565b60006040518083038186803b15801561207257600080fd5b505afa158015612086573d6000803e3d6000fd5b505050506040513d6000823e3d601f19601f820116820180604052508101906120af9190614a58565b90506120de33601160009054906101000a900473ffffffffffffffffffffffffffffffffffffffff1686610dc2565b6000601160009054906101000a900473ffffffffffffffffffffffffffffffffffffffff1690506000600d60009054906101000a900460ff1660ff1684610180015160ff161461213657612131866135a3565b612138565b855b90508173ffffffffffffffffffffffffffffffffffffffff16632492fbeb33601460003373ffffffffffffffffffffffffffffffffffffffff1673ffffffffffffffffffffffffffffffffffffffff16815260200190815260200160002060009054906101000a900473ffffffffffffffffffffffffffffffffffffffff1684876040518563ffffffff1660e01b81526004016121d89493929190615381565b600060405180830381600087803b1580156121f257600080fd5b505af1158015612206573d6000803e3d6000fd5b50505050505050505050565b606061221d82612a42565b61225c576040517f08c379a000000000000000000000000000000000000000000000000000000000815260040161225390615687565b60405180910390fd5b60006122666135c0565b9050600081511161228657604051806020016040528060008152506122b1565b80612290846135d7565b6040516020016122a1929190615342565b6040516020818303038152906040525b915050919050565b6000806000806000806000806000600b8a81548110612301577f4e487b7100000000000000000000000000000000000000000000000000000000600052603260045260246000fd5b90600052602060002090600402019050806001015498508060020160089054906101000a900463ffffffff16975080600201600c9054906101000a900463ffffffff1696508060020160109054906101000a900463ffffffff1695508060020160169054906101000a900461ffff1694508060020160189054906101000a900461ffff16935080600201601a9054906101000a900461ffff16925080600201601c9054906101000a900461ffff16915050919395975091939597565b853373ffffffffffffffffffffffffffffffffffffffff166123de82611170565b73ffffffffffffffffffffffffffffffffffffffff1614612434576040517f08c379a000000000000000000000000000000000000000000000000000000000815260040161242b90615787565b60405180910390fd5b600073ffffffffffffffffffffffffffffffffffffffff16601560009054906101000a900473ffffffffffffffffffffffffffffffffffffffff1673ffffffffffffffffffffffffffffffffffffffff1614156124c6576040517f08c379a00000000000000000000000000000000000000000000000000000000081526004016124bd90615547565b60405180910390fd5b6000868690501161250c576040517f08c379a000000000000000000000000000000000000000000000000000000000815260040161250390615767565b60405180910390fd5b60008484905011612552576040517f08c379a000000000000000000000000000000000000000000000000000000000815260040161254990615667565b60405180910390fd5b60008211612595576040517f08c379a000000000000000000000000000000000000000000000000000000000815260040161258c906155a7565b60405180910390fd5b6125c1601560009054906101000a900473ffffffffffffffffffffffffffffffffffffffff168861093e565b601560009054906101000a900473ffffffffffffffffffffffffffffffffffffffff1673ffffffffffffffffffffffffffffffffffffffff166361f428b08888888888886040518763ffffffff1660e01b815260040161262696959493929190615875565b600060405180830381600087803b15801561264057600080fd5b505af1158015612654573d6000803e3d6000fd5b5050505050505050505050565b600080600b838154811061269e577f4e487b7100000000000000000000000000000000000000000000000000000000600052603260045260246000fd5b906000526020600020906004020190506000603c8260020160009054906101000a900467ffffffffffffffff1667ffffffffffffffff16426126e09190615ad9565b6126ea9190615a7f565b905081600201601e9054906101000a900461ffff1661ffff16811092505050919050565b6000600560008473ffffffffffffffffffffffffffffffffffffffff1673ffffffffffffffffffffffffffffffffffffffff16815260200190815260200160002060008373ffffffffffffffffffffffffffffffffffffffff1673ffffffffffffffffffffffffffffffffffffffff16815260200190815260200160002060009054906101000a900460ff16905092915050565b6127aa611617565b6127e9576040517f08c379a00000000000000000000000000000000000000000000000000000000081526004016127e0906157a7565b60405180910390fd5b6127f281613784565b50565b823373ffffffffffffffffffffffffffffffffffffffff1661281682611170565b73ffffffffffffffffffffffffffffffffffffffff161461286c576040517f08c379a000000000000000000000000000000000000000000000000000000000815260040161286390615787565b60405180910390fd5b6000600b85815481106128a8577f4e487b7100000000000000000000000000000000000000000000000000000000600052603260045260246000fd5b90600052602060002090600402019050600061290785858080601f016020809104026020016040519081016040528093929190818152602001838380828437600081840152601f19601f82011690508083019250505050505050612b6f565b90506000801b81141561294f576040517f08c379a0000000000000000000000000000000000000000000000000000000008152600401612946906155c7565b60405180910390fd5b808260010181905550505050505050565b60007f80ac58cd000000000000000000000000000000000000000000000000000000007bffffffffffffffffffffffffffffffffffffffffffffffffffffffff1916827bffffffffffffffffffffffffffffffffffffffffffffffffffffffff19161480612a2b57507f5b5e139f000000000000000000000000000000000000000000000000000000007bffffffffffffffffffffffffffffffffffffffffffffffffffffffff1916827bffffffffffffffffffffffffffffffffffffffffffffffffffffffff1916145b80612a3b5750612a3a826138b4565b5b9050919050565b60008073ffffffffffffffffffffffffffffffffffffffff166002600084815260200190815260200160002060009054906101000a900473ffffffffffffffffffffffffffffffffffffffff1673ffffffffffffffffffffffffffffffffffffffff1614159050919050565b600033905090565b816004600083815260200190815260200160002060006101000a81548173ffffffffffffffffffffffffffffffffffffffff021916908373ffffffffffffffffffffffffffffffffffffffff160217905550808273ffffffffffffffffffffffffffffffffffffffff16612b2983611170565b73ffffffffffffffffffffffffffffffffffffffff167f8c5be1e5ebec7d5bd14f71427d1e84f3dd0314c0f7b2291e5b200ac8c7c3b92560405160405180910390a45050565b600080829050600081511415612b8b576000801b915050612b94565b60208301519150505b919050565b6000600b604051806101a001604052806000801b81526020016000801b81526020018e67ffffffffffffffff1681526020018d63ffffffff1681526020018c63ffffffff1681526020018b63ffffffff1681526020018a61ffff1681526020018961ffff1681526020018861ffff1681526020018761ffff1681526020018661ffff1681526020018561ffff1681526020018460ff168152509080600181540180825580915050600190039060005260206000209060040201600090919091909150600082015181600001556020820151816001015560408201518160020160006101000a81548167ffffffffffffffff021916908367ffffffffffffffff16021790555060608201518160020160086101000a81548163ffffffff021916908363ffffffff160217905550608082015181600201600c6101000a81548163ffffffff021916908363ffffffff16021790555060a08201518160020160106101000a81548163ffffffff021916908363ffffffff16021790555060c08201518160020160146101000a81548161ffff021916908361ffff16021790555060e08201518160020160166101000a81548161ffff021916908361ffff1602179055506101008201518160020160186101000a81548161ffff021916908361ffff16021790555061012082015181600201601a6101000a81548161ffff021916908361ffff16021790555061014082015181600201601c6101000a81548161ffff021916908361ffff16021790555061016082015181600201601e6101000a81548161ffff021916908361ffff1602179055506101808201518160030160006101000a81548160ff021916908360ff1602179055505050600b805490509050612e20818f8f61391e565b9d9c50505050505050505050505050565b600073ffffffffffffffffffffffffffffffffffffffff168273ffffffffffffffffffffffffffffffffffffffff161415612ea1576040517f08c379a0000000000000000000000000000000000000000000000000000000008152600401612e9890615627565b60405180910390fd5b612eaa81612a42565b15612eea576040517f08c379a0000000000000000000000000000000000000000000000000000000008152600401612ee1906154e7565b60405180910390fd5b612ef660008383613982565b6001600360008473ffffffffffffffffffffffffffffffffffffffff1673ffffffffffffffffffffffffffffffffffffffff1681526020019081526020016000206000828254612f4691906159f8565b92505081905550816002600083815260200190815260200160002060006101000a81548173ffffffffffffffffffffffffffffffffffffffff021916908373ffffffffffffffffffffffffffffffffffffffff160217905550808273ffffffffffffffffffffffffffffffffffffffff16600073ffffffffffffffffffffffffffffffffffffffff167fddf252ad1be2c89b69c2b068fc378daa952ba7f163c4a11628f55a4df523b3ef60405160405180910390a45050565b600061300a82612a42565b613049576040517f08c379a000000000000000000000000000000000000000000000000000000000815260040161304090615647565b60405180910390fd5b600061305483611170565b90508073ffffffffffffffffffffffffffffffffffffffff168473ffffffffffffffffffffffffffffffffffffffff1614806130c357508373ffffffffffffffffffffffffffffffffffffffff166130ab846108b9565b73ffffffffffffffffffffffffffffffffffffffff16145b806130d457506130d3818561270e565b5b91505092915050565b8273ffffffffffffffffffffffffffffffffffffffff166130fd82611170565b73ffffffffffffffffffffffffffffffffffffffff1614613153576040517f08c379a000000000000000000000000000000000000000000000000000000000815260040161314a90615747565b60405180910390fd5b600073ffffffffffffffffffffffffffffffffffffffff168273ffffffffffffffffffffffffffffffffffffffff1614156131c3576040517f08c379a00000000000000000000000000000000000000000000000000000000081526004016131ba90615627565b60405180910390fd5b6131ce838383613982565b6131d9600082612ab6565b6001600360008573ffffffffffffffffffffffffffffffffffffffff1673ffffffffffffffffffffffffffffffffffffffff16815260200190815260200160002060008282546132299190615ad9565b925050819055506001600360008473ffffffffffffffffffffffffffffffffffffffff1673ffffffffffffffffffffffffffffffffffffffff168152602001908152602001600020600082825461328091906159f8565b92505081905550816002600083815260200190815260200160002060006101000a81548173ffffffffffffffffffffffffffffffffffffffff021916908373ffffffffffffffffffffffffffffffffffffffff160217905550808273ffffffffffffffffffffffffffffffffffffffff168473ffffffffffffffffffffffffffffffffffffffff167fddf252ad1be2c89b69c2b068fc378daa952ba7f163c4a11628f55a4df523b3ef60405160405180910390a4505050565b6000601360009054906101000a900473ffffffffffffffffffffffffffffffffffffffff1673ffffffffffffffffffffffffffffffffffffffff16631ebe57ea836040518263ffffffff1660e01b815260040161339691906154a3565b60206040518083038186803b1580156133ae57600080fd5b505afa1580156133c2573d6000803e3d6000fd5b505050506040513d601f19601f820116820180604052508101906133e69190614ca9565b90506000600d60009054906101000a900460ff1660ff168260ff16149050801561344757613438601160009054906101000a900473ffffffffffffffffffffffffffffffffffffffff16868686611c21565b6134428484613a96565b613540565b600015156010600086815260200190815260200160002060009054906101000a900460ff16151514156134ed57600061347f84613b9a565b905080600e60008781526020019081526020016000208190555084600f60008381526020019081526020016000208190555060016010600087815260200190815260200160002060006101000a81548160ff0219169083151502179055506134e78682612e31565b5061353f565b6000600e6000868152602001908152602001600020549050613533601160009054906101000a900473ffffffffffffffffffffffffffffffffffffffff16878387611c21565b61353d8185613a96565b505b5b5050505050565b6135528484846130dd565b61355e84848484613ca7565b61359d576040517f08c379a0000000000000000000000000000000000000000000000000000000008152600401613594906157c7565b60405180910390fd5b50505050565b6000600f6000838152602001908152602001600020549050919050565b606060405180602001604052806000815250905090565b6060600082141561361f576040518060400160405280600181526020017f3000000000000000000000000000000000000000000000000000000000000000815250905061377f565b600082905060005b6000821461365157808061363a90615c6f565b915050600a8261364a9190615a4e565b9150613627565b60008167ffffffffffffffff811115613693577f4e487b7100000000000000000000000000000000000000000000000000000000600052604160045260246000fd5b6040519080825280601f01601f1916602001820160405280156136c55781602001600182028036833780820191505090505b5090505b60008514613778576001826136de9190615ad9565b9150600a856136ed9190615cb8565b60306136f991906159f8565b60f81b818381518110613735577f4e487b7100000000000000000000000000000000000000000000000000000000600052603260045260246000fd5b60200101907effffffffffffffffffffffffffffffffffffffffffffffffffffffffffffff1916908160001a905350600a856137719190615a4e565b94506136c9565b8093505050505b919050565b600073ffffffffffffffffffffffffffffffffffffffff168173ffffffffffffffffffffffffffffffffffffffff1614156137f4576040517f08c379a00000000000000000000000000000000000000000000000000000000081526004016137eb90615507565b60405180910390fd5b8073ffffffffffffffffffffffffffffffffffffffff16600a60009054906101000a900473ffffffffffffffffffffffffffffffffffffffff1673ffffffffffffffffffffffffffffffffffffffff167f8be0079c531659141344cd1fd0a4f28419497f9722a3daafe3b4186f6b6457e060405160405180910390a380600a60006101000a81548173ffffffffffffffffffffffffffffffffffffffff021916908373ffffffffffffffffffffffffffffffffffffffff16021790555050565b60007f01ffc9a7000000000000000000000000000000000000000000000000000000007bffffffffffffffffffffffffffffffffffffffffffffffffffffffff1916827bffffffffffffffffffffffffffffffffffffffffffffffffffffffff1916149050919050565b6000600b848154811061395a577f4e487b7100000000000000000000000000000000000000000000000000000000600052603260045260246000fd5b9060005260206000209060040201905082816000018190555081816001018190555050505050565b61398d838383613e3e565b600073ffffffffffffffffffffffffffffffffffffffff168373ffffffffffffffffffffffffffffffffffffffff1614156139d0576139cb81613e43565b613a0f565b8173ffffffffffffffffffffffffffffffffffffffff168373ffffffffffffffffffffffffffffffffffffffff1614613a0e57613a0d8382613e8c565b5b5b600073ffffffffffffffffffffffffffffffffffffffff168273ffffffffffffffffffffffffffffffffffffffff161415613a5257613a4d81613ff9565b613a91565b8273ffffffffffffffffffffffffffffffffffffffff168273ffffffffffffffffffffffffffffffffffffffff1614613a9057613a8f828261413c565b5b5b505050565b6000601360009054906101000a900473ffffffffffffffffffffffffffffffffffffffff1673ffffffffffffffffffffffffffffffffffffffff1663459efab6836040518263ffffffff1660e01b8152600401613af391906154a3565b6101a06040518083038186803b158015613b0c57600080fd5b505afa158015613b20573d6000803e3d6000fd5b505050506040513d601f19601f82011682018060405250810190613b449190614b14565b9050613b9583826000015183602001518460400151856060015186608001518760a001518860c001518960e001518a61010001518b61012001518c61014001518d61016001518e61018001516141bb565b505050565b600080601360009054906101000a900473ffffffffffffffffffffffffffffffffffffffff1673ffffffffffffffffffffffffffffffffffffffff1663459efab6846040518263ffffffff1660e01b8152600401613bf891906154a3565b6101a06040518083038186803b158015613c1157600080fd5b505afa158015613c25573d6000803e3d6000fd5b505050506040513d601f19601f82011682018060405250810190613c499190614b14565b90506000613c9b826000015183602001518460400151856060015186608001518760a001518860c001518960e001518a61010001518b61012001518c61014001518d61016001518e6101800151612b99565b90508092505050919050565b6000613cc88473ffffffffffffffffffffffffffffffffffffffff16614395565b15613e31578373ffffffffffffffffffffffffffffffffffffffff1663150b7a02613cf1612aae565b8786866040518563ffffffff1660e01b8152600401613d139493929190615381565b602060405180830381600087803b158015613d2d57600080fd5b505af1925050508015613d5e57506040513d601f19601f82011682018060405250810190613d5b9190614a2f565b60015b613de1573d8060008114613d8e576040519150601f19603f3d011682016040523d82523d6000602084013e613d93565b606091505b50600081511415613dd9576040517f08c379a0000000000000000000000000000000000000000000000000000000008152600401613dd0906157c7565b60405180910390fd5b805181602001fd5b63150b7a0260e01b7bffffffffffffffffffffffffffffffffffffffffffffffffffffffff1916817bffffffffffffffffffffffffffffffffffffffffffffffffffffffff191614915050613e36565b600190505b949350505050565b505050565b6008805490506009600083815260200190815260200160002081905550600881908060018154018082558091505060019003906000526020600020016000909190919091505550565b60006001613e9984611332565b613ea39190615ad9565b9050600060076000848152602001908152602001600020549050818114613f88576000600660008673ffffffffffffffffffffffffffffffffffffffff1673ffffffffffffffffffffffffffffffffffffffff168152602001908152602001600020600084815260200190815260200160002054905080600660008773ffffffffffffffffffffffffffffffffffffffff1673ffffffffffffffffffffffffffffffffffffffff168152602001908152602001600020600084815260200190815260200160002081905550816007600083815260200190815260200160002081905550505b6007600084815260200190815260200160002060009055600660008573ffffffffffffffffffffffffffffffffffffffff1673ffffffffffffffffffffffffffffffffffffffff16815260200190815260200160002060008381526020019081526020016000206000905550505050565b6000600160088054905061400d9190615ad9565b9050600060096000848152602001908152602001600020549050600060088381548110614063577f4e487b7100000000000000000000000000000000000000000000000000000000600052603260045260246000fd5b9060005260206000200154905080600883815481106140ab577f4e487b7100000000000000000000000000000000000000000000000000000000600052603260045260246000fd5b906000526020600020018190555081600960008381526020019081526020016000208190555060096000858152602001908152602001600020600090556008805480614120577f4e487b7100000000000000000000000000000000000000000000000000000000600052603160045260246000fd5b6001900381819060005260206000200160009055905550505050565b600061414783611332565b905081600660008573ffffffffffffffffffffffffffffffffffffffff1673ffffffffffffffffffffffffffffffffffffffff168152602001908152602001600020600083815260200190815260200160002081905550806007600084815260200190815260200160002081905550505050565b6000600b8f815481106141f7577f4e487b7100000000000000000000000000000000000000000000000000000000600052603260045260246000fd5b906000526020600020906004020190508d81600001819055508c81600101819055508b8160020160006101000a81548167ffffffffffffffff021916908367ffffffffffffffff1602179055508a8160020160086101000a81548163ffffffff021916908363ffffffff1602179055508981600201600c6101000a81548163ffffffff021916908363ffffffff160217905550888160020160106101000a81548163ffffffff021916908363ffffffff160217905550878160020160146101000a81548161ffff021916908361ffff160217905550868160020160166101000a81548161ffff021916908361ffff160217905550858160020160186101000a81548161ffff021916908361ffff1602179055508481600201601a6101000a81548161ffff021916908361ffff1602179055508381600201601c6101000a81548161ffff021916908361ffff1602179055508281600201601e6101000a81548161ffff021916908361ffff160217905550818160030160006101000a81548160ff021916908360ff160217905550505050505050505050505050505050565b600080823b905060008111915050919050565b60006143bb6143b68461591a565b6158f5565b9050828152602081018484840111156143d357600080fd5b6143de848285615bca565b509392505050565b60006143f96143f48461591a565b6158f5565b90508281526020810184848401111561441157600080fd5b61441c848285615bd9565b509392505050565b60006144376144328461594b565b6158f5565b90508281526020810184848401111561444f57600080fd5b61445a848285615bca565b509392505050565b600081359050614471816161b7565b92915050565b600081359050614486816161ce565b92915050565b60008151905061449b816161e5565b92915050565b6000813590506144b0816161fc565b92915050565b6000815190506144c5816161fc565b92915050565b600082601f8301126144dc57600080fd5b81356144ec8482602086016143a8565b91505092915050565b600082601f83011261450657600080fd5b81516145168482602086016143e6565b91505092915050565b60008083601f84011261453157600080fd5b8235905067ffffffffffffffff81111561454a57600080fd5b60208301915083600182028301111561456257600080fd5b9250929050565b600082601f83011261457a57600080fd5b813561458a848260208601614424565b91505092915050565b60006101a082840312156145a657600080fd5b6145b16101a06158f5565b905060006145c18482850161448c565b60008301525060206145d58482850161448c565b60208301525060406145e984828501614730565b60408301525060606145fd84828501614706565b606083015250608061461184828501614706565b60808301525060a061462584828501614706565b60a08301525060c0614639848285016146c7565b60c08301525060e061464d848285016146c7565b60e083015250610100614662848285016146c7565b61010083015250610120614678848285016146c7565b6101208301525061014061468e848285016146c7565b610140830152506101606146a4848285016146c7565b610160830152506101806146ba84828501614745565b6101808301525092915050565b6000815190506146d681616213565b92915050565b6000813590506146eb8161622a565b92915050565b60008135905061470081616241565b92915050565b60008151905061471581616241565b92915050565b60008135905061472a81616258565b92915050565b60008151905061473f81616258565b92915050565b6000815190506147548161626f565b92915050565b60006020828403121561476c57600080fd5b600061477a84828501614462565b91505092915050565b6000806040838503121561479657600080fd5b60006147a485828601614462565b92505060206147b585828601614462565b9150509250929050565b6000806000606084860312156147d457600080fd5b60006147e286828701614462565b93505060206147f386828701614462565b9250506040614804868287016146dc565b9150509250925092565b6000806000806080858703121561482457600080fd5b600061483287828801614462565b945050602061484387828801614462565b9350506040614854878288016146dc565b925050606085013567ffffffffffffffff81111561487157600080fd5b61487d878288016144cb565b91505092959194509250565b6000806040838503121561489c57600080fd5b60006148aa85828601614462565b92505060206148bb85828601614477565b9150509250929050565b600080604083850312156148d857600080fd5b60006148e685828601614462565b92505060206148f7858286016146dc565b9150509250929050565b60008060006060848603121561491657600080fd5b600061492486828701614462565b9350506020614935868287016146dc565b925050604084013567ffffffffffffffff81111561495257600080fd5b61495e868287016144cb565b9150509250925092565b600080600080600080600060e0888a03121561498357600080fd5b60006149918a828b0161448c565b97505060206149a28a828b016146c7565b96505060406149b38a828b016146c7565b95505060606149c48a828b016146c7565b94505060806149d58a828b016146c7565b93505060a06149e68a828b016146c7565b92505060c06149f78a828b016146c7565b91505092959891949750929550565b600060208284031215614a1857600080fd5b6000614a26848285016144a1565b91505092915050565b600060208284031215614a4157600080fd5b6000614a4f848285016144b6565b91505092915050565b600060208284031215614a6a57600080fd5b600082015167ffffffffffffffff811115614a8457600080fd5b614a90848285016144f5565b91505092915050565b60008060008060808587031215614aaf57600080fd5b600085013567ffffffffffffffff811115614ac957600080fd5b614ad587828801614569565b9450506020614ae68782880161471b565b9350506040614af7878288016146f1565b9250506060614b08878288016146f1565b91505092959194509250565b60006101a08284031215614b2757600080fd5b6000614b3584828501614593565b91505092915050565b600080600060608486031215614b5357600080fd5b6000614b61868287016146c7565b9350506020614b72868287016146c7565b9250506040614b83868287016146c7565b9150509250925092565b600060208284031215614b9f57600080fd5b6000614bad848285016146dc565b91505092915050565b600080600060408486031215614bcb57600080fd5b6000614bd9868287016146dc565b935050602084013567ffffffffffffffff811115614bf657600080fd5b614c028682870161451f565b92509250509250925092565b60008060008060008060808789031215614c2757600080fd5b6000614c3589828a016146dc565b965050602087013567ffffffffffffffff811115614c5257600080fd5b614c5e89828a0161451f565b9550955050604087013567ffffffffffffffff811115614c7d57600080fd5b614c8989828a0161451f565b93509350506060614c9c89828a016146dc565b9150509295509295509295565b600060208284031215614cbb57600080fd5b6000614cc984828501614745565b91505092915050565b6000614cde83836152e8565b60208301905092915050565b614cf381615b0d565b82525050565b6000614d048261598c565b614d0e81856159ba565b9350614d198361597c565b8060005b83811015614d4a578151614d318882614cd2565b9750614d3c836159ad565b925050600181019050614d1d565b5085935050505092915050565b614d6081615b1f565b82525050565b614d6f81615b2b565b82525050565b614d7e81615b2b565b82525050565b6000614d8f82615997565b614d9981856159cb565b9350614da9818560208601615bd9565b614db281615da5565b840191505092915050565b6000614dc983856159dc565b9350614dd6838584615bca565b614ddf83615da5565b840190509392505050565b6000614df5826159a2565b614dff81856159dc565b9350614e0f818560208601615bd9565b614e1881615da5565b840191505092915050565b6000614e2e826159a2565b614e3881856159ed565b9350614e48818560208601615bd9565b80840191505092915050565b6000614e61600e836159dc565b9150614e6c82615db6565b602082019050919050565b6000614e84600f836159dc565b9150614e8f82615ddf565b602082019050919050565b6000614ea76014836159dc565b9150614eb282615e08565b602082019050919050565b6000614eca6010836159dc565b9150614ed582615e31565b602082019050919050565b6000614eed600d836159dc565b9150614ef882615e5a565b602082019050919050565b6000614f10600c836159dc565b9150614f1b82615e83565b602082019050919050565b6000614f33600b836159dc565b9150614f3e82615eac565b602082019050919050565b6000614f56600a836159dc565b9150614f6182615ed5565b602082019050919050565b6000614f796016836159dc565b9150614f8482615efe565b602082019050919050565b6000614f9c6011836159dc565b9150614fa782615f27565b602082019050919050565b6000614fbf600c836159dc565b9150614fca82615f50565b602082019050919050565b6000614fe26011836159dc565b9150614fed82615f79565b602082019050919050565b6000615005600a836159dc565b915061501082615fa2565b602082019050919050565b60006150286011836159dc565b915061503382615fcb565b602082019050919050565b600061504b6016836159dc565b915061505682615ff4565b602082019050919050565b600061506e600a836159dc565b91506150798261601d565b602082019050919050565b60006150916010836159dc565b915061509c82616046565b602082019050919050565b60006150b46012836159dc565b91506150bf8261606f565b602082019050919050565b60006150d7600e836159dc565b91506150e282616098565b602082019050919050565b60006150fa6007836159dc565b9150615105826160c1565b602082019050919050565b600061511d600b836159dc565b9150615128826160ea565b602082019050919050565b60006151406009836159dc565b915061514b82616113565b602082019050919050565b60006151636012836159dc565b915061516e8261613c565b602082019050919050565b6000615186601e836159dc565b915061519182616165565b602082019050919050565b60006151a96013836159dc565b91506151b48261618e565b602082019050919050565b6101a0820160008201516151d66000850182614d66565b5060208201516151e96020850182614d66565b5060408201516151fc6040850182615324565b50606082015161520f6060850182615306565b5060808201516152226080850182615306565b5060a082015161523560a0850182615306565b5060c082015161524860c08501826152ca565b5060e082015161525b60e08501826152ca565b506101008201516152706101008501826152ca565b506101208201516152856101208501826152ca565b5061014082015161529a6101408501826152ca565b506101608201516152af6101608501826152ca565b506101808201516152c4610180850182615333565b50505050565b6152d381615b61565b82525050565b6152e281615b61565b82525050565b6152f181615b8f565b82525050565b61530081615b8f565b82525050565b61530f81615b99565b82525050565b61531e81615b99565b82525050565b61532d81615ba9565b82525050565b61533c81615bbd565b82525050565b600061534e8285614e23565b915061535a8284614e23565b91508190509392505050565b600060208201905061537b6000830184614cea565b92915050565b60006080820190506153966000830187614cea565b6153a36020830186614cea565b6153b060408301856152f7565b81810360608301526153c28184614d84565b905095945050505050565b600060208201905081810360008301526153e78184614cf9565b905092915050565b60006020820190506154046000830184614d57565b92915050565b600060208201905061541f6000830184614d75565b92915050565b60006101008201905061543b600083018b614d75565b615448602083018a615315565b6154556040830189615315565b6154626060830188615315565b61546f60808301876152d9565b61547c60a08301866152d9565b61548960c08301856152d9565b61549660e08301846152d9565b9998505050505050505050565b600060208201905081810360008301526154bd8184614d84565b905092915050565b600060208201905081810360008301526154df8184614dea565b905092915050565b6000602082019050818103600083015261550081614e54565b9050919050565b6000602082019050818103600083015261552081614e77565b9050919050565b6000602082019050818103600083015261554081614e9a565b9050919050565b6000602082019050818103600083015261556081614ebd565b9050919050565b6000602082019050818103600083015261558081614ee0565b9050919050565b600060208201905081810360008301526155a081614f03565b9050919050565b600060208201905081810360008301526155c081614f26565b9050919050565b600060208201905081810360008301526155e081614f49565b9050919050565b6000602082019050818103600083015261560081614f6c565b9050919050565b6000602082019050818103600083015261562081614f8f565b9050919050565b6000602082019050818103600083015261564081614fb2565b9050919050565b6000602082019050818103600083015261566081614fd5565b9050919050565b6000602082019050818103600083015261568081614ff8565b9050919050565b600060208201905081810360008301526156a08161501b565b9050919050565b600060208201905081810360008301526156c08161503e565b9050919050565b600060208201905081810360008301526156e081615061565b9050919050565b6000602082019050818103600083015261570081615084565b9050919050565b60006020820190508181036000830152615720816150a7565b9050919050565b60006020820190508181036000830152615740816150ca565b9050919050565b60006020820190508181036000830152615760816150ed565b9050919050565b6000602082019050818103600083015261578081615110565b9050919050565b600060208201905081810360008301526157a081615133565b9050919050565b600060208201905081810360008301526157c081615156565b9050919050565b600060208201905081810360008301526157e081615179565b9050919050565b600060208201905081810360008301526158008161519c565b9050919050565b60006101a08201905061581d60008301846151bf565b92915050565b600060608201905061583860008301866152d9565b61584560208301856152d9565b61585260408301846152d9565b949350505050565b600060208201905061586f60008301846152f7565b92915050565b600060808201905061588a60008301896152f7565b818103602083015261589d818789614dbd565b905081810360408301526158b2818587614dbd565b90506158c160608301846152f7565b979650505050505050565b60006040820190506158e160008301856152f7565b6158ee60208301846152f7565b9392505050565b60006158ff615910565b905061590b8282615c3e565b919050565b6000604051905090565b600067ffffffffffffffff82111561593557615934615d76565b5b61593e82615da5565b9050602081019050919050565b600067ffffffffffffffff82111561596657615965615d76565b5b61596f82615da5565b9050602081019050919050565b6000819050602082019050919050565b600081519050919050565b600081519050919050565b600081519050919050565b6000602082019050919050565b600082825260208201905092915050565b600082825260208201905092915050565b600082825260208201905092915050565b600081905092915050565b6000615a0382615b8f565b9150615a0e83615b8f565b9250827fffffffffffffffffffffffffffffffffffffffffffffffffffffffffffffffff03821115615a4357615a42615ce9565b5b828201905092915050565b6000615a5982615b8f565b9150615a6483615b8f565b925082615a7457615a73615d18565b5b828204905092915050565b6000615a8a82615b8f565b9150615a9583615b8f565b9250817fffffffffffffffffffffffffffffffffffffffffffffffffffffffffffffffff0483118215151615615ace57615acd615ce9565b5b828202905092915050565b6000615ae482615b8f565b9150615aef83615b8f565b925082821015615b0257615b01615ce9565b5b828203905092915050565b6000615b1882615b6f565b9050919050565b60008115159050919050565b6000819050919050565b60007fffffffff0000000000000000000000000000000000000000000000000000000082169050919050565b600061ffff82169050919050565b600073ffffffffffffffffffffffffffffffffffffffff82169050919050565b6000819050919050565b600063ffffffff82169050919050565b600067ffffffffffffffff82169050919050565b600060ff82169050919050565b82818337600083830152505050565b60005b83811015615bf7578082015181840152602081019050615bdc565b83811115615c06576000848401525b50505050565b60006002820490506001821680615c2457607f821691505b60208210811415615c3857615c37615d47565b5b50919050565b615c4782615da5565b810181811067ffffffffffffffff82111715615c6657615c65615d76565b5b80604052505050565b6000615c7a82615b8f565b91507fffffffffffffffffffffffffffffffffffffffffffffffffffffffffffffffff821415615cad57615cac615ce9565b5b600182019050919050565b6000615cc382615b8f565b9150615cce83615b8f565b925082615cde57615cdd615d18565b5b828206905092915050565b7f4e487b7100000000000000000000000000000000000000000000000000000000600052601160045260246000fd5b7f4e487b7100000000000000000000000000000000000000000000000000000000600052601260045260246000fd5b7f4e487b7100000000000000000000000000000000000000000000000000000000600052602260045260246000fd5b7f4e487b7100000000000000000000000000000000000000000000000000000000600052604160045260246000fd5b6000601f19601f8301169050919050565b7f416c7265616479206d696e746564000000000000000000000000000000000000600082015250565b7f496e76616c696420616464726573730000000000000000000000000000000000600082015250565b7f496e76616c696420676174657761792061646472000000000000000000000000600082015250565b7f496e76616c696420206164647265737300000000000000000000000000000000600082015250565b7f43757272656e74206f776e657200000000000000000000000000000000000000600082015250565b7f496e76616c696420616464720000000000000000000000000000000000000000600082015250565b7f456d707479207072696365000000000000000000000000000000000000000000600082015250565b7f456d707479206e616d6500000000000000000000000000000000000000000000600082015250565b7f496e76616c69642073696465636861696e206164647200000000000000000000600082015250565b7f417070726f766520746f2063616c6c6572000000000000000000000000000000600082015250565b7f5a65726f20616464726573730000000000000000000000000000000000000000600082015250565b7f4e6f6e6578697374656e7420746f6b656e000000000000000000000000000000600082015250565b7f456d707479206465736300000000000000000000000000000000000000000000600082015250565b7f6e6f6e6578697374656e7420746f6b656e000000000000000000000000000000600082015250565b7f4e6f74206f776e6572206e6f7220617070726f76656400000000000000000000600082015250565b7f4e6f74206d617070656400000000000000000000000000000000000000000000600082015250565b7f496e76616c696420746f6b656e20496400000000000000000000000000000000600082015250565b7f496e76616c6964206f776e657220616464720000000000000000000000000000600082015250565b7f416c7265616479206d6170706564000000000000000000000000000000000000600082015250565b7f4e6f74206f776e00000000000000000000000000000000000000000000000000600082015250565b7f456d707479207469746c65000000000000000000000000000000000000000000600082015250565b7f4e6f74206f776e65720000000000000000000000000000000000000000000000600082015250565b7f496e76616c6964207065726d697373696f6e0000000000000000000000000000600082015250565b7f4e6f6e20455243373231526563656976657220696d706c656d656e7465720000600082015250565b7f496e646578206f7574206f6620626f756e647300000000000000000000000000600082015250565b6161c081615b0d565b81146161cb57600080fd5b50565b6161d781615b1f565b81146161e257600080fd5b50565b6161ee81615b2b565b81146161f957600080fd5b50565b61620581615b35565b811461621057600080fd5b50565b61621c81615b61565b811461622757600080fd5b50565b61623381615b8f565b811461623e57600080fd5b50565b61624a81615b99565b811461625557600080fd5b50565b61626181615ba9565b811461626c57600080fd5b50565b61627881615bbd565b811461628357600080fd5b5056fea2646970667358221220c2c9836dd300c15d68283017fc884194288bcf5b3b39df6a9fc69fbdfe297cf664736f6c63430008040033",
  "immutableReferences": {},
  "source": "// SPDX-License-Identifier: GPL-3.0 License\n\npragma solidity ^0.8.0;\n\nimport './MainnetTransferableDragon.sol';\n\ninterface IMarketplace {\n\tfunction createSellOrder(\n\t\tuint256 dragonId,\n\t\tstring calldata title,\n\t\tstring calldata description,\n\t\tuint256 price\n\t) external;\n}\n\ncontract MainnetMerchantableDragon is MainnetTransferableDragon {\n\taddress private marketplaceAddress;\n\n\tconstructor(\n\t\taddress gateway,\n\t\taddress dragonDecoder,\n\t\tuint8 blockchainId\n\t) MainnetTransferableDragon(gateway, dragonDecoder, blockchainId) {}\n\n\tfunction setMarketplace(address _marketplaceAddress) external onlyOwner {\n\t\trequire(_marketplaceAddress != address(0), 'Invalid address');\n\t\tmarketplaceAddress = _marketplaceAddress;\n\t}\n\n\tfunction publishDragon(\n\t\tuint256 _tokenId,\n\t\tstring calldata _title,\n\t\tstring calldata _description,\n\t\tuint256 _price\n\t) external onlyDragonOwner(_tokenId) {\n\t\trequire(marketplaceAddress != address(0), 'Invalid  address');\n\t\trequire(bytes(_title).length > 0, 'Empty title');\n\t\trequire(bytes(_description).length > 0, 'Empty desc');\n\t\trequire(_price > 0, 'Empty price');\n\n\t\t// Allow marketplace to transfer ownership\n\t\tapprove(marketplaceAddress, _tokenId);\n\n\t\tIMarketplace(marketplaceAddress).createSellOrder(_tokenId, _title, _description, _price);\n\t}\n}\n",
  "sourcePath": "/usr/src/app/contractGetter/contracts/mainnet/MainnetMerchantableDragon.sol",
  "compiler": {
    "name": "solc",
    "version": "0.8.4+commit.c7e474f2.Emscripten.clang"
  },
  "schemaVersion": "3.4.1",
  "updatedAt": "2021-07-20T15:14:21.578Z",
  "devdoc": {
    "kind": "dev",
    "methods": {
      "approve(address,uint256)": {
        "details": "See {IERC721-approve}."
      },
      "balanceOf(address)": {
        "details": "See {IERC721-balanceOf}."
      },
      "getApproved(uint256)": {
        "details": "See {IERC721-getApproved}."
      },
      "isApprovedForAll(address,address)": {
        "details": "See {IERC721-isApprovedForAll}."
      },
      "isOwner()": {
        "returns": {
          "_0": "true if `msg.sender` is the owner of the contract."
        }
      },
      "name()": {
        "details": "See {IERC721Metadata-name}."
      },
      "owner()": {
        "returns": {
          "_0": "the address of the owner."
        }
      },
      "ownerOf(uint256)": {
        "details": "See {IERC721-ownerOf}."
      },
      "renounceOwnership()": {
        "details": "Allows the current owner to relinquish control of the contract."
      },
      "safeTransferFrom(address,address,uint256)": {
        "details": "See {IERC721-safeTransferFrom}."
      },
      "safeTransferFrom(address,address,uint256,bytes)": {
        "details": "See {IERC721-safeTransferFrom}."
      },
      "setApprovalForAll(address,bool)": {
        "details": "See {IERC721-setApprovalForAll}."
      },
      "supportsInterface(bytes4)": {
        "details": "See {IERC165-supportsInterface}."
      },
      "symbol()": {
        "details": "See {IERC721Metadata-symbol}."
      },
      "tokenByIndex(uint256)": {
        "details": "See {IERC721Enumerable-tokenByIndex}."
      },
      "tokenOfOwnerByIndex(address,uint256)": {
        "details": "See {IERC721Enumerable-tokenOfOwnerByIndex}."
      },
      "tokenURI(uint256)": {
        "details": "See {IERC721Metadata-tokenURI}."
      },
      "totalSupply()": {
        "details": "See {IERC721Enumerable-totalSupply}."
      },
      "transferFrom(address,address,uint256)": {
        "details": "See {IERC721-transferFrom}."
      },
      "transferOwnership(address)": {
        "details": "Allows the current owner to transfer control of the contract to a newOwner.",
        "params": {
          "newOwner": "The address to transfer ownership to."
        }
      }
    },
    "version": 1
  },
  "userdoc": {
    "kind": "user",
    "methods": {
      "createDragon(string,uint64,uint32,uint32)": {
        "notice": "Creates new Dragon and give it to its creator."
      },
      "renounceOwnership()": {
        "notice": "Renouncing to ownership will leave the contract without an owner. It will not be possible to call the functions with the `onlyOwner` modifier anymore."
      }
    },
    "version": 1
  }
}