{
  "contractName": "MainnetGateway",
  "abi": [
    {
      "inputs": [
        {
          "internalType": "address[]",
          "name": "_validators",
          "type": "address[]"
        },
        {
          "internalType": "uint8",
          "name": "_threshold_num",
          "type": "uint8"
        },
        {
          "internalType": "uint8",
          "name": "_threshold_denom",
          "type": "uint8"
        }
      ],
      "payable": false,
      "stateMutability": "nonpayable",
      "type": "constructor"
    },
    {
      "anonymous": false,
      "inputs": [
        {
          "indexed": false,
          "internalType": "address",
          "name": "validator",
          "type": "address"
        }
      ],
      "name": "AddedValidator",
      "type": "event"
    },
    {
      "anonymous": false,
      "inputs": [
        {
          "indexed": false,
          "internalType": "address",
          "name": "mainchainAddress",
          "type": "address"
        },
        {
          "indexed": false,
          "internalType": "uint256",
          "name": "uid",
          "type": "uint256"
        },
        {
          "indexed": false,
          "internalType": "bytes",
          "name": "data",
          "type": "bytes"
        }
      ],
      "name": "DragonSuccessfullyRetrievedInMainchain",
      "type": "event"
    },
    {
      "anonymous": false,
      "inputs": [
        {
          "indexed": false,
          "internalType": "address",
          "name": "sidechainAddress",
          "type": "address"
        },
        {
          "indexed": false,
          "internalType": "uint256",
          "name": "uid",
          "type": "uint256"
        }
      ],
      "name": "DragonWithdrawal",
      "type": "event"
    },
    {
      "anonymous": false,
      "inputs": [
        {
          "indexed": false,
          "internalType": "address",
          "name": "from",
          "type": "address"
        },
        {
          "indexed": false,
          "internalType": "uint256",
          "name": "amount",
          "type": "uint256"
        },
        {
          "indexed": false,
          "internalType": "address",
          "name": "contractAddress",
          "type": "address"
        }
      ],
      "name": "ERC20Received",
      "type": "event"
    },
    {
      "anonymous": false,
      "inputs": [
        {
          "indexed": false,
          "internalType": "address",
          "name": "from",
          "type": "address"
        },
        {
          "indexed": false,
          "internalType": "uint256",
          "name": "uid",
          "type": "uint256"
        },
        {
          "indexed": false,
          "internalType": "address",
          "name": "contractAddress",
          "type": "address"
        },
        {
          "indexed": false,
          "internalType": "bytes",
          "name": "data",
          "type": "bytes"
        }
      ],
      "name": "ERC721Received",
      "type": "event"
    },
    {
      "anonymous": false,
      "inputs": [
        {
          "indexed": false,
          "internalType": "address",
          "name": "from",
          "type": "address"
        },
        {
          "indexed": false,
          "internalType": "uint256",
          "name": "amount",
          "type": "uint256"
        }
      ],
      "name": "ETHReceived",
      "type": "event"
    },
    {
      "anonymous": false,
      "inputs": [
        {
          "indexed": true,
          "internalType": "address",
          "name": "previousOwner",
          "type": "address"
        },
        {
          "indexed": true,
          "internalType": "address",
          "name": "newOwner",
          "type": "address"
        }
      ],
      "name": "OwnershipTransferred",
      "type": "event"
    },
    {
      "anonymous": false,
      "inputs": [
        {
          "indexed": false,
          "internalType": "address",
          "name": "validator",
          "type": "address"
        }
      ],
      "name": "RemovedValidator",
      "type": "event"
    },
    {
      "anonymous": false,
      "inputs": [
        {
          "indexed": false,
          "internalType": "address",
          "name": "from",
          "type": "address"
        },
        {
          "indexed": false,
          "internalType": "uint256",
          "name": "uid",
          "type": "uint256"
        },
        {
          "indexed": false,
          "internalType": "address",
          "name": "toSidechainAddress",
          "type": "address"
        },
        {
          "indexed": false,
          "internalType": "bytes",
          "name": "data",
          "type": "bytes"
        }
      ],
      "name": "SendDragonToSidechainAttempt",
      "type": "event"
    },
    {
      "anonymous": false,
      "inputs": [
        {
          "indexed": true,
          "internalType": "address",
          "name": "owner",
          "type": "address"
        },
        {
          "indexed": false,
          "internalType": "enum MainnetGateway.TokenKind",
          "name": "kind",
          "type": "uint8"
        },
        {
          "indexed": false,
          "internalType": "address",
          "name": "contractAddress",
          "type": "address"
        },
        {
          "indexed": false,
          "internalType": "uint256",
          "name": "value",
          "type": "uint256"
        }
      ],
      "name": "TokenWithdrawn",
      "type": "event"
    },
    {
      "payable": true,
      "stateMutability": "payable",
      "type": "fallback"
    },
    {
      "constant": false,
      "inputs": [
        {
          "internalType": "address",
          "name": "validator",
          "type": "address"
        },
        {
          "internalType": "uint8[]",
          "name": "v",
          "type": "uint8[]"
        },
        {
          "internalType": "bytes32[]",
          "name": "r",
          "type": "bytes32[]"
        },
        {
          "internalType": "bytes32[]",
          "name": "s",
          "type": "bytes32[]"
        }
      ],
      "name": "addValidator",
      "outputs": [],
      "payable": false,
      "stateMutability": "nonpayable",
      "type": "function"
    },
    {
      "constant": true,
      "inputs": [
        {
          "internalType": "address",
          "name": "",
          "type": "address"
        }
      ],
      "name": "allowedTokens",
      "outputs": [
        {
          "internalType": "bool",
          "name": "",
          "type": "bool"
        }
      ],
      "payable": false,
      "stateMutability": "view",
      "type": "function"
    },
    {
      "constant": true,
      "inputs": [
        {
          "internalType": "address",
          "name": "_address",
          "type": "address"
        }
      ],
      "name": "checkValidator",
      "outputs": [
        {
          "internalType": "bool",
          "name": "",
          "type": "bool"
        }
      ],
      "payable": false,
      "stateMutability": "view",
      "type": "function"
    },
    {
      "constant": true,
      "inputs": [],
      "name": "isOwner",
      "outputs": [
        {
          "internalType": "bool",
          "name": "",
          "type": "bool"
        }
      ],
      "payable": false,
      "stateMutability": "view",
      "type": "function"
    },
    {
      "constant": true,
      "inputs": [],
      "name": "nonce",
      "outputs": [
        {
          "internalType": "uint256",
          "name": "",
          "type": "uint256"
        }
      ],
      "payable": false,
      "stateMutability": "view",
      "type": "function"
    },
    {
      "constant": true,
      "inputs": [
        {
          "internalType": "address",
          "name": "",
          "type": "address"
        }
      ],
      "name": "nonces",
      "outputs": [
        {
          "internalType": "uint256",
          "name": "",
          "type": "uint256"
        }
      ],
      "payable": false,
      "stateMutability": "view",
      "type": "function"
    },
    {
      "constant": true,
      "inputs": [],
      "name": "numValidators",
      "outputs": [
        {
          "internalType": "uint256",
          "name": "",
          "type": "uint256"
        }
      ],
      "payable": false,
      "stateMutability": "view",
      "type": "function"
    },
    {
      "constant": true,
      "inputs": [],
      "name": "owner",
      "outputs": [
        {
          "internalType": "address",
          "name": "",
          "type": "address"
        }
      ],
      "payable": false,
      "stateMutability": "view",
      "type": "function"
    },
    {
      "constant": false,
      "inputs": [
        {
          "internalType": "address",
          "name": "validator",
          "type": "address"
        },
        {
          "internalType": "uint8[]",
          "name": "v",
          "type": "uint8[]"
        },
        {
          "internalType": "bytes32[]",
          "name": "r",
          "type": "bytes32[]"
        },
        {
          "internalType": "bytes32[]",
          "name": "s",
          "type": "bytes32[]"
        }
      ],
      "name": "removeValidator",
      "outputs": [],
      "payable": false,
      "stateMutability": "nonpayable",
      "type": "function"
    },
    {
      "constant": false,
      "inputs": [],
      "name": "renounceOwnership",
      "outputs": [],
      "payable": false,
      "stateMutability": "nonpayable",
      "type": "function"
    },
    {
      "constant": false,
      "inputs": [
        {
          "internalType": "address",
          "name": "_token",
          "type": "address"
        }
      ],
      "name": "toggleToken",
      "outputs": [],
      "payable": false,
      "stateMutability": "nonpayable",
      "type": "function"
    },
    {
      "constant": false,
      "inputs": [
        {
          "internalType": "address",
          "name": "newOwner",
          "type": "address"
        }
      ],
      "name": "transferOwnership",
      "outputs": [],
      "payable": false,
      "stateMutability": "nonpayable",
      "type": "function"
    },
    {
      "constant": false,
      "inputs": [
        {
          "internalType": "address",
          "name": "contractAddress",
          "type": "address"
        }
      ],
      "name": "setERC721ContractAddress",
      "outputs": [],
      "payable": false,
      "stateMutability": "nonpayable",
      "type": "function"
    },
    {
      "constant": false,
      "inputs": [
        {
          "internalType": "address",
          "name": "from",
          "type": "address"
        },
        {
          "internalType": "address",
          "name": "toSidechainAddress",
          "type": "address"
        },
        {
          "internalType": "uint256",
          "name": "uid",
          "type": "uint256"
        },
        {
          "internalType": "bytes",
          "name": "data",
          "type": "bytes"
        }
      ],
      "name": "depositDragon",
      "outputs": [],
      "payable": false,
      "stateMutability": "nonpayable",
      "type": "function"
    },
    {
      "constant": false,
      "inputs": [
        {
          "internalType": "address",
          "name": "mainchainAddress",
          "type": "address"
        },
        {
          "internalType": "uint256",
          "name": "uid",
          "type": "uint256"
        },
        {
          "internalType": "bytes",
          "name": "data",
          "type": "bytes"
        }
      ],
      "name": "receiveDragon",
      "outputs": [],
      "payable": false,
      "stateMutability": "nonpayable",
      "type": "function"
    },
    {
      "constant": false,
      "inputs": [
        {
          "internalType": "address",
          "name": "mainchainAddress",
          "type": "address"
        },
        {
          "internalType": "uint256",
          "name": "uid",
          "type": "uint256"
        }
      ],
      "name": "withdrawDragon",
      "outputs": [],
      "payable": false,
      "stateMutability": "nonpayable",
      "type": "function"
    },
    {
      "constant": false,
      "inputs": [
        {
          "internalType": "uint256",
          "name": "amount",
          "type": "uint256"
        },
        {
          "internalType": "bytes",
          "name": "sig",
          "type": "bytes"
        },
        {
          "internalType": "address",
          "name": "contractAddress",
          "type": "address"
        }
      ],
      "name": "withdrawERC20",
      "outputs": [],
      "payable": false,
      "stateMutability": "nonpayable",
      "type": "function"
    },
    {
      "constant": false,
      "inputs": [
        {
          "internalType": "uint256",
          "name": "uid",
          "type": "uint256"
        },
        {
          "internalType": "bytes",
          "name": "sig",
          "type": "bytes"
        },
        {
          "internalType": "address",
          "name": "contractAddress",
          "type": "address"
        }
      ],
      "name": "withdrawERC721",
      "outputs": [],
      "payable": false,
      "stateMutability": "nonpayable",
      "type": "function"
    },
    {
      "constant": false,
      "inputs": [
        {
          "internalType": "uint256",
          "name": "amount",
          "type": "uint256"
        },
        {
          "internalType": "bytes",
          "name": "sig",
          "type": "bytes"
        }
      ],
      "name": "withdrawETH",
      "outputs": [],
      "payable": false,
      "stateMutability": "nonpayable",
      "type": "function"
    },
    {
      "constant": false,
      "inputs": [
        {
          "internalType": "uint256",
          "name": "amount",
          "type": "uint256"
        },
        {
          "internalType": "address",
          "name": "contractAddress",
          "type": "address"
        }
      ],
      "name": "depositERC20",
      "outputs": [],
      "payable": false,
      "stateMutability": "nonpayable",
      "type": "function"
    },
    {
      "constant": false,
      "inputs": [
        {
          "internalType": "address",
          "name": "_from",
          "type": "address"
        },
        {
          "internalType": "uint256",
          "name": "amount",
          "type": "uint256"
        }
      ],
      "name": "onERC20Received",
      "outputs": [
        {
          "internalType": "bytes4",
          "name": "",
          "type": "bytes4"
        }
      ],
      "payable": false,
      "stateMutability": "nonpayable",
      "type": "function"
    },
    {
      "constant": false,
      "inputs": [
        {
          "internalType": "address",
          "name": "operator",
          "type": "address"
        },
        {
          "internalType": "address",
          "name": "_from",
          "type": "address"
        },
        {
          "internalType": "uint256",
          "name": "_uid",
          "type": "uint256"
        },
        {
          "internalType": "bytes",
          "name": "data",
          "type": "bytes"
        }
      ],
      "name": "onERC721Received",
      "outputs": [
        {
          "internalType": "bytes4",
          "name": "",
          "type": "bytes4"
        }
      ],
      "payable": false,
      "stateMutability": "nonpayable",
      "type": "function"
    },
    {
      "constant": true,
      "inputs": [
        {
          "internalType": "address",
          "name": "owner",
          "type": "address"
        }
      ],
      "name": "getETH",
      "outputs": [
        {
          "internalType": "uint256",
          "name": "",
          "type": "uint256"
        }
      ],
      "payable": false,
      "stateMutability": "view",
      "type": "function"
    },
    {
      "constant": true,
      "inputs": [
        {
          "internalType": "address",
          "name": "owner",
          "type": "address"
        },
        {
          "internalType": "address",
          "name": "contractAddress",
          "type": "address"
        }
      ],
      "name": "getERC20",
      "outputs": [
        {
          "internalType": "uint256",
          "name": "",
          "type": "uint256"
        }
      ],
      "payable": false,
      "stateMutability": "view",
      "type": "function"
    },
    {
      "constant": true,
      "inputs": [
        {
          "internalType": "address",
          "name": "owner",
          "type": "address"
        },
        {
          "internalType": "uint256",
          "name": "uid",
          "type": "uint256"
        },
        {
          "internalType": "address",
          "name": "contractAddress",
          "type": "address"
        }
      ],
      "name": "getNFT",
      "outputs": [
        {
          "internalType": "bool",
          "name": "",
          "type": "bool"
        }
      ],
      "payable": false,
      "stateMutability": "view",
      "type": "function"
    }
  ],
  "bytecode": "0x60806040523480156200001157600080fd5b5060405162004e8c38038062004e8c833981810160405260608110156200003757600080fd5b81019080805160405193929190846401000000008211156200005857600080fd5b838201915060208201858111156200006f57600080fd5b82518660208202830111640100000000821117156200008d57600080fd5b8083526020830192505050908051906020019060200280838360005b83811015620000c6578082015181840152602081019050620000a9565b505050509050016040526020018051906020019092919080519060200190929190505050828282336000806101000a81548173ffffffffffffffffffffffffffffffffffffffff021916908373ffffffffffffffffffffffffffffffffffffffff1602179055506000809054906101000a900473ffffffffffffffffffffffffffffffffffffffff1673ffffffffffffffffffffffffffffffffffffffff16600073ffffffffffffffffffffffffffffffffffffffff167f8be0079c531659141344cd1fd0a4f28419497f9722a3daafe3b4186f6b6457e060405160405180910390a360008351905060008111620001bd57600080fd5b82600460006101000a81548160ff021916908360ff16021790555081600460016101000a81548160ff021916908360ff16021790555060008090505b818110156200034257600073ffffffffffffffffffffffffffffffffffffffff168582815181106200022757fe5b602002602001015173ffffffffffffffffffffffffffffffffffffffff1614156200025157600080fd5b6001600360008784815181106200026457fe5b602002602001015173ffffffffffffffffffffffffffffffffffffffff1673ffffffffffffffffffffffffffffffffffffffff16815260200190815260200160002060006101000a81548160ff0219169083151502179055507f8e15bf46bd11add443414ada75aa9592a4af68f3f2ec02ae3d49572f9843c2a8858281518110620002eb57fe5b6020026020010151604051808273ffffffffffffffffffffffffffffffffffffffff1673ffffffffffffffffffffffffffffffffffffffff16815260200191505060405180910390a18080600101915050620001f9565b50835160058190555050505050505050614b2a80620003626000396000f3fe608060405260043610610183576000357c0100000000000000000000000000000000000000000000000000000000900480638da5cb5b116100ee578063b3e51f87116100a7578063c899a86b11610081578063c899a86b14610e28578063d296bb4e14610ed8578063e744092e14610f33578063f2fde38b14610f9c57610183565b8063b3e51f8714610ba6578063bc04f0af14610c2b578063c7e7f6f614610cd857610183565b80638da5cb5b146108ad5780638f32d59b1461090457806390b616c8146109335780639594058a14610a83578063a928584b14610b16578063affed0e014610b7b57610183565b80633ef32986116101405780633ef329861461061b5780635d593f8d146106ab578063715018a6146106d6578063797327ae146106ed5780637ecebe0014610756578063841a9be4146107bb57610183565b8063150b7a02146101f857806315c75f891461035c5780631e0f692e146103ad5780632492fbeb146103fe5780632cd2e93014610510578063392d661c146105c0575b61018b610fed565b7fbfe611b001dfcd411432f7bf0d79b82b4b2ee81511edac123a3403c357fb972a3334604051808373ffffffffffffffffffffffffffffffffffffffff1673ffffffffffffffffffffffffffffffffffffffff1681526020018281526020019250505060405180910390a1005b34801561020457600080fd5b506103086004803603608081101561021b57600080fd5b81019080803573ffffffffffffffffffffffffffffffffffffffff169060200190929190803573ffffffffffffffffffffffffffffffffffffffff169060200190929190803590602001909291908035906020019064010000000081111561028257600080fd5b82018360208201111561029457600080fd5b803590602001918460018302840111640100000000831117156102b657600080fd5b91908080601f016020809104026020016040519081016040528093929190818152602001838380828437600081840152601f19601f82011690508083019250505050505050919291929050505061108a565b60405180827bffffffffffffffffffffffffffffffffffffffffffffffffffffffff19167bffffffffffffffffffffffffffffffffffffffffffffffffffffffff1916815260200191505060405180910390f35b34801561036857600080fd5b506103ab6004803603602081101561037f57600080fd5b81019080803573ffffffffffffffffffffffffffffffffffffffff169060200190929190505050611290565b005b3480156103b957600080fd5b506103fc600480360360208110156103d057600080fd5b81019080803573ffffffffffffffffffffffffffffffffffffffff169060200190929190505050611349565b005b34801561040a57600080fd5b5061050e6004803603608081101561042157600080fd5b81019080803573ffffffffffffffffffffffffffffffffffffffff169060200190929190803573ffffffffffffffffffffffffffffffffffffffff169060200190929190803590602001909291908035906020019064010000000081111561048857600080fd5b82018360208201111561049a57600080fd5b803590602001918460018302840111640100000000831117156104bc57600080fd5b91908080601f016020809104026020016040519081016040528093929190818152602001838380828437600081840152601f19601f820116905080830192505050505050509192919290505050611551565b005b34801561051c57600080fd5b506105be6004803603606081101561053357600080fd5b81019080803590602001909291908035906020019064010000000081111561055a57600080fd5b82018360208201111561056c57600080fd5b8035906020019184600183028401116401000000008311171561058e57600080fd5b9091929391929390803573ffffffffffffffffffffffffffffffffffffffff1690602001909291905050506117da565b005b3480156105cc57600080fd5b50610619600480360360408110156105e357600080fd5b8101908080359060200190929190803573ffffffffffffffffffffffffffffffffffffffff169060200190929190505050611cb9565b005b34801561062757600080fd5b506106a96004803603604081101561063e57600080fd5b81019080803590602001909291908035906020019064010000000081111561066557600080fd5b82018360208201111561067757600080fd5b8035906020019184600183028401116401000000008311171561069957600080fd5b9091929391929390505050611f84565b005b3480156106b757600080fd5b506106c0612350565b6040518082815260200191505060405180910390f35b3480156106e257600080fd5b506106eb612356565b005b3480156106f957600080fd5b5061073c6004803603602081101561071057600080fd5b81019080803573ffffffffffffffffffffffffffffffffffffffff169060200190929190505050612472565b604051808215151515815260200191505060405180910390f35b34801561076257600080fd5b506107a56004803603602081101561077957600080fd5b81019080803573ffffffffffffffffffffffffffffffffffffffff16906020019092919050505061250d565b6040518082815260200191505060405180910390f35b3480156107c757600080fd5b506108ab600480360360608110156107de57600080fd5b81019080803573ffffffffffffffffffffffffffffffffffffffff169060200190929190803590602001909291908035906020019064010000000081111561082557600080fd5b82018360208201111561083757600080fd5b8035906020019184600183028401116401000000008311171561085957600080fd5b91908080601f016020809104026020016040519081016040528093929190818152602001838380828437600081840152601f19601f820116905080830192505050505050509192919290505050612525565b005b3480156108b957600080fd5b506108c26129d2565b604051808273ffffffffffffffffffffffffffffffffffffffff1673ffffffffffffffffffffffffffffffffffffffff16815260200191505060405180910390f35b34801561091057600080fd5b506109196129fb565b604051808215151515815260200191505060405180910390f35b34801561093f57600080fd5b50610a816004803603608081101561095657600080fd5b81019080803573ffffffffffffffffffffffffffffffffffffffff1690602001909291908035906020019064010000000081111561099357600080fd5b8201836020820111156109a557600080fd5b803590602001918460208302840111640100000000831117156109c757600080fd5b9091929391929390803590602001906401000000008111156109e857600080fd5b8201836020820111156109fa57600080fd5b80359060200191846020830284011164010000000083111715610a1c57600080fd5b909192939192939080359060200190640100000000811115610a3d57600080fd5b820183602082011115610a4f57600080fd5b80359060200191846020830284011164010000000083111715610a7157600080fd5b9091929391929390505050612a52565b005b348015610a8f57600080fd5b50610afc60048036036060811015610aa657600080fd5b81019080803573ffffffffffffffffffffffffffffffffffffffff16906020019092919080359060200190929190803573ffffffffffffffffffffffffffffffffffffffff169060200190929190505050612d62565b604051808215151515815260200191505060405180910390f35b348015610b2257600080fd5b50610b6560048036036020811015610b3957600080fd5b81019080803573ffffffffffffffffffffffffffffffffffffffff169060200190929190505050612e14565b6040518082815260200191505060405180910390f35b348015610b8757600080fd5b50610b90612e60565b6040518082815260200191505060405180910390f35b348015610bb257600080fd5b50610c1560048036036040811015610bc957600080fd5b81019080803573ffffffffffffffffffffffffffffffffffffffff169060200190929190803573ffffffffffffffffffffffffffffffffffffffff169060200190929190505050612e66565b6040518082815260200191505060405180910390f35b348015610c3757600080fd5b50610c8460048036036040811015610c4e57600080fd5b81019080803573ffffffffffffffffffffffffffffffffffffffff16906020019092919080359060200190929190505050612ef0565b60405180827bffffffffffffffffffffffffffffffffffffffffffffffffffffffff19167bffffffffffffffffffffffffffffffffffffffffffffffffffffffff1916815260200191505060405180910390f35b348015610ce457600080fd5b50610e2660048036036080811015610cfb57600080fd5b81019080803573ffffffffffffffffffffffffffffffffffffffff16906020019092919080359060200190640100000000811115610d3857600080fd5b820183602082011115610d4a57600080fd5b80359060200191846020830284011164010000000083111715610d6c57600080fd5b909192939192939080359060200190640100000000811115610d8d57600080fd5b820183602082011115610d9f57600080fd5b80359060200191846020830284011164010000000083111715610dc157600080fd5b909192939192939080359060200190640100000000811115610de257600080fd5b820183602082011115610df457600080fd5b80359060200191846020830284011164010000000083111715610e1657600080fd5b9091929391929390505050613086565b005b348015610e3457600080fd5b50610ed660048036036060811015610e4b57600080fd5b810190808035906020019092919080359060200190640100000000811115610e7257600080fd5b820183602082011115610e8457600080fd5b80359060200191846001830284011164010000000083111715610ea657600080fd5b9091929391929390803573ffffffffffffffffffffffffffffffffffffffff16906020019092919050505061339c565b005b348015610ee457600080fd5b50610f3160048036036040811015610efb57600080fd5b81019080803573ffffffffffffffffffffffffffffffffffffffff16906020019092919080359060200190929190505050613a4b565b005b348015610f3f57600080fd5b50610f8260048036036020811015610f5657600080fd5b81019080803573ffffffffffffffffffffffffffffffffffffffff169060200190929190505050613e8f565b604051808215151515815260200191505060405180910390f35b348015610fa857600080fd5b50610feb60048036036020811015610fbf57600080fd5b81019080803573ffffffffffffffffffffffffffffffffffffffff169060200190929190505050613eaf565b005b61104234600860003373ffffffffffffffffffffffffffffffffffffffff1673ffffffffffffffffffffffffffffffffffffffff16815260200190815260200160002060000154613f1890919063ffffffff16565b600860003373ffffffffffffffffffffffffffffffffffffffff1673ffffffffffffffffffffffffffffffffffffffff16815260200190815260200160002060000181905550565b6000600160003373ffffffffffffffffffffffffffffffffffffffff1673ffffffffffffffffffffffffffffffffffffffff16815260200190815260200160002060009054906101000a900460ff1661114b576040517f08c379a00000000000000000000000000000000000000000000000000000000081526004018080602001828103825260118152602001807f4e6f7420612076616c696420746f6b656e00000000000000000000000000000081525060200191505060405180910390fd5b611156848484613f83565b7f588be4790523ccfac918f892b3167c3555209d3263e5f49e41a8a4cd9cbeed1d84843385604051808573ffffffffffffffffffffffffffffffffffffffff1673ffffffffffffffffffffffffffffffffffffffff1681526020018481526020018373ffffffffffffffffffffffffffffffffffffffff1673ffffffffffffffffffffffffffffffffffffffff16815260200180602001828103825283818151815260200191508051906020019080838360005b8381101561122557808201518184015260208101905061120a565b50505050905090810190601f1680156112525780820380516001836020036101000a031916815260200191505b509550505050505060405180910390a163f0b9e5ba7c0100000000000000000000000000000000000000000000000000000000029050949350505050565b61129933612472565b6112a257600080fd5b600160008273ffffffffffffffffffffffffffffffffffffffff1673ffffffffffffffffffffffffffffffffffffffff16815260200190815260200160002060009054906101000a900460ff1615600160008373ffffffffffffffffffffffffffffffffffffffff1673ffffffffffffffffffffffffffffffffffffffff16815260200190815260200160002060006101000a81548160ff02191690831515021790555050565b6113516129fb565b6113a6576040517f08c379a0000000000000000000000000000000000000000000000000000000008152600401808060200182810382526026815260200180614a6a6026913960400191505060405180910390fd5b600073ffffffffffffffffffffffffffffffffffffffff168173ffffffffffffffffffffffffffffffffffffffff161415611449576040517f08c379a00000000000000000000000000000000000000000000000000000000081526004018080602001828103825260198152602001807f496e76616c6964206164647265737320706172616d657465720000000000000081525060200191505060405180910390fd5b600073ffffffffffffffffffffffffffffffffffffffff16600760009054906101000a900473ffffffffffffffffffffffffffffffffffffffff1673ffffffffffffffffffffffffffffffffffffffff161461150d576040517f08c379a000000000000000000000000000000000000000000000000000000000815260040180806020018281038252601d8152602001807f636f6e747261637420636f6e206f6e6c7920626520736574206f6e636500000081525060200191505060405180910390fd5b80600760006101000a81548173ffffffffffffffffffffffffffffffffffffffff021916908373ffffffffffffffffffffffffffffffffffffffff16021790555050565b600760009054906101000a900473ffffffffffffffffffffffffffffffffffffffff1673ffffffffffffffffffffffffffffffffffffffff163373ffffffffffffffffffffffffffffffffffffffff16146115f7576040517f08c379a00000000000000000000000000000000000000000000000000000000081526004018080602001828103825260308152602001806149df6030913960400191505060405180910390fd5b60016009600084815260200190815260200160002060006101000a81548160ff02191690831515021790555080600860008673ffffffffffffffffffffffffffffffffffffffff1673ffffffffffffffffffffffffffffffffffffffff16815260200190815260200160002060020160008673ffffffffffffffffffffffffffffffffffffffff1673ffffffffffffffffffffffffffffffffffffffff168152602001908152602001600020600084815260200190815260200160002090805190602001906116c79291906148cb565b507fe710ae4881be30138e1b891afeca0f3c53f2d8ac585269f2599cac40d4eecb6c84838584604051808573ffffffffffffffffffffffffffffffffffffffff1673ffffffffffffffffffffffffffffffffffffffff1681526020018481526020018373ffffffffffffffffffffffffffffffffffffffff1673ffffffffffffffffffffffffffffffffffffffff16815260200180602001828103825283818151815260200191508051906020019080838360005b8381101561179757808201518184015260208101905061177c565b50505050905090810190601f1680156117c45780820380516001836020036101000a031916815260200191505b509550505050505060405180910390a150505050565b838184848080601f016020809104026020016040519081016040528093929190818152602001838380828437600081840152601f19601f8201169050808301925050505050505060003383600260003373ffffffffffffffffffffffffffffffffffffffff1673ffffffffffffffffffffffffffffffffffffffff1681526020019081526020016000205486604051602001808573ffffffffffffffffffffffffffffffffffffffff1673ffffffffffffffffffffffffffffffffffffffff166c010000000000000000000000000281526014018473ffffffffffffffffffffffffffffffffffffffff1673ffffffffffffffffffffffffffffffffffffffff166c01000000000000000000000000028152601401838152602001828152602001945050505050604051602081830303815290604052805190602001209050600061192e838361402d90919063ffffffff16565b9050600360008273ffffffffffffffffffffffffffffffffffffffff1673ffffffffffffffffffffffffffffffffffffffff16815260200190815260200160002060009054906101000a900460ff166119d2576040517f08c379a0000000000000000000000000000000000000000000000000000000008152600401808060200182810382526021815260200180614a496021913960400191505060405180910390fd5b611a6489600860003373ffffffffffffffffffffffffffffffffffffffff1673ffffffffffffffffffffffffffffffffffffffff16815260200190815260200160002060010160008973ffffffffffffffffffffffffffffffffffffffff1673ffffffffffffffffffffffffffffffffffffffff1681526020019081526020016000205461428b90919063ffffffff16565b600860003373ffffffffffffffffffffffffffffffffffffffff1673ffffffffffffffffffffffffffffffffffffffff16815260200190815260200160002060010160008873ffffffffffffffffffffffffffffffffffffffff1673ffffffffffffffffffffffffffffffffffffffff168152602001908152602001600020819055508573ffffffffffffffffffffffffffffffffffffffff1663a9059cbb338b6040518363ffffffff167c0100000000000000000000000000000000000000000000000000000000028152600401808373ffffffffffffffffffffffffffffffffffffffff1673ffffffffffffffffffffffffffffffffffffffff16815260200182815260200192505050602060405180830381600087803b158015611b8a57600080fd5b505af1158015611b9e573d6000803e3d6000fd5b505050506040513d6020811015611bb457600080fd5b8101908080519060200190929190505050503373ffffffffffffffffffffffffffffffffffffffff167f591f2d33d85291e32c4067b5a497caf3ddb5b1830eba9909e66006ec3a0051b46001888c60405180846002811115611c1257fe5b60ff1681526020018373ffffffffffffffffffffffffffffffffffffffff1673ffffffffffffffffffffffffffffffffffffffff168152602001828152602001935050505060405180910390a2600260003373ffffffffffffffffffffffffffffffffffffffff1673ffffffffffffffffffffffffffffffffffffffff16815260200190815260200160002060008154809291906001019190505550505050505050505050565b8073ffffffffffffffffffffffffffffffffffffffff166323b872dd3330856040518463ffffffff167c0100000000000000000000000000000000000000000000000000000000028152600401808473ffffffffffffffffffffffffffffffffffffffff1673ffffffffffffffffffffffffffffffffffffffff1681526020018373ffffffffffffffffffffffffffffffffffffffff1673ffffffffffffffffffffffffffffffffffffffff1681526020018281526020019350505050602060405180830381600087803b158015611d9057600080fd5b505af1158015611da4573d6000803e3d6000fd5b505050506040513d6020811015611dba57600080fd5b810190808051906020019092919050505050611e5e82600860003373ffffffffffffffffffffffffffffffffffffffff1673ffffffffffffffffffffffffffffffffffffffff16815260200190815260200160002060010160008473ffffffffffffffffffffffffffffffffffffffff1673ffffffffffffffffffffffffffffffffffffffff16815260200190815260200160002054613f1890919063ffffffff16565b600860003373ffffffffffffffffffffffffffffffffffffffff1673ffffffffffffffffffffffffffffffffffffffff16815260200190815260200160002060010160008373ffffffffffffffffffffffffffffffffffffffff1673ffffffffffffffffffffffffffffffffffffffff168152602001908152602001600020819055507fa13cf347fb36122550e414f6fd1a0c2e490cff76331c4dcc20f760891ecca12a338383604051808473ffffffffffffffffffffffffffffffffffffffff1673ffffffffffffffffffffffffffffffffffffffff1681526020018381526020018273ffffffffffffffffffffffffffffffffffffffff1673ffffffffffffffffffffffffffffffffffffffff168152602001935050505060405180910390a15050565b823083838080601f016020809104026020016040519081016040528093929190818152602001838380828437600081840152601f19601f8201169050808301925050505050505060003383600260003373ffffffffffffffffffffffffffffffffffffffff1673ffffffffffffffffffffffffffffffffffffffff1681526020019081526020016000205486604051602001808573ffffffffffffffffffffffffffffffffffffffff1673ffffffffffffffffffffffffffffffffffffffff166c010000000000000000000000000281526014018473ffffffffffffffffffffffffffffffffffffffff1673ffffffffffffffffffffffffffffffffffffffff166c0100000000000000000000000002815260140183815260200182815260200194505050505060405160208183030381529060405280519060200120905060006120d8838361402d90919063ffffffff16565b9050600360008273ffffffffffffffffffffffffffffffffffffffff1673ffffffffffffffffffffffffffffffffffffffff16815260200190815260200160002060009054906101000a900460ff1661217c576040517f08c379a0000000000000000000000000000000000000000000000000000000008152600401808060200182810382526021815260200180614a496021913960400191505060405180910390fd5b6121d188600860003373ffffffffffffffffffffffffffffffffffffffff1673ffffffffffffffffffffffffffffffffffffffff1681526020019081526020016000206000015461428b90919063ffffffff16565b600860003373ffffffffffffffffffffffffffffffffffffffff1673ffffffffffffffffffffffffffffffffffffffff168152602001908152602001600020600001819055503373ffffffffffffffffffffffffffffffffffffffff166108fc899081150290604051600060405180830381858888f1935050505015801561225d573d6000803e3d6000fd5b503373ffffffffffffffffffffffffffffffffffffffff167f591f2d33d85291e32c4067b5a497caf3ddb5b1830eba9909e66006ec3a0051b46000808b604051808460028111156122aa57fe5b60ff1681526020018373ffffffffffffffffffffffffffffffffffffffff1673ffffffffffffffffffffffffffffffffffffffff168152602001828152602001935050505060405180910390a2600260003373ffffffffffffffffffffffffffffffffffffffff1673ffffffffffffffffffffffffffffffffffffffff168152602001908152602001600020600081548092919060010191905055505050505050505050565b60055481565b61235e6129fb565b6123b3576040517f08c379a0000000000000000000000000000000000000000000000000000000008152600401808060200182810382526026815260200180614a6a6026913960400191505060405180910390fd5b600073ffffffffffffffffffffffffffffffffffffffff166000809054906101000a900473ffffffffffffffffffffffffffffffffffffffff1673ffffffffffffffffffffffffffffffffffffffff167f8be0079c531659141344cd1fd0a4f28419497f9722a3daafe3b4186f6b6457e060405160405180910390a360008060006101000a81548173ffffffffffffffffffffffffffffffffffffffff021916908373ffffffffffffffffffffffffffffffffffffffff160217905550565b600061247c6129d2565b73ffffffffffffffffffffffffffffffffffffffff168273ffffffffffffffffffffffffffffffffffffffff1614156124b85760019050612508565b600360008373ffffffffffffffffffffffffffffffffffffffff1673ffffffffffffffffffffffffffffffffffffffff16815260200190815260200160002060009054906101000a900460ff1690505b919050565b60026020528060005260406000206000915090505481565b600073ffffffffffffffffffffffffffffffffffffffff168373ffffffffffffffffffffffffffffffffffffffff1614156125ab576040517f08c379a000000000000000000000000000000000000000000000000000000000815260040180806020018281038252602a815260200180614acc602a913960400191505060405180910390fd5b6009600083815260200190815260200160002060009054906101000a900460ff16156126ec576000600860008573ffffffffffffffffffffffffffffffffffffffff1673ffffffffffffffffffffffffffffffffffffffff16815260200190815260200160002060020160008573ffffffffffffffffffffffffffffffffffffffff1673ffffffffffffffffffffffffffffffffffffffff1681526020019081526020016000206000848152602001908152602001600020805460018160011615610100020316600290049050116126eb576040517f08c379a00000000000000000000000000000000000000000000000000000000081526004018080602001828103825260128152602001807f446f6573206e6f74206f776e20746f6b656e000000000000000000000000000081525060200191505060405180910390fd5b5b600760009054906101000a900473ffffffffffffffffffffffffffffffffffffffff1673ffffffffffffffffffffffffffffffffffffffff16636fbb70458484846040518463ffffffff167c0100000000000000000000000000000000000000000000000000000000028152600401808473ffffffffffffffffffffffffffffffffffffffff1673ffffffffffffffffffffffffffffffffffffffff16815260200183815260200180602001828103825283818151815260200191508051906020019080838360005b838110156127d05780820151818401526020810190506127b5565b50505050905090810190601f1680156127fd5780820380516001836020036101000a031916815260200191505b50945050505050600060405180830381600087803b15801561281e57600080fd5b505af1158015612832573d6000803e3d6000fd5b505050506009600083815260200190815260200160002060006101000a81549060ff0219169055600860008473ffffffffffffffffffffffffffffffffffffffff1673ffffffffffffffffffffffffffffffffffffffff16815260200190815260200160002060020160008473ffffffffffffffffffffffffffffffffffffffff1673ffffffffffffffffffffffffffffffffffffffff168152602001908152602001600020600083815260200190815260200160002060006128f5919061494b565b7fe598caee651add18044c0505712b5edcf921a067f138d9c0b10ec19b9acd27db838383604051808473ffffffffffffffffffffffffffffffffffffffff1673ffffffffffffffffffffffffffffffffffffffff16815260200183815260200180602001828103825283818151815260200191508051906020019080838360005b83811015612991578082015181840152602081019050612976565b50505050905090810190601f1680156129be5780820380516001836020036101000a031916815260200191505b5094505050505060405180910390a1505050565b60008060009054906101000a900473ffffffffffffffffffffffffffffffffffffffff16905090565b60008060009054906101000a900473ffffffffffffffffffffffffffffffffffffffff1673ffffffffffffffffffffffffffffffffffffffff163373ffffffffffffffffffffffffffffffffffffffff1614905090565b600360008873ffffffffffffffffffffffffffffffffffffffff1673ffffffffffffffffffffffffffffffffffffffff16815260200190815260200160002060009054906101000a900460ff1615612b12576040517f08c379a00000000000000000000000000000000000000000000000000000000081526004018080602001828103825260138152602001807f416c726561647920612076616c696461746f720000000000000000000000000081525060200191505060405180910390fd5b60008760065460405160200180807f61646400000000000000000000000000000000000000000000000000000000008152506003018373ffffffffffffffffffffffffffffffffffffffff1673ffffffffffffffffffffffffffffffffffffffff166c0100000000000000000000000002815260140182815260200192505050604051602081830303815290604052805190602001209050612c7981888880806020026020016040519081016040528093929190818152602001838360200280828437600081840152601f19601f82011690508083019250505050505050878780806020026020016040519081016040528093929190818152602001838360200280828437600081840152601f19601f82011690508083019250505050505050868680806020026020016040519081016040528093929190818152602001838360200280828437600081840152601f19601f820116905080830192505050505050506142f7565b6001600360008a73ffffffffffffffffffffffffffffffffffffffff1673ffffffffffffffffffffffffffffffffffffffff16815260200190815260200160002060006101000a81548160ff0219169083151502179055506005600081548092919060010191905055506006600081548092919060010191905055507f8e15bf46bd11add443414ada75aa9592a4af68f3f2ec02ae3d49572f9843c2a888604051808273ffffffffffffffffffffffffffffffffffffffff1673ffffffffffffffffffffffffffffffffffffffff16815260200191505060405180910390a15050505050505050565b600080600860008673ffffffffffffffffffffffffffffffffffffffff1673ffffffffffffffffffffffffffffffffffffffff16815260200190815260200160002060020160008473ffffffffffffffffffffffffffffffffffffffff1673ffffffffffffffffffffffffffffffffffffffff16815260200190815260200160002060008581526020019081526020016000208054600181600116156101000203166002900490501190509392505050565b6000600860008373ffffffffffffffffffffffffffffffffffffffff1673ffffffffffffffffffffffffffffffffffffffff168152602001908152602001600020600001549050919050565b60065481565b6000600860008473ffffffffffffffffffffffffffffffffffffffff1673ffffffffffffffffffffffffffffffffffffffff16815260200190815260200160002060010160008373ffffffffffffffffffffffffffffffffffffffff1673ffffffffffffffffffffffffffffffffffffffff16815260200190815260200160002054905092915050565b6000600160003373ffffffffffffffffffffffffffffffffffffffff1673ffffffffffffffffffffffffffffffffffffffff16815260200190815260200160002060009054906101000a900460ff16612fb1576040517f08c379a00000000000000000000000000000000000000000000000000000000081526004018080602001828103825260118152602001807f4e6f7420612076616c696420746f6b656e00000000000000000000000000000081525060200191505060405180910390fd5b612fbb8383614651565b7fa13cf347fb36122550e414f6fd1a0c2e490cff76331c4dcc20f760891ecca12a838333604051808473ffffffffffffffffffffffffffffffffffffffff1673ffffffffffffffffffffffffffffffffffffffff1681526020018381526020018273ffffffffffffffffffffffffffffffffffffffff1673ffffffffffffffffffffffffffffffffffffffff168152602001935050505060405180910390a163bc04f0af7c010000000000000000000000000000000000000000000000000000000002905092915050565b600360008873ffffffffffffffffffffffffffffffffffffffff1673ffffffffffffffffffffffffffffffffffffffff16815260200190815260200160002060009054906101000a900460ff16613145576040517f08c379a000000000000000000000000000000000000000000000000000000000815260040180806020018281038252600f8152602001807f4e6f7420612076616c696461746f72000000000000000000000000000000000081525060200191505060405180910390fd5b60016005541161315457600080fd5b60008760065460405160200180807f72656d6f766500000000000000000000000000000000000000000000000000008152506006018373ffffffffffffffffffffffffffffffffffffffff1673ffffffffffffffffffffffffffffffffffffffff166c01000000000000000000000000028152601401828152602001925050506040516020818303038152906040528051906020012090506132bb81888880806020026020016040519081016040528093929190818152602001838360200280828437600081840152601f19601f82011690508083019250505050505050878780806020026020016040519081016040528093929190818152602001838360200280828437600081840152601f19601f82011690508083019250505050505050868680806020026020016040519081016040528093929190818152602001838360200280828437600081840152601f19601f820116905080830192505050505050506142f7565b600360008973ffffffffffffffffffffffffffffffffffffffff1673ffffffffffffffffffffffffffffffffffffffff16815260200190815260200160002060006101000a81549060ff0219169055600560008154809291906001900391905055506006600081548092919060010191905055507fb625c55cf7e37b54fcd18bc4edafdf3f4f9acd59a5ec824c77c795dcb2d6507088604051808273ffffffffffffffffffffffffffffffffffffffff1673ffffffffffffffffffffffffffffffffffffffff16815260200191505060405180910390a15050505050505050565b838184848080601f016020809104026020016040519081016040528093929190818152602001838380828437600081840152601f19601f8201169050808301925050505050505060003383600260003373ffffffffffffffffffffffffffffffffffffffff1673ffffffffffffffffffffffffffffffffffffffff1681526020019081526020016000205486604051602001808573ffffffffffffffffffffffffffffffffffffffff1673ffffffffffffffffffffffffffffffffffffffff166c010000000000000000000000000281526014018473ffffffffffffffffffffffffffffffffffffffff1673ffffffffffffffffffffffffffffffffffffffff166c0100000000000000000000000002815260140183815260200182815260200194505050505060405160208183030381529060405280519060200120905060006134f0838361402d90919063ffffffff16565b9050600360008273ffffffffffffffffffffffffffffffffffffffff1673ffffffffffffffffffffffffffffffffffffffff16815260200190815260200160002060009054906101000a900460ff16613594576040517f08c379a0000000000000000000000000000000000000000000000000000000008152600401808060200182810382526021815260200180614a496021913960400191505060405180910390fd5b6000600860003373ffffffffffffffffffffffffffffffffffffffff1673ffffffffffffffffffffffffffffffffffffffff16815260200190815260200160002060020160008873ffffffffffffffffffffffffffffffffffffffff1673ffffffffffffffffffffffffffffffffffffffff16815260200190815260200160002060008b8152602001908152602001600020805460018160011615610100020316600290049050116136ae576040517f08c379a00000000000000000000000000000000000000000000000000000000081526004018080602001828103825260128152602001807f446f6573206e6f74206f776e20746f6b656e000000000000000000000000000081525060200191505060405180910390fd5b6000600860003373ffffffffffffffffffffffffffffffffffffffff1673ffffffffffffffffffffffffffffffffffffffff16815260200190815260200160002060020160008873ffffffffffffffffffffffffffffffffffffffff1673ffffffffffffffffffffffffffffffffffffffff16815260200190815260200160002060008b815260200190815260200160002090508673ffffffffffffffffffffffffffffffffffffffff1663b88d4fde30338d856040518563ffffffff167c0100000000000000000000000000000000000000000000000000000000028152600401808573ffffffffffffffffffffffffffffffffffffffff1673ffffffffffffffffffffffffffffffffffffffff1681526020018473ffffffffffffffffffffffffffffffffffffffff1673ffffffffffffffffffffffffffffffffffffffff168152602001838152602001806020018281038252838181546001816001161561010002031660029004815260200191508054600181600116156101000203166002900480156138805780601f1061385557610100808354040283529160200191613880565b820191906000526020600020905b81548152906001019060200180831161386357829003601f168201915b505095505050505050600060405180830381600087803b1580156138a357600080fd5b505af11580156138b7573d6000803e3d6000fd5b50505050600860003373ffffffffffffffffffffffffffffffffffffffff1673ffffffffffffffffffffffffffffffffffffffff16815260200190815260200160002060020160008873ffffffffffffffffffffffffffffffffffffffff1673ffffffffffffffffffffffffffffffffffffffff16815260200190815260200160002060008b81526020019081526020016000206000613957919061494b565b3373ffffffffffffffffffffffffffffffffffffffff167f591f2d33d85291e32c4067b5a497caf3ddb5b1830eba9909e66006ec3a0051b46002898d604051808460028111156139a357fe5b60ff1681526020018373ffffffffffffffffffffffffffffffffffffffff1673ffffffffffffffffffffffffffffffffffffffff168152602001828152602001935050505060405180910390a250600260003373ffffffffffffffffffffffffffffffffffffffff1673ffffffffffffffffffffffffffffffffffffffff16815260200190815260200160002060008154809291906001019190505550505050505050505050565b6000600860008473ffffffffffffffffffffffffffffffffffffffff1673ffffffffffffffffffffffffffffffffffffffff16815260200190815260200160002060020160008473ffffffffffffffffffffffffffffffffffffffff1673ffffffffffffffffffffffffffffffffffffffff168152602001908152602001600020600083815260200190815260200160002080546001816001161561010002031660029004905011613b65576040517f08c379a00000000000000000000000000000000000000000000000000000000081526004018080602001828103825260128152602001807f446f6573206e6f74206f776e20746f6b656e000000000000000000000000000081525060200191505060405180910390fd5b6000600860008473ffffffffffffffffffffffffffffffffffffffff1673ffffffffffffffffffffffffffffffffffffffff16815260200190815260200160002060020160008473ffffffffffffffffffffffffffffffffffffffff1673ffffffffffffffffffffffffffffffffffffffff16815260200190815260200160002060008381526020019081526020016000209050600760009054906101000a900473ffffffffffffffffffffffffffffffffffffffff1673ffffffffffffffffffffffffffffffffffffffff16636fbb70458484846040518463ffffffff167c0100000000000000000000000000000000000000000000000000000000028152600401808473ffffffffffffffffffffffffffffffffffffffff1673ffffffffffffffffffffffffffffffffffffffff16815260200183815260200180602001828103825283818154600181600116156101000203166002900481526020019150805460018160011615610100020316600290048015613d265780601f10613cfb57610100808354040283529160200191613d26565b820191906000526020600020905b815481529060010190602001808311613d0957829003601f168201915b5050945050505050600060405180830381600087803b158015613d4857600080fd5b505af1158015613d5c573d6000803e3d6000fd5b505050506009600083815260200190815260200160002060006101000a81549060ff0219169055600860008473ffffffffffffffffffffffffffffffffffffffff1673ffffffffffffffffffffffffffffffffffffffff16815260200190815260200160002060020160008473ffffffffffffffffffffffffffffffffffffffff1673ffffffffffffffffffffffffffffffffffffffff16815260200190815260200160002060008381526020019081526020016000206000613e1f919061494b565b7fb158a30820bc15c24ac229d7cd44f3f6c88bac7de7f135d581af8c7f697663848383604051808373ffffffffffffffffffffffffffffffffffffffff1673ffffffffffffffffffffffffffffffffffffffff1681526020018281526020019250505060405180910390a1505050565b60016020528060005260406000206000915054906101000a900460ff1681565b613eb76129fb565b613f0c576040517f08c379a0000000000000000000000000000000000000000000000000000000008152600401808060200182810382526026815260200180614a6a6026913960400191505060405180910390fd5b613f158161476a565b50565b600080828401905083811015613f79576040517f08c379a00000000000000000000000000000000000000000000000000000000081526004018080602001828103825260268152602001806149b96026913960400191505060405180910390fd5b8091505092915050565b80600860008573ffffffffffffffffffffffffffffffffffffffff1673ffffffffffffffffffffffffffffffffffffffff16815260200190815260200160002060020160003373ffffffffffffffffffffffffffffffffffffffff1673ffffffffffffffffffffffffffffffffffffffff168152602001908152602001600020600084815260200190815260200160002090805190602001906140279291906148cb565b50505050565b60006042825114614089576040517f08c379a000000000000000000000000000000000000000000000000000000000815260040180806020018281038252603c815260200180614a90603c913960400191505060405180910390fd5b60008260008151811061409857fe5b60200101517f010000000000000000000000000000000000000000000000000000000000000090047f0100000000000000000000000000000000000000000000000000000000000000027f0100000000000000000000000000000000000000000000000000000000000000900460ff16600281111561411357fe5b90506000806000602186015191506041860151905060ff60428701511692506001600281111561413f57fe5b84600281111561414b57fe5b14156141a7578660405160200180807f19457468657265756d205369676e6564204d6573736167653a0a333200000000815250601c01828152602001915050604051602081830303815290604052805190602001209650614218565b6002808111156141b357fe5b8460028111156141bf57fe5b1415614217578660405160200180807f19457468657265756d205369676e6564204d6573736167653a0a200000000000815250601b018281526020019150506040516020818303038152906040528051906020012096505b5b60018784848460405160008152602001604052604051808581526020018460ff1660ff1681526020018381526020018281526020019450505050506020604051602081039080840390855afa158015614275573d6000803e3d6000fd5b5050506020604051035194505050505092915050565b6000828211156142e6576040517f08c379a000000000000000000000000000000000000000000000000000000000815260040180806020018281038252603a815260200180614a0f603a913960400191505060405180910390fd5b600082840390508091505092915050565b60008351118015614309575081518351145b8015614316575080518251145b614388576040517f08c379a000000000000000000000000000000000000000000000000000000000815260040180806020018281038252601a8152602001807f496e636f7272656374206e756d626572206f6620706172616d7300000000000081525060200191505060405180910390fd5b600460019054906101000a900460ff1660ff16600554600460009054906101000a900460ff1660ff1602816143b957fe5b0483511015614430576040517f08c379a00000000000000000000000000000000000000000000000000000000081526004018080602001828103825260108152602001807f4e6f7420656e6f75676820766f7465730000000000000000000000000000000081525060200191505060405180910390fd5b60008460405160200180807f19457468657265756d205369676e6564204d6573736167653a0a333200000000815250601c01828152602001915050604051602081830303815290604052805190602001209050600084519050600080905060008090505b828110156146475760006001858984815181106144ad57fe5b60200260200101518985815181106144c157fe5b60200260200101518986815181106144d557fe5b602002602001015160405160008152602001604052604051808581526020018460ff1660ff1681526020018381526020018281526020019450505050506020604051602081039080840390855afa158015614534573d6000803e3d6000fd5b5050506020604051035190508273ffffffffffffffffffffffffffffffffffffffff168173ffffffffffffffffffffffffffffffffffffffff161180156145c45750600360008273ffffffffffffffffffffffffffffffffffffffff1673ffffffffffffffffffffffffffffffffffffffff16815260200190815260200160002060009054906101000a900460ff165b614636576040517f08c379a00000000000000000000000000000000000000000000000000000000081526004018080602001828103825260198152602001807f4e6f74207369676e656420627920612076616c696461746f720000000000000081525060200191505060405180910390fd5b809250508080600101915050614494565b5050505050505050565b6146e381600860008573ffffffffffffffffffffffffffffffffffffffff1673ffffffffffffffffffffffffffffffffffffffff16815260200190815260200160002060010160003373ffffffffffffffffffffffffffffffffffffffff1673ffffffffffffffffffffffffffffffffffffffff16815260200190815260200160002054613f1890919063ffffffff16565b600860008473ffffffffffffffffffffffffffffffffffffffff1673ffffffffffffffffffffffffffffffffffffffff16815260200190815260200160002060010160003373ffffffffffffffffffffffffffffffffffffffff1673ffffffffffffffffffffffffffffffffffffffff168152602001908152602001600020819055505050565b600073ffffffffffffffffffffffffffffffffffffffff168173ffffffffffffffffffffffffffffffffffffffff16141561480d576040517f08c379a00000000000000000000000000000000000000000000000000000000081526004018080602001828103825260198152602001807f496e76616c6964206e6577206f776e657220616464726573730000000000000081525060200191505060405180910390fd5b8073ffffffffffffffffffffffffffffffffffffffff166000809054906101000a900473ffffffffffffffffffffffffffffffffffffffff1673ffffffffffffffffffffffffffffffffffffffff167f8be0079c531659141344cd1fd0a4f28419497f9722a3daafe3b4186f6b6457e060405160405180910390a3806000806101000a81548173ffffffffffffffffffffffffffffffffffffffff021916908373ffffffffffffffffffffffffffffffffffffffff16021790555050565b828054600181600116156101000203166002900490600052602060002090601f016020900481019282601f1061490c57805160ff191683800117855561493a565b8280016001018555821561493a579182015b8281111561493957825182559160200191906001019061491e565b5b5090506149479190614993565b5090565b50805460018160011615610100020316600290046000825580601f106149715750614990565b601f01602090049060005260206000209081019061498f9190614993565b5b50565b6149b591905b808211156149b1576000816000905550600101614999565b5090565b9056fe726573756c742063616e742062652067726561746572207468616e20706172616d65746572734f6e6c79207468652065726337323120636f6e74726163742063616e20706572666f726d207468697320616374696f6e61206d7573742062652067726561746572207468616e20622c206e6567617469766520726573756c747320617265206e6f7420616c6c6f7765644d657373616765206e6f74207369676e656420627920612076616c696461746f724f6e6c7920746865206f776e65722063616e20706572666f726d207468697320616374696f6e7369676e6174757265206e6564647320746f206265203636206279746573206c6f6e672e20536565204d61696e6e657445435665726966792e736f6c6d61696e636861696e416464726573732073686f756c6420626520612076616c69642061646472657373a265627a7a72315820ed7ef34be1702977e24dbd6fabee6119a059aeaa7f1f9a7dce765f114218881a64736f6c63430005110032",
  "source": "pragma solidity ^0.5.0;\r\n\r\nimport \"../../common/token/ERC721.sol\";\r\nimport \"../../common/token/ERC20.sol\";\r\nimport \"../../common/math/SafeMath.sol\";\r\nimport \"../../common/token/IERC721Receiver.sol\";\r\nimport \"../../common/token/IERC20Receiver.sol\";\r\nimport \"./MainnetValidatorManagerContract.sol\";\r\n\r\ncontract IDragonContract {\r\n    function retrieveToken(address receiver, uint256 _tokenId, bytes calldata _data) external;\r\n}\r\n\r\ncontract MainnetGateway is IERC20Receiver, IERC721Receiver, MainnetValidatorManagerContract {\r\n\r\n  using SafeMath for uint256;\r\n\r\n  struct Balance {\r\n    uint256 eth;\r\n    mapping(address => uint256) erc20;\r\n\r\n    // Fijarse si suficiente esta implementacion o si hace falta un booleano como estaba, que diga si tiene o no el token\r\n    // Ahora se fija si una cuenta tiene un token, si en el mapa existen datos para ese token, para esa cuenta\r\n    mapping(address => mapping(uint256 => bytes)) erc721;\r\n  }\r\n\r\n  address private _erc721ContractAddress;\r\n\r\n  mapping (address => Balance) balances;\r\n  mapping (uint => bool) lockedDragons;\r\n\r\n  event ETHReceived(address from, uint256 amount);\r\n  event ERC20Received(address from, uint256 amount, address contractAddress);\r\n  event ERC721Received(address from, uint256 uid, address contractAddress, bytes data);\r\n\r\n  event SendDragonToSidechainAttempt(address from, uint256 uid, address toSidechainAddress, bytes data);\r\n  event DragonSuccessfullyRetrievedInMainchain(address mainchainAddress, uint256 uid, bytes data);\r\n  event DragonWithdrawal(address sidechainAddress, uint256 uid);\r\n\r\n  enum TokenKind {\r\n    ETH,\r\n    ERC20,\r\n    ERC721\r\n  }\r\n\r\n  /**\r\n   * Event to log the withdrawal of a token from the Gateway.\r\n   * @param owner Address of the entity that made the withdrawal.\r\n   * @param kind The type of token withdrawn (ERC20/ERC721/ETH).\r\n   * @param contractAddress Address of token contract the token belong to.\r\n   * @param value For ERC721 this is the uid of the token, for ETH/ERC20 this is the amount.\r\n   */\r\n  event TokenWithdrawn(address indexed owner, TokenKind kind, address contractAddress, uint256 value);\r\n\r\n  constructor (address[] memory _validators, uint8 _threshold_num, uint8 _threshold_denom)\r\n    public MainnetValidatorManagerContract(_validators, _threshold_num, _threshold_denom) {\r\n  }\r\n\r\n  function setERC721ContractAddress(address contractAddress) external onlyOwner {\r\n    require(contractAddress != address(0), \"Invalid address parameter\");\r\n    require(_erc721ContractAddress == address(0), \"contract con only be set once\");\r\n    _erc721ContractAddress = contractAddress;\r\n  }\r\n\r\n  /**\r\n  * @dev Throws if called by any account other than the dragon contract.\r\n  */\r\n  modifier onlyDragonContract() {\r\n      require(msg.sender == _erc721ContractAddress, \"Only the erc721 contract can perform this action\");\r\n      _;\r\n  }\r\n\r\n  /******************* Nuestras funciones sin validadores *************************** */\r\n\r\n  /**\r\n  * @dev Se llama cuando se quiere transferir un dragon a la otra blockchain\r\n  */\r\n  function depositDragon(address from, address toSidechainAddress, uint256 uid, bytes memory data) public onlyDragonContract {\r\n      // locked dragon to know a transference was made for this id\r\n      lockedDragons[uid] = true;\r\n      balances[from].erc721[from][uid] = data;\r\n      emit SendDragonToSidechainAttempt(from, uid, toSidechainAddress, data);\r\n  }\r\n\r\n   //@TODO hacer onlyOracle\r\n  /**\r\n  * @dev Se llama cuando se recibe un dragon desde la otra blockchain\r\n  */\r\n  function receiveDragon(address mainchainAddress, uint256 uid, bytes memory data) public {\r\n    require(mainchainAddress != address(0), \"mainchainAddress should be a valid address\");\r\n\r\n    if (lockedDragons[uid]) { // Token isnt new\r\n      require(balances[mainchainAddress].erc721[mainchainAddress][uid].length > 0, \"Does not own token\");\r\n    }\r\n    \r\n    IDragonContract(_erc721ContractAddress).retrieveToken(mainchainAddress, uid, data);\r\n\r\n    delete lockedDragons[uid];\r\n    delete balances[mainchainAddress].erc721[mainchainAddress][uid];\r\n    emit DragonSuccessfullyRetrievedInMainchain(mainchainAddress, uid, data);\r\n  }\r\n\r\n  //@TODO hacer onlyOracle\r\n  /**\r\n  * @dev Se llama cuando el usuario hace un withdraw del dragon. Primero se debe bloquear el dragon en la otra blockchain\r\n  */\r\n  function withdrawDragon(address mainchainAddress, uint256 uid) public {\r\n    require(balances[mainchainAddress].erc721[mainchainAddress][uid].length > 0, \"Does not own token\");\r\n    bytes storage dragonData = balances[mainchainAddress].erc721[mainchainAddress][uid];\r\n\r\n    IDragonContract(_erc721ContractAddress).retrieveToken(mainchainAddress, uid, dragonData);\r\n\r\n    delete lockedDragons[uid];\r\n    delete balances[mainchainAddress].erc721[mainchainAddress][uid];\r\n    emit DragonWithdrawal(mainchainAddress, uid);\r\n  }\r\n\r\n  /*********************************************************************************** */\r\n\r\n  // Deposit functions\r\n  function depositETH() private {\r\n    balances[msg.sender].eth = balances[msg.sender].eth.add(msg.value);\r\n  }\r\n\r\n  function _depositERC721(address from, uint256 uid, bytes memory data) private {\r\n    balances[from].erc721[msg.sender][uid] = data;\r\n  }\r\n\r\n  function depositERC20(address from, uint256 amount) private {\r\n    balances[from].erc20[msg.sender] = balances[from].erc20[msg.sender].add(amount);\r\n  }\r\n\r\n  // Withdrawal functions\r\n  function withdrawERC20(uint256 amount, bytes calldata sig, address contractAddress)\r\n    external\r\n    isVerifiedByValidator(amount, contractAddress, sig)\r\n  {\r\n    balances[msg.sender].erc20[contractAddress] = balances[msg.sender].erc20[contractAddress].sub(amount);\r\n    ERC20(contractAddress).transfer(msg.sender, amount);\r\n    emit TokenWithdrawn(msg.sender, TokenKind.ERC20, contractAddress, amount);\r\n  }\r\n\r\n  function withdrawERC721(uint256 uid, bytes calldata sig, address contractAddress)\r\n    external\r\n    isVerifiedByValidator(uid, contractAddress, sig)\r\n  {\r\n    require(balances[msg.sender].erc721[contractAddress][uid].length > 0, \"Does not own token\");\r\n    bytes storage dragonData = balances[msg.sender].erc721[contractAddress][uid];\r\n    ERC721(contractAddress).safeTransferFrom(address(this),  msg.sender, uid, dragonData);\r\n    delete balances[msg.sender].erc721[contractAddress][uid];\r\n    emit TokenWithdrawn(msg.sender, TokenKind.ERC721, contractAddress, uid);\r\n  }\r\n\r\n  function withdrawETH(uint256 amount, bytes calldata sig)\r\n    external\r\n    isVerifiedByValidator(amount, address(this), sig)\r\n  {\r\n    balances[msg.sender].eth = balances[msg.sender].eth.sub(amount);\r\n    msg.sender.transfer(amount); // ensure it's not reentrant\r\n    emit TokenWithdrawn(msg.sender, TokenKind.ETH, address(0), amount);\r\n  }\r\n\r\n  // Approve and Deposit function for 2-step deposits\r\n  // Requires first to have called `approve` on the specified ERC20 contract\r\n  function depositERC20(uint256 amount, address contractAddress) external {\r\n    ERC20(contractAddress).transferFrom(msg.sender, address(this), amount);\r\n    balances[msg.sender].erc20[contractAddress] = balances[msg.sender].erc20[contractAddress].add(amount);\r\n    emit ERC20Received(msg.sender, amount, contractAddress);\r\n  }\r\n\r\n  // Receiver functions for 1-step deposits to the gateway\r\n\r\n  function onERC20Received(address _from, uint256 amount)\r\n    public\r\n    returns (bytes4)\r\n  {\r\n    require(allowedTokens[msg.sender], \"Not a valid token\");\r\n    depositERC20(_from, amount);\r\n    emit ERC20Received(_from, amount, msg.sender);\r\n    return ERC20_RECEIVED;\r\n  }\r\n\r\n  function onERC721Received(address operator, address _from, uint256 _uid, bytes memory data)\r\n    public\r\n    returns (bytes4)\r\n  {\r\n    require(allowedTokens[msg.sender], \"Not a valid token\");\r\n    _depositERC721(_from, _uid, data);\r\n    emit ERC721Received(_from, _uid, msg.sender, data);\r\n    return ERC721_RECEIVED;\r\n  }\r\n\r\n  function () external payable {\r\n    depositETH();\r\n    emit ETHReceived(msg.sender, msg.value);\r\n  }\r\n\r\n  // Returns all the ETH you own\r\n  function getETH(address owner) external view returns (uint256) {\r\n    return balances[owner].eth;\r\n  }\r\n\r\n  // Returns all the ETH you own\r\n  function getERC20(address owner, address contractAddress) external view returns (uint256) {\r\n    return balances[owner].erc20[contractAddress];\r\n  }\r\n\r\n  // Returns ERC721 token by uid\r\n  function getNFT(address owner, uint256 uid, address contractAddress) external view returns (bool) {\r\n    return balances[owner].erc721[contractAddress][uid].length > 0;\r\n  }\r\n}",
  "sourcePath": "/usr/src/app/side-sv/contracts/mainnet/gateway/MainnetGateway.sol",
  "compiler": {
    "name": "solc",
    "version": "0.5.17+commit.d19bba13.Emscripten.clang"
  },
  "schemaVersion": "3.0.1",
  "updatedAt": "2020-11-19T00:36:07.650Z",
  "devdoc": {
    "methods": {
      "depositDragon(address,address,uint256,bytes)": {
        "details": "Se llama cuando se quiere transferir un dragon a la otra blockchain"
      },
      "isOwner()": {
        "return": "true if `msg.sender` is the owner of the contract."
      },
      "owner()": {
        "return": "the address of the owner."
      },
      "receiveDragon(address,uint256,bytes)": {
        "details": "Se llama cuando se recibe un dragon desde la otra blockchain"
      },
      "renounceOwnership()": {
        "details": "Allows the current owner to relinquish control of the contract."
      },
      "transferOwnership(address)": {
        "details": "Allows the current owner to transfer control of the contract to a newOwner.",
        "params": {
          "newOwner": "The address to transfer ownership to."
        }
      },
      "withdrawDragon(address,uint256)": {
        "details": "Se llama cuando el usuario hace un withdraw del dragon. Primero se debe bloquear el dragon en la otra blockchain"
      }
    }
  },
  "userdoc": {
    "methods": {
      "renounceOwnership()": {
        "notice": "Renouncing to ownership will leave the contract without an owner. It will not be possible to call the functions with the `onlyOwner` modifier anymore."
      }
    }
  }
}