{
  "contractName": "MainnetMarketplace",
  "abi": [
    {
      "anonymous": false,
      "inputs": [
        {
          "indexed": false,
          "internalType": "uint256",
          "name": "listingId",
          "type": "uint256"
        },
        {
          "indexed": false,
          "internalType": "address",
          "name": "seller",
          "type": "address"
        }
      ],
      "name": "ItemCancelled",
      "type": "event"
    },
    {
      "anonymous": false,
      "inputs": [
        {
          "indexed": true,
          "internalType": "uint256",
          "name": "listingId",
          "type": "uint256"
        },
        {
          "indexed": true,
          "internalType": "uint256",
          "name": "tokenId",
          "type": "uint256"
        },
        {
          "indexed": true,
          "internalType": "address",
          "name": "nftContract",
          "type": "address"
        },
        {
          "indexed": false,
          "internalType": "address",
          "name": "seller",
          "type": "address"
        },
        {
          "indexed": false,
          "internalType": "uint256",
          "name": "price",
          "type": "uint256"
        }
      ],
      "name": "ItemListed",
      "type": "event"
    },
    {
      "anonymous": false,
      "inputs": [
        {
          "indexed": true,
          "internalType": "uint256",
          "name": "listingId",
          "type": "uint256"
        },
        {
          "indexed": true,
          "internalType": "uint256",
          "name": "tokenId",
          "type": "uint256"
        },
        {
          "indexed": true,
          "internalType": "address",
          "name": "nftContract",
          "type": "address"
        },
        {
          "indexed": false,
          "internalType": "address",
          "name": "seller",
          "type": "address"
        },
        {
          "indexed": false,
          "internalType": "address",
          "name": "buyer",
          "type": "address"
        },
        {
          "indexed": false,
          "internalType": "uint256",
          "name": "price",
          "type": "uint256"
        }
      ],
      "name": "ItemSold",
      "type": "event"
    },
    {
      "anonymous": false,
      "inputs": [
        {
          "indexed": true,
          "internalType": "address",
          "name": "previousOwner",
          "type": "address"
        },
        {
          "indexed": true,
          "internalType": "address",
          "name": "newOwner",
          "type": "address"
        }
      ],
      "name": "OwnershipTransferred",
      "type": "event"
    },
    {
      "inputs": [],
      "name": "isOwner",
      "outputs": [
        {
          "internalType": "bool",
          "name": "",
          "type": "bool"
        }
      ],
      "stateMutability": "view",
      "type": "function",
      "constant": true
    },
    {
      "inputs": [],
      "name": "owner",
      "outputs": [
        {
          "internalType": "address",
          "name": "",
          "type": "address"
        }
      ],
      "stateMutability": "view",
      "type": "function",
      "constant": true
    },
    {
      "inputs": [],
      "name": "renounceOwnership",
      "outputs": [],
      "stateMutability": "nonpayable",
      "type": "function"
    },
    {
      "inputs": [],
      "name": "teamFee",
      "outputs": [
        {
          "internalType": "uint256",
          "name": "",
          "type": "uint256"
        }
      ],
      "stateMutability": "view",
      "type": "function",
      "constant": true
    },
    {
      "inputs": [
        {
          "internalType": "address",
          "name": "newOwner",
          "type": "address"
        }
      ],
      "name": "transferOwnership",
      "outputs": [],
      "stateMutability": "nonpayable",
      "type": "function"
    },
    {
      "inputs": [
        {
          "internalType": "uint256",
          "name": "_teamFee",
          "type": "uint256"
        }
      ],
      "name": "setTeamFee",
      "outputs": [],
      "stateMutability": "nonpayable",
      "type": "function"
    },
    {
      "inputs": [
        {
          "internalType": "address",
          "name": "teamAddress",
          "type": "address"
        }
      ],
      "name": "setFeeAccounts",
      "outputs": [],
      "stateMutability": "nonpayable",
      "type": "function"
    },
    {
      "inputs": [
        {
          "internalType": "uint256",
          "name": "listingId",
          "type": "uint256"
        }
      ],
      "name": "geListedItem",
      "outputs": [
        {
          "components": [
            {
              "internalType": "uint256",
              "name": "listingId",
              "type": "uint256"
            },
            {
              "internalType": "uint256",
              "name": "tokenId",
              "type": "uint256"
            },
            {
              "internalType": "address",
              "name": "nftContract",
              "type": "address"
            },
            {
              "internalType": "address payable",
              "name": "seller",
              "type": "address"
            },
            {
              "internalType": "uint256",
              "name": "price",
              "type": "uint256"
            },
            {
              "internalType": "enum MainnetMarketplace.ListingStatus",
              "name": "status",
              "type": "uint8"
            }
          ],
          "internalType": "struct MainnetMarketplace.ListingData",
          "name": "",
          "type": "tuple"
        }
      ],
      "stateMutability": "view",
      "type": "function",
      "constant": true
    },
    {
      "inputs": [
        {
          "internalType": "uint256",
          "name": "tokenId",
          "type": "uint256"
        }
      ],
      "name": "geListingId",
      "outputs": [
        {
          "internalType": "uint256",
          "name": "",
          "type": "uint256"
        }
      ],
      "stateMutability": "view",
      "type": "function",
      "constant": true
    },
    {
      "inputs": [
        {
          "internalType": "uint256",
          "name": "tokenId",
          "type": "uint256"
        }
      ],
      "name": "isOnSale",
      "outputs": [
        {
          "internalType": "bool",
          "name": "onSale",
          "type": "bool"
        },
        {
          "internalType": "uint256",
          "name": "price",
          "type": "uint256"
        }
      ],
      "stateMutability": "view",
      "type": "function",
      "constant": true
    },
    {
      "inputs": [
        {
          "internalType": "address",
          "name": "sellerAddress",
          "type": "address"
        }
      ],
      "name": "getActiveListingsForAddress",
      "outputs": [
        {
          "components": [
            {
              "internalType": "uint256",
              "name": "listingId",
              "type": "uint256"
            },
            {
              "internalType": "uint256",
              "name": "tokenId",
              "type": "uint256"
            },
            {
              "internalType": "address",
              "name": "nftContract",
              "type": "address"
            },
            {
              "internalType": "address payable",
              "name": "seller",
              "type": "address"
            },
            {
              "internalType": "uint256",
              "name": "price",
              "type": "uint256"
            },
            {
              "internalType": "enum MainnetMarketplace.ListingStatus",
              "name": "status",
              "type": "uint8"
            }
          ],
          "internalType": "struct MainnetMarketplace.ListingData[]",
          "name": "",
          "type": "tuple[]"
        }
      ],
      "stateMutability": "view",
      "type": "function",
      "constant": true
    },
    {
      "inputs": [],
      "name": "fetchMarketItems",
      "outputs": [
        {
          "components": [
            {
              "internalType": "uint256",
              "name": "listingId",
              "type": "uint256"
            },
            {
              "internalType": "uint256",
              "name": "tokenId",
              "type": "uint256"
            },
            {
              "internalType": "address",
              "name": "nftContract",
              "type": "address"
            },
            {
              "internalType": "address payable",
              "name": "seller",
              "type": "address"
            },
            {
              "internalType": "uint256",
              "name": "price",
              "type": "uint256"
            },
            {
              "internalType": "enum MainnetMarketplace.ListingStatus",
              "name": "status",
              "type": "uint8"
            }
          ],
          "internalType": "struct MainnetMarketplace.ListingData[]",
          "name": "",
          "type": "tuple[]"
        }
      ],
      "stateMutability": "view",
      "type": "function",
      "constant": true
    },
    {
      "inputs": [
        {
          "internalType": "address",
          "name": "nftContract",
          "type": "address"
        },
        {
          "internalType": "uint256",
          "name": "tokenId",
          "type": "uint256"
        },
        {
          "internalType": "uint256",
          "name": "price",
          "type": "uint256"
        }
      ],
      "name": "listToken",
      "outputs": [],
      "stateMutability": "payable",
      "type": "function",
      "payable": true
    },
    {
      "inputs": [
        {
          "internalType": "address",
          "name": "nftContract",
          "type": "address"
        },
        {
          "internalType": "uint256",
          "name": "listingId",
          "type": "uint256"
        }
      ],
      "name": "buyListedToken",
      "outputs": [],
      "stateMutability": "payable",
      "type": "function",
      "payable": true
    },
    {
      "inputs": [
        {
          "internalType": "uint256",
          "name": "listingId",
          "type": "uint256"
        }
      ],
      "name": "cancelListing",
      "outputs": [],
      "stateMutability": "nonpayable",
      "type": "function"
    }
  ],
  "bytecode": "0x6080604052600160075534801561001557600080fd5b50336000806101000a81548173ffffffffffffffffffffffffffffffffffffffff021916908373ffffffffffffffffffffffffffffffffffffffff16021790555060008054906101000a900473ffffffffffffffffffffffffffffffffffffffff1673ffffffffffffffffffffffffffffffffffffffff16600073ffffffffffffffffffffffffffffffffffffffff167f8be0079c531659141344cd1fd0a4f28419497f9722a3daafe3b4186f6b6457e060405160405180910390a3600180819055506129a4806100e76000396000f3fe6080604052600436106100e85760003560e01c80638da5cb5b1161008a578063d8a4269511610059578063d8a42695146102d5578063e6ec64ec146102f1578063f0f2805f1461031a578063f2fde38b14610358576100e8565b80638da5cb5b1461022b5780638f32d59b14610256578063a4f281b814610281578063d7c94efd146102aa576100e8565b8063715018a6116100c6578063715018a61461017e5780637519bea9146101955780637967c1d5146101d25780637e07590d1461020f576100e8565b80630f08efe0146100ed578063305a67a8146101185780636f6db76114610141575b600080fd5b3480156100f957600080fd5b50610102610381565b60405161010f9190612257565b60405180910390f35b34801561012457600080fd5b5061013f600480360381019061013a9190611e71565b6106f3565b005b34801561014d57600080fd5b5061016860048036038101906101639190611d94565b610990565b6040516101759190612257565b60405180910390f35b34801561018a57600080fd5b50610193610e78565b005b3480156101a157600080fd5b506101bc60048036038101906101b79190611e71565b610f7d565b6040516101c99190612418565b60405180910390f35b3480156101de57600080fd5b506101f960048036038101906101f49190611e71565b610f9a565b60405161020691906123fd565b60405180910390f35b61022960048036038101906102249190611e22565b611118565b005b34801561023757600080fd5b506102406114d8565b60405161024d91906121dc565b60405180910390f35b34801561026257600080fd5b5061026b611501565b6040516102789190612279565b60405180910390f35b34801561028d57600080fd5b506102a860048036038101906102a39190611d94565b611558565b005b3480156102b657600080fd5b506102bf611653565b6040516102cc9190612418565b60405180910390f35b6102ef60048036038101906102ea9190611de6565b611659565b005b3480156102fd57600080fd5b5061031860048036038101906103139190611e71565b611a75565b005b34801561032657600080fd5b50610341600480360381019061033c9190611e71565b611ac6565b60405161034f929190612294565b60405180910390f35b34801561036457600080fd5b5061037f600480360381019061037a9190611d94565b611b17565b005b6060600061038f6002611b6a565b9050600061039d6004611b6a565b6103a76003611b6a565b6103b16002611b6a565b6103bb9190612587565b6103c59190612587565b90506000808267ffffffffffffffff81111561040a577f4e487b7100000000000000000000000000000000000000000000000000000000600052604160045260246000fd5b60405190808252806020026020018201604052801561044357816020015b610430611cbb565b8152602001906001900390816104285790505b5090506000600190505b8481116106e8576000600281111561048e577f4e487b7100000000000000000000000000000000000000000000000000000000600052602160045260246000fd5b6005600083815260200190815260200160002060050160009054906101000a900460ff1660028111156104ea577f4e487b7100000000000000000000000000000000000000000000000000000000600052602160045260246000fd5b14156106d5576000600560008381526020019081526020016000206000015490506000600560008381526020019081526020016000209050806040518060c001604052908160008201548152602001600182015481526020016002820160009054906101000a900473ffffffffffffffffffffffffffffffffffffffff1673ffffffffffffffffffffffffffffffffffffffff1673ffffffffffffffffffffffffffffffffffffffff1681526020016003820160009054906101000a900473ffffffffffffffffffffffffffffffffffffffff1673ffffffffffffffffffffffffffffffffffffffff1673ffffffffffffffffffffffffffffffffffffffff168152602001600482015481526020016005820160009054906101000a900460ff166002811115610643577f4e487b7100000000000000000000000000000000000000000000000000000000600052602160045260246000fd5b600281111561067b577f4e487b7100000000000000000000000000000000000000000000000000000000600052602160045260246000fd5b815250508486815181106106b8577f4e487b7100000000000000000000000000000000000000000000000000000000600052603260045260246000fd5b60200260200101819052506001856106d091906124a6565b945050505b80806106e090612670565b91505061044d565b508094505050505090565b60026001541415610739576040517f08c379a0000000000000000000000000000000000000000000000000000000008152600401610730906123bd565b60405180910390fd5b600260018190555060006005600083815260200190815260200160002090508060030160009054906101000a900473ffffffffffffffffffffffffffffffffffffffff1673ffffffffffffffffffffffffffffffffffffffff163373ffffffffffffffffffffffffffffffffffffffff16146107ea576040517f08c379a00000000000000000000000000000000000000000000000000000000081526004016107e1906122fd565b60405180910390fd5b60006002811115610824577f4e487b7100000000000000000000000000000000000000000000000000000000600052602160045260246000fd5b8160050160009054906101000a900460ff16600281111561086e577f4e487b7100000000000000000000000000000000000000000000000000000000600052602160045260246000fd5b146108ae576040517f08c379a00000000000000000000000000000000000000000000000000000000081526004016108a5906122dd565b60405180910390fd5b60028160050160006101000a81548160ff021916908360028111156108fc577f4e487b7100000000000000000000000000000000000000000000000000000000600052602160045260246000fd5b021790555061090b6004611b78565b60006006600083600101548152602001908152602001600020819055507ff69c7ea3f71dad86e17ba97a88b7e8f1708c0946bd98c7584e9942f60da8728e828260030160009054906101000a900473ffffffffffffffffffffffffffffffffffffffff1660405161097d929190612433565b60405180910390a1506001808190555050565b6060600061099e6002611b6a565b90506000806000600190505b838111610add578573ffffffffffffffffffffffffffffffffffffffff166005600083815260200190815260200160002060030160009054906101000a900473ffffffffffffffffffffffffffffffffffffffff1673ffffffffffffffffffffffffffffffffffffffff16148015610ab5575060006002811115610a57577f4e487b7100000000000000000000000000000000000000000000000000000000600052602160045260246000fd5b6005600083815260200190815260200160002060050160009054906101000a900460ff166002811115610ab3577f4e487b7100000000000000000000000000000000000000000000000000000000600052602160045260246000fd5b145b15610aca57600183610ac791906124a6565b92505b8080610ad590612670565b9150506109aa565b5060008267ffffffffffffffff811115610b20577f4e487b7100000000000000000000000000000000000000000000000000000000600052604160045260246000fd5b604051908082528060200260200182016040528015610b5957816020015b610b46611cbb565b815260200190600190039081610b3e5790505b5090506000600190505b848111610e6b578673ffffffffffffffffffffffffffffffffffffffff166005600083815260200190815260200160002060030160009054906101000a900473ffffffffffffffffffffffffffffffffffffffff1673ffffffffffffffffffffffffffffffffffffffff16148015610c6e575060006002811115610c10577f4e487b7100000000000000000000000000000000000000000000000000000000600052602160045260246000fd5b6005600083815260200190815260200160002060050160009054906101000a900460ff166002811115610c6c577f4e487b7100000000000000000000000000000000000000000000000000000000600052602160045260246000fd5b145b15610e58576000600560008381526020019081526020016000206000015490506000600560008381526020019081526020016000209050806040518060c001604052908160008201548152602001600182015481526020016002820160009054906101000a900473ffffffffffffffffffffffffffffffffffffffff1673ffffffffffffffffffffffffffffffffffffffff1673ffffffffffffffffffffffffffffffffffffffff1681526020016003820160009054906101000a900473ffffffffffffffffffffffffffffffffffffffff1673ffffffffffffffffffffffffffffffffffffffff1673ffffffffffffffffffffffffffffffffffffffff168152602001600482015481526020016005820160009054906101000a900460ff166002811115610dc6577f4e487b7100000000000000000000000000000000000000000000000000000000600052602160045260246000fd5b6002811115610dfe577f4e487b7100000000000000000000000000000000000000000000000000000000600052602160045260246000fd5b81525050848681518110610e3b577f4e487b7100000000000000000000000000000000000000000000000000000000600052603260045260246000fd5b6020026020010181905250600185610e5391906124a6565b945050505b8080610e6390612670565b915050610b63565b5080945050505050919050565b610e80611501565b610ebf576040517f08c379a0000000000000000000000000000000000000000000000000000000008152600401610eb69061237d565b60405180910390fd5b600073ffffffffffffffffffffffffffffffffffffffff1660008054906101000a900473ffffffffffffffffffffffffffffffffffffffff1673ffffffffffffffffffffffffffffffffffffffff167f8be0079c531659141344cd1fd0a4f28419497f9722a3daafe3b4186f6b6457e060405160405180910390a360008060006101000a81548173ffffffffffffffffffffffffffffffffffffffff021916908373ffffffffffffffffffffffffffffffffffffffff160217905550565b600060066000838152602001908152602001600020549050919050565b610fa2611cbb565b600560008381526020019081526020016000206040518060c001604052908160008201548152602001600182015481526020016002820160009054906101000a900473ffffffffffffffffffffffffffffffffffffffff1673ffffffffffffffffffffffffffffffffffffffff1673ffffffffffffffffffffffffffffffffffffffff1681526020016003820160009054906101000a900473ffffffffffffffffffffffffffffffffffffffff1673ffffffffffffffffffffffffffffffffffffffff1673ffffffffffffffffffffffffffffffffffffffff168152602001600482015481526020016005820160009054906101000a900460ff1660028111156110d5577f4e487b7100000000000000000000000000000000000000000000000000000000600052602160045260246000fd5b600281111561110d577f4e487b7100000000000000000000000000000000000000000000000000000000600052602160045260246000fd5b815250509050919050565b6002600154141561115e576040517f08c379a0000000000000000000000000000000000000000000000000000000008152600401611155906123bd565b60405180910390fd5b6002600181905550600081116111a9576040517f08c379a00000000000000000000000000000000000000000000000000000000081526004016111a0906123dd565b60405180910390fd5b3073ffffffffffffffffffffffffffffffffffffffff168373ffffffffffffffffffffffffffffffffffffffff1663081812fc846040518263ffffffff1660e01b81526004016111f99190612418565b60206040518083038186803b15801561121157600080fd5b505afa158015611225573d6000803e3d6000fd5b505050506040513d601f19601f820116820180604052508101906112499190611dbd565b73ffffffffffffffffffffffffffffffffffffffff161461129f576040517f08c379a00000000000000000000000000000000000000000000000000000000081526004016112969061235d565b60405180910390fd5b6112a96002611b78565b60006112b56002611b6a565b90506040518060c001604052808281526020018481526020018573ffffffffffffffffffffffffffffffffffffffff1681526020013373ffffffffffffffffffffffffffffffffffffffff16815260200183815260200160006002811115611346577f4e487b7100000000000000000000000000000000000000000000000000000000600052602160045260246000fd5b81525060056000838152602001908152602001600020600082015181600001556020820151816001015560408201518160020160006101000a81548173ffffffffffffffffffffffffffffffffffffffff021916908373ffffffffffffffffffffffffffffffffffffffff16021790555060608201518160030160006101000a81548173ffffffffffffffffffffffffffffffffffffffff021916908373ffffffffffffffffffffffffffffffffffffffff1602179055506080820151816004015560a08201518160050160006101000a81548160ff02191690836002811115611459577f4e487b7100000000000000000000000000000000000000000000000000000000600052602160045260246000fd5b02179055509050508060066000858152602001908152602001600020819055508373ffffffffffffffffffffffffffffffffffffffff1683827f97b82dd2100c1a4b2bd0c8de35bd15f99c25848de8431c6549f058fcf3d3cdbf33866040516114c392919061222e565b60405180910390a45060018081905550505050565b60008060009054906101000a900473ffffffffffffffffffffffffffffffffffffffff16905090565b60008060009054906101000a900473ffffffffffffffffffffffffffffffffffffffff1673ffffffffffffffffffffffffffffffffffffffff163373ffffffffffffffffffffffffffffffffffffffff1614905090565b611560611501565b61159f576040517f08c379a00000000000000000000000000000000000000000000000000000000081526004016115969061237d565b60405180910390fd5b600073ffffffffffffffffffffffffffffffffffffffff168173ffffffffffffffffffffffffffffffffffffffff16141561160f576040517f08c379a00000000000000000000000000000000000000000000000000000000081526004016116069061239d565b60405180910390fd5b80600860006101000a81548173ffffffffffffffffffffffffffffffffffffffff021916908373ffffffffffffffffffffffffffffffffffffffff16021790555050565b60075481565b6002600154141561169f576040517f08c379a0000000000000000000000000000000000000000000000000000000008152600401611696906123bd565b60405180910390fd5b60026001819055506000600560008381526020019081526020016000209050600081600401549050600082600101549050813414611712576040517f08c379a00000000000000000000000000000000000000000000000000000000081526004016117099061233d565b60405180910390fd5b6000600281111561174c577f4e487b7100000000000000000000000000000000000000000000000000000000600052602160045260246000fd5b8360050160009054906101000a900460ff166002811115611796577f4e487b7100000000000000000000000000000000000000000000000000000000600052602160045260246000fd5b146117d6576040517f08c379a00000000000000000000000000000000000000000000000000000000081526004016117cd9061231d565b60405180910390fd5b60016005600086815260200190815260200160002060050160006101000a81548160ff02191690836002811115611836577f4e487b7100000000000000000000000000000000000000000000000000000000600052602160045260246000fd5b02179055506000600660008381526020019081526020016000208190555061185e6003611b78565b6000606460075484611870919061252d565b61187a91906124fc565b90508360030160009054906101000a900473ffffffffffffffffffffffffffffffffffffffff1673ffffffffffffffffffffffffffffffffffffffff166108fc82346118c69190612587565b9081150290604051600060405180830381858888f193505050501580156118f1573d6000803e3d6000fd5b50600860009054906101000a900473ffffffffffffffffffffffffffffffffffffffff1673ffffffffffffffffffffffffffffffffffffffff166108fc829081150290604051600060405180830381858888f1935050505015801561195a573d6000803e3d6000fd5b508573ffffffffffffffffffffffffffffffffffffffff166342842e0e8560030160009054906101000a900473ffffffffffffffffffffffffffffffffffffffff1633856040518463ffffffff1660e01b81526004016119bc939291906121f7565b600060405180830381600087803b1580156119d657600080fd5b505af11580156119ea573d6000803e3d6000fd5b505050508573ffffffffffffffffffffffffffffffffffffffff1682867f612a4c47ab6b6ed707bc3219bc7403cf101370bda0813fe58352bb570fdc5de68760030160009054906101000a900473ffffffffffffffffffffffffffffffffffffffff163388604051611a5e939291906121f7565b60405180910390a450505050600180819055505050565b611a7d611501565b611abc576040517f08c379a0000000000000000000000000000000000000000000000000000000008152600401611ab39061237d565b60405180910390fd5b8060078190555050565b600080600060066000858152602001908152602001600020549050600081141592508215611b0c5760056000828152602001908152602001600020600401549150611b11565b600091505b50915091565b611b1f611501565b611b5e576040517f08c379a0000000000000000000000000000000000000000000000000000000008152600401611b559061237d565b60405180910390fd5b611b6781611b8e565b50565b600081600001549050919050565b6001816000016000828254019250508190555050565b600073ffffffffffffffffffffffffffffffffffffffff168173ffffffffffffffffffffffffffffffffffffffff161415611bfe576040517f08c379a0000000000000000000000000000000000000000000000000000000008152600401611bf5906122bd565b60405180910390fd5b8073ffffffffffffffffffffffffffffffffffffffff1660008054906101000a900473ffffffffffffffffffffffffffffffffffffffff1673ffffffffffffffffffffffffffffffffffffffff167f8be0079c531659141344cd1fd0a4f28419497f9722a3daafe3b4186f6b6457e060405160405180910390a3806000806101000a81548173ffffffffffffffffffffffffffffffffffffffff021916908373ffffffffffffffffffffffffffffffffffffffff16021790555050565b6040518060c001604052806000815260200160008152602001600073ffffffffffffffffffffffffffffffffffffffff168152602001600073ffffffffffffffffffffffffffffffffffffffff1681526020016000815260200160006002811115611d4f577f4e487b7100000000000000000000000000000000000000000000000000000000600052602160045260246000fd5b81525090565b600081359050611d6481612940565b92915050565b600081519050611d7981612940565b92915050565b600081359050611d8e81612957565b92915050565b600060208284031215611da657600080fd5b6000611db484828501611d55565b91505092915050565b600060208284031215611dcf57600080fd5b6000611ddd84828501611d6a565b91505092915050565b60008060408385031215611df957600080fd5b6000611e0785828601611d55565b9250506020611e1885828601611d7f565b9150509250929050565b600080600060608486031215611e3757600080fd5b6000611e4586828701611d55565b9350506020611e5686828701611d7f565b9250506040611e6786828701611d7f565b9150509250925092565b600060208284031215611e8357600080fd5b6000611e9184828501611d7f565b91505092915050565b6000611ea683836120c8565b60c08301905092915050565b611ebb81612628565b82525050565b611eca816125cd565b82525050565b611ed9816125bb565b82525050565b611ee8816125bb565b82525050565b6000611ef98261246c565b611f038185612484565b9350611f0e8361245c565b8060005b83811015611f3f578151611f268882611e9a565b9750611f3183612477565b925050600181019050611f12565b5085935050505092915050565b611f55816125df565b82525050565b611f648161263a565b82525050565b6000611f77600f83612495565b9150611f8282612746565b602082019050919050565b6000611f9a601083612495565b9150611fa58261276f565b602082019050919050565b6000611fbd601e83612495565b9150611fc882612798565b602082019050919050565b6000611fe0601683612495565b9150611feb826127c1565b602082019050919050565b6000612003604083612495565b915061200e826127ea565b604082019050919050565b6000612026603283612495565b915061203182612839565b604082019050919050565b6000612049601283612495565b915061205482612888565b602082019050919050565b600061206c601483612495565b9150612077826128b1565b602082019050919050565b600061208f601f83612495565b915061209a826128da565b602082019050919050565b60006120b2601c83612495565b91506120bd82612903565b602082019050919050565b60c0820160008201516120de60008501826121be565b5060208201516120f160208501826121be565b5060408201516121046040850182611ed0565b5060608201516121176060850182611ec1565b50608082015161212a60808501826121be565b5060a082015161213d60a0850182611f5b565b50505050565b60c08201600082015161215960008501826121be565b50602082015161216c60208501826121be565b50604082015161217f6040850182611ed0565b5060608201516121926060850182611ec1565b5060808201516121a560808501826121be565b5060a08201516121b860a0850182611f5b565b50505050565b6121c78161261e565b82525050565b6121d68161261e565b82525050565b60006020820190506121f16000830184611edf565b92915050565b600060608201905061220c6000830186611eb2565b6122196020830185611edf565b61222660408301846121cd565b949350505050565b60006040820190506122436000830185611edf565b61225060208301846121cd565b9392505050565b600060208201905081810360008301526122718184611eee565b905092915050565b600060208201905061228e6000830184611f4c565b92915050565b60006040820190506122a96000830185611f4c565b6122b660208301846121cd565b9392505050565b600060208201905081810360008301526122d681611f6a565b9050919050565b600060208201905081810360008301526122f681611f8d565b9050919050565b6000602082019050818103600083015261231681611fb0565b9050919050565b6000602082019050818103600083015261233681611fd3565b9050919050565b6000602082019050818103600083015261235681611ff6565b9050919050565b6000602082019050818103600083015261237681612019565b9050919050565b600060208201905081810360008301526123968161203c565b9050919050565b600060208201905081810360008301526123b68161205f565b9050919050565b600060208201905081810360008301526123d681612082565b9050919050565b600060208201905081810360008301526123f6816120a5565b9050919050565b600060c0820190506124126000830184612143565b92915050565b600060208201905061242d60008301846121cd565b92915050565b600060408201905061244860008301856121cd565b6124556020830184611eb2565b9392505050565b6000819050602082019050919050565b600081519050919050565b6000602082019050919050565b600082825260208201905092915050565b600082825260208201905092915050565b60006124b18261261e565b91506124bc8361261e565b9250827fffffffffffffffffffffffffffffffffffffffffffffffffffffffffffffffff038211156124f1576124f06126b9565b5b828201905092915050565b60006125078261261e565b91506125128361261e565b925082612522576125216126e8565b5b828204905092915050565b60006125388261261e565b91506125438361261e565b9250817fffffffffffffffffffffffffffffffffffffffffffffffffffffffffffffffff048311821515161561257c5761257b6126b9565b5b828202905092915050565b60006125928261261e565b915061259d8361261e565b9250828210156125b0576125af6126b9565b5b828203905092915050565b60006125c6826125fe565b9050919050565b60006125d8826125fe565b9050919050565b60008115159050919050565b60008190506125f98261292c565b919050565b600073ffffffffffffffffffffffffffffffffffffffff82169050919050565b6000819050919050565b60006126338261264c565b9050919050565b6000612645826125eb565b9050919050565b60006126578261265e565b9050919050565b6000612669826125fe565b9050919050565b600061267b8261261e565b91507fffffffffffffffffffffffffffffffffffffffffffffffffffffffffffffffff8214156126ae576126ad6126b9565b5b600182019050919050565b7f4e487b7100000000000000000000000000000000000000000000000000000000600052601160045260246000fd5b7f4e487b7100000000000000000000000000000000000000000000000000000000600052601260045260246000fd5b7f4e487b7100000000000000000000000000000000000000000000000000000000600052602160045260246000fd5b7f496e76616c696420616464726573730000000000000000000000000000000000600082015250565b7f4974656d206e6f74206f6e2073616c6500000000000000000000000000000000600082015250565b7f4f6e6c792073656c6c65722063616e2063616e63656c206c697374696e670000600082015250565b7f4974656d206e6f206c6f6e676572206f6e2073616c6500000000000000000000600082015250565b7f506c65617365207375626d6974207468652061736b696e67207072696365206960008201527f6e206f7264657220746f20636f6d706c65746520746865207075726368617365602082015250565b7f4d61726b6574706c616365206973206e6f7420617070726f76656420746f207460008201527f72616e73666572207468697320746f6b656e0000000000000000000000000000602082015250565b7f496e76616c6964207065726d697373696f6e0000000000000000000000000000600082015250565b7f496e76616c6964207465616d2061646472657373000000000000000000000000600082015250565b7f5265656e7472616e637947756172643a207265656e7472616e742063616c6c00600082015250565b7f5072696365206d757374206265206174206c6561737420312077656900000000600082015250565b6003811061293d5761293c612717565b5b50565b612949816125bb565b811461295457600080fd5b50565b6129608161261e565b811461296b57600080fd5b5056fea26469706673582212209b2dc44fad68b4c6704ac19fd9e034fa27f39a159bc06e5044051dd26a51ab8c64736f6c63430008040033",
  "immutableReferences": {},
  "source": "// SPDX-License-Identifier: GPL-3.0 License\n\npragma solidity ^0.8.0;\n\nimport \"../../common/ownership/Ownable.sol\";\nimport \"../../common/security/ReentrancyGuard.sol\";\nimport \"../../common/utils/Counters.sol\";\n\ninterface IERC721 {\n\tfunction safeTransferFrom(\n\t\taddress from,\n\t\taddress to,\n\t\tuint256 tokenId\n\t) external;\n\n    function getApproved(uint256 tokenId) external view returns (address);\n}\n\ncontract MainnetMarketplace is Ownable, ReentrancyGuard {\n    using Counters for Counters.Counter;\n    Counters.Counter private _itemIds;\n    Counters.Counter private _itemsSold;\n    Counters.Counter private _itemsCancelled;\n\n    /*\n     * @dev Maps listing id to listed item\n     */\n    mapping(uint256 => ListingData) private _idToListedItem;\n\n    /*\n     * @dev Maps token id to listing id\n     */\n    mapping(uint256 => uint256) private _tokenIdToListingId;\n\n    /************* Fees ****************/\n    uint256 public teamFee = 1;\n    address payable private _teamAddress;\n\n    enum ListingStatus {\n        Active,\n        Sold,\n        Cancelled\n    }\n\n    struct ListingData {\n        uint256 listingId;\n        uint256 tokenId;\n        address nftContract;\n        address payable seller;\n        uint256 price;\n        ListingStatus status;\n    }\n\n    event ItemListed(\n        uint256 indexed listingId,\n        uint256 indexed tokenId,\n        address indexed nftContract,\n        address seller,\n        uint256 price\n    );\n\n    event ItemSold(\n        uint256 indexed listingId,\n        uint256 indexed tokenId,\n        address indexed nftContract,\n        address seller,\n        address buyer,\n        uint256 price\n    );\n\n    event ItemCancelled(uint256 listingId, address seller);\n\n    /**\n     * @dev Function to change fees in case adjustments are needed or for special events\n     */\n    function setTeamFee(uint256 _teamFee) external onlyOwner {\n        teamFee = _teamFee;\n    }\n\n    /**\n     * @dev Change addresses where fees are deposited\n     */\n    function setFeeAccounts(address teamAddress) external onlyOwner {\n        require(teamAddress != address(0), \"Invalid team address\");\n        _teamAddress = payable(teamAddress);\n    }\n\n    /**************************** View Functions ********************************************************/\n\n    function geListedItem(uint256 listingId) external view returns (ListingData memory) {\n        return _idToListedItem[listingId];\n    }\n\n    function geListingId(uint256 tokenId) external view returns (uint256) {\n        return _tokenIdToListingId[tokenId];\n    }\n\n    function isOnSale(uint256 tokenId) external view returns (bool onSale, uint256 price) {\n        uint256 listingId = _tokenIdToListingId[tokenId];\n        onSale = listingId != 0;\n        if (onSale) {\n            price = _idToListedItem[listingId].price;\n        } else {\n            price = 0;\n        }\n    }\n\n    function getActiveListingsForAddress(address sellerAddress) external view returns (ListingData[] memory) {\n        uint256 totalItemCount = _itemIds.current();\n        uint256 itemCount = 0;\n        uint256 currentIndex = 0;\n\n        for (uint256 i = 1; i <= totalItemCount; i++) {\n            if (_idToListedItem[i].seller == sellerAddress && _idToListedItem[i].status == ListingStatus.Active) {\n                itemCount += 1;\n            }\n        }\n\n        ListingData[] memory items = new ListingData[](itemCount);\n        for (uint256 i = 1; i <= totalItemCount; i++) {\n            if (_idToListedItem[i].seller == sellerAddress && _idToListedItem[i].status == ListingStatus.Active) {\n                uint256 currentId = _idToListedItem[i].listingId;\n                ListingData storage currentItem = _idToListedItem[currentId];\n                items[currentIndex] = currentItem;\n                currentIndex += 1;\n            }\n        }\n        return items;\n    }\n\n    function fetchMarketItems() external view returns (ListingData[] memory) {\n        uint256 itemCount = _itemIds.current();\n        uint256 unsoldItemCount = _itemIds.current() - _itemsSold.current() - _itemsCancelled.current();\n        uint256 currentIndex = 0;\n\n        ListingData[] memory items = new ListingData[](unsoldItemCount);\n        for (uint256 i = 1; i <= itemCount; i++) {\n            if (_idToListedItem[i].status == ListingStatus.Active) {\n                uint256 currentId = _idToListedItem[i].listingId;\n                ListingData storage currentItem = _idToListedItem[currentId];\n                items[currentIndex] = currentItem;\n                currentIndex += 1;\n            }\n        }\n\n        return items;\n    }\n\n    /**************************** External Functions ********************************************************/\n    \n    function listToken(\n        address nftContract,\n        uint256 tokenId,\n        uint256 price\n    ) external payable nonReentrant {\n        require(price > 0, \"Price must be at least 1 wei\");\n        require(IERC721(nftContract).getApproved(tokenId) == address(this), \"Marketplace is not approved to transfer this token\");\n\n        _itemIds.increment();\n        uint256 listingId = _itemIds.current();\n\n        _idToListedItem[listingId] = ListingData(\n            listingId,\n            tokenId,\n            nftContract,\n            payable(msg.sender),\n            price,\n            ListingStatus.Active\n        );\n        _tokenIdToListingId[tokenId] = listingId;\n\n        emit ItemListed(listingId, tokenId, nftContract, msg.sender, price);\n    }\n\n    function buyListedToken(address nftContract, uint256 listingId) external payable nonReentrant {\n        ListingData storage listedItem = _idToListedItem[listingId];\n        uint256 price = listedItem.price;\n        uint256 tokenId = listedItem.tokenId;\n\n        require(msg.value == price, \"Please submit the asking price in order to complete the purchase\");\n        require(listedItem.status == ListingStatus.Active, \"Item no longer on sale\");\n\n        // State changes\n        _idToListedItem[listingId].status = ListingStatus.Sold;\n        _tokenIdToListingId[tokenId] = 0;\n        _itemsSold.increment();\n\n        // Transfer money charging 5% fees: 4% to rewards treasury and 1% to team.\n        uint256 teamFeeCharge = (price * teamFee) / 100;\n        listedItem.seller.transfer(msg.value - teamFeeCharge);\n        _teamAddress.transfer(teamFeeCharge);\n\n        // Transfer NFT ownership\n        IERC721(nftContract).safeTransferFrom(listedItem.seller, msg.sender, tokenId);\n\n        emit ItemSold(listingId, tokenId, nftContract, listedItem.seller, msg.sender, price);\n    }\n\n    function cancelListing(uint256 listingId) external nonReentrant {\n        ListingData storage listedItem = _idToListedItem[listingId];\n\n        require(msg.sender == listedItem.seller, \"Only seller can cancel listing\");\n        require(listedItem.status == ListingStatus.Active, \"Item not on sale\");\n\n        listedItem.status = ListingStatus.Cancelled;\n        _itemsCancelled.increment();\n        _tokenIdToListingId[listedItem.tokenId] = 0;\n\n        emit ItemCancelled(listingId, listedItem.seller);\n    }\n}\n",
  "sourcePath": "/usr/src/app/contractGetter/contracts/mainnet/marketplace/MainnetMarketplace.sol",
  "compiler": {
    "name": "solc",
    "version": "0.8.4+commit.c7e474f2.Emscripten.clang"
  },
  "schemaVersion": "3.4.1",
  "updatedAt": "2023-05-09T12:34:10.978Z",
  "networkType": "ethereum",
  "devdoc": {
    "kind": "dev",
    "methods": {
      "isOwner()": {
        "returns": {
          "_0": "true if `msg.sender` is the owner of the contract."
        }
      },
      "owner()": {
        "returns": {
          "_0": "the address of the owner."
        }
      },
      "renounceOwnership()": {
        "details": "Allows the current owner to relinquish control of the contract."
      },
      "setFeeAccounts(address)": {
        "details": "Change addresses where fees are deposited"
      },
      "setTeamFee(uint256)": {
        "details": "Function to change fees in case adjustments are needed or for special events"
      },
      "transferOwnership(address)": {
        "details": "Allows the current owner to transfer control of the contract to a newOwner.",
        "params": {
          "newOwner": "The address to transfer ownership to."
        }
      }
    },
    "version": 1
  },
  "userdoc": {
    "kind": "user",
    "methods": {
      "renounceOwnership()": {
        "notice": "Renouncing to ownership will leave the contract without an owner. It will not be possible to call the functions with the `onlyOwner` modifier anymore."
      }
    },
    "version": 1
  }
}