{
  "contractName": "MainnetDragonApi",
  "abi": [
    {
      "inputs": [
        {
          "internalType": "address",
          "name": "dragonAddress",
          "type": "address"
        },
        {
          "internalType": "address",
          "name": "genesLaboratory",
          "type": "address"
        },
        {
          "internalType": "address",
          "name": "marketplaceAddress",
          "type": "address"
        }
      ],
      "stateMutability": "nonpayable",
      "type": "constructor"
    },
    {
      "anonymous": false,
      "inputs": [
        {
          "indexed": true,
          "internalType": "address",
          "name": "previousOwner",
          "type": "address"
        },
        {
          "indexed": true,
          "internalType": "address",
          "name": "newOwner",
          "type": "address"
        }
      ],
      "name": "OwnershipTransferred",
      "type": "event"
    },
    {
      "inputs": [
        {
          "internalType": "uint256",
          "name": "dragonId",
          "type": "uint256"
        }
      ],
      "name": "getDragonById",
      "outputs": [
        {
          "components": [
            {
              "internalType": "bytes32",
              "name": "genes",
              "type": "bytes32"
            },
            {
              "internalType": "bytes32",
              "name": "name",
              "type": "bytes32"
            },
            {
              "internalType": "uint64",
              "name": "creationTime",
              "type": "uint64"
            },
            {
              "internalType": "uint32",
              "name": "dadId",
              "type": "uint32"
            },
            {
              "internalType": "uint32",
              "name": "motherId",
              "type": "uint32"
            },
            {
              "internalType": "uint32",
              "name": "currentExperience",
              "type": "uint32"
            },
            {
              "internalType": "uint16",
              "name": "actionCooldown",
              "type": "uint16"
            },
            {
              "internalType": "uint16",
              "name": "health",
              "type": "uint16"
            },
            {
              "internalType": "uint16",
              "name": "strength",
              "type": "uint16"
            },
            {
              "internalType": "uint16",
              "name": "agility",
              "type": "uint16"
            },
            {
              "internalType": "uint16",
              "name": "fortitude",
              "type": "uint16"
            },
            {
              "internalType": "uint16",
              "name": "hatchTime",
              "type": "uint16"
            },
            {
              "internalType": "uint8",
              "name": "blockchainOriginId",
              "type": "uint8"
            }
          ],
          "internalType": "struct DragonLibrary.Dragon",
          "name": "",
          "type": "tuple"
        }
      ],
      "stateMutability": "view",
      "type": "function"
    },
    {
      "inputs": [
        {
          "internalType": "address",
          "name": "owner",
          "type": "address"
        }
      ],
      "name": "getDragonsCountByOwner",
      "outputs": [
        {
          "internalType": "uint256",
          "name": "",
          "type": "uint256"
        }
      ],
      "stateMutability": "view",
      "type": "function"
    },
    {
      "inputs": [
        {
          "internalType": "address",
          "name": "owner",
          "type": "address"
        }
      ],
      "name": "getDragonsIdsByOwner",
      "outputs": [
        {
          "internalType": "uint256[]",
          "name": "tokenIds",
          "type": "uint256[]"
        }
      ],
      "stateMutability": "view",
      "type": "function"
    },
    {
      "inputs": [
        {
          "internalType": "uint256",
          "name": "dragonId",
          "type": "uint256"
        }
      ],
      "name": "getVisualAttributes",
      "outputs": [
        {
          "internalType": "uint16",
          "name": "head",
          "type": "uint16"
        },
        {
          "internalType": "uint16",
          "name": "body",
          "type": "uint16"
        },
        {
          "internalType": "uint16",
          "name": "wings",
          "type": "uint16"
        }
      ],
      "stateMutability": "view",
      "type": "function"
    },
    {
      "inputs": [
        {
          "internalType": "uint256",
          "name": "dragonId",
          "type": "uint256"
        }
      ],
      "name": "isEgg",
      "outputs": [
        {
          "internalType": "bool",
          "name": "",
          "type": "bool"
        }
      ],
      "stateMutability": "view",
      "type": "function"
    },
    {
      "inputs": [],
      "name": "isOwner",
      "outputs": [
        {
          "internalType": "bool",
          "name": "",
          "type": "bool"
        }
      ],
      "stateMutability": "view",
      "type": "function"
    },
    {
      "inputs": [],
      "name": "owner",
      "outputs": [
        {
          "internalType": "address",
          "name": "",
          "type": "address"
        }
      ],
      "stateMutability": "view",
      "type": "function"
    },
    {
      "inputs": [],
      "name": "renounceOwnership",
      "outputs": [],
      "stateMutability": "nonpayable",
      "type": "function"
    },
    {
      "inputs": [
        {
          "internalType": "address",
          "name": "newOwner",
          "type": "address"
        }
      ],
      "name": "transferOwnership",
      "outputs": [],
      "stateMutability": "nonpayable",
      "type": "function"
    },
    {
      "inputs": [
        {
          "internalType": "address",
          "name": "marketplaceAddress",
          "type": "address"
        }
      ],
      "name": "setMarketplace",
      "outputs": [],
      "stateMutability": "nonpayable",
      "type": "function"
    },
    {
      "inputs": [
        {
          "internalType": "uint256",
          "name": "tokenId",
          "type": "uint256"
        },
        {
          "internalType": "string",
          "name": "title",
          "type": "string"
        },
        {
          "internalType": "string",
          "name": "description",
          "type": "string"
        },
        {
          "internalType": "uint256",
          "name": "price",
          "type": "uint256"
        }
      ],
      "name": "publishDragon",
      "outputs": [],
      "stateMutability": "nonpayable",
      "type": "function"
    }
  ],
  "bytecode": "0x60806040523480156200001157600080fd5b506040516200236f3803806200236f833981810160405281019062000037919062000334565b8282600073ffffffffffffffffffffffffffffffffffffffff168273ffffffffffffffffffffffffffffffffffffffff161415620000ac576040517f08c379a0000000000000000000000000000000000000000000000000000000008152600401620000a390620003ff565b60405180910390fd5b600073ffffffffffffffffffffffffffffffffffffffff168173ffffffffffffffffffffffffffffffffffffffff1614156200011f576040517f08c379a0000000000000000000000000000000000000000000000000000000008152600401620001169062000421565b60405180910390fd5b816000806101000a81548173ffffffffffffffffffffffffffffffffffffffff021916908373ffffffffffffffffffffffffffffffffffffffff16021790555080600160006101000a81548173ffffffffffffffffffffffffffffffffffffffff021916908373ffffffffffffffffffffffffffffffffffffffff160217905550505033600260006101000a81548173ffffffffffffffffffffffffffffffffffffffff021916908373ffffffffffffffffffffffffffffffffffffffff160217905550600260009054906101000a900473ffffffffffffffffffffffffffffffffffffffff1673ffffffffffffffffffffffffffffffffffffffff16600073ffffffffffffffffffffffffffffffffffffffff167f8be0079c531659141344cd1fd0a4f28419497f9722a3daafe3b4186f6b6457e060405160405180910390a3600073ffffffffffffffffffffffffffffffffffffffff168173ffffffffffffffffffffffffffffffffffffffff161415620002d3576040517f08c379a0000000000000000000000000000000000000000000000000000000008152600401620002ca9062000443565b60405180910390fd5b80600360006101000a81548173ffffffffffffffffffffffffffffffffffffffff021916908373ffffffffffffffffffffffffffffffffffffffff1602179055505050506200053f565b6000815190506200032e8162000525565b92915050565b6000806000606084860312156200034a57600080fd5b60006200035a868287016200031d565b93505060206200036d868287016200031d565b925050604062000380868287016200031d565b9150509250925092565b60006200039960168362000465565b9150620003a682620004aa565b602082019050919050565b6000620003c060208362000465565b9150620003cd82620004d3565b602082019050919050565b6000620003e7601b8362000465565b9150620003f482620004fc565b602082019050919050565b600060208201905081810360008301526200041a816200038a565b9050919050565b600060208201905081810360008301526200043c81620003b1565b9050919050565b600060208201905081810360008301526200045e81620003d8565b9050919050565b600082825260208201905092915050565b600062000483826200048a565b9050919050565b600073ffffffffffffffffffffffffffffffffffffffff82169050919050565b7f496e76616c696420647261676f6e206164647265737300000000000000000000600082015250565b7f496e76616c69642067656e6573206c61626f7261746f72792061646472657373600082015250565b7f496e76616c6964206d61726b6574706c61636520616464726573730000000000600082015250565b620005308162000476565b81146200053c57600080fd5b50565b611e20806200054f6000396000f3fe608060405234801561001057600080fd5b50600436106100a95760003560e01c80638f32d59b116100715780638f32d59b14610154578063c9cf557014610172578063d297a685146101a2578063d9b6e2f7146101be578063dfd4e4a4146101ee578063f2fde38b1461021e576100a9565b80630469e8ac146100ae5780632014a8be146100de578063715018a61461011057806373ad6c2d1461011a5780638da5cb5b14610136575b600080fd5b6100c860048036038101906100c39190611263565b61023a565b6040516100d591906117a7565b60405180910390f35b6100f860048036038101906100f3919061132e565b6103e5565b604051610107939291906118fb565b60405180910390f35b61011861055a565b005b610134600480360381019061012f9190611263565b610662565b005b61013e61075d565b60405161014b9190611763565b60405180910390f35b61015c610787565b60405161016991906117c9565b60405180910390f35b61018c6004803603810190610187919061132e565b6107df565b60405161019991906118df565b60405180910390f35b6101bc60048036038101906101b79190611380565b610898565b005b6101d860048036038101906101d39190611263565b610c5f565b6040516101e59190611932565b60405180910390f35b6102086004803603810190610203919061132e565b610d12565b60405161021591906117c9565b60405180910390f35b61023860048036038101906102339190611263565b610e00565b005b606060008060009054906101000a900473ffffffffffffffffffffffffffffffffffffffff16905060008173ffffffffffffffffffffffffffffffffffffffff166370a08231856040518263ffffffff1660e01b815260040161029d9190611763565b60206040518083038186803b1580156102b557600080fd5b505afa1580156102c9573d6000803e3d6000fd5b505050506040513d601f19601f820116820180604052508101906102ed9190611357565b905060005b818110156103dd578273ffffffffffffffffffffffffffffffffffffffff16632f745c5986836040518363ffffffff1660e01b815260040161033592919061177e565b60206040518083038186803b15801561034d57600080fd5b505afa158015610361573d6000803e3d6000fd5b505050506040513d601f19601f820116820180604052508101906103859190611357565b8482815181106103be577f4e487b7100000000000000000000000000000000000000000000000000000000600052603260045260246000fd5b60200260200101818152505080806103d590611b72565b9150506102f2565b505050919050565b60008060008060008054906101000a900473ffffffffffffffffffffffffffffffffffffffff1673ffffffffffffffffffffffffffffffffffffffff1663c9cf5570866040518263ffffffff1660e01b81526004016104449190611932565b6101a06040518083038186803b15801561045d57600080fd5b505afa158015610471573d6000803e3d6000fd5b505050506040513d601f19601f8201168201806040525081019061049591906112b5565b9050600160009054906101000a900473ffffffffffffffffffffffffffffffffffffffff1673ffffffffffffffffffffffffffffffffffffffff166391926cff82600001516040518263ffffffff1660e01b81526004016104f691906117e4565b60606040518083038186803b15801561050e57600080fd5b505afa158015610522573d6000803e3d6000fd5b505050506040513d601f19601f8201168201806040525081019061054691906112df565b809450819550829650505050509193909250565b610562610787565b6105a1576040517f08c379a0000000000000000000000000000000000000000000000000000000008152600401610598906118bf565b60405180910390fd5b600073ffffffffffffffffffffffffffffffffffffffff16600260009054906101000a900473ffffffffffffffffffffffffffffffffffffffff1673ffffffffffffffffffffffffffffffffffffffff167f8be0079c531659141344cd1fd0a4f28419497f9722a3daafe3b4186f6b6457e060405160405180910390a36000600260006101000a81548173ffffffffffffffffffffffffffffffffffffffff021916908373ffffffffffffffffffffffffffffffffffffffff160217905550565b61066a610787565b6106a9576040517f08c379a00000000000000000000000000000000000000000000000000000000081526004016106a0906118bf565b60405180910390fd5b600073ffffffffffffffffffffffffffffffffffffffff168173ffffffffffffffffffffffffffffffffffffffff161415610719576040517f08c379a0000000000000000000000000000000000000000000000000000000008152600401610710906117ff565b60405180910390fd5b80600360006101000a81548173ffffffffffffffffffffffffffffffffffffffff021916908373ffffffffffffffffffffffffffffffffffffffff16021790555050565b6000600260009054906101000a900473ffffffffffffffffffffffffffffffffffffffff16905090565b6000600260009054906101000a900473ffffffffffffffffffffffffffffffffffffffff1673ffffffffffffffffffffffffffffffffffffffff163373ffffffffffffffffffffffffffffffffffffffff1614905090565b6107e7610f83565b60008054906101000a900473ffffffffffffffffffffffffffffffffffffffff1673ffffffffffffffffffffffffffffffffffffffff1663c9cf5570836040518263ffffffff1660e01b81526004016108409190611932565b6101a06040518083038186803b15801561085957600080fd5b505afa15801561086d573d6000803e3d6000fd5b505050506040513d601f19601f8201168201806040525081019061089191906112b5565b9050919050565b853373ffffffffffffffffffffffffffffffffffffffff1660008054906101000a900473ffffffffffffffffffffffffffffffffffffffff1673ffffffffffffffffffffffffffffffffffffffff16636352211e836040518263ffffffff1660e01b81526004016109099190611932565b60206040518083038186803b15801561092157600080fd5b505afa158015610935573d6000803e3d6000fd5b505050506040513d601f19601f82011682018060405250810190610959919061128c565b73ffffffffffffffffffffffffffffffffffffffff16146109af576040517f08c379a00000000000000000000000000000000000000000000000000000000081526004016109a69061189f565b60405180910390fd5b600073ffffffffffffffffffffffffffffffffffffffff16600360009054906101000a900473ffffffffffffffffffffffffffffffffffffffff1673ffffffffffffffffffffffffffffffffffffffff161415610a41576040517f08c379a0000000000000000000000000000000000000000000000000000000008152600401610a389061183f565b60405180910390fd5b60008686905011610a87576040517f08c379a0000000000000000000000000000000000000000000000000000000008152600401610a7e9061187f565b60405180910390fd5b60008484905011610acd576040517f08c379a0000000000000000000000000000000000000000000000000000000008152600401610ac49061181f565b60405180910390fd5b60008211610b10576040517f08c379a0000000000000000000000000000000000000000000000000000000008152600401610b079061185f565b60405180910390fd5b60008054906101000a900473ffffffffffffffffffffffffffffffffffffffff1673ffffffffffffffffffffffffffffffffffffffff1663095ea7b3600360009054906101000a900473ffffffffffffffffffffffffffffffffffffffff16896040518363ffffffff1660e01b8152600401610b8d92919061177e565b600060405180830381600087803b158015610ba757600080fd5b505af1158015610bbb573d6000803e3d6000fd5b50505050600360009054906101000a900473ffffffffffffffffffffffffffffffffffffffff1673ffffffffffffffffffffffffffffffffffffffff166361f428b08888888888886040518763ffffffff1660e01b8152600401610c249695949392919061194d565b600060405180830381600087803b158015610c3e57600080fd5b505af1158015610c52573d6000803e3d6000fd5b5050505050505050505050565b60008060009054906101000a900473ffffffffffffffffffffffffffffffffffffffff1673ffffffffffffffffffffffffffffffffffffffff166370a08231836040518263ffffffff1660e01b8152600401610cbb9190611763565b60206040518083038186803b158015610cd357600080fd5b505afa158015610ce7573d6000803e3d6000fd5b505050506040513d601f19601f82011682018060405250810190610d0b9190611357565b9050919050565b60008060008054906101000a900473ffffffffffffffffffffffffffffffffffffffff1673ffffffffffffffffffffffffffffffffffffffff1663c9cf5570846040518263ffffffff1660e01b8152600401610d6e9190611932565b6101a06040518083038186803b158015610d8757600080fd5b505afa158015610d9b573d6000803e3d6000fd5b505050506040513d601f19601f82011682018060405250810190610dbf91906112b5565b90506000603c826040015167ffffffffffffffff1642610ddf9190611a6d565b610de99190611a13565b905081610160015161ffff16811092505050919050565b610e08610787565b610e47576040517f08c379a0000000000000000000000000000000000000000000000000000000008152600401610e3e906118bf565b60405180910390fd5b610e5081610e53565b50565b600073ffffffffffffffffffffffffffffffffffffffff168173ffffffffffffffffffffffffffffffffffffffff161415610ec3576040517f08c379a0000000000000000000000000000000000000000000000000000000008152600401610eba906117ff565b60405180910390fd5b8073ffffffffffffffffffffffffffffffffffffffff16600260009054906101000a900473ffffffffffffffffffffffffffffffffffffffff1673ffffffffffffffffffffffffffffffffffffffff167f8be0079c531659141344cd1fd0a4f28419497f9722a3daafe3b4186f6b6457e060405160405180910390a380600260006101000a81548173ffffffffffffffffffffffffffffffffffffffff021916908373ffffffffffffffffffffffffffffffffffffffff16021790555050565b604051806101a001604052806000801916815260200160008019168152602001600067ffffffffffffffff168152602001600063ffffffff168152602001600063ffffffff168152602001600063ffffffff168152602001600061ffff168152602001600061ffff168152602001600061ffff168152602001600061ffff168152602001600061ffff168152602001600061ffff168152602001600060ff1681525090565b60008135905061103781611d49565b92915050565b60008151905061104c81611d49565b92915050565b60008151905061106181611d60565b92915050565b60008083601f84011261107957600080fd5b8235905067ffffffffffffffff81111561109257600080fd5b6020830191508360018202830111156110aa57600080fd5b9250929050565b60006101a082840312156110c457600080fd5b6110cf6101a06119a4565b905060006110df84828501611052565b60008301525060206110f384828501611052565b602083015250604061110784828501611239565b604083015250606061111b84828501611224565b606083015250608061112f84828501611224565b60808301525060a061114384828501611224565b60a08301525060c0611157848285016111e5565b60c08301525060e061116b848285016111e5565b60e083015250610100611180848285016111e5565b61010083015250610120611196848285016111e5565b610120830152506101406111ac848285016111e5565b610140830152506101606111c2848285016111e5565b610160830152506101806111d88482850161124e565b6101808301525092915050565b6000815190506111f481611d77565b92915050565b60008135905061120981611d8e565b92915050565b60008151905061121e81611d8e565b92915050565b60008151905061123381611da5565b92915050565b60008151905061124881611dbc565b92915050565b60008151905061125d81611dd3565b92915050565b60006020828403121561127557600080fd5b600061128384828501611028565b91505092915050565b60006020828403121561129e57600080fd5b60006112ac8482850161103d565b91505092915050565b60006101a082840312156112c857600080fd5b60006112d6848285016110b1565b91505092915050565b6000806000606084860312156112f457600080fd5b6000611302868287016111e5565b9350506020611313868287016111e5565b9250506040611324868287016111e5565b9150509250925092565b60006020828403121561134057600080fd5b600061134e848285016111fa565b91505092915050565b60006020828403121561136957600080fd5b60006113778482850161120f565b91505092915050565b6000806000806000806080878903121561139957600080fd5b60006113a789828a016111fa565b965050602087013567ffffffffffffffff8111156113c457600080fd5b6113d089828a01611067565b9550955050604087013567ffffffffffffffff8111156113ef57600080fd5b6113fb89828a01611067565b9350935050606061140e89828a016111fa565b9150509295509295509295565b60006114278383611718565b60208301905092915050565b61143c81611aa1565b82525050565b600061144d826119d9565b61145781856119f1565b9350611462836119c9565b8060005b8381101561149357815161147a888261141b565b9750611485836119e4565b925050600181019050611466565b5085935050505092915050565b6114a981611ab3565b82525050565b6114b881611abf565b82525050565b6114c781611abf565b82525050565b60006114d98385611a02565b93506114e6838584611b32565b6114ef83611c19565b840190509392505050565b6000611507600f83611a02565b915061151282611c2a565b602082019050919050565b600061152a601183611a02565b915061153582611c53565b602082019050919050565b600061154d601783611a02565b915061155882611c7c565b602082019050919050565b6000611570600b83611a02565b915061157b82611ca5565b602082019050919050565b6000611593600b83611a02565b915061159e82611cce565b602082019050919050565b60006115b6600983611a02565b91506115c182611cf7565b602082019050919050565b60006115d9601283611a02565b91506115e482611d20565b602082019050919050565b6101a08201600082015161160660008501826114af565b50602082015161161960208501826114af565b50604082015161162c6040850182611745565b50606082015161163f6060850182611736565b5060808201516116526080850182611736565b5060a082015161166560a0850182611736565b5060c082015161167860c08501826116fa565b5060e082015161168b60e08501826116fa565b506101008201516116a06101008501826116fa565b506101208201516116b56101208501826116fa565b506101408201516116ca6101408501826116fa565b506101608201516116df6101608501826116fa565b506101808201516116f4610180850182611754565b50505050565b61170381611ac9565b82525050565b61171281611ac9565b82525050565b61172181611af7565b82525050565b61173081611af7565b82525050565b61173f81611b01565b82525050565b61174e81611b11565b82525050565b61175d81611b25565b82525050565b60006020820190506117786000830184611433565b92915050565b60006040820190506117936000830185611433565b6117a06020830184611727565b9392505050565b600060208201905081810360008301526117c18184611442565b905092915050565b60006020820190506117de60008301846114a0565b92915050565b60006020820190506117f960008301846114be565b92915050565b60006020820190508181036000830152611818816114fa565b9050919050565b600060208201905081810360008301526118388161151d565b9050919050565b6000602082019050818103600083015261185881611540565b9050919050565b6000602082019050818103600083015261187881611563565b9050919050565b6000602082019050818103600083015261189881611586565b9050919050565b600060208201905081810360008301526118b8816115a9565b9050919050565b600060208201905081810360008301526118d8816115cc565b9050919050565b60006101a0820190506118f560008301846115ef565b92915050565b60006060820190506119106000830186611709565b61191d6020830185611709565b61192a6040830184611709565b949350505050565b60006020820190506119476000830184611727565b92915050565b60006080820190506119626000830189611727565b81810360208301526119758187896114cd565b9050818103604083015261198a8185876114cd565b90506119996060830184611727565b979650505050505050565b60006119ae6119bf565b90506119ba8282611b41565b919050565b6000604051905090565b6000819050602082019050919050565b600081519050919050565b6000602082019050919050565b600082825260208201905092915050565b600082825260208201905092915050565b6000611a1e82611af7565b9150611a2983611af7565b9250817fffffffffffffffffffffffffffffffffffffffffffffffffffffffffffffffff0483118215151615611a6257611a61611bbb565b5b828202905092915050565b6000611a7882611af7565b9150611a8383611af7565b925082821015611a9657611a95611bbb565b5b828203905092915050565b6000611aac82611ad7565b9050919050565b60008115159050919050565b6000819050919050565b600061ffff82169050919050565b600073ffffffffffffffffffffffffffffffffffffffff82169050919050565b6000819050919050565b600063ffffffff82169050919050565b600067ffffffffffffffff82169050919050565b600060ff82169050919050565b82818337600083830152505050565b611b4a82611c19565b810181811067ffffffffffffffff82111715611b6957611b68611bea565b5b80604052505050565b6000611b7d82611af7565b91507fffffffffffffffffffffffffffffffffffffffffffffffffffffffffffffffff821415611bb057611baf611bbb565b5b600182019050919050565b7f4e487b7100000000000000000000000000000000000000000000000000000000600052601160045260246000fd5b7f4e487b7100000000000000000000000000000000000000000000000000000000600052604160045260246000fd5b6000601f19601f8301169050919050565b7f496e76616c696420616464726573730000000000000000000000000000000000600082015250565b7f456d707479206465736372697074696f6e000000000000000000000000000000600082015250565b7f556e617661696c61626c65206d61726b6574706c616365000000000000000000600082015250565b7f456d707479207072696365000000000000000000000000000000000000000000600082015250565b7f456d707479207469746c65000000000000000000000000000000000000000000600082015250565b7f4e6f74206f776e65720000000000000000000000000000000000000000000000600082015250565b7f496e76616c6964207065726d697373696f6e0000000000000000000000000000600082015250565b611d5281611aa1565b8114611d5d57600080fd5b50565b611d6981611abf565b8114611d7457600080fd5b50565b611d8081611ac9565b8114611d8b57600080fd5b50565b611d9781611af7565b8114611da257600080fd5b50565b611dae81611b01565b8114611db957600080fd5b50565b611dc581611b11565b8114611dd057600080fd5b50565b611ddc81611b25565b8114611de757600080fd5b5056fea264697066735822122039736adc3e0fe2ff17647c74b5f8df4754c5d48a6b06522f50811cfbdf986c2664736f6c63430008040033",
  "immutableReferences": {},
  "source": "// SPDX-License-Identifier: GPL-3.0 License\n\npragma solidity ^0.8.0;\n\nimport './DragonApi.sol';\nimport '../common/ownership/Ownable.sol';\n\ninterface IMarketplace {\n\tfunction createSellOrder(\n\t\tuint256 dragonId,\n\t\tstring calldata title,\n\t\tstring calldata description,\n\t\tuint256 price\n\t) external;\n}\n\ncontract MainnetDragonApi is DragonApi, Ownable {\n    address private _marketplaceAddress;\n\n    constructor(address dragonAddress, address genesLaboratory, address marketplaceAddress) DragonApi(dragonAddress, genesLaboratory)  {\n\t\trequire(marketplaceAddress != address(0), 'Invalid marketplace address');\n\t\t_marketplaceAddress = marketplaceAddress;\n\t}\n\n    /*******************************************************************************************\n        Modifiers\n    ********************************************************************************************/\n\t/**\n\t * @dev Throws if sender isn't the owner of the dragon in the parameter\n\t */\n\tmodifier onlyDragonOwner(uint256 _dragonId) {\n\t\trequire(IERC721Enumerable(_dragonAddress).ownerOf(_dragonId) == msg.sender, 'Not owner');\n\t\t_;\n\t}\n\n\t/*******************************************************************************************\n        Actions\n    ********************************************************************************************/\n    /**\n\t * @dev set marketplace contract address\n\t */\n    function setMarketplace(address marketplaceAddress) external onlyOwner {\n\t\trequire(marketplaceAddress != address(0), 'Invalid address');\n\t\t_marketplaceAddress = marketplaceAddress;\n\t}\n\n    /**\n\t * @dev Publish a dragon in the marketplace to be available for buyers\n\t */\n    function publishDragon(\n\t\tuint256 tokenId,\n\t\tstring calldata title,\n\t\tstring calldata description,\n\t\tuint256 price\n\t) external onlyDragonOwner(tokenId) {\n\t\trequire(_marketplaceAddress != address(0), 'Unavailable marketplace');\n\t\trequire(bytes(title).length > 0, 'Empty title');\n\t\trequire(bytes(description).length > 0, 'Empty description');\n\t\trequire(price > 0, 'Empty price');\n\n\t\t// Allow marketplace to transfer ownership\n\t\tIERC721Enumerable(_dragonAddress).approve(_marketplaceAddress, tokenId);\n\n\t\tIMarketplace(_marketplaceAddress).createSellOrder(tokenId, title, description, price);\n\t}\n}",
  "sourcePath": "/usr/src/app/contractGetter/contracts/public/MainnetDragonApi.sol",
  "compiler": {
    "name": "solc",
    "version": "0.8.4+commit.c7e474f2.Emscripten.clang"
  },
  "schemaVersion": "3.4.1",
  "updatedAt": "2021-10-31T18:15:10.176Z",
  "networkType": "ethereum",
  "devdoc": {
    "kind": "dev",
    "methods": {
      "getDragonById(uint256)": {
        "details": "Get dragon data by dragon id"
      },
      "getDragonsCountByOwner(address)": {
        "details": "Get amount of dragons owned by owner address"
      },
      "getDragonsIdsByOwner(address)": {
        "details": "Get all dragons ids owned by owner address"
      },
      "isEgg(uint256)": {
        "details": "return if dragon is in egg stage"
      },
      "isOwner()": {
        "returns": {
          "_0": "true if `msg.sender` is the owner of the contract."
        }
      },
      "owner()": {
        "returns": {
          "_0": "the address of the owner."
        }
      },
      "publishDragon(uint256,string,string,uint256)": {
        "details": "Publish a dragon in the marketplace to be available for buyers"
      },
      "renounceOwnership()": {
        "details": "Allows the current owner to relinquish control of the contract."
      },
      "setMarketplace(address)": {
        "details": "set marketplace contract address"
      },
      "transferOwnership(address)": {
        "details": "Allows the current owner to transfer control of the contract to a newOwner.",
        "params": {
          "newOwner": "The address to transfer ownership to."
        }
      }
    },
    "version": 1
  },
  "userdoc": {
    "kind": "user",
    "methods": {
      "renounceOwnership()": {
        "notice": "Renouncing to ownership will leave the contract without an owner. It will not be possible to call the functions with the `onlyOwner` modifier anymore."
      }
    },
    "version": 1
  }
}