{
  "contractName": "MainnetMarketplace",
  "abi": [
    {
      "anonymous": false,
      "inputs": [
        {
          "indexed": false,
          "internalType": "uint256",
          "name": "listingId",
          "type": "uint256"
        },
        {
          "indexed": false,
          "internalType": "address",
          "name": "seller",
          "type": "address"
        }
      ],
      "name": "ItemCancelled",
      "type": "event"
    },
    {
      "anonymous": false,
      "inputs": [
        {
          "indexed": true,
          "internalType": "uint256",
          "name": "listingId",
          "type": "uint256"
        },
        {
          "indexed": true,
          "internalType": "uint256",
          "name": "tokenId",
          "type": "uint256"
        },
        {
          "indexed": true,
          "internalType": "address",
          "name": "nftContract",
          "type": "address"
        },
        {
          "indexed": false,
          "internalType": "address",
          "name": "seller",
          "type": "address"
        },
        {
          "indexed": false,
          "internalType": "uint256",
          "name": "price",
          "type": "uint256"
        }
      ],
      "name": "ItemListed",
      "type": "event"
    },
    {
      "anonymous": false,
      "inputs": [
        {
          "indexed": true,
          "internalType": "uint256",
          "name": "listingId",
          "type": "uint256"
        },
        {
          "indexed": true,
          "internalType": "uint256",
          "name": "tokenId",
          "type": "uint256"
        },
        {
          "indexed": true,
          "internalType": "address",
          "name": "nftContract",
          "type": "address"
        },
        {
          "indexed": false,
          "internalType": "address",
          "name": "seller",
          "type": "address"
        },
        {
          "indexed": false,
          "internalType": "address",
          "name": "buyer",
          "type": "address"
        },
        {
          "indexed": false,
          "internalType": "uint256",
          "name": "price",
          "type": "uint256"
        }
      ],
      "name": "ItemSold",
      "type": "event"
    },
    {
      "anonymous": false,
      "inputs": [
        {
          "indexed": true,
          "internalType": "address",
          "name": "previousOwner",
          "type": "address"
        },
        {
          "indexed": true,
          "internalType": "address",
          "name": "newOwner",
          "type": "address"
        }
      ],
      "name": "OwnershipTransferred",
      "type": "event"
    },
    {
      "inputs": [],
      "name": "isOwner",
      "outputs": [
        {
          "internalType": "bool",
          "name": "",
          "type": "bool"
        }
      ],
      "stateMutability": "view",
      "type": "function",
      "constant": true
    },
    {
      "inputs": [],
      "name": "owner",
      "outputs": [
        {
          "internalType": "address",
          "name": "",
          "type": "address"
        }
      ],
      "stateMutability": "view",
      "type": "function",
      "constant": true
    },
    {
      "inputs": [],
      "name": "renounceOwnership",
      "outputs": [],
      "stateMutability": "nonpayable",
      "type": "function"
    },
    {
      "inputs": [],
      "name": "teamFee",
      "outputs": [
        {
          "internalType": "uint256",
          "name": "",
          "type": "uint256"
        }
      ],
      "stateMutability": "view",
      "type": "function",
      "constant": true
    },
    {
      "inputs": [
        {
          "internalType": "address",
          "name": "newOwner",
          "type": "address"
        }
      ],
      "name": "transferOwnership",
      "outputs": [],
      "stateMutability": "nonpayable",
      "type": "function"
    },
    {
      "inputs": [
        {
          "internalType": "uint256",
          "name": "_teamFee",
          "type": "uint256"
        }
      ],
      "name": "setTeamFee",
      "outputs": [],
      "stateMutability": "nonpayable",
      "type": "function"
    },
    {
      "inputs": [
        {
          "internalType": "address",
          "name": "teamAddress",
          "type": "address"
        }
      ],
      "name": "setFeeAccounts",
      "outputs": [],
      "stateMutability": "nonpayable",
      "type": "function"
    },
    {
      "inputs": [
        {
          "internalType": "uint256",
          "name": "listingId",
          "type": "uint256"
        }
      ],
      "name": "geListedItem",
      "outputs": [
        {
          "components": [
            {
              "internalType": "uint256",
              "name": "listingId",
              "type": "uint256"
            },
            {
              "internalType": "uint256",
              "name": "tokenId",
              "type": "uint256"
            },
            {
              "internalType": "address",
              "name": "nftContract",
              "type": "address"
            },
            {
              "internalType": "address payable",
              "name": "seller",
              "type": "address"
            },
            {
              "internalType": "uint256",
              "name": "price",
              "type": "uint256"
            },
            {
              "internalType": "enum MainnetMarketplace.ListingStatus",
              "name": "status",
              "type": "uint8"
            }
          ],
          "internalType": "struct MainnetMarketplace.ListingData",
          "name": "",
          "type": "tuple"
        }
      ],
      "stateMutability": "view",
      "type": "function",
      "constant": true
    },
    {
      "inputs": [
        {
          "internalType": "address",
          "name": "sellerAddress",
          "type": "address"
        }
      ],
      "name": "getActiveListingsForAddress",
      "outputs": [
        {
          "components": [
            {
              "internalType": "uint256",
              "name": "listingId",
              "type": "uint256"
            },
            {
              "internalType": "uint256",
              "name": "tokenId",
              "type": "uint256"
            },
            {
              "internalType": "address",
              "name": "nftContract",
              "type": "address"
            },
            {
              "internalType": "address payable",
              "name": "seller",
              "type": "address"
            },
            {
              "internalType": "uint256",
              "name": "price",
              "type": "uint256"
            },
            {
              "internalType": "enum MainnetMarketplace.ListingStatus",
              "name": "status",
              "type": "uint8"
            }
          ],
          "internalType": "struct MainnetMarketplace.ListingData[]",
          "name": "",
          "type": "tuple[]"
        }
      ],
      "stateMutability": "view",
      "type": "function",
      "constant": true
    },
    {
      "inputs": [],
      "name": "fetchMarketItems",
      "outputs": [
        {
          "components": [
            {
              "internalType": "uint256",
              "name": "listingId",
              "type": "uint256"
            },
            {
              "internalType": "uint256",
              "name": "tokenId",
              "type": "uint256"
            },
            {
              "internalType": "address",
              "name": "nftContract",
              "type": "address"
            },
            {
              "internalType": "address payable",
              "name": "seller",
              "type": "address"
            },
            {
              "internalType": "uint256",
              "name": "price",
              "type": "uint256"
            },
            {
              "internalType": "enum MainnetMarketplace.ListingStatus",
              "name": "status",
              "type": "uint8"
            }
          ],
          "internalType": "struct MainnetMarketplace.ListingData[]",
          "name": "",
          "type": "tuple[]"
        }
      ],
      "stateMutability": "view",
      "type": "function",
      "constant": true
    },
    {
      "inputs": [
        {
          "internalType": "address",
          "name": "nftContract",
          "type": "address"
        },
        {
          "internalType": "uint256",
          "name": "tokenId",
          "type": "uint256"
        },
        {
          "internalType": "uint256",
          "name": "price",
          "type": "uint256"
        }
      ],
      "name": "listToken",
      "outputs": [],
      "stateMutability": "payable",
      "type": "function",
      "payable": true
    },
    {
      "inputs": [
        {
          "internalType": "address",
          "name": "nftContract",
          "type": "address"
        },
        {
          "internalType": "uint256",
          "name": "listingId",
          "type": "uint256"
        }
      ],
      "name": "buyListedToken",
      "outputs": [],
      "stateMutability": "payable",
      "type": "function",
      "payable": true
    },
    {
      "inputs": [
        {
          "internalType": "uint256",
          "name": "listingId",
          "type": "uint256"
        }
      ],
      "name": "cancelListing",
      "outputs": [],
      "stateMutability": "nonpayable",
      "type": "function"
    }
  ],
  "bytecode": "0x6080604052600160065534801561001557600080fd5b50336000806101000a81548173ffffffffffffffffffffffffffffffffffffffff021916908373ffffffffffffffffffffffffffffffffffffffff16021790555060008054906101000a900473ffffffffffffffffffffffffffffffffffffffff1673ffffffffffffffffffffffffffffffffffffffff16600073ffffffffffffffffffffffffffffffffffffffff167f8be0079c531659141344cd1fd0a4f28419497f9722a3daafe3b4186f6b6457e060405160405180910390a360018081905550612771806100e76000396000f3fe6080604052600436106100c25760003560e01c80638da5cb5b1161007f578063d7c94efd11610059578063d7c94efd14610247578063d8a4269514610272578063e6ec64ec1461028e578063f2fde38b146102b7576100c2565b80638da5cb5b146101c85780638f32d59b146101f3578063a4f281b81461021e576100c2565b80630f08efe0146100c7578063305a67a8146100f25780636f6db7611461011b578063715018a6146101585780637967c1d51461016f5780637e07590d146101ac575b600080fd5b3480156100d357600080fd5b506100dc6102e0565b6040516100e991906120bc565b60405180910390f35b3480156100fe57600080fd5b5061011960048036038101906101149190611cc2565b610652565b005b34801561012757600080fd5b50610142600480360381019061013d9190611c0e565b610969565b60405161014f91906120bc565b60405180910390f35b34801561016457600080fd5b5061016d610e51565b005b34801561017b57600080fd5b5061019660048036038101906101919190611cc2565b610f56565b6040516101a39190612219565b60405180910390f35b6101c660048036038101906101c19190611c73565b6110d4565b005b3480156101d457600080fd5b506101dd6113f5565b6040516101ea919061200a565b60405180910390f35b3480156101ff57600080fd5b5061020861141e565b60405161021591906120de565b60405180910390f35b34801561022a57600080fd5b5061024560048036038101906102409190611c0e565b611475565b005b34801561025357600080fd5b5061025c611570565b6040516102699190612234565b60405180910390f35b61028c60048036038101906102879190611c37565b611576565b005b34801561029a57600080fd5b506102b560048036038101906102b09190611cc2565b611955565b005b3480156102c357600080fd5b506102de60048036038101906102d99190611c0e565b6119a6565b005b606060006102ee60026119f9565b905060006102fc60046119f9565b61030660036119f9565b61031060026119f9565b61031a91906123a3565b61032491906123a3565b90506000808267ffffffffffffffff811115610369577f4e487b7100000000000000000000000000000000000000000000000000000000600052604160045260246000fd5b6040519080825280602002602001820160405280156103a257816020015b61038f611b4a565b8152602001906001900390816103875790505b5090506000600190505b84811161064757600060028111156103ed577f4e487b7100000000000000000000000000000000000000000000000000000000600052602160045260246000fd5b6005600083815260200190815260200160002060050160009054906101000a900460ff166002811115610449577f4e487b7100000000000000000000000000000000000000000000000000000000600052602160045260246000fd5b1415610634576000600560008381526020019081526020016000206000015490506000600560008381526020019081526020016000209050806040518060c001604052908160008201548152602001600182015481526020016002820160009054906101000a900473ffffffffffffffffffffffffffffffffffffffff1673ffffffffffffffffffffffffffffffffffffffff1673ffffffffffffffffffffffffffffffffffffffff1681526020016003820160009054906101000a900473ffffffffffffffffffffffffffffffffffffffff1673ffffffffffffffffffffffffffffffffffffffff1673ffffffffffffffffffffffffffffffffffffffff168152602001600482015481526020016005820160009054906101000a900460ff1660028111156105a2577f4e487b7100000000000000000000000000000000000000000000000000000000600052602160045260246000fd5b60028111156105da577f4e487b7100000000000000000000000000000000000000000000000000000000600052602160045260246000fd5b81525050848681518110610617577f4e487b7100000000000000000000000000000000000000000000000000000000600052603260045260246000fd5b602002602001018190525060018561062f91906122c2565b945050505b808061063f9061248c565b9150506103ac565b508094505050505090565b60026001541415610698576040517f08c379a000000000000000000000000000000000000000000000000000000000815260040161068f906121d9565b60405180910390fd5b600260018190555060006005600083815260200190815260200160002090508060030160009054906101000a900473ffffffffffffffffffffffffffffffffffffffff1673ffffffffffffffffffffffffffffffffffffffff163373ffffffffffffffffffffffffffffffffffffffff1614610749576040517f08c379a000000000000000000000000000000000000000000000000000000000815260040161074090612139565b60405180910390fd5b60006002811115610783577f4e487b7100000000000000000000000000000000000000000000000000000000600052602160045260246000fd5b8160050160009054906101000a900460ff1660028111156107cd577f4e487b7100000000000000000000000000000000000000000000000000000000600052602160045260246000fd5b1461080d576040517f08c379a000000000000000000000000000000000000000000000000000000000815260040161080490612119565b60405180910390fd5b60028160050160006101000a81548160ff0219169083600281111561085b577f4e487b7100000000000000000000000000000000000000000000000000000000600052602160045260246000fd5b021790555061086a6004611a07565b8060020160009054906101000a900473ffffffffffffffffffffffffffffffffffffffff1673ffffffffffffffffffffffffffffffffffffffff166342842e0e303384600101546040518463ffffffff1660e01b81526004016108cf9392919061205c565b600060405180830381600087803b1580156108e957600080fd5b505af11580156108fd573d6000803e3d6000fd5b505050507ff69c7ea3f71dad86e17ba97a88b7e8f1708c0946bd98c7584e9942f60da8728e828260030160009054906101000a900473ffffffffffffffffffffffffffffffffffffffff1660405161095692919061224f565b60405180910390a1506001808190555050565b6060600061097760026119f9565b90506000806000600190505b838111610ab6578573ffffffffffffffffffffffffffffffffffffffff166005600083815260200190815260200160002060030160009054906101000a900473ffffffffffffffffffffffffffffffffffffffff1673ffffffffffffffffffffffffffffffffffffffff16148015610a8e575060006002811115610a30577f4e487b7100000000000000000000000000000000000000000000000000000000600052602160045260246000fd5b6005600083815260200190815260200160002060050160009054906101000a900460ff166002811115610a8c577f4e487b7100000000000000000000000000000000000000000000000000000000600052602160045260246000fd5b145b15610aa357600183610aa091906122c2565b92505b8080610aae9061248c565b915050610983565b5060008267ffffffffffffffff811115610af9577f4e487b7100000000000000000000000000000000000000000000000000000000600052604160045260246000fd5b604051908082528060200260200182016040528015610b3257816020015b610b1f611b4a565b815260200190600190039081610b175790505b5090506000600190505b848111610e44578673ffffffffffffffffffffffffffffffffffffffff166005600083815260200190815260200160002060030160009054906101000a900473ffffffffffffffffffffffffffffffffffffffff1673ffffffffffffffffffffffffffffffffffffffff16148015610c47575060006002811115610be9577f4e487b7100000000000000000000000000000000000000000000000000000000600052602160045260246000fd5b6005600083815260200190815260200160002060050160009054906101000a900460ff166002811115610c45577f4e487b7100000000000000000000000000000000000000000000000000000000600052602160045260246000fd5b145b15610e31576000600560008381526020019081526020016000206000015490506000600560008381526020019081526020016000209050806040518060c001604052908160008201548152602001600182015481526020016002820160009054906101000a900473ffffffffffffffffffffffffffffffffffffffff1673ffffffffffffffffffffffffffffffffffffffff1673ffffffffffffffffffffffffffffffffffffffff1681526020016003820160009054906101000a900473ffffffffffffffffffffffffffffffffffffffff1673ffffffffffffffffffffffffffffffffffffffff1673ffffffffffffffffffffffffffffffffffffffff168152602001600482015481526020016005820160009054906101000a900460ff166002811115610d9f577f4e487b7100000000000000000000000000000000000000000000000000000000600052602160045260246000fd5b6002811115610dd7577f4e487b7100000000000000000000000000000000000000000000000000000000600052602160045260246000fd5b81525050848681518110610e14577f4e487b7100000000000000000000000000000000000000000000000000000000600052603260045260246000fd5b6020026020010181905250600185610e2c91906122c2565b945050505b8080610e3c9061248c565b915050610b3c565b5080945050505050919050565b610e5961141e565b610e98576040517f08c379a0000000000000000000000000000000000000000000000000000000008152600401610e8f90612199565b60405180910390fd5b600073ffffffffffffffffffffffffffffffffffffffff1660008054906101000a900473ffffffffffffffffffffffffffffffffffffffff1673ffffffffffffffffffffffffffffffffffffffff167f8be0079c531659141344cd1fd0a4f28419497f9722a3daafe3b4186f6b6457e060405160405180910390a360008060006101000a81548173ffffffffffffffffffffffffffffffffffffffff021916908373ffffffffffffffffffffffffffffffffffffffff160217905550565b610f5e611b4a565b600560008381526020019081526020016000206040518060c001604052908160008201548152602001600182015481526020016002820160009054906101000a900473ffffffffffffffffffffffffffffffffffffffff1673ffffffffffffffffffffffffffffffffffffffff1673ffffffffffffffffffffffffffffffffffffffff1681526020016003820160009054906101000a900473ffffffffffffffffffffffffffffffffffffffff1673ffffffffffffffffffffffffffffffffffffffff1673ffffffffffffffffffffffffffffffffffffffff168152602001600482015481526020016005820160009054906101000a900460ff166002811115611091577f4e487b7100000000000000000000000000000000000000000000000000000000600052602160045260246000fd5b60028111156110c9577f4e487b7100000000000000000000000000000000000000000000000000000000600052602160045260246000fd5b815250509050919050565b6002600154141561111a576040517f08c379a0000000000000000000000000000000000000000000000000000000008152600401611111906121d9565b60405180910390fd5b600260018190555060008111611165576040517f08c379a000000000000000000000000000000000000000000000000000000000815260040161115c906121f9565b60405180910390fd5b61116f6002611a07565b600061117b60026119f9565b90506040518060c001604052808281526020018481526020018573ffffffffffffffffffffffffffffffffffffffff1681526020013373ffffffffffffffffffffffffffffffffffffffff1681526020018381526020016000600281111561120c577f4e487b7100000000000000000000000000000000000000000000000000000000600052602160045260246000fd5b81525060056000838152602001908152602001600020600082015181600001556020820151816001015560408201518160020160006101000a81548173ffffffffffffffffffffffffffffffffffffffff021916908373ffffffffffffffffffffffffffffffffffffffff16021790555060608201518160030160006101000a81548173ffffffffffffffffffffffffffffffffffffffff021916908373ffffffffffffffffffffffffffffffffffffffff1602179055506080820151816004015560a08201518160050160006101000a81548160ff0219169083600281111561131f577f4e487b7100000000000000000000000000000000000000000000000000000000600052602160045260246000fd5b02179055509050508373ffffffffffffffffffffffffffffffffffffffff166342842e0e3330866040518463ffffffff1660e01b81526004016113649392919061205c565b600060405180830381600087803b15801561137e57600080fd5b505af1158015611392573d6000803e3d6000fd5b505050508373ffffffffffffffffffffffffffffffffffffffff1683827f97b82dd2100c1a4b2bd0c8de35bd15f99c25848de8431c6549f058fcf3d3cdbf33866040516113e0929190612093565b60405180910390a45060018081905550505050565b60008060009054906101000a900473ffffffffffffffffffffffffffffffffffffffff16905090565b60008060009054906101000a900473ffffffffffffffffffffffffffffffffffffffff1673ffffffffffffffffffffffffffffffffffffffff163373ffffffffffffffffffffffffffffffffffffffff1614905090565b61147d61141e565b6114bc576040517f08c379a00000000000000000000000000000000000000000000000000000000081526004016114b390612199565b60405180910390fd5b600073ffffffffffffffffffffffffffffffffffffffff168173ffffffffffffffffffffffffffffffffffffffff16141561152c576040517f08c379a0000000000000000000000000000000000000000000000000000000008152600401611523906121b9565b60405180910390fd5b80600760006101000a81548173ffffffffffffffffffffffffffffffffffffffff021916908373ffffffffffffffffffffffffffffffffffffffff16021790555050565b60065481565b600260015414156115bc576040517f08c379a00000000000000000000000000000000000000000000000000000000081526004016115b3906121d9565b60405180910390fd5b6002600181905550600060056000838152602001908152602001600020905060008160040154905060008260010154905081341461162f576040517f08c379a000000000000000000000000000000000000000000000000000000000815260040161162690612179565b60405180910390fd5b60006002811115611669577f4e487b7100000000000000000000000000000000000000000000000000000000600052602160045260246000fd5b8360050160009054906101000a900460ff1660028111156116b3577f4e487b7100000000000000000000000000000000000000000000000000000000600052602160045260246000fd5b146116f3576040517f08c379a00000000000000000000000000000000000000000000000000000000081526004016116ea90612159565b60405180910390fd5b60016005600086815260200190815260200160002060050160006101000a81548160ff02191690836002811115611753577f4e487b7100000000000000000000000000000000000000000000000000000000600052602160045260246000fd5b02179055506117626003611a07565b60006064600654846117749190612349565b61177e9190612318565b90508360030160009054906101000a900473ffffffffffffffffffffffffffffffffffffffff1673ffffffffffffffffffffffffffffffffffffffff166108fc82346117ca91906123a3565b9081150290604051600060405180830381858888f193505050501580156117f5573d6000803e3d6000fd5b50600760009054906101000a900473ffffffffffffffffffffffffffffffffffffffff1673ffffffffffffffffffffffffffffffffffffffff166108fc829081150290604051600060405180830381858888f1935050505015801561185e573d6000803e3d6000fd5b508573ffffffffffffffffffffffffffffffffffffffff166342842e0e3033856040518463ffffffff1660e01b815260040161189c9392919061205c565b600060405180830381600087803b1580156118b657600080fd5b505af11580156118ca573d6000803e3d6000fd5b505050508573ffffffffffffffffffffffffffffffffffffffff1682867f612a4c47ab6b6ed707bc3219bc7403cf101370bda0813fe58352bb570fdc5de68760030160009054906101000a900473ffffffffffffffffffffffffffffffffffffffff16338860405161193e93929190612025565b60405180910390a450505050600180819055505050565b61195d61141e565b61199c576040517f08c379a000000000000000000000000000000000000000000000000000000000815260040161199390612199565b60405180910390fd5b8060068190555050565b6119ae61141e565b6119ed576040517f08c379a00000000000000000000000000000000000000000000000000000000081526004016119e490612199565b60405180910390fd5b6119f681611a1d565b50565b600081600001549050919050565b6001816000016000828254019250508190555050565b600073ffffffffffffffffffffffffffffffffffffffff168173ffffffffffffffffffffffffffffffffffffffff161415611a8d576040517f08c379a0000000000000000000000000000000000000000000000000000000008152600401611a84906120f9565b60405180910390fd5b8073ffffffffffffffffffffffffffffffffffffffff1660008054906101000a900473ffffffffffffffffffffffffffffffffffffffff1673ffffffffffffffffffffffffffffffffffffffff167f8be0079c531659141344cd1fd0a4f28419497f9722a3daafe3b4186f6b6457e060405160405180910390a3806000806101000a81548173ffffffffffffffffffffffffffffffffffffffff021916908373ffffffffffffffffffffffffffffffffffffffff16021790555050565b6040518060c001604052806000815260200160008152602001600073ffffffffffffffffffffffffffffffffffffffff168152602001600073ffffffffffffffffffffffffffffffffffffffff1681526020016000815260200160006002811115611bde577f4e487b7100000000000000000000000000000000000000000000000000000000600052602160045260246000fd5b81525090565b600081359050611bf38161270d565b92915050565b600081359050611c0881612724565b92915050565b600060208284031215611c2057600080fd5b6000611c2e84828501611be4565b91505092915050565b60008060408385031215611c4a57600080fd5b6000611c5885828601611be4565b9250506020611c6985828601611bf9565b9150509250929050565b600080600060608486031215611c8857600080fd5b6000611c9686828701611be4565b9350506020611ca786828701611bf9565b9250506040611cb886828701611bf9565b9150509250925092565b600060208284031215611cd457600080fd5b6000611ce284828501611bf9565b91505092915050565b6000611cf78383611ef6565b60c08301905092915050565b611d0c81612444565b82525050565b611d1b816123e9565b82525050565b611d2a816123d7565b82525050565b611d39816123d7565b82525050565b6000611d4a82612288565b611d5481856122a0565b9350611d5f83612278565b8060005b83811015611d90578151611d778882611ceb565b9750611d8283612293565b925050600181019050611d63565b5085935050505092915050565b611da6816123fb565b82525050565b611db581612456565b82525050565b6000611dc8600f836122b1565b9150611dd382612562565b602082019050919050565b6000611deb6010836122b1565b9150611df68261258b565b602082019050919050565b6000611e0e601e836122b1565b9150611e19826125b4565b602082019050919050565b6000611e316016836122b1565b9150611e3c826125dd565b602082019050919050565b6000611e546040836122b1565b9150611e5f82612606565b604082019050919050565b6000611e776012836122b1565b9150611e8282612655565b602082019050919050565b6000611e9a6014836122b1565b9150611ea58261267e565b602082019050919050565b6000611ebd601f836122b1565b9150611ec8826126a7565b602082019050919050565b6000611ee0601c836122b1565b9150611eeb826126d0565b602082019050919050565b60c082016000820151611f0c6000850182611fec565b506020820151611f1f6020850182611fec565b506040820151611f326040850182611d21565b506060820151611f456060850182611d12565b506080820151611f586080850182611fec565b5060a0820151611f6b60a0850182611dac565b50505050565b60c082016000820151611f876000850182611fec565b506020820151611f9a6020850182611fec565b506040820151611fad6040850182611d21565b506060820151611fc06060850182611d12565b506080820151611fd36080850182611fec565b5060a0820151611fe660a0850182611dac565b50505050565b611ff58161243a565b82525050565b6120048161243a565b82525050565b600060208201905061201f6000830184611d30565b92915050565b600060608201905061203a6000830186611d03565b6120476020830185611d30565b6120546040830184611ffb565b949350505050565b60006060820190506120716000830186611d30565b61207e6020830185611d30565b61208b6040830184611ffb565b949350505050565b60006040820190506120a86000830185611d30565b6120b56020830184611ffb565b9392505050565b600060208201905081810360008301526120d68184611d3f565b905092915050565b60006020820190506120f36000830184611d9d565b92915050565b6000602082019050818103600083015261211281611dbb565b9050919050565b6000602082019050818103600083015261213281611dde565b9050919050565b6000602082019050818103600083015261215281611e01565b9050919050565b6000602082019050818103600083015261217281611e24565b9050919050565b6000602082019050818103600083015261219281611e47565b9050919050565b600060208201905081810360008301526121b281611e6a565b9050919050565b600060208201905081810360008301526121d281611e8d565b9050919050565b600060208201905081810360008301526121f281611eb0565b9050919050565b6000602082019050818103600083015261221281611ed3565b9050919050565b600060c08201905061222e6000830184611f71565b92915050565b60006020820190506122496000830184611ffb565b92915050565b60006040820190506122646000830185611ffb565b6122716020830184611d03565b9392505050565b6000819050602082019050919050565b600081519050919050565b6000602082019050919050565b600082825260208201905092915050565b600082825260208201905092915050565b60006122cd8261243a565b91506122d88361243a565b9250827fffffffffffffffffffffffffffffffffffffffffffffffffffffffffffffffff0382111561230d5761230c6124d5565b5b828201905092915050565b60006123238261243a565b915061232e8361243a565b92508261233e5761233d612504565b5b828204905092915050565b60006123548261243a565b915061235f8361243a565b9250817fffffffffffffffffffffffffffffffffffffffffffffffffffffffffffffffff0483118215151615612398576123976124d5565b5b828202905092915050565b60006123ae8261243a565b91506123b98361243a565b9250828210156123cc576123cb6124d5565b5b828203905092915050565b60006123e28261241a565b9050919050565b60006123f48261241a565b9050919050565b60008115159050919050565b6000819050612415826126f9565b919050565b600073ffffffffffffffffffffffffffffffffffffffff82169050919050565b6000819050919050565b600061244f82612468565b9050919050565b600061246182612407565b9050919050565b60006124738261247a565b9050919050565b60006124858261241a565b9050919050565b60006124978261243a565b91507fffffffffffffffffffffffffffffffffffffffffffffffffffffffffffffffff8214156124ca576124c96124d5565b5b600182019050919050565b7f4e487b7100000000000000000000000000000000000000000000000000000000600052601160045260246000fd5b7f4e487b7100000000000000000000000000000000000000000000000000000000600052601260045260246000fd5b7f4e487b7100000000000000000000000000000000000000000000000000000000600052602160045260246000fd5b7f496e76616c696420616464726573730000000000000000000000000000000000600082015250565b7f4974656d206e6f74206f6e2073616c6500000000000000000000000000000000600082015250565b7f4f6e6c792073656c6c65722063616e2063616e63656c206c697374696e670000600082015250565b7f4974656d206e6f206c6f6e676572206f6e2073616c6500000000000000000000600082015250565b7f506c65617365207375626d6974207468652061736b696e67207072696365206960008201527f6e206f7264657220746f20636f6d706c65746520746865207075726368617365602082015250565b7f496e76616c6964207065726d697373696f6e0000000000000000000000000000600082015250565b7f496e76616c6964207465616d2061646472657373000000000000000000000000600082015250565b7f5265656e7472616e637947756172643a207265656e7472616e742063616c6c00600082015250565b7f5072696365206d757374206265206174206c6561737420312077656900000000600082015250565b6003811061270a57612709612533565b5b50565b612716816123d7565b811461272157600080fd5b50565b61272d8161243a565b811461273857600080fd5b5056fea2646970667358221220f494d636cf4c03aab3f1cc0834317ee931476cbb26a060c024ba68da46f2e43f64736f6c63430008040033",
  "immutableReferences": {},
  "source": "// SPDX-License-Identifier: GPL-3.0 License\n\npragma solidity ^0.8.0;\n\nimport \"../../common/ownership/Ownable.sol\";\nimport \"../../common/security/ReentrancyGuard.sol\";\nimport \"../../common/utils/Counters.sol\";\n\ninterface IERC721 {\n\tfunction safeTransferFrom(\n\t\taddress from,\n\t\taddress to,\n\t\tuint256 tokenId\n\t) external;\n}\n\ncontract MainnetMarketplace is Ownable, ReentrancyGuard {\n    using Counters for Counters.Counter;\n    Counters.Counter private _itemIds;\n    Counters.Counter private _itemsSold;\n    Counters.Counter private _itemsCancelled;\n\n    /*\n     * @dev Maps listing id to listed item\n     */\n    mapping(uint256 => ListingData) private _idToListedItem;\n\n    /************* Fees ****************/\n    uint256 public teamFee = 1;\n    address payable private _teamAddress;\n\n    enum ListingStatus {\n        Active,\n        Sold,\n        Cancelled\n    }\n\n    struct ListingData {\n        uint256 listingId;\n        uint256 tokenId;\n        address nftContract;\n        address payable seller;\n        uint256 price;\n        ListingStatus status;\n    }\n\n    event ItemListed(\n        uint256 indexed listingId,\n        uint256 indexed tokenId,\n        address indexed nftContract,\n        address seller,\n        uint256 price\n    );\n\n    event ItemSold(\n        uint256 indexed listingId,\n        uint256 indexed tokenId,\n        address indexed nftContract,\n        address seller,\n        address buyer,\n        uint256 price\n    );\n\n    event ItemCancelled(uint256 listingId, address seller);\n\n    /**\n     * @dev Function to change fees in case adjustments are needed or for special events\n     */\n    function setTeamFee(uint256 _teamFee) external onlyOwner {\n        teamFee = _teamFee;\n    }\n\n    /**\n     * @dev Change addresses where fees are deposited\n     */\n    function setFeeAccounts(address teamAddress) external onlyOwner {\n        require(teamAddress != address(0), \"Invalid team address\");\n        _teamAddress = payable(teamAddress);\n    }\n\n    /**************************** View Functions ********************************************************/\n\n    function geListedItem(uint256 listingId) external view returns (ListingData memory) {\n        return _idToListedItem[listingId];\n    }\n\n    function getActiveListingsForAddress(address sellerAddress) external view returns (ListingData[] memory) {\n        uint256 totalItemCount = _itemIds.current();\n        uint256 itemCount = 0;\n        uint256 currentIndex = 0;\n\n        for (uint256 i = 1; i <= totalItemCount; i++) {\n            if (_idToListedItem[i].seller == sellerAddress && _idToListedItem[i].status == ListingStatus.Active) {\n                itemCount += 1;\n            }\n        }\n\n        ListingData[] memory items = new ListingData[](itemCount);\n        for (uint256 i = 1; i <= totalItemCount; i++) {\n            if (_idToListedItem[i].seller == sellerAddress && _idToListedItem[i].status == ListingStatus.Active) {\n                uint256 currentId = _idToListedItem[i].listingId;\n                ListingData storage currentItem = _idToListedItem[currentId];\n                items[currentIndex] = currentItem;\n                currentIndex += 1;\n            }\n        }\n        return items;\n    }\n\n    function fetchMarketItems() external view returns (ListingData[] memory) {\n        uint256 itemCount = _itemIds.current();\n        uint256 unsoldItemCount = _itemIds.current() - _itemsSold.current() - _itemsCancelled.current();\n        uint256 currentIndex = 0;\n\n        ListingData[] memory items = new ListingData[](unsoldItemCount);\n        for (uint256 i = 1; i <= itemCount; i++) {\n            if (_idToListedItem[i].status == ListingStatus.Active) {\n                uint256 currentId = _idToListedItem[i].listingId;\n                ListingData storage currentItem = _idToListedItem[currentId];\n                items[currentIndex] = currentItem;\n                currentIndex += 1;\n            }\n        }\n\n        return items;\n    }\n\n    /**************************** External Functions ********************************************************/\n\n    function listToken(\n        address nftContract,\n        uint256 tokenId,\n        uint256 price\n    ) external payable nonReentrant {\n        require(price > 0, \"Price must be at least 1 wei\");\n\n        _itemIds.increment();\n        uint256 listingId = _itemIds.current();\n\n        _idToListedItem[listingId] = ListingData(\n            listingId,\n            tokenId,\n            nftContract,\n            payable(msg.sender),\n            price,\n            ListingStatus.Active\n        );\n\n        IERC721(nftContract).safeTransferFrom(msg.sender, address(this), tokenId);\n\n        emit ItemListed(listingId, tokenId, nftContract, msg.sender, price);\n    }\n\n    function buyListedToken(address nftContract, uint256 listingId) external payable nonReentrant {\n        ListingData storage listedItem = _idToListedItem[listingId];\n        uint256 price = listedItem.price;\n        uint256 tokenId = listedItem.tokenId;\n\n        require(msg.value == price, \"Please submit the asking price in order to complete the purchase\");\n        require(listedItem.status == ListingStatus.Active, \"Item no longer on sale\");\n\n        // State changes\n        _idToListedItem[listingId].status = ListingStatus.Sold;\n        _itemsSold.increment();\n\n        // Transfer money charging 5% fees: 4% to rewards treasury and 1% to team.\n        uint256 teamFeeCharge = (price * teamFee) / 100;\n        listedItem.seller.transfer(msg.value - teamFeeCharge);\n        _teamAddress.transfer(teamFeeCharge);\n\n        // Transfer NFT ownership\n        IERC721(nftContract).safeTransferFrom(address(this), msg.sender, tokenId);\n\n        emit ItemSold(listingId, tokenId, nftContract, listedItem.seller, msg.sender, price);\n    }\n\n    function cancelListing(uint256 listingId) external nonReentrant {\n        ListingData storage listedItem = _idToListedItem[listingId];\n\n        require(msg.sender == listedItem.seller, \"Only seller can cancel listing\");\n        require(listedItem.status == ListingStatus.Active, \"Item not on sale\");\n\n        listedItem.status = ListingStatus.Cancelled;\n        _itemsCancelled.increment();\n\n        IERC721(listedItem.nftContract).safeTransferFrom(address(this), msg.sender, listedItem.tokenId);\n\n        emit ItemCancelled(listingId, listedItem.seller);\n    }\n}\n",
  "sourcePath": "/usr/src/app/contractGetter/contracts/mainnet/marketplace/MainnetMarketplace.sol",
  "compiler": {
    "name": "solc",
    "version": "0.8.4+commit.c7e474f2.Emscripten.clang"
  },
  "schemaVersion": "3.4.1",
  "updatedAt": "2022-06-25T22:06:52.399Z",
  "networkType": "ethereum",
  "devdoc": {
    "kind": "dev",
    "methods": {
      "isOwner()": {
        "returns": {
          "_0": "true if `msg.sender` is the owner of the contract."
        }
      },
      "owner()": {
        "returns": {
          "_0": "the address of the owner."
        }
      },
      "renounceOwnership()": {
        "details": "Allows the current owner to relinquish control of the contract."
      },
      "setFeeAccounts(address)": {
        "details": "Change addresses where fees are deposited"
      },
      "setTeamFee(uint256)": {
        "details": "Function to change fees in case adjustments are needed or for special events"
      },
      "transferOwnership(address)": {
        "details": "Allows the current owner to transfer control of the contract to a newOwner.",
        "params": {
          "newOwner": "The address to transfer ownership to."
        }
      }
    },
    "version": 1
  },
  "userdoc": {
    "kind": "user",
    "methods": {
      "renounceOwnership()": {
        "notice": "Renouncing to ownership will leave the contract without an owner. It will not be possible to call the functions with the `onlyOwner` modifier anymore."
      }
    },
    "version": 1
  }
}