{
  "contractName": "MainnetDragonApi",
  "abi": [
    {
      "inputs": [
        {
          "internalType": "address",
          "name": "dragonAddress",
          "type": "address"
        },
        {
          "internalType": "address",
          "name": "genesLaboratory",
          "type": "address"
        },
        {
          "internalType": "address",
          "name": "marketplaceAddress",
          "type": "address"
        }
      ],
      "stateMutability": "nonpayable",
      "type": "constructor"
    },
    {
      "anonymous": false,
      "inputs": [
        {
          "indexed": true,
          "internalType": "address",
          "name": "previousOwner",
          "type": "address"
        },
        {
          "indexed": true,
          "internalType": "address",
          "name": "newOwner",
          "type": "address"
        }
      ],
      "name": "OwnershipTransferred",
      "type": "event"
    },
    {
      "inputs": [
        {
          "internalType": "uint256",
          "name": "dragonId",
          "type": "uint256"
        }
      ],
      "name": "getDragonById",
      "outputs": [
        {
          "components": [
            {
              "internalType": "bytes32",
              "name": "genes",
              "type": "bytes32"
            },
            {
              "internalType": "bytes32",
              "name": "name",
              "type": "bytes32"
            },
            {
              "internalType": "uint64",
              "name": "creationTime",
              "type": "uint64"
            },
            {
              "internalType": "uint32",
              "name": "dadId",
              "type": "uint32"
            },
            {
              "internalType": "uint32",
              "name": "motherId",
              "type": "uint32"
            },
            {
              "internalType": "uint32",
              "name": "currentExperience",
              "type": "uint32"
            },
            {
              "internalType": "uint16",
              "name": "actionCooldown",
              "type": "uint16"
            },
            {
              "internalType": "uint16",
              "name": "health",
              "type": "uint16"
            },
            {
              "internalType": "uint16",
              "name": "strength",
              "type": "uint16"
            },
            {
              "internalType": "uint16",
              "name": "agility",
              "type": "uint16"
            },
            {
              "internalType": "uint16",
              "name": "fortitude",
              "type": "uint16"
            },
            {
              "internalType": "uint16",
              "name": "hatchTime",
              "type": "uint16"
            },
            {
              "internalType": "uint8",
              "name": "blockchainOriginId",
              "type": "uint8"
            }
          ],
          "internalType": "struct DragonLibrary.Dragon",
          "name": "",
          "type": "tuple"
        }
      ],
      "stateMutability": "view",
      "type": "function",
      "constant": true
    },
    {
      "inputs": [
        {
          "internalType": "address",
          "name": "owner",
          "type": "address"
        }
      ],
      "name": "getDragonsCountByOwner",
      "outputs": [
        {
          "internalType": "uint256",
          "name": "",
          "type": "uint256"
        }
      ],
      "stateMutability": "view",
      "type": "function",
      "constant": true
    },
    {
      "inputs": [
        {
          "internalType": "address",
          "name": "owner",
          "type": "address"
        }
      ],
      "name": "getDragonsIdsByOwner",
      "outputs": [
        {
          "internalType": "uint256[]",
          "name": "",
          "type": "uint256[]"
        }
      ],
      "stateMutability": "view",
      "type": "function",
      "constant": true
    },
    {
      "inputs": [
        {
          "internalType": "uint256",
          "name": "dragonId",
          "type": "uint256"
        }
      ],
      "name": "getVisualAttributes",
      "outputs": [
        {
          "internalType": "uint16",
          "name": "head",
          "type": "uint16"
        },
        {
          "internalType": "uint16",
          "name": "body",
          "type": "uint16"
        },
        {
          "internalType": "uint16",
          "name": "wings",
          "type": "uint16"
        }
      ],
      "stateMutability": "view",
      "type": "function",
      "constant": true
    },
    {
      "inputs": [
        {
          "internalType": "uint256",
          "name": "dragonId",
          "type": "uint256"
        }
      ],
      "name": "isEgg",
      "outputs": [
        {
          "internalType": "bool",
          "name": "",
          "type": "bool"
        }
      ],
      "stateMutability": "view",
      "type": "function",
      "constant": true
    },
    {
      "inputs": [],
      "name": "isOwner",
      "outputs": [
        {
          "internalType": "bool",
          "name": "",
          "type": "bool"
        }
      ],
      "stateMutability": "view",
      "type": "function",
      "constant": true
    },
    {
      "inputs": [],
      "name": "owner",
      "outputs": [
        {
          "internalType": "address",
          "name": "",
          "type": "address"
        }
      ],
      "stateMutability": "view",
      "type": "function",
      "constant": true
    },
    {
      "inputs": [],
      "name": "renounceOwnership",
      "outputs": [],
      "stateMutability": "nonpayable",
      "type": "function"
    },
    {
      "inputs": [
        {
          "internalType": "address",
          "name": "newOwner",
          "type": "address"
        }
      ],
      "name": "transferOwnership",
      "outputs": [],
      "stateMutability": "nonpayable",
      "type": "function"
    },
    {
      "inputs": [
        {
          "internalType": "address",
          "name": "marketplaceAddress",
          "type": "address"
        }
      ],
      "name": "setMarketplace",
      "outputs": [],
      "stateMutability": "nonpayable",
      "type": "function"
    },
    {
      "inputs": [
        {
          "internalType": "uint256",
          "name": "tokenId",
          "type": "uint256"
        },
        {
          "internalType": "string",
          "name": "title",
          "type": "string"
        },
        {
          "internalType": "string",
          "name": "description",
          "type": "string"
        },
        {
          "internalType": "uint256",
          "name": "price",
          "type": "uint256"
        }
      ],
      "name": "publishDragon",
      "outputs": [],
      "stateMutability": "nonpayable",
      "type": "function"
    }
  ],
  "bytecode": "0x60806040523480156200001157600080fd5b50604051620023e6380380620023e6833981810160405281019062000037919062000334565b8282600073ffffffffffffffffffffffffffffffffffffffff168273ffffffffffffffffffffffffffffffffffffffff161415620000ac576040517f08c379a0000000000000000000000000000000000000000000000000000000008152600401620000a390620003ff565b60405180910390fd5b600073ffffffffffffffffffffffffffffffffffffffff168173ffffffffffffffffffffffffffffffffffffffff1614156200011f576040517f08c379a0000000000000000000000000000000000000000000000000000000008152600401620001169062000421565b60405180910390fd5b816000806101000a81548173ffffffffffffffffffffffffffffffffffffffff021916908373ffffffffffffffffffffffffffffffffffffffff16021790555080600160006101000a81548173ffffffffffffffffffffffffffffffffffffffff021916908373ffffffffffffffffffffffffffffffffffffffff160217905550505033600260006101000a81548173ffffffffffffffffffffffffffffffffffffffff021916908373ffffffffffffffffffffffffffffffffffffffff160217905550600260009054906101000a900473ffffffffffffffffffffffffffffffffffffffff1673ffffffffffffffffffffffffffffffffffffffff16600073ffffffffffffffffffffffffffffffffffffffff167f8be0079c531659141344cd1fd0a4f28419497f9722a3daafe3b4186f6b6457e060405160405180910390a3600073ffffffffffffffffffffffffffffffffffffffff168173ffffffffffffffffffffffffffffffffffffffff161415620002d3576040517f08c379a0000000000000000000000000000000000000000000000000000000008152600401620002ca9062000443565b60405180910390fd5b80600360006101000a81548173ffffffffffffffffffffffffffffffffffffffff021916908373ffffffffffffffffffffffffffffffffffffffff1602179055505050506200053f565b6000815190506200032e8162000525565b92915050565b6000806000606084860312156200034a57600080fd5b60006200035a868287016200031d565b93505060206200036d868287016200031d565b925050604062000380868287016200031d565b9150509250925092565b60006200039960168362000465565b9150620003a682620004aa565b602082019050919050565b6000620003c060208362000465565b9150620003cd82620004d3565b602082019050919050565b6000620003e7601b8362000465565b9150620003f482620004fc565b602082019050919050565b600060208201905081810360008301526200041a816200038a565b9050919050565b600060208201905081810360008301526200043c81620003b1565b9050919050565b600060208201905081810360008301526200045e81620003d8565b9050919050565b600082825260208201905092915050565b600062000483826200048a565b9050919050565b600073ffffffffffffffffffffffffffffffffffffffff82169050919050565b7f496e76616c696420647261676f6e206164647265737300000000000000000000600082015250565b7f496e76616c69642067656e6573206c61626f7261746f72792061646472657373600082015250565b7f496e76616c6964206d61726b6574706c61636520616464726573730000000000600082015250565b620005308162000476565b81146200053c57600080fd5b50565b611e97806200054f6000396000f3fe608060405234801561001057600080fd5b50600436106100a95760003560e01c80638f32d59b116100715780638f32d59b14610154578063c9cf557014610172578063d297a685146101a2578063d9b6e2f7146101be578063dfd4e4a4146101ee578063f2fde38b1461021e576100a9565b80630469e8ac146100ae5780632014a8be146100de578063715018a61461011057806373ad6c2d1461011a5780638da5cb5b14610136575b600080fd5b6100c860048036038101906100c391906112da565b61023a565b6040516100d5919061181e565b60405180910390f35b6100f860048036038101906100f391906113a5565b61045c565b60405161010793929190611972565b60405180910390f35b6101186105d1565b005b610134600480360381019061012f91906112da565b6106d9565b005b61013e6107d4565b60405161014b91906117da565b60405180910390f35b61015c6107fe565b6040516101699190611840565b60405180910390f35b61018c600480360381019061018791906113a5565b610856565b6040516101999190611956565b60405180910390f35b6101bc60048036038101906101b791906113f7565b61090f565b005b6101d860048036038101906101d391906112da565b610cd6565b6040516101e591906119a9565b60405180910390f35b610208600480360381019061020391906113a5565b610d89565b6040516102159190611840565b60405180910390f35b610238600480360381019061023391906112da565b610e77565b005b606060008060009054906101000a900473ffffffffffffffffffffffffffffffffffffffff16905060008173ffffffffffffffffffffffffffffffffffffffff166370a08231856040518263ffffffff1660e01b815260040161029d91906117da565b60206040518083038186803b1580156102b557600080fd5b505afa1580156102c9573d6000803e3d6000fd5b505050506040513d601f19601f820116820180604052508101906102ed91906113ce565b905060008167ffffffffffffffff811115610331577f4e487b7100000000000000000000000000000000000000000000000000000000600052604160045260246000fd5b60405190808252806020026020018201604052801561035f5781602001602082028036833780820191505090505b50905060005b82811015610450578373ffffffffffffffffffffffffffffffffffffffff16632f745c5987836040518363ffffffff1660e01b81526004016103a89291906117f5565b60206040518083038186803b1580156103c057600080fd5b505afa1580156103d4573d6000803e3d6000fd5b505050506040513d601f19601f820116820180604052508101906103f891906113ce565b828281518110610431577f4e487b7100000000000000000000000000000000000000000000000000000000600052603260045260246000fd5b602002602001018181525050808061044890611be9565b915050610365565b50809350505050919050565b60008060008060008054906101000a900473ffffffffffffffffffffffffffffffffffffffff1673ffffffffffffffffffffffffffffffffffffffff1663c9cf5570866040518263ffffffff1660e01b81526004016104bb91906119a9565b6101a06040518083038186803b1580156104d457600080fd5b505afa1580156104e8573d6000803e3d6000fd5b505050506040513d601f19601f8201168201806040525081019061050c919061132c565b9050600160009054906101000a900473ffffffffffffffffffffffffffffffffffffffff1673ffffffffffffffffffffffffffffffffffffffff166391926cff82600001516040518263ffffffff1660e01b815260040161056d919061185b565b60606040518083038186803b15801561058557600080fd5b505afa158015610599573d6000803e3d6000fd5b505050506040513d601f19601f820116820180604052508101906105bd9190611356565b809450819550829650505050509193909250565b6105d96107fe565b610618576040517f08c379a000000000000000000000000000000000000000000000000000000000815260040161060f90611936565b60405180910390fd5b600073ffffffffffffffffffffffffffffffffffffffff16600260009054906101000a900473ffffffffffffffffffffffffffffffffffffffff1673ffffffffffffffffffffffffffffffffffffffff167f8be0079c531659141344cd1fd0a4f28419497f9722a3daafe3b4186f6b6457e060405160405180910390a36000600260006101000a81548173ffffffffffffffffffffffffffffffffffffffff021916908373ffffffffffffffffffffffffffffffffffffffff160217905550565b6106e16107fe565b610720576040517f08c379a000000000000000000000000000000000000000000000000000000000815260040161071790611936565b60405180910390fd5b600073ffffffffffffffffffffffffffffffffffffffff168173ffffffffffffffffffffffffffffffffffffffff161415610790576040517f08c379a000000000000000000000000000000000000000000000000000000000815260040161078790611876565b60405180910390fd5b80600360006101000a81548173ffffffffffffffffffffffffffffffffffffffff021916908373ffffffffffffffffffffffffffffffffffffffff16021790555050565b6000600260009054906101000a900473ffffffffffffffffffffffffffffffffffffffff16905090565b6000600260009054906101000a900473ffffffffffffffffffffffffffffffffffffffff1673ffffffffffffffffffffffffffffffffffffffff163373ffffffffffffffffffffffffffffffffffffffff1614905090565b61085e610ffa565b60008054906101000a900473ffffffffffffffffffffffffffffffffffffffff1673ffffffffffffffffffffffffffffffffffffffff1663c9cf5570836040518263ffffffff1660e01b81526004016108b791906119a9565b6101a06040518083038186803b1580156108d057600080fd5b505afa1580156108e4573d6000803e3d6000fd5b505050506040513d601f19601f82011682018060405250810190610908919061132c565b9050919050565b853373ffffffffffffffffffffffffffffffffffffffff1660008054906101000a900473ffffffffffffffffffffffffffffffffffffffff1673ffffffffffffffffffffffffffffffffffffffff16636352211e836040518263ffffffff1660e01b815260040161098091906119a9565b60206040518083038186803b15801561099857600080fd5b505afa1580156109ac573d6000803e3d6000fd5b505050506040513d601f19601f820116820180604052508101906109d09190611303565b73ffffffffffffffffffffffffffffffffffffffff1614610a26576040517f08c379a0000000000000000000000000000000000000000000000000000000008152600401610a1d90611916565b60405180910390fd5b600073ffffffffffffffffffffffffffffffffffffffff16600360009054906101000a900473ffffffffffffffffffffffffffffffffffffffff1673ffffffffffffffffffffffffffffffffffffffff161415610ab8576040517f08c379a0000000000000000000000000000000000000000000000000000000008152600401610aaf906118b6565b60405180910390fd5b60008686905011610afe576040517f08c379a0000000000000000000000000000000000000000000000000000000008152600401610af5906118f6565b60405180910390fd5b60008484905011610b44576040517f08c379a0000000000000000000000000000000000000000000000000000000008152600401610b3b90611896565b60405180910390fd5b60008211610b87576040517f08c379a0000000000000000000000000000000000000000000000000000000008152600401610b7e906118d6565b60405180910390fd5b60008054906101000a900473ffffffffffffffffffffffffffffffffffffffff1673ffffffffffffffffffffffffffffffffffffffff1663095ea7b3600360009054906101000a900473ffffffffffffffffffffffffffffffffffffffff16896040518363ffffffff1660e01b8152600401610c049291906117f5565b600060405180830381600087803b158015610c1e57600080fd5b505af1158015610c32573d6000803e3d6000fd5b50505050600360009054906101000a900473ffffffffffffffffffffffffffffffffffffffff1673ffffffffffffffffffffffffffffffffffffffff166361f428b08888888888886040518763ffffffff1660e01b8152600401610c9b969594939291906119c4565b600060405180830381600087803b158015610cb557600080fd5b505af1158015610cc9573d6000803e3d6000fd5b5050505050505050505050565b60008060009054906101000a900473ffffffffffffffffffffffffffffffffffffffff1673ffffffffffffffffffffffffffffffffffffffff166370a08231836040518263ffffffff1660e01b8152600401610d3291906117da565b60206040518083038186803b158015610d4a57600080fd5b505afa158015610d5e573d6000803e3d6000fd5b505050506040513d601f19601f82011682018060405250810190610d8291906113ce565b9050919050565b60008060008054906101000a900473ffffffffffffffffffffffffffffffffffffffff1673ffffffffffffffffffffffffffffffffffffffff1663c9cf5570846040518263ffffffff1660e01b8152600401610de591906119a9565b6101a06040518083038186803b158015610dfe57600080fd5b505afa158015610e12573d6000803e3d6000fd5b505050506040513d601f19601f82011682018060405250810190610e36919061132c565b90506000603c826040015167ffffffffffffffff1642610e569190611ae4565b610e609190611a8a565b905081610160015161ffff16811092505050919050565b610e7f6107fe565b610ebe576040517f08c379a0000000000000000000000000000000000000000000000000000000008152600401610eb590611936565b60405180910390fd5b610ec781610eca565b50565b600073ffffffffffffffffffffffffffffffffffffffff168173ffffffffffffffffffffffffffffffffffffffff161415610f3a576040517f08c379a0000000000000000000000000000000000000000000000000000000008152600401610f3190611876565b60405180910390fd5b8073ffffffffffffffffffffffffffffffffffffffff16600260009054906101000a900473ffffffffffffffffffffffffffffffffffffffff1673ffffffffffffffffffffffffffffffffffffffff167f8be0079c531659141344cd1fd0a4f28419497f9722a3daafe3b4186f6b6457e060405160405180910390a380600260006101000a81548173ffffffffffffffffffffffffffffffffffffffff021916908373ffffffffffffffffffffffffffffffffffffffff16021790555050565b604051806101a001604052806000801916815260200160008019168152602001600067ffffffffffffffff168152602001600063ffffffff168152602001600063ffffffff168152602001600063ffffffff168152602001600061ffff168152602001600061ffff168152602001600061ffff168152602001600061ffff168152602001600061ffff168152602001600061ffff168152602001600060ff1681525090565b6000813590506110ae81611dc0565b92915050565b6000815190506110c381611dc0565b92915050565b6000815190506110d881611dd7565b92915050565b60008083601f8401126110f057600080fd5b8235905067ffffffffffffffff81111561110957600080fd5b60208301915083600182028301111561112157600080fd5b9250929050565b60006101a0828403121561113b57600080fd5b6111466101a0611a1b565b90506000611156848285016110c9565b600083015250602061116a848285016110c9565b602083015250604061117e848285016112b0565b60408301525060606111928482850161129b565b60608301525060806111a68482850161129b565b60808301525060a06111ba8482850161129b565b60a08301525060c06111ce8482850161125c565b60c08301525060e06111e28482850161125c565b60e0830152506101006111f78482850161125c565b6101008301525061012061120d8482850161125c565b610120830152506101406112238482850161125c565b610140830152506101606112398482850161125c565b6101608301525061018061124f848285016112c5565b6101808301525092915050565b60008151905061126b81611dee565b92915050565b60008135905061128081611e05565b92915050565b60008151905061129581611e05565b92915050565b6000815190506112aa81611e1c565b92915050565b6000815190506112bf81611e33565b92915050565b6000815190506112d481611e4a565b92915050565b6000602082840312156112ec57600080fd5b60006112fa8482850161109f565b91505092915050565b60006020828403121561131557600080fd5b6000611323848285016110b4565b91505092915050565b60006101a0828403121561133f57600080fd5b600061134d84828501611128565b91505092915050565b60008060006060848603121561136b57600080fd5b60006113798682870161125c565b935050602061138a8682870161125c565b925050604061139b8682870161125c565b9150509250925092565b6000602082840312156113b757600080fd5b60006113c584828501611271565b91505092915050565b6000602082840312156113e057600080fd5b60006113ee84828501611286565b91505092915050565b6000806000806000806080878903121561141057600080fd5b600061141e89828a01611271565b965050602087013567ffffffffffffffff81111561143b57600080fd5b61144789828a016110de565b9550955050604087013567ffffffffffffffff81111561146657600080fd5b61147289828a016110de565b9350935050606061148589828a01611271565b9150509295509295509295565b600061149e838361178f565b60208301905092915050565b6114b381611b18565b82525050565b60006114c482611a50565b6114ce8185611a68565b93506114d983611a40565b8060005b8381101561150a5781516114f18882611492565b97506114fc83611a5b565b9250506001810190506114dd565b5085935050505092915050565b61152081611b2a565b82525050565b61152f81611b36565b82525050565b61153e81611b36565b82525050565b60006115508385611a79565b935061155d838584611ba9565b61156683611c90565b840190509392505050565b600061157e600f83611a79565b915061158982611ca1565b602082019050919050565b60006115a1601183611a79565b91506115ac82611cca565b602082019050919050565b60006115c4601783611a79565b91506115cf82611cf3565b602082019050919050565b60006115e7600b83611a79565b91506115f282611d1c565b602082019050919050565b600061160a600b83611a79565b915061161582611d45565b602082019050919050565b600061162d600983611a79565b915061163882611d6e565b602082019050919050565b6000611650601283611a79565b915061165b82611d97565b602082019050919050565b6101a08201600082015161167d6000850182611526565b5060208201516116906020850182611526565b5060408201516116a360408501826117bc565b5060608201516116b660608501826117ad565b5060808201516116c960808501826117ad565b5060a08201516116dc60a08501826117ad565b5060c08201516116ef60c0850182611771565b5060e082015161170260e0850182611771565b50610100820151611717610100850182611771565b5061012082015161172c610120850182611771565b50610140820151611741610140850182611771565b50610160820151611756610160850182611771565b5061018082015161176b6101808501826117cb565b50505050565b61177a81611b40565b82525050565b61178981611b40565b82525050565b61179881611b6e565b82525050565b6117a781611b6e565b82525050565b6117b681611b78565b82525050565b6117c581611b88565b82525050565b6117d481611b9c565b82525050565b60006020820190506117ef60008301846114aa565b92915050565b600060408201905061180a60008301856114aa565b611817602083018461179e565b9392505050565b6000602082019050818103600083015261183881846114b9565b905092915050565b60006020820190506118556000830184611517565b92915050565b60006020820190506118706000830184611535565b92915050565b6000602082019050818103600083015261188f81611571565b9050919050565b600060208201905081810360008301526118af81611594565b9050919050565b600060208201905081810360008301526118cf816115b7565b9050919050565b600060208201905081810360008301526118ef816115da565b9050919050565b6000602082019050818103600083015261190f816115fd565b9050919050565b6000602082019050818103600083015261192f81611620565b9050919050565b6000602082019050818103600083015261194f81611643565b9050919050565b60006101a08201905061196c6000830184611666565b92915050565b60006060820190506119876000830186611780565b6119946020830185611780565b6119a16040830184611780565b949350505050565b60006020820190506119be600083018461179e565b92915050565b60006080820190506119d9600083018961179e565b81810360208301526119ec818789611544565b90508181036040830152611a01818587611544565b9050611a10606083018461179e565b979650505050505050565b6000611a25611a36565b9050611a318282611bb8565b919050565b6000604051905090565b6000819050602082019050919050565b600081519050919050565b6000602082019050919050565b600082825260208201905092915050565b600082825260208201905092915050565b6000611a9582611b6e565b9150611aa083611b6e565b9250817fffffffffffffffffffffffffffffffffffffffffffffffffffffffffffffffff0483118215151615611ad957611ad8611c32565b5b828202905092915050565b6000611aef82611b6e565b9150611afa83611b6e565b925082821015611b0d57611b0c611c32565b5b828203905092915050565b6000611b2382611b4e565b9050919050565b60008115159050919050565b6000819050919050565b600061ffff82169050919050565b600073ffffffffffffffffffffffffffffffffffffffff82169050919050565b6000819050919050565b600063ffffffff82169050919050565b600067ffffffffffffffff82169050919050565b600060ff82169050919050565b82818337600083830152505050565b611bc182611c90565b810181811067ffffffffffffffff82111715611be057611bdf611c61565b5b80604052505050565b6000611bf482611b6e565b91507fffffffffffffffffffffffffffffffffffffffffffffffffffffffffffffffff821415611c2757611c26611c32565b5b600182019050919050565b7f4e487b7100000000000000000000000000000000000000000000000000000000600052601160045260246000fd5b7f4e487b7100000000000000000000000000000000000000000000000000000000600052604160045260246000fd5b6000601f19601f8301169050919050565b7f496e76616c696420616464726573730000000000000000000000000000000000600082015250565b7f456d707479206465736372697074696f6e000000000000000000000000000000600082015250565b7f556e617661696c61626c65206d61726b6574706c616365000000000000000000600082015250565b7f456d707479207072696365000000000000000000000000000000000000000000600082015250565b7f456d707479207469746c65000000000000000000000000000000000000000000600082015250565b7f4e6f74206f776e65720000000000000000000000000000000000000000000000600082015250565b7f496e76616c6964207065726d697373696f6e0000000000000000000000000000600082015250565b611dc981611b18565b8114611dd457600080fd5b50565b611de081611b36565b8114611deb57600080fd5b50565b611df781611b40565b8114611e0257600080fd5b50565b611e0e81611b6e565b8114611e1957600080fd5b50565b611e2581611b78565b8114611e3057600080fd5b50565b611e3c81611b88565b8114611e4757600080fd5b50565b611e5381611b9c565b8114611e5e57600080fd5b5056fea2646970667358221220028c0eb6b1d1768e62832fb90857cba339c7f718a4597f5b05928deb644a986464736f6c63430008040033",
  "immutableReferences": {},
  "source": "// SPDX-License-Identifier: GPL-3.0 License\n\npragma solidity ^0.8.0;\n\nimport './DragonApi.sol';\nimport '../common/ownership/Ownable.sol';\n\ninterface IMarketplace {\n\tfunction createSellOrder(\n\t\tuint256 dragonId,\n\t\tstring calldata title,\n\t\tstring calldata description,\n\t\tuint256 price\n\t) external;\n}\n\ncontract MainnetDragonApi is DragonApi, Ownable {\n    address private _marketplaceAddress;\n\n    constructor(address dragonAddress, address genesLaboratory, address marketplaceAddress) DragonApi(dragonAddress, genesLaboratory)  {\n\t\trequire(marketplaceAddress != address(0), 'Invalid marketplace address');\n\t\t_marketplaceAddress = marketplaceAddress;\n\t}\n\n    /*******************************************************************************************\n        Modifiers\n    ********************************************************************************************/\n\t/**\n\t * @dev Throws if sender isn't the owner of the dragon in the parameter\n\t */\n\tmodifier onlyDragonOwner(uint256 _dragonId) {\n\t\trequire(IERC721Enumerable(_dragonAddress).ownerOf(_dragonId) == msg.sender, 'Not owner');\n\t\t_;\n\t}\n\n\t/*******************************************************************************************\n        Actions\n    ********************************************************************************************/\n    /**\n\t * @dev set marketplace contract address\n\t */\n    function setMarketplace(address marketplaceAddress) external onlyOwner {\n\t\trequire(marketplaceAddress != address(0), 'Invalid address');\n\t\t_marketplaceAddress = marketplaceAddress;\n\t}\n\n    /**\n\t * @dev Publish a dragon in the marketplace to be available for buyers\n\t */\n    function publishDragon(\n\t\tuint256 tokenId,\n\t\tstring calldata title,\n\t\tstring calldata description,\n\t\tuint256 price\n\t) external onlyDragonOwner(tokenId) {\n\t\trequire(_marketplaceAddress != address(0), 'Unavailable marketplace');\n\t\trequire(bytes(title).length > 0, 'Empty title');\n\t\trequire(bytes(description).length > 0, 'Empty description');\n\t\trequire(price > 0, 'Empty price');\n\n\t\t// Allow marketplace to transfer ownership\n\t\tIERC721Enumerable(_dragonAddress).approve(_marketplaceAddress, tokenId);\n\n\t\tIMarketplace(_marketplaceAddress).createSellOrder(tokenId, title, description, price);\n\t}\n}",
  "sourcePath": "/usr/src/app/contractGetter/contracts/public/MainnetDragonApi.sol",
  "compiler": {
    "name": "solc",
    "version": "0.8.4+commit.c7e474f2.Emscripten.clang"
  },
  "schemaVersion": "3.4.1",
  "updatedAt": "2022-01-03T21:24:05.638Z",
  "networkType": "ethereum",
  "devdoc": {
    "kind": "dev",
    "methods": {
      "getDragonById(uint256)": {
        "details": "Get dragon data by dragon id"
      },
      "getDragonsCountByOwner(address)": {
        "details": "Get amount of dragons owned by owner address"
      },
      "getDragonsIdsByOwner(address)": {
        "details": "Get all dragons ids owned by owner address"
      },
      "isEgg(uint256)": {
        "details": "return if dragon is in egg stage"
      },
      "isOwner()": {
        "returns": {
          "_0": "true if `msg.sender` is the owner of the contract."
        }
      },
      "owner()": {
        "returns": {
          "_0": "the address of the owner."
        }
      },
      "publishDragon(uint256,string,string,uint256)": {
        "details": "Publish a dragon in the marketplace to be available for buyers"
      },
      "renounceOwnership()": {
        "details": "Allows the current owner to relinquish control of the contract."
      },
      "setMarketplace(address)": {
        "details": "set marketplace contract address"
      },
      "transferOwnership(address)": {
        "details": "Allows the current owner to transfer control of the contract to a newOwner.",
        "params": {
          "newOwner": "The address to transfer ownership to."
        }
      }
    },
    "version": 1
  },
  "userdoc": {
    "kind": "user",
    "methods": {
      "renounceOwnership()": {
        "notice": "Renouncing to ownership will leave the contract without an owner. It will not be possible to call the functions with the `onlyOwner` modifier anymore."
      }
    },
    "version": 1
  }
}