{
  "contractName": "MainnetDragonApi",
  "abi": [
    {
      "inputs": [
        {
          "internalType": "address",
          "name": "dragonAddress",
          "type": "address"
        },
        {
          "internalType": "address",
          "name": "genesLaboratory",
          "type": "address"
        },
        {
          "internalType": "address",
          "name": "marketplaceAddress",
          "type": "address"
        }
      ],
      "stateMutability": "nonpayable",
      "type": "constructor"
    },
    {
      "inputs": [
        {
          "internalType": "uint256",
          "name": "dragonId",
          "type": "uint256"
        }
      ],
      "name": "getDragonById",
      "outputs": [
        {
          "components": [
            {
              "internalType": "bytes32",
              "name": "genes",
              "type": "bytes32"
            },
            {
              "internalType": "bytes32",
              "name": "name",
              "type": "bytes32"
            },
            {
              "internalType": "uint64",
              "name": "creationTime",
              "type": "uint64"
            },
            {
              "internalType": "uint32",
              "name": "dadId",
              "type": "uint32"
            },
            {
              "internalType": "uint32",
              "name": "motherId",
              "type": "uint32"
            },
            {
              "internalType": "uint32",
              "name": "currentExperience",
              "type": "uint32"
            },
            {
              "internalType": "uint16",
              "name": "actionCooldown",
              "type": "uint16"
            },
            {
              "internalType": "uint16",
              "name": "health",
              "type": "uint16"
            },
            {
              "internalType": "uint16",
              "name": "strength",
              "type": "uint16"
            },
            {
              "internalType": "uint16",
              "name": "agility",
              "type": "uint16"
            },
            {
              "internalType": "uint16",
              "name": "fortitude",
              "type": "uint16"
            },
            {
              "internalType": "uint16",
              "name": "hatchTime",
              "type": "uint16"
            },
            {
              "internalType": "uint8",
              "name": "blockchainOriginId",
              "type": "uint8"
            }
          ],
          "internalType": "struct DragonLibrary.Dragon",
          "name": "",
          "type": "tuple"
        }
      ],
      "stateMutability": "view",
      "type": "function"
    },
    {
      "inputs": [
        {
          "internalType": "uint256",
          "name": "pageNumber",
          "type": "uint256"
        },
        {
          "internalType": "uint256",
          "name": "pageSize",
          "type": "uint256"
        }
      ],
      "name": "getDragonsByPage",
      "outputs": [
        {
          "internalType": "uint256",
          "name": "totalPages",
          "type": "uint256"
        },
        {
          "components": [
            {
              "internalType": "uint256",
              "name": "dragonId",
              "type": "uint256"
            },
            {
              "internalType": "uint256",
              "name": "listedPrice",
              "type": "uint256"
            },
            {
              "internalType": "address",
              "name": "owner",
              "type": "address"
            },
            {
              "internalType": "bool",
              "name": "onSale",
              "type": "bool"
            }
          ],
          "internalType": "struct DragonLibrary.DragonFetchPageData[]",
          "name": "dragonPagesData",
          "type": "tuple[]"
        }
      ],
      "stateMutability": "view",
      "type": "function"
    },
    {
      "inputs": [
        {
          "internalType": "address",
          "name": "owner",
          "type": "address"
        }
      ],
      "name": "getDragonsCountByOwner",
      "outputs": [
        {
          "internalType": "uint256",
          "name": "",
          "type": "uint256"
        }
      ],
      "stateMutability": "view",
      "type": "function"
    },
    {
      "inputs": [
        {
          "internalType": "address",
          "name": "owner",
          "type": "address"
        }
      ],
      "name": "getDragonsIdsByOwner",
      "outputs": [
        {
          "internalType": "uint256[]",
          "name": "",
          "type": "uint256[]"
        }
      ],
      "stateMutability": "view",
      "type": "function"
    },
    {
      "inputs": [
        {
          "internalType": "uint256",
          "name": "dragonId",
          "type": "uint256"
        }
      ],
      "name": "getVisualAttributes",
      "outputs": [
        {
          "components": [
            {
              "internalType": "uint8",
              "name": "bodyType",
              "type": "uint8"
            },
            {
              "internalType": "uint8",
              "name": "bodyColor",
              "type": "uint8"
            },
            {
              "internalType": "uint8",
              "name": "bodyPatternType",
              "type": "uint8"
            },
            {
              "internalType": "uint8",
              "name": "bodyPatternColor",
              "type": "uint8"
            },
            {
              "internalType": "uint8",
              "name": "wingsType",
              "type": "uint8"
            },
            {
              "internalType": "uint8",
              "name": "wingsColor",
              "type": "uint8"
            },
            {
              "internalType": "uint8",
              "name": "hornsType",
              "type": "uint8"
            },
            {
              "internalType": "uint8",
              "name": "hornsColor",
              "type": "uint8"
            },
            {
              "internalType": "uint8",
              "name": "eyesType",
              "type": "uint8"
            },
            {
              "internalType": "uint8",
              "name": "eyesColor",
              "type": "uint8"
            },
            {
              "internalType": "uint8",
              "name": "tailType",
              "type": "uint8"
            },
            {
              "internalType": "uint8",
              "name": "tailColor",
              "type": "uint8"
            }
          ],
          "internalType": "struct DragonLibrary.DragonVisualAttributes",
          "name": "",
          "type": "tuple"
        }
      ],
      "stateMutability": "view",
      "type": "function"
    },
    {
      "inputs": [
        {
          "internalType": "uint256",
          "name": "dragonId",
          "type": "uint256"
        }
      ],
      "name": "isEgg",
      "outputs": [
        {
          "internalType": "bool",
          "name": "",
          "type": "bool"
        }
      ],
      "stateMutability": "view",
      "type": "function"
    },
    {
      "inputs": [
        {
          "internalType": "uint256",
          "name": "tokenId",
          "type": "uint256"
        },
        {
          "internalType": "uint256",
          "name": "price",
          "type": "uint256"
        }
      ],
      "name": "listToken",
      "outputs": [],
      "stateMutability": "payable",
      "type": "function"
    },
    {
      "inputs": [
        {
          "internalType": "uint256",
          "name": "tokenId",
          "type": "uint256"
        }
      ],
      "name": "cancelListing",
      "outputs": [],
      "stateMutability": "nonpayable",
      "type": "function"
    }
  ],
  "bytecode": "0x60806040523480156200001157600080fd5b506040516200240f3803806200240f833981810160405281019062000037919062000276565b8282600073ffffffffffffffffffffffffffffffffffffffff168273ffffffffffffffffffffffffffffffffffffffff161415620000ac576040517f08c379a0000000000000000000000000000000000000000000000000000000008152600401620000a39062000341565b60405180910390fd5b600073ffffffffffffffffffffffffffffffffffffffff168173ffffffffffffffffffffffffffffffffffffffff1614156200011f576040517f08c379a0000000000000000000000000000000000000000000000000000000008152600401620001169062000363565b60405180910390fd5b816000806101000a81548173ffffffffffffffffffffffffffffffffffffffff021916908373ffffffffffffffffffffffffffffffffffffffff16021790555080600160006101000a81548173ffffffffffffffffffffffffffffffffffffffff021916908373ffffffffffffffffffffffffffffffffffffffff1602179055505050600073ffffffffffffffffffffffffffffffffffffffff168273ffffffffffffffffffffffffffffffffffffffff16141562000215576040517f08c379a00000000000000000000000000000000000000000000000000000000081526004016200020c9062000385565b60405180910390fd5b80600260006101000a81548173ffffffffffffffffffffffffffffffffffffffff021916908373ffffffffffffffffffffffffffffffffffffffff16021790555050505062000481565b600081519050620002708162000467565b92915050565b6000806000606084860312156200028c57600080fd5b60006200029c868287016200025f565b9350506020620002af868287016200025f565b9250506040620002c2868287016200025f565b9150509250925092565b6000620002db601683620003a7565b9150620002e882620003ec565b602082019050919050565b600062000302602083620003a7565b91506200030f8262000415565b602082019050919050565b600062000329601b83620003a7565b915062000336826200043e565b602082019050919050565b600060208201905081810360008301526200035c81620002cc565b9050919050565b600060208201905081810360008301526200037e81620002f3565b9050919050565b60006020820190508181036000830152620003a0816200031a565b9050919050565b600082825260208201905092915050565b6000620003c582620003cc565b9050919050565b600073ffffffffffffffffffffffffffffffffffffffff82169050919050565b7f496e76616c696420647261676f6e206164647265737300000000000000000000600082015250565b7f496e76616c69642067656e6573206c61626f7261746f72792061646472657373600082015250565b7f496e76616c6964206d61726b6574706c61636520616464726573730000000000600082015250565b6200047281620003b8565b81146200047e57600080fd5b50565b611f7e80620004916000396000f3fe60806040526004361061007b5760003560e01c806375c1631d1161004e57806375c1631d14610161578063c9cf55701461017d578063d9b6e2f7146101ba578063dfd4e4a4146101f75761007b565b80630469e8ac146100805780632014a8be146100bd578063305a67a8146100fa5780637534de9f14610123575b600080fd5b34801561008c57600080fd5b506100a760048036038101906100a2919061132a565b610234565b6040516100b49190611974565b60405180910390f35b3480156100c957600080fd5b506100e460048036038101906100df919061140c565b610456565b6040516100f19190611a2c565b60405180910390f35b34801561010657600080fd5b50610121600480360381019061011c919061140c565b6105c5565b005b34801561012f57600080fd5b5061014a6004803603810190610145919061145e565b6106e9565b604051610158929190611a7f565b60405180910390f35b61017b6004803603810190610176919061145e565b610ad3565b005b34801561018957600080fd5b506101a4600480360381019061019f919061140c565b610b88565b6040516101b19190611a48565b60405180910390f35b3480156101c657600080fd5b506101e160048036038101906101dc919061132a565b610c41565b6040516101ee9190611a64565b60405180910390f35b34801561020357600080fd5b5061021e6004803603810190610219919061140c565b610cf4565b60405161022b9190611996565b60405180910390f35b606060008060009054906101000a900473ffffffffffffffffffffffffffffffffffffffff16905060008173ffffffffffffffffffffffffffffffffffffffff166370a08231856040518263ffffffff1660e01b815260040161029791906118f9565b60206040518083038186803b1580156102af57600080fd5b505afa1580156102c3573d6000803e3d6000fd5b505050506040513d601f19601f820116820180604052508101906102e79190611435565b905060008167ffffffffffffffff81111561032b577f4e487b7100000000000000000000000000000000000000000000000000000000600052604160045260246000fd5b6040519080825280602002602001820160405280156103595781602001602082028036833780820191505090505b50905060005b8281101561044a578373ffffffffffffffffffffffffffffffffffffffff16632f745c5987836040518363ffffffff1660e01b81526004016103a2929190611914565b60206040518083038186803b1580156103ba57600080fd5b505afa1580156103ce573d6000803e3d6000fd5b505050506040513d601f19601f820116820180604052508101906103f29190611435565b82828151811061042b577f4e487b7100000000000000000000000000000000000000000000000000000000600052603260045260246000fd5b602002602001018181525050808061044290611d2e565b91505061035f565b50809350505050919050565b61045e610e9c565b60008060009054906101000a900473ffffffffffffffffffffffffffffffffffffffff1673ffffffffffffffffffffffffffffffffffffffff1663c9cf5570846040518263ffffffff1660e01b81526004016104ba9190611a64565b6101a06040518083038186803b1580156104d357600080fd5b505afa1580156104e7573d6000803e3d6000fd5b505050506040513d601f19601f8201168201806040525081019061050b91906113e2565b9050600160009054906101000a900473ffffffffffffffffffffffffffffffffffffffff1673ffffffffffffffffffffffffffffffffffffffff166391926cff82600001516040518263ffffffff1660e01b815260040161056c91906119b1565b6101806040518083038186803b15801561058557600080fd5b505afa158015610599573d6000803e3d6000fd5b505050506040513d601f19601f820116820180604052508101906105bd91906113b8565b915050919050565b6000600260009054906101000a900473ffffffffffffffffffffffffffffffffffffffff16905060008173ffffffffffffffffffffffffffffffffffffffff16637519bea9846040518263ffffffff1660e01b81526004016106279190611a64565b60206040518083038186803b15801561063f57600080fd5b505afa158015610653573d6000803e3d6000fd5b505050506040513d601f19601f820116820180604052508101906106779190611435565b90508173ffffffffffffffffffffffffffffffffffffffff1663305a67a8826040518263ffffffff1660e01b81526004016106b29190611a64565b600060405180830381600087803b1580156106cc57600080fd5b505af11580156106e0573d6000803e3d6000fd5b50505050505050565b6000606060008411610730576040517f08c379a0000000000000000000000000000000000000000000000000000000008152600401610727906119cc565b60405180910390fd5b60008311610773576040517f08c379a000000000000000000000000000000000000000000000000000000000815260040161076a90611a0c565b60405180910390fd5b6000836001866107839190611c38565b61078d9190611bde565b905060008060009054906101000a900473ffffffffffffffffffffffffffffffffffffffff1673ffffffffffffffffffffffffffffffffffffffff166318160ddd6040518163ffffffff1660e01b815260040160206040518083038186803b1580156107f857600080fd5b505afa15801561080c573d6000803e3d6000fd5b505050506040513d601f19601f820116820180604052508101906108309190611435565b905080821115610875576040517f08c379a000000000000000000000000000000000000000000000000000000000815260040161086c906119ec565b60405180910390fd5b600085905082826108869190611c38565b81111561089c5782826108999190611c38565b90505b8067ffffffffffffffff8111156108dc577f4e487b7100000000000000000000000000000000000000000000000000000000600052604160045260246000fd5b60405190808252806020026020018201604052801561091557816020015b610902610f21565b8152602001906001900390816108fa5790505b50935060005b81811015610a8557600081856109319190611b57565b905060008060009054906101000a900473ffffffffffffffffffffffffffffffffffffffff1673ffffffffffffffffffffffffffffffffffffffff16636352211e836040518263ffffffff1660e01b815260040161098f9190611a64565b60206040518083038186803b1580156109a757600080fd5b505afa1580156109bb573d6000803e3d6000fd5b505050506040513d601f19601f820116820180604052508101906109df9190611353565b90506000806109ed84610de2565b9150915060405180608001604052808581526020018281526020018473ffffffffffffffffffffffffffffffffffffffff168152602001831515815250898681518110610a63577f4e487b7100000000000000000000000000000000000000000000000000000000600052603260045260246000fd5b6020026020010181905250505050508080610a7d90611d2e565b91505061091b565b5060008683610a949190611bad565b905060008782610aa49190611bde565b84610aaf9190611c38565b1115610ac557600181610ac29190611b57565b90505b809550505050509250929050565b600260009054906101000a900473ffffffffffffffffffffffffffffffffffffffff1673ffffffffffffffffffffffffffffffffffffffff16637e07590d60008054906101000a900473ffffffffffffffffffffffffffffffffffffffff1684846040518463ffffffff1660e01b8152600401610b529392919061193d565b600060405180830381600087803b158015610b6c57600080fd5b505af1158015610b80573d6000803e3d6000fd5b505050505050565b610b90610f61565b60008054906101000a900473ffffffffffffffffffffffffffffffffffffffff1673ffffffffffffffffffffffffffffffffffffffff1663c9cf5570836040518263ffffffff1660e01b8152600401610be99190611a64565b6101a06040518083038186803b158015610c0257600080fd5b505afa158015610c16573d6000803e3d6000fd5b505050506040513d601f19601f82011682018060405250810190610c3a91906113e2565b9050919050565b60008060009054906101000a900473ffffffffffffffffffffffffffffffffffffffff1673ffffffffffffffffffffffffffffffffffffffff166370a08231836040518263ffffffff1660e01b8152600401610c9d91906118f9565b60206040518083038186803b158015610cb557600080fd5b505afa158015610cc9573d6000803e3d6000fd5b505050506040513d601f19601f82011682018060405250810190610ced9190611435565b9050919050565b60008060008054906101000a900473ffffffffffffffffffffffffffffffffffffffff1673ffffffffffffffffffffffffffffffffffffffff1663c9cf5570846040518263ffffffff1660e01b8152600401610d509190611a64565b6101a06040518083038186803b158015610d6957600080fd5b505afa158015610d7d573d6000803e3d6000fd5b505050506040513d601f19601f82011682018060405250810190610da191906113e2565b90506000603c826040015167ffffffffffffffff1642610dc19190611c38565b610dcb9190611bde565b905081610160015161ffff16811092505050919050565b600080600260009054906101000a900473ffffffffffffffffffffffffffffffffffffffff1673ffffffffffffffffffffffffffffffffffffffff1663f0f2805f846040518263ffffffff1660e01b8152600401610e409190611a64565b604080518083038186803b158015610e5757600080fd5b505afa158015610e6b573d6000803e3d6000fd5b505050506040513d601f19601f82011682018060405250810190610e8f919061137c565b8092508193505050915091565b604051806101800160405280600060ff168152602001600060ff168152602001600060ff168152602001600060ff168152602001600060ff168152602001600060ff168152602001600060ff168152602001600060ff168152602001600060ff168152602001600060ff168152602001600060ff168152602001600060ff1681525090565b60405180608001604052806000815260200160008152602001600073ffffffffffffffffffffffffffffffffffffffff1681526020016000151581525090565b604051806101a001604052806000801916815260200160008019168152602001600067ffffffffffffffff168152602001600063ffffffff168152602001600063ffffffff168152602001600063ffffffff168152602001600061ffff168152602001600061ffff168152602001600061ffff168152602001600061ffff168152602001600061ffff168152602001600061ffff168152602001600060ff1681525090565b60008135905061101581611e90565b92915050565b60008151905061102a81611e90565b92915050565b60008151905061103f81611ea7565b92915050565b60008151905061105481611ebe565b92915050565b6000610180828403121561106d57600080fd5b611078610180611aaf565b9050600061108884828501611315565b600083015250602061109c84828501611315565b60208301525060406110b084828501611315565b60408301525060606110c484828501611315565b60608301525060806110d884828501611315565b60808301525060a06110ec84828501611315565b60a08301525060c061110084828501611315565b60c08301525060e061111484828501611315565b60e08301525061010061112984828501611315565b6101008301525061012061113f84828501611315565b6101208301525061014061115584828501611315565b6101408301525061016061116b84828501611315565b6101608301525092915050565b60006101a0828403121561118b57600080fd5b6111966101a0611aaf565b905060006111a684828501611045565b60008301525060206111ba84828501611045565b60208301525060406111ce84828501611300565b60408301525060606111e2848285016112eb565b60608301525060806111f6848285016112eb565b60808301525060a061120a848285016112eb565b60a08301525060c061121e848285016112ac565b60c08301525060e0611232848285016112ac565b60e083015250610100611247848285016112ac565b6101008301525061012061125d848285016112ac565b61012083015250610140611273848285016112ac565b61014083015250610160611289848285016112ac565b6101608301525061018061129f84828501611315565b6101808301525092915050565b6000815190506112bb81611ed5565b92915050565b6000813590506112d081611eec565b92915050565b6000815190506112e581611eec565b92915050565b6000815190506112fa81611f03565b92915050565b60008151905061130f81611f1a565b92915050565b60008151905061132481611f31565b92915050565b60006020828403121561133c57600080fd5b600061134a84828501611006565b91505092915050565b60006020828403121561136557600080fd5b60006113738482850161101b565b91505092915050565b6000806040838503121561138f57600080fd5b600061139d85828601611030565b92505060206113ae858286016112d6565b9150509250929050565b600061018082840312156113cb57600080fd5b60006113d98482850161105a565b91505092915050565b60006101a082840312156113f557600080fd5b600061140384828501611178565b91505092915050565b60006020828403121561141e57600080fd5b600061142c848285016112c1565b91505092915050565b60006020828403121561144757600080fd5b6000611455848285016112d6565b91505092915050565b6000806040838503121561147157600080fd5b600061147f858286016112c1565b9250506020611490858286016112c1565b9150509250929050565b60006114a68383611649565b60808301905092915050565b60006114be83836118ae565b60208301905092915050565b6114d381611c6c565b82525050565b6114e281611c6c565b82525050565b60006114f382611af4565b6114fd8185611b24565b935061150883611ad4565b8060005b83811015611539578151611520888261149a565b975061152b83611b0a565b92505060018101905061150c565b5085935050505092915050565b600061155182611aff565b61155b8185611b35565b935061156683611ae4565b8060005b8381101561159757815161157e88826114b2565b975061158983611b17565b92505060018101905061156a565b5085935050505092915050565b6115ad81611c7e565b82525050565b6115bc81611c7e565b82525050565b6115cb81611c8a565b82525050565b6115da81611c8a565b82525050565b60006115ed601983611b46565b91506115f882611e15565b602082019050919050565b6000611610601183611b46565b915061161b82611e3e565b602082019050919050565b6000611633601783611b46565b915061163e82611e67565b602082019050919050565b60808201600082015161165f60008501826118ae565b50602082015161167260208501826118ae565b50604082015161168560408501826114ca565b50606082015161169860608501826115a4565b50505050565b610180820160008201516116b560008501826118ea565b5060208201516116c860208501826118ea565b5060408201516116db60408501826118ea565b5060608201516116ee60608501826118ea565b50608082015161170160808501826118ea565b5060a082015161171460a08501826118ea565b5060c082015161172760c08501826118ea565b5060e082015161173a60e08501826118ea565b5061010082015161174f6101008501826118ea565b506101208201516117646101208501826118ea565b506101408201516117796101408501826118ea565b5061016082015161178e6101608501826118ea565b50505050565b6101a0820160008201516117ab60008501826115c2565b5060208201516117be60208501826115c2565b5060408201516117d160408501826118db565b5060608201516117e460608501826118cc565b5060808201516117f760808501826118cc565b5060a082015161180a60a08501826118cc565b5060c082015161181d60c085018261189f565b5060e082015161183060e085018261189f565b5061010082015161184561010085018261189f565b5061012082015161185a61012085018261189f565b5061014082015161186f61014085018261189f565b5061016082015161188461016085018261189f565b506101808201516118996101808501826118ea565b50505050565b6118a881611c94565b82525050565b6118b781611cc2565b82525050565b6118c681611cc2565b82525050565b6118d581611ccc565b82525050565b6118e481611cdc565b82525050565b6118f381611cf0565b82525050565b600060208201905061190e60008301846114d9565b92915050565b600060408201905061192960008301856114d9565b61193660208301846118bd565b9392505050565b600060608201905061195260008301866114d9565b61195f60208301856118bd565b61196c60408301846118bd565b949350505050565b6000602082019050818103600083015261198e8184611546565b905092915050565b60006020820190506119ab60008301846115b3565b92915050565b60006020820190506119c660008301846115d1565b92915050565b600060208201905081810360008301526119e5816115e0565b9050919050565b60006020820190508181036000830152611a0581611603565b9050919050565b60006020820190508181036000830152611a2581611626565b9050919050565b600061018082019050611a42600083018461169e565b92915050565b60006101a082019050611a5e6000830184611794565b92915050565b6000602082019050611a7960008301846118bd565b92915050565b6000604082019050611a9460008301856118bd565b8181036020830152611aa681846114e8565b90509392505050565b6000611ab9611aca565b9050611ac58282611cfd565b919050565b6000604051905090565b6000819050602082019050919050565b6000819050602082019050919050565b600081519050919050565b600081519050919050565b6000602082019050919050565b6000602082019050919050565b600082825260208201905092915050565b600082825260208201905092915050565b600082825260208201905092915050565b6000611b6282611cc2565b9150611b6d83611cc2565b9250827fffffffffffffffffffffffffffffffffffffffffffffffffffffffffffffffff03821115611ba257611ba1611d77565b5b828201905092915050565b6000611bb882611cc2565b9150611bc383611cc2565b925082611bd357611bd2611da6565b5b828204905092915050565b6000611be982611cc2565b9150611bf483611cc2565b9250817fffffffffffffffffffffffffffffffffffffffffffffffffffffffffffffffff0483118215151615611c2d57611c2c611d77565b5b828202905092915050565b6000611c4382611cc2565b9150611c4e83611cc2565b925082821015611c6157611c60611d77565b5b828203905092915050565b6000611c7782611ca2565b9050919050565b60008115159050919050565b6000819050919050565b600061ffff82169050919050565b600073ffffffffffffffffffffffffffffffffffffffff82169050919050565b6000819050919050565b600063ffffffff82169050919050565b600067ffffffffffffffff82169050919050565b600060ff82169050919050565b611d0682611e04565b810181811067ffffffffffffffff82111715611d2557611d24611dd5565b5b80604052505050565b6000611d3982611cc2565b91507fffffffffffffffffffffffffffffffffffffffffffffffffffffffffffffffff821415611d6c57611d6b611d77565b5b600182019050919050565b7f4e487b7100000000000000000000000000000000000000000000000000000000600052601160045260246000fd5b7f4e487b7100000000000000000000000000000000000000000000000000000000600052601260045260246000fd5b7f4e487b7100000000000000000000000000000000000000000000000000000000600052604160045260246000fd5b6000601f19601f8301169050919050565b7f706167654e756d6265722063616e6e6f74206265207a65726f00000000000000600082015250565b7f4f7574206f662072616e67652070616765000000000000000000000000000000600082015250565b7f7061676553697a652063616e6e6f74206265207a65726f000000000000000000600082015250565b611e9981611c6c565b8114611ea457600080fd5b50565b611eb081611c7e565b8114611ebb57600080fd5b50565b611ec781611c8a565b8114611ed257600080fd5b50565b611ede81611c94565b8114611ee957600080fd5b50565b611ef581611cc2565b8114611f0057600080fd5b50565b611f0c81611ccc565b8114611f1757600080fd5b50565b611f2381611cdc565b8114611f2e57600080fd5b50565b611f3a81611cf0565b8114611f4557600080fd5b5056fea2646970667358221220376efc595cf23dc4037b0a5657013ed9ab3597114a516c6665782f55921f830564736f6c63430008040033",
  "immutableReferences": {},
  "source": "// SPDX-License-Identifier: GPL-3.0 License\n\npragma solidity ^0.8.0;\n\nimport './DragonApi.sol';\n\ninterface IMarketplace {\n    function geListingId(uint256 tokenId) external view returns (uint256);\n    function isOnSale(uint256 tokenId) external view returns (bool onSale, uint256 price);\n    function listToken(\n        address nftContract,\n        uint256 tokenId,\n        uint256 price\n    ) external payable;\n    function cancelListing(uint256 listingId) external;\n}\n\ncontract MainnetDragonApi is DragonApi {\n\n    address private _marketplaceAddress;\n\n    constructor(address dragonAddress, address genesLaboratory, address marketplaceAddress) DragonApi(dragonAddress, genesLaboratory)  {\n        require(genesLaboratory != address(0), 'Invalid marketplace address');\n\t\t_marketplaceAddress = marketplaceAddress;\n\t}\n\n    function listToken(uint256 tokenId, uint256 price) external payable {\n        IMarketplace(_marketplaceAddress).listToken(_dragonAddress, tokenId, price);\n    }\n\n    function cancelListing(uint256 tokenId) external {\n        IMarketplace marketplace = IMarketplace(_marketplaceAddress);\n\t\tuint256 listingId = marketplace.geListingId(tokenId);\n        marketplace.cancelListing(listingId);\n\t}\n\n    function isDragonOnSale(uint256 tokenId) internal virtual override view returns (bool onSale, uint256 price) {\n\t\t(onSale, price) = IMarketplace(_marketplaceAddress).isOnSale(tokenId);\n\t}\n}",
  "sourcePath": "/usr/src/app/contractGetter/contracts/public/MainnetDragonApi.sol",
  "compiler": {
    "name": "solc",
    "version": "0.8.4+commit.c7e474f2.Emscripten.clang"
  },
  "schemaVersion": "3.4.1",
  "updatedAt": "2023-03-28T00:18:41.999Z",
  "networkType": "ethereum",
  "devdoc": {
    "kind": "dev",
    "methods": {
      "getDragonById(uint256)": {
        "details": "Get dragon data by dragon id"
      },
      "getDragonsByPage(uint256,uint256)": {
        "details": "Return dragons with pagination",
        "params": {
          "pageNumber": "page starting with value 1. Page 1 will return dragons with id 0 to pageSize",
          "pageSize": "amount of dragons that will be returned in each page"
        },
        "returns": {
          "dragonPagesData": "all dragon ids contain in the resulting page",
          "totalPages": "amount of pages that can be fetched"
        }
      },
      "getDragonsCountByOwner(address)": {
        "details": "Get amount of dragons owned by owner address"
      },
      "getDragonsIdsByOwner(address)": {
        "details": "Get all dragons ids owned by owner address"
      },
      "isEgg(uint256)": {
        "details": "return if dragon is in egg stage"
      }
    },
    "version": 1
  },
  "userdoc": {
    "kind": "user",
    "methods": {},
    "version": 1
  }
}