{
  "contractName": "MainnetMarketplace",
  "abi": [
    {
      "anonymous": false,
      "inputs": [
        {
          "indexed": false,
          "internalType": "uint256",
          "name": "listingId",
          "type": "uint256"
        },
        {
          "indexed": false,
          "internalType": "address",
          "name": "seller",
          "type": "address"
        }
      ],
      "name": "ItemCancelled",
      "type": "event"
    },
    {
      "anonymous": false,
      "inputs": [
        {
          "indexed": true,
          "internalType": "uint256",
          "name": "listingId",
          "type": "uint256"
        },
        {
          "indexed": true,
          "internalType": "uint256",
          "name": "tokenId",
          "type": "uint256"
        },
        {
          "indexed": true,
          "internalType": "address",
          "name": "nftContract",
          "type": "address"
        },
        {
          "indexed": false,
          "internalType": "address",
          "name": "seller",
          "type": "address"
        },
        {
          "indexed": false,
          "internalType": "uint256",
          "name": "price",
          "type": "uint256"
        }
      ],
      "name": "ItemListed",
      "type": "event"
    },
    {
      "anonymous": false,
      "inputs": [
        {
          "indexed": true,
          "internalType": "uint256",
          "name": "listingId",
          "type": "uint256"
        },
        {
          "indexed": true,
          "internalType": "uint256",
          "name": "tokenId",
          "type": "uint256"
        },
        {
          "indexed": true,
          "internalType": "address",
          "name": "nftContract",
          "type": "address"
        },
        {
          "indexed": false,
          "internalType": "address",
          "name": "seller",
          "type": "address"
        },
        {
          "indexed": false,
          "internalType": "address",
          "name": "buyer",
          "type": "address"
        },
        {
          "indexed": false,
          "internalType": "uint256",
          "name": "price",
          "type": "uint256"
        }
      ],
      "name": "ItemSold",
      "type": "event"
    },
    {
      "anonymous": false,
      "inputs": [
        {
          "indexed": true,
          "internalType": "address",
          "name": "previousOwner",
          "type": "address"
        },
        {
          "indexed": true,
          "internalType": "address",
          "name": "newOwner",
          "type": "address"
        }
      ],
      "name": "OwnershipTransferred",
      "type": "event"
    },
    {
      "inputs": [],
      "name": "isOwner",
      "outputs": [
        {
          "internalType": "bool",
          "name": "",
          "type": "bool"
        }
      ],
      "stateMutability": "view",
      "type": "function",
      "constant": true
    },
    {
      "inputs": [],
      "name": "owner",
      "outputs": [
        {
          "internalType": "address",
          "name": "",
          "type": "address"
        }
      ],
      "stateMutability": "view",
      "type": "function",
      "constant": true
    },
    {
      "inputs": [],
      "name": "renounceOwnership",
      "outputs": [],
      "stateMutability": "nonpayable",
      "type": "function"
    },
    {
      "inputs": [],
      "name": "teamFee",
      "outputs": [
        {
          "internalType": "uint256",
          "name": "",
          "type": "uint256"
        }
      ],
      "stateMutability": "view",
      "type": "function",
      "constant": true
    },
    {
      "inputs": [
        {
          "internalType": "address",
          "name": "newOwner",
          "type": "address"
        }
      ],
      "name": "transferOwnership",
      "outputs": [],
      "stateMutability": "nonpayable",
      "type": "function"
    },
    {
      "inputs": [
        {
          "internalType": "uint256",
          "name": "_teamFee",
          "type": "uint256"
        }
      ],
      "name": "setTeamFee",
      "outputs": [],
      "stateMutability": "nonpayable",
      "type": "function"
    },
    {
      "inputs": [
        {
          "internalType": "address",
          "name": "teamAddress",
          "type": "address"
        }
      ],
      "name": "setFeeAccounts",
      "outputs": [],
      "stateMutability": "nonpayable",
      "type": "function"
    },
    {
      "inputs": [
        {
          "internalType": "uint256",
          "name": "listingId",
          "type": "uint256"
        }
      ],
      "name": "geListedItem",
      "outputs": [
        {
          "components": [
            {
              "internalType": "uint256",
              "name": "listingId",
              "type": "uint256"
            },
            {
              "internalType": "uint256",
              "name": "tokenId",
              "type": "uint256"
            },
            {
              "internalType": "address",
              "name": "nftContract",
              "type": "address"
            },
            {
              "internalType": "address payable",
              "name": "seller",
              "type": "address"
            },
            {
              "internalType": "uint256",
              "name": "price",
              "type": "uint256"
            },
            {
              "internalType": "enum MainnetMarketplace.ListingStatus",
              "name": "status",
              "type": "uint8"
            }
          ],
          "internalType": "struct MainnetMarketplace.ListingData",
          "name": "",
          "type": "tuple"
        }
      ],
      "stateMutability": "view",
      "type": "function",
      "constant": true
    },
    {
      "inputs": [
        {
          "internalType": "address",
          "name": "sellerAddress",
          "type": "address"
        }
      ],
      "name": "getActiveListingsForAddress",
      "outputs": [
        {
          "components": [
            {
              "internalType": "uint256",
              "name": "listingId",
              "type": "uint256"
            },
            {
              "internalType": "uint256",
              "name": "tokenId",
              "type": "uint256"
            },
            {
              "internalType": "address",
              "name": "nftContract",
              "type": "address"
            },
            {
              "internalType": "address payable",
              "name": "seller",
              "type": "address"
            },
            {
              "internalType": "uint256",
              "name": "price",
              "type": "uint256"
            },
            {
              "internalType": "enum MainnetMarketplace.ListingStatus",
              "name": "status",
              "type": "uint8"
            }
          ],
          "internalType": "struct MainnetMarketplace.ListingData[]",
          "name": "",
          "type": "tuple[]"
        }
      ],
      "stateMutability": "view",
      "type": "function",
      "constant": true
    },
    {
      "inputs": [],
      "name": "fetchMarketItems",
      "outputs": [
        {
          "components": [
            {
              "internalType": "uint256",
              "name": "listingId",
              "type": "uint256"
            },
            {
              "internalType": "uint256",
              "name": "tokenId",
              "type": "uint256"
            },
            {
              "internalType": "address",
              "name": "nftContract",
              "type": "address"
            },
            {
              "internalType": "address payable",
              "name": "seller",
              "type": "address"
            },
            {
              "internalType": "uint256",
              "name": "price",
              "type": "uint256"
            },
            {
              "internalType": "enum MainnetMarketplace.ListingStatus",
              "name": "status",
              "type": "uint8"
            }
          ],
          "internalType": "struct MainnetMarketplace.ListingData[]",
          "name": "",
          "type": "tuple[]"
        }
      ],
      "stateMutability": "view",
      "type": "function",
      "constant": true
    },
    {
      "inputs": [
        {
          "internalType": "address",
          "name": "nftContract",
          "type": "address"
        },
        {
          "internalType": "uint256",
          "name": "tokenId",
          "type": "uint256"
        },
        {
          "internalType": "uint256",
          "name": "price",
          "type": "uint256"
        }
      ],
      "name": "listToken",
      "outputs": [],
      "stateMutability": "payable",
      "type": "function",
      "payable": true
    },
    {
      "inputs": [
        {
          "internalType": "uint256",
          "name": "listingId",
          "type": "uint256"
        }
      ],
      "name": "buyListedToken",
      "outputs": [],
      "stateMutability": "payable",
      "type": "function",
      "payable": true
    },
    {
      "inputs": [
        {
          "internalType": "uint256",
          "name": "listingId",
          "type": "uint256"
        }
      ],
      "name": "cancelListing",
      "outputs": [],
      "stateMutability": "nonpayable",
      "type": "function"
    }
  ],
  "bytecode": "0x6080604052600160065534801561001557600080fd5b50336000806101000a81548173ffffffffffffffffffffffffffffffffffffffff021916908373ffffffffffffffffffffffffffffffffffffffff16021790555060008054906101000a900473ffffffffffffffffffffffffffffffffffffffff1673ffffffffffffffffffffffffffffffffffffffff16600073ffffffffffffffffffffffffffffffffffffffff167f8be0079c531659141344cd1fd0a4f28419497f9722a3daafe3b4186f6b6457e060405160405180910390a36001808190555061277c806100e76000396000f3fe6080604052600436106100c25760003560e01c80637e07590d1161007f578063a4f281b811610059578063a4f281b81461023a578063d7c94efd14610263578063e6ec64ec1461028e578063f2fde38b146102b7576100c2565b80637e07590d146101c85780638da5cb5b146101e45780638f32d59b1461020f576100c2565b80630f08efe0146100c7578063305a67a8146100f25780636624f1111461011b5780636f6db76114610137578063715018a6146101745780637967c1d51461018b575b600080fd5b3480156100d357600080fd5b506100dc6102e0565b6040516100e991906120c7565b60405180910390f35b3480156100fe57600080fd5b5061011960048036038101906101149190611ccd565b610652565b005b61013560048036038101906101309190611ccd565b610969565b005b34801561014357600080fd5b5061015e60048036038101906101599190611c55565b610d8f565b60405161016b91906120c7565b60405180910390f35b34801561018057600080fd5b50610189611277565b005b34801561019757600080fd5b506101b260048036038101906101ad9190611ccd565b61137c565b6040516101bf9190612224565b60405180910390f35b6101e260048036038101906101dd9190611c7e565b6114fa565b005b3480156101f057600080fd5b506101f961181b565b6040516102069190612015565b60405180910390f35b34801561021b57600080fd5b50610224611844565b60405161023191906120e9565b60405180910390f35b34801561024657600080fd5b50610261600480360381019061025c9190611c55565b61189b565b005b34801561026f57600080fd5b50610278611996565b604051610285919061223f565b60405180910390f35b34801561029a57600080fd5b506102b560048036038101906102b09190611ccd565b61199c565b005b3480156102c357600080fd5b506102de60048036038101906102d99190611c55565b6119ed565b005b606060006102ee6002611a40565b905060006102fc6004611a40565b6103066003611a40565b6103106002611a40565b61031a91906123ae565b61032491906123ae565b90506000808267ffffffffffffffff811115610369577f4e487b7100000000000000000000000000000000000000000000000000000000600052604160045260246000fd5b6040519080825280602002602001820160405280156103a257816020015b61038f611b91565b8152602001906001900390816103875790505b5090506000600190505b84811161064757600060028111156103ed577f4e487b7100000000000000000000000000000000000000000000000000000000600052602160045260246000fd5b6005600083815260200190815260200160002060050160009054906101000a900460ff166002811115610449577f4e487b7100000000000000000000000000000000000000000000000000000000600052602160045260246000fd5b1415610634576000600560008381526020019081526020016000206000015490506000600560008381526020019081526020016000209050806040518060c001604052908160008201548152602001600182015481526020016002820160009054906101000a900473ffffffffffffffffffffffffffffffffffffffff1673ffffffffffffffffffffffffffffffffffffffff1673ffffffffffffffffffffffffffffffffffffffff1681526020016003820160009054906101000a900473ffffffffffffffffffffffffffffffffffffffff1673ffffffffffffffffffffffffffffffffffffffff1673ffffffffffffffffffffffffffffffffffffffff168152602001600482015481526020016005820160009054906101000a900460ff1660028111156105a2577f4e487b7100000000000000000000000000000000000000000000000000000000600052602160045260246000fd5b60028111156105da577f4e487b7100000000000000000000000000000000000000000000000000000000600052602160045260246000fd5b81525050848681518110610617577f4e487b7100000000000000000000000000000000000000000000000000000000600052603260045260246000fd5b602002602001018190525060018561062f91906122cd565b945050505b808061063f90612497565b9150506103ac565b508094505050505090565b60026001541415610698576040517f08c379a000000000000000000000000000000000000000000000000000000000815260040161068f906121e4565b60405180910390fd5b600260018190555060006005600083815260200190815260200160002090508060030160009054906101000a900473ffffffffffffffffffffffffffffffffffffffff1673ffffffffffffffffffffffffffffffffffffffff163373ffffffffffffffffffffffffffffffffffffffff1614610749576040517f08c379a000000000000000000000000000000000000000000000000000000000815260040161074090612144565b60405180910390fd5b60006002811115610783577f4e487b7100000000000000000000000000000000000000000000000000000000600052602160045260246000fd5b8160050160009054906101000a900460ff1660028111156107cd577f4e487b7100000000000000000000000000000000000000000000000000000000600052602160045260246000fd5b1461080d576040517f08c379a000000000000000000000000000000000000000000000000000000000815260040161080490612124565b60405180910390fd5b60028160050160006101000a81548160ff0219169083600281111561085b577f4e487b7100000000000000000000000000000000000000000000000000000000600052602160045260246000fd5b021790555061086a6004611a4e565b8060020160009054906101000a900473ffffffffffffffffffffffffffffffffffffffff1673ffffffffffffffffffffffffffffffffffffffff166323b872dd303384600101546040518463ffffffff1660e01b81526004016108cf93929190612067565b600060405180830381600087803b1580156108e957600080fd5b505af11580156108fd573d6000803e3d6000fd5b505050507ff69c7ea3f71dad86e17ba97a88b7e8f1708c0946bd98c7584e9942f60da8728e828260030160009054906101000a900473ffffffffffffffffffffffffffffffffffffffff1660405161095692919061225a565b60405180910390a1506001808190555050565b600260015414156109af576040517f08c379a00000000000000000000000000000000000000000000000000000000081526004016109a6906121e4565b60405180910390fd5b60026001819055506000600560008381526020019081526020016000209050600081600401549050600082600101549050813414610a22576040517f08c379a0000000000000000000000000000000000000000000000000000000008152600401610a1990612184565b60405180910390fd5b60006002811115610a5c577f4e487b7100000000000000000000000000000000000000000000000000000000600052602160045260246000fd5b8360050160009054906101000a900460ff166002811115610aa6577f4e487b7100000000000000000000000000000000000000000000000000000000600052602160045260246000fd5b14610ae6576040517f08c379a0000000000000000000000000000000000000000000000000000000008152600401610add90612164565b60405180910390fd5b60016005600086815260200190815260200160002060050160006101000a81548160ff02191690836002811115610b46577f4e487b7100000000000000000000000000000000000000000000000000000000600052602160045260246000fd5b0217905550610b556003611a4e565b6000606460065484610b679190612354565b610b719190612323565b90508360030160009054906101000a900473ffffffffffffffffffffffffffffffffffffffff1673ffffffffffffffffffffffffffffffffffffffff166108fc8234610bbd91906123ae565b9081150290604051600060405180830381858888f19350505050158015610be8573d6000803e3d6000fd5b50600760009054906101000a900473ffffffffffffffffffffffffffffffffffffffff1673ffffffffffffffffffffffffffffffffffffffff166108fc829081150290604051600060405180830381858888f19350505050158015610c51573d6000803e3d6000fd5b508360020160009054906101000a900473ffffffffffffffffffffffffffffffffffffffff1673ffffffffffffffffffffffffffffffffffffffff166323b872dd3033856040518463ffffffff1660e01b8152600401610cb393929190612067565b600060405180830381600087803b158015610ccd57600080fd5b505af1158015610ce1573d6000803e3d6000fd5b505050508360020160009054906101000a900473ffffffffffffffffffffffffffffffffffffffff1673ffffffffffffffffffffffffffffffffffffffff1682867f612a4c47ab6b6ed707bc3219bc7403cf101370bda0813fe58352bb570fdc5de68760030160009054906101000a900473ffffffffffffffffffffffffffffffffffffffff163388604051610d7993929190612030565b60405180910390a4505050506001808190555050565b60606000610d9d6002611a40565b90506000806000600190505b838111610edc578573ffffffffffffffffffffffffffffffffffffffff166005600083815260200190815260200160002060030160009054906101000a900473ffffffffffffffffffffffffffffffffffffffff1673ffffffffffffffffffffffffffffffffffffffff16148015610eb4575060006002811115610e56577f4e487b7100000000000000000000000000000000000000000000000000000000600052602160045260246000fd5b6005600083815260200190815260200160002060050160009054906101000a900460ff166002811115610eb2577f4e487b7100000000000000000000000000000000000000000000000000000000600052602160045260246000fd5b145b15610ec957600183610ec691906122cd565b92505b8080610ed490612497565b915050610da9565b5060008267ffffffffffffffff811115610f1f577f4e487b7100000000000000000000000000000000000000000000000000000000600052604160045260246000fd5b604051908082528060200260200182016040528015610f5857816020015b610f45611b91565b815260200190600190039081610f3d5790505b5090506000600190505b84811161126a578673ffffffffffffffffffffffffffffffffffffffff166005600083815260200190815260200160002060030160009054906101000a900473ffffffffffffffffffffffffffffffffffffffff1673ffffffffffffffffffffffffffffffffffffffff1614801561106d57506000600281111561100f577f4e487b7100000000000000000000000000000000000000000000000000000000600052602160045260246000fd5b6005600083815260200190815260200160002060050160009054906101000a900460ff16600281111561106b577f4e487b7100000000000000000000000000000000000000000000000000000000600052602160045260246000fd5b145b15611257576000600560008381526020019081526020016000206000015490506000600560008381526020019081526020016000209050806040518060c001604052908160008201548152602001600182015481526020016002820160009054906101000a900473ffffffffffffffffffffffffffffffffffffffff1673ffffffffffffffffffffffffffffffffffffffff1673ffffffffffffffffffffffffffffffffffffffff1681526020016003820160009054906101000a900473ffffffffffffffffffffffffffffffffffffffff1673ffffffffffffffffffffffffffffffffffffffff1673ffffffffffffffffffffffffffffffffffffffff168152602001600482015481526020016005820160009054906101000a900460ff1660028111156111c5577f4e487b7100000000000000000000000000000000000000000000000000000000600052602160045260246000fd5b60028111156111fd577f4e487b7100000000000000000000000000000000000000000000000000000000600052602160045260246000fd5b8152505084868151811061123a577f4e487b7100000000000000000000000000000000000000000000000000000000600052603260045260246000fd5b602002602001018190525060018561125291906122cd565b945050505b808061126290612497565b915050610f62565b5080945050505050919050565b61127f611844565b6112be576040517f08c379a00000000000000000000000000000000000000000000000000000000081526004016112b5906121a4565b60405180910390fd5b600073ffffffffffffffffffffffffffffffffffffffff1660008054906101000a900473ffffffffffffffffffffffffffffffffffffffff1673ffffffffffffffffffffffffffffffffffffffff167f8be0079c531659141344cd1fd0a4f28419497f9722a3daafe3b4186f6b6457e060405160405180910390a360008060006101000a81548173ffffffffffffffffffffffffffffffffffffffff021916908373ffffffffffffffffffffffffffffffffffffffff160217905550565b611384611b91565b600560008381526020019081526020016000206040518060c001604052908160008201548152602001600182015481526020016002820160009054906101000a900473ffffffffffffffffffffffffffffffffffffffff1673ffffffffffffffffffffffffffffffffffffffff1673ffffffffffffffffffffffffffffffffffffffff1681526020016003820160009054906101000a900473ffffffffffffffffffffffffffffffffffffffff1673ffffffffffffffffffffffffffffffffffffffff1673ffffffffffffffffffffffffffffffffffffffff168152602001600482015481526020016005820160009054906101000a900460ff1660028111156114b7577f4e487b7100000000000000000000000000000000000000000000000000000000600052602160045260246000fd5b60028111156114ef577f4e487b7100000000000000000000000000000000000000000000000000000000600052602160045260246000fd5b815250509050919050565b60026001541415611540576040517f08c379a0000000000000000000000000000000000000000000000000000000008152600401611537906121e4565b60405180910390fd5b60026001819055506000811161158b576040517f08c379a000000000000000000000000000000000000000000000000000000000815260040161158290612204565b60405180910390fd5b6115956002611a4e565b60006115a16002611a40565b90506040518060c001604052808281526020018481526020018573ffffffffffffffffffffffffffffffffffffffff1681526020013373ffffffffffffffffffffffffffffffffffffffff16815260200183815260200160006002811115611632577f4e487b7100000000000000000000000000000000000000000000000000000000600052602160045260246000fd5b81525060056000838152602001908152602001600020600082015181600001556020820151816001015560408201518160020160006101000a81548173ffffffffffffffffffffffffffffffffffffffff021916908373ffffffffffffffffffffffffffffffffffffffff16021790555060608201518160030160006101000a81548173ffffffffffffffffffffffffffffffffffffffff021916908373ffffffffffffffffffffffffffffffffffffffff1602179055506080820151816004015560a08201518160050160006101000a81548160ff02191690836002811115611745577f4e487b7100000000000000000000000000000000000000000000000000000000600052602160045260246000fd5b02179055509050508373ffffffffffffffffffffffffffffffffffffffff166323b872dd3330866040518463ffffffff1660e01b815260040161178a93929190612067565b600060405180830381600087803b1580156117a457600080fd5b505af11580156117b8573d6000803e3d6000fd5b505050508373ffffffffffffffffffffffffffffffffffffffff1683827f97b82dd2100c1a4b2bd0c8de35bd15f99c25848de8431c6549f058fcf3d3cdbf338660405161180692919061209e565b60405180910390a45060018081905550505050565b60008060009054906101000a900473ffffffffffffffffffffffffffffffffffffffff16905090565b60008060009054906101000a900473ffffffffffffffffffffffffffffffffffffffff1673ffffffffffffffffffffffffffffffffffffffff163373ffffffffffffffffffffffffffffffffffffffff1614905090565b6118a3611844565b6118e2576040517f08c379a00000000000000000000000000000000000000000000000000000000081526004016118d9906121a4565b60405180910390fd5b600073ffffffffffffffffffffffffffffffffffffffff168173ffffffffffffffffffffffffffffffffffffffff161415611952576040517f08c379a0000000000000000000000000000000000000000000000000000000008152600401611949906121c4565b60405180910390fd5b80600760006101000a81548173ffffffffffffffffffffffffffffffffffffffff021916908373ffffffffffffffffffffffffffffffffffffffff16021790555050565b60065481565b6119a4611844565b6119e3576040517f08c379a00000000000000000000000000000000000000000000000000000000081526004016119da906121a4565b60405180910390fd5b8060068190555050565b6119f5611844565b611a34576040517f08c379a0000000000000000000000000000000000000000000000000000000008152600401611a2b906121a4565b60405180910390fd5b611a3d81611a64565b50565b600081600001549050919050565b6001816000016000828254019250508190555050565b600073ffffffffffffffffffffffffffffffffffffffff168173ffffffffffffffffffffffffffffffffffffffff161415611ad4576040517f08c379a0000000000000000000000000000000000000000000000000000000008152600401611acb90612104565b60405180910390fd5b8073ffffffffffffffffffffffffffffffffffffffff1660008054906101000a900473ffffffffffffffffffffffffffffffffffffffff1673ffffffffffffffffffffffffffffffffffffffff167f8be0079c531659141344cd1fd0a4f28419497f9722a3daafe3b4186f6b6457e060405160405180910390a3806000806101000a81548173ffffffffffffffffffffffffffffffffffffffff021916908373ffffffffffffffffffffffffffffffffffffffff16021790555050565b6040518060c001604052806000815260200160008152602001600073ffffffffffffffffffffffffffffffffffffffff168152602001600073ffffffffffffffffffffffffffffffffffffffff1681526020016000815260200160006002811115611c25577f4e487b7100000000000000000000000000000000000000000000000000000000600052602160045260246000fd5b81525090565b600081359050611c3a81612718565b92915050565b600081359050611c4f8161272f565b92915050565b600060208284031215611c6757600080fd5b6000611c7584828501611c2b565b91505092915050565b600080600060608486031215611c9357600080fd5b6000611ca186828701611c2b565b9350506020611cb286828701611c40565b9250506040611cc386828701611c40565b9150509250925092565b600060208284031215611cdf57600080fd5b6000611ced84828501611c40565b91505092915050565b6000611d028383611f01565b60c08301905092915050565b611d178161244f565b82525050565b611d26816123f4565b82525050565b611d35816123e2565b82525050565b611d44816123e2565b82525050565b6000611d5582612293565b611d5f81856122ab565b9350611d6a83612283565b8060005b83811015611d9b578151611d828882611cf6565b9750611d8d8361229e565b925050600181019050611d6e565b5085935050505092915050565b611db181612406565b82525050565b611dc081612461565b82525050565b6000611dd3600f836122bc565b9150611dde8261256d565b602082019050919050565b6000611df66010836122bc565b9150611e0182612596565b602082019050919050565b6000611e19601e836122bc565b9150611e24826125bf565b602082019050919050565b6000611e3c6016836122bc565b9150611e47826125e8565b602082019050919050565b6000611e5f6040836122bc565b9150611e6a82612611565b604082019050919050565b6000611e826012836122bc565b9150611e8d82612660565b602082019050919050565b6000611ea56014836122bc565b9150611eb082612689565b602082019050919050565b6000611ec8601f836122bc565b9150611ed3826126b2565b602082019050919050565b6000611eeb601c836122bc565b9150611ef6826126db565b602082019050919050565b60c082016000820151611f176000850182611ff7565b506020820151611f2a6020850182611ff7565b506040820151611f3d6040850182611d2c565b506060820151611f506060850182611d1d565b506080820151611f636080850182611ff7565b5060a0820151611f7660a0850182611db7565b50505050565b60c082016000820151611f926000850182611ff7565b506020820151611fa56020850182611ff7565b506040820151611fb86040850182611d2c565b506060820151611fcb6060850182611d1d565b506080820151611fde6080850182611ff7565b5060a0820151611ff160a0850182611db7565b50505050565b61200081612445565b82525050565b61200f81612445565b82525050565b600060208201905061202a6000830184611d3b565b92915050565b60006060820190506120456000830186611d0e565b6120526020830185611d3b565b61205f6040830184612006565b949350505050565b600060608201905061207c6000830186611d3b565b6120896020830185611d3b565b6120966040830184612006565b949350505050565b60006040820190506120b36000830185611d3b565b6120c06020830184612006565b9392505050565b600060208201905081810360008301526120e18184611d4a565b905092915050565b60006020820190506120fe6000830184611da8565b92915050565b6000602082019050818103600083015261211d81611dc6565b9050919050565b6000602082019050818103600083015261213d81611de9565b9050919050565b6000602082019050818103600083015261215d81611e0c565b9050919050565b6000602082019050818103600083015261217d81611e2f565b9050919050565b6000602082019050818103600083015261219d81611e52565b9050919050565b600060208201905081810360008301526121bd81611e75565b9050919050565b600060208201905081810360008301526121dd81611e98565b9050919050565b600060208201905081810360008301526121fd81611ebb565b9050919050565b6000602082019050818103600083015261221d81611ede565b9050919050565b600060c0820190506122396000830184611f7c565b92915050565b60006020820190506122546000830184612006565b92915050565b600060408201905061226f6000830185612006565b61227c6020830184611d0e565b9392505050565b6000819050602082019050919050565b600081519050919050565b6000602082019050919050565b600082825260208201905092915050565b600082825260208201905092915050565b60006122d882612445565b91506122e383612445565b9250827fffffffffffffffffffffffffffffffffffffffffffffffffffffffffffffffff03821115612318576123176124e0565b5b828201905092915050565b600061232e82612445565b915061233983612445565b9250826123495761234861250f565b5b828204905092915050565b600061235f82612445565b915061236a83612445565b9250817fffffffffffffffffffffffffffffffffffffffffffffffffffffffffffffffff04831182151516156123a3576123a26124e0565b5b828202905092915050565b60006123b982612445565b91506123c483612445565b9250828210156123d7576123d66124e0565b5b828203905092915050565b60006123ed82612425565b9050919050565b60006123ff82612425565b9050919050565b60008115159050919050565b600081905061242082612704565b919050565b600073ffffffffffffffffffffffffffffffffffffffff82169050919050565b6000819050919050565b600061245a82612473565b9050919050565b600061246c82612412565b9050919050565b600061247e82612485565b9050919050565b600061249082612425565b9050919050565b60006124a282612445565b91507fffffffffffffffffffffffffffffffffffffffffffffffffffffffffffffffff8214156124d5576124d46124e0565b5b600182019050919050565b7f4e487b7100000000000000000000000000000000000000000000000000000000600052601160045260246000fd5b7f4e487b7100000000000000000000000000000000000000000000000000000000600052601260045260246000fd5b7f4e487b7100000000000000000000000000000000000000000000000000000000600052602160045260246000fd5b7f496e76616c696420616464726573730000000000000000000000000000000000600082015250565b7f4974656d206e6f74206f6e2073616c6500000000000000000000000000000000600082015250565b7f4f6e6c792073656c6c65722063616e2063616e63656c206c697374696e670000600082015250565b7f4974656d206e6f206c6f6e676572206f6e2073616c6500000000000000000000600082015250565b7f506c65617365207375626d6974207468652061736b696e67207072696365206960008201527f6e206f7264657220746f20636f6d706c65746520746865207075726368617365602082015250565b7f496e76616c6964207065726d697373696f6e0000000000000000000000000000600082015250565b7f496e76616c6964207465616d2061646472657373000000000000000000000000600082015250565b7f5265656e7472616e637947756172643a207265656e7472616e742063616c6c00600082015250565b7f5072696365206d757374206265206174206c6561737420312077656900000000600082015250565b600381106127155761271461253e565b5b50565b612721816123e2565b811461272c57600080fd5b50565b61273881612445565b811461274357600080fd5b5056fea26469706673582212202bfdf96a5fc2fa2a05c644325615a1298831b04051ce28719a4e7c93b183ff0964736f6c63430008040033",
  "immutableReferences": {},
  "source": "// SPDX-License-Identifier: GPL-3.0 License\n\npragma solidity ^0.8.0;\n\nimport \"../../common/ownership/Ownable.sol\";\nimport \"../../common/security/ReentrancyGuard.sol\";\nimport \"../../common/utils/Counters.sol\";\n\ninterface IERC721 {\n\tfunction transferFrom(\n\t\taddress from,\n\t\taddress to,\n\t\tuint256 tokenId\n\t) external;\n}\n\ncontract MainnetMarketplace is Ownable, ReentrancyGuard {\n    using Counters for Counters.Counter;\n    Counters.Counter private _itemIds;\n    Counters.Counter private _itemsSold;\n    Counters.Counter private _itemsCancelled;\n\n    /*\n     * @dev Maps listing id to listed item\n     */\n    mapping(uint256 => ListingData) private _idToListedItem;\n\n    /************* Fees ****************/\n    uint256 public teamFee = 1;\n    address payable private _teamAddress;\n\n    enum ListingStatus {\n        Active,\n        Sold,\n        Cancelled\n    }\n\n    struct ListingData {\n        uint256 listingId;\n        uint256 tokenId;\n        address nftContract;\n        address payable seller;\n        uint256 price;\n        ListingStatus status;\n    }\n\n    event ItemListed(\n        uint256 indexed listingId,\n        uint256 indexed tokenId,\n        address indexed nftContract,\n        address seller,\n        uint256 price\n    );\n\n    event ItemSold(\n        uint256 indexed listingId,\n        uint256 indexed tokenId,\n        address indexed nftContract,\n        address seller,\n        address buyer,\n        uint256 price\n    );\n\n    event ItemCancelled(uint256 listingId, address seller);\n\n    /**\n     * @dev Function to change fees in case adjustments are needed or for special events\n     */\n    function setTeamFee(uint256 _teamFee) external onlyOwner {\n        teamFee = _teamFee;\n    }\n\n    /**\n     * @dev Change addresses where fees are deposited\n     */\n    function setFeeAccounts(address teamAddress) external onlyOwner {\n        require(teamAddress != address(0), \"Invalid team address\");\n        _teamAddress = payable(teamAddress);\n    }\n\n    /**************************** View Functions ********************************************************/\n\n    function geListedItem(uint256 listingId) external view returns (ListingData memory) {\n        return _idToListedItem[listingId];\n    }\n\n    function getActiveListingsForAddress(address sellerAddress) external view returns (ListingData[] memory) {\n        uint256 totalItemCount = _itemIds.current();\n        uint256 itemCount = 0;\n        uint256 currentIndex = 0;\n\n        for (uint256 i = 1; i <= totalItemCount; i++) {\n            if (_idToListedItem[i].seller == sellerAddress && _idToListedItem[i].status == ListingStatus.Active) {\n                itemCount += 1;\n            }\n        }\n\n        ListingData[] memory items = new ListingData[](itemCount);\n        for (uint256 i = 1; i <= totalItemCount; i++) {\n            if (_idToListedItem[i].seller == sellerAddress && _idToListedItem[i].status == ListingStatus.Active) {\n                uint256 currentId = _idToListedItem[i].listingId;\n                ListingData storage currentItem = _idToListedItem[currentId];\n                items[currentIndex] = currentItem;\n                currentIndex += 1;\n            }\n        }\n        return items;\n    }\n\n    function fetchMarketItems() external view returns (ListingData[] memory) {\n        uint256 itemCount = _itemIds.current();\n        uint256 unsoldItemCount = _itemIds.current() - _itemsSold.current() - _itemsCancelled.current();\n        uint256 currentIndex = 0;\n\n        ListingData[] memory items = new ListingData[](unsoldItemCount);\n        for (uint256 i = 1; i <= itemCount; i++) {\n            if (_idToListedItem[i].status == ListingStatus.Active) {\n                uint256 currentId = _idToListedItem[i].listingId;\n                ListingData storage currentItem = _idToListedItem[currentId];\n                items[currentIndex] = currentItem;\n                currentIndex += 1;\n            }\n        }\n\n        return items;\n    }\n\n    /**************************** External Functions ********************************************************/\n\n    function listToken(\n        address nftContract,\n        uint256 tokenId,\n        uint256 price\n    ) external payable nonReentrant {\n        require(price > 0, \"Price must be at least 1 wei\");\n\n        _itemIds.increment();\n        uint256 listingId = _itemIds.current();\n\n        _idToListedItem[listingId] = ListingData(\n            listingId,\n            tokenId,\n            nftContract,\n            payable(msg.sender),\n            price,\n            ListingStatus.Active\n        );\n\n        IERC721(nftContract).transferFrom(msg.sender, address(this), tokenId);\n\n        emit ItemListed(listingId, tokenId, nftContract, msg.sender, price);\n    }\n\n    function buyListedToken(uint256 listingId) external payable nonReentrant {\n        ListingData storage listedItem = _idToListedItem[listingId];\n        uint256 price = listedItem.price;\n        uint256 tokenId = listedItem.tokenId;\n\n        require(msg.value == price, \"Please submit the asking price in order to complete the purchase\");\n        require(listedItem.status == ListingStatus.Active, \"Item no longer on sale\");\n\n        // State changes\n        _idToListedItem[listingId].status = ListingStatus.Sold;\n        _itemsSold.increment();\n\n        // Transfer money charging 5% fees: 4% to rewards treasury and 1% to team.\n        uint256 teamFeeCharge = (price * teamFee) / 100;\n        listedItem.seller.transfer(msg.value - teamFeeCharge);\n        _teamAddress.transfer(teamFeeCharge);\n\n        // Transfer NFT ownership\n        IERC721(listedItem.nftContract).transferFrom(address(this), msg.sender, tokenId);\n\n        emit ItemSold(listingId, tokenId, listedItem.nftContract, listedItem.seller, msg.sender, price);\n    }\n\n    function cancelListing(uint256 listingId) external nonReentrant {\n        ListingData storage listedItem = _idToListedItem[listingId];\n\n        require(msg.sender == listedItem.seller, \"Only seller can cancel listing\");\n        require(listedItem.status == ListingStatus.Active, \"Item not on sale\");\n\n        listedItem.status = ListingStatus.Cancelled;\n        _itemsCancelled.increment();\n\n        IERC721(listedItem.nftContract).transferFrom(address(this), msg.sender, listedItem.tokenId);\n\n        emit ItemCancelled(listingId, listedItem.seller);\n    }\n}\n",
  "sourcePath": "/usr/src/app/contractGetter/contracts/mainnet/marketplace/MainnetMarketplace.sol",
  "compiler": {
    "name": "solc",
    "version": "0.8.4+commit.c7e474f2.Emscripten.clang"
  },
  "schemaVersion": "3.4.1",
  "updatedAt": "2022-06-08T16:03:33.930Z",
  "networkType": "ethereum",
  "devdoc": {
    "kind": "dev",
    "methods": {
      "isOwner()": {
        "returns": {
          "_0": "true if `msg.sender` is the owner of the contract."
        }
      },
      "owner()": {
        "returns": {
          "_0": "the address of the owner."
        }
      },
      "renounceOwnership()": {
        "details": "Allows the current owner to relinquish control of the contract."
      },
      "setFeeAccounts(address)": {
        "details": "Change addresses where fees are deposited"
      },
      "setTeamFee(uint256)": {
        "details": "Function to change fees in case adjustments are needed or for special events"
      },
      "transferOwnership(address)": {
        "details": "Allows the current owner to transfer control of the contract to a newOwner.",
        "params": {
          "newOwner": "The address to transfer ownership to."
        }
      }
    },
    "version": 1
  },
  "userdoc": {
    "kind": "user",
    "methods": {
      "renounceOwnership()": {
        "notice": "Renouncing to ownership will leave the contract without an owner. It will not be possible to call the functions with the `onlyOwner` modifier anymore."
      }
    },
    "version": 1
  }
}