{
  "contractName": "Spender",
  "abi": [
    {
      "anonymous": false,
      "inputs": [
        {
          "indexed": true,
          "internalType": "address",
          "name": "previousOwner",
          "type": "address"
        },
        {
          "indexed": true,
          "internalType": "address",
          "name": "newOwner",
          "type": "address"
        }
      ],
      "name": "OwnershipTransferred",
      "type": "event"
    },
    {
      "anonymous": false,
      "inputs": [
        {
          "indexed": true,
          "internalType": "address",
          "name": "account",
          "type": "address"
        }
      ],
      "name": "SpenderAdded",
      "type": "event"
    },
    {
      "anonymous": false,
      "inputs": [
        {
          "indexed": true,
          "internalType": "address",
          "name": "account",
          "type": "address"
        }
      ],
      "name": "SpenderRemoved",
      "type": "event"
    },
    {
      "constant": true,
      "inputs": [],
      "name": "isOwner",
      "outputs": [
        {
          "internalType": "bool",
          "name": "",
          "type": "bool"
        }
      ],
      "payable": false,
      "stateMutability": "view",
      "type": "function"
    },
    {
      "constant": true,
      "inputs": [],
      "name": "owner",
      "outputs": [
        {
          "internalType": "address",
          "name": "",
          "type": "address"
        }
      ],
      "payable": false,
      "stateMutability": "view",
      "type": "function"
    },
    {
      "constant": false,
      "inputs": [],
      "name": "renounceOwnership",
      "outputs": [],
      "payable": false,
      "stateMutability": "nonpayable",
      "type": "function"
    },
    {
      "constant": false,
      "inputs": [
        {
          "internalType": "address",
          "name": "newOwner",
          "type": "address"
        }
      ],
      "name": "transferOwnership",
      "outputs": [],
      "payable": false,
      "stateMutability": "nonpayable",
      "type": "function"
    },
    {
      "constant": true,
      "inputs": [
        {
          "internalType": "address",
          "name": "account",
          "type": "address"
        }
      ],
      "name": "isSpender",
      "outputs": [
        {
          "internalType": "bool",
          "name": "",
          "type": "bool"
        }
      ],
      "payable": false,
      "stateMutability": "view",
      "type": "function"
    },
    {
      "constant": false,
      "inputs": [
        {
          "internalType": "address",
          "name": "account",
          "type": "address"
        }
      ],
      "name": "addSpender",
      "outputs": [],
      "payable": false,
      "stateMutability": "nonpayable",
      "type": "function"
    },
    {
      "constant": false,
      "inputs": [],
      "name": "renounceMinter",
      "outputs": [],
      "payable": false,
      "stateMutability": "nonpayable",
      "type": "function"
    }
  ],
  "bytecode": "0x6080604052336000806101000a81548173ffffffffffffffffffffffffffffffffffffffff021916908373ffffffffffffffffffffffffffffffffffffffff1602179055506000809054906101000a900473ffffffffffffffffffffffffffffffffffffffff1673ffffffffffffffffffffffffffffffffffffffff16600073ffffffffffffffffffffffffffffffffffffffff167f8be0079c531659141344cd1fd0a4f28419497f9722a3daafe3b4186f6b6457e060405160405180910390a3610aff806100cf6000396000f3fe608060405234801561001057600080fd5b506004361061009a576000357c010000000000000000000000000000000000000000000000000000000090048063986502751161007857806398650275146101155780639a206ece1461011f578063e7e31e7a1461017b578063f2fde38b146101bf5761009a565b8063715018a61461009f5780638da5cb5b146100a95780638f32d59b146100f3575b600080fd5b6100a7610203565b005b6100b161031f565b604051808273ffffffffffffffffffffffffffffffffffffffff1673ffffffffffffffffffffffffffffffffffffffff16815260200191505060405180910390f35b6100fb610348565b604051808215151515815260200191505060405180910390f35b61011d61039f565b005b6101616004803603602081101561013557600080fd5b81019080803573ffffffffffffffffffffffffffffffffffffffff1690602001909291905050506103aa565b604051808215151515815260200191505060405180910390f35b6101bd6004803603602081101561019157600080fd5b81019080803573ffffffffffffffffffffffffffffffffffffffff1690602001909291905050506103c7565b005b610201600480360360208110156101d557600080fd5b81019080803573ffffffffffffffffffffffffffffffffffffffff169060200190929190505050610430565b005b61020b610348565b610260576040517f08c379a0000000000000000000000000000000000000000000000000000000008152600401808060200182810382526026815260200180610aa56026913960400191505060405180910390fd5b600073ffffffffffffffffffffffffffffffffffffffff166000809054906101000a900473ffffffffffffffffffffffffffffffffffffffff1673ffffffffffffffffffffffffffffffffffffffff167f8be0079c531659141344cd1fd0a4f28419497f9722a3daafe3b4186f6b6457e060405160405180910390a360008060006101000a81548173ffffffffffffffffffffffffffffffffffffffff021916908373ffffffffffffffffffffffffffffffffffffffff160217905550565b60008060009054906101000a900473ffffffffffffffffffffffffffffffffffffffff16905090565b60008060009054906101000a900473ffffffffffffffffffffffffffffffffffffffff1673ffffffffffffffffffffffffffffffffffffffff163373ffffffffffffffffffffffffffffffffffffffff1614905090565b6103a833610499565b565b60006103c08260016104f390919063ffffffff16565b9050919050565b6103cf610348565b610424576040517f08c379a0000000000000000000000000000000000000000000000000000000008152600401808060200182810382526026815260200180610aa56026913960400191505060405180910390fd5b61042d816105ee565b50565b610438610348565b61048d576040517f08c379a0000000000000000000000000000000000000000000000000000000008152600401808060200182810382526026815260200180610aa56026913960400191505060405180910390fd5b61049681610648565b50565b6104ad8160016107a990919063ffffffff16565b8073ffffffffffffffffffffffffffffffffffffffff167fab8cff50266d80b9c9d9703af934ca455b9218286bf4fcaa05653a564c499e4b60405160405180910390a250565b60008073ffffffffffffffffffffffffffffffffffffffff168273ffffffffffffffffffffffffffffffffffffffff161415610597576040517f08c379a00000000000000000000000000000000000000000000000000000000081526004018080602001828103825260178152602001807f496e76616c69642061646472657373206163636f756e7400000000000000000081525060200191505060405180910390fd5b8260000160008373ffffffffffffffffffffffffffffffffffffffff1673ffffffffffffffffffffffffffffffffffffffff16815260200190815260200160002060009054906101000a900460ff16905092915050565b61060281600161092690919063ffffffff16565b8073ffffffffffffffffffffffffffffffffffffffff167f3139419c41cdd7abca84fa19dd21118cd285d3e2ce1a9444e8161ce9fa62fdcd60405160405180910390a250565b600073ffffffffffffffffffffffffffffffffffffffff168173ffffffffffffffffffffffffffffffffffffffff1614156106eb576040517f08c379a00000000000000000000000000000000000000000000000000000000081526004018080602001828103825260198152602001807f496e76616c6964206e6577206f776e657220616464726573730000000000000081525060200191505060405180910390fd5b8073ffffffffffffffffffffffffffffffffffffffff166000809054906101000a900473ffffffffffffffffffffffffffffffffffffffff1673ffffffffffffffffffffffffffffffffffffffff167f8be0079c531659141344cd1fd0a4f28419497f9722a3daafe3b4186f6b6457e060405160405180910390a3806000806101000a81548173ffffffffffffffffffffffffffffffffffffffff021916908373ffffffffffffffffffffffffffffffffffffffff16021790555050565b600073ffffffffffffffffffffffffffffffffffffffff168173ffffffffffffffffffffffffffffffffffffffff16141561084c576040517f08c379a00000000000000000000000000000000000000000000000000000000081526004018080602001828103825260178152602001807f496e76616c69642061646472657373206163636f756e7400000000000000000081525060200191505060405180910390fd5b61085682826104f3565b6108c8576040517f08c379a000000000000000000000000000000000000000000000000000000000815260040180806020018281038252601f8152602001807f4163636f756e7420646f6573206e6f742068617665207468697320726f6c650081525060200191505060405180910390fd5b60008260000160008373ffffffffffffffffffffffffffffffffffffffff1673ffffffffffffffffffffffffffffffffffffffff16815260200190815260200160002060006101000a81548160ff0219169083151502179055505050565b600073ffffffffffffffffffffffffffffffffffffffff168173ffffffffffffffffffffffffffffffffffffffff1614156109c9576040517f08c379a00000000000000000000000000000000000000000000000000000000081526004018080602001828103825260178152602001807f496e76616c69642061646472657373206163636f756e7400000000000000000081525060200191505060405180910390fd5b6109d382826104f3565b15610a46576040517f08c379a000000000000000000000000000000000000000000000000000000000815260040180806020018281038252601d8152602001807f4163636f756e7420616c726561647920686173207468697320726f6c6500000081525060200191505060405180910390fd5b60018260000160008373ffffffffffffffffffffffffffffffffffffffff1673ffffffffffffffffffffffffffffffffffffffff16815260200190815260200160002060006101000a81548160ff021916908315150217905550505056fe4f6e6c7920746865206f776e65722063616e20706572666f726d207468697320616374696f6ea265627a7a72315820b3711a15ffad77994e8d4f90c255353ec4eaf064b4cca48c01957d7ab390f80a64736f6c63430005110032",
  "source": "pragma solidity ^0.5.0;\n\nimport \"../Roles.sol\";\nimport \"../../ownership/Ownable.sol\";\n\ncontract Spender is Ownable {\n    using Roles for Roles.Role;\n\n    Roles.Role private spenders;\n\n    event SpenderAdded(address indexed account);\n    event SpenderRemoved(address indexed account);\n\n    modifier onlySpender() {\n        require(isSpender(msg.sender), \"Must have the spender roel to perform this action\");\n        _;\n    }\n\n    function isSpender(address account) public view returns (bool) {\n        return spenders.has(account);\n    }\n\n    function addSpender(address account) public onlyOwner {\n        _addSpender(account);\n    }\n\n    function renounceMinter() public {\n        _removeSpender(msg.sender);\n    }\n\n    function _addSpender(address account) internal {\n        spenders.add(account);\n        emit SpenderAdded(account);\n    }\n\n    function _removeSpender(address account) internal {\n        spenders.remove(account);\n        emit SpenderRemoved(account);\n    }\n}",
  "sourcePath": "/usr/src/app/main-sv/contracts/common/access/roles/Spender.sol",
  "compiler": {
    "name": "solc",
    "version": "0.5.17+commit.d19bba13.Emscripten.clang"
  },
  "schemaVersion": "3.0.1",
  "updatedAt": "2020-08-02T23:33:00.918Z",
  "devdoc": {
    "methods": {
      "isOwner()": {
        "return": "true if `msg.sender` is the owner of the contract."
      },
      "owner()": {
        "return": "the address of the owner."
      },
      "renounceOwnership()": {
        "details": "Allows the current owner to relinquish control of the contract."
      },
      "transferOwnership(address)": {
        "details": "Allows the current owner to transfer control of the contract to a newOwner.",
        "params": {
          "newOwner": "The address to transfer ownership to."
        }
      }
    }
  },
  "userdoc": {
    "methods": {
      "renounceOwnership()": {
        "notice": "Renouncing to ownership will leave the contract without an owner. It will not be possible to call the functions with the `onlyOwner` modifier anymore."
      }
    }
  }
}