{
  "contractName": "DappchainValidatorManagerContract",
  "abi": [
    {
      "inputs": [
        {
          "internalType": "address[]",
          "name": "_validators",
          "type": "address[]"
        },
        {
          "internalType": "uint8",
          "name": "_threshold_num",
          "type": "uint8"
        },
        {
          "internalType": "uint8",
          "name": "_threshold_denom",
          "type": "uint8"
        }
      ],
      "payable": false,
      "stateMutability": "nonpayable",
      "type": "constructor"
    },
    {
      "anonymous": false,
      "inputs": [
        {
          "indexed": false,
          "internalType": "address",
          "name": "validator",
          "type": "address"
        }
      ],
      "name": "AddedValidator",
      "type": "event"
    },
    {
      "anonymous": false,
      "inputs": [
        {
          "indexed": true,
          "internalType": "address",
          "name": "previousOwner",
          "type": "address"
        },
        {
          "indexed": true,
          "internalType": "address",
          "name": "newOwner",
          "type": "address"
        }
      ],
      "name": "OwnershipTransferred",
      "type": "event"
    },
    {
      "anonymous": false,
      "inputs": [
        {
          "indexed": false,
          "internalType": "address",
          "name": "validator",
          "type": "address"
        }
      ],
      "name": "RemovedValidator",
      "type": "event"
    },
    {
      "constant": true,
      "inputs": [
        {
          "internalType": "address",
          "name": "",
          "type": "address"
        }
      ],
      "name": "allowedTokens",
      "outputs": [
        {
          "internalType": "bool",
          "name": "",
          "type": "bool"
        }
      ],
      "payable": false,
      "stateMutability": "view",
      "type": "function"
    },
    {
      "constant": true,
      "inputs": [],
      "name": "isOwner",
      "outputs": [
        {
          "internalType": "bool",
          "name": "",
          "type": "bool"
        }
      ],
      "payable": false,
      "stateMutability": "view",
      "type": "function"
    },
    {
      "constant": true,
      "inputs": [],
      "name": "nonce",
      "outputs": [
        {
          "internalType": "uint256",
          "name": "",
          "type": "uint256"
        }
      ],
      "payable": false,
      "stateMutability": "view",
      "type": "function"
    },
    {
      "constant": true,
      "inputs": [
        {
          "internalType": "address",
          "name": "",
          "type": "address"
        }
      ],
      "name": "nonces",
      "outputs": [
        {
          "internalType": "uint256",
          "name": "",
          "type": "uint256"
        }
      ],
      "payable": false,
      "stateMutability": "view",
      "type": "function"
    },
    {
      "constant": true,
      "inputs": [],
      "name": "numValidators",
      "outputs": [
        {
          "internalType": "uint256",
          "name": "",
          "type": "uint256"
        }
      ],
      "payable": false,
      "stateMutability": "view",
      "type": "function"
    },
    {
      "constant": true,
      "inputs": [],
      "name": "owner",
      "outputs": [
        {
          "internalType": "address",
          "name": "",
          "type": "address"
        }
      ],
      "payable": false,
      "stateMutability": "view",
      "type": "function"
    },
    {
      "constant": false,
      "inputs": [],
      "name": "renounceOwnership",
      "outputs": [],
      "payable": false,
      "stateMutability": "nonpayable",
      "type": "function"
    },
    {
      "constant": false,
      "inputs": [
        {
          "internalType": "address",
          "name": "newOwner",
          "type": "address"
        }
      ],
      "name": "transferOwnership",
      "outputs": [],
      "payable": false,
      "stateMutability": "nonpayable",
      "type": "function"
    },
    {
      "constant": true,
      "inputs": [
        {
          "internalType": "address",
          "name": "_address",
          "type": "address"
        }
      ],
      "name": "checkValidator",
      "outputs": [
        {
          "internalType": "bool",
          "name": "",
          "type": "bool"
        }
      ],
      "payable": false,
      "stateMutability": "view",
      "type": "function"
    },
    {
      "constant": false,
      "inputs": [
        {
          "internalType": "address",
          "name": "validator",
          "type": "address"
        },
        {
          "internalType": "uint8[]",
          "name": "v",
          "type": "uint8[]"
        },
        {
          "internalType": "bytes32[]",
          "name": "r",
          "type": "bytes32[]"
        },
        {
          "internalType": "bytes32[]",
          "name": "s",
          "type": "bytes32[]"
        }
      ],
      "name": "addValidator",
      "outputs": [],
      "payable": false,
      "stateMutability": "nonpayable",
      "type": "function"
    },
    {
      "constant": false,
      "inputs": [
        {
          "internalType": "address",
          "name": "validator",
          "type": "address"
        },
        {
          "internalType": "uint8[]",
          "name": "v",
          "type": "uint8[]"
        },
        {
          "internalType": "bytes32[]",
          "name": "r",
          "type": "bytes32[]"
        },
        {
          "internalType": "bytes32[]",
          "name": "s",
          "type": "bytes32[]"
        }
      ],
      "name": "removeValidator",
      "outputs": [],
      "payable": false,
      "stateMutability": "nonpayable",
      "type": "function"
    },
    {
      "constant": false,
      "inputs": [
        {
          "internalType": "address",
          "name": "_token",
          "type": "address"
        }
      ],
      "name": "toggleToken",
      "outputs": [],
      "payable": false,
      "stateMutability": "nonpayable",
      "type": "function"
    }
  ],
  "bytecode": "0x60806040523480156200001157600080fd5b50604051620017db380380620017db833981810160405260608110156200003757600080fd5b81019080805160405193929190846401000000008211156200005857600080fd5b838201915060208201858111156200006f57600080fd5b82518660208202830111640100000000821117156200008d57600080fd5b8083526020830192505050908051906020019060200280838360005b83811015620000c6578082015181840152602081019050620000a9565b505050509050016040526020018051906020019092919080519060200190929190505050336000806101000a81548173ffffffffffffffffffffffffffffffffffffffff021916908373ffffffffffffffffffffffffffffffffffffffff1602179055506000809054906101000a900473ffffffffffffffffffffffffffffffffffffffff1673ffffffffffffffffffffffffffffffffffffffff16600073ffffffffffffffffffffffffffffffffffffffff167f8be0079c531659141344cd1fd0a4f28419497f9722a3daafe3b4186f6b6457e060405160405180910390a360008351905060008111620001ba57600080fd5b82600460006101000a81548160ff021916908360ff16021790555081600460016101000a81548160ff021916908360ff16021790555060008090505b818110156200033f57600073ffffffffffffffffffffffffffffffffffffffff168582815181106200022457fe5b602002602001015173ffffffffffffffffffffffffffffffffffffffff1614156200024e57600080fd5b6001600360008784815181106200026157fe5b602002602001015173ffffffffffffffffffffffffffffffffffffffff1673ffffffffffffffffffffffffffffffffffffffff16815260200190815260200160002060006101000a81548160ff0219169083151502179055507f8e15bf46bd11add443414ada75aa9592a4af68f3f2ec02ae3d49572f9843c2a8858281518110620002e857fe5b6020026020010151604051808273ffffffffffffffffffffffffffffffffffffffff1673ffffffffffffffffffffffffffffffffffffffff16815260200191505060405180910390a18080600101915050620001f6565b5083516005819055505050505061147f806200035c6000396000f3fe608060405234801561001057600080fd5b50600436106100d1576000357c0100000000000000000000000000000000000000000000000000000000900480638f32d59b1161008e5780638f32d59b1461024057806390b616c814610262578063affed0e0146103a5578063c7e7f6f6146103c3578063e744092e14610506578063f2fde38b14610562576100d1565b806315c75f89146100d65780635d593f8d1461011a578063715018a614610138578063797327ae146101425780637ecebe001461019e5780638da5cb5b146101f6575b600080fd5b610118600480360360208110156100ec57600080fd5b81019080803573ffffffffffffffffffffffffffffffffffffffff1690602001909291905050506105a6565b005b61012261065f565b6040518082815260200191505060405180910390f35b610140610665565b005b6101846004803603602081101561015857600080fd5b81019080803573ffffffffffffffffffffffffffffffffffffffff169060200190929190505050610781565b604051808215151515815260200191505060405180910390f35b6101e0600480360360208110156101b457600080fd5b81019080803573ffffffffffffffffffffffffffffffffffffffff16906020019092919050505061081c565b6040518082815260200191505060405180910390f35b6101fe610834565b604051808273ffffffffffffffffffffffffffffffffffffffff1673ffffffffffffffffffffffffffffffffffffffff16815260200191505060405180910390f35b61024861085d565b604051808215151515815260200191505060405180910390f35b6103a36004803603608081101561027857600080fd5b81019080803573ffffffffffffffffffffffffffffffffffffffff169060200190929190803590602001906401000000008111156102b557600080fd5b8201836020820111156102c757600080fd5b803590602001918460208302840111640100000000831117156102e957600080fd5b90919293919293908035906020019064010000000081111561030a57600080fd5b82018360208201111561031c57600080fd5b8035906020019184602083028401116401000000008311171561033e57600080fd5b90919293919293908035906020019064010000000081111561035f57600080fd5b82018360208201111561037157600080fd5b8035906020019184602083028401116401000000008311171561039357600080fd5b90919293919293905050506108b4565b005b6103ad610bc4565b6040518082815260200191505060405180910390f35b610504600480360360808110156103d957600080fd5b81019080803573ffffffffffffffffffffffffffffffffffffffff1690602001909291908035906020019064010000000081111561041657600080fd5b82018360208201111561042857600080fd5b8035906020019184602083028401116401000000008311171561044a57600080fd5b90919293919293908035906020019064010000000081111561046b57600080fd5b82018360208201111561047d57600080fd5b8035906020019184602083028401116401000000008311171561049f57600080fd5b9091929391929390803590602001906401000000008111156104c057600080fd5b8201836020820111156104d257600080fd5b803590602001918460208302840111640100000000831117156104f457600080fd5b9091929391929390505050610bca565b005b6105486004803603602081101561051c57600080fd5b81019080803573ffffffffffffffffffffffffffffffffffffffff169060200190929190505050610ee0565b604051808215151515815260200191505060405180910390f35b6105a46004803603602081101561057857600080fd5b81019080803573ffffffffffffffffffffffffffffffffffffffff169060200190929190505050610f00565b005b6105af33610781565b6105b857600080fd5b600160008273ffffffffffffffffffffffffffffffffffffffff1673ffffffffffffffffffffffffffffffffffffffff16815260200190815260200160002060009054906101000a900460ff1615600160008373ffffffffffffffffffffffffffffffffffffffff1673ffffffffffffffffffffffffffffffffffffffff16815260200190815260200160002060006101000a81548160ff02191690831515021790555050565b60055481565b61066d61085d565b6106c2576040517f08c379a00000000000000000000000000000000000000000000000000000000081526004018080602001828103825260268152602001806114256026913960400191505060405180910390fd5b600073ffffffffffffffffffffffffffffffffffffffff166000809054906101000a900473ffffffffffffffffffffffffffffffffffffffff1673ffffffffffffffffffffffffffffffffffffffff167f8be0079c531659141344cd1fd0a4f28419497f9722a3daafe3b4186f6b6457e060405160405180910390a360008060006101000a81548173ffffffffffffffffffffffffffffffffffffffff021916908373ffffffffffffffffffffffffffffffffffffffff160217905550565b600061078b610834565b73ffffffffffffffffffffffffffffffffffffffff168273ffffffffffffffffffffffffffffffffffffffff1614156107c75760019050610817565b600360008373ffffffffffffffffffffffffffffffffffffffff1673ffffffffffffffffffffffffffffffffffffffff16815260200190815260200160002060009054906101000a900460ff1690505b919050565b60026020528060005260406000206000915090505481565b60008060009054906101000a900473ffffffffffffffffffffffffffffffffffffffff16905090565b60008060009054906101000a900473ffffffffffffffffffffffffffffffffffffffff1673ffffffffffffffffffffffffffffffffffffffff163373ffffffffffffffffffffffffffffffffffffffff1614905090565b600360008873ffffffffffffffffffffffffffffffffffffffff1673ffffffffffffffffffffffffffffffffffffffff16815260200190815260200160002060009054906101000a900460ff1615610974576040517f08c379a00000000000000000000000000000000000000000000000000000000081526004018080602001828103825260138152602001807f416c726561647920612076616c696461746f720000000000000000000000000081525060200191505060405180910390fd5b60008760065460405160200180807f61646400000000000000000000000000000000000000000000000000000000008152506003018373ffffffffffffffffffffffffffffffffffffffff1673ffffffffffffffffffffffffffffffffffffffff166c0100000000000000000000000002815260140182815260200192505050604051602081830303815290604052805190602001209050610adb81888880806020026020016040519081016040528093929190818152602001838360200280828437600081840152601f19601f82011690508083019250505050505050878780806020026020016040519081016040528093929190818152602001838360200280828437600081840152601f19601f82011690508083019250505050505050868680806020026020016040519081016040528093929190818152602001838360200280828437600081840152601f19601f82011690508083019250505050505050610f69565b6001600360008a73ffffffffffffffffffffffffffffffffffffffff1673ffffffffffffffffffffffffffffffffffffffff16815260200190815260200160002060006101000a81548160ff0219169083151502179055506005600081548092919060010191905055506006600081548092919060010191905055507f8e15bf46bd11add443414ada75aa9592a4af68f3f2ec02ae3d49572f9843c2a888604051808273ffffffffffffffffffffffffffffffffffffffff1673ffffffffffffffffffffffffffffffffffffffff16815260200191505060405180910390a15050505050505050565b60065481565b600360008873ffffffffffffffffffffffffffffffffffffffff1673ffffffffffffffffffffffffffffffffffffffff16815260200190815260200160002060009054906101000a900460ff16610c89576040517f08c379a000000000000000000000000000000000000000000000000000000000815260040180806020018281038252600f8152602001807f4e6f7420612076616c696461746f72000000000000000000000000000000000081525060200191505060405180910390fd5b600160055411610c9857600080fd5b60008760065460405160200180807f72656d6f766500000000000000000000000000000000000000000000000000008152506006018373ffffffffffffffffffffffffffffffffffffffff1673ffffffffffffffffffffffffffffffffffffffff166c0100000000000000000000000002815260140182815260200192505050604051602081830303815290604052805190602001209050610dff81888880806020026020016040519081016040528093929190818152602001838360200280828437600081840152601f19601f82011690508083019250505050505050878780806020026020016040519081016040528093929190818152602001838360200280828437600081840152601f19601f82011690508083019250505050505050868680806020026020016040519081016040528093929190818152602001838360200280828437600081840152601f19601f82011690508083019250505050505050610f69565b600360008973ffffffffffffffffffffffffffffffffffffffff1673ffffffffffffffffffffffffffffffffffffffff16815260200190815260200160002060006101000a81549060ff0219169055600560008154809291906001900391905055506006600081548092919060010191905055507fb625c55cf7e37b54fcd18bc4edafdf3f4f9acd59a5ec824c77c795dcb2d6507088604051808273ffffffffffffffffffffffffffffffffffffffff1673ffffffffffffffffffffffffffffffffffffffff16815260200191505060405180910390a15050505050505050565b60016020528060005260406000206000915054906101000a900460ff1681565b610f0861085d565b610f5d576040517f08c379a00000000000000000000000000000000000000000000000000000000081526004018080602001828103825260268152602001806114256026913960400191505060405180910390fd5b610f66816112c3565b50565b60008351118015610f7b575081518351145b8015610f88575080518251145b610ffa576040517f08c379a000000000000000000000000000000000000000000000000000000000815260040180806020018281038252601a8152602001807f496e636f7272656374206e756d626572206f6620706172616d7300000000000081525060200191505060405180910390fd5b600460019054906101000a900460ff1660ff16600554600460009054906101000a900460ff1660ff16028161102b57fe5b04835110156110a2576040517f08c379a00000000000000000000000000000000000000000000000000000000081526004018080602001828103825260108152602001807f4e6f7420656e6f75676820766f7465730000000000000000000000000000000081525060200191505060405180910390fd5b60008460405160200180807f19457468657265756d205369676e6564204d6573736167653a0a333200000000815250601c01828152602001915050604051602081830303815290604052805190602001209050600084519050600080905060008090505b828110156112b957600060018589848151811061111f57fe5b602002602001015189858151811061113357fe5b602002602001015189868151811061114757fe5b602002602001015160405160008152602001604052604051808581526020018460ff1660ff1681526020018381526020018281526020019450505050506020604051602081039080840390855afa1580156111a6573d6000803e3d6000fd5b5050506020604051035190508273ffffffffffffffffffffffffffffffffffffffff168173ffffffffffffffffffffffffffffffffffffffff161180156112365750600360008273ffffffffffffffffffffffffffffffffffffffff1673ffffffffffffffffffffffffffffffffffffffff16815260200190815260200160002060009054906101000a900460ff165b6112a8576040517f08c379a00000000000000000000000000000000000000000000000000000000081526004018080602001828103825260198152602001807f4e6f74207369676e656420627920612076616c696461746f720000000000000081525060200191505060405180910390fd5b809250508080600101915050611106565b5050505050505050565b600073ffffffffffffffffffffffffffffffffffffffff168173ffffffffffffffffffffffffffffffffffffffff161415611366576040517f08c379a00000000000000000000000000000000000000000000000000000000081526004018080602001828103825260198152602001807f496e76616c6964206e6577206f776e657220616464726573730000000000000081525060200191505060405180910390fd5b8073ffffffffffffffffffffffffffffffffffffffff166000809054906101000a900473ffffffffffffffffffffffffffffffffffffffff1673ffffffffffffffffffffffffffffffffffffffff167f8be0079c531659141344cd1fd0a4f28419497f9722a3daafe3b4186f6b6457e060405160405180910390a3806000806101000a81548173ffffffffffffffffffffffffffffffffffffffff021916908373ffffffffffffffffffffffffffffffffffffffff1602179055505056fe4f6e6c7920746865206f776e65722063616e20706572666f726d207468697320616374696f6ea265627a7a72315820fd71e8e41af96576dd86c8ebbc15216432c110c634c2e1353cd5a3cee83a9d3d64736f6c63430005110032",
  "source": "pragma solidity ^0.5.0;\n\nimport \"../../common/ownership/Ownable.sol\";\nimport \"./DappchainECVerify.sol\";\n\ncontract DappchainValidatorManagerContract is Ownable {\n  using DappchainECVerify for bytes32;\n\n  mapping (address => bool) public allowedTokens;\n  mapping (address => uint256) public nonces;\n  mapping (address => bool) validators;\n\n  uint8 threshold_num;\n  uint8 threshold_denom;\n  uint256 public numValidators;\n  uint256 public nonce; // used for replay protection when adding/removing validators\n\n  event AddedValidator(address validator);\n  event RemovedValidator(address validator);\n\n  modifier onlyValidator() { require(checkValidator(msg.sender)); _; }\n\n  constructor (address[] memory _validators, uint8 _threshold_num, uint8 _threshold_denom) public {\n    uint256 length = _validators.length;\n    require(length > 0);\n\n    threshold_num = _threshold_num;\n    threshold_denom = _threshold_denom;\n    for (uint256 i = 0; i < length ; i++) {\n      require(_validators[i] != address(0));\n      validators[_validators[i]] = true;\n      emit AddedValidator(_validators[i]);\n    }\n    numValidators = _validators.length;\n  }\n\n  modifier isVerifiedByValidator(uint256 num, address contractAddress, bytes memory sig) {\n    // prevent replay attacks by adding the nonce in the sig\n    // if a validator signs an invalid nonce,\n    // it won't pass the signature verification\n    // since the nonce in the hash is stored in the contract\n    bytes32 hash = keccak256(abi.encodePacked(msg.sender, contractAddress, nonces[msg.sender], num));\n    address sender = hash.recover(sig);\n    require(validators[sender], \"Message not signed by a validator\");\n    _;\n    nonces[msg.sender]++; // increment nonce after execution\n  }\n\n  function checkValidator(address _address) public view returns (bool) {\n    // owner is a permanent validator\n    if (_address == owner()) {\n      return true;\n    }\n    return validators[_address];\n  }\n\n  function addValidator(address validator, uint8[] calldata v, bytes32[] calldata r, bytes32[] calldata s)\n    external\n  {\n    require(!validators[validator], \"Already a validator\");\n\n    // Check that we have enough signatures\n    bytes32 message = keccak256(abi.encodePacked(\"add\", validator, nonce));\n    checkThreshold(message, v, r, s);\n\n    // Add validator and increment nonce\n    validators[validator] = true;\n    numValidators++;\n    nonce++;\n    emit AddedValidator(validator);\n  }\n\n  function removeValidator(address validator, uint8[] calldata v, bytes32[] calldata r, bytes32[] calldata s)\n    external\n  {\n    require(validators[validator], \"Not a validator\");\n    // The last validator may not remove himself\n    require(numValidators > 1);\n\n    // Check that we have enough signatures\n    bytes32 message = keccak256(abi.encodePacked(\"remove\", validator, nonce));\n    checkThreshold(message, v, r, s);\n\n    delete validators[validator];\n    numValidators--;\n    nonce++;\n    emit RemovedValidator(validator);\n  }\n\n  // Can't pass bytes[] to use the whole sig due to ABI enc\n  //, so we need to send v,r,s params\n  function checkThreshold(bytes32 message, uint8[] memory v, bytes32[] memory r, bytes32[] memory s) private view {\n    require(v.length > 0 && v.length == r.length && r.length == s.length,\"Incorrect number of params\");\n    require(v.length >= (threshold_num * numValidators / threshold_denom ),\"Not enough votes\");\n\n    bytes32 hash = keccak256(abi.encodePacked(\"\\x19Ethereum Signed Message:\\n32\", message));\n    uint256 sig_length = v.length;\n\n    // Check that all addresess were from validators\n    // Prevent duplicates by requiring that the sender sigs\n    // get submitted in increasing order\n    // influenced by\n    // https://github.com/christianlundkvist/simple-multisig\n    address lastAdd = address(0);\n    for (uint256 i = 0; i < sig_length; i++) {\n      address signer = ecrecover(hash, v[i], r[i], s[i]);\n      require(signer > lastAdd && validators[signer], \"Not signed by a validator\");\n      lastAdd = signer;\n    }\n  }\n\n  function toggleToken(address _token) public onlyValidator {\n    allowedTokens[_token] = !allowedTokens[_token];\n  }\n}",
  "sourcePath": "/usr/src/app/contractGetter/contracts/dappchain/gateway/DappchainValidatorManagerContract.sol",
  "compiler": {
    "name": "solc",
    "version": "0.5.17+commit.d19bba13.Emscripten.clang"
  },
  "schemaVersion": "3.0.1",
  "updatedAt": "2021-07-04T20:38:31.819Z",
  "devdoc": {
    "methods": {
      "isOwner()": {
        "return": "true if `msg.sender` is the owner of the contract."
      },
      "owner()": {
        "return": "the address of the owner."
      },
      "renounceOwnership()": {
        "details": "Allows the current owner to relinquish control of the contract."
      },
      "transferOwnership(address)": {
        "details": "Allows the current owner to transfer control of the contract to a newOwner.",
        "params": {
          "newOwner": "The address to transfer ownership to."
        }
      }
    }
  },
  "userdoc": {
    "methods": {
      "renounceOwnership()": {
        "notice": "Renouncing to ownership will leave the contract without an owner. It will not be possible to call the functions with the `onlyOwner` modifier anymore."
      }
    }
  }
}