{
  "contractName": "DappchainTransferableDragon",
  "abi": [
    {
      "inputs": [
        {
          "internalType": "address",
          "name": "gateway",
          "type": "address"
        },
        {
          "internalType": "uint8",
          "name": "blockchainId",
          "type": "uint8"
        }
      ],
      "payable": false,
      "stateMutability": "nonpayable",
      "type": "constructor",
      "signature": "constructor"
    },
    {
      "anonymous": false,
      "inputs": [
        {
          "indexed": true,
          "internalType": "address",
          "name": "owner",
          "type": "address"
        },
        {
          "indexed": true,
          "internalType": "address",
          "name": "approved",
          "type": "address"
        },
        {
          "indexed": true,
          "internalType": "uint256",
          "name": "tokenId",
          "type": "uint256"
        }
      ],
      "name": "Approval",
      "type": "event",
      "signature": "0x8c5be1e5ebec7d5bd14f71427d1e84f3dd0314c0f7b2291e5b200ac8c7c3b925"
    },
    {
      "anonymous": false,
      "inputs": [
        {
          "indexed": true,
          "internalType": "address",
          "name": "owner",
          "type": "address"
        },
        {
          "indexed": true,
          "internalType": "address",
          "name": "operator",
          "type": "address"
        },
        {
          "indexed": false,
          "internalType": "bool",
          "name": "approved",
          "type": "bool"
        }
      ],
      "name": "ApprovalForAll",
      "type": "event",
      "signature": "0x17307eab39ab6107e8899845ad3d59bd9653f200f220920489ca2b5937696c31"
    },
    {
      "anonymous": false,
      "inputs": [
        {
          "indexed": false,
          "internalType": "uint256",
          "name": "dragonId",
          "type": "uint256"
        },
        {
          "indexed": false,
          "internalType": "uint256",
          "name": "genes",
          "type": "uint256"
        }
      ],
      "name": "NewDragon",
      "type": "event",
      "signature": "0x3045fac2aa90b666e53421f7c8b2245fae88d8c0bc2a2b62ff6283daea24f36f"
    },
    {
      "anonymous": false,
      "inputs": [
        {
          "indexed": true,
          "internalType": "address",
          "name": "previousOwner",
          "type": "address"
        },
        {
          "indexed": true,
          "internalType": "address",
          "name": "newOwner",
          "type": "address"
        }
      ],
      "name": "OwnershipTransferred",
      "type": "event",
      "signature": "0x8be0079c531659141344cd1fd0a4f28419497f9722a3daafe3b4186f6b6457e0"
    },
    {
      "anonymous": false,
      "inputs": [
        {
          "indexed": true,
          "internalType": "address",
          "name": "from",
          "type": "address"
        },
        {
          "indexed": true,
          "internalType": "address",
          "name": "to",
          "type": "address"
        },
        {
          "indexed": true,
          "internalType": "uint256",
          "name": "tokenId",
          "type": "uint256"
        }
      ],
      "name": "Transfer",
      "type": "event",
      "signature": "0xddf252ad1be2c89b69c2b068fc378daa952ba7f163c4a11628f55a4df523b3ef"
    },
    {
      "constant": false,
      "inputs": [
        {
          "internalType": "address",
          "name": "to",
          "type": "address"
        },
        {
          "internalType": "uint256",
          "name": "tokenId",
          "type": "uint256"
        }
      ],
      "name": "approve",
      "outputs": [],
      "payable": false,
      "stateMutability": "nonpayable",
      "type": "function",
      "signature": "0x095ea7b3"
    },
    {
      "constant": true,
      "inputs": [
        {
          "internalType": "address",
          "name": "owner",
          "type": "address"
        }
      ],
      "name": "balanceOf",
      "outputs": [
        {
          "internalType": "uint256",
          "name": "",
          "type": "uint256"
        }
      ],
      "payable": false,
      "stateMutability": "view",
      "type": "function",
      "signature": "0x70a08231"
    },
    {
      "constant": false,
      "inputs": [
        {
          "internalType": "string",
          "name": "_name",
          "type": "string"
        },
        {
          "internalType": "uint64",
          "name": "_creationTime",
          "type": "uint64"
        },
        {
          "internalType": "uint32",
          "name": "_dadId",
          "type": "uint32"
        },
        {
          "internalType": "uint32",
          "name": "_motherId",
          "type": "uint32"
        }
      ],
      "name": "createDragon",
      "outputs": [],
      "payable": false,
      "stateMutability": "nonpayable",
      "type": "function",
      "signature": "0x0b4cb527"
    },
    {
      "constant": true,
      "inputs": [
        {
          "internalType": "uint256",
          "name": "",
          "type": "uint256"
        }
      ],
      "name": "dragonIndexToOwner",
      "outputs": [
        {
          "internalType": "address",
          "name": "",
          "type": "address"
        }
      ],
      "payable": false,
      "stateMutability": "view",
      "type": "function",
      "signature": "0x5d64aa68"
    },
    {
      "constant": true,
      "inputs": [
        {
          "internalType": "uint256",
          "name": "tokenId",
          "type": "uint256"
        }
      ],
      "name": "getApproved",
      "outputs": [
        {
          "internalType": "address",
          "name": "",
          "type": "address"
        }
      ],
      "payable": false,
      "stateMutability": "view",
      "type": "function",
      "signature": "0x081812fc"
    },
    {
      "constant": true,
      "inputs": [
        {
          "internalType": "uint256",
          "name": "_dragonId",
          "type": "uint256"
        }
      ],
      "name": "getDragonById",
      "outputs": [
        {
          "internalType": "bytes32",
          "name": "name",
          "type": "bytes32"
        },
        {
          "internalType": "uint32",
          "name": "dadId",
          "type": "uint32"
        },
        {
          "internalType": "uint32",
          "name": "motherId",
          "type": "uint32"
        },
        {
          "internalType": "uint32",
          "name": "currentExperience",
          "type": "uint32"
        },
        {
          "internalType": "uint16",
          "name": "health",
          "type": "uint16"
        },
        {
          "internalType": "uint16",
          "name": "strength",
          "type": "uint16"
        },
        {
          "internalType": "uint16",
          "name": "agility",
          "type": "uint16"
        },
        {
          "internalType": "uint16",
          "name": "fortitude",
          "type": "uint16"
        }
      ],
      "payable": false,
      "stateMutability": "view",
      "type": "function",
      "signature": "0xc9cf5570"
    },
    {
      "constant": true,
      "inputs": [
        {
          "internalType": "uint256",
          "name": "_dragonId",
          "type": "uint256"
        }
      ],
      "name": "getDragonName",
      "outputs": [
        {
          "internalType": "bytes32",
          "name": "",
          "type": "bytes32"
        }
      ],
      "payable": false,
      "stateMutability": "view",
      "type": "function",
      "signature": "0xb1b0473c"
    },
    {
      "constant": true,
      "inputs": [
        {
          "internalType": "uint256",
          "name": "_dragonId",
          "type": "uint256"
        }
      ],
      "name": "getDragonOwner",
      "outputs": [
        {
          "internalType": "address",
          "name": "",
          "type": "address"
        }
      ],
      "payable": false,
      "stateMutability": "view",
      "type": "function",
      "signature": "0x1407b500"
    },
    {
      "constant": true,
      "inputs": [
        {
          "internalType": "address",
          "name": "_owner",
          "type": "address"
        }
      ],
      "name": "getDragonsCountByOwner",
      "outputs": [
        {
          "internalType": "uint256",
          "name": "",
          "type": "uint256"
        }
      ],
      "payable": false,
      "stateMutability": "view",
      "type": "function",
      "signature": "0xd9b6e2f7"
    },
    {
      "constant": true,
      "inputs": [
        {
          "internalType": "address",
          "name": "_owner",
          "type": "address"
        }
      ],
      "name": "getDragonsIdsByOwner",
      "outputs": [
        {
          "internalType": "uint256[]",
          "name": "",
          "type": "uint256[]"
        }
      ],
      "payable": false,
      "stateMutability": "view",
      "type": "function",
      "signature": "0x0469e8ac"
    },
    {
      "constant": true,
      "inputs": [
        {
          "internalType": "uint256",
          "name": "_dragonId",
          "type": "uint256"
        }
      ],
      "name": "getParents",
      "outputs": [
        {
          "internalType": "uint256",
          "name": "motherId",
          "type": "uint256"
        },
        {
          "internalType": "uint256",
          "name": "dadId",
          "type": "uint256"
        }
      ],
      "payable": false,
      "stateMutability": "view",
      "type": "function",
      "signature": "0x242a0087"
    },
    {
      "constant": true,
      "inputs": [
        {
          "internalType": "uint256",
          "name": "id",
          "type": "uint256"
        }
      ],
      "name": "getVisualAttributes",
      "outputs": [
        {
          "internalType": "uint16",
          "name": "head",
          "type": "uint16"
        },
        {
          "internalType": "uint16",
          "name": "body",
          "type": "uint16"
        },
        {
          "internalType": "uint16",
          "name": "wings",
          "type": "uint16"
        }
      ],
      "payable": false,
      "stateMutability": "view",
      "type": "function",
      "signature": "0x2014a8be"
    },
    {
      "constant": true,
      "inputs": [
        {
          "internalType": "address",
          "name": "owner",
          "type": "address"
        },
        {
          "internalType": "address",
          "name": "operator",
          "type": "address"
        }
      ],
      "name": "isApprovedForAll",
      "outputs": [
        {
          "internalType": "bool",
          "name": "",
          "type": "bool"
        }
      ],
      "payable": false,
      "stateMutability": "view",
      "type": "function",
      "signature": "0xe985e9c5"
    },
    {
      "constant": true,
      "inputs": [
        {
          "internalType": "uint256",
          "name": "_dragonId",
          "type": "uint256"
        }
      ],
      "name": "isEgg",
      "outputs": [
        {
          "internalType": "bool",
          "name": "",
          "type": "bool"
        }
      ],
      "payable": false,
      "stateMutability": "view",
      "type": "function",
      "signature": "0xdfd4e4a4"
    },
    {
      "constant": true,
      "inputs": [],
      "name": "isOwner",
      "outputs": [
        {
          "internalType": "bool",
          "name": "",
          "type": "bool"
        }
      ],
      "payable": false,
      "stateMutability": "view",
      "type": "function",
      "signature": "0x8f32d59b"
    },
    {
      "constant": true,
      "inputs": [],
      "name": "owner",
      "outputs": [
        {
          "internalType": "address",
          "name": "",
          "type": "address"
        }
      ],
      "payable": false,
      "stateMutability": "view",
      "type": "function",
      "signature": "0x8da5cb5b"
    },
    {
      "constant": true,
      "inputs": [
        {
          "internalType": "uint256",
          "name": "tokenId",
          "type": "uint256"
        }
      ],
      "name": "ownerOf",
      "outputs": [
        {
          "internalType": "address",
          "name": "",
          "type": "address"
        }
      ],
      "payable": false,
      "stateMutability": "view",
      "type": "function",
      "signature": "0x6352211e"
    },
    {
      "constant": false,
      "inputs": [],
      "name": "renounceOwnership",
      "outputs": [],
      "payable": false,
      "stateMutability": "nonpayable",
      "type": "function",
      "signature": "0x715018a6"
    },
    {
      "constant": false,
      "inputs": [
        {
          "internalType": "address",
          "name": "from",
          "type": "address"
        },
        {
          "internalType": "address",
          "name": "to",
          "type": "address"
        },
        {
          "internalType": "uint256",
          "name": "tokenId",
          "type": "uint256"
        }
      ],
      "name": "safeTransferFrom",
      "outputs": [],
      "payable": false,
      "stateMutability": "nonpayable",
      "type": "function",
      "signature": "0x42842e0e"
    },
    {
      "constant": false,
      "inputs": [
        {
          "internalType": "address",
          "name": "from",
          "type": "address"
        },
        {
          "internalType": "address",
          "name": "to",
          "type": "address"
        },
        {
          "internalType": "uint256",
          "name": "tokenId",
          "type": "uint256"
        },
        {
          "internalType": "bytes",
          "name": "_data",
          "type": "bytes"
        }
      ],
      "name": "safeTransferFrom",
      "outputs": [],
      "payable": false,
      "stateMutability": "nonpayable",
      "type": "function",
      "signature": "0xb88d4fde"
    },
    {
      "constant": false,
      "inputs": [
        {
          "internalType": "address",
          "name": "to",
          "type": "address"
        },
        {
          "internalType": "bool",
          "name": "approved",
          "type": "bool"
        }
      ],
      "name": "setApprovalForAll",
      "outputs": [],
      "payable": false,
      "stateMutability": "nonpayable",
      "type": "function",
      "signature": "0xa22cb465"
    },
    {
      "constant": false,
      "inputs": [
        {
          "internalType": "address",
          "name": "genesLaboratoryAddress",
          "type": "address"
        }
      ],
      "name": "setGenesLaboratoryAddress",
      "outputs": [],
      "payable": false,
      "stateMutability": "nonpayable",
      "type": "function",
      "signature": "0x98ae481d"
    },
    {
      "constant": false,
      "inputs": [
        {
          "internalType": "uint256",
          "name": "_dragonId",
          "type": "uint256"
        },
        {
          "internalType": "string",
          "name": "_name",
          "type": "string"
        }
      ],
      "name": "setName",
      "outputs": [],
      "payable": false,
      "stateMutability": "nonpayable",
      "type": "function",
      "signature": "0xfe55932a"
    },
    {
      "constant": true,
      "inputs": [
        {
          "internalType": "bytes4",
          "name": "interfaceId",
          "type": "bytes4"
        }
      ],
      "name": "supportsInterface",
      "outputs": [
        {
          "internalType": "bool",
          "name": "",
          "type": "bool"
        }
      ],
      "payable": false,
      "stateMutability": "view",
      "type": "function",
      "signature": "0x01ffc9a7"
    },
    {
      "constant": true,
      "inputs": [
        {
          "internalType": "uint256",
          "name": "index",
          "type": "uint256"
        }
      ],
      "name": "tokenByIndex",
      "outputs": [
        {
          "internalType": "uint256",
          "name": "",
          "type": "uint256"
        }
      ],
      "payable": false,
      "stateMutability": "view",
      "type": "function",
      "signature": "0x4f6ccce7"
    },
    {
      "constant": true,
      "inputs": [
        {
          "internalType": "address",
          "name": "owner",
          "type": "address"
        },
        {
          "internalType": "uint256",
          "name": "index",
          "type": "uint256"
        }
      ],
      "name": "tokenOfOwnerByIndex",
      "outputs": [
        {
          "internalType": "uint256",
          "name": "",
          "type": "uint256"
        }
      ],
      "payable": false,
      "stateMutability": "view",
      "type": "function",
      "signature": "0x2f745c59"
    },
    {
      "constant": true,
      "inputs": [
        {
          "internalType": "address",
          "name": "owner",
          "type": "address"
        }
      ],
      "name": "tokensIdsOwnedBy",
      "outputs": [
        {
          "internalType": "uint256[]",
          "name": "",
          "type": "uint256[]"
        }
      ],
      "payable": false,
      "stateMutability": "view",
      "type": "function",
      "signature": "0x8ec251c3"
    },
    {
      "constant": true,
      "inputs": [],
      "name": "totalSupply",
      "outputs": [
        {
          "internalType": "uint256",
          "name": "",
          "type": "uint256"
        }
      ],
      "payable": false,
      "stateMutability": "view",
      "type": "function",
      "signature": "0x18160ddd"
    },
    {
      "constant": false,
      "inputs": [
        {
          "internalType": "address",
          "name": "from",
          "type": "address"
        },
        {
          "internalType": "address",
          "name": "to",
          "type": "address"
        },
        {
          "internalType": "uint256",
          "name": "tokenId",
          "type": "uint256"
        }
      ],
      "name": "transferFrom",
      "outputs": [],
      "payable": false,
      "stateMutability": "nonpayable",
      "type": "function",
      "signature": "0x23b872dd"
    },
    {
      "constant": false,
      "inputs": [
        {
          "internalType": "address",
          "name": "newOwner",
          "type": "address"
        }
      ],
      "name": "transferOwnership",
      "outputs": [],
      "payable": false,
      "stateMutability": "nonpayable",
      "type": "function",
      "signature": "0xf2fde38b"
    },
    {
      "constant": false,
      "inputs": [
        {
          "internalType": "address",
          "name": "gateway",
          "type": "address"
        }
      ],
      "name": "setGatewayAddress",
      "outputs": [],
      "payable": false,
      "stateMutability": "nonpayable",
      "type": "function",
      "signature": "0xa35ff076"
    },
    {
      "constant": false,
      "inputs": [
        {
          "internalType": "address",
          "name": "receiver",
          "type": "address"
        },
        {
          "internalType": "uint256",
          "name": "_tokenId",
          "type": "uint256"
        },
        {
          "internalType": "bytes",
          "name": "_data",
          "type": "bytes"
        }
      ],
      "name": "retrieveToken",
      "outputs": [],
      "payable": false,
      "stateMutability": "nonpayable",
      "type": "function",
      "signature": "0x6fbb7045"
    },
    {
      "constant": false,
      "inputs": [
        {
          "internalType": "address",
          "name": "owner",
          "type": "address"
        },
        {
          "internalType": "address",
          "name": "mainnetAddress",
          "type": "address"
        }
      ],
      "name": "undoMapping",
      "outputs": [],
      "payable": false,
      "stateMutability": "nonpayable",
      "type": "function",
      "signature": "0xa8def880"
    },
    {
      "constant": false,
      "inputs": [
        {
          "internalType": "address",
          "name": "mainnetAddress",
          "type": "address"
        }
      ],
      "name": "mapContractToMainnet",
      "outputs": [],
      "payable": false,
      "stateMutability": "nonpayable",
      "type": "function",
      "signature": "0x62635ed7"
    },
    {
      "constant": true,
      "inputs": [
        {
          "internalType": "address",
          "name": "mainnetAddress",
          "type": "address"
        }
      ],
      "name": "isMap",
      "outputs": [
        {
          "internalType": "bool",
          "name": "",
          "type": "bool"
        }
      ],
      "payable": false,
      "stateMutability": "view",
      "type": "function",
      "signature": "0x0d6dd812"
    },
    {
      "constant": false,
      "inputs": [
        {
          "internalType": "uint256",
          "name": "_tokenId",
          "type": "uint256"
        }
      ],
      "name": "transferToGateway",
      "outputs": [],
      "payable": false,
      "stateMutability": "nonpayable",
      "type": "function",
      "signature": "0xbef36c49"
    }
  ],
  "bytecode": "0x60806040526000600c60006101000a81548160ff021916908360ff1602179055503480156200002d57600080fd5b5060405162005da838038062005da8833981810160405260408110156200005357600080fd5b8101908080519060200190929190805190602001909291905050508181620000ad6301ffc9a77c010000000000000000000000000000000000000000000000000000000002620002ef640100000000026401000000009004565b620000ea6380ac58cd7c010000000000000000000000000000000000000000000000000000000002620002ef640100000000026401000000009004565b6200012763780e9d637c010000000000000000000000000000000000000000000000000000000002620002ef640100000000026401000000009004565b33600960006101000a81548173ffffffffffffffffffffffffffffffffffffffff021916908373ffffffffffffffffffffffffffffffffffffffff160217905550600960009054906101000a900473ffffffffffffffffffffffffffffffffffffffff1673ffffffffffffffffffffffffffffffffffffffff16600073ffffffffffffffffffffffffffffffffffffffff167f8be0079c531659141344cd1fd0a4f28419497f9722a3daafe3b4186f6b6457e060405160405180910390a3600073ffffffffffffffffffffffffffffffffffffffff168273ffffffffffffffffffffffffffffffffffffffff16141562000289576040517f08c379a00000000000000000000000000000000000000000000000000000000081526004018080602001828103825260178152602001807f496e76616c69642067617465776179206164647265737300000000000000000081525060200191505060405180910390fd5b81601060006101000a81548173ffffffffffffffffffffffffffffffffffffffff021916908373ffffffffffffffffffffffffffffffffffffffff16021790555080600c60006101000a81548160ff021916908360ff16021790555050505050620003ab565b63ffffffff7c010000000000000000000000000000000000000000000000000000000002817bffffffffffffffffffffffffffffffffffffffffffffffffffffffff191614156200033f57600080fd5b6001600080837bffffffffffffffffffffffffffffffffffffffffffffffffffffffff19167bffffffffffffffffffffffffffffffffffffffffffffffffffffffff1916815260200190815260200160002060006101000a81548160ff02191690831515021790555050565b6159ed80620003bb6000396000f3fe608060405234801561001057600080fd5b5060043610610239576000357c01000000000000000000000000000000000000000000000000000000009004806370a0823111610142578063b1b0473c116100ca578063d9b6e2f711610099578063d9b6e2f714610ed4578063dfd4e4a414610f2c578063e985e9c514610f72578063f2fde38b14610fee578063fe55932a1461103257610239565b8063b1b0473c14610ca8578063b88d4fde14610cea578063bef36c4914610def578063c9cf557014610e1d57610239565b80638f32d59b116101115780638f32d59b14610b4a57806398ae481d14610b6c578063a22cb46514610bb0578063a35ff07614610c00578063a8def88014610c4457610239565b806370a0823114610a05578063715018a614610a5d5780638da5cb5b14610a675780638ec251c314610ab157610239565b806323b872dd116101c55780634f6ccce7116101945780634f6ccce7146107be5780635d64aa681461080057806362635ed71461086e5780636352211e146108b25780636fbb70451461092057610239565b806323b872dd14610637578063242a0087146106a55780632f745c59146106ee57806342842e0e1461075057610239565b80630b4cb5271161020c5780630b4cb527146103f85780630d6dd812146104e75780631407b5001461054357806318160ddd146105b15780632014a8be146105cf57610239565b806301ffc9a71461023e5780630469e8ac146102a3578063081812fc1461033c578063095ea7b3146103aa575b600080fd5b6102896004803603602081101561025457600080fd5b8101908080357bffffffffffffffffffffffffffffffffffffffffffffffffffffffff191690602001909291905050506110b5565b604051808215151515815260200191505060405180910390f35b6102e5600480360360208110156102b957600080fd5b81019080803573ffffffffffffffffffffffffffffffffffffffff16906020019092919050505061111c565b6040518080602001828103825283818151815260200191508051906020019060200280838360005b8381101561032857808201518184015260208101905061030d565b505050509050019250505060405180910390f35b6103686004803603602081101561035257600080fd5b81019080803590602001909291905050506111b3565b604051808273ffffffffffffffffffffffffffffffffffffffff1673ffffffffffffffffffffffffffffffffffffffff16815260200191505060405180910390f35b6103f6600480360360408110156103c057600080fd5b81019080803573ffffffffffffffffffffffffffffffffffffffff16906020019092919080359060200190929190505050611202565b005b6104e56004803603608081101561040e57600080fd5b810190808035906020019064010000000081111561042b57600080fd5b82018360208201111561043d57600080fd5b8035906020019184600183028401116401000000008311171561045f57600080fd5b91908080601f016020809104026020016040519081016040528093929190818152602001838380828437600081840152601f19601f820116905080830192505050505050509192919290803567ffffffffffffffff169060200190929190803563ffffffff169060200190929190803563ffffffff169060200190929190505050611343565b005b610529600480360360208110156104fd57600080fd5b81019080803573ffffffffffffffffffffffffffffffffffffffff1690602001909291905050506114e9565b604051808215151515815260200191505060405180910390f35b61056f6004803603602081101561055957600080fd5b8101908080359060200190929190505050611622565b604051808273ffffffffffffffffffffffffffffffffffffffff1673ffffffffffffffffffffffffffffffffffffffff16815260200191505060405180910390f35b6105b9611634565b6040518082815260200191505060405180910390f35b6105fb600480360360208110156105e557600080fd5b8101908080359060200190929190505050611641565b604051808461ffff1661ffff1681526020018361ffff1661ffff1681526020018261ffff1661ffff168152602001935050505060405180910390f35b6106a36004803603606081101561064d57600080fd5b81019080803573ffffffffffffffffffffffffffffffffffffffff169060200190929190803573ffffffffffffffffffffffffffffffffffffffff1690602001909291908035906020019092919050505061175a565b005b6106d1600480360360208110156106bb57600080fd5b81019080803590602001909291905050506117c9565b604051808381526020018281526020019250505060405180910390f35b61073a6004803603604081101561070457600080fd5b81019080803573ffffffffffffffffffffffffffffffffffffffff16906020019092919080359060200190929190505050611831565b6040518082815260200191505060405180910390f35b6107bc6004803603606081101561076657600080fd5b81019080803573ffffffffffffffffffffffffffffffffffffffff169060200190929190803573ffffffffffffffffffffffffffffffffffffffff169060200190929190803590602001909291905050506118a4565b005b6107ea600480360360208110156107d457600080fd5b81019080803590602001909291905050506118c4565b6040518082815260200191505060405180910390f35b61082c6004803603602081101561081657600080fd5b81019080803590602001909291905050506118f8565b604051808273ffffffffffffffffffffffffffffffffffffffff1673ffffffffffffffffffffffffffffffffffffffff16815260200191505060405180910390f35b6108b06004803603602081101561088457600080fd5b81019080803573ffffffffffffffffffffffffffffffffffffffff16906020019092919050505061192b565b005b6108de600480360360208110156108c857600080fd5b8101908080359060200190929190505050611b16565b604051808273ffffffffffffffffffffffffffffffffffffffff1673ffffffffffffffffffffffffffffffffffffffff16815260200191505060405180910390f35b610a036004803603606081101561093657600080fd5b81019080803573ffffffffffffffffffffffffffffffffffffffff169060200190929190803590602001909291908035906020019064010000000081111561097d57600080fd5b82018360208201111561098f57600080fd5b803590602001918460018302840111640100000000831117156109b157600080fd5b91908080601f016020809104026020016040519081016040528093929190818152602001838380828437600081840152601f19601f820116905080830192505050505050509192919290505050611b92565b005b610a4760048036036020811015610a1b57600080fd5b81019080803573ffffffffffffffffffffffffffffffffffffffff169060200190929190505050611cce565b6040518082815260200191505060405180910390f35b610a65611dc0565b005b610a6f611ede565b604051808273ffffffffffffffffffffffffffffffffffffffff1673ffffffffffffffffffffffffffffffffffffffff16815260200191505060405180910390f35b610af360048036036020811015610ac757600080fd5b81019080803573ffffffffffffffffffffffffffffffffffffffff169060200190929190505050611f08565b6040518080602001828103825283818151815260200191508051906020019060200280838360005b83811015610b36578082015181840152602081019050610b1b565b505050509050019250505060405180910390f35b610b52612042565b604051808215151515815260200191505060405180910390f35b610bae60048036036020811015610b8257600080fd5b81019080803573ffffffffffffffffffffffffffffffffffffffff16906020019092919050505061209a565b005b610bfe60048036036040811015610bc657600080fd5b81019080803573ffffffffffffffffffffffffffffffffffffffff1690602001909291908035151590602001909291905050506121c1565b005b610c4260048036036020811015610c1657600080fd5b81019080803573ffffffffffffffffffffffffffffffffffffffff1690602001909291905050506122fb565b005b610ca660048036036040811015610c5a57600080fd5b81019080803573ffffffffffffffffffffffffffffffffffffffff169060200190929190803573ffffffffffffffffffffffffffffffffffffffff169060200190929190505050612422565b005b610cd460048036036020811015610cbe57600080fd5b810190808035906020019092919050505061260d565b6040518082815260200191505060405180910390f35b610ded60048036036080811015610d0057600080fd5b81019080803573ffffffffffffffffffffffffffffffffffffffff169060200190929190803573ffffffffffffffffffffffffffffffffffffffff1690602001909291908035906020019092919080359060200190640100000000811115610d6757600080fd5b820183602082011115610d7957600080fd5b80359060200191846001830284011164010000000083111715610d9b57600080fd5b91908080601f016020809104026020016040519081016040528093929190818152602001838380828437600081840152601f19601f820116905080830192505050505050509192919290505050612635565b005b610e1b60048036036020811015610e0557600080fd5b81019080803590602001909291905050506126a7565b005b610e4960048036036020811015610e3357600080fd5b8101908080359060200190929190505050612cd5565b604051808981526020018863ffffffff1663ffffffff1681526020018763ffffffff1663ffffffff1681526020018663ffffffff1663ffffffff1681526020018561ffff1661ffff1681526020018461ffff1661ffff1681526020018361ffff1661ffff1681526020018261ffff1661ffff1681526020019850505050505050505060405180910390f35b610f1660048036036020811015610eea57600080fd5b81019080803573ffffffffffffffffffffffffffffffffffffffff169060200190929190505050612dac565b6040518082815260200191505060405180910390f35b610f5860048036036020811015610f4257600080fd5b8101908080359060200190929190505050612dbe565b604051808215151515815260200191505060405180910390f35b610fd460048036036040811015610f8857600080fd5b81019080803573ffffffffffffffffffffffffffffffffffffffff169060200190929190803573ffffffffffffffffffffffffffffffffffffffff169060200190929190505050612e2c565b604051808215151515815260200191505060405180910390f35b6110306004803603602081101561100457600080fd5b81019080803573ffffffffffffffffffffffffffffffffffffffff169060200190929190505050612ec0565b005b6110b36004803603604081101561104857600080fd5b81019080803590602001909291908035906020019064010000000081111561106f57600080fd5b82018360208201111561108157600080fd5b803590602001918460018302840111640100000000831117156110a357600080fd5b9091929391929390505050612f29565b005b6000806000837bffffffffffffffffffffffffffffffffffffffffffffffffffffffff19167bffffffffffffffffffffffffffffffffffffffffffffffffffffffff1916815260200190815260200160002060009054906101000a900460ff169050919050565b6060600560008373ffffffffffffffffffffffffffffffffffffffff1673ffffffffffffffffffffffffffffffffffffffff1681526020019081526020016000208054806020026020016040519081016040528092919081815260200182805480156111a757602002820191906000526020600020905b815481526020019060010190808311611193575b50505050509050919050565b60006111be826130ce565b6111c757600080fd5b6002600083815260200190815260200160002060009054906101000a900473ffffffffffffffffffffffffffffffffffffffff169050919050565b600061120d82611b16565b90508073ffffffffffffffffffffffffffffffffffffffff168373ffffffffffffffffffffffffffffffffffffffff16141561124857600080fd5b8073ffffffffffffffffffffffffffffffffffffffff163373ffffffffffffffffffffffffffffffffffffffff16148061128857506112878133612e2c565b5b61129157600080fd5b826002600084815260200190815260200160002060006101000a81548173ffffffffffffffffffffffffffffffffffffffff021916908373ffffffffffffffffffffffffffffffffffffffff160217905550818373ffffffffffffffffffffffffffffffffffffffff168273ffffffffffffffffffffffffffffffffffffffff167f8c5be1e5ebec7d5bd14f71427d1e84f3dd0314c0f7b2291e5b200ac8c7c3b92560405160405180910390a4505050565b6000806000806000806000601160009054906101000a900473ffffffffffffffffffffffffffffffffffffffff1673ffffffffffffffffffffffffffffffffffffffff1663355916a46040518163ffffffff167c010000000000000000000000000000000000000000000000000000000002815260040160e06040518083038186803b1580156113d257600080fd5b505afa1580156113e6573d6000803e3d6000fd5b505050506040513d60e08110156113fc57600080fd5b8101908080519060200190929190805190602001909291908051906020019092919080519060200190929190805190602001909291908051906020019092919080519060200190929190505050965096509650965096509650965060006114628c613140565b9050600061148b89838e8e8e60008a8f8f8f8f8e600c60009054906101000a900460ff1661316c565b90506114973382613405565b7f3045fac2aa90b666e53421f7c8b2245fae88d8c0bc2a2b62ff6283daea24f36f818a60019004604051808381526020018281526020019250505060405180910390a150505050505050505050505050565b60008073ffffffffffffffffffffffffffffffffffffffff168273ffffffffffffffffffffffffffffffffffffffff16141561158d576040517f08c379a00000000000000000000000000000000000000000000000000000000081526004018080602001828103825260178152602001807f496e76616c6964206d61696e6e6574206164647265737300000000000000000081525060200191505060405180910390fd5b8173ffffffffffffffffffffffffffffffffffffffff16601260003373ffffffffffffffffffffffffffffffffffffffff1673ffffffffffffffffffffffffffffffffffffffff16815260200190815260200160002060009054906101000a900473ffffffffffffffffffffffffffffffffffffffff1673ffffffffffffffffffffffffffffffffffffffff16149050919050565b600061162d82611b16565b9050919050565b6000600780549050905090565b600080600080600a858154811061165457fe5b90600052602060002090600402019050601160009054906101000a900473ffffffffffffffffffffffffffffffffffffffff1673ffffffffffffffffffffffffffffffffffffffff166391926cff82600001546040518263ffffffff167c01000000000000000000000000000000000000000000000000000000000281526004018082815260200191505060606040518083038186803b1580156116f757600080fd5b505afa15801561170b573d6000803e3d6000fd5b505050506040513d606081101561172157600080fd5b81019080805190602001909291908051906020019092919080519060200190929190505050809450819550829650505050509193909250565b6117643382613426565b6117b9576040517f08c379a00000000000000000000000000000000000000000000000000000000081526004018080602001828103825260328152602001806157f76032913960400191505060405180910390fd5b6117c48383836134bb565b505050565b6000806000600a84815481106117db57fe5b9060005260206000209060040201905080600201600c9054906101000a900463ffffffff168160020160089054906101000a900463ffffffff168163ffffffff1691508063ffffffff1690509250925050915091565b600061183c83611cce565b821061184757600080fd5b600560008473ffffffffffffffffffffffffffffffffffffffff1673ffffffffffffffffffffffffffffffffffffffff168152602001908152602001600020828154811061189157fe5b9060005260206000200154905092915050565b6118bf83838360405180602001604052806000815250612635565b505050565b60006118ce611634565b82106118d957600080fd5b600782815481106118e657fe5b90600052602060002001549050919050565b600b6020528060005260406000206000915054906101000a900473ffffffffffffffffffffffffffffffffffffffff1681565b600073ffffffffffffffffffffffffffffffffffffffff168173ffffffffffffffffffffffffffffffffffffffff1614156119b1576040517f08c379a00000000000000000000000000000000000000000000000000000000081526004018080602001828103825260248152602001806158cd6024913960400191505060405180910390fd5b600073ffffffffffffffffffffffffffffffffffffffff16601260003373ffffffffffffffffffffffffffffffffffffffff1673ffffffffffffffffffffffffffffffffffffffff16815260200190815260200160002060009054906101000a900473ffffffffffffffffffffffffffffffffffffffff1673ffffffffffffffffffffffffffffffffffffffff1614611a95576040517f08c379a00000000000000000000000000000000000000000000000000000000081526004018080602001828103825260398152602001806158736039913960400191505060405180910390fd5b80601260003373ffffffffffffffffffffffffffffffffffffffff1673ffffffffffffffffffffffffffffffffffffffff16815260200190815260200160002060006101000a81548173ffffffffffffffffffffffffffffffffffffffff021916908373ffffffffffffffffffffffffffffffffffffffff16021790555050565b6000806001600084815260200190815260200160002060009054906101000a900473ffffffffffffffffffffffffffffffffffffffff169050600073ffffffffffffffffffffffffffffffffffffffff168173ffffffffffffffffffffffffffffffffffffffff161415611b8957600080fd5b80915050919050565b601060009054906101000a900473ffffffffffffffffffffffffffffffffffffffff1673ffffffffffffffffffffffffffffffffffffffff163373ffffffffffffffffffffffffffffffffffffffff1614611c38576040517f08c379a000000000000000000000000000000000000000000000000000000000815260040180806020018281038252603181526020018061592d6031913960400191505060405180910390fd5b600073ffffffffffffffffffffffffffffffffffffffff168373ffffffffffffffffffffffffffffffffffffffff161415611cbe576040517f08c379a00000000000000000000000000000000000000000000000000000000081526004018080602001828103825260228152602001806157536022913960400191505060405180910390fd5b611cc98383836134df565b505050565b60008073ffffffffffffffffffffffffffffffffffffffff168273ffffffffffffffffffffffffffffffffffffffff161415611d72576040517f08c379a000000000000000000000000000000000000000000000000000000000815260040180806020018281038252600f8152602001807f496e76616c69642061646472657373000000000000000000000000000000000081525060200191505060405180910390fd5b611db9600360008473ffffffffffffffffffffffffffffffffffffffff1673ffffffffffffffffffffffffffffffffffffffff16815260200190815260200160002061364b565b9050919050565b611dc8612042565b611e1d576040517f08c379a00000000000000000000000000000000000000000000000000000000081526004018080602001828103825260268152602001806157af6026913960400191505060405180910390fd5b600073ffffffffffffffffffffffffffffffffffffffff16600960009054906101000a900473ffffffffffffffffffffffffffffffffffffffff1673ffffffffffffffffffffffffffffffffffffffff167f8be0079c531659141344cd1fd0a4f28419497f9722a3daafe3b4186f6b6457e060405160405180910390a36000600960006101000a81548173ffffffffffffffffffffffffffffffffffffffff021916908373ffffffffffffffffffffffffffffffffffffffff160217905550565b6000600960009054906101000a900473ffffffffffffffffffffffffffffffffffffffff16905090565b6060600073ffffffffffffffffffffffffffffffffffffffff168273ffffffffffffffffffffffffffffffffffffffff161415611fad576040517f08c379a000000000000000000000000000000000000000000000000000000000815260040180806020018281038252600f8152602001807f496e76616c69642061646472657373000000000000000000000000000000000081525060200191505060405180910390fd5b600560008373ffffffffffffffffffffffffffffffffffffffff1673ffffffffffffffffffffffffffffffffffffffff16815260200190815260200160002080548060200260200160405190810160405280929190818152602001828054801561203657602002820191906000526020600020905b815481526020019060010190808311612022575b50505050509050919050565b6000600960009054906101000a900473ffffffffffffffffffffffffffffffffffffffff1673ffffffffffffffffffffffffffffffffffffffff163373ffffffffffffffffffffffffffffffffffffffff1614905090565b6120a2612042565b6120f7576040517f08c379a00000000000000000000000000000000000000000000000000000000081526004018080602001828103825260268152602001806157af6026913960400191505060405180910390fd5b600073ffffffffffffffffffffffffffffffffffffffff168173ffffffffffffffffffffffffffffffffffffffff16141561217d576040517f08c379a00000000000000000000000000000000000000000000000000000000081526004018080602001828103825260218152602001806158ac6021913960400191505060405180910390fd5b80601160006101000a81548173ffffffffffffffffffffffffffffffffffffffff021916908373ffffffffffffffffffffffffffffffffffffffff16021790555050565b3373ffffffffffffffffffffffffffffffffffffffff168273ffffffffffffffffffffffffffffffffffffffff1614156121fa57600080fd5b80600460003373ffffffffffffffffffffffffffffffffffffffff1673ffffffffffffffffffffffffffffffffffffffff16815260200190815260200160002060008473ffffffffffffffffffffffffffffffffffffffff1673ffffffffffffffffffffffffffffffffffffffff16815260200190815260200160002060006101000a81548160ff0219169083151502179055508173ffffffffffffffffffffffffffffffffffffffff163373ffffffffffffffffffffffffffffffffffffffff167f17307eab39ab6107e8899845ad3d59bd9653f200f220920489ca2b5937696c3183604051808215151515815260200191505060405180910390a35050565b612303612042565b612358576040517f08c379a00000000000000000000000000000000000000000000000000000000081526004018080602001828103825260268152602001806157af6026913960400191505060405180910390fd5b600073ffffffffffffffffffffffffffffffffffffffff168173ffffffffffffffffffffffffffffffffffffffff1614156123de576040517f08c379a00000000000000000000000000000000000000000000000000000000081526004018080602001828103825260238152602001806158506023913960400191505060405180910390fd5b80601060006101000a81548173ffffffffffffffffffffffffffffffffffffffff021916908373ffffffffffffffffffffffffffffffffffffffff16021790555050565b61242a612042565b61247f576040517f08c379a00000000000000000000000000000000000000000000000000000000081526004018080602001828103825260268152602001806157af6026913960400191505060405180910390fd5b600073ffffffffffffffffffffffffffffffffffffffff168273ffffffffffffffffffffffffffffffffffffffff161415612505576040517f08c379a00000000000000000000000000000000000000000000000000000000081526004018080602001828103825260228152602001806157d56022913960400191505060405180910390fd5b600073ffffffffffffffffffffffffffffffffffffffff168173ffffffffffffffffffffffffffffffffffffffff16141561258b576040517f08c379a00000000000000000000000000000000000000000000000000000000081526004018080602001828103825260248152602001806158cd6024913960400191505060405180910390fd5b80601260008473ffffffffffffffffffffffffffffffffffffffff1673ffffffffffffffffffffffffffffffffffffffff16815260200190815260200160002060006101000a81548173ffffffffffffffffffffffffffffffffffffffff021916908373ffffffffffffffffffffffffffffffffffffffff1602179055505050565b6000600a828154811061261c57fe5b9060005260206000209060040201600101549050919050565b61264084848461175a565b61264c84848484613659565b6126a1576040517f08c379a000000000000000000000000000000000000000000000000000000000815260040180806020018281038252603c8152602001806158f1603c913960400191505060405180910390fd5b50505050565b803373ffffffffffffffffffffffffffffffffffffffff166126c882611b16565b73ffffffffffffffffffffffffffffffffffffffff1614612751576040517f08c379a00000000000000000000000000000000000000000000000000000000081526004018080602001828103825260198152602001807f596f7520646f6e2774206f776e207468697320647261676f6e0000000000000081525060200191505060405180910390fd5b600073ffffffffffffffffffffffffffffffffffffffff16601260003373ffffffffffffffffffffffffffffffffffffffff1673ffffffffffffffffffffffffffffffffffffffff16815260200190815260200160002060009054906101000a900473ffffffffffffffffffffffffffffffffffffffff1673ffffffffffffffffffffffffffffffffffffffff161415612836576040517f08c379a00000000000000000000000000000000000000000000000000000000081526004018080602001828103825260338152602001806159866033913960400191505060405180910390fd5b600a8054905082106128b0576040517f08c379a00000000000000000000000000000000000000000000000000000000081526004018080602001828103825260108152602001807f496e76616c696420746f6b656e2049640000000000000000000000000000000081525060200191505060405180910390fd5b6000600a83815481106128bf57fe5b906000526020600020906004020190506060612a7b82604051806101a001604052908160008201548152602001600182015481526020016002820160009054906101000a900467ffffffffffffffff1667ffffffffffffffff1667ffffffffffffffff1681526020016002820160089054906101000a900463ffffffff1663ffffffff1663ffffffff16815260200160028201600c9054906101000a900463ffffffff1663ffffffff1663ffffffff1681526020016002820160109054906101000a900463ffffffff1663ffffffff1663ffffffff1681526020016002820160149054906101000a900461ffff1661ffff1661ffff1681526020016002820160169054906101000a900461ffff1661ffff1661ffff1681526020016002820160189054906101000a900461ffff1661ffff1661ffff16815260200160028201601a9054906101000a900461ffff1661ffff1661ffff16815260200160028201601c9054906101000a900461ffff1661ffff1661ffff16815260200160028201601e9054906101000a900461ffff1661ffff1661ffff1681526020016003820160009054906101000a900460ff1660ff1660ff168152505061387a565b9050612aaa33601060009054906101000a900473ffffffffffffffffffffffffffffffffffffffff168661175a565b6000601060009054906101000a900473ffffffffffffffffffffffffffffffffffffffff1690506000600c60009054906101000a900460ff1660ff168460030160009054906101000a900460ff1660ff1614612b0e57612b09866140f6565b612b10565b855b90508173ffffffffffffffffffffffffffffffffffffffff16632492fbeb33601260003373ffffffffffffffffffffffffffffffffffffffff1673ffffffffffffffffffffffffffffffffffffffff16815260200190815260200160002060009054906101000a900473ffffffffffffffffffffffffffffffffffffffff1684876040518563ffffffff167c0100000000000000000000000000000000000000000000000000000000028152600401808573ffffffffffffffffffffffffffffffffffffffff1673ffffffffffffffffffffffffffffffffffffffff1681526020018473ffffffffffffffffffffffffffffffffffffffff1673ffffffffffffffffffffffffffffffffffffffff16815260200183815260200180602001828103825283818151815260200191508051906020019080838360005b83811015612c66578082015181840152602081019050612c4b565b50505050905090810190601f168015612c935780820380516001836020036101000a031916815260200191505b5095505050505050600060405180830381600087803b158015612cb557600080fd5b505af1158015612cc9573d6000803e3d6000fd5b50505050505050505050565b6000806000806000806000806000600a8a81548110612cf057fe5b90600052602060002090600402019050806001015498508060020160089054906101000a900463ffffffff16975080600201600c9054906101000a900463ffffffff1696508060020160109054906101000a900463ffffffff1695508060020160169054906101000a900461ffff1694508060020160189054906101000a900461ffff16935080600201601a9054906101000a900461ffff16925080600201601c9054906101000a900461ffff16915050919395975091939597565b6000612db782611cce565b9050919050565b600080600a8381548110612dce57fe5b906000526020600020906004020190506000603c8260020160009054906101000a900467ffffffffffffffff1667ffffffffffffffff16420302905081600201601e9054906101000a900461ffff1661ffff16811092505050919050565b6000600460008473ffffffffffffffffffffffffffffffffffffffff1673ffffffffffffffffffffffffffffffffffffffff16815260200190815260200160002060008373ffffffffffffffffffffffffffffffffffffffff1673ffffffffffffffffffffffffffffffffffffffff16815260200190815260200160002060009054906101000a900460ff16905092915050565b612ec8612042565b612f1d576040517f08c379a00000000000000000000000000000000000000000000000000000000081526004018080602001828103825260268152602001806157af6026913960400191505060405180910390fd5b612f2681614113565b50565b823373ffffffffffffffffffffffffffffffffffffffff16612f4a82611b16565b73ffffffffffffffffffffffffffffffffffffffff1614612fd3576040517f08c379a00000000000000000000000000000000000000000000000000000000081526004018080602001828103825260198152602001807f596f7520646f6e2774206f776e207468697320647261676f6e0000000000000081525060200191505060405180910390fd5b6000600a8581548110612fe257fe5b90600052602060002090600402019050600061304185858080601f016020809104026020016040519081016040528093929190818152602001838380828437600081840152601f19601f82011690508083019250505050505050613140565b905060006001028114156130bd576040517f08c379a000000000000000000000000000000000000000000000000000000000815260040180806020018281038252601e8152602001807f456d707479206e616d657320617265206e6f742061636365707461626c65000081525060200191505060405180910390fd5b808260010181905550505050505050565b6000806001600084815260200190815260200160002060009054906101000a900473ffffffffffffffffffffffffffffffffffffffff169050600073ffffffffffffffffffffffffffffffffffffffff168173ffffffffffffffffffffffffffffffffffffffff161415915050919050565b6000606082905060008151141561315e576000600102915050613167565b60208301519150505b919050565b60006001600a604051806101a0016040528060006001028152602001600060010281526020018f67ffffffffffffffff1681526020018e63ffffffff1681526020018d63ffffffff1681526020018c63ffffffff1681526020018b61ffff1681526020018a61ffff1681526020018961ffff1681526020018861ffff1681526020018761ffff1681526020018661ffff1681526020018560ff1681525090806001815401808255809150509060018203906000526020600020906004020160009091929091909150600082015181600001556020820151816001015560408201518160020160006101000a81548167ffffffffffffffff021916908367ffffffffffffffff16021790555060608201518160020160086101000a81548163ffffffff021916908363ffffffff160217905550608082015181600201600c6101000a81548163ffffffff021916908363ffffffff16021790555060a08201518160020160106101000a81548163ffffffff021916908363ffffffff16021790555060c08201518160020160146101000a81548161ffff021916908361ffff16021790555060e08201518160020160166101000a81548161ffff021916908361ffff1602179055506101008201518160020160186101000a81548161ffff021916908361ffff16021790555061012082015181600201601a6101000a81548161ffff021916908361ffff16021790555061014082015181600201601c6101000a81548161ffff021916908361ffff16021790555061016082015181600201601e6101000a81548161ffff021916908361ffff1602179055506101808201518160030160006101000a81548160ff021916908360ff16021790555050500390506133f4818f8f614276565b9d9c50505050505050505050505050565b61340f82826142ad565b61341982826143a6565b6134228161446d565b5050565b60008061343283611b16565b90508073ffffffffffffffffffffffffffffffffffffffff168473ffffffffffffffffffffffffffffffffffffffff1614806134a157508373ffffffffffffffffffffffffffffffffffffffff16613489846111b3565b73ffffffffffffffffffffffffffffffffffffffff16145b806134b257506134b18185612e2c565b5b91505092915050565b6134c68383836144b9565b6134d08382614714565b6134da82826143a6565b505050565b60006134ea826148b2565b90506000600c60009054906101000a900460ff1660ff168260ff16149050801561354b5761353c601060009054906101000a900473ffffffffffffffffffffffffffffffffffffffff16868686612635565b6135468484614935565b613644565b60001515600f600086815260200190815260200160002060009054906101000a900460ff16151514156135f15760006135838461499c565b905080600d60008781526020019081526020016000208190555084600e6000838152602001908152602001600020819055506001600f600087815260200190815260200160002060006101000a81548160ff0219169083151502179055506135eb8682613405565b50613643565b6000600d6000868152602001908152602001600020549050613637601060009054906101000a900473ffffffffffffffffffffffffffffffffffffffff16878387612635565b6136418185614935565b505b5b5050505050565b600081600001549050919050565b600061367a8473ffffffffffffffffffffffffffffffffffffffff16614a0d565b6136875760019050613872565b60008473ffffffffffffffffffffffffffffffffffffffff1663150b7a02338887876040518563ffffffff167c0100000000000000000000000000000000000000000000000000000000028152600401808573ffffffffffffffffffffffffffffffffffffffff1673ffffffffffffffffffffffffffffffffffffffff1681526020018473ffffffffffffffffffffffffffffffffffffffff1673ffffffffffffffffffffffffffffffffffffffff16815260200183815260200180602001828103825283818151815260200191508051906020019080838360005b8381101561377e578082015181840152602081019050613763565b50505050905090810190601f1680156137ab5780820380516001836020036101000a031916815260200191505b5095505050505050602060405180830381600087803b1580156137cd57600080fd5b505af11580156137e1573d6000803e3d6000fd5b505050506040513d60208110156137f757600080fd5b8101908080519060200190929190505050905063150b7a027c0100000000000000000000000000000000000000000000000000000000027bffffffffffffffffffffffffffffffffffffffffffffffffffffffff1916817bffffffffffffffffffffffffffffffffffffffffffffffffffffffff1916149150505b949350505050565b60606000606190506060816040519080825280601f01601f1916602001820160405280156138b75781602001600182028038833980820191505090505b509050600080905060008090505b602081101561395157856000015181602081106138de57fe5b1a7f01000000000000000000000000000000000000000000000000000000000000000283838151811061390d57fe5b60200101907effffffffffffffffffffffffffffffffffffffffffffffffffffffffffffff1916908160001a905350818060010192505080806001019150506138c5565b5060008090505b60208110156139e4578560200151816020811061397157fe5b1a7f0100000000000000000000000000000000000000000000000000000000000000028383815181106139a057fe5b60200101907effffffffffffffffffffffffffffffffffffffffffffffffffffffffffffff1916908160001a90535081806001019250508080600101915050613958565b5060008090505b6008811015613a8c5760ff63ffffffff168160080216866040015167ffffffffffffffff16908060020a82049150507f010000000000000000000000000000000000000000000000000000000000000002838381518110613a4857fe5b60200101907effffffffffffffffffffffffffffffffffffffffffffffffffffffffffffff1916908160001a905350818060010192505080806001019150506139eb565b5060008090505b6004811015613b305760ff63ffffffff168160080216866060015163ffffffff16908060020a82049150507f010000000000000000000000000000000000000000000000000000000000000002838381518110613aec57fe5b60200101907effffffffffffffffffffffffffffffffffffffffffffffffffffffffffffff1916908160001a90535081806001019250508080600101915050613a93565b5060008090505b6004811015613bd45760ff63ffffffff168160080216866080015163ffffffff16908060020a82049150507f010000000000000000000000000000000000000000000000000000000000000002838381518110613b9057fe5b60200101907effffffffffffffffffffffffffffffffffffffffffffffffffffffffffffff1916908160001a90535081806001019250508080600101915050613b37565b5060008090505b6004811015613c785760ff63ffffffff1681600802168660a0015163ffffffff16908060020a82049150507f010000000000000000000000000000000000000000000000000000000000000002838381518110613c3457fe5b60200101907effffffffffffffffffffffffffffffffffffffffffffffffffffffffffffff1916908160001a90535081806001019250508080600101915050613bdb565b5060008090505b6002811015613d1a5760ff63ffffffff1681600802168660c0015161ffff16908060020a82049150507f010000000000000000000000000000000000000000000000000000000000000002838381518110613cd657fe5b60200101907effffffffffffffffffffffffffffffffffffffffffffffffffffffffffffff1916908160001a90535081806001019250508080600101915050613c7f565b5060008090505b6002811015613dbc5760ff63ffffffff1681600802168660e0015161ffff16908060020a82049150507f010000000000000000000000000000000000000000000000000000000000000002838381518110613d7857fe5b60200101907effffffffffffffffffffffffffffffffffffffffffffffffffffffffffffff1916908160001a90535081806001019250508080600101915050613d21565b5060008090505b6002811015613e5f5760ff63ffffffff16816008021686610100015161ffff16908060020a82049150507f010000000000000000000000000000000000000000000000000000000000000002838381518110613e1b57fe5b60200101907effffffffffffffffffffffffffffffffffffffffffffffffffffffffffffff1916908160001a90535081806001019250508080600101915050613dc3565b5060008090505b6002811015613f025760ff63ffffffff16816008021686610120015161ffff16908060020a82049150507f010000000000000000000000000000000000000000000000000000000000000002838381518110613ebe57fe5b60200101907effffffffffffffffffffffffffffffffffffffffffffffffffffffffffffff1916908160001a90535081806001019250508080600101915050613e66565b5060008090505b6002811015613fa55760ff63ffffffff16816008021686610140015161ffff16908060020a82049150507f010000000000000000000000000000000000000000000000000000000000000002838381518110613f6157fe5b60200101907effffffffffffffffffffffffffffffffffffffffffffffffffffffffffffff1916908160001a90535081806001019250508080600101915050613f09565b5060008090505b60028110156140485760ff63ffffffff16816008021686610160015161ffff16908060020a82049150507f01000000000000000000000000000000000000000000000000000000000000000283838151811061400457fe5b60200101907effffffffffffffffffffffffffffffffffffffffffffffffffffffffffffff1916908160001a90535081806001019250508080600101915050613fac565b5060008090505b60018110156140ea5760ff63ffffffff16816008021686610180015160ff16908060020a82049150507f0100000000000000000000000000000000000000000000000000000000000000028383815181106140a657fe5b60200101907effffffffffffffffffffffffffffffffffffffffffffffffffffffffffffff1916908160001a9053508180600101925050808060010191505061404f565b50819350505050919050565b6000600e6000838152602001908152602001600020549050919050565b600073ffffffffffffffffffffffffffffffffffffffff168173ffffffffffffffffffffffffffffffffffffffff1614156141b6576040517f08c379a00000000000000000000000000000000000000000000000000000000081526004018080602001828103825260198152602001807f496e76616c6964206e6577206f776e657220616464726573730000000000000081525060200191505060405180910390fd5b8073ffffffffffffffffffffffffffffffffffffffff16600960009054906101000a900473ffffffffffffffffffffffffffffffffffffffff1673ffffffffffffffffffffffffffffffffffffffff167f8be0079c531659141344cd1fd0a4f28419497f9722a3daafe3b4186f6b6457e060405160405180910390a380600960006101000a81548173ffffffffffffffffffffffffffffffffffffffff021916908373ffffffffffffffffffffffffffffffffffffffff16021790555050565b6000600a848154811061428557fe5b9060005260206000209060040201905082816000018190555081816001018190555050505050565b816001600083815260200190815260200160002060006101000a81548173ffffffffffffffffffffffffffffffffffffffff021916908373ffffffffffffffffffffffffffffffffffffffff160217905550614346600360008473ffffffffffffffffffffffffffffffffffffffff1673ffffffffffffffffffffffffffffffffffffffff168152602001908152602001600020614a20565b808273ffffffffffffffffffffffffffffffffffffffff16600073ffffffffffffffffffffffffffffffffffffffff167fddf252ad1be2c89b69c2b068fc378daa952ba7f163c4a11628f55a4df523b3ef60405160405180910390a45050565b600560008373ffffffffffffffffffffffffffffffffffffffff1673ffffffffffffffffffffffffffffffffffffffff168152602001908152602001600020805490506006600083815260200190815260200160002081905550600560008373ffffffffffffffffffffffffffffffffffffffff1673ffffffffffffffffffffffffffffffffffffffff1681526020019081526020016000208190806001815401808255809150509060018203906000526020600020016000909192909190915055505050565b6007805490506008600083815260200190815260200160002081905550600781908060018154018082558091505090600182039060005260206000200160009091929091909150555050565b8273ffffffffffffffffffffffffffffffffffffffff166144d982611b16565b73ffffffffffffffffffffffffffffffffffffffff1614614545576040517f08c379a000000000000000000000000000000000000000000000000000000000815260040180806020018281038252602881526020018061595e6028913960400191505060405180910390fd5b600073ffffffffffffffffffffffffffffffffffffffff168273ffffffffffffffffffffffffffffffffffffffff1614156145cb576040517f08c379a00000000000000000000000000000000000000000000000000000000081526004018080602001828103825260278152602001806158296027913960400191505060405180910390fd5b6145d481614a36565b61461b600360008573ffffffffffffffffffffffffffffffffffffffff1673ffffffffffffffffffffffffffffffffffffffff168152602001908152602001600020614af4565b614662600360008473ffffffffffffffffffffffffffffffffffffffff1673ffffffffffffffffffffffffffffffffffffffff168152602001908152602001600020614a20565b816001600083815260200190815260200160002060006101000a81548173ffffffffffffffffffffffffffffffffffffffff021916908373ffffffffffffffffffffffffffffffffffffffff160217905550808273ffffffffffffffffffffffffffffffffffffffff168473ffffffffffffffffffffffffffffffffffffffff167fddf252ad1be2c89b69c2b068fc378daa952ba7f163c4a11628f55a4df523b3ef60405160405180910390a4505050565b600061476c6001600560008673ffffffffffffffffffffffffffffffffffffffff1673ffffffffffffffffffffffffffffffffffffffff16815260200190815260200160002080549050614b1790919063ffffffff16565b9050600060066000848152602001908152602001600020549050818114614859576000600560008673ffffffffffffffffffffffffffffffffffffffff1673ffffffffffffffffffffffffffffffffffffffff16815260200190815260200160002083815481106147d957fe5b9060005260206000200154905080600560008773ffffffffffffffffffffffffffffffffffffffff1673ffffffffffffffffffffffffffffffffffffffff168152602001908152602001600020838154811061483157fe5b9060005260206000200181905550816006600083815260200190815260200160002081905550505b600560008573ffffffffffffffffffffffffffffffffffffffff1673ffffffffffffffffffffffffffffffffffffffff1681526020019081526020016000208054809190600190036148ab9190615701565b5050505050565b6000816060815181106148c157fe5b60200101517f010000000000000000000000000000000000000000000000000000000000000090047f0100000000000000000000000000000000000000000000000000000000000000027f010000000000000000000000000000000000000000000000000000000000000090049050919050565b60008060008060008061494787614b83565b95509550955095509550955060008060008060008060006149678e614f7b565b965096509650965096509650965061498b8f8e8e8e8e8e8e8e8e8e8e8e8e8e61547e565b505050505050505050505050505050565b60008060008060008060006149b088614b83565b95509550955095509550955060008060008060008060006149d08f614f7b565b965096509650965096509650965060006149f58e8e8e8e8e8e8e8e8e8e8e8e8e61316c565b9050809e505050505050505050505050505050919050565b600080823b905060008111915050919050565b6001816000016000828254019250508190555050565b600073ffffffffffffffffffffffffffffffffffffffff166002600083815260200190815260200160002060009054906101000a900473ffffffffffffffffffffffffffffffffffffffff1673ffffffffffffffffffffffffffffffffffffffff1614614af15760006002600083815260200190815260200160002060006101000a81548173ffffffffffffffffffffffffffffffffffffffff021916908373ffffffffffffffffffffffffffffffffffffffff1602179055505b50565b614b0c60018260000154614b1790919063ffffffff16565b816000018190555050565b600082821115614b72576040517f08c379a000000000000000000000000000000000000000000000000000000000815260040180806020018281038252603a815260200180615775603a913960400191505060405180910390fd5b600082840390508091505092915050565b600080600080600080600080905060008090505b6020811015614c66576008810260ff7f0100000000000000000000000000000000000000000000000000000000000000028a83850181518110614bd657fe5b60200101517f010000000000000000000000000000000000000000000000000000000000000090047f010000000000000000000000000000000000000000000000000000000000000002167effffffffffffffffffffffffffffffffffffffffffffffffffffffffffffff1916908060020a82049150508817975081806001019250508080600101915050614b97565b50614c71888261562b565b955060208101905060008090505b6008811015614d39576000898381518110614c9657fe5b60200101517f010000000000000000000000000000000000000000000000000000000000000090047f0100000000000000000000000000000000000000000000000000000000000000027f0100000000000000000000000000000000000000000000000000000000000000900460ff169050816008028167ffffffffffffffff169060020a02905080871896508280600101935050508080600101915050614c7f565b5060008090505b6004811015614df6576000898381518110614d5757fe5b60200101517f010000000000000000000000000000000000000000000000000000000000000090047f0100000000000000000000000000000000000000000000000000000000000000027f0100000000000000000000000000000000000000000000000000000000000000900460ff169050816008028163ffffffff169060020a02905080861895508280600101935050508080600101915050614d40565b5060008090505b6004811015614eb3576000898381518110614e1457fe5b60200101517f010000000000000000000000000000000000000000000000000000000000000090047f0100000000000000000000000000000000000000000000000000000000000000027f0100000000000000000000000000000000000000000000000000000000000000900460ff169050816008028163ffffffff169060020a02905080851894508280600101935050508080600101915050614dfd565b5060008090505b6004811015614f70576000898381518110614ed157fe5b60200101517f010000000000000000000000000000000000000000000000000000000000000090047f0100000000000000000000000000000000000000000000000000000000000000027f0100000000000000000000000000000000000000000000000000000000000000900460ff169050816008028163ffffffff169060020a02905080841893508280600101935050508080600101915050614eba565b505091939550919395565b6000806000806000806000806054905060008090505b60028110156150455760008a8381518110614fa857fe5b60200101517f010000000000000000000000000000000000000000000000000000000000000090047f0100000000000000000000000000000000000000000000000000000000000000027f0100000000000000000000000000000000000000000000000000000000000000900460ff169050816008028161ffff169060020a029050808a1899508280600101935050508080600101915050614f91565b5060008090505b60028110156151005760008a838151811061506357fe5b60200101517f010000000000000000000000000000000000000000000000000000000000000090047f0100000000000000000000000000000000000000000000000000000000000000027f0100000000000000000000000000000000000000000000000000000000000000900460ff169050816008028161ffff169060020a0290508089189850828060010193505050808060010191505061504c565b5060008090505b60028110156151bb5760008a838151811061511e57fe5b60200101517f010000000000000000000000000000000000000000000000000000000000000090047f0100000000000000000000000000000000000000000000000000000000000000027f0100000000000000000000000000000000000000000000000000000000000000900460ff169050816008028161ffff169060020a02905080881897508280600101935050508080600101915050615107565b5060008090505b60028110156152765760008a83815181106151d957fe5b60200101517f010000000000000000000000000000000000000000000000000000000000000090047f0100000000000000000000000000000000000000000000000000000000000000027f0100000000000000000000000000000000000000000000000000000000000000900460ff169050816008028161ffff169060020a029050808718965082806001019350505080806001019150506151c2565b5060008090505b60028110156153315760008a838151811061529457fe5b60200101517f010000000000000000000000000000000000000000000000000000000000000090047f0100000000000000000000000000000000000000000000000000000000000000027f0100000000000000000000000000000000000000000000000000000000000000900460ff169050816008028161ffff169060020a0290508086189550828060010193505050808060010191505061527d565b5060008090505b60028110156153ec5760008a838151811061534f57fe5b60200101517f010000000000000000000000000000000000000000000000000000000000000090047f0100000000000000000000000000000000000000000000000000000000000000027f0100000000000000000000000000000000000000000000000000000000000000900460ff169050816008028161ffff169060020a02905080851894508280600101935050508080600101915050615338565b508881815181106153f957fe5b60200101517f010000000000000000000000000000000000000000000000000000000000000090047f0100000000000000000000000000000000000000000000000000000000000000027f0100000000000000000000000000000000000000000000000000000000000000900482189150808060010191505050919395979092949650565b6000600a8f8154811061548d57fe5b906000526020600020906004020190508d81600001819055508c81600101819055508b8160020160006101000a81548167ffffffffffffffff021916908367ffffffffffffffff1602179055508a8160020160086101000a81548163ffffffff021916908363ffffffff1602179055508981600201600c6101000a81548163ffffffff021916908363ffffffff160217905550888160020160106101000a81548163ffffffff021916908363ffffffff160217905550878160020160146101000a81548161ffff021916908361ffff160217905550868160020160166101000a81548161ffff021916908361ffff160217905550858160020160186101000a81548161ffff021916908361ffff1602179055508481600201601a6101000a81548161ffff021916908361ffff1602179055508381600201601c6101000a81548161ffff021916908361ffff1602179055508281600201601e6101000a81548161ffff021916908361ffff160217905550818160030160006101000a81548160ff021916908360ff160217905550505050505050505050505050505050565b600080600090505b60208110156156fa576008810260ff7f010000000000000000000000000000000000000000000000000000000000000002858386018151811061567257fe5b60200101517f010000000000000000000000000000000000000000000000000000000000000090047f010000000000000000000000000000000000000000000000000000000000000002167effffffffffffffffffffffffffffffffffffffffffffffffffffffffffffff1916908060020a8204915050821791508080600101915050615633565b5092915050565b81548183558181111561572857818360005260206000209182019101615727919061572d565b5b505050565b61574f91905b8082111561574b576000816000905550600101615733565b5090565b9056fe52656365697665722073686f756c6420626520612076616c6964206164647265737361206d7573742062652067726561746572207468616e20622c206e6567617469766520726573756c747320617265206e6f7420616c6c6f7765644f6e6c7920746865206f776e65722063616e20706572666f726d207468697320616374696f6e496e76616c6964206f776e6572206164647265737320746f206265206d617070656453656e64657220646f65736e2774206f776e207468697320746f6b656e206f72206861766520726967687473206f6e206974496e76616c696420616464726573732e204572726f72207472616e73666572696320746f6b656e676174657761792073686f756c64206861766520612076616c696420616464726573734164647265737320616c7265616479206d61707065642e2052657175657374206f776e657220746f20756e646f20746865206d617070696e67616464726573732073686f756c64206861766520612076616c69642076616c7565496e76616c6964206d61696e6e6574206164647265737320746f206265206d6170706564546172676574206164647265737320646f6573206e6f7420696d706c656d656e74206f6e455243373231526563656976656420696e746572666163656f6e6c7920746865206761746577617920697320616c6c6f77656420746f2063616c6c20746869732066756e6374696f6e53656e64657220646f65736e74206f776e20746f6b656e20746f206265207472616e736665726564426c6f636b636861696e732073686f756c64206265206d617070656420746f20616c6c6f77207472616e73666572656e636573a265627a7a7231582068c9f7c771ec1c588732f29b9d3f162d4c18911e158a8a14681feb24f110de8264736f6c63430005110032",
  "source": "pragma solidity ^0.5.0;\r\n\r\nimport \"../common/DragonFactory.sol\";\r\n\r\ncontract IDappchainGateway {\r\n  function depositDragon(address from, address to, uint256 uid, bytes calldata data) external;\r\n}\r\n\r\ncontract DappchainTransferableDragon is DragonFactory {\r\n\r\n    // map sidechain address to mainchain address\r\n    mapping (address => address) private _sidechainAddressToMainchain;\r\n\r\n    constructor(address gateway, uint8 blockchainId) DragonFactory(gateway, blockchainId) public {}\r\n\r\n    // Setter to update who the gateway is\r\n    function setGatewayAddress(address gateway) external onlyOwner {\r\n        //TODO check address is a gateway\r\n        require(gateway != address(0), \"gateway should have a valid address\");\r\n        _gateway = gateway;\r\n    }\r\n\r\n    // Used by the DAppChain Gateway to mint tokens that have been deposited to the Ethereum Gateway\r\n    function retrieveToken(address receiver, uint256 _tokenId, bytes memory _data) public {\r\n        require(msg.sender == _gateway, \"only the gateway is allowed to call this function\");\r\n        require(receiver != address(0), \"Receiver should be a valid address\");\r\n        _mintReceivedDragon(receiver, _tokenId, _data);\r\n    }\r\n\r\n    function undoMapping(address owner, address mainnetAddress) external onlyOwner {\r\n        require(owner != address(0), \"Invalid owner address to be mapped\");\r\n        require(mainnetAddress != address(0), \"Invalid mainnet address to be mapped\");\r\n        _sidechainAddressToMainchain[owner] = mainnetAddress;\r\n    }\r\n\r\n    function mapContractToMainnet(address mainnetAddress) external {\r\n        require(mainnetAddress != address(0), \"Invalid mainnet address to be mapped\");\r\n        require(_sidechainAddressToMainchain[msg.sender] == address(0), \"Address already mapped. Request owner to undo the mapping\");\r\n        _sidechainAddressToMainchain[msg.sender] = mainnetAddress;\r\n    }\r\n\r\n    function isMap(address mainnetAddress) external view returns (bool) {\r\n        require(mainnetAddress != address(0), \"Invalid mainnet address\");\r\n        return _sidechainAddressToMainchain[msg.sender] == mainnetAddress;\r\n    }\r\n\r\n    function transferToGateway(uint256 _tokenId) public onlyDragonOwner(_tokenId) {\r\n        require(_sidechainAddressToMainchain[msg.sender] != address(0), \"Blockchains should be mapped to allow transferences\");\r\n        require(_tokenId < dragons.length, \"Invalid token Id\");\r\n\r\n        Dragon storage dragon = dragons[_tokenId];\r\n        bytes memory encodedDragon = _encodeDragonToBytes(dragon);\r\n\r\n        // Transfer ownership\r\n        transferFrom(msg.sender, _gateway, _tokenId);\r\n\r\n        // Trigger trnsference in gateway\r\n        IDappchainGateway gateway = IDappchainGateway(_gateway);\r\n        uint originalTokenId = dragon.blockchainOriginId == _blockchainId ? _tokenId : _getForeignTokenId(_tokenId);\r\n        gateway.depositDragon(msg.sender, _sidechainAddressToMainchain[msg.sender], originalTokenId, encodedDragon);\r\n    }\r\n}",
  "sourcePath": "/mnt/d/workspace/cryptodragons/truffle-project/contracts/dappchain/DappchainTransferableDragon.sol",
  "compiler": {
    "name": "solc",
    "version": "0.5.17+commit.d19bba13.Emscripten.clang"
  },
  "schemaVersion": "3.0.1",
  "updatedAt": "2021-05-16T14:08:14.695Z",
  "devdoc": {
    "methods": {
      "approve(address,uint256)": {
        "details": "Approves another address to transfer the given token ID The zero address indicates there is no approved address. There can only be one approved address per token at a given time. Can only be called by the token owner or an approved operator.",
        "params": {
          "to": "address to be approved for the given token ID",
          "tokenId": "uint256 ID of the token to be approved"
        }
      },
      "balanceOf(address)": {
        "details": "Gets the balance of the specified address",
        "params": {
          "owner": "address to query the balance of"
        },
        "return": "uint256 representing the amount owned by the passed address"
      },
      "getApproved(uint256)": {
        "details": "Gets the approved address for a token ID, or zero if no address set Reverts if the token ID does not exist.",
        "params": {
          "tokenId": "uint256 ID of the token to query the approval of"
        },
        "return": "address currently approved for the given token ID"
      },
      "isApprovedForAll(address,address)": {
        "details": "Tells whether an operator is approved by a given owner",
        "params": {
          "operator": "operator address which you want to query the approval of",
          "owner": "owner address which you want to query the approval of"
        },
        "return": "bool whether the given operator is approved by the given owner"
      },
      "isOwner()": {
        "return": "true if `msg.sender` is the owner of the contract."
      },
      "owner()": {
        "return": "the address of the owner."
      },
      "ownerOf(uint256)": {
        "details": "Gets the owner of the specified token ID",
        "params": {
          "tokenId": "uint256 ID of the token to query the owner of"
        },
        "return": "address currently marked as the owner of the given token ID"
      },
      "renounceOwnership()": {
        "details": "Allows the current owner to relinquish control of the contract."
      },
      "safeTransferFrom(address,address,uint256)": {
        "details": "Safely transfers the ownership of a given token ID to another address If the target address is a contract, it must implement `onERC721Received`, which is called upon a safe transfer, and return the magic value `bytes4(keccak256(\"onERC721Received(address,address,uint256,bytes)\"))`; otherwise, the transfer is reverted. Requires the msg.sender to be the owner, approved, or operator",
        "params": {
          "from": "current owner of the token",
          "to": "address to receive the ownership of the given token ID",
          "tokenId": "uint256 ID of the token to be transferred"
        }
      },
      "safeTransferFrom(address,address,uint256,bytes)": {
        "details": "Safely transfers the ownership of a given token ID to another address If the target address is a contract, it must implement `onERC721Received`, which is called upon a safe transfer, and return the magic value `bytes4(keccak256(\"onERC721Received(address,address,uint256,bytes)\"))`; otherwise, the transfer is reverted. Requires the msg.sender to be the owner, approved, or operator",
        "params": {
          "_data": "bytes data to send along with a safe transfer check",
          "from": "current owner of the token",
          "to": "address to receive the ownership of the given token ID",
          "tokenId": "uint256 ID of the token to be transferred"
        }
      },
      "setApprovalForAll(address,bool)": {
        "details": "Sets or unsets the approval of a given operator An operator is allowed to transfer all tokens of the sender on their behalf",
        "params": {
          "approved": "representing the status of the approval to be set",
          "to": "operator address to set the approval"
        }
      },
      "supportsInterface(bytes4)": {
        "details": "implement supportsInterface(bytes4) using a lookup table"
      },
      "tokenByIndex(uint256)": {
        "details": "Gets the token ID at a given index of all the tokens in this contract Reverts if the index is greater or equal to the total number of tokens",
        "params": {
          "index": "uint256 representing the index to be accessed of the tokens list"
        },
        "return": "uint256 token ID at the given index of the tokens list"
      },
      "tokenOfOwnerByIndex(address,uint256)": {
        "details": "Gets the token ID at a given index of the tokens list of the requested owner",
        "params": {
          "index": "uint256 representing the index to be accessed of the requested tokens list",
          "owner": "address owning the tokens list to be accessed"
        },
        "return": "uint256 token ID at the given index of the tokens list owned by the requested address"
      },
      "totalSupply()": {
        "details": "Gets the total amount of tokens stored by the contract",
        "return": "uint256 representing the total amount of tokens"
      },
      "transferFrom(address,address,uint256)": {
        "details": "Transfers the ownership of a given token ID to another address Usage of this method is discouraged, use `safeTransferFrom` whenever possible Requires the msg.sender to be the owner, approved, or operator",
        "params": {
          "from": "current owner of the token",
          "to": "address to receive the ownership of the given token ID",
          "tokenId": "uint256 ID of the token to be transferred"
        }
      },
      "transferOwnership(address)": {
        "details": "Allows the current owner to transfer control of the contract to a newOwner.",
        "params": {
          "newOwner": "The address to transfer ownership to."
        }
      }
    }
  },
  "userdoc": {
    "methods": {
      "createDragon(string,uint64,uint32,uint32)": {
        "notice": "Creates new Dragon and give it to its creator."
      },
      "getDragonsIdsByOwner(address)": {
        "notice": "***************************************************************************************** PUBLIC METHODS*******************************************************************************************"
      },
      "renounceOwnership()": {
        "notice": "Renouncing to ownership will leave the contract without an owner. It will not be possible to call the functions with the `onlyOwner` modifier anymore."
      },
      "setName(uint256,string)": {
        "notice": "***************************************************************************************** ONLY OWNER ACTIONS*******************************************************************************************"
      }
    }
  }
}