{
  "contractName": "DragonFactory",
  "abi": [
    {
      "inputs": [
        {
          "internalType": "address",
          "name": "gateway",
          "type": "address"
        },
        {
          "internalType": "uint8",
          "name": "blockchainId",
          "type": "uint8"
        }
      ],
      "payable": false,
      "stateMutability": "nonpayable",
      "type": "constructor"
    },
    {
      "anonymous": false,
      "inputs": [
        {
          "indexed": true,
          "internalType": "address",
          "name": "owner",
          "type": "address"
        },
        {
          "indexed": true,
          "internalType": "address",
          "name": "approved",
          "type": "address"
        },
        {
          "indexed": true,
          "internalType": "uint256",
          "name": "tokenId",
          "type": "uint256"
        }
      ],
      "name": "Approval",
      "type": "event"
    },
    {
      "anonymous": false,
      "inputs": [
        {
          "indexed": true,
          "internalType": "address",
          "name": "owner",
          "type": "address"
        },
        {
          "indexed": true,
          "internalType": "address",
          "name": "operator",
          "type": "address"
        },
        {
          "indexed": false,
          "internalType": "bool",
          "name": "approved",
          "type": "bool"
        }
      ],
      "name": "ApprovalForAll",
      "type": "event"
    },
    {
      "anonymous": false,
      "inputs": [
        {
          "indexed": false,
          "internalType": "uint256",
          "name": "dragonId",
          "type": "uint256"
        },
        {
          "indexed": false,
          "internalType": "uint256",
          "name": "genes",
          "type": "uint256"
        }
      ],
      "name": "NewDragon",
      "type": "event"
    },
    {
      "anonymous": false,
      "inputs": [
        {
          "indexed": true,
          "internalType": "address",
          "name": "previousOwner",
          "type": "address"
        },
        {
          "indexed": true,
          "internalType": "address",
          "name": "newOwner",
          "type": "address"
        }
      ],
      "name": "OwnershipTransferred",
      "type": "event"
    },
    {
      "anonymous": false,
      "inputs": [
        {
          "indexed": true,
          "internalType": "address",
          "name": "from",
          "type": "address"
        },
        {
          "indexed": true,
          "internalType": "address",
          "name": "to",
          "type": "address"
        },
        {
          "indexed": true,
          "internalType": "uint256",
          "name": "tokenId",
          "type": "uint256"
        }
      ],
      "name": "Transfer",
      "type": "event"
    },
    {
      "constant": false,
      "inputs": [
        {
          "internalType": "address",
          "name": "to",
          "type": "address"
        },
        {
          "internalType": "uint256",
          "name": "tokenId",
          "type": "uint256"
        }
      ],
      "name": "approve",
      "outputs": [],
      "payable": false,
      "stateMutability": "nonpayable",
      "type": "function"
    },
    {
      "constant": true,
      "inputs": [
        {
          "internalType": "address",
          "name": "owner",
          "type": "address"
        }
      ],
      "name": "balanceOf",
      "outputs": [
        {
          "internalType": "uint256",
          "name": "",
          "type": "uint256"
        }
      ],
      "payable": false,
      "stateMutability": "view",
      "type": "function"
    },
    {
      "constant": true,
      "inputs": [
        {
          "internalType": "uint256",
          "name": "",
          "type": "uint256"
        }
      ],
      "name": "dragonIndexToOwner",
      "outputs": [
        {
          "internalType": "address",
          "name": "",
          "type": "address"
        }
      ],
      "payable": false,
      "stateMutability": "view",
      "type": "function"
    },
    {
      "constant": true,
      "inputs": [
        {
          "internalType": "uint256",
          "name": "tokenId",
          "type": "uint256"
        }
      ],
      "name": "getApproved",
      "outputs": [
        {
          "internalType": "address",
          "name": "",
          "type": "address"
        }
      ],
      "payable": false,
      "stateMutability": "view",
      "type": "function"
    },
    {
      "constant": true,
      "inputs": [
        {
          "internalType": "uint256",
          "name": "_dragonId",
          "type": "uint256"
        }
      ],
      "name": "getDragonById",
      "outputs": [
        {
          "internalType": "bytes32",
          "name": "name",
          "type": "bytes32"
        },
        {
          "internalType": "uint32",
          "name": "dadId",
          "type": "uint32"
        },
        {
          "internalType": "uint32",
          "name": "motherId",
          "type": "uint32"
        },
        {
          "internalType": "uint32",
          "name": "currentExperience",
          "type": "uint32"
        },
        {
          "internalType": "uint16",
          "name": "health",
          "type": "uint16"
        },
        {
          "internalType": "uint16",
          "name": "strength",
          "type": "uint16"
        },
        {
          "internalType": "uint16",
          "name": "agility",
          "type": "uint16"
        },
        {
          "internalType": "uint16",
          "name": "fortitude",
          "type": "uint16"
        }
      ],
      "payable": false,
      "stateMutability": "view",
      "type": "function"
    },
    {
      "constant": true,
      "inputs": [
        {
          "internalType": "uint256",
          "name": "_dragonId",
          "type": "uint256"
        }
      ],
      "name": "getDragonName",
      "outputs": [
        {
          "internalType": "bytes32",
          "name": "",
          "type": "bytes32"
        }
      ],
      "payable": false,
      "stateMutability": "view",
      "type": "function"
    },
    {
      "constant": true,
      "inputs": [
        {
          "internalType": "uint256",
          "name": "_dragonId",
          "type": "uint256"
        }
      ],
      "name": "getDragonOwner",
      "outputs": [
        {
          "internalType": "address",
          "name": "",
          "type": "address"
        }
      ],
      "payable": false,
      "stateMutability": "view",
      "type": "function"
    },
    {
      "constant": true,
      "inputs": [
        {
          "internalType": "address",
          "name": "_owner",
          "type": "address"
        }
      ],
      "name": "getDragonsCountByOwner",
      "outputs": [
        {
          "internalType": "uint256",
          "name": "",
          "type": "uint256"
        }
      ],
      "payable": false,
      "stateMutability": "view",
      "type": "function"
    },
    {
      "constant": true,
      "inputs": [
        {
          "internalType": "address",
          "name": "_owner",
          "type": "address"
        }
      ],
      "name": "getDragonsIdsByOwner",
      "outputs": [
        {
          "internalType": "uint256[]",
          "name": "",
          "type": "uint256[]"
        }
      ],
      "payable": false,
      "stateMutability": "view",
      "type": "function"
    },
    {
      "constant": true,
      "inputs": [
        {
          "internalType": "uint256",
          "name": "_dragonId",
          "type": "uint256"
        }
      ],
      "name": "getParents",
      "outputs": [
        {
          "internalType": "uint256",
          "name": "motherId",
          "type": "uint256"
        },
        {
          "internalType": "uint256",
          "name": "dadId",
          "type": "uint256"
        }
      ],
      "payable": false,
      "stateMutability": "view",
      "type": "function"
    },
    {
      "constant": true,
      "inputs": [
        {
          "internalType": "address",
          "name": "owner",
          "type": "address"
        },
        {
          "internalType": "address",
          "name": "operator",
          "type": "address"
        }
      ],
      "name": "isApprovedForAll",
      "outputs": [
        {
          "internalType": "bool",
          "name": "",
          "type": "bool"
        }
      ],
      "payable": false,
      "stateMutability": "view",
      "type": "function"
    },
    {
      "constant": true,
      "inputs": [
        {
          "internalType": "uint256",
          "name": "_dragonId",
          "type": "uint256"
        }
      ],
      "name": "isEgg",
      "outputs": [
        {
          "internalType": "bool",
          "name": "",
          "type": "bool"
        }
      ],
      "payable": false,
      "stateMutability": "view",
      "type": "function"
    },
    {
      "constant": true,
      "inputs": [],
      "name": "isOwner",
      "outputs": [
        {
          "internalType": "bool",
          "name": "",
          "type": "bool"
        }
      ],
      "payable": false,
      "stateMutability": "view",
      "type": "function"
    },
    {
      "constant": true,
      "inputs": [],
      "name": "owner",
      "outputs": [
        {
          "internalType": "address",
          "name": "",
          "type": "address"
        }
      ],
      "payable": false,
      "stateMutability": "view",
      "type": "function"
    },
    {
      "constant": true,
      "inputs": [
        {
          "internalType": "uint256",
          "name": "tokenId",
          "type": "uint256"
        }
      ],
      "name": "ownerOf",
      "outputs": [
        {
          "internalType": "address",
          "name": "",
          "type": "address"
        }
      ],
      "payable": false,
      "stateMutability": "view",
      "type": "function"
    },
    {
      "constant": false,
      "inputs": [],
      "name": "renounceOwnership",
      "outputs": [],
      "payable": false,
      "stateMutability": "nonpayable",
      "type": "function"
    },
    {
      "constant": false,
      "inputs": [
        {
          "internalType": "address",
          "name": "from",
          "type": "address"
        },
        {
          "internalType": "address",
          "name": "to",
          "type": "address"
        },
        {
          "internalType": "uint256",
          "name": "tokenId",
          "type": "uint256"
        }
      ],
      "name": "safeTransferFrom",
      "outputs": [],
      "payable": false,
      "stateMutability": "nonpayable",
      "type": "function"
    },
    {
      "constant": false,
      "inputs": [
        {
          "internalType": "address",
          "name": "from",
          "type": "address"
        },
        {
          "internalType": "address",
          "name": "to",
          "type": "address"
        },
        {
          "internalType": "uint256",
          "name": "tokenId",
          "type": "uint256"
        },
        {
          "internalType": "bytes",
          "name": "_data",
          "type": "bytes"
        }
      ],
      "name": "safeTransferFrom",
      "outputs": [],
      "payable": false,
      "stateMutability": "nonpayable",
      "type": "function"
    },
    {
      "constant": false,
      "inputs": [
        {
          "internalType": "address",
          "name": "to",
          "type": "address"
        },
        {
          "internalType": "bool",
          "name": "approved",
          "type": "bool"
        }
      ],
      "name": "setApprovalForAll",
      "outputs": [],
      "payable": false,
      "stateMutability": "nonpayable",
      "type": "function"
    },
    {
      "constant": false,
      "inputs": [
        {
          "internalType": "uint256",
          "name": "_dragonId",
          "type": "uint256"
        },
        {
          "internalType": "string",
          "name": "_name",
          "type": "string"
        }
      ],
      "name": "setName",
      "outputs": [],
      "payable": false,
      "stateMutability": "nonpayable",
      "type": "function"
    },
    {
      "constant": true,
      "inputs": [
        {
          "internalType": "bytes4",
          "name": "interfaceId",
          "type": "bytes4"
        }
      ],
      "name": "supportsInterface",
      "outputs": [
        {
          "internalType": "bool",
          "name": "",
          "type": "bool"
        }
      ],
      "payable": false,
      "stateMutability": "view",
      "type": "function"
    },
    {
      "constant": true,
      "inputs": [
        {
          "internalType": "uint256",
          "name": "index",
          "type": "uint256"
        }
      ],
      "name": "tokenByIndex",
      "outputs": [
        {
          "internalType": "uint256",
          "name": "",
          "type": "uint256"
        }
      ],
      "payable": false,
      "stateMutability": "view",
      "type": "function"
    },
    {
      "constant": true,
      "inputs": [
        {
          "internalType": "address",
          "name": "owner",
          "type": "address"
        },
        {
          "internalType": "uint256",
          "name": "index",
          "type": "uint256"
        }
      ],
      "name": "tokenOfOwnerByIndex",
      "outputs": [
        {
          "internalType": "uint256",
          "name": "",
          "type": "uint256"
        }
      ],
      "payable": false,
      "stateMutability": "view",
      "type": "function"
    },
    {
      "constant": true,
      "inputs": [
        {
          "internalType": "address",
          "name": "owner",
          "type": "address"
        }
      ],
      "name": "tokensIdsOwnedBy",
      "outputs": [
        {
          "internalType": "uint256[]",
          "name": "",
          "type": "uint256[]"
        }
      ],
      "payable": false,
      "stateMutability": "view",
      "type": "function"
    },
    {
      "constant": true,
      "inputs": [],
      "name": "totalSupply",
      "outputs": [
        {
          "internalType": "uint256",
          "name": "",
          "type": "uint256"
        }
      ],
      "payable": false,
      "stateMutability": "view",
      "type": "function"
    },
    {
      "constant": false,
      "inputs": [
        {
          "internalType": "address",
          "name": "from",
          "type": "address"
        },
        {
          "internalType": "address",
          "name": "to",
          "type": "address"
        },
        {
          "internalType": "uint256",
          "name": "tokenId",
          "type": "uint256"
        }
      ],
      "name": "transferFrom",
      "outputs": [],
      "payable": false,
      "stateMutability": "nonpayable",
      "type": "function"
    },
    {
      "constant": false,
      "inputs": [
        {
          "internalType": "address",
          "name": "newOwner",
          "type": "address"
        }
      ],
      "name": "transferOwnership",
      "outputs": [],
      "payable": false,
      "stateMutability": "nonpayable",
      "type": "function"
    },
    {
      "constant": false,
      "inputs": [
        {
          "internalType": "address",
          "name": "genesLaboratoryAddress",
          "type": "address"
        }
      ],
      "name": "setGenesLaboratoryAddress",
      "outputs": [],
      "payable": false,
      "stateMutability": "nonpayable",
      "type": "function"
    },
    {
      "constant": false,
      "inputs": [
        {
          "internalType": "string",
          "name": "_name",
          "type": "string"
        },
        {
          "internalType": "uint64",
          "name": "_creationTime",
          "type": "uint64"
        },
        {
          "internalType": "uint32",
          "name": "_dadId",
          "type": "uint32"
        },
        {
          "internalType": "uint32",
          "name": "_motherId",
          "type": "uint32"
        }
      ],
      "name": "createDragon",
      "outputs": [],
      "payable": false,
      "stateMutability": "nonpayable",
      "type": "function"
    },
    {
      "constant": true,
      "inputs": [
        {
          "internalType": "uint256",
          "name": "id",
          "type": "uint256"
        }
      ],
      "name": "getVisualAttributes",
      "outputs": [
        {
          "internalType": "uint16",
          "name": "head",
          "type": "uint16"
        },
        {
          "internalType": "uint16",
          "name": "body",
          "type": "uint16"
        },
        {
          "internalType": "uint16",
          "name": "wings",
          "type": "uint16"
        }
      ],
      "payable": false,
      "stateMutability": "view",
      "type": "function"
    }
  ],
  "bytecode": "0x60806040526000600c60006101000a81548160ff021916908360ff1602179055503480156200002d57600080fd5b506040516200356138038062003561833981810160405260408110156200005357600080fd5b810190808051906020019092919080519060200190929190505050620000ab6301ffc9a77c010000000000000000000000000000000000000000000000000000000002620002eb640100000000026401000000009004565b620000e86380ac58cd7c010000000000000000000000000000000000000000000000000000000002620002eb640100000000026401000000009004565b6200012563780e9d637c010000000000000000000000000000000000000000000000000000000002620002eb640100000000026401000000009004565b33600960006101000a81548173ffffffffffffffffffffffffffffffffffffffff021916908373ffffffffffffffffffffffffffffffffffffffff160217905550600960009054906101000a900473ffffffffffffffffffffffffffffffffffffffff1673ffffffffffffffffffffffffffffffffffffffff16600073ffffffffffffffffffffffffffffffffffffffff167f8be0079c531659141344cd1fd0a4f28419497f9722a3daafe3b4186f6b6457e060405160405180910390a3600073ffffffffffffffffffffffffffffffffffffffff168273ffffffffffffffffffffffffffffffffffffffff16141562000287576040517f08c379a00000000000000000000000000000000000000000000000000000000081526004018080602001828103825260178152602001807f496e76616c69642067617465776179206164647265737300000000000000000081525060200191505060405180910390fd5b81601060006101000a81548173ffffffffffffffffffffffffffffffffffffffff021916908373ffffffffffffffffffffffffffffffffffffffff16021790555080600c60006101000a81548160ff021916908360ff1602179055505050620003a7565b63ffffffff7c010000000000000000000000000000000000000000000000000000000002817bffffffffffffffffffffffffffffffffffffffffffffffffffffffff191614156200033b57600080fd5b6001600080837bffffffffffffffffffffffffffffffffffffffffffffffffffffffff19167bffffffffffffffffffffffffffffffffffffffffffffffffffffffff1916815260200190815260200160002060006101000a81548160ff02191690831515021790555050565b6131aa80620003b76000396000f3fe608060405234801561001057600080fd5b50600436106101f7576000357c01000000000000000000000000000000000000000000000000000000009004806370a0823111610121578063b1b0473c116100bf578063dfd4e4a41161008e578063dfd4e4a414610c8f578063e985e9c514610cd5578063f2fde38b14610d51578063fe55932a14610d95576101f7565b8063b1b0473c14610a39578063b88d4fde14610a7b578063c9cf557014610b80578063d9b6e2f714610c37576101f7565b80638ec251c3116100fb5780638ec251c3146108ea5780638f32d59b1461098357806398ae481d146109a5578063a22cb465146109e9576101f7565b806370a082311461083e578063715018a6146108965780638da5cb5b146108a0576101f7565b80632014a8be1161019957806342842e0e1161016857806342842e0e146106b25780634f6ccce7146107205780635d64aa68146107625780636352211e146107d0576101f7565b80632014a8be1461053157806323b872dd14610599578063242a0087146106075780632f745c5914610650576101f7565b8063095ea7b3116101d5578063095ea7b3146103685780630b4cb527146103b65780631407b500146104a557806318160ddd14610513576101f7565b806301ffc9a7146101fc5780630469e8ac14610261578063081812fc146102fa575b600080fd5b6102476004803603602081101561021257600080fd5b8101908080357bffffffffffffffffffffffffffffffffffffffffffffffffffffffff19169060200190929190505050610e18565b604051808215151515815260200191505060405180910390f35b6102a36004803603602081101561027757600080fd5b81019080803573ffffffffffffffffffffffffffffffffffffffff169060200190929190505050610e7f565b6040518080602001828103825283818151815260200191508051906020019060200280838360005b838110156102e65780820151818401526020810190506102cb565b505050509050019250505060405180910390f35b6103266004803603602081101561031057600080fd5b8101908080359060200190929190505050610f16565b604051808273ffffffffffffffffffffffffffffffffffffffff1673ffffffffffffffffffffffffffffffffffffffff16815260200191505060405180910390f35b6103b46004803603604081101561037e57600080fd5b81019080803573ffffffffffffffffffffffffffffffffffffffff16906020019092919080359060200190929190505050610f65565b005b6104a3600480360360808110156103cc57600080fd5b81019080803590602001906401000000008111156103e957600080fd5b8201836020820111156103fb57600080fd5b8035906020019184600183028401116401000000008311171561041d57600080fd5b91908080601f016020809104026020016040519081016040528093929190818152602001838380828437600081840152601f19601f820116905080830192505050505050509192919290803567ffffffffffffffff169060200190929190803563ffffffff169060200190929190803563ffffffff1690602001909291905050506110a6565b005b6104d1600480360360208110156104bb57600080fd5b810190808035906020019092919050505061124c565b604051808273ffffffffffffffffffffffffffffffffffffffff1673ffffffffffffffffffffffffffffffffffffffff16815260200191505060405180910390f35b61051b61125e565b6040518082815260200191505060405180910390f35b61055d6004803603602081101561054757600080fd5b810190808035906020019092919050505061126b565b604051808461ffff1661ffff1681526020018361ffff1661ffff1681526020018261ffff1661ffff168152602001935050505060405180910390f35b610605600480360360608110156105af57600080fd5b81019080803573ffffffffffffffffffffffffffffffffffffffff169060200190929190803573ffffffffffffffffffffffffffffffffffffffff16906020019092919080359060200190929190505050611384565b005b6106336004803603602081101561061d57600080fd5b81019080803590602001909291905050506113f3565b604051808381526020018281526020019250505060405180910390f35b61069c6004803603604081101561066657600080fd5b81019080803573ffffffffffffffffffffffffffffffffffffffff1690602001909291908035906020019092919050505061145b565b6040518082815260200191505060405180910390f35b61071e600480360360608110156106c857600080fd5b81019080803573ffffffffffffffffffffffffffffffffffffffff169060200190929190803573ffffffffffffffffffffffffffffffffffffffff169060200190929190803590602001909291905050506114ce565b005b61074c6004803603602081101561073657600080fd5b81019080803590602001909291905050506114ee565b6040518082815260200191505060405180910390f35b61078e6004803603602081101561077857600080fd5b8101908080359060200190929190505050611522565b604051808273ffffffffffffffffffffffffffffffffffffffff1673ffffffffffffffffffffffffffffffffffffffff16815260200191505060405180910390f35b6107fc600480360360208110156107e657600080fd5b8101908080359060200190929190505050611555565b604051808273ffffffffffffffffffffffffffffffffffffffff1673ffffffffffffffffffffffffffffffffffffffff16815260200191505060405180910390f35b6108806004803603602081101561085457600080fd5b81019080803573ffffffffffffffffffffffffffffffffffffffff1690602001909291905050506115d1565b6040518082815260200191505060405180910390f35b61089e6116c3565b005b6108a86117e1565b604051808273ffffffffffffffffffffffffffffffffffffffff1673ffffffffffffffffffffffffffffffffffffffff16815260200191505060405180910390f35b61092c6004803603602081101561090057600080fd5b81019080803573ffffffffffffffffffffffffffffffffffffffff16906020019092919050505061180b565b6040518080602001828103825283818151815260200191508051906020019060200280838360005b8381101561096f578082015181840152602081019050610954565b505050509050019250505060405180910390f35b61098b611945565b604051808215151515815260200191505060405180910390f35b6109e7600480360360208110156109bb57600080fd5b81019080803573ffffffffffffffffffffffffffffffffffffffff16906020019092919050505061199d565b005b610a37600480360360408110156109ff57600080fd5b81019080803573ffffffffffffffffffffffffffffffffffffffff169060200190929190803515159060200190929190505050611ac4565b005b610a6560048036036020811015610a4f57600080fd5b8101908080359060200190929190505050611bfe565b6040518082815260200191505060405180910390f35b610b7e60048036036080811015610a9157600080fd5b81019080803573ffffffffffffffffffffffffffffffffffffffff169060200190929190803573ffffffffffffffffffffffffffffffffffffffff1690602001909291908035906020019092919080359060200190640100000000811115610af857600080fd5b820183602082011115610b0a57600080fd5b80359060200191846001830284011164010000000083111715610b2c57600080fd5b91908080601f016020809104026020016040519081016040528093929190818152602001838380828437600081840152601f19601f820116905080830192505050505050509192919290505050611c26565b005b610bac60048036036020811015610b9657600080fd5b8101908080359060200190929190505050611c98565b604051808981526020018863ffffffff1663ffffffff1681526020018763ffffffff1663ffffffff1681526020018663ffffffff1663ffffffff1681526020018561ffff1661ffff1681526020018461ffff1661ffff1681526020018361ffff1661ffff1681526020018261ffff1661ffff1681526020019850505050505050505060405180910390f35b610c7960048036036020811015610c4d57600080fd5b81019080803573ffffffffffffffffffffffffffffffffffffffff169060200190929190505050611d6f565b6040518082815260200191505060405180910390f35b610cbb60048036036020811015610ca557600080fd5b8101908080359060200190929190505050611d81565b604051808215151515815260200191505060405180910390f35b610d3760048036036040811015610ceb57600080fd5b81019080803573ffffffffffffffffffffffffffffffffffffffff169060200190929190803573ffffffffffffffffffffffffffffffffffffffff169060200190929190505050611def565b604051808215151515815260200191505060405180910390f35b610d9360048036036020811015610d6757600080fd5b81019080803573ffffffffffffffffffffffffffffffffffffffff169060200190929190505050611e83565b005b610e1660048036036040811015610dab57600080fd5b810190808035906020019092919080359060200190640100000000811115610dd257600080fd5b820183602082011115610de457600080fd5b80359060200191846001830284011164010000000083111715610e0657600080fd5b9091929391929390505050611eec565b005b6000806000837bffffffffffffffffffffffffffffffffffffffffffffffffffffffff19167bffffffffffffffffffffffffffffffffffffffffffffffffffffffff1916815260200190815260200160002060009054906101000a900460ff169050919050565b6060600560008373ffffffffffffffffffffffffffffffffffffffff1673ffffffffffffffffffffffffffffffffffffffff168152602001908152602001600020805480602002602001604051908101604052809291908181526020018280548015610f0a57602002820191906000526020600020905b815481526020019060010190808311610ef6575b50505050509050919050565b6000610f2182612091565b610f2a57600080fd5b6002600083815260200190815260200160002060009054906101000a900473ffffffffffffffffffffffffffffffffffffffff169050919050565b6000610f7082611555565b90508073ffffffffffffffffffffffffffffffffffffffff168373ffffffffffffffffffffffffffffffffffffffff161415610fab57600080fd5b8073ffffffffffffffffffffffffffffffffffffffff163373ffffffffffffffffffffffffffffffffffffffff161480610feb5750610fea8133611def565b5b610ff457600080fd5b826002600084815260200190815260200160002060006101000a81548173ffffffffffffffffffffffffffffffffffffffff021916908373ffffffffffffffffffffffffffffffffffffffff160217905550818373ffffffffffffffffffffffffffffffffffffffff168273ffffffffffffffffffffffffffffffffffffffff167f8c5be1e5ebec7d5bd14f71427d1e84f3dd0314c0f7b2291e5b200ac8c7c3b92560405160405180910390a4505050565b6000806000806000806000601160009054906101000a900473ffffffffffffffffffffffffffffffffffffffff1673ffffffffffffffffffffffffffffffffffffffff1663355916a46040518163ffffffff167c010000000000000000000000000000000000000000000000000000000002815260040160e06040518083038186803b15801561113557600080fd5b505afa158015611149573d6000803e3d6000fd5b505050506040513d60e081101561115f57600080fd5b8101908080519060200190929190805190602001909291908051906020019092919080519060200190929190805190602001909291908051906020019092919080519060200190929190505050965096509650965096509650965060006111c58c612103565b905060006111ee89838e8e8e60008a8f8f8f8f8e600c60009054906101000a900460ff1661212f565b90506111fa33826123c8565b7f3045fac2aa90b666e53421f7c8b2245fae88d8c0bc2a2b62ff6283daea24f36f818a60019004604051808381526020018281526020019250505060405180910390a150505050505050505050505050565b600061125782611555565b9050919050565b6000600780549050905090565b600080600080600a858154811061127e57fe5b90600052602060002090600402019050601160009054906101000a900473ffffffffffffffffffffffffffffffffffffffff1673ffffffffffffffffffffffffffffffffffffffff166391926cff82600001546040518263ffffffff167c01000000000000000000000000000000000000000000000000000000000281526004018082815260200191505060606040518083038186803b15801561132157600080fd5b505afa158015611335573d6000803e3d6000fd5b505050506040513d606081101561134b57600080fd5b81019080805190602001909291908051906020019092919080519060200190929190505050809450819550829650505050509193909250565b61138e33826123e9565b6113e3576040517f08c379a00000000000000000000000000000000000000000000000000000000081526004018080602001828103825260328152602001806130986032913960400191505060405180910390fd5b6113ee83838361247e565b505050565b6000806000600a848154811061140557fe5b9060005260206000209060040201905080600201600c9054906101000a900463ffffffff168160020160089054906101000a900463ffffffff168163ffffffff1691508063ffffffff1690509250925050915091565b6000611466836115d1565b821061147157600080fd5b600560008473ffffffffffffffffffffffffffffffffffffffff1673ffffffffffffffffffffffffffffffffffffffff16815260200190815260200160002082815481106114bb57fe5b9060005260206000200154905092915050565b6114e983838360405180602001604052806000815250611c26565b505050565b60006114f861125e565b821061150357600080fd5b6007828154811061151057fe5b90600052602060002001549050919050565b600b6020528060005260406000206000915054906101000a900473ffffffffffffffffffffffffffffffffffffffff1681565b6000806001600084815260200190815260200160002060009054906101000a900473ffffffffffffffffffffffffffffffffffffffff169050600073ffffffffffffffffffffffffffffffffffffffff168173ffffffffffffffffffffffffffffffffffffffff1614156115c857600080fd5b80915050919050565b60008073ffffffffffffffffffffffffffffffffffffffff168273ffffffffffffffffffffffffffffffffffffffff161415611675576040517f08c379a000000000000000000000000000000000000000000000000000000000815260040180806020018281038252600f8152602001807f496e76616c69642061646472657373000000000000000000000000000000000081525060200191505060405180910390fd5b6116bc600360008473ffffffffffffffffffffffffffffffffffffffff1673ffffffffffffffffffffffffffffffffffffffff1681526020019081526020016000206124a2565b9050919050565b6116cb611945565b611720576040517f08c379a00000000000000000000000000000000000000000000000000000000081526004018080602001828103825260268152602001806130726026913960400191505060405180910390fd5b600073ffffffffffffffffffffffffffffffffffffffff16600960009054906101000a900473ffffffffffffffffffffffffffffffffffffffff1673ffffffffffffffffffffffffffffffffffffffff167f8be0079c531659141344cd1fd0a4f28419497f9722a3daafe3b4186f6b6457e060405160405180910390a36000600960006101000a81548173ffffffffffffffffffffffffffffffffffffffff021916908373ffffffffffffffffffffffffffffffffffffffff160217905550565b6000600960009054906101000a900473ffffffffffffffffffffffffffffffffffffffff16905090565b6060600073ffffffffffffffffffffffffffffffffffffffff168273ffffffffffffffffffffffffffffffffffffffff1614156118b0576040517f08c379a000000000000000000000000000000000000000000000000000000000815260040180806020018281038252600f8152602001807f496e76616c69642061646472657373000000000000000000000000000000000081525060200191505060405180910390fd5b600560008373ffffffffffffffffffffffffffffffffffffffff1673ffffffffffffffffffffffffffffffffffffffff16815260200190815260200160002080548060200260200160405190810160405280929190818152602001828054801561193957602002820191906000526020600020905b815481526020019060010190808311611925575b50505050509050919050565b6000600960009054906101000a900473ffffffffffffffffffffffffffffffffffffffff1673ffffffffffffffffffffffffffffffffffffffff163373ffffffffffffffffffffffffffffffffffffffff1614905090565b6119a5611945565b6119fa576040517f08c379a00000000000000000000000000000000000000000000000000000000081526004018080602001828103825260268152602001806130726026913960400191505060405180910390fd5b600073ffffffffffffffffffffffffffffffffffffffff168173ffffffffffffffffffffffffffffffffffffffff161415611a80576040517f08c379a00000000000000000000000000000000000000000000000000000000081526004018080602001828103825260218152602001806130f16021913960400191505060405180910390fd5b80601160006101000a81548173ffffffffffffffffffffffffffffffffffffffff021916908373ffffffffffffffffffffffffffffffffffffffff16021790555050565b3373ffffffffffffffffffffffffffffffffffffffff168273ffffffffffffffffffffffffffffffffffffffff161415611afd57600080fd5b80600460003373ffffffffffffffffffffffffffffffffffffffff1673ffffffffffffffffffffffffffffffffffffffff16815260200190815260200160002060008473ffffffffffffffffffffffffffffffffffffffff1673ffffffffffffffffffffffffffffffffffffffff16815260200190815260200160002060006101000a81548160ff0219169083151502179055508173ffffffffffffffffffffffffffffffffffffffff163373ffffffffffffffffffffffffffffffffffffffff167f17307eab39ab6107e8899845ad3d59bd9653f200f220920489ca2b5937696c3183604051808215151515815260200191505060405180910390a35050565b6000600a8281548110611c0d57fe5b9060005260206000209060040201600101549050919050565b611c31848484611384565b611c3d848484846124b0565b611c92576040517f08c379a000000000000000000000000000000000000000000000000000000000815260040180806020018281038252603c815260200180613112603c913960400191505060405180910390fd5b50505050565b6000806000806000806000806000600a8a81548110611cb357fe5b90600052602060002090600402019050806001015498508060020160089054906101000a900463ffffffff16975080600201600c9054906101000a900463ffffffff1696508060020160109054906101000a900463ffffffff1695508060020160169054906101000a900461ffff1694508060020160189054906101000a900461ffff16935080600201601a9054906101000a900461ffff16925080600201601c9054906101000a900461ffff16915050919395975091939597565b6000611d7a826115d1565b9050919050565b600080600a8381548110611d9157fe5b906000526020600020906004020190506000603c8260020160009054906101000a900467ffffffffffffffff1667ffffffffffffffff16420302905081600201601e9054906101000a900461ffff1661ffff16811092505050919050565b6000600460008473ffffffffffffffffffffffffffffffffffffffff1673ffffffffffffffffffffffffffffffffffffffff16815260200190815260200160002060008373ffffffffffffffffffffffffffffffffffffffff1673ffffffffffffffffffffffffffffffffffffffff16815260200190815260200160002060009054906101000a900460ff16905092915050565b611e8b611945565b611ee0576040517f08c379a00000000000000000000000000000000000000000000000000000000081526004018080602001828103825260268152602001806130726026913960400191505060405180910390fd5b611ee9816126d1565b50565b823373ffffffffffffffffffffffffffffffffffffffff16611f0d82611555565b73ffffffffffffffffffffffffffffffffffffffff1614611f96576040517f08c379a00000000000000000000000000000000000000000000000000000000081526004018080602001828103825260198152602001807f596f7520646f6e2774206f776e207468697320647261676f6e0000000000000081525060200191505060405180910390fd5b6000600a8581548110611fa557fe5b90600052602060002090600402019050600061200485858080601f016020809104026020016040519081016040528093929190818152602001838380828437600081840152601f19601f82011690508083019250505050505050612103565b90506000600102811415612080576040517f08c379a000000000000000000000000000000000000000000000000000000000815260040180806020018281038252601e8152602001807f456d707479206e616d657320617265206e6f742061636365707461626c65000081525060200191505060405180910390fd5b808260010181905550505050505050565b6000806001600084815260200190815260200160002060009054906101000a900473ffffffffffffffffffffffffffffffffffffffff169050600073ffffffffffffffffffffffffffffffffffffffff168173ffffffffffffffffffffffffffffffffffffffff161415915050919050565b6000606082905060008151141561212157600060010291505061212a565b60208301519150505b919050565b60006001600a604051806101a0016040528060006001028152602001600060010281526020018f67ffffffffffffffff1681526020018e63ffffffff1681526020018d63ffffffff1681526020018c63ffffffff1681526020018b61ffff1681526020018a61ffff1681526020018961ffff1681526020018861ffff1681526020018761ffff1681526020018661ffff1681526020018560ff1681525090806001815401808255809150509060018203906000526020600020906004020160009091929091909150600082015181600001556020820151816001015560408201518160020160006101000a81548167ffffffffffffffff021916908367ffffffffffffffff16021790555060608201518160020160086101000a81548163ffffffff021916908363ffffffff160217905550608082015181600201600c6101000a81548163ffffffff021916908363ffffffff16021790555060a08201518160020160106101000a81548163ffffffff021916908363ffffffff16021790555060c08201518160020160146101000a81548161ffff021916908361ffff16021790555060e08201518160020160166101000a81548161ffff021916908361ffff1602179055506101008201518160020160186101000a81548161ffff021916908361ffff16021790555061012082015181600201601a6101000a81548161ffff021916908361ffff16021790555061014082015181600201601c6101000a81548161ffff021916908361ffff16021790555061016082015181600201601e6101000a81548161ffff021916908361ffff1602179055506101808201518160030160006101000a81548160ff021916908360ff16021790555050500390506123b7818f8f612834565b9d9c50505050505050505050505050565b6123d2828261286b565b6123dc8282612964565b6123e581612a2b565b5050565b6000806123f583611555565b90508073ffffffffffffffffffffffffffffffffffffffff168473ffffffffffffffffffffffffffffffffffffffff16148061246457508373ffffffffffffffffffffffffffffffffffffffff1661244c84610f16565b73ffffffffffffffffffffffffffffffffffffffff16145b8061247557506124748185611def565b5b91505092915050565b612489838383612a77565b6124938382612cd2565b61249d8282612964565b505050565b600081600001549050919050565b60006124d18473ffffffffffffffffffffffffffffffffffffffff16612e70565b6124de57600190506126c9565b60008473ffffffffffffffffffffffffffffffffffffffff1663150b7a02338887876040518563ffffffff167c0100000000000000000000000000000000000000000000000000000000028152600401808573ffffffffffffffffffffffffffffffffffffffff1673ffffffffffffffffffffffffffffffffffffffff1681526020018473ffffffffffffffffffffffffffffffffffffffff1673ffffffffffffffffffffffffffffffffffffffff16815260200183815260200180602001828103825283818151815260200191508051906020019080838360005b838110156125d55780820151818401526020810190506125ba565b50505050905090810190601f1680156126025780820380516001836020036101000a031916815260200191505b5095505050505050602060405180830381600087803b15801561262457600080fd5b505af1158015612638573d6000803e3d6000fd5b505050506040513d602081101561264e57600080fd5b8101908080519060200190929190505050905063150b7a027c0100000000000000000000000000000000000000000000000000000000027bffffffffffffffffffffffffffffffffffffffffffffffffffffffff1916817bffffffffffffffffffffffffffffffffffffffffffffffffffffffff1916149150505b949350505050565b600073ffffffffffffffffffffffffffffffffffffffff168173ffffffffffffffffffffffffffffffffffffffff161415612774576040517f08c379a00000000000000000000000000000000000000000000000000000000081526004018080602001828103825260198152602001807f496e76616c6964206e6577206f776e657220616464726573730000000000000081525060200191505060405180910390fd5b8073ffffffffffffffffffffffffffffffffffffffff16600960009054906101000a900473ffffffffffffffffffffffffffffffffffffffff1673ffffffffffffffffffffffffffffffffffffffff167f8be0079c531659141344cd1fd0a4f28419497f9722a3daafe3b4186f6b6457e060405160405180910390a380600960006101000a81548173ffffffffffffffffffffffffffffffffffffffff021916908373ffffffffffffffffffffffffffffffffffffffff16021790555050565b6000600a848154811061284357fe5b9060005260206000209060040201905082816000018190555081816001018190555050505050565b816001600083815260200190815260200160002060006101000a81548173ffffffffffffffffffffffffffffffffffffffff021916908373ffffffffffffffffffffffffffffffffffffffff160217905550612904600360008473ffffffffffffffffffffffffffffffffffffffff1673ffffffffffffffffffffffffffffffffffffffff168152602001908152602001600020612e83565b808273ffffffffffffffffffffffffffffffffffffffff16600073ffffffffffffffffffffffffffffffffffffffff167fddf252ad1be2c89b69c2b068fc378daa952ba7f163c4a11628f55a4df523b3ef60405160405180910390a45050565b600560008373ffffffffffffffffffffffffffffffffffffffff1673ffffffffffffffffffffffffffffffffffffffff168152602001908152602001600020805490506006600083815260200190815260200160002081905550600560008373ffffffffffffffffffffffffffffffffffffffff1673ffffffffffffffffffffffffffffffffffffffff1681526020019081526020016000208190806001815401808255809150509060018203906000526020600020016000909192909190915055505050565b6007805490506008600083815260200190815260200160002081905550600781908060018154018082558091505090600182039060005260206000200160009091929091909150555050565b8273ffffffffffffffffffffffffffffffffffffffff16612a9782611555565b73ffffffffffffffffffffffffffffffffffffffff1614612b03576040517f08c379a000000000000000000000000000000000000000000000000000000000815260040180806020018281038252602881526020018061314e6028913960400191505060405180910390fd5b600073ffffffffffffffffffffffffffffffffffffffff168273ffffffffffffffffffffffffffffffffffffffff161415612b89576040517f08c379a00000000000000000000000000000000000000000000000000000000081526004018080602001828103825260278152602001806130ca6027913960400191505060405180910390fd5b612b9281612e99565b612bd9600360008573ffffffffffffffffffffffffffffffffffffffff1673ffffffffffffffffffffffffffffffffffffffff168152602001908152602001600020612f57565b612c20600360008473ffffffffffffffffffffffffffffffffffffffff1673ffffffffffffffffffffffffffffffffffffffff168152602001908152602001600020612e83565b816001600083815260200190815260200160002060006101000a81548173ffffffffffffffffffffffffffffffffffffffff021916908373ffffffffffffffffffffffffffffffffffffffff160217905550808273ffffffffffffffffffffffffffffffffffffffff168473ffffffffffffffffffffffffffffffffffffffff167fddf252ad1be2c89b69c2b068fc378daa952ba7f163c4a11628f55a4df523b3ef60405160405180910390a4505050565b6000612d2a6001600560008673ffffffffffffffffffffffffffffffffffffffff1673ffffffffffffffffffffffffffffffffffffffff16815260200190815260200160002080549050612f7a90919063ffffffff16565b9050600060066000848152602001908152602001600020549050818114612e17576000600560008673ffffffffffffffffffffffffffffffffffffffff1673ffffffffffffffffffffffffffffffffffffffff1681526020019081526020016000208381548110612d9757fe5b9060005260206000200154905080600560008773ffffffffffffffffffffffffffffffffffffffff1673ffffffffffffffffffffffffffffffffffffffff1681526020019081526020016000208381548110612def57fe5b9060005260206000200181905550816006600083815260200190815260200160002081905550505b600560008573ffffffffffffffffffffffffffffffffffffffff1673ffffffffffffffffffffffffffffffffffffffff168152602001908152602001600020805480919060019003612e699190612fe6565b5050505050565b600080823b905060008111915050919050565b6001816000016000828254019250508190555050565b600073ffffffffffffffffffffffffffffffffffffffff166002600083815260200190815260200160002060009054906101000a900473ffffffffffffffffffffffffffffffffffffffff1673ffffffffffffffffffffffffffffffffffffffff1614612f545760006002600083815260200190815260200160002060006101000a81548173ffffffffffffffffffffffffffffffffffffffff021916908373ffffffffffffffffffffffffffffffffffffffff1602179055505b50565b612f6f60018260000154612f7a90919063ffffffff16565b816000018190555050565b600082821115612fd5576040517f08c379a000000000000000000000000000000000000000000000000000000000815260040180806020018281038252603a815260200180613038603a913960400191505060405180910390fd5b600082840390508091505092915050565b81548183558181111561300d5781836000526020600020918201910161300c9190613012565b5b505050565b61303491905b80821115613030576000816000905550600101613018565b5090565b9056fe61206d7573742062652067726561746572207468616e20622c206e6567617469766520726573756c747320617265206e6f7420616c6c6f7765644f6e6c7920746865206f776e65722063616e20706572666f726d207468697320616374696f6e53656e64657220646f65736e2774206f776e207468697320746f6b656e206f72206861766520726967687473206f6e206974496e76616c696420616464726573732e204572726f72207472616e73666572696320746f6b656e616464726573732073686f756c64206861766520612076616c69642076616c7565546172676574206164647265737320646f6573206e6f7420696d706c656d656e74206f6e455243373231526563656976656420696e7465726661636553656e64657220646f65736e74206f776e20746f6b656e20746f206265207472616e736665726564a265627a7a7231582079648c3082fbccebf712dcdda9d1563e6f1f433b8a2e0a8ab6be9ee100f6d5fa64736f6c63430005110032",
  "source": "pragma solidity ^0.5.0;\r\n\r\nimport './DragonBase.sol';\r\n\r\ncontract IGenesLaboratory {\r\n\tfunction createNewDragonGenes()\r\n\t\texternal\r\n\t\tpure\r\n\t\treturns (\r\n\t\t\tbytes32 genes,\r\n\t\t\tuint16 initialHealth,\r\n\t\t\tuint16 initialStrength,\r\n\t\t\tuint16 initialAgility,\r\n\t\t\tuint16 initialFortitude,\r\n\t\t\tuint16 actionCooldown,\r\n\t\t\tuint16 hatchTime\r\n\t\t);\r\n\r\n\tfunction createChildGenes(bytes32 fatherGenes, bytes32 motherGenes)\r\n\t\texternal\r\n\t\tpure\r\n\t\treturns (\r\n\t\t\tbytes32 childGenes,\r\n\t\t\tuint16 initialHealth,\r\n\t\t\tuint16 initialStrength,\r\n\t\t\tuint16 initialAgility,\r\n\t\t\tuint16 initialFortitude,\r\n\t\t\tuint16 actionCooldown,\r\n\t\t\tuint16 hatchTime\r\n\t\t);\r\n\r\n\tfunction getVisualAttributes(bytes32 genes)\r\n\t\texternal\r\n\t\tpure\r\n\t\treturns (\r\n\t\t\tuint16 head,\r\n\t\t\tuint16 body,\r\n\t\t\tuint16 wings\r\n\t\t);\r\n}\r\n\r\ncontract DragonFactory is DragonBase {\r\n\tuint256 constant dnaDigits = 16;\r\n\tuint256 constant dnaModulus = 10**dnaDigits;\r\n\r\n\tuint8 internal _blockchainId = 0;\r\n\r\n\t// Maps other token ids from the other blockchain to token ids of this blockchain\r\n\tmapping(uint256 => uint256) private _foreignIdToLocalId;\r\n\tmapping(uint256 => uint256) private _localIdToForeignId;\r\n\tmapping(uint256 => bool) private _tokenMapped; // If we allow token destruction we should be careful with token ids reorder\r\n\r\n\taddress internal _gateway;\r\n\taddress internal _genesLaboratory;\r\n\r\n\tevent NewDragon(uint256 dragonId, uint256 genes);\r\n\r\n\tconstructor(address gateway, uint8 blockchainId) public DragonBase() {\r\n\t\trequire(gateway != address(0), 'Invalid gateway address');\r\n\t\t_gateway = gateway;\r\n\t\t_blockchainId = blockchainId;\r\n\t}\r\n\r\n\tfunction setGenesLaboratoryAddress(address genesLaboratoryAddress) external onlyOwner {\r\n\t\trequire(genesLaboratoryAddress != address(0), 'address should have a valid value');\r\n\t\t_genesLaboratory = genesLaboratoryAddress;\r\n\t}\r\n\r\n\t// TODO RESTRICT ACCESS\r\n\t/**\r\n     Creates new Dragon and give it to its creator.\r\n    */\r\n\tfunction createDragon(\r\n\t\tstring memory _name,\r\n\t\tuint64 _creationTime,\r\n\t\tuint32 _dadId,\r\n\t\tuint32 _motherId\r\n\t) public {\r\n\t\t//Dragon storage father = dragons[_dadId];\r\n\t\t// Dragon storage mother = dragons[_motherId];\r\n\r\n\t\t(\r\n\t\t\tbytes32 genes,\r\n\t\t\tuint16 initialHealth,\r\n\t\t\tuint16 initialStrength,\r\n\t\t\tuint16 initialAgility,\r\n\t\t\tuint16 initialFortitude,\r\n\t\t\tuint16 actionCooldown,\r\n\t\t\tuint16 hatchTime\r\n\t\t) = IGenesLaboratory(_genesLaboratory).createNewDragonGenes();\r\n\r\n\t\tbytes32 nameInBytes = _stringToBytes32(_name);\r\n\r\n\t\tuint256 id =\r\n\t\t\t_createDragonWithStats(\r\n\t\t\t\tgenes,\r\n\t\t\t\tnameInBytes,\r\n\t\t\t\t_creationTime,\r\n\t\t\t\t_dadId,\r\n\t\t\t\t_motherId,\r\n\t\t\t\t0,\r\n\t\t\t\tactionCooldown,\r\n\t\t\t\tinitialHealth,\r\n\t\t\t\tinitialStrength,\r\n\t\t\t\tinitialAgility,\r\n\t\t\t\tinitialFortitude,\r\n\t\t\t\thatchTime,\r\n\t\t\t\t_blockchainId\r\n\t\t\t);\r\n\r\n\t\t_mint(msg.sender, id);\r\n\t\temit NewDragon(id, uint256(genes));\r\n\t}\r\n\r\n\tfunction getVisualAttributes(uint256 id)\r\n\t\tpublic\r\n\t\tview\r\n\t\treturns (\r\n\t\t\tuint16 head,\r\n\t\t\tuint16 body,\r\n\t\t\tuint16 wings\r\n\t\t)\r\n\t{\r\n\t\tDragon storage dragon = dragons[id];\r\n\t\t(head, body, wings) = IGenesLaboratory(_genesLaboratory).getVisualAttributes(dragon.genes);\r\n\t}\r\n\r\n\t//TODO implement burn function which should update mainchainToSidechainIds mapping\r\n\r\n\t//\r\n\t/** Used by gateway to recreate a dragon from received data\r\n        If has not been mapped, it means this token only exists on the other blockchain. We should recreate it and assign it a new local id mapped to its original\r\n     */\r\n\tfunction _mintReceivedDragon(\r\n\t\taddress to,\r\n\t\tuint256 _originalTokenId,\r\n\t\tbytes memory _data\r\n\t) internal {\r\n\t\tuint8 blockchainId = _decodeBlockchainIdFromData(_data);\r\n\t\tbool originatedInThisBlockchain = blockchainId == _blockchainId;\r\n\r\n\t\tif (originatedInThisBlockchain) {\r\n\t\t\tsafeTransferFrom(_gateway, to, _originalTokenId, _data);\r\n\t\t\t_updateDragonFromData(_originalTokenId, _data);\r\n\t\t} else {\r\n\t\t\t// If token was created in other blockchain and never mapped. Recreated\r\n\t\t\tif (_tokenMapped[_originalTokenId] == false) {\r\n\t\t\t\tuint256 tokenId = _createDragonFromData(_data);\r\n\t\t\t\t_foreignIdToLocalId[_originalTokenId] = tokenId;\r\n\t\t\t\t_localIdToForeignId[tokenId] = _originalTokenId;\r\n\t\t\t\t_tokenMapped[_originalTokenId] = true;\r\n\r\n\t\t\t\t_mint(to, tokenId);\r\n\r\n\t\t\t\t// If token was mapped, it means it was already recreated in this blockchain. Update it!\r\n\t\t\t} else {\r\n\t\t\t\tuint256 tokenId = _foreignIdToLocalId[_originalTokenId];\r\n\t\t\t\tsafeTransferFrom(_gateway, to, tokenId, _data);\r\n\t\t\t\t_updateDragonFromData(tokenId, _data);\r\n\t\t\t}\r\n\t\t}\r\n\t}\r\n\r\n\tfunction _createDragonFromData(bytes memory _data) private returns (uint256) {\r\n\t\t(bytes32 _genes, bytes32 _name, uint64 _creationTime, uint32 _dadId, uint32 _motherId, uint32 _currentExperience) =\r\n\t\t\t_decodeFirstHalfOfDragonFromBytes(_data);\r\n\r\n\t\t(\r\n\t\t\tuint16 _actionCooldown,\r\n\t\t\tuint16 _health,\r\n\t\t\tuint16 _strength,\r\n\t\t\tuint16 _agility,\r\n\t\t\tuint16 _fortitude,\r\n\t\t\tuint16 _hatchTime,\r\n\t\t\tuint8 _blockchainOriginId\r\n\t\t) = _decodeSecondHalfOfDragonFromBytes(_data);\r\n\r\n\t\tuint256 id =\r\n\t\t\t_createDragonWithStats(\r\n\t\t\t\t_genes,\r\n\t\t\t\t_name,\r\n\t\t\t\t_creationTime,\r\n\t\t\t\t_dadId,\r\n\t\t\t\t_motherId,\r\n\t\t\t\t_currentExperience,\r\n\t\t\t\t_actionCooldown,\r\n\t\t\t\t_health,\r\n\t\t\t\t_strength,\r\n\t\t\t\t_agility,\r\n\t\t\t\t_fortitude,\r\n\t\t\t\t_hatchTime,\r\n\t\t\t\t_blockchainOriginId\r\n\t\t\t);\r\n\r\n\t\treturn id;\r\n\t}\r\n\r\n\tfunction _createDragonWithStats(\r\n\t\tbytes32 _genes,\r\n\t\tbytes32 _name,\r\n\t\tuint64 _creationTime,\r\n\t\tuint32 _dadId,\r\n\t\tuint32 _motherId,\r\n\t\tuint32 _currentExperience,\r\n\t\tuint16 _actionCooldown,\r\n\t\tuint16 _health,\r\n\t\tuint16 _strength,\r\n\t\tuint16 _agility,\r\n\t\tuint16 _fortitude,\r\n\t\tuint16 _hatchTime,\r\n\t\tuint8 _blockchainOriginId\r\n\t) private returns (uint256 id) {\r\n\t\tid =\r\n\t\t\tdragons.push(\r\n\t\t\t\tDragon({\r\n\t\t\t\t\tgenes: 0,\r\n\t\t\t\t\tname: 0,\r\n\t\t\t\t\tcreationTime: _creationTime, // level attributes\r\n\t\t\t\t\tcurrentExperience: _currentExperience, // parents information\r\n\t\t\t\t\tdadId: _dadId,\r\n\t\t\t\t\tmotherId: _motherId,\r\n\t\t\t\t\tactionCooldown: _actionCooldown,\r\n\t\t\t\t\thealth: _health,\r\n\t\t\t\t\tstrength: _strength,\r\n\t\t\t\t\tagility: _agility,\r\n\t\t\t\t\tfortitude: _fortitude,\r\n\t\t\t\t\thatchTime: _hatchTime,\r\n\t\t\t\t\tblockchainOriginId: _blockchainOriginId\r\n\t\t\t\t})\r\n\t\t\t) -\r\n\t\t\t1;\r\n\r\n\t\t// Assign genes in different function as a workaround to the stack too deep exception\r\n\t\t_assignGenesAndName(id, _genes, _name);\r\n\t}\r\n\r\n\tfunction _assignGenesAndName(\r\n\t\tuint256 _dragonId,\r\n\t\tbytes32 _genes,\r\n\t\tbytes32 _name\r\n\t) private {\r\n\t\tDragon storage dragon = dragons[_dragonId];\r\n\t\tdragon.genes = _genes;\r\n\t\tdragon.name = _name;\r\n\t}\r\n\r\n\tfunction _updateDragonFromData(uint256 _tokenId, bytes memory _data) private {\r\n\t\t(bytes32 _genes, bytes32 _name, uint64 _creationTime, uint32 _dadId, uint32 _motherId, uint32 _currentExperience) =\r\n\t\t\t_decodeFirstHalfOfDragonFromBytes(_data);\r\n\r\n\t\t(\r\n\t\t\tuint16 _actionCooldown,\r\n\t\t\tuint16 _health,\r\n\t\t\tuint16 _strength,\r\n\t\t\tuint16 _agility,\r\n\t\t\tuint16 _fortitude,\r\n\t\t\tuint16 _hatchTime,\r\n\t\t\tuint8 _blockchainOriginId\r\n\t\t) = _decodeSecondHalfOfDragonFromBytes(_data);\r\n\r\n\t\t_updateDragonWithStats(\r\n\t\t\t_tokenId,\r\n\t\t\t_genes,\r\n\t\t\t_name,\r\n\t\t\t_creationTime,\r\n\t\t\t_dadId,\r\n\t\t\t_motherId,\r\n\t\t\t_currentExperience,\r\n\t\t\t_actionCooldown,\r\n\t\t\t_health,\r\n\t\t\t_strength,\r\n\t\t\t_agility,\r\n\t\t\t_fortitude,\r\n\t\t\t_hatchTime,\r\n\t\t\t_blockchainOriginId\r\n\t\t);\r\n\t}\r\n\r\n\tfunction _updateDragonWithStats(\r\n\t\tuint256 _tokenId,\r\n\t\tbytes32 _genes,\r\n\t\tbytes32 _name,\r\n\t\tuint64 _creationTime,\r\n\t\tuint32 _dadId,\r\n\t\tuint32 _motherId,\r\n\t\tuint32 _currentExperience,\r\n\t\tuint16 _actionCooldown,\r\n\t\tuint16 _health,\r\n\t\tuint16 _strength,\r\n\t\tuint16 _agility,\r\n\t\tuint16 _fortitude,\r\n\t\tuint16 _hatchTime,\r\n\t\tuint8 _blockchainOriginId\r\n\t) private {\r\n\t\tDragon storage dragon = dragons[_tokenId];\r\n\t\tdragon.genes = _genes;\r\n\t\tdragon.name = _name;\r\n\t\tdragon.creationTime = _creationTime;\r\n\t\tdragon.dadId = _dadId;\r\n\t\tdragon.motherId = _motherId;\r\n\t\tdragon.currentExperience = _currentExperience;\r\n\t\tdragon.actionCooldown = _actionCooldown;\r\n\t\tdragon.health = _health;\r\n\t\tdragon.strength = _strength;\r\n\t\tdragon.agility = _agility;\r\n\t\tdragon.fortitude = _fortitude;\r\n\t\tdragon.hatchTime = _hatchTime;\r\n\t\tdragon.blockchainOriginId = _blockchainOriginId;\r\n\t}\r\n\r\n\tfunction _generateRandomDna(string memory _str) private pure returns (uint256) {\r\n\t\tuint256 rand = uint256(keccak256(abi.encodePacked(_str)));\r\n\t\treturn rand % dnaModulus;\r\n\t}\r\n\r\n\tfunction _getForeignTokenId(uint256 _localTokenId) internal view returns (uint256) {\r\n\t\treturn _localIdToForeignId[_localTokenId];\r\n\t}\r\n}\r\n",
  "sourcePath": "/mnt/d/workspace/cryptodragons/truffle-project/contracts/common/DragonFactory.sol",
  "compiler": {
    "name": "solc",
    "version": "0.5.17+commit.d19bba13.Emscripten.clang"
  },
  "schemaVersion": "3.0.1",
  "updatedAt": "2021-05-16T14:04:47.266Z",
  "devdoc": {
    "methods": {
      "approve(address,uint256)": {
        "details": "Approves another address to transfer the given token ID The zero address indicates there is no approved address. There can only be one approved address per token at a given time. Can only be called by the token owner or an approved operator.",
        "params": {
          "to": "address to be approved for the given token ID",
          "tokenId": "uint256 ID of the token to be approved"
        }
      },
      "balanceOf(address)": {
        "details": "Gets the balance of the specified address",
        "params": {
          "owner": "address to query the balance of"
        },
        "return": "uint256 representing the amount owned by the passed address"
      },
      "getApproved(uint256)": {
        "details": "Gets the approved address for a token ID, or zero if no address set Reverts if the token ID does not exist.",
        "params": {
          "tokenId": "uint256 ID of the token to query the approval of"
        },
        "return": "address currently approved for the given token ID"
      },
      "isApprovedForAll(address,address)": {
        "details": "Tells whether an operator is approved by a given owner",
        "params": {
          "operator": "operator address which you want to query the approval of",
          "owner": "owner address which you want to query the approval of"
        },
        "return": "bool whether the given operator is approved by the given owner"
      },
      "isOwner()": {
        "return": "true if `msg.sender` is the owner of the contract."
      },
      "owner()": {
        "return": "the address of the owner."
      },
      "ownerOf(uint256)": {
        "details": "Gets the owner of the specified token ID",
        "params": {
          "tokenId": "uint256 ID of the token to query the owner of"
        },
        "return": "address currently marked as the owner of the given token ID"
      },
      "renounceOwnership()": {
        "details": "Allows the current owner to relinquish control of the contract."
      },
      "safeTransferFrom(address,address,uint256)": {
        "details": "Safely transfers the ownership of a given token ID to another address If the target address is a contract, it must implement `onERC721Received`, which is called upon a safe transfer, and return the magic value `bytes4(keccak256(\"onERC721Received(address,address,uint256,bytes)\"))`; otherwise, the transfer is reverted. Requires the msg.sender to be the owner, approved, or operator",
        "params": {
          "from": "current owner of the token",
          "to": "address to receive the ownership of the given token ID",
          "tokenId": "uint256 ID of the token to be transferred"
        }
      },
      "safeTransferFrom(address,address,uint256,bytes)": {
        "details": "Safely transfers the ownership of a given token ID to another address If the target address is a contract, it must implement `onERC721Received`, which is called upon a safe transfer, and return the magic value `bytes4(keccak256(\"onERC721Received(address,address,uint256,bytes)\"))`; otherwise, the transfer is reverted. Requires the msg.sender to be the owner, approved, or operator",
        "params": {
          "_data": "bytes data to send along with a safe transfer check",
          "from": "current owner of the token",
          "to": "address to receive the ownership of the given token ID",
          "tokenId": "uint256 ID of the token to be transferred"
        }
      },
      "setApprovalForAll(address,bool)": {
        "details": "Sets or unsets the approval of a given operator An operator is allowed to transfer all tokens of the sender on their behalf",
        "params": {
          "approved": "representing the status of the approval to be set",
          "to": "operator address to set the approval"
        }
      },
      "supportsInterface(bytes4)": {
        "details": "implement supportsInterface(bytes4) using a lookup table"
      },
      "tokenByIndex(uint256)": {
        "details": "Gets the token ID at a given index of all the tokens in this contract Reverts if the index is greater or equal to the total number of tokens",
        "params": {
          "index": "uint256 representing the index to be accessed of the tokens list"
        },
        "return": "uint256 token ID at the given index of the tokens list"
      },
      "tokenOfOwnerByIndex(address,uint256)": {
        "details": "Gets the token ID at a given index of the tokens list of the requested owner",
        "params": {
          "index": "uint256 representing the index to be accessed of the requested tokens list",
          "owner": "address owning the tokens list to be accessed"
        },
        "return": "uint256 token ID at the given index of the tokens list owned by the requested address"
      },
      "totalSupply()": {
        "details": "Gets the total amount of tokens stored by the contract",
        "return": "uint256 representing the total amount of tokens"
      },
      "transferFrom(address,address,uint256)": {
        "details": "Transfers the ownership of a given token ID to another address Usage of this method is discouraged, use `safeTransferFrom` whenever possible Requires the msg.sender to be the owner, approved, or operator",
        "params": {
          "from": "current owner of the token",
          "to": "address to receive the ownership of the given token ID",
          "tokenId": "uint256 ID of the token to be transferred"
        }
      },
      "transferOwnership(address)": {
        "details": "Allows the current owner to transfer control of the contract to a newOwner.",
        "params": {
          "newOwner": "The address to transfer ownership to."
        }
      }
    }
  },
  "userdoc": {
    "methods": {
      "createDragon(string,uint64,uint32,uint32)": {
        "notice": "Creates new Dragon and give it to its creator."
      },
      "getDragonsIdsByOwner(address)": {
        "notice": "***************************************************************************************** PUBLIC METHODS*******************************************************************************************"
      },
      "renounceOwnership()": {
        "notice": "Renouncing to ownership will leave the contract without an owner. It will not be possible to call the functions with the `onlyOwner` modifier anymore."
      },
      "setName(uint256,string)": {
        "notice": "***************************************************************************************** ONLY OWNER ACTIONS*******************************************************************************************"
      }
    }
  }
}