{
  "contractName": "DragonBase",
  "abi": [
    {
      "anonymous": false,
      "inputs": [
        {
          "indexed": true,
          "internalType": "address",
          "name": "owner",
          "type": "address"
        },
        {
          "indexed": true,
          "internalType": "address",
          "name": "approved",
          "type": "address"
        },
        {
          "indexed": true,
          "internalType": "uint256",
          "name": "tokenId",
          "type": "uint256"
        }
      ],
      "name": "Approval",
      "type": "event"
    },
    {
      "anonymous": false,
      "inputs": [
        {
          "indexed": true,
          "internalType": "address",
          "name": "owner",
          "type": "address"
        },
        {
          "indexed": true,
          "internalType": "address",
          "name": "operator",
          "type": "address"
        },
        {
          "indexed": false,
          "internalType": "bool",
          "name": "approved",
          "type": "bool"
        }
      ],
      "name": "ApprovalForAll",
      "type": "event"
    },
    {
      "anonymous": false,
      "inputs": [
        {
          "indexed": true,
          "internalType": "address",
          "name": "previousOwner",
          "type": "address"
        },
        {
          "indexed": true,
          "internalType": "address",
          "name": "newOwner",
          "type": "address"
        }
      ],
      "name": "OwnershipTransferred",
      "type": "event"
    },
    {
      "anonymous": false,
      "inputs": [
        {
          "indexed": true,
          "internalType": "address",
          "name": "from",
          "type": "address"
        },
        {
          "indexed": true,
          "internalType": "address",
          "name": "to",
          "type": "address"
        },
        {
          "indexed": true,
          "internalType": "uint256",
          "name": "tokenId",
          "type": "uint256"
        }
      ],
      "name": "Transfer",
      "type": "event"
    },
    {
      "constant": false,
      "inputs": [
        {
          "internalType": "address",
          "name": "to",
          "type": "address"
        },
        {
          "internalType": "uint256",
          "name": "tokenId",
          "type": "uint256"
        }
      ],
      "name": "approve",
      "outputs": [],
      "payable": false,
      "stateMutability": "nonpayable",
      "type": "function"
    },
    {
      "constant": true,
      "inputs": [
        {
          "internalType": "address",
          "name": "owner",
          "type": "address"
        }
      ],
      "name": "balanceOf",
      "outputs": [
        {
          "internalType": "uint256",
          "name": "",
          "type": "uint256"
        }
      ],
      "payable": false,
      "stateMutability": "view",
      "type": "function"
    },
    {
      "constant": true,
      "inputs": [
        {
          "internalType": "uint256",
          "name": "",
          "type": "uint256"
        }
      ],
      "name": "dragonIndexToOwner",
      "outputs": [
        {
          "internalType": "address",
          "name": "",
          "type": "address"
        }
      ],
      "payable": false,
      "stateMutability": "view",
      "type": "function"
    },
    {
      "constant": true,
      "inputs": [
        {
          "internalType": "uint256",
          "name": "tokenId",
          "type": "uint256"
        }
      ],
      "name": "getApproved",
      "outputs": [
        {
          "internalType": "address",
          "name": "",
          "type": "address"
        }
      ],
      "payable": false,
      "stateMutability": "view",
      "type": "function"
    },
    {
      "constant": true,
      "inputs": [
        {
          "internalType": "address",
          "name": "owner",
          "type": "address"
        },
        {
          "internalType": "address",
          "name": "operator",
          "type": "address"
        }
      ],
      "name": "isApprovedForAll",
      "outputs": [
        {
          "internalType": "bool",
          "name": "",
          "type": "bool"
        }
      ],
      "payable": false,
      "stateMutability": "view",
      "type": "function"
    },
    {
      "constant": true,
      "inputs": [],
      "name": "isOwner",
      "outputs": [
        {
          "internalType": "bool",
          "name": "",
          "type": "bool"
        }
      ],
      "payable": false,
      "stateMutability": "view",
      "type": "function"
    },
    {
      "constant": true,
      "inputs": [],
      "name": "owner",
      "outputs": [
        {
          "internalType": "address",
          "name": "",
          "type": "address"
        }
      ],
      "payable": false,
      "stateMutability": "view",
      "type": "function"
    },
    {
      "constant": true,
      "inputs": [
        {
          "internalType": "uint256",
          "name": "tokenId",
          "type": "uint256"
        }
      ],
      "name": "ownerOf",
      "outputs": [
        {
          "internalType": "address",
          "name": "",
          "type": "address"
        }
      ],
      "payable": false,
      "stateMutability": "view",
      "type": "function"
    },
    {
      "constant": false,
      "inputs": [],
      "name": "renounceOwnership",
      "outputs": [],
      "payable": false,
      "stateMutability": "nonpayable",
      "type": "function"
    },
    {
      "constant": false,
      "inputs": [
        {
          "internalType": "address",
          "name": "from",
          "type": "address"
        },
        {
          "internalType": "address",
          "name": "to",
          "type": "address"
        },
        {
          "internalType": "uint256",
          "name": "tokenId",
          "type": "uint256"
        }
      ],
      "name": "safeTransferFrom",
      "outputs": [],
      "payable": false,
      "stateMutability": "nonpayable",
      "type": "function"
    },
    {
      "constant": false,
      "inputs": [
        {
          "internalType": "address",
          "name": "from",
          "type": "address"
        },
        {
          "internalType": "address",
          "name": "to",
          "type": "address"
        },
        {
          "internalType": "uint256",
          "name": "tokenId",
          "type": "uint256"
        },
        {
          "internalType": "bytes",
          "name": "_data",
          "type": "bytes"
        }
      ],
      "name": "safeTransferFrom",
      "outputs": [],
      "payable": false,
      "stateMutability": "nonpayable",
      "type": "function"
    },
    {
      "constant": false,
      "inputs": [
        {
          "internalType": "address",
          "name": "to",
          "type": "address"
        },
        {
          "internalType": "bool",
          "name": "approved",
          "type": "bool"
        }
      ],
      "name": "setApprovalForAll",
      "outputs": [],
      "payable": false,
      "stateMutability": "nonpayable",
      "type": "function"
    },
    {
      "constant": true,
      "inputs": [
        {
          "internalType": "bytes4",
          "name": "interfaceId",
          "type": "bytes4"
        }
      ],
      "name": "supportsInterface",
      "outputs": [
        {
          "internalType": "bool",
          "name": "",
          "type": "bool"
        }
      ],
      "payable": false,
      "stateMutability": "view",
      "type": "function"
    },
    {
      "constant": true,
      "inputs": [
        {
          "internalType": "uint256",
          "name": "index",
          "type": "uint256"
        }
      ],
      "name": "tokenByIndex",
      "outputs": [
        {
          "internalType": "uint256",
          "name": "",
          "type": "uint256"
        }
      ],
      "payable": false,
      "stateMutability": "view",
      "type": "function"
    },
    {
      "constant": true,
      "inputs": [
        {
          "internalType": "address",
          "name": "owner",
          "type": "address"
        },
        {
          "internalType": "uint256",
          "name": "index",
          "type": "uint256"
        }
      ],
      "name": "tokenOfOwnerByIndex",
      "outputs": [
        {
          "internalType": "uint256",
          "name": "",
          "type": "uint256"
        }
      ],
      "payable": false,
      "stateMutability": "view",
      "type": "function"
    },
    {
      "constant": true,
      "inputs": [
        {
          "internalType": "address",
          "name": "owner",
          "type": "address"
        }
      ],
      "name": "tokensIdsOwnedBy",
      "outputs": [
        {
          "internalType": "uint256[]",
          "name": "",
          "type": "uint256[]"
        }
      ],
      "payable": false,
      "stateMutability": "view",
      "type": "function"
    },
    {
      "constant": true,
      "inputs": [],
      "name": "totalSupply",
      "outputs": [
        {
          "internalType": "uint256",
          "name": "",
          "type": "uint256"
        }
      ],
      "payable": false,
      "stateMutability": "view",
      "type": "function"
    },
    {
      "constant": false,
      "inputs": [
        {
          "internalType": "address",
          "name": "from",
          "type": "address"
        },
        {
          "internalType": "address",
          "name": "to",
          "type": "address"
        },
        {
          "internalType": "uint256",
          "name": "tokenId",
          "type": "uint256"
        }
      ],
      "name": "transferFrom",
      "outputs": [],
      "payable": false,
      "stateMutability": "nonpayable",
      "type": "function"
    },
    {
      "constant": false,
      "inputs": [
        {
          "internalType": "address",
          "name": "newOwner",
          "type": "address"
        }
      ],
      "name": "transferOwnership",
      "outputs": [],
      "payable": false,
      "stateMutability": "nonpayable",
      "type": "function"
    },
    {
      "constant": true,
      "inputs": [
        {
          "internalType": "address",
          "name": "_owner",
          "type": "address"
        }
      ],
      "name": "getDragonsIdsByOwner",
      "outputs": [
        {
          "internalType": "uint256[]",
          "name": "",
          "type": "uint256[]"
        }
      ],
      "payable": false,
      "stateMutability": "view",
      "type": "function"
    },
    {
      "constant": true,
      "inputs": [
        {
          "internalType": "address",
          "name": "_owner",
          "type": "address"
        }
      ],
      "name": "getDragonsCountByOwner",
      "outputs": [
        {
          "internalType": "uint256",
          "name": "",
          "type": "uint256"
        }
      ],
      "payable": false,
      "stateMutability": "view",
      "type": "function"
    },
    {
      "constant": true,
      "inputs": [
        {
          "internalType": "uint256",
          "name": "_dragonId",
          "type": "uint256"
        }
      ],
      "name": "getDragonOwner",
      "outputs": [
        {
          "internalType": "address",
          "name": "",
          "type": "address"
        }
      ],
      "payable": false,
      "stateMutability": "view",
      "type": "function"
    },
    {
      "constant": true,
      "inputs": [
        {
          "internalType": "uint256",
          "name": "_dragonId",
          "type": "uint256"
        }
      ],
      "name": "getParents",
      "outputs": [
        {
          "internalType": "uint256",
          "name": "motherId",
          "type": "uint256"
        },
        {
          "internalType": "uint256",
          "name": "dadId",
          "type": "uint256"
        }
      ],
      "payable": false,
      "stateMutability": "view",
      "type": "function"
    },
    {
      "constant": true,
      "inputs": [
        {
          "internalType": "uint256",
          "name": "_dragonId",
          "type": "uint256"
        }
      ],
      "name": "isEgg",
      "outputs": [
        {
          "internalType": "bool",
          "name": "",
          "type": "bool"
        }
      ],
      "payable": false,
      "stateMutability": "view",
      "type": "function"
    },
    {
      "constant": true,
      "inputs": [
        {
          "internalType": "uint256",
          "name": "_dragonId",
          "type": "uint256"
        }
      ],
      "name": "getDragonName",
      "outputs": [
        {
          "internalType": "bytes32",
          "name": "",
          "type": "bytes32"
        }
      ],
      "payable": false,
      "stateMutability": "view",
      "type": "function"
    },
    {
      "constant": true,
      "inputs": [
        {
          "internalType": "uint256",
          "name": "_dragonId",
          "type": "uint256"
        }
      ],
      "name": "getDragonById",
      "outputs": [
        {
          "internalType": "bytes32",
          "name": "name",
          "type": "bytes32"
        },
        {
          "internalType": "uint32",
          "name": "dadId",
          "type": "uint32"
        },
        {
          "internalType": "uint32",
          "name": "motherId",
          "type": "uint32"
        },
        {
          "internalType": "uint32",
          "name": "currentExperience",
          "type": "uint32"
        },
        {
          "internalType": "uint16",
          "name": "health",
          "type": "uint16"
        },
        {
          "internalType": "uint16",
          "name": "strength",
          "type": "uint16"
        },
        {
          "internalType": "uint16",
          "name": "agility",
          "type": "uint16"
        },
        {
          "internalType": "uint16",
          "name": "fortitude",
          "type": "uint16"
        }
      ],
      "payable": false,
      "stateMutability": "view",
      "type": "function"
    },
    {
      "constant": false,
      "inputs": [
        {
          "internalType": "uint256",
          "name": "_dragonId",
          "type": "uint256"
        },
        {
          "internalType": "string",
          "name": "_name",
          "type": "string"
        }
      ],
      "name": "setName",
      "outputs": [],
      "payable": false,
      "stateMutability": "nonpayable",
      "type": "function"
    }
  ],
  "bytecode": "0x6080604052620000416301ffc9a77c0100000000000000000000000000000000000000000000000000000000026200017f640100000000026401000000009004565b6200007e6380ac58cd7c0100000000000000000000000000000000000000000000000000000000026200017f640100000000026401000000009004565b620000bb63780e9d637c0100000000000000000000000000000000000000000000000000000000026200017f640100000000026401000000009004565b33600960006101000a81548173ffffffffffffffffffffffffffffffffffffffff021916908373ffffffffffffffffffffffffffffffffffffffff160217905550600960009054906101000a900473ffffffffffffffffffffffffffffffffffffffff1673ffffffffffffffffffffffffffffffffffffffff16600073ffffffffffffffffffffffffffffffffffffffff167f8be0079c531659141344cd1fd0a4f28419497f9722a3daafe3b4186f6b6457e060405160405180910390a36200023b565b63ffffffff7c010000000000000000000000000000000000000000000000000000000002817bffffffffffffffffffffffffffffffffffffffffffffffffffffffff19161415620001cf57600080fd5b6001600080837bffffffffffffffffffffffffffffffffffffffffffffffffffffffff19167bffffffffffffffffffffffffffffffffffffffffffffffffffffffff1916815260200190815260200160002060006101000a81548160ff02191690831515021790555050565b6127a1806200024b6000396000f3fe608060405234801561001057600080fd5b50600436106101c6576000357c01000000000000000000000000000000000000000000000000000000009004806370a0823111610116578063b88d4fde116100b4578063dfd4e4a41161008e578063dfd4e4a414610ac3578063e985e9c514610b09578063f2fde38b14610b85578063fe55932a14610bc9576101c6565b8063b88d4fde146108af578063c9cf5570146109b4578063d9b6e2f714610a6b576101c6565b80638ec251c3116100f05780638ec251c3146107625780638f32d59b146107fb578063a22cb4651461081d578063b1b0473c1461086d576101c6565b806370a08231146106b6578063715018a61461070e5780638da5cb5b14610718576101c6565b806323b872dd1161018357806342842e0e1161015d57806342842e0e1461052a5780634f6ccce7146105985780635d64aa68146105da5780636352211e14610648576101c6565b806323b872dd14610411578063242a00871461047f5780632f745c59146104c8576101c6565b806301ffc9a7146101cb5780630469e8ac14610230578063081812fc146102c9578063095ea7b3146103375780631407b5001461038557806318160ddd146103f3575b600080fd5b610216600480360360208110156101e157600080fd5b8101908080357bffffffffffffffffffffffffffffffffffffffffffffffffffffffff19169060200190929190505050610c4c565b604051808215151515815260200191505060405180910390f35b6102726004803603602081101561024657600080fd5b81019080803573ffffffffffffffffffffffffffffffffffffffff169060200190929190505050610cb3565b6040518080602001828103825283818151815260200191508051906020019060200280838360005b838110156102b557808201518184015260208101905061029a565b505050509050019250505060405180910390f35b6102f5600480360360208110156102df57600080fd5b8101908080359060200190929190505050610d4a565b604051808273ffffffffffffffffffffffffffffffffffffffff1673ffffffffffffffffffffffffffffffffffffffff16815260200191505060405180910390f35b6103836004803603604081101561034d57600080fd5b81019080803573ffffffffffffffffffffffffffffffffffffffff16906020019092919080359060200190929190505050610d99565b005b6103b16004803603602081101561039b57600080fd5b8101908080359060200190929190505050610eda565b604051808273ffffffffffffffffffffffffffffffffffffffff1673ffffffffffffffffffffffffffffffffffffffff16815260200191505060405180910390f35b6103fb610eec565b6040518082815260200191505060405180910390f35b61047d6004803603606081101561042757600080fd5b81019080803573ffffffffffffffffffffffffffffffffffffffff169060200190929190803573ffffffffffffffffffffffffffffffffffffffff16906020019092919080359060200190929190505050610ef9565b005b6104ab6004803603602081101561049557600080fd5b8101908080359060200190929190505050610f68565b604051808381526020018281526020019250505060405180910390f35b610514600480360360408110156104de57600080fd5b81019080803573ffffffffffffffffffffffffffffffffffffffff16906020019092919080359060200190929190505050610fd0565b6040518082815260200191505060405180910390f35b6105966004803603606081101561054057600080fd5b81019080803573ffffffffffffffffffffffffffffffffffffffff169060200190929190803573ffffffffffffffffffffffffffffffffffffffff16906020019092919080359060200190929190505050611043565b005b6105c4600480360360208110156105ae57600080fd5b8101908080359060200190929190505050611063565b6040518082815260200191505060405180910390f35b610606600480360360208110156105f057600080fd5b8101908080359060200190929190505050611097565b604051808273ffffffffffffffffffffffffffffffffffffffff1673ffffffffffffffffffffffffffffffffffffffff16815260200191505060405180910390f35b6106746004803603602081101561065e57600080fd5b81019080803590602001909291905050506110ca565b604051808273ffffffffffffffffffffffffffffffffffffffff1673ffffffffffffffffffffffffffffffffffffffff16815260200191505060405180910390f35b6106f8600480360360208110156106cc57600080fd5b81019080803573ffffffffffffffffffffffffffffffffffffffff169060200190929190505050611146565b6040518082815260200191505060405180910390f35b610716611238565b005b610720611356565b604051808273ffffffffffffffffffffffffffffffffffffffff1673ffffffffffffffffffffffffffffffffffffffff16815260200191505060405180910390f35b6107a46004803603602081101561077857600080fd5b81019080803573ffffffffffffffffffffffffffffffffffffffff169060200190929190505050611380565b6040518080602001828103825283818151815260200191508051906020019060200280838360005b838110156107e75780820151818401526020810190506107cc565b505050509050019250505060405180910390f35b6108036114ba565b604051808215151515815260200191505060405180910390f35b61086b6004803603604081101561083357600080fd5b81019080803573ffffffffffffffffffffffffffffffffffffffff169060200190929190803515159060200190929190505050611512565b005b6108996004803603602081101561088357600080fd5b810190808035906020019092919050505061164c565b6040518082815260200191505060405180910390f35b6109b2600480360360808110156108c557600080fd5b81019080803573ffffffffffffffffffffffffffffffffffffffff169060200190929190803573ffffffffffffffffffffffffffffffffffffffff169060200190929190803590602001909291908035906020019064010000000081111561092c57600080fd5b82018360208201111561093e57600080fd5b8035906020019184600183028401116401000000008311171561096057600080fd5b91908080601f016020809104026020016040519081016040528093929190818152602001838380828437600081840152601f19601f820116905080830192505050505050509192919290505050611674565b005b6109e0600480360360208110156109ca57600080fd5b81019080803590602001909291905050506116e6565b604051808981526020018863ffffffff1663ffffffff1681526020018763ffffffff1663ffffffff1681526020018663ffffffff1663ffffffff1681526020018561ffff1661ffff1681526020018461ffff1661ffff1681526020018361ffff1661ffff1681526020018261ffff1661ffff1681526020019850505050505050505060405180910390f35b610aad60048036036020811015610a8157600080fd5b81019080803573ffffffffffffffffffffffffffffffffffffffff1690602001909291905050506117bd565b6040518082815260200191505060405180910390f35b610aef60048036036020811015610ad957600080fd5b81019080803590602001909291905050506117cf565b604051808215151515815260200191505060405180910390f35b610b6b60048036036040811015610b1f57600080fd5b81019080803573ffffffffffffffffffffffffffffffffffffffff169060200190929190803573ffffffffffffffffffffffffffffffffffffffff16906020019092919050505061183d565b604051808215151515815260200191505060405180910390f35b610bc760048036036020811015610b9b57600080fd5b81019080803573ffffffffffffffffffffffffffffffffffffffff1690602001909291905050506118d1565b005b610c4a60048036036040811015610bdf57600080fd5b810190808035906020019092919080359060200190640100000000811115610c0657600080fd5b820183602082011115610c1857600080fd5b80359060200191846001830284011164010000000083111715610c3a57600080fd5b909192939192939050505061193a565b005b6000806000837bffffffffffffffffffffffffffffffffffffffffffffffffffffffff19167bffffffffffffffffffffffffffffffffffffffffffffffffffffffff1916815260200190815260200160002060009054906101000a900460ff169050919050565b6060600560008373ffffffffffffffffffffffffffffffffffffffff1673ffffffffffffffffffffffffffffffffffffffff168152602001908152602001600020805480602002602001604051908101604052809291908181526020018280548015610d3e57602002820191906000526020600020905b815481526020019060010190808311610d2a575b50505050509050919050565b6000610d5582611adf565b610d5e57600080fd5b6002600083815260200190815260200160002060009054906101000a900473ffffffffffffffffffffffffffffffffffffffff169050919050565b6000610da4826110ca565b90508073ffffffffffffffffffffffffffffffffffffffff168373ffffffffffffffffffffffffffffffffffffffff161415610ddf57600080fd5b8073ffffffffffffffffffffffffffffffffffffffff163373ffffffffffffffffffffffffffffffffffffffff161480610e1f5750610e1e813361183d565b5b610e2857600080fd5b826002600084815260200190815260200160002060006101000a81548173ffffffffffffffffffffffffffffffffffffffff021916908373ffffffffffffffffffffffffffffffffffffffff160217905550818373ffffffffffffffffffffffffffffffffffffffff168273ffffffffffffffffffffffffffffffffffffffff167f8c5be1e5ebec7d5bd14f71427d1e84f3dd0314c0f7b2291e5b200ac8c7c3b92560405160405180910390a4505050565b6000610ee5826110ca565b9050919050565b6000600780549050905090565b610f033382611b51565b610f58576040517f08c379a00000000000000000000000000000000000000000000000000000000081526004018080602001828103825260328152602001806126b06032913960400191505060405180910390fd5b610f63838383611be6565b505050565b6000806000600a8481548110610f7a57fe5b9060005260206000209060040201905080600201600c9054906101000a900463ffffffff168160020160089054906101000a900463ffffffff168163ffffffff1691508063ffffffff1690509250925050915091565b6000610fdb83611146565b8210610fe657600080fd5b600560008473ffffffffffffffffffffffffffffffffffffffff1673ffffffffffffffffffffffffffffffffffffffff168152602001908152602001600020828154811061103057fe5b9060005260206000200154905092915050565b61105e83838360405180602001604052806000815250611674565b505050565b600061106d610eec565b821061107857600080fd5b6007828154811061108557fe5b90600052602060002001549050919050565b600b6020528060005260406000206000915054906101000a900473ffffffffffffffffffffffffffffffffffffffff1681565b6000806001600084815260200190815260200160002060009054906101000a900473ffffffffffffffffffffffffffffffffffffffff169050600073ffffffffffffffffffffffffffffffffffffffff168173ffffffffffffffffffffffffffffffffffffffff16141561113d57600080fd5b80915050919050565b60008073ffffffffffffffffffffffffffffffffffffffff168273ffffffffffffffffffffffffffffffffffffffff1614156111ea576040517f08c379a000000000000000000000000000000000000000000000000000000000815260040180806020018281038252600f8152602001807f496e76616c69642061646472657373000000000000000000000000000000000081525060200191505060405180910390fd5b611231600360008473ffffffffffffffffffffffffffffffffffffffff1673ffffffffffffffffffffffffffffffffffffffff168152602001908152602001600020611c0a565b9050919050565b6112406114ba565b611295576040517f08c379a000000000000000000000000000000000000000000000000000000000815260040180806020018281038252602681526020018061268a6026913960400191505060405180910390fd5b600073ffffffffffffffffffffffffffffffffffffffff16600960009054906101000a900473ffffffffffffffffffffffffffffffffffffffff1673ffffffffffffffffffffffffffffffffffffffff167f8be0079c531659141344cd1fd0a4f28419497f9722a3daafe3b4186f6b6457e060405160405180910390a36000600960006101000a81548173ffffffffffffffffffffffffffffffffffffffff021916908373ffffffffffffffffffffffffffffffffffffffff160217905550565b6000600960009054906101000a900473ffffffffffffffffffffffffffffffffffffffff16905090565b6060600073ffffffffffffffffffffffffffffffffffffffff168273ffffffffffffffffffffffffffffffffffffffff161415611425576040517f08c379a000000000000000000000000000000000000000000000000000000000815260040180806020018281038252600f8152602001807f496e76616c69642061646472657373000000000000000000000000000000000081525060200191505060405180910390fd5b600560008373ffffffffffffffffffffffffffffffffffffffff1673ffffffffffffffffffffffffffffffffffffffff1681526020019081526020016000208054806020026020016040519081016040528092919081815260200182805480156114ae57602002820191906000526020600020905b81548152602001906001019080831161149a575b50505050509050919050565b6000600960009054906101000a900473ffffffffffffffffffffffffffffffffffffffff1673ffffffffffffffffffffffffffffffffffffffff163373ffffffffffffffffffffffffffffffffffffffff1614905090565b3373ffffffffffffffffffffffffffffffffffffffff168273ffffffffffffffffffffffffffffffffffffffff16141561154b57600080fd5b80600460003373ffffffffffffffffffffffffffffffffffffffff1673ffffffffffffffffffffffffffffffffffffffff16815260200190815260200160002060008473ffffffffffffffffffffffffffffffffffffffff1673ffffffffffffffffffffffffffffffffffffffff16815260200190815260200160002060006101000a81548160ff0219169083151502179055508173ffffffffffffffffffffffffffffffffffffffff163373ffffffffffffffffffffffffffffffffffffffff167f17307eab39ab6107e8899845ad3d59bd9653f200f220920489ca2b5937696c3183604051808215151515815260200191505060405180910390a35050565b6000600a828154811061165b57fe5b9060005260206000209060040201600101549050919050565b61167f848484610ef9565b61168b84848484611c18565b6116e0576040517f08c379a000000000000000000000000000000000000000000000000000000000815260040180806020018281038252603c815260200180612709603c913960400191505060405180910390fd5b50505050565b6000806000806000806000806000600a8a8154811061170157fe5b90600052602060002090600402019050806001015498508060020160089054906101000a900463ffffffff16975080600201600c9054906101000a900463ffffffff1696508060020160109054906101000a900463ffffffff1695508060020160169054906101000a900461ffff1694508060020160189054906101000a900461ffff16935080600201601a9054906101000a900461ffff16925080600201601c9054906101000a900461ffff16915050919395975091939597565b60006117c882611146565b9050919050565b600080600a83815481106117df57fe5b906000526020600020906004020190506000603c8260020160009054906101000a900467ffffffffffffffff1667ffffffffffffffff16420302905081600201601e9054906101000a900461ffff1661ffff16811092505050919050565b6000600460008473ffffffffffffffffffffffffffffffffffffffff1673ffffffffffffffffffffffffffffffffffffffff16815260200190815260200160002060008373ffffffffffffffffffffffffffffffffffffffff1673ffffffffffffffffffffffffffffffffffffffff16815260200190815260200160002060009054906101000a900460ff16905092915050565b6118d96114ba565b61192e576040517f08c379a000000000000000000000000000000000000000000000000000000000815260040180806020018281038252602681526020018061268a6026913960400191505060405180910390fd5b61193781611e39565b50565b823373ffffffffffffffffffffffffffffffffffffffff1661195b826110ca565b73ffffffffffffffffffffffffffffffffffffffff16146119e4576040517f08c379a00000000000000000000000000000000000000000000000000000000081526004018080602001828103825260198152602001807f596f7520646f6e2774206f776e207468697320647261676f6e0000000000000081525060200191505060405180910390fd5b6000600a85815481106119f357fe5b906000526020600020906004020190506000611a5285858080601f016020809104026020016040519081016040528093929190818152602001838380828437600081840152601f19601f82011690508083019250505050505050611f9c565b90506000600102811415611ace576040517f08c379a000000000000000000000000000000000000000000000000000000000815260040180806020018281038252601e8152602001807f456d707479206e616d657320617265206e6f742061636365707461626c65000081525060200191505060405180910390fd5b808260010181905550505050505050565b6000806001600084815260200190815260200160002060009054906101000a900473ffffffffffffffffffffffffffffffffffffffff169050600073ffffffffffffffffffffffffffffffffffffffff168173ffffffffffffffffffffffffffffffffffffffff161415915050919050565b600080611b5d836110ca565b90508073ffffffffffffffffffffffffffffffffffffffff168473ffffffffffffffffffffffffffffffffffffffff161480611bcc57508373ffffffffffffffffffffffffffffffffffffffff16611bb484610d4a565b73ffffffffffffffffffffffffffffffffffffffff16145b80611bdd5750611bdc818561183d565b5b91505092915050565b611bf1838383611fc8565b611bfb8382612223565b611c0582826123c1565b505050565b600081600001549050919050565b6000611c398473ffffffffffffffffffffffffffffffffffffffff16612488565b611c465760019050611e31565b60008473ffffffffffffffffffffffffffffffffffffffff1663150b7a02338887876040518563ffffffff167c0100000000000000000000000000000000000000000000000000000000028152600401808573ffffffffffffffffffffffffffffffffffffffff1673ffffffffffffffffffffffffffffffffffffffff1681526020018473ffffffffffffffffffffffffffffffffffffffff1673ffffffffffffffffffffffffffffffffffffffff16815260200183815260200180602001828103825283818151815260200191508051906020019080838360005b83811015611d3d578082015181840152602081019050611d22565b50505050905090810190601f168015611d6a5780820380516001836020036101000a031916815260200191505b5095505050505050602060405180830381600087803b158015611d8c57600080fd5b505af1158015611da0573d6000803e3d6000fd5b505050506040513d6020811015611db657600080fd5b8101908080519060200190929190505050905063150b7a027c0100000000000000000000000000000000000000000000000000000000027bffffffffffffffffffffffffffffffffffffffffffffffffffffffff1916817bffffffffffffffffffffffffffffffffffffffffffffffffffffffff1916149150505b949350505050565b600073ffffffffffffffffffffffffffffffffffffffff168173ffffffffffffffffffffffffffffffffffffffff161415611edc576040517f08c379a00000000000000000000000000000000000000000000000000000000081526004018080602001828103825260198152602001807f496e76616c6964206e6577206f776e657220616464726573730000000000000081525060200191505060405180910390fd5b8073ffffffffffffffffffffffffffffffffffffffff16600960009054906101000a900473ffffffffffffffffffffffffffffffffffffffff1673ffffffffffffffffffffffffffffffffffffffff167f8be0079c531659141344cd1fd0a4f28419497f9722a3daafe3b4186f6b6457e060405160405180910390a380600960006101000a81548173ffffffffffffffffffffffffffffffffffffffff021916908373ffffffffffffffffffffffffffffffffffffffff16021790555050565b60006060829050600081511415611fba576000600102915050611fc3565b60208301519150505b919050565b8273ffffffffffffffffffffffffffffffffffffffff16611fe8826110ca565b73ffffffffffffffffffffffffffffffffffffffff1614612054576040517f08c379a00000000000000000000000000000000000000000000000000000000081526004018080602001828103825260288152602001806127456028913960400191505060405180910390fd5b600073ffffffffffffffffffffffffffffffffffffffff168273ffffffffffffffffffffffffffffffffffffffff1614156120da576040517f08c379a00000000000000000000000000000000000000000000000000000000081526004018080602001828103825260278152602001806126e26027913960400191505060405180910390fd5b6120e38161249b565b61212a600360008573ffffffffffffffffffffffffffffffffffffffff1673ffffffffffffffffffffffffffffffffffffffff168152602001908152602001600020612559565b612171600360008473ffffffffffffffffffffffffffffffffffffffff1673ffffffffffffffffffffffffffffffffffffffff16815260200190815260200160002061257c565b816001600083815260200190815260200160002060006101000a81548173ffffffffffffffffffffffffffffffffffffffff021916908373ffffffffffffffffffffffffffffffffffffffff160217905550808273ffffffffffffffffffffffffffffffffffffffff168473ffffffffffffffffffffffffffffffffffffffff167fddf252ad1be2c89b69c2b068fc378daa952ba7f163c4a11628f55a4df523b3ef60405160405180910390a4505050565b600061227b6001600560008673ffffffffffffffffffffffffffffffffffffffff1673ffffffffffffffffffffffffffffffffffffffff1681526020019081526020016000208054905061259290919063ffffffff16565b9050600060066000848152602001908152602001600020549050818114612368576000600560008673ffffffffffffffffffffffffffffffffffffffff1673ffffffffffffffffffffffffffffffffffffffff16815260200190815260200160002083815481106122e857fe5b9060005260206000200154905080600560008773ffffffffffffffffffffffffffffffffffffffff1673ffffffffffffffffffffffffffffffffffffffff168152602001908152602001600020838154811061234057fe5b9060005260206000200181905550816006600083815260200190815260200160002081905550505b600560008573ffffffffffffffffffffffffffffffffffffffff1673ffffffffffffffffffffffffffffffffffffffff1681526020019081526020016000208054809190600190036123ba91906125fe565b5050505050565b600560008373ffffffffffffffffffffffffffffffffffffffff1673ffffffffffffffffffffffffffffffffffffffff168152602001908152602001600020805490506006600083815260200190815260200160002081905550600560008373ffffffffffffffffffffffffffffffffffffffff1673ffffffffffffffffffffffffffffffffffffffff1681526020019081526020016000208190806001815401808255809150509060018203906000526020600020016000909192909190915055505050565b600080823b905060008111915050919050565b600073ffffffffffffffffffffffffffffffffffffffff166002600083815260200190815260200160002060009054906101000a900473ffffffffffffffffffffffffffffffffffffffff1673ffffffffffffffffffffffffffffffffffffffff16146125565760006002600083815260200190815260200160002060006101000a81548173ffffffffffffffffffffffffffffffffffffffff021916908373ffffffffffffffffffffffffffffffffffffffff1602179055505b50565b6125716001826000015461259290919063ffffffff16565b816000018190555050565b6001816000016000828254019250508190555050565b6000828211156125ed576040517f08c379a000000000000000000000000000000000000000000000000000000000815260040180806020018281038252603a815260200180612650603a913960400191505060405180910390fd5b600082840390508091505092915050565b81548183558181111561262557818360005260206000209182019101612624919061262a565b5b505050565b61264c91905b80821115612648576000816000905550600101612630565b5090565b9056fe61206d7573742062652067726561746572207468616e20622c206e6567617469766520726573756c747320617265206e6f7420616c6c6f7765644f6e6c7920746865206f776e65722063616e20706572666f726d207468697320616374696f6e53656e64657220646f65736e2774206f776e207468697320746f6b656e206f72206861766520726967687473206f6e206974496e76616c696420616464726573732e204572726f72207472616e73666572696320746f6b656e546172676574206164647265737320646f6573206e6f7420696d706c656d656e74206f6e455243373231526563656976656420696e7465726661636553656e64657220646f65736e74206f776e20746f6b656e20746f206265207472616e736665726564a265627a7a723158209d2c7851f1134a06fa8cdc1d5464ba5a693c582ea9764138a6a9a5383fccd4ac64736f6c63430005110032",
  "source": "pragma solidity ^0.5.0;\n\nimport \"./token/ERC721Enumerable.sol\";\nimport \"./ownership/Ownable.sol\";\n\ncontract DragonBase is ERC721Enumerable, Ownable {\n\n    uint constant dnaDigits = 16;\n    uint constant dnaModulus = 10 ** dnaDigits;\n\n    struct Dragon {\n        bytes32 genes;\n        bytes32 name; // maybe we can avoid saving the name in teh blockchain\n\n        uint64 creationTime; // Initialzed at egg instantiation\n\n        // parents information\n        uint32 dadId;\n        uint32 motherId;\n\n        // level attributes\n        uint32 currentExperience; // level will ve determined by exp\n\n        uint16 actionCooldown; // time to be waited to perform an action\n\n        // fighting attributes\n        uint16 health;\n        uint16 strength;\n        uint16 agility;\n        uint16 fortitude;\n\n        uint16 hatchTime; // in minutes, capped to 45 days - Maybe it would be nice to reuse some variable like current exp\n    \n        uint8 blockchainOriginId;\n    }\n\n    // Holds all dragons in game\n    Dragon[] internal dragons;\n    \n    // Maps dragon index corresponding to the dragon position in dragons array, to his owner address\n    mapping (uint256 => address) public dragonIndexToOwner;\n\n    /**\n      * @dev Throws if sender isn't the owner of the dragon in the parameter\n    */\n    modifier onlyDragonOwner(uint _dragonId) {\n        require(ownerOf(_dragonId) == msg.sender, \"You don't own this dragon\");\n        _;\n    }\n\n    /*******************************************************************************************\n        PUBLIC METHODS\n    ********************************************************************************************/\n\n    function getDragonsIdsByOwner(address _owner) external view returns(uint256[] memory) {\n        return _ownedTokens[_owner];\n    }\n\n    function getDragonsCountByOwner(address _owner) external view returns(uint256) {\n        return balanceOf(_owner);\n    }\n\n    function getDragonOwner(uint256 _dragonId) external view returns(address) {\n        return ownerOf(_dragonId);\n    }\n\n    function getParents(uint _dragonId) public view returns (uint motherId, uint dadId) \n    {\n        Dragon storage dragon = dragons[_dragonId];\n        return (dragon.motherId, dragon.dadId);\n    }\n\n    function isEgg(uint _dragonId) public view returns (bool) \n    {\n        Dragon storage dragon = dragons[_dragonId];\n        uint lifeTimeSinceCreation = (now - dragon.creationTime) * 60;\n        return (lifeTimeSinceCreation < dragon.hatchTime);\n    }\n\n    function getDragonName(uint _dragonId) external view returns(bytes32) {\n        return dragons[_dragonId].name;\n    }\n\n    function getDragonById(uint _dragonId) external view returns (\n        bytes32 name,\n        uint32 dadId,\n        uint32 motherId,\n        uint32 currentExperience,\n        uint16 health,\n        uint16 strength,\n        uint16 agility,\n        uint16 fortitude\n    ) {\n        Dragon storage dragon = dragons[_dragonId];\n        name = dragon.name;\n        dadId = dragon.dadId;\n        motherId = dragon.motherId;\n        currentExperience = dragon.currentExperience;\n        health = dragon.health;\n        strength = dragon.strength;\n        agility = dragon.agility;\n        fortitude = dragon.fortitude;\n    }\n\n    /*******************************************************************************************\n        ONLY OWNER ACTIONS\n    ********************************************************************************************/\n\n    function setName(uint _dragonId, string calldata _name) external onlyDragonOwner(_dragonId) {\n        Dragon storage dragon = dragons[_dragonId];\n        bytes32 nameBytes = _stringToBytes32(_name);\n        require(nameBytes != 0x0, \"Empty names are not acceptable\");\n        dragon.name = nameBytes;\n    }\n\n    /*******************************************************************************************\n        UTILS\n    ********************************************************************************************/\n\n    /**\n    * @notice String to bytes 32\n    * @dev Helper to convert a string to a bytes32\n    * @param _string the string to convert\n    * @return bytes32\n    */\n    function _stringToBytes32(string memory _string) internal pure returns (bytes32 result) {\n        bytes memory tempEmptyStringTest = bytes(_string);\n        if (tempEmptyStringTest.length == 0) {\n            return 0x0;\n        }\n\n        assembly {\n            result := mload(add(_string, 32))\n        }\n    }\n\n    /**\n        Packed dragon data in an array of bytes\n    */\n    function _encodeDragonToBytes(Dragon memory _dragon) internal pure returns(bytes memory) {\n        // TODO update size in bytes whenever dragon struct is updated\n        uint size = 97; //32 + 32 + 8 + 4 + 4 + 4 + 2 + 2 + 2 + 2 + 2 + 2 + 1;\n        bytes memory encodedData = new bytes(size);\n\n        uint counter = 0;\n\n        // encode 32 bytes from genes\n        for (uint i = 0; i < 32; i++)\n        {\n            encodedData[counter] = _dragon.genes[i];\n            counter++;\n        }\n\n        // encode 32 bytes from name\n        for (uint i = 0; i < 32; i++)\n        {\n            encodedData[counter] = _dragon.name[i];\n            counter++;\n        }\n\n        // encode 8 bytes from creation time\n        for (uint i = 0; i < 8; i++)\n        {\n            encodedData[counter] = byte(uint8(_dragon.creationTime >> ((8 * i) & uint32(255)))); \n            counter++;\n        }\n\n        // encode 4 bytes from dad id\n        for (uint i = 0; i < 4; i++)\n        {\n            encodedData[counter] = byte(uint8(_dragon.dadId >> ((8 * i) & uint32(255)))); \n            counter++;\n        }\n\n        // encode 4 bytes from mother id\n        for (uint i = 0; i < 4; i++)\n        {\n            encodedData[counter] = byte(uint8(_dragon.motherId >> ((8 * i) & uint32(255)))); \n            counter++;\n        }\n\n        // encode 4 bytes from current experience\n        for (uint i = 0; i < 4; i++)\n        {\n            encodedData[counter] = byte(uint8(_dragon.currentExperience >> ((8 * i) & uint32(255)))); \n            counter++;\n        }\n\n        // encode 2 bytes from action cooldown\n        for (uint i = 0; i < 2; i++)\n        {\n            encodedData[counter] = byte(uint8(_dragon.actionCooldown >> ((8 * i) & uint32(255)))); \n            counter++;\n        }\n\n        // encode 2 bytes from health\n        for (uint i = 0; i < 2; i++)\n        {\n            encodedData[counter] = byte(uint8(_dragon.health >> ((8 * i) & uint32(255)))); \n            counter++;\n        }\n\n        // encode 2 bytes from strength\n        for (uint i = 0; i < 2; i++)\n        {\n            encodedData[counter] = byte(uint8(_dragon.strength >> ((8 * i) & uint32(255)))); \n            counter++;\n        }\n\n        // encode 2 bytes from agility\n        for (uint i = 0; i < 2; i++)\n        {\n            encodedData[counter] = byte(uint8(_dragon.agility >> ((8 * i) & uint32(255)))); \n            counter++;\n        }\n\n        // encode 2 bytes from fortitude\n        for (uint i = 0; i < 2; i++)\n        {\n            encodedData[counter] = byte(uint8(_dragon.fortitude >> ((8 * i) & uint32(255)))); \n            counter++;\n        }\n\n        // encode 2 bytes from hatch time\n        for (uint i = 0; i < 2; i++)\n        {\n            encodedData[counter] = byte(uint8(_dragon.hatchTime >> ((8 * i) & uint32(255)))); \n            counter++;\n        }\n\n        \n        // encode  byte from blockchain origin id\n        for (uint i = 0; i < 1; i++)\n        {\n            encodedData[counter] = byte(uint8(_dragon.blockchainOriginId >> ((8 * i) & uint32(255)))); \n            counter++;\n        }\n        return encodedData;\n    }\n\n    function _decodeFirstHalfOfDragonFromBytes(bytes memory _data) internal pure \n        returns(bytes32 genes, bytes32 name, uint64 creationTime, uint32 dadId, uint32 motherId, uint32 currentExperience) {\n        \n        uint counter = 0;\n\n        // Decode genes\n        for (uint i = 0; i < 32; i++) {\n            genes |= bytes32(_data[counter + i] & 0xFF) >> (i * 8);\n            counter++;\n        }\n\n        // Decode name\n        name = _decodeName(_data, counter);\n        counter += 32;\n\n        // Decode creation time\n        for (uint i = 0; i < 8; i++)\n        {\n            uint64 temp = uint64(uint8(_data[counter]));\n            temp <<= 8 * i;\n            creationTime ^= temp;\n            counter++;\n        }\n\n        // Decode dad id\n        for (uint i = 0; i < 4; i++)\n        {\n            uint32 temp = uint32(uint8(_data[counter]));\n            temp <<= 8 * i;\n            dadId ^= temp;\n            counter++;\n        }\n\n        // Decode mother id\n        for (uint i = 0; i < 4; i++)\n        {\n            uint32 temp = uint32(uint8(_data[counter]));\n            temp <<= 8 * i;\n            motherId ^= temp;\n            counter++;\n        }\n\n        // Decode current experience\n        for (uint i = 0; i < 4; i++)\n        {\n            uint32 temp = uint32(uint8(_data[counter]));\n            temp <<= 8 * i;\n            currentExperience ^= temp;\n            counter++;\n        }\n    }\n\n    function _decodeSecondHalfOfDragonFromBytes(bytes memory _data) internal pure\n        returns(uint16 actionCooldown, uint16 health, uint16 strength, uint16 agility, uint16 fortitude, uint16 hatchTime, uint8 blockchainOriginId) {\n        uint counter = 84;\n\n        // Decode action cooldown\n        for (uint i = 0; i < 2; i++)\n        {\n            uint16 temp = uint16(uint8(_data[counter]));\n            temp <<= 8 * i;\n            actionCooldown ^= temp;\n            counter++;\n        }\n\n        // Decode health\n        for (uint i = 0; i < 2; i++)\n        {\n            uint16 temp = uint16(uint8(_data[counter]));\n            temp <<= 8 * i;\n            health ^= temp;\n            counter++;\n        }\n\n        // Decode strength\n        for (uint i = 0; i < 2; i++)\n        {\n            uint16 temp = uint16(uint8(_data[counter]));\n            temp <<= 8 * i;\n            strength ^= temp;\n            counter++;\n        }\n\n        // Decode agility\n        for (uint i = 0; i < 2; i++)\n        {\n            uint16 temp = uint16(uint8(_data[counter]));\n            temp <<= 8 * i;\n            agility ^= temp;\n            counter++;\n        }\n\n        // Decode fortitude\n        for (uint i = 0; i < 2; i++)\n        {\n            uint16 temp = uint16(uint8(_data[counter]));\n            temp <<= 8 * i;\n            fortitude ^= temp;\n            counter++;\n        }\n\n        // Decode hatch time\n        for (uint i = 0; i < 2; i++)\n        {\n            uint16 temp = uint16(uint8(_data[counter]));\n            temp <<= 8 * i;\n            hatchTime ^= temp;\n            counter++;\n        }\n\n        // Decode blockchain origin id\n        blockchainOriginId ^= uint8(_data[counter]);\n        counter++;\n    }\n\n    function _decodeName(bytes memory _data, uint _dataIndex) private pure returns(bytes32 name) {\n        for (uint i = 0; i < 32; i++) {\n            name |= bytes32(_data[_dataIndex + i] & 0xFF) >> (i * 8);\n        }\n    }\n\n    function _decodeBlockchainIdFromData(bytes memory _data) internal pure returns(uint8 blockchainId) {\n        blockchainId = uint8(_data[96]);\n    }\n}",
  "sourcePath": "/usr/src/app/contractGetter/contracts/common/DragonBase.sol",
  "compiler": {
    "name": "solc",
    "version": "0.5.17+commit.d19bba13.Emscripten.clang"
  },
  "schemaVersion": "3.0.1",
  "updatedAt": "2021-07-04T20:42:10.135Z",
  "devdoc": {
    "methods": {
      "approve(address,uint256)": {
        "details": "Approves another address to transfer the given token ID The zero address indicates there is no approved address. There can only be one approved address per token at a given time. Can only be called by the token owner or an approved operator.",
        "params": {
          "to": "address to be approved for the given token ID",
          "tokenId": "uint256 ID of the token to be approved"
        }
      },
      "balanceOf(address)": {
        "details": "Gets the balance of the specified address",
        "params": {
          "owner": "address to query the balance of"
        },
        "return": "uint256 representing the amount owned by the passed address"
      },
      "getApproved(uint256)": {
        "details": "Gets the approved address for a token ID, or zero if no address set Reverts if the token ID does not exist.",
        "params": {
          "tokenId": "uint256 ID of the token to query the approval of"
        },
        "return": "address currently approved for the given token ID"
      },
      "isApprovedForAll(address,address)": {
        "details": "Tells whether an operator is approved by a given owner",
        "params": {
          "operator": "operator address which you want to query the approval of",
          "owner": "owner address which you want to query the approval of"
        },
        "return": "bool whether the given operator is approved by the given owner"
      },
      "isOwner()": {
        "return": "true if `msg.sender` is the owner of the contract."
      },
      "owner()": {
        "return": "the address of the owner."
      },
      "ownerOf(uint256)": {
        "details": "Gets the owner of the specified token ID",
        "params": {
          "tokenId": "uint256 ID of the token to query the owner of"
        },
        "return": "address currently marked as the owner of the given token ID"
      },
      "renounceOwnership()": {
        "details": "Allows the current owner to relinquish control of the contract."
      },
      "safeTransferFrom(address,address,uint256)": {
        "details": "Safely transfers the ownership of a given token ID to another address If the target address is a contract, it must implement `onERC721Received`, which is called upon a safe transfer, and return the magic value `bytes4(keccak256(\"onERC721Received(address,address,uint256,bytes)\"))`; otherwise, the transfer is reverted. Requires the msg.sender to be the owner, approved, or operator",
        "params": {
          "from": "current owner of the token",
          "to": "address to receive the ownership of the given token ID",
          "tokenId": "uint256 ID of the token to be transferred"
        }
      },
      "safeTransferFrom(address,address,uint256,bytes)": {
        "details": "Safely transfers the ownership of a given token ID to another address If the target address is a contract, it must implement `onERC721Received`, which is called upon a safe transfer, and return the magic value `bytes4(keccak256(\"onERC721Received(address,address,uint256,bytes)\"))`; otherwise, the transfer is reverted. Requires the msg.sender to be the owner, approved, or operator",
        "params": {
          "_data": "bytes data to send along with a safe transfer check",
          "from": "current owner of the token",
          "to": "address to receive the ownership of the given token ID",
          "tokenId": "uint256 ID of the token to be transferred"
        }
      },
      "setApprovalForAll(address,bool)": {
        "details": "Sets or unsets the approval of a given operator An operator is allowed to transfer all tokens of the sender on their behalf",
        "params": {
          "approved": "representing the status of the approval to be set",
          "to": "operator address to set the approval"
        }
      },
      "supportsInterface(bytes4)": {
        "details": "implement supportsInterface(bytes4) using a lookup table"
      },
      "tokenByIndex(uint256)": {
        "details": "Gets the token ID at a given index of all the tokens in this contract Reverts if the index is greater or equal to the total number of tokens",
        "params": {
          "index": "uint256 representing the index to be accessed of the tokens list"
        },
        "return": "uint256 token ID at the given index of the tokens list"
      },
      "tokenOfOwnerByIndex(address,uint256)": {
        "details": "Gets the token ID at a given index of the tokens list of the requested owner",
        "params": {
          "index": "uint256 representing the index to be accessed of the requested tokens list",
          "owner": "address owning the tokens list to be accessed"
        },
        "return": "uint256 token ID at the given index of the tokens list owned by the requested address"
      },
      "totalSupply()": {
        "details": "Gets the total amount of tokens stored by the contract",
        "return": "uint256 representing the total amount of tokens"
      },
      "transferFrom(address,address,uint256)": {
        "details": "Transfers the ownership of a given token ID to another address Usage of this method is discouraged, use `safeTransferFrom` whenever possible Requires the msg.sender to be the owner, approved, or operator",
        "params": {
          "from": "current owner of the token",
          "to": "address to receive the ownership of the given token ID",
          "tokenId": "uint256 ID of the token to be transferred"
        }
      },
      "transferOwnership(address)": {
        "details": "Allows the current owner to transfer control of the contract to a newOwner.",
        "params": {
          "newOwner": "The address to transfer ownership to."
        }
      }
    }
  },
  "userdoc": {
    "methods": {
      "getDragonsIdsByOwner(address)": {
        "notice": "***************************************************************************************** PUBLIC METHODS*******************************************************************************************"
      },
      "renounceOwnership()": {
        "notice": "Renouncing to ownership will leave the contract without an owner. It will not be possible to call the functions with the `onlyOwner` modifier anymore."
      },
      "setName(uint256,string)": {
        "notice": "***************************************************************************************** ONLY OWNER ACTIONS*******************************************************************************************"
      }
    }
  }
}