{
  "contractName": "ERC721",
  "abi": [
    {
      "inputs": [],
      "payable": false,
      "stateMutability": "nonpayable",
      "type": "constructor"
    },
    {
      "anonymous": false,
      "inputs": [
        {
          "indexed": true,
          "internalType": "address",
          "name": "owner",
          "type": "address"
        },
        {
          "indexed": true,
          "internalType": "address",
          "name": "approved",
          "type": "address"
        },
        {
          "indexed": true,
          "internalType": "uint256",
          "name": "tokenId",
          "type": "uint256"
        }
      ],
      "name": "Approval",
      "type": "event"
    },
    {
      "anonymous": false,
      "inputs": [
        {
          "indexed": true,
          "internalType": "address",
          "name": "owner",
          "type": "address"
        },
        {
          "indexed": true,
          "internalType": "address",
          "name": "operator",
          "type": "address"
        },
        {
          "indexed": false,
          "internalType": "bool",
          "name": "approved",
          "type": "bool"
        }
      ],
      "name": "ApprovalForAll",
      "type": "event"
    },
    {
      "anonymous": false,
      "inputs": [
        {
          "indexed": true,
          "internalType": "address",
          "name": "from",
          "type": "address"
        },
        {
          "indexed": true,
          "internalType": "address",
          "name": "to",
          "type": "address"
        },
        {
          "indexed": true,
          "internalType": "uint256",
          "name": "tokenId",
          "type": "uint256"
        }
      ],
      "name": "Transfer",
      "type": "event"
    },
    {
      "constant": true,
      "inputs": [
        {
          "internalType": "bytes4",
          "name": "interfaceId",
          "type": "bytes4"
        }
      ],
      "name": "supportsInterface",
      "outputs": [
        {
          "internalType": "bool",
          "name": "",
          "type": "bool"
        }
      ],
      "payable": false,
      "stateMutability": "view",
      "type": "function"
    },
    {
      "constant": true,
      "inputs": [
        {
          "internalType": "address",
          "name": "owner",
          "type": "address"
        }
      ],
      "name": "balanceOf",
      "outputs": [
        {
          "internalType": "uint256",
          "name": "",
          "type": "uint256"
        }
      ],
      "payable": false,
      "stateMutability": "view",
      "type": "function"
    },
    {
      "constant": true,
      "inputs": [
        {
          "internalType": "uint256",
          "name": "tokenId",
          "type": "uint256"
        }
      ],
      "name": "ownerOf",
      "outputs": [
        {
          "internalType": "address",
          "name": "",
          "type": "address"
        }
      ],
      "payable": false,
      "stateMutability": "view",
      "type": "function"
    },
    {
      "constant": false,
      "inputs": [
        {
          "internalType": "address",
          "name": "to",
          "type": "address"
        },
        {
          "internalType": "uint256",
          "name": "tokenId",
          "type": "uint256"
        }
      ],
      "name": "approve",
      "outputs": [],
      "payable": false,
      "stateMutability": "nonpayable",
      "type": "function"
    },
    {
      "constant": true,
      "inputs": [
        {
          "internalType": "uint256",
          "name": "tokenId",
          "type": "uint256"
        }
      ],
      "name": "getApproved",
      "outputs": [
        {
          "internalType": "address",
          "name": "",
          "type": "address"
        }
      ],
      "payable": false,
      "stateMutability": "view",
      "type": "function"
    },
    {
      "constant": false,
      "inputs": [
        {
          "internalType": "address",
          "name": "to",
          "type": "address"
        },
        {
          "internalType": "bool",
          "name": "approved",
          "type": "bool"
        }
      ],
      "name": "setApprovalForAll",
      "outputs": [],
      "payable": false,
      "stateMutability": "nonpayable",
      "type": "function"
    },
    {
      "constant": true,
      "inputs": [
        {
          "internalType": "address",
          "name": "owner",
          "type": "address"
        },
        {
          "internalType": "address",
          "name": "operator",
          "type": "address"
        }
      ],
      "name": "isApprovedForAll",
      "outputs": [
        {
          "internalType": "bool",
          "name": "",
          "type": "bool"
        }
      ],
      "payable": false,
      "stateMutability": "view",
      "type": "function"
    },
    {
      "constant": false,
      "inputs": [
        {
          "internalType": "address",
          "name": "from",
          "type": "address"
        },
        {
          "internalType": "address",
          "name": "to",
          "type": "address"
        },
        {
          "internalType": "uint256",
          "name": "tokenId",
          "type": "uint256"
        }
      ],
      "name": "transferFrom",
      "outputs": [],
      "payable": false,
      "stateMutability": "nonpayable",
      "type": "function"
    },
    {
      "constant": false,
      "inputs": [
        {
          "internalType": "address",
          "name": "from",
          "type": "address"
        },
        {
          "internalType": "address",
          "name": "to",
          "type": "address"
        },
        {
          "internalType": "uint256",
          "name": "tokenId",
          "type": "uint256"
        }
      ],
      "name": "safeTransferFrom",
      "outputs": [],
      "payable": false,
      "stateMutability": "nonpayable",
      "type": "function"
    },
    {
      "constant": false,
      "inputs": [
        {
          "internalType": "address",
          "name": "from",
          "type": "address"
        },
        {
          "internalType": "address",
          "name": "to",
          "type": "address"
        },
        {
          "internalType": "uint256",
          "name": "tokenId",
          "type": "uint256"
        },
        {
          "internalType": "bytes",
          "name": "_data",
          "type": "bytes"
        }
      ],
      "name": "safeTransferFrom",
      "outputs": [],
      "payable": false,
      "stateMutability": "nonpayable",
      "type": "function"
    }
  ],
  "bytecode": "0x608060405234801561001057600080fd5b5061004c6301ffc9a77c01000000000000000000000000000000000000000000000000000000000261008c640100000000026401000000009004565b6100876380ac58cd7c01000000000000000000000000000000000000000000000000000000000261008c640100000000026401000000009004565b610147565b63ffffffff7c010000000000000000000000000000000000000000000000000000000002817bffffffffffffffffffffffffffffffffffffffffffffffffffffffff191614156100db57600080fd5b6001600080837bffffffffffffffffffffffffffffffffffffffffffffffffffffffff19167bffffffffffffffffffffffffffffffffffffffffffffffffffffffff1916815260200190815260200160002060006101000a81548160ff02191690831515021790555050565b6113bb806101566000396000f3fe608060405234801561001057600080fd5b50600436106100bb576000357c0100000000000000000000000000000000000000000000000000000000900480636352211e116100835780636352211e146102bd57806370a082311461032b578063a22cb46514610383578063b88d4fde146103d3578063e985e9c5146104d8576100bb565b806301ffc9a7146100c0578063081812fc14610125578063095ea7b31461019357806323b872dd146101e157806342842e0e1461024f575b600080fd5b61010b600480360360208110156100d657600080fd5b8101908080357bffffffffffffffffffffffffffffffffffffffffffffffffffffffff19169060200190929190505050610554565b604051808215151515815260200191505060405180910390f35b6101516004803603602081101561013b57600080fd5b81019080803590602001909291905050506105bb565b604051808273ffffffffffffffffffffffffffffffffffffffff1673ffffffffffffffffffffffffffffffffffffffff16815260200191505060405180910390f35b6101df600480360360408110156101a957600080fd5b81019080803573ffffffffffffffffffffffffffffffffffffffff1690602001909291908035906020019092919050505061060a565b005b61024d600480360360608110156101f757600080fd5b81019080803573ffffffffffffffffffffffffffffffffffffffff169060200190929190803573ffffffffffffffffffffffffffffffffffffffff1690602001909291908035906020019092919050505061074b565b005b6102bb6004803603606081101561026557600080fd5b81019080803573ffffffffffffffffffffffffffffffffffffffff169060200190929190803573ffffffffffffffffffffffffffffffffffffffff169060200190929190803590602001909291905050506107ba565b005b6102e9600480360360208110156102d357600080fd5b81019080803590602001909291905050506107da565b604051808273ffffffffffffffffffffffffffffffffffffffff1673ffffffffffffffffffffffffffffffffffffffff16815260200191505060405180910390f35b61036d6004803603602081101561034157600080fd5b81019080803573ffffffffffffffffffffffffffffffffffffffff169060200190929190505050610856565b6040518082815260200191505060405180910390f35b6103d16004803603604081101561039957600080fd5b81019080803573ffffffffffffffffffffffffffffffffffffffff169060200190929190803515159060200190929190505050610948565b005b6104d6600480360360808110156103e957600080fd5b81019080803573ffffffffffffffffffffffffffffffffffffffff169060200190929190803573ffffffffffffffffffffffffffffffffffffffff169060200190929190803590602001909291908035906020019064010000000081111561045057600080fd5b82018360208201111561046257600080fd5b8035906020019184600183028401116401000000008311171561048457600080fd5b91908080601f016020809104026020016040519081016040528093929190818152602001838380828437600081840152601f19601f820116905080830192505050505050509192919290505050610a82565b005b61053a600480360360408110156104ee57600080fd5b81019080803573ffffffffffffffffffffffffffffffffffffffff169060200190929190803573ffffffffffffffffffffffffffffffffffffffff169060200190929190505050610af4565b604051808215151515815260200191505060405180910390f35b6000806000837bffffffffffffffffffffffffffffffffffffffffffffffffffffffff19167bffffffffffffffffffffffffffffffffffffffffffffffffffffffff1916815260200190815260200160002060009054906101000a900460ff169050919050565b60006105c682610b88565b6105cf57600080fd5b6002600083815260200190815260200160002060009054906101000a900473ffffffffffffffffffffffffffffffffffffffff169050919050565b6000610615826107da565b90508073ffffffffffffffffffffffffffffffffffffffff168373ffffffffffffffffffffffffffffffffffffffff16141561065057600080fd5b8073ffffffffffffffffffffffffffffffffffffffff163373ffffffffffffffffffffffffffffffffffffffff161480610690575061068f8133610af4565b5b61069957600080fd5b826002600084815260200190815260200160002060006101000a81548173ffffffffffffffffffffffffffffffffffffffff021916908373ffffffffffffffffffffffffffffffffffffffff160217905550818373ffffffffffffffffffffffffffffffffffffffff168273ffffffffffffffffffffffffffffffffffffffff167f8c5be1e5ebec7d5bd14f71427d1e84f3dd0314c0f7b2291e5b200ac8c7c3b92560405160405180910390a4505050565b6107553382610bfa565b6107aa576040517f08c379a00000000000000000000000000000000000000000000000000000000081526004018080602001828103825260328152602001806112ca6032913960400191505060405180910390fd5b6107b5838383610c8f565b505050565b6107d583838360405180602001604052806000815250610a82565b505050565b6000806001600084815260200190815260200160002060009054906101000a900473ffffffffffffffffffffffffffffffffffffffff169050600073ffffffffffffffffffffffffffffffffffffffff168173ffffffffffffffffffffffffffffffffffffffff16141561084d57600080fd5b80915050919050565b60008073ffffffffffffffffffffffffffffffffffffffff168273ffffffffffffffffffffffffffffffffffffffff1614156108fa576040517f08c379a000000000000000000000000000000000000000000000000000000000815260040180806020018281038252600f8152602001807f496e76616c69642061646472657373000000000000000000000000000000000081525060200191505060405180910390fd5b610941600360008473ffffffffffffffffffffffffffffffffffffffff1673ffffffffffffffffffffffffffffffffffffffff168152602001908152602001600020610eea565b9050919050565b3373ffffffffffffffffffffffffffffffffffffffff168273ffffffffffffffffffffffffffffffffffffffff16141561098157600080fd5b80600460003373ffffffffffffffffffffffffffffffffffffffff1673ffffffffffffffffffffffffffffffffffffffff16815260200190815260200160002060008473ffffffffffffffffffffffffffffffffffffffff1673ffffffffffffffffffffffffffffffffffffffff16815260200190815260200160002060006101000a81548160ff0219169083151502179055508173ffffffffffffffffffffffffffffffffffffffff163373ffffffffffffffffffffffffffffffffffffffff167f17307eab39ab6107e8899845ad3d59bd9653f200f220920489ca2b5937696c3183604051808215151515815260200191505060405180910390a35050565b610a8d84848461074b565b610a9984848484610ef8565b610aee576040517f08c379a000000000000000000000000000000000000000000000000000000000815260040180806020018281038252603c815260200180611323603c913960400191505060405180910390fd5b50505050565b6000600460008473ffffffffffffffffffffffffffffffffffffffff1673ffffffffffffffffffffffffffffffffffffffff16815260200190815260200160002060008373ffffffffffffffffffffffffffffffffffffffff1673ffffffffffffffffffffffffffffffffffffffff16815260200190815260200160002060009054906101000a900460ff16905092915050565b6000806001600084815260200190815260200160002060009054906101000a900473ffffffffffffffffffffffffffffffffffffffff169050600073ffffffffffffffffffffffffffffffffffffffff168173ffffffffffffffffffffffffffffffffffffffff161415915050919050565b600080610c06836107da565b90508073ffffffffffffffffffffffffffffffffffffffff168473ffffffffffffffffffffffffffffffffffffffff161480610c7557508373ffffffffffffffffffffffffffffffffffffffff16610c5d846105bb565b73ffffffffffffffffffffffffffffffffffffffff16145b80610c865750610c858185610af4565b5b91505092915050565b8273ffffffffffffffffffffffffffffffffffffffff16610caf826107da565b73ffffffffffffffffffffffffffffffffffffffff1614610d1b576040517f08c379a000000000000000000000000000000000000000000000000000000000815260040180806020018281038252602881526020018061135f6028913960400191505060405180910390fd5b600073ffffffffffffffffffffffffffffffffffffffff168273ffffffffffffffffffffffffffffffffffffffff161415610da1576040517f08c379a00000000000000000000000000000000000000000000000000000000081526004018080602001828103825260278152602001806112fc6027913960400191505060405180910390fd5b610daa81611119565b610df1600360008573ffffffffffffffffffffffffffffffffffffffff1673ffffffffffffffffffffffffffffffffffffffff1681526020019081526020016000206111d7565b610e38600360008473ffffffffffffffffffffffffffffffffffffffff1673ffffffffffffffffffffffffffffffffffffffff1681526020019081526020016000206111fa565b816001600083815260200190815260200160002060006101000a81548173ffffffffffffffffffffffffffffffffffffffff021916908373ffffffffffffffffffffffffffffffffffffffff160217905550808273ffffffffffffffffffffffffffffffffffffffff168473ffffffffffffffffffffffffffffffffffffffff167fddf252ad1be2c89b69c2b068fc378daa952ba7f163c4a11628f55a4df523b3ef60405160405180910390a4505050565b600081600001549050919050565b6000610f198473ffffffffffffffffffffffffffffffffffffffff16611210565b610f265760019050611111565b60008473ffffffffffffffffffffffffffffffffffffffff1663150b7a02338887876040518563ffffffff167c0100000000000000000000000000000000000000000000000000000000028152600401808573ffffffffffffffffffffffffffffffffffffffff1673ffffffffffffffffffffffffffffffffffffffff1681526020018473ffffffffffffffffffffffffffffffffffffffff1673ffffffffffffffffffffffffffffffffffffffff16815260200183815260200180602001828103825283818151815260200191508051906020019080838360005b8381101561101d578082015181840152602081019050611002565b50505050905090810190601f16801561104a5780820380516001836020036101000a031916815260200191505b5095505050505050602060405180830381600087803b15801561106c57600080fd5b505af1158015611080573d6000803e3d6000fd5b505050506040513d602081101561109657600080fd5b8101908080519060200190929190505050905063150b7a027c0100000000000000000000000000000000000000000000000000000000027bffffffffffffffffffffffffffffffffffffffffffffffffffffffff1916817bffffffffffffffffffffffffffffffffffffffffffffffffffffffff1916149150505b949350505050565b600073ffffffffffffffffffffffffffffffffffffffff166002600083815260200190815260200160002060009054906101000a900473ffffffffffffffffffffffffffffffffffffffff1673ffffffffffffffffffffffffffffffffffffffff16146111d45760006002600083815260200190815260200160002060006101000a81548173ffffffffffffffffffffffffffffffffffffffff021916908373ffffffffffffffffffffffffffffffffffffffff1602179055505b50565b6111ef6001826000015461122390919063ffffffff16565b816000018190555050565b6001816000016000828254019250508190555050565b600080823b905060008111915050919050565b60008282111561127e576040517f08c379a000000000000000000000000000000000000000000000000000000000815260040180806020018281038252603a815260200180611290603a913960400191505060405180910390fd5b60008284039050809150509291505056fe61206d7573742062652067726561746572207468616e20622c206e6567617469766520726573756c747320617265206e6f7420616c6c6f77656453656e64657220646f65736e2774206f776e207468697320746f6b656e206f72206861766520726967687473206f6e206974496e76616c696420616464726573732e204572726f72207472616e73666572696320746f6b656e546172676574206164647265737320646f6573206e6f7420696d706c656d656e74206f6e455243373231526563656976656420696e7465726661636553656e64657220646f65736e74206f776e20746f6b656e20746f206265207472616e736665726564a265627a7a7231582078423e14850874393b952d4b19511b5c606244c7eee0a67fb520ac27b56d914064736f6c63430005110032",
  "source": "pragma solidity ^0.5.0;\r\n\r\nimport \"./IERC721.sol\";\r\nimport \"./IERC721Receiver.sol\";\r\nimport \"../math/SafeMath.sol\";\r\nimport \"../utils/Address.sol\";\r\nimport \"../drafts/Counters.sol\";\r\nimport \"./ERC165.sol\";\r\n\r\n/**\r\n * @title ERC721 Non-Fungible Token Standard basic implementation\r\n * @dev see https://github.com/ethereum/EIPs/blob/master/EIPS/eip-721.md\r\n */\r\ncontract ERC721 is ERC165, IERC721 {\r\n    using SafeMath for uint256;\r\n    using Address for address;\r\n    using Counters for Counters.Counter;\r\n\r\n    // Equals to `bytes4(keccak256(\"onERC721Received(address,address,uint256,bytes)\"))`\r\n    // which can be also obtained as `IERC721Receiver(0).onERC721Received.selector`\r\n    bytes4 private constant _ERC721_RECEIVED = 0x150b7a02;\r\n\r\n    // Mapping from token ID to owner\r\n    mapping (uint256 => address) private _tokenOwner;\r\n\r\n    // Mapping from token ID to approved address\r\n    mapping (uint256 => address) private _tokenApprovals;\r\n\r\n    // Mapping from owner to number of owned token\r\n    mapping (address => Counters.Counter) private _ownedTokensCount;\r\n\r\n    // Mapping from owner to operator approvals\r\n    mapping (address => mapping (address => bool)) private _operatorApprovals;\r\n\r\n    bytes4 private constant _INTERFACE_ID_ERC721 = 0x80ac58cd;\r\n    /*\r\n     * 0x80ac58cd ===\r\n     *     bytes4(keccak256('balanceOf(address)')) ^\r\n     *     bytes4(keccak256('ownerOf(uint256)')) ^\r\n     *     bytes4(keccak256('approve(address,uint256)')) ^\r\n     *     bytes4(keccak256('getApproved(uint256)')) ^\r\n     *     bytes4(keccak256('setApprovalForAll(address,bool)')) ^\r\n     *     bytes4(keccak256('isApprovedForAll(address,address)')) ^\r\n     *     bytes4(keccak256('transferFrom(address,address,uint256)')) ^\r\n     *     bytes4(keccak256('safeTransferFrom(address,address,uint256)')) ^\r\n     *     bytes4(keccak256('safeTransferFrom(address,address,uint256,bytes)'))\r\n     */\r\n\r\n    constructor () public {\r\n        // register the supported interfaces to conform to ERC721 via ERC165\r\n        _registerInterface(_INTERFACE_ID_ERC721);\r\n    }\r\n\r\n    /**\r\n     * @dev Gets the balance of the specified address\r\n     * @param owner address to query the balance of\r\n     * @return uint256 representing the amount owned by the passed address\r\n     */\r\n    function balanceOf(address owner) public view returns (uint256) {\r\n        require(owner != address(0), \"Invalid address\");\r\n        return _ownedTokensCount[owner].current();\r\n    }\r\n\r\n    /**\r\n     * @dev Gets the owner of the specified token ID\r\n     * @param tokenId uint256 ID of the token to query the owner of\r\n     * @return address currently marked as the owner of the given token ID\r\n     */\r\n    function ownerOf(uint256 tokenId) public view returns (address) {\r\n        address owner = _tokenOwner[tokenId];\r\n        require(owner != address(0));\r\n        return owner;\r\n    }\r\n\r\n    /**\r\n     * @dev Approves another address to transfer the given token ID\r\n     * The zero address indicates there is no approved address.\r\n     * There can only be one approved address per token at a given time.\r\n     * Can only be called by the token owner or an approved operator.\r\n     * @param to address to be approved for the given token ID\r\n     * @param tokenId uint256 ID of the token to be approved\r\n     */\r\n    function approve(address to, uint256 tokenId) public {\r\n        address owner = ownerOf(tokenId);\r\n        require(to != owner);\r\n        require(msg.sender == owner || isApprovedForAll(owner, msg.sender));\r\n\r\n        _tokenApprovals[tokenId] = to;\r\n        emit Approval(owner, to, tokenId);\r\n    }\r\n\r\n    /**\r\n     * @dev Gets the approved address for a token ID, or zero if no address set\r\n     * Reverts if the token ID does not exist.\r\n     * @param tokenId uint256 ID of the token to query the approval of\r\n     * @return address currently approved for the given token ID\r\n     */\r\n    function getApproved(uint256 tokenId) public view returns (address) {\r\n        require(_exists(tokenId));\r\n        return _tokenApprovals[tokenId];\r\n    }\r\n\r\n    /**\r\n     * @dev Sets or unsets the approval of a given operator\r\n     * An operator is allowed to transfer all tokens of the sender on their behalf\r\n     * @param to operator address to set the approval\r\n     * @param approved representing the status of the approval to be set\r\n     */\r\n    function setApprovalForAll(address to, bool approved) public {\r\n        require(to != msg.sender);\r\n        _operatorApprovals[msg.sender][to] = approved;\r\n        emit ApprovalForAll(msg.sender, to, approved);\r\n    }\r\n\r\n    /**\r\n     * @dev Tells whether an operator is approved by a given owner\r\n     * @param owner owner address which you want to query the approval of\r\n     * @param operator operator address which you want to query the approval of\r\n     * @return bool whether the given operator is approved by the given owner\r\n     */\r\n    function isApprovedForAll(address owner, address operator) public view returns (bool) {\r\n        return _operatorApprovals[owner][operator];\r\n    }\r\n\r\n    /**\r\n     * @dev Transfers the ownership of a given token ID to another address\r\n     * Usage of this method is discouraged, use `safeTransferFrom` whenever possible\r\n     * Requires the msg.sender to be the owner, approved, or operator\r\n     * @param from current owner of the token\r\n     * @param to address to receive the ownership of the given token ID\r\n     * @param tokenId uint256 ID of the token to be transferred\r\n     */\r\n    function transferFrom(address from, address to, uint256 tokenId) public {\r\n        require(_isApprovedOrOwner(msg.sender, tokenId), \"Sender doesn't own this token or have rights on it\");\r\n\r\n        _transferFrom(from, to, tokenId);\r\n    }\r\n\r\n    /**\r\n     * @dev Safely transfers the ownership of a given token ID to another address\r\n     * If the target address is a contract, it must implement `onERC721Received`,\r\n     * which is called upon a safe transfer, and return the magic value\r\n     * `bytes4(keccak256(\"onERC721Received(address,address,uint256,bytes)\"))`; otherwise,\r\n     * the transfer is reverted.\r\n     * Requires the msg.sender to be the owner, approved, or operator\r\n     * @param from current owner of the token\r\n     * @param to address to receive the ownership of the given token ID\r\n     * @param tokenId uint256 ID of the token to be transferred\r\n     */\r\n    function safeTransferFrom(address from, address to, uint256 tokenId) public {\r\n        safeTransferFrom(from, to, tokenId, \"\");\r\n    }\r\n\r\n    /**\r\n     * @dev Safely transfers the ownership of a given token ID to another address\r\n     * If the target address is a contract, it must implement `onERC721Received`,\r\n     * which is called upon a safe transfer, and return the magic value\r\n     * `bytes4(keccak256(\"onERC721Received(address,address,uint256,bytes)\"))`; otherwise,\r\n     * the transfer is reverted.\r\n     * Requires the msg.sender to be the owner, approved, or operator\r\n     * @param from current owner of the token\r\n     * @param to address to receive the ownership of the given token ID\r\n     * @param tokenId uint256 ID of the token to be transferred\r\n     * @param _data bytes data to send along with a safe transfer check\r\n     */\r\n    function safeTransferFrom(address from, address to, uint256 tokenId, bytes memory _data) public {\r\n        transferFrom(from, to, tokenId);\r\n        require(_checkOnERC721Received(from, to, tokenId, _data), \"Target address does not implement onERC721Received interface\");\r\n    }\r\n\r\n    /**\r\n     * @dev Returns whether the specified token exists\r\n     * @param tokenId uint256 ID of the token to query the existence of\r\n     * @return bool whether the token exists\r\n     */\r\n    function _exists(uint256 tokenId) internal view returns (bool) {\r\n        address owner = _tokenOwner[tokenId];\r\n        return owner != address(0);\r\n    }\r\n\r\n    /**\r\n     * @dev Returns whether the given spender can transfer a given token ID\r\n     * @param spender address of the spender to query\r\n     * @param tokenId uint256 ID of the token to be transferred\r\n     * @return bool whether the msg.sender is approved for the given token ID,\r\n     * is an operator of the owner, or is the owner of the token\r\n     */\r\n    function _isApprovedOrOwner(address spender, uint256 tokenId) internal view returns (bool) {\r\n        address owner = ownerOf(tokenId);\r\n        return (spender == owner || getApproved(tokenId) == spender || isApprovedForAll(owner, spender));\r\n    }\r\n\r\n    /**\r\n     * @dev Internal function to mint a new token\r\n     * Reverts if the given token ID already exists\r\n     * @param to The address that will own the minted token\r\n     * @param tokenId uint256 ID of the token to be minted\r\n     */\r\n    function _mint(address to, uint256 tokenId) internal {\r\n\r\n        _tokenOwner[tokenId] = to;\r\n        _ownedTokensCount[to].increment();\r\n\r\n        emit Transfer(address(0), to, tokenId);\r\n    }\r\n\r\n    /**\r\n     * @dev Internal function to burn a specific token\r\n     * Reverts if the token does not exist\r\n     * Deprecated, use _burn(uint256) instead.\r\n     * @param owner owner of the token to burn\r\n     * @param tokenId uint256 ID of the token being burned\r\n     */\r\n    function _burn(address owner, uint256 tokenId) internal {\r\n        require(ownerOf(tokenId) == owner);\r\n\r\n        _clearApproval(tokenId);\r\n\r\n        _ownedTokensCount[owner].decrement();\r\n        _tokenOwner[tokenId] = address(0);\r\n\r\n        emit Transfer(owner, address(0), tokenId);\r\n    }\r\n\r\n    /**\r\n     * @dev Internal function to burn a specific token\r\n     * Reverts if the token does not exist\r\n     * @param tokenId uint256 ID of the token being burned\r\n     */\r\n    function _burn(uint256 tokenId) internal {\r\n        _burn(ownerOf(tokenId), tokenId);\r\n    }\r\n\r\n    /**\r\n     * @dev Internal function to transfer ownership of a given token ID to another address.\r\n     * As opposed to transferFrom, this imposes no restrictions on msg.sender.\r\n     * @param from current owner of the token\r\n     * @param to address to receive the ownership of the given token ID\r\n     * @param tokenId uint256 ID of the token to be transferred\r\n     */\r\n    function _transferFrom(address from, address to, uint256 tokenId) internal {\r\n        require(ownerOf(tokenId) == from, \"Sender doesnt own token to be transfered\");\r\n        require(to != address(0), \"Invalid address. Error transferic token\");\r\n\r\n        _clearApproval(tokenId);\r\n\r\n        _ownedTokensCount[from].decrement();\r\n        _ownedTokensCount[to].increment();\r\n\r\n        _tokenOwner[tokenId] = to;\r\n\r\n        emit Transfer(from, to, tokenId);\r\n    }\r\n\r\n    /**\r\n     * @dev Internal function to invoke `onERC721Received` on a target address\r\n     * The call is not executed if the target address is not a contract\r\n     * @param from address representing the previous owner of the given token ID\r\n     * @param to target address that will receive the tokens\r\n     * @param tokenId uint256 ID of the token to be transferred\r\n     * @param _data bytes optional data to send along with the call\r\n     * @return bool whether the call correctly returned the expected magic value\r\n     */\r\n    function _checkOnERC721Received(address from, address to, uint256 tokenId, bytes memory _data)\r\n        internal returns (bool)\r\n    {\r\n        if (!to.isContract()) {\r\n            return true;\r\n        }\r\n\r\n        bytes4 retval = IERC721Receiver(to).onERC721Received(msg.sender, from, tokenId, _data);\r\n        return (retval == _ERC721_RECEIVED);\r\n    }\r\n\r\n    /**\r\n     * @dev Private function to clear current approval of a given token ID\r\n     * @param tokenId uint256 ID of the token to be transferred\r\n     */\r\n    function _clearApproval(uint256 tokenId) private {\r\n        if (_tokenApprovals[tokenId] != address(0)) {\r\n            _tokenApprovals[tokenId] = address(0);\r\n        }\r\n    }\r\n}",
  "sourcePath": "/mnt/d/workspace/cryptodragons/truffle-project/contracts/common/token/ERC721.sol",
  "compiler": {
    "name": "solc",
    "version": "0.5.17+commit.d19bba13.Emscripten.clang"
  },
  "schemaVersion": "3.0.1",
  "updatedAt": "2021-02-25T00:49:04.296Z",
  "devdoc": {
    "details": "see https://github.com/ethereum/EIPs/blob/master/EIPS/eip-721.md",
    "methods": {
      "approve(address,uint256)": {
        "details": "Approves another address to transfer the given token ID The zero address indicates there is no approved address. There can only be one approved address per token at a given time. Can only be called by the token owner or an approved operator.",
        "params": {
          "to": "address to be approved for the given token ID",
          "tokenId": "uint256 ID of the token to be approved"
        }
      },
      "balanceOf(address)": {
        "details": "Gets the balance of the specified address",
        "params": {
          "owner": "address to query the balance of"
        },
        "return": "uint256 representing the amount owned by the passed address"
      },
      "getApproved(uint256)": {
        "details": "Gets the approved address for a token ID, or zero if no address set Reverts if the token ID does not exist.",
        "params": {
          "tokenId": "uint256 ID of the token to query the approval of"
        },
        "return": "address currently approved for the given token ID"
      },
      "isApprovedForAll(address,address)": {
        "details": "Tells whether an operator is approved by a given owner",
        "params": {
          "operator": "operator address which you want to query the approval of",
          "owner": "owner address which you want to query the approval of"
        },
        "return": "bool whether the given operator is approved by the given owner"
      },
      "ownerOf(uint256)": {
        "details": "Gets the owner of the specified token ID",
        "params": {
          "tokenId": "uint256 ID of the token to query the owner of"
        },
        "return": "address currently marked as the owner of the given token ID"
      },
      "safeTransferFrom(address,address,uint256)": {
        "details": "Safely transfers the ownership of a given token ID to another address If the target address is a contract, it must implement `onERC721Received`, which is called upon a safe transfer, and return the magic value `bytes4(keccak256(\"onERC721Received(address,address,uint256,bytes)\"))`; otherwise, the transfer is reverted. Requires the msg.sender to be the owner, approved, or operator",
        "params": {
          "from": "current owner of the token",
          "to": "address to receive the ownership of the given token ID",
          "tokenId": "uint256 ID of the token to be transferred"
        }
      },
      "safeTransferFrom(address,address,uint256,bytes)": {
        "details": "Safely transfers the ownership of a given token ID to another address If the target address is a contract, it must implement `onERC721Received`, which is called upon a safe transfer, and return the magic value `bytes4(keccak256(\"onERC721Received(address,address,uint256,bytes)\"))`; otherwise, the transfer is reverted. Requires the msg.sender to be the owner, approved, or operator",
        "params": {
          "_data": "bytes data to send along with a safe transfer check",
          "from": "current owner of the token",
          "to": "address to receive the ownership of the given token ID",
          "tokenId": "uint256 ID of the token to be transferred"
        }
      },
      "setApprovalForAll(address,bool)": {
        "details": "Sets or unsets the approval of a given operator An operator is allowed to transfer all tokens of the sender on their behalf",
        "params": {
          "approved": "representing the status of the approval to be set",
          "to": "operator address to set the approval"
        }
      },
      "supportsInterface(bytes4)": {
        "details": "implement supportsInterface(bytes4) using a lookup table"
      },
      "transferFrom(address,address,uint256)": {
        "details": "Transfers the ownership of a given token ID to another address Usage of this method is discouraged, use `safeTransferFrom` whenever possible Requires the msg.sender to be the owner, approved, or operator",
        "params": {
          "from": "current owner of the token",
          "to": "address to receive the ownership of the given token ID",
          "tokenId": "uint256 ID of the token to be transferred"
        }
      }
    },
    "title": "ERC721 Non-Fungible Token Standard basic implementation"
  },
  "userdoc": {
    "methods": {}
  }
}