{
  "contractName": "GenesLaboratory",
  "abi": [
    {
      "inputs": [
        {
          "internalType": "address",
          "name": "dragonAddress",
          "type": "address"
        }
      ],
      "payable": false,
      "stateMutability": "nonpayable",
      "type": "constructor",
      "signature": "constructor"
    },
    {
      "constant": false,
      "inputs": [],
      "name": "createNewDragonGenes",
      "outputs": [
        {
          "internalType": "bytes32",
          "name": "genes",
          "type": "bytes32"
        },
        {
          "internalType": "uint16",
          "name": "initialHealth",
          "type": "uint16"
        },
        {
          "internalType": "uint16",
          "name": "initialStrength",
          "type": "uint16"
        },
        {
          "internalType": "uint16",
          "name": "initialAgility",
          "type": "uint16"
        },
        {
          "internalType": "uint16",
          "name": "initialFortitude",
          "type": "uint16"
        },
        {
          "internalType": "uint16",
          "name": "actionCooldown",
          "type": "uint16"
        },
        {
          "internalType": "uint16",
          "name": "hatchTime",
          "type": "uint16"
        }
      ],
      "payable": false,
      "stateMutability": "nonpayable",
      "type": "function",
      "signature": "0x355916a4"
    },
    {
      "constant": false,
      "inputs": [
        {
          "internalType": "bytes32",
          "name": "fatherGenes",
          "type": "bytes32"
        },
        {
          "internalType": "bytes32",
          "name": "motherGenes",
          "type": "bytes32"
        }
      ],
      "name": "createChildGenes",
      "outputs": [
        {
          "internalType": "bytes32",
          "name": "childGenes",
          "type": "bytes32"
        },
        {
          "internalType": "uint16",
          "name": "initialHealth",
          "type": "uint16"
        },
        {
          "internalType": "uint16",
          "name": "initialStrength",
          "type": "uint16"
        },
        {
          "internalType": "uint16",
          "name": "initialAgility",
          "type": "uint16"
        },
        {
          "internalType": "uint16",
          "name": "initialFortitude",
          "type": "uint16"
        },
        {
          "internalType": "uint16",
          "name": "actionCooldown",
          "type": "uint16"
        },
        {
          "internalType": "uint16",
          "name": "hatchTime",
          "type": "uint16"
        }
      ],
      "payable": false,
      "stateMutability": "nonpayable",
      "type": "function",
      "signature": "0x53df58d7"
    },
    {
      "constant": true,
      "inputs": [
        {
          "internalType": "bytes32",
          "name": "genes",
          "type": "bytes32"
        }
      ],
      "name": "getInitialHealthFromBytes",
      "outputs": [
        {
          "internalType": "uint16",
          "name": "",
          "type": "uint16"
        }
      ],
      "payable": false,
      "stateMutability": "pure",
      "type": "function",
      "signature": "0xecb04748"
    },
    {
      "constant": true,
      "inputs": [
        {
          "internalType": "bytes32",
          "name": "genes",
          "type": "bytes32"
        }
      ],
      "name": "getMaxHealthFromBytes",
      "outputs": [
        {
          "internalType": "uint16",
          "name": "",
          "type": "uint16"
        }
      ],
      "payable": false,
      "stateMutability": "pure",
      "type": "function",
      "signature": "0xcf4cd1de"
    },
    {
      "constant": true,
      "inputs": [
        {
          "internalType": "bytes32",
          "name": "genes",
          "type": "bytes32"
        }
      ],
      "name": "getInitialStrengthFromBytes",
      "outputs": [
        {
          "internalType": "uint16",
          "name": "",
          "type": "uint16"
        }
      ],
      "payable": false,
      "stateMutability": "pure",
      "type": "function",
      "signature": "0x238e672a"
    },
    {
      "constant": true,
      "inputs": [
        {
          "internalType": "bytes32",
          "name": "genes",
          "type": "bytes32"
        }
      ],
      "name": "getMaxStrengthFromBytes",
      "outputs": [
        {
          "internalType": "uint16",
          "name": "",
          "type": "uint16"
        }
      ],
      "payable": false,
      "stateMutability": "pure",
      "type": "function",
      "signature": "0xd9b8a618"
    },
    {
      "constant": true,
      "inputs": [
        {
          "internalType": "bytes32",
          "name": "genes",
          "type": "bytes32"
        }
      ],
      "name": "getInitialAgilityFromBytes",
      "outputs": [
        {
          "internalType": "uint16",
          "name": "",
          "type": "uint16"
        }
      ],
      "payable": false,
      "stateMutability": "pure",
      "type": "function",
      "signature": "0xc32369a3"
    },
    {
      "constant": true,
      "inputs": [
        {
          "internalType": "bytes32",
          "name": "genes",
          "type": "bytes32"
        }
      ],
      "name": "getMaxAgilityFromBytes",
      "outputs": [
        {
          "internalType": "uint16",
          "name": "",
          "type": "uint16"
        }
      ],
      "payable": false,
      "stateMutability": "pure",
      "type": "function",
      "signature": "0x6204f857"
    },
    {
      "constant": true,
      "inputs": [
        {
          "internalType": "bytes32",
          "name": "genes",
          "type": "bytes32"
        }
      ],
      "name": "getInitialFortitudeFromBytes",
      "outputs": [
        {
          "internalType": "uint16",
          "name": "",
          "type": "uint16"
        }
      ],
      "payable": false,
      "stateMutability": "pure",
      "type": "function",
      "signature": "0x0ce68f8a"
    },
    {
      "constant": true,
      "inputs": [
        {
          "internalType": "bytes32",
          "name": "genes",
          "type": "bytes32"
        }
      ],
      "name": "getMaxFortitudeFromBytes",
      "outputs": [
        {
          "internalType": "uint16",
          "name": "",
          "type": "uint16"
        }
      ],
      "payable": false,
      "stateMutability": "pure",
      "type": "function",
      "signature": "0xf5373ed7"
    },
    {
      "constant": true,
      "inputs": [
        {
          "internalType": "bytes32",
          "name": "genes",
          "type": "bytes32"
        }
      ],
      "name": "getActionCooldownFromBytes",
      "outputs": [
        {
          "internalType": "uint16",
          "name": "",
          "type": "uint16"
        }
      ],
      "payable": false,
      "stateMutability": "pure",
      "type": "function",
      "signature": "0xd77936ec"
    },
    {
      "constant": true,
      "inputs": [
        {
          "internalType": "bytes32",
          "name": "genes",
          "type": "bytes32"
        }
      ],
      "name": "getHatchTimeFromBytes",
      "outputs": [
        {
          "internalType": "uint16",
          "name": "",
          "type": "uint16"
        }
      ],
      "payable": false,
      "stateMutability": "pure",
      "type": "function",
      "signature": "0x52bc13fe"
    },
    {
      "constant": true,
      "inputs": [
        {
          "internalType": "bytes32",
          "name": "genes",
          "type": "bytes32"
        }
      ],
      "name": "getHeadAttributeFromBytes",
      "outputs": [
        {
          "internalType": "uint16",
          "name": "",
          "type": "uint16"
        }
      ],
      "payable": false,
      "stateMutability": "pure",
      "type": "function",
      "signature": "0xea4f89f3"
    },
    {
      "constant": true,
      "inputs": [
        {
          "internalType": "bytes32",
          "name": "genes",
          "type": "bytes32"
        }
      ],
      "name": "getBodyAttributeFromBytes",
      "outputs": [
        {
          "internalType": "uint16",
          "name": "",
          "type": "uint16"
        }
      ],
      "payable": false,
      "stateMutability": "pure",
      "type": "function",
      "signature": "0xe71bb1a0"
    },
    {
      "constant": true,
      "inputs": [
        {
          "internalType": "bytes32",
          "name": "genes",
          "type": "bytes32"
        }
      ],
      "name": "getWingsAttributeFromBytes",
      "outputs": [
        {
          "internalType": "uint16",
          "name": "",
          "type": "uint16"
        }
      ],
      "payable": false,
      "stateMutability": "pure",
      "type": "function",
      "signature": "0x70f17ac8"
    },
    {
      "constant": true,
      "inputs": [
        {
          "internalType": "bytes32",
          "name": "genes",
          "type": "bytes32"
        }
      ],
      "name": "getGenerationAttributeFromBytes",
      "outputs": [
        {
          "internalType": "uint16",
          "name": "",
          "type": "uint16"
        }
      ],
      "payable": false,
      "stateMutability": "pure",
      "type": "function",
      "signature": "0xff1816ee"
    }
  ],
  "bytecode": "0x608060405234801561001057600080fd5b506040516117023803806117028339818101604052602081101561003357600080fd5b8101908080519060200190929190505050600073ffffffffffffffffffffffffffffffffffffffff168173ffffffffffffffffffffffffffffffffffffffff1614156100e7576040517f08c379a000000000000000000000000000000000000000000000000000000000815260040180806020018281038252601e8152602001807f496e76616c696420647261676f6e20616464726573732061646472657373000081525060200191505060405180910390fd5b806000806101000a81548173ffffffffffffffffffffffffffffffffffffffff021916908373ffffffffffffffffffffffffffffffffffffffff160217905550506115cb806101376000396000f3fe608060405234801561001057600080fd5b506004361061011d576000357c010000000000000000000000000000000000000000000000000000000090048063cf4cd1de116100b4578063ea4f89f311610083578063ea4f89f314610524578063ecb047481461056e578063f5373ed7146105b8578063ff1816ee146106025761011d565b8063cf4cd1de146103fc578063d77936ec14610446578063d9b8a61814610490578063e71bb1a0146104da5761011d565b806353df58d7116100f057806353df58d7146102785780636204f8571461031e57806370f17ac814610368578063c32369a3146103b25761011d565b80630ce68f8a14610122578063238e672a1461016c578063355916a4146101b657806352bc13fe1461022e575b600080fd5b61014e6004803603602081101561013857600080fd5b810190808035906020019092919050505061064c565b604051808261ffff1661ffff16815260200191505060405180910390f35b6101986004803603602081101561018257600080fd5b8101908080359060200190929190505050610666565b604051808261ffff1661ffff16815260200191505060405180910390f35b6101be610680565b604051808881526020018761ffff1661ffff1681526020018661ffff1661ffff1681526020018561ffff1661ffff1681526020018461ffff1661ffff1681526020018361ffff1661ffff1681526020018261ffff1661ffff16815260200197505050505050505060405180910390f35b61025a6004803603602081101561024457600080fd5b81019080803590602001909291905050506107f7565b604051808261ffff1661ffff16815260200191505060405180910390f35b6102ae6004803603604081101561028e57600080fd5b810190808035906020019092919080359060200190929190505050610811565b604051808881526020018761ffff1661ffff1681526020018661ffff1661ffff1681526020018561ffff1661ffff1681526020018461ffff1661ffff1681526020018361ffff1661ffff1681526020018261ffff1661ffff16815260200197505050505050505060405180910390f35b61034a6004803603602081101561033457600080fd5b81019080803590602001909291905050506109a7565b604051808261ffff1661ffff16815260200191505060405180910390f35b6103946004803603602081101561037e57600080fd5b81019080803590602001909291905050506109c1565b604051808261ffff1661ffff16815260200191505060405180910390f35b6103de600480360360208110156103c857600080fd5b81019080803590602001909291905050506109db565b604051808261ffff1661ffff16815260200191505060405180910390f35b6104286004803603602081101561041257600080fd5b81019080803590602001909291905050506109f5565b604051808261ffff1661ffff16815260200191505060405180910390f35b6104726004803603602081101561045c57600080fd5b8101908080359060200190929190505050610a0f565b604051808261ffff1661ffff16815260200191505060405180910390f35b6104bc600480360360208110156104a657600080fd5b8101908080359060200190929190505050610a29565b604051808261ffff1661ffff16815260200191505060405180910390f35b610506600480360360208110156104f057600080fd5b8101908080359060200190929190505050610a43565b604051808261ffff1661ffff16815260200191505060405180910390f35b6105506004803603602081101561053a57600080fd5b8101908080359060200190929190505050610a5d565b604051808261ffff1661ffff16815260200191505060405180910390f35b61059a6004803603602081101561058457600080fd5b8101908080359060200190929190505050610a77565b604051808261ffff1661ffff16815260200191505060405180910390f35b6105e4600480360360208110156105ce57600080fd5b8101908080359060200190929190505050610a91565b604051808261ffff1661ffff16815260200191505060405180910390f35b61062e6004803603602081101561061857600080fd5b8101908080359060200190929190505050610aab565b604051808261ffff1661ffff16815260200191505060405180910390f35b600060908260019004908060020a82049150509050919050565b600060d08260019004908060020a82049150509050919050565b60008060008060008060008060009054906101000a900473ffffffffffffffffffffffffffffffffffffffff1673ffffffffffffffffffffffffffffffffffffffff163373ffffffffffffffffffffffffffffffffffffffff1614610730576040517f08c379a00000000000000000000000000000000000000000000000000000000081526004018080602001828103825260228152602001806115756022913960400191505060405180910390fd5b61073987610ab9565b809750819850505061074a87610af4565b965061075587610b2a565b809650819850505061076687610b65565b965061077187610b9b565b809550819850505061078287610bd6565b965061078d87610c0c565b809450819850505061079e87610c47565b96506107a987610c7d565b80935081985050506107ba87610cae565b80925081985050506107cb87610ce0565b96506107d687610d1c565b96506107e187610d58565b96506107ec87610d94565b965090919293949596565b600060608260019004908060020a82049150509050919050565b60008060008060008060008060009054906101000a900473ffffffffffffffffffffffffffffffffffffffff1673ffffffffffffffffffffffffffffffffffffffff163373ffffffffffffffffffffffffffffffffffffffff16146108c1576040517f08c379a00000000000000000000000000000000000000000000000000000000081526004018080602001828103825260228152602001806115756022913960400191505060405180910390fd5b6108cc878a8a610db3565b80975081985050506108df878a8a610e0f565b96506108ec878a8a610e65565b80965081985050506108ff878a8a610ec1565b965061090c878a8a610f17565b809550819850505061091f878a8a610f73565b965061092c878a8a610fc9565b809450819850505061093f878a8a611025565b965061094c878a8a61107b565b809350819850505061095f878a8a611110565b8092508198505050610972878a8a6111a5565b965061097f878a8a6111fb565b965061098c878a8a611251565b9650610999878a8a6112a7565b965092959891949750929550565b600060a08260019004908060020a82049150509050919050565b600060308260019004908060020a82049150509050919050565b600060b08260019004908060020a82049150509050919050565b600060e08260019004908060020a82049150509050919050565b600060708260019004908060020a82049150509050919050565b600060c08260019004908060020a82049150509050919050565b600060408260019004908060020a82049150509050919050565b600060508260019004908060020a82049150509050919050565b600060f08260019004908060020a82049150509050919050565b600060808260019004908060020a82049150509050919050565b600081600190049050919050565b6000806000610aca601060166112f0565b9050600060f0829060020a0290506000856001900482179050806001028394509450505050915091565b600080610b0360af60e16112f0565b9050600060e0829060020a0290506000846001900482179050806001029350505050919050565b6000806000610b3b600460066112f0565b9050600060d0829060020a0290506000856001900482179050806001028394509450505050915091565b600080610b746032604b6112f0565b9050600060c0829060020a0290506000846001900482179050806001029350505050919050565b6000806000610bac600460066112f0565b9050600060b0829060020a0290506000856001900482179050806001028394509450505050915091565b600080610be56032604b6112f0565b9050600060a0829060020a0290506000846001900482179050806001029350505050919050565b6000806000610c1d600460066112f0565b905060006090829060020a0290506000856001900482179050806001028394509450505050915091565b600080610c566032604b6112f0565b905060006080829060020a0290506000846001900482179050806001029350505050919050565b600080600060b4905060006070829060020a0290506000856001900482179050806001028394509450505050915091565b6000806000610168905060006060829060020a0290506000856001900482179050806001028394509450505050915091565b600080600590506000610cf46000836112f0565b905060006050829060020a029050600085600190048217905080600102945050505050919050565b600080600590506000610d306000836112f0565b905060006040829060020a029050600085600190048217905080600102945050505050919050565b600080600590506000610d6c6000836112f0565b905060006030829060020a029050600085600190048217905080600102945050505050919050565b6000806001905060008360019004821790508060010292505050919050565b6000806000610dc185610a77565b90506000610dce85610a77565b90506000610ddc83836113a2565b61ffff169050600060f0829060020a02905060008960019004821790508060010283965096505050505050935093915050565b600080610e1b846109f5565b90506000610e28846109f5565b90506000610e3683836113a2565b61ffff169050600060e0829060020a029050600088600190048217905080600102955050505050509392505050565b6000806000610e7385610666565b90506000610e8085610666565b90506000610e8e83836113a2565b61ffff169050600060d0829060020a02905060008960019004821790508060010283965096505050505050935093915050565b600080610ecd84610a29565b90506000610eda84610a29565b90506000610ee883836113a2565b61ffff169050600060c0829060020a029050600088600190048217905080600102955050505050509392505050565b6000806000610f25856109db565b90506000610f32856109db565b90506000610f4083836113a2565b61ffff169050600060b0829060020a02905060008960019004821790508060010283965096505050505050935093915050565b600080610f7f846109a7565b90506000610f8c846109a7565b90506000610f9a83836113a2565b61ffff169050600060a0829060020a029050600088600190048217905080600102955050505050509392505050565b6000806000610fd78561064c565b90506000610fe48561064c565b90506000610ff283836113a2565b61ffff16905060006090829060020a02905060008960019004821790508060010283965096505050505050935093915050565b60008061103184610a29565b9050600061103e84610a29565b9050600061104c83836113a2565b61ffff16905060006080829060020a029050600088600190048217905080600102955050505050509392505050565b6000806000611089856107f7565b90506000611096856107f7565b905060008161ffff168361ffff1611156110b6578261ffff1690506110be565b8161ffff1690505b60006103e861044c8302816110cf57fe5b04905061ffff8111156110e25761ffff90505b60006070829060020a02905060008a6001900482179050806001028397509750505050505050935093915050565b600080600061111e856107f7565b9050600061112b856107f7565b905060008161ffff168361ffff16111561114b578261ffff169050611153565b8161ffff1690505b60006103e861044c83028161116457fe5b04905061ffff8111156111775761ffff90505b60006060829060020a02905060008a6001900482179050806001028397509750505050505050935093915050565b6000806111b184610a5d565b905060006111be84610a5d565b905060006111cc838361144d565b61ffff16905060006050829060020a029050600088600190048217905080600102955050505050509392505050565b60008061120784610a43565b9050600061121484610a43565b90506000611222838361149a565b61ffff1690506000603c829060020a029050600088600190048217905080600102955050505050509392505050565b60008061125d84610a43565b9050600061126a84610a43565b9050600061127883836114e7565b61ffff16905060006028829060020a029050600088600190048217905080600102955050505050509392505050565b6000806112b384610aab565b905060006112c084610aab565b905060006112ce8383611534565b61ffff1690506000876001900482179050806001029450505050509392505050565b60008060018484030190506000814233600154604051602001808481526020018373ffffffffffffffffffffffffffffffffffffffff1673ffffffffffffffffffffffffffffffffffffffff166c01000000000000000000000000028152601401828152602001935050505060405160208183030381529060405280519060200120600190048161137d57fe5b0690508481019050600160008154809291906001019190505550809250505092915050565b6000806127108461ffff1602905060006127108461ffff16029050600080828410156113d3578391508290506113da565b8291508390505b611d4c6064605f8402816113ea57fe5b040391506127108210156113fe5761271091505b611d4c6064606983028161140e57fe5b04019050600061271061138861142485856112f0565b018161142c57fe5b04905061ffff81111561143f5761ffff90505b809550505050505092915050565b60008061145d60006127106112f0565b9050610fa081101561147157839150611493565b611d4c81101561148357829150611492565b61148f600160046112f0565b91505b5b5092915050565b6000806114aa60006127106112f0565b9050610ea68110156114be578391506114e0565b611d4c8110156114d0578291506114df565b6114dc600160046112f0565b91505b5b5092915050565b6000806114f760006127106112f0565b9050610dac81101561150b5783915061152d565b611d4c81101561151d5782915061152c565b611529600160046112f0565b91505b5b5092915050565b6000808261ffff168461ffff161161154c578261154e565b835b61ffff16905060018101905061ffff81111561156a5761ffff90505b809150509291505056fe4f6e6c7920647261676f6e20636f6e74726163742063616e2063616c6c2074686973a265627a7a72315820ebb24260bfce5a6cb64e48ccd52f42593b2d78517e74f65518d7b6812cc1ae5464736f6c63430005110032",
  "source": "pragma solidity ^0.5.0;\n\ncontract GenesLaboratory {\n\n    address private _dragonContractAddress;\n    uint private _randomNonce;\n\n    constructor(address dragonAddress) public {\n        require(dragonAddress != address(0), \"Invalid dragon address address\");\n        _dragonContractAddress = dragonAddress;\n    }\n\n    modifier onlyFromDragonContract() {\n        require(msg.sender == _dragonContractAddress, \"Only dragon contract can call this\");\n        _;\n    }\n\n    function createNewDragonGenes() public onlyFromDragonContract returns (\n        bytes32 genes,\n        uint16 initialHealth,\n        uint16 initialStrength,\n        uint16 initialAgility,\n        uint16 initialFortitude,\n        uint16 actionCooldown,\n        uint16 hatchTime) {\n\n        (genes, initialHealth) = createInitialHealthValue(genes);\n        genes = createMaxHealthValue(genes);\n        (genes, initialStrength) = createInitialStrengthValue(genes);\n        genes = createMaxStrengthValue(genes);\n        (genes, initialAgility) = createInitialAgilityValue(genes);\n        genes = createMaxAgilityValue(genes);\n        (genes, initialFortitude) = createInitialFortitudeValue(genes);\n        genes = createMaxFortitudeValue(genes);\n        (genes, actionCooldown) = createActionCooldown(genes);\n        (genes, hatchTime) = createHatchTime(genes);\n        genes = createHead(genes);\n        genes = createBody(genes);\n        genes = createWings(genes);\n        genes = createGeneration(genes);\n    }\n    \n    function createChildGenes(bytes32 fatherGenes, bytes32 motherGenes) public onlyFromDragonContract returns (\n        bytes32 childGenes,\n        uint16 initialHealth,\n        uint16 initialStrength,\n        uint16 initialAgility,\n        uint16 initialFortitude,\n        uint16 actionCooldown,\n        uint16 hatchTime) {\n        (childGenes, initialHealth) = getChildInitialHealth(childGenes, fatherGenes, motherGenes);\n        childGenes = getChildMaxHealth(childGenes, fatherGenes, motherGenes);\n        (childGenes, initialStrength) = getChildInitialStrength(childGenes, fatherGenes, motherGenes);\n        childGenes = getChildMaxStrength(childGenes, fatherGenes, motherGenes);\n        (childGenes, initialAgility) = getChildInitialAgility(childGenes, fatherGenes, motherGenes);\n        childGenes = getChildMaxAgility(childGenes, fatherGenes, motherGenes);\n        (childGenes, initialFortitude) = getChildInitialFortitude(childGenes, fatherGenes, motherGenes);\n        childGenes = getChildMaxFortitude(childGenes, fatherGenes, motherGenes);\n        (childGenes, actionCooldown) = getChildActionCooldown(childGenes, fatherGenes, motherGenes);\n        (childGenes, hatchTime) = getChildHatchTime(childGenes, fatherGenes, motherGenes);\n        childGenes = getChildHead(childGenes, fatherGenes, motherGenes);\n        childGenes = getChildBody(childGenes, fatherGenes, motherGenes);\n        childGenes = getChildWings(childGenes, fatherGenes, motherGenes);\n        childGenes = getChildGeneration(childGenes, fatherGenes, motherGenes);\n    }\n\n    /************************** Genes creation ***************************************** */\n\n    function createInitialHealthValue(bytes32 genes) private returns (bytes32, uint16) {\n        uint value = random(16, 22);\n        uint shiftedValue = value << (30 * 8);\n        uint result = shiftedValue | uint(genes);\n        return (bytes32(result), uint16(value));\n    }\n\n    function createMaxHealthValue(bytes32 genes) private returns (bytes32) {\n        uint value = random(175, 225);\n        uint shiftedValue = value << (28 * 8);\n        uint result = shiftedValue | uint(genes);\n        return bytes32(result);\n    }\n\n    function createInitialStrengthValue(bytes32 genes) private returns (bytes32, uint16) {\n        uint value = random(4, 6);\n        uint shiftedValue = value << (26 * 8);\n        uint result = shiftedValue | uint(genes);\n        return (bytes32(result), uint16(value));\n    }\n\n    function createMaxStrengthValue(bytes32 genes) private returns (bytes32) {\n        uint value = random(50, 75);\n        uint shiftedValue = value << (24 * 8);\n        uint result = shiftedValue | uint(genes);\n        return bytes32(result);\n    }\n\n    function createInitialAgilityValue(bytes32 genes) private returns (bytes32, uint16) {\n        uint value = random(4, 6);\n        uint shiftedValue = value << (22 * 8);\n        uint result = shiftedValue | uint(genes);\n        return (bytes32(result), uint16(value));\n    }\n\n    function createMaxAgilityValue(bytes32 genes) private returns (bytes32) {\n        uint value = random(50, 75);\n        uint shiftedValue = value << (20 * 8);\n        uint result = shiftedValue | uint(genes);\n        return bytes32(result);\n    }\n\n    function createInitialFortitudeValue(bytes32 genes) private returns (bytes32, uint16) {\n        uint value = random(4, 6);\n        uint shiftedValue = value << (18 * 8);\n        uint result = shiftedValue | uint(genes);\n        return (bytes32(result), uint16(value));\n    }\n\n    function createMaxFortitudeValue(bytes32 genes) private returns (bytes32) {\n        uint value = random(50, 75);\n        uint shiftedValue = value << (16 * 8);\n        uint result = shiftedValue | uint(genes);\n        return bytes32(result);\n    }\n\n     function createActionCooldown(bytes32 genes) private returns (bytes32, uint16) {\n        uint value = 180;\n        uint shiftedValue = value << (14 * 8);\n        uint result = shiftedValue | uint(genes);\n        return (bytes32(result), uint16(value));\n    }\n\n    function createHatchTime(bytes32 genes) private returns (bytes32, uint16) {\n        uint value = 360;\n        uint shiftedValue = value << (12 * 8);\n        uint result = shiftedValue | uint(genes);\n        return (bytes32(result), uint16(value));\n    }\n\n    function createHead(bytes32 genes) private returns (bytes32) {\n        uint headsAmount = 5;\n        uint value = random(0, headsAmount);\n        \n        uint shiftedValue = value << (10 * 8);\n        uint result = shiftedValue | uint(genes);\n        return bytes32(result);\n    }\n\n    function createBody(bytes32 genes) private returns (bytes32) {\n        uint bodyAmount = 5;\n        uint value = random(0, bodyAmount);\n        \n        uint shiftedValue = value << (8 * 8);\n        uint result = shiftedValue | uint(genes);\n        return bytes32(result);\n    }\n\n    function createWings(bytes32 genes) private returns (bytes32) {\n        uint wingsAmount = 5;\n        uint value = random(0, wingsAmount);\n        \n        uint shiftedValue = value << (6 * 8);\n        uint result = shiftedValue | uint(genes);\n        return bytes32(result);\n    }\n\n    function createGeneration(bytes32 genes) private returns (bytes32) {\n        uint generation = 1;\n        uint result = generation | uint(genes);\n        return bytes32(result);\n    }\n\n    /******************************* Genes propagation ****************************************************/\n\n    function getChildInitialHealth(bytes32 childGenes, bytes32 fatherGenes, bytes32 motherGenes) private returns (bytes32, uint16) {\n        uint16 fatherInitialHealth = getInitialHealthFromBytes(fatherGenes);\n        uint16 motherInitialHealth = getInitialHealthFromBytes(motherGenes);\n\n        uint childInitialHealth = generateChildValue(fatherInitialHealth, motherInitialHealth);\n        \n        uint shiftedValue = childInitialHealth << (30 * 8);\n        uint result = shiftedValue | uint(childGenes);\n        return (bytes32(result), uint16(childInitialHealth));\n    }\n\n    function getChildMaxHealth(bytes32 childGenes, bytes32 fatherGenes, bytes32 motherGenes) private returns (bytes32) {\n        uint16 fatherMaxHealth = getMaxHealthFromBytes(fatherGenes);\n        uint16 motherMaxHealth = getMaxHealthFromBytes(motherGenes);\n\n        uint childMaxHealth = generateChildValue(fatherMaxHealth, motherMaxHealth);\n        \n        uint shiftedValue = childMaxHealth << (28 * 8);\n        uint result = shiftedValue | uint(childGenes);\n        return bytes32(result);\n    }\n\n    function getChildInitialStrength(bytes32 childGenes, bytes32 fatherGenes, bytes32 motherGenes) private returns (bytes32, uint16) {\n        uint16 fatherInitialStrength = getInitialStrengthFromBytes(fatherGenes);\n        uint16 motherInitialStrength = getInitialStrengthFromBytes(motherGenes);\n\n        uint childInitialStrength = generateChildValue(fatherInitialStrength, motherInitialStrength);\n        \n        uint shiftedValue = childInitialStrength << (26 * 8);\n        uint result = shiftedValue | uint(childGenes);\n        return (bytes32(result), uint16(childInitialStrength));\n    }\n\n    function getChildMaxStrength(bytes32 childGenes, bytes32 fatherGenes, bytes32 motherGenes) private returns (bytes32) {\n        uint16 fatherMaxStrength = getMaxStrengthFromBytes(fatherGenes);\n        uint16 motherMaxStrength = getMaxStrengthFromBytes(motherGenes);\n\n        uint childMaxStrength = generateChildValue(fatherMaxStrength, motherMaxStrength);\n        \n        uint shiftedValue = childMaxStrength << (24 * 8);\n        uint result = shiftedValue | uint(childGenes);\n        return bytes32(result);\n    }\n\n    function getChildInitialAgility(bytes32 childGenes, bytes32 fatherGenes, bytes32 motherGenes) private returns (bytes32, uint16) {\n        uint16 fatherInitialAgility = getInitialAgilityFromBytes(fatherGenes);\n        uint16 motherInitialAgility = getInitialAgilityFromBytes(motherGenes);\n\n        uint childInitialAgility = generateChildValue(fatherInitialAgility, motherInitialAgility);\n        \n        uint shiftedValue = childInitialAgility << (22 * 8);\n        uint result = shiftedValue | uint(childGenes);\n        return (bytes32(result), uint16(childInitialAgility));\n    }\n\n    function getChildMaxAgility(bytes32 childGenes, bytes32 fatherGenes, bytes32 motherGenes) private returns (bytes32) {\n        uint16 fatherMaxAgility = getMaxAgilityFromBytes(fatherGenes);\n        uint16 motherMaxAgility = getMaxAgilityFromBytes(motherGenes);\n\n        uint childMaxAgility = generateChildValue(fatherMaxAgility, motherMaxAgility);\n        \n        uint shiftedValue = childMaxAgility << (20 * 8);\n        uint result = shiftedValue | uint(childGenes);\n        return bytes32(result);\n    }\n\n    function getChildInitialFortitude(bytes32 childGenes, bytes32 fatherGenes, bytes32 motherGenes) private returns (bytes32, uint16) {\n        uint16 fatherInitialFortitude = getInitialFortitudeFromBytes(fatherGenes);\n        uint16 motherInitialFortitude = getInitialFortitudeFromBytes(motherGenes);\n\n        uint childInitialFortitude = generateChildValue(fatherInitialFortitude, motherInitialFortitude);\n        \n        uint shiftedValue = childInitialFortitude << (18 * 8);\n        uint result = shiftedValue | uint(childGenes);\n        return (bytes32(result), uint16(childInitialFortitude));\n    }\n\n    function getChildMaxFortitude(bytes32 childGenes, bytes32 fatherGenes, bytes32 motherGenes) private returns (bytes32) {\n        uint16 fatherMaxFortitude = getMaxStrengthFromBytes(fatherGenes);\n        uint16 motherMaxFortitude = getMaxStrengthFromBytes(motherGenes);\n\n        uint childMaxFortitude = generateChildValue(fatherMaxFortitude, motherMaxFortitude);\n        \n        uint shiftedValue = childMaxFortitude << (16 * 8);\n        uint result = shiftedValue | uint(childGenes);\n        return bytes32(result);\n    }\n\n    function getChildActionCooldown(bytes32 childGenes, bytes32 fatherGenes, bytes32 motherGenes) private returns (bytes32, uint16) {\n        uint16 fatherHatchTime = getHatchTimeFromBytes(fatherGenes);\n        uint16 motherHatchTime = getHatchTimeFromBytes(motherGenes);\n\n        uint maxValue;\n        if (fatherHatchTime > motherHatchTime) {\n             maxValue = fatherHatchTime;\n        } else {\n            maxValue = motherHatchTime;\n        }\n\n        uint value = (uint(maxValue) * 1100) / 1000;\n        if (value > 65535) {\n            value = 65535;\n        }        \n        uint shiftedValue = value << (14 * 8);\n        uint result = shiftedValue | uint(childGenes);\n        return (bytes32(result), uint16(value));\n    }\n\n    function getChildHatchTime(bytes32 childGenes, bytes32 fatherGenes, bytes32 motherGenes) private returns (bytes32, uint16) {\n        uint16 fatherHatchTime = getHatchTimeFromBytes(fatherGenes);\n        uint16 motherHatchTime = getHatchTimeFromBytes(motherGenes);\n\n        uint maxValue;\n        if (fatherHatchTime > motherHatchTime) {\n             maxValue = fatherHatchTime;\n        } else {\n            maxValue = motherHatchTime;\n        }\n\n        uint value = (uint(maxValue) * 1100) / 1000;\n        if (value > 65535) {\n            value = 65535;\n        }        \n        uint shiftedValue = value << (12 * 8);\n        uint result = shiftedValue | uint(childGenes);\n        return (bytes32(result), uint16(value));\n    }\n\n    function getChildHead(bytes32 childGenes, bytes32 fatherGenes, bytes32 motherGenes) private returns (bytes32) {\n        uint16 fatherHead = getHeadAttributeFromBytes(fatherGenes);\n        uint16 motherHead = getHeadAttributeFromBytes(motherGenes);\n\n        uint childHead = generateChildHeadValue(fatherHead, motherHead);\n        \n        uint shiftedValue = childHead << (10 * 8);\n        uint result = shiftedValue | uint(childGenes);\n        return bytes32(result);\n    }\n\n    function getChildBody(bytes32 childGenes, bytes32 fatherGenes, bytes32 motherGenes) private returns (bytes32) {\n        uint16 fatherBody = getBodyAttributeFromBytes(fatherGenes);\n        uint16 motherBody = getBodyAttributeFromBytes(motherGenes);\n\n        uint childBody = generateChildBodyValue(fatherBody, motherBody);\n        \n        uint shiftedValue = childBody << (10 * 6);\n        uint result = shiftedValue | uint(childGenes);\n        return bytes32(result);\n    }\n\n    function getChildWings(bytes32 childGenes, bytes32 fatherGenes, bytes32 motherGenes) private returns (bytes32) {\n        uint16 fatherWings = getBodyAttributeFromBytes(fatherGenes);\n        uint16 motherWings = getBodyAttributeFromBytes(motherGenes);\n\n        uint childWings = generateChildWingsValue(fatherWings, motherWings);\n        \n        uint shiftedValue = childWings << (10 * 4);\n        uint result = shiftedValue | uint(childGenes);\n        return bytes32(result);\n    }\n\n    function getChildGeneration(bytes32 childGenes, bytes32 fatherGenes, bytes32 motherGenes) private returns (bytes32) {\n        uint16 fatherGeneration = getGenerationAttributeFromBytes(fatherGenes);\n        uint16 motherGeneration = getGenerationAttributeFromBytes(motherGenes);\n\n        uint childGeneration = generateChildGeneration(fatherGeneration, motherGeneration);\n        \n        uint result = childGeneration | uint(childGenes);\n        return bytes32(result);\n    }\n\n    function generateChildValue(uint16 fatherValue, uint16 motherValue) private returns (uint16 value) {\n        uint fatherFixedValue = uint(fatherValue) * 10000;\n        uint motherFixedValue = uint(motherValue) * 10000;\n\n        uint minimumValue;\n        uint maximumValue;\n        if (fatherFixedValue < motherFixedValue) {\n            minimumValue = fatherFixedValue;\n            maximumValue = motherFixedValue;\n        } else {\n            minimumValue = motherFixedValue;\n            maximumValue = fatherFixedValue;\n        }\n\n        // Increase variance by 7500 to allow stats jump on lower values\n        minimumValue = (minimumValue * 95 / 100) - 7500;\n        if (minimumValue < 10000) {\n            minimumValue = 10000;\n        }\n        maximumValue = (maximumValue * 105 / 100) + 7500;\n\n        // adds 5000 to round positive integer value and clamp value to prevent int overflow\n        uint randomValue = (random(minimumValue, maximumValue) + 5000) / 10000;\n        if (randomValue > 65535) {\n            randomValue = 65535;\n        }\n        return uint16(randomValue);\n    }\n\n    function generateChildHeadValue(uint16 fatherValue, uint16 motherValue) private returns (uint16 value) {\n        uint roll = random(0, 10000);\n        if (roll < 4000) {\n            value = fatherValue;\n        } else if (roll < 7500) {\n            value = motherValue;\n        } else {\n            value = uint16(random(1, 4));\n        }\n    }\n\n    function generateChildBodyValue(uint16 fatherValue, uint16 motherValue) private returns (uint16 value) {\n        uint roll = random(0, 10000);\n        if (roll < 3750) {\n            value = fatherValue;\n        } else if (roll < 7500) {\n            value = motherValue;\n        } else {\n            value = uint16(random(1, 4));\n        }\n    }\n\n    function generateChildWingsValue(uint16 fatherValue, uint16 motherValue) private returns (uint16 value) {\n        uint roll = random(0, 10000);\n        if (roll < 3500) {\n            value = fatherValue;\n        } else if (roll < 7500) {\n            value = motherValue;\n        } else {\n            value = uint16(random(1, 4));\n        }\n    }\n\n    function generateChildGeneration(uint16 fatherValue, uint16 motherValue) private returns (uint16) {\n        uint maxValue = (fatherValue > motherValue) ? fatherValue : motherValue;\n        maxValue = maxValue + 1;\n        if (maxValue > 65535) {\n            maxValue = 65535;\n        }\n        return uint16(maxValue);\n    }\n\n    /**************************** Getters *********************************************** */\n\n    function getInitialHealthFromBytes(bytes32 genes) public pure returns (uint16) {\n        return uint16(uint256(genes) >> (30 * 8) );\n    }\n\n    function getMaxHealthFromBytes(bytes32 genes) public pure returns (uint16) {\n        return uint16(uint256(genes) >> (28 * 8) );\n    }\n\n    function getInitialStrengthFromBytes(bytes32 genes) public pure returns (uint16) {\n        return uint16(uint256(genes) >> (26 * 8) );\n    }\n\n    function getMaxStrengthFromBytes(bytes32 genes) public pure returns (uint16) {\n        return uint16(uint256(genes) >> (24 * 8) );\n    }\n\n    function getInitialAgilityFromBytes(bytes32 genes) public pure returns (uint16) {\n        return uint16(uint256(genes) >> (22 * 8) );\n    }\n\n    function getMaxAgilityFromBytes(bytes32 genes) public pure returns (uint16) {\n        return uint16(uint256(genes) >> (20 * 8) );\n    }\n\n    function getInitialFortitudeFromBytes(bytes32 genes) public pure returns (uint16) {\n        return uint16(uint256(genes) >> (18 * 8) );\n    }\n\n    function getMaxFortitudeFromBytes(bytes32 genes) public pure returns (uint16) {\n        return uint16(uint256(genes) >> (16 * 8) );\n    }\n\n    function getActionCooldownFromBytes(bytes32 genes) public pure returns (uint16) {\n        return uint16(uint256(genes) >> (14 * 8) );\n    }\n\n    function getHatchTimeFromBytes(bytes32 genes) public pure returns (uint16) {\n        return uint16(uint256(genes) >> (12 * 8) );\n    }\n\n    /*********************** Visual Attributes *************************************** */\n    function getHeadAttributeFromBytes(bytes32 genes) public pure returns (uint16) {\n        return uint16(uint256(genes) >> (10 * 8) );\n    }\n\n    function getBodyAttributeFromBytes(bytes32 genes) public pure returns (uint16) {\n        return uint16(uint256(genes) >> (8 * 8) );\n    }\n\n    function getWingsAttributeFromBytes(bytes32 genes) public pure returns (uint16) {\n        return uint16(uint256(genes) >> (6 * 8) );\n    }\n\n    function getGenerationAttributeFromBytes(bytes32 genes) public pure returns (uint16) {\n        return uint16(uint256(genes));\n    }\n\n    /********************* Utils *************************************** */\n\n    // This is vulnerable, but I don't think it is worth protecting for this use case.\n    // A safer, more complex and expensive solution is using an oracle like Provable\n    function random(uint start, uint end) private returns (uint) {\n        uint n = end - start + 1;\n        uint randomnumber = uint(keccak256(abi.encodePacked(now, msg.sender, _randomNonce))) % n;\n        randomnumber = randomnumber + start;\n        _randomNonce++;\n        return randomnumber;\n    }\n}",
  "sourcePath": "/usr/src/app/contractGetter/contracts/genes/GenesLaboratory.sol",
  "compiler": {
    "name": "solc",
    "version": "0.5.17+commit.d19bba13.Emscripten.clang"
  },
  "schemaVersion": "3.0.1",
  "updatedAt": "2021-07-04T21:56:04.302Z",
  "devdoc": {
    "methods": {}
  },
  "userdoc": {
    "methods": {
      "getHeadAttributeFromBytes(bytes32)": {
        "notice": "********************* Visual Attributes *************************************** "
      },
      "getInitialHealthFromBytes(bytes32)": {
        "notice": "************************** Getters *********************************************** "
      }
    }
  }
}