{
  "contractName": "SimpleStore",
  "abi": [
    {
      "anonymous": false,
      "inputs": [
        {
          "indexed": true,
          "internalType": "uint256",
          "name": "_value",
          "type": "uint256"
        },
        {
          "indexed": false,
          "internalType": "address",
          "name": "_sender",
          "type": "address"
        }
      ],
      "name": "NewValueSet",
      "type": "event"
    },
    {
      "anonymous": false,
      "inputs": [
        {
          "indexed": true,
          "internalType": "uint256",
          "name": "_value",
          "type": "uint256"
        },
        {
          "indexed": false,
          "internalType": "address",
          "name": "_sender",
          "type": "address"
        }
      ],
      "name": "NewValueSetAgain",
      "type": "event"
    },
    {
      "constant": false,
      "inputs": [
        {
          "internalType": "uint256",
          "name": "_value",
          "type": "uint256"
        }
      ],
      "name": "set",
      "outputs": [],
      "payable": false,
      "stateMutability": "nonpayable",
      "type": "function"
    },
    {
      "constant": false,
      "inputs": [
        {
          "internalType": "uint256",
          "name": "_value",
          "type": "uint256"
        }
      ],
      "name": "setAgain",
      "outputs": [],
      "payable": false,
      "stateMutability": "nonpayable",
      "type": "function"
    },
    {
      "constant": true,
      "inputs": [],
      "name": "get",
      "outputs": [
        {
          "internalType": "uint256",
          "name": "",
          "type": "uint256"
        },
        {
          "internalType": "address",
          "name": "",
          "type": "address"
        }
      ],
      "payable": false,
      "stateMutability": "view",
      "type": "function"
    }
  ],
  "bytecode": "0x608060405234801561001057600080fd5b50610237806100206000396000f3fe608060405234801561001057600080fd5b506004361061005e576000357c01000000000000000000000000000000000000000000000000000000009004806360fe47b1146100635780636d4ce63c14610091578063cf718921146100e2575b600080fd5b61008f6004803603602081101561007957600080fd5b8101908080359060200190929190505050610110565b005b610099610180565b604051808381526020018273ffffffffffffffffffffffffffffffffffffffff1673ffffffffffffffffffffffffffffffffffffffff1681526020019250505060405180910390f35b61010e600480360360208110156100f857600080fd5b8101908080359060200190929190505050610192565b005b806000819055506000547f7e0b7a35f017ec94e71d7012fe8fa8011f1dab6090674f92de08f8092ab30dda33604051808273ffffffffffffffffffffffffffffffffffffffff1673ffffffffffffffffffffffffffffffffffffffff16815260200191505060405180910390a250565b60008060005433809050915091509091565b806000819055506000547fbd0b1e25f4b9c4b15621999967b6f720a9d31b208d1b70ec690fb4f46d445c8233604051808273ffffffffffffffffffffffffffffffffffffffff1673ffffffffffffffffffffffffffffffffffffffff16815260200191505060405180910390a25056fea265627a7a723158201f117c457b471a6f7ebd606f35d3a3f1fa69fdc152dec445f37d79e89f4c68d064736f6c63430005110032",
  "source": "pragma solidity ^0.5.0;\n\ncontract SimpleStore {\n  uint256 value;\n\n  event NewValueSet(uint256 indexed _value, address _sender);\n  event NewValueSetAgain(uint256 indexed _value, address _sender);\n\n  function set(uint256 _value) public {\n    value = _value;\n    emit NewValueSet(value, msg.sender);\n  }\n\n  function setAgain(uint256 _value) public {\n    value = _value;\n    emit NewValueSetAgain(value, msg.sender);\n  }\n\n  function get() public view returns (uint256, address) {\n    return (value, msg.sender);\n  }\n}\n",
  "sourcePath": "/usr/src/app/contractGetter/contracts/SimpleStore.sol",
  "compiler": {
    "name": "solc",
    "version": "0.5.17+commit.d19bba13.Emscripten.clang"
  },
  "schemaVersion": "3.0.1",
  "updatedAt": "2021-07-04T20:38:31.747Z",
  "devdoc": {
    "methods": {}
  },
  "userdoc": {
    "methods": {}
  }
}